:020000040800F2
:10000000580F0020C9010008071C0008BD1A00088D
:10001000051C0008830200084330000800000000AF
:100020000000000000000000000000000B1C0008A1
:100030008502000800000000091C00080D1C0008D3
:10004000E3010008E3010008E3010008E301000800
:10005000E3010008E3010008E3010008E3010008F0
:10006000E3010008E3010008E3010008E3010008E0
:10007000E3010008E3010008E3010008E3010008D0
:10008000E3010008E3010008E3010008E3010008C0
:10009000C52F0008E3010008E3010008E3010008A0
:1000A000E3010008E3010008E3010008E3010008A0
:1000B000E3010008E3010008E3010008E301000890
:1000C000E3010008E3010008E3010008E301000880
:1000D000E30100083D1E0008E3010008E3010008F9
:1000E000E3010008E3010008E301000800F002F862
:1000F00000F05AF80AA090E8000C82448344AAF168
:100100000107DA4501D100F04FF8AFF2090EBAE865
:100110000F0013F0010F18BFFB1A43F0010318473B
:10012000D8300000F83000000A444FF0000C10F8FE
:10013000013B13F0070408BF10F8014B1D1108BF65
:1001400010F8015B641E05D010F8016B641E01F805
:10015000016BF9D113F0080F1EBF10F8014BAD1C55
:100160000C1B09D16D1E58BF01F801CBFAD505E073
:1001700014F8016B01F8016B6D1EF9D59142D6D3CD
:10018000704700000023002400250026103A28BFF5
:1001900078C1FBD8520728BF30C148BF0B607047F9
:1001A0001FB51FBD10B510BD00F031F81146FFF7A7
:1001B000F7FF02F05BFF00F04FF803B4FFF7F2FF28
:1001C00003BC00F057F80000094880470948004781
:1001D000FEE7FEE7FEE7FEE7FEE7FEE7FEE7FEE7F7
:1001E000FEE7FEE704480549054A064B7047000054
:1001F0006D1C0008ED00000858090020580F002071
:10020000580B0020580B0020704770477047754608
:1002100000F02CF8AE4605006946534620F0070072
:10022000854618B020B5FFF7DDFFBDE820404FF050
:1002300000064FF000074FF000084FF0000BAC46EF
:10024000ACE8C009ACE8C009ACE8C009ACE8C0093A
:1002500021F007018D46704710B50446AFF30080CA
:100260002046BDE81040FFF7A8BF000000487047D7
:100270006801002001491820ABBEFEE726000200FD
:100280007047FEE77047704790F8211002291BD194
:1002900002681F4B11689A4221F00E01116011682B
:1002A00021F001011160194912D01A4B9A4211D064
:1002B000194B9A4210D0194B9A4210D0184B9A42BF
:1002C00010D14FF4803315E0042181630120704781
:1002D00001230FE010230DE04FF480730AE04FF488
:1002E000805307E001F1680C4FF08073624508BF4E
:1002F0004FF480130B604FF480710184416B19B18E
:1003000080B58847002080BD00207047040002406F
:10031000080002401C00024030000240440002403D
:1003200058000240B0B5044600F092F90546E64890
:10033000611C007818BF044400F08AF9401BA042F9
:10034000FAD3B0BD2DE9FE4F8346B2480C4658445F
:100350004FEAB02CBCF1050F05D3AF48BD2165466F
:1003600002F082FEAC4620680021B1EB104F01D1B3
:1003700080B228B9A848BE21654602F075FEAC4699
:100380006068122800F227810121A44A81401142AD
:1003900000F02181A848A94D042100264FF0010E4C
:1003A0000F274FF0000A4FF00009834508BF0321D3
:1003B0000191CDF800B0206830FA09F108BFBDE81E
:1003C000FE8F0EFA09F810EA080F00F00081BCF168
:1003D000050F08D39048CD21674602F045FEBC4684
:1003E0000F274FF0010E6068032816D911283AD064
:1003F000122849D08A49884213D08A49884210D0AD
:10040000894988420DD0894988420AD08849884262
:1004100007D08849884204D075E0DFE800F0024642
:100420005869A068E0B1012812D0022813D07A4898
:10043000F721E34602F018FEA06800285BD0DC46F6
:10044000DDF800B001284FF0010E4FF00F0702D188
:10045000CBF8108001E0CBF814804FF0080A52E08E
:100460004FF0040A4FE0E068411E032909D36A48AF
:10047000DC21674602F0F8FDE068BC460F274FF02C
:10048000010E00F1040A3EE0E068411E032909D391
:100490006148EA21674602F0E7FDE068BC460F27A5
:1004A0004FF0010E00F10C0A2DE0D4F80CA0AAF1D7
:1004B0000100032827D35848D521674602F0D4FD10
:1004C000D4F80CA0BC460F274FF0010E1BE0E068EB
:1004D000411E032909D35048E321674602F0C4FDB9
:1004E000E068BC460F274FF0010E00F1080A0AE051
:1004F0004FF0000A07E0DC46DDF800B04FF0040AD8
:100500004FF0010E0F2730465A46B9F1080F28BFA9
:10051000203828BF0432136807FA00F10AFA00F005
:1005200023EA010108431060E079C0064FD5764800
:100530002A460F23A5F57E720146006840F00100AF
:100540000860086800F00100029006F00C000299B3
:1005500083404FEA990152F8217027EA0303394F8B
:10056000BB4508D0384FBB4507D0384FBB45019F2E
:1005700008BF022702E0002700E0012707FA00F089
:100580000F27184342F821006068C103296854BF4F
:1005900021EA080141EA080129608103696854BF22
:1005A00021EA080141EA08016960C102A96854BF53
:1005B00021EA080141EA08018002A96020480146B9
:1005C000006854BF20EA080040EA080008600436CA
:1005D00009F10109EFE6124988423FF4DBAE114907
:1005E00088423FF4D7AE104988423FF4D3AE0F495A
:1005F00088423FF4CFAE0E4988423FF4CBAE0D495E
:1006000088423FF4C7AE0448BF21654602F02CFD86
:10061000AC46BFE600F8FEBF823100080F000600BE
:100620000000111000001210000021100000221024
:10063000000031100000321000140140000401409D
:100640000C04014000080140000C01400010014072
:1006500005480068704700BF1B48034900780A68D6
:1006600010440860704700BF5009002080B507485B
:10067000016841F010010160032000F08BF80020B8
:1006800000F006F800F024F8002080BD00200240B1
:1006900070B50D4E04464FF47A713078B1FBF0F02E
:1006A0000A490968B1FBF0F001F094F801250F2C1C
:1006B00008D838B94FF0FF3021460022002500F05D
:1006C0003BF87460284670BD000000207C000020CC
:1006D00082B00D480422016841F001010160016807
:1006E00001F0010101910199416841F0805141609F
:1006F000406800F08050009000980448016862F360
:100700001A61016002B070471810024004000140F5
:10071000B0F1FF3F09DD00F01F010122400902FA9C
:1007200001F1044A42F8201070472448BE2102F02B
:100730009BBC00BF00E100E070B514460E460546C4
:10074000102A03D31D48AA2102F08EFC102E03D3D9
:100750001A48AB2102F088FC19484FF0FF320068BC
:10076000C0F30220C11E80F0070038BF002104281A
:1007700028BF042002FA00F026EA0000884002FAAE
:1007800001F124EA010101432846BDE8704002F06E
:1007900059BC00BF10B504460338052803D30748E9
:1007A000922102F061FC06484FF6FF0201681140F9
:1007B000044A64F30A211143016010BDBB310008F3
:1007C0000CED00E00000FA0580B501F0070E00EB2B
:1007D000411C090600EB4E1000F1280058BF0CF533
:1007E00094702AB1012103810173190C418102E047
:1007F0000021C3800173002080BD704700EB4112CF
:10080000D0F86802D26B01F0F4BC00EB4112D0F8D2
:100810006802D2F83C2101F04BBD10B5044601F04E
:100820000700090607D404EB4011002281F82921B2
:1008300001F5947105E004EB4011012281F82920B3
:100840002831087094F82802012804BF022010BD46
:10085000012084F82802206802F0C6F9002084F8FC
:10086000280210BDB0B50446406801F00F02824274
:1008700001D9012522E001F00700090607D404EBA5
:100880004011002281F8292101F5947105E004EB63
:100890004011012281F82920283100258D7008702F
:1008A00094F82802012801D1022507E0012084F8EC
:1008B0002802206802F030FA84F828522846B0BD99
:1008C00010B5044601F00700090604EB401C05D4EE
:1008D00000218CF829110CF5947104E001218CF8A9
:1008E00029100CF128010A61CB7008704A7802B116
:1008F000C881022B04BF0020087194F82802012847
:1009000004BF022010BD012084F82802206802F0F4
:1009100033F8002084F8280210BD80B501F0070CE0
:100920004FF0000E00EB4C1101F59E77A7E80C404C
:1009300081F829E181F828C101F59471006802F07D
:1009400041FA002080BDB0B50446406801F00705BB
:10095000854284BF0120B0BD080607D404EB4110D6
:10096000002180F8291100F5947106E004EB451090
:10097000012180F8291000F1280101200D708870F4
:1009800094F82822012A04BF0220B0BD84F828026E
:10099000206802F0FFF925B9206804F50C7102F017
:1009A000B9F9002084F82802B0BD80B501F0070C29
:1009B00000EB4C1101F828CF4FF0000C01F1140EA0
:1009C0008EE80C1001224A70006802F0FBF900204A
:1009D00080BD00002DE9F84F0446006802F0F8FAE7
:1009E000000401D4206859E104F50C7040F60F753D
:1009F00000904CE1B0F8442012F00F0B2DD030F8ED
:100A00002BA04FEA4B095FEA0A4140F1FA8030F827
:100A1000191004EB4B1707F594782940803120F822
:100A2000191097F83411002900F0858098F800100B
:100A300030F82120B0F8503003EBC101520400EB34
:100A4000410100F18E80B1F80C646FF39F26002EF7
:100A500000F0B080B7F832218AE00188D2062CD4A9
:100A6000294001F500410180B0F8501094F8282089
:100A700001EBC20100EB4100B0F804046FF39F20CA
:100A80006064E16B08440021E0632046FFF7B6FE96
:100A900094F82400002800F0FA80206C002840F030
:100AA000F680206894F8241041F08001C9B2A0F8C3
:100AB0004C10002084F82400E9E00A055ED4090403
:100AC00040F1E5800188294080310180B0F8501064
:100AD00094F8282101EBC20100F20C4232F81130E7
:100AE0006FF39F23002BC4F8443114D0D4F83C1189
:100AF00089B1B4F82E2102F06EFAD4F83C01D4F892
:100B0000441108440021C4F83C012046FFF77DFE53
:100B1000206800F20C42B0F85010D4F83831002BA5
:100B200000F097803E2B00F29C8003F0010707EB5A
:100B300053039B02A0E0B0F8501098F8002001EB9E
:100B4000C20100EB4101B1F80C646FF39F26002E47
:100B50007DD0B7F82E21D7F83C11334602F03BFA8E
:100B600034E0B1F804646FF39F261EB3B7F8302168
:100B7000D7F83C11334602F02EFA1CE0B0F85010C2
:100B800094F8282101EBC20100EB4101B1F80C34CB
:100B900000996FF39F23C4F84431B4F82E2102F07A
:100BA0001AFA20680188294080310180204600F02F
:100BB000E1F96CE0002698F80000216848F2C003D3
:100BC00031F820202A401A4321F82020D7E94F038A
:100BD000D7F8441131448219002BC7F84411C7F8E3
:100BE0003C2103D0D7F83801B04205D998F800105D
:100BF0002046FFF70AFE04E098F800102046FFF7B1
:100C00008CFE5FEA0A6042D5206804EB4B1330F893
:100C10001910294001F5004120F81910B0F85020B2
:100C200093F8281002EBC10200EB4200B0F8040474
:100C30006FF39F205864DA6B02442046DA631B6C22
:100C400013B1FFF7B2FE22E0FFF7D8FD1FE0002648
:100C5000BCE78B5A574E23F4F8438B528B5A3343DD
:100C60000AE0DF064FF0FF364FEA531708BF06EBE6
:100C70005317504B43EA87238B5243F60F72018878
:100C8000114048F2C00202F53F52514001802068F5
:100C9000B0F94410B1F1FF3F7FF7ACAE02F098F924
:100CA00040050DD52068B0F8441021F48061A0F80B
:100CB0004410204600F030F92046002100F046F9AB
:100CC000206802F085F901462068490442BFB0F867
:100CD000441021F48041A0F8441002F079F9014653
:100CE0002068890442BFB0F8441021F40051A0F8F4
:100CF000441002F06DF901462068C90415D5B0F81A
:100D0000401021F00401A0F84010B0F8401021F08C
:100D10000801A0F84010204600F010F92068B0F853
:100D2000441021F48051A0F8441002F051F900055C
:100D300020D52068B0F8401041F00801A0F840101C
:100D4000B0F8441021F40061A0F84410B0F840104D
:100D500041F00401A0F8401002F03AF9C00406D5B1
:100D60002068B0F8441021F48051A0F844102046C7
:100D700000F020F9206802F02BF9800509D52068E1
:100D8000B0F8441021F40071A0F84410204600F09F
:100D9000D9F8206802F01CF9C00558BFBDE8F88FEB
:100DA0002068B0F8441021F48071A0F84410BDE828
:100DB000F88F00BF0080FFFFF0B585B0002861D03C
:100DC000044600683649884203D036A08C2102F0E0
:100DD0004BF994F8290228B9002084F8280220460B
:100DE00000F07CF8032084F82902206801F089FFD4
:100DF00094E82F50D4E907678DE82050CDE90367C8
:100E000001F0F0FED8BB20680021002502F0FFF8B9
:100E10006168012000220CE004EB4317FB8687F891
:100E2000282087F82900C7E90E553D6487F82B5024
:100E30000132D3B29942EFD8002000220CE004EB3B
:100E40004313C3E94E00C3F8400183F82B0183F834
:100E5000282183F829010132D3B29942EFD804F155
:100E6000080720688CCFD4E90565D4E907CECDE921
:100E7000007602AE86E8205001F031FF30B102204A
:100E800084F829020125284605B0F0BD002501207F
:100E900084F8245084F82902206801F01EFFF2E74C
:100EA000005C00402E2E2F447269766572732F53BA
:100EB000544D3332463178785F48414C5F44726913
:100EC0007665722F5372632F73746D333266317887
:100ED000785F68616C5F7063642E630000680C4922
:100EE000884218BF7047E0B50A480022016841F403
:100EF000000101600021006800F4000001900198E9
:100F00001420FFF719FC1420BDE88C40FFF700BC4B
:100F1000005C00401C10024010B5044680680228A6
:100F200018BFFFF7B0F9D4F86802012101F096FA72
:100F3000D4F86802BDE8104001F04FBAD0F868025A
:100F400001F074BAD0F8680201F07ABA10B504461C
:100F500090F82802012804BF022010BD012084F867
:100F6000241084F82802206802F053F8002084F846
:100F7000280210BDD0F8682200F50C71104601F06F
:100F800079BA10B5044690F82802012804BF02205F
:100F900010BD0120012184F828022046FFF72DFC16
:100FA000206801F098FE206802F004F8002084F820
:100FB000280210BD10B50446D0F8680201F097FA77
:100FC000A06920B10248016841F00601016010BD2E
:100FD00010ED00E02DE9FC410446006810F0130F0D
:100FE00004D149486C2102F03FF82068EC4EC0075C
:100FF0005FD060684FEA3020042803D34248722152
:1010000002F032F8B069C0000BD4B0694FF00108AB
:1010100040F08050B061B06900F0805001900198BC
:1010200001E04FF00008394F3868C00510D4386827
:1010300040F480703860FFF70BFB05463868C00548
:1010400006D4FFF705FB401B6428F7D9032057E0BF
:10105000F06910F440701ED0616801F4407188425C
:1010600019D02B49F06901220A6000220A6020F49D
:101070004071C007F1610ED0FFF7EAFA054641F270
:101080008837F069800706D4FFF7E2FA411B032096
:10109000B942F6D934E0F0696168B8F1000F20F484
:1010A000407040EA0100F0611EBFB06920F080503E
:1010B000B061206881070FD5A1684FEAB132042AD8
:1010C00005D31148B92101F0CFFF2068A16832682B
:1010D00022F4404211433160C00610D5E06840F46C
:1010E0008001B1F5800F05D0074840F2151101F0DD
:1010F000BBFFE068316821F48001084330600020C4
:1011000002B0BDE8F08100BF473100080070004028
:10111000400442422DE9F843002800F0B78004461D
:1011200000780D46000704D17F484FF44E7101F05E
:101130009BFF032D04D37C4840F2393101F094FF2A
:101140007A49086800F00700A8420AD2086820F02F
:10115000070028430860086800F00700A84240F034
:1011600095802068894681078D49884627D54107A3
:1011700006D5D8F80010424641F4E061C8F80010E6
:10118000010706D5D8F80010424641F46051C8F86E
:101190000010A1684FEA31120F2A00F2AD8001233E
:1011A00003FA02F24FF601731A4200F0A580D8F854
:1011B0000020434622F0F0021143C8F80010C00797
:1011C00051D1D9F8000000F00700A8420CD9D9F895
:1011D000000020F007002843C9F80000D9F80000FB
:1011E00000F00700A84251D12068410714D5E168FA
:1011F0004FEA3122072A00F28780012303FA02F224
:1012000012F0F10F00F08080D8F80020434622F45D
:10121000E0621143C8F80010000713D520694FEAB7
:101220003021072978D8012202FA01F111F0F10FDB
:1012300072D0D8F80010424621F4605141EAC00053
:10124000C8F8000000F090F8D8F80010384AC1F350
:101250000311515CC8404249086036480068FFF7F6
:1012600017FA002013E0606850B101281AD0022854
:1012700010D158F8041C4046880107D5022018E018
:10128000404658F8041C0020890712D4012001B000
:10129000BDE8F083244840F2663101F0E5FE606865
:1012A000012823D1404658F8040C80034FF0010078
:1012B000EDD5D8F8001021F003010843C8F800006C
:1012C000FFF7C6F9064641F288374046D8F80000D5
:1012D000616800F00C00B0EB810F3FF472AFFFF7D4
:1012E000B7F9801BB842F0D90320D0E74146022865
:1012F00058F8041CC0D0C7E70B4840F25F3101F03A
:10130000B3FE2068A16852E707484FF4697101F005
:10131000ABFE2068E16877E7034840F2AB3101F0AB
:10132000A3FE206985E700BF0F31000800200240BE
:10133000BE3000080400002009481949094A006825
:101340000968C1F30221515CC84070470448144940
:10135000044A00680968C1F3C221515CC840704763
:101360007C000020CE30000810B50D4C0D482268DE
:1013700002F00C03082B18BF10BDC2F383430AA16F
:10138000CB5CD10302D40D48584310BD21680AA29A
:101390005843C1F34041515CB0FBF1F010BD00BFB8
:1013A0000410024000127A0002030405060708092F
:1013B0000A0B0C0D0E0F10100102000000093D0079
:1013C0002DE9FC41002800F08E810446006848B1F8
:1013D00010F00F0106D1DFF8EC0340F2671101F0C5
:1013E00043FE2068C24EC00758D0606858B1B0F5BF
:1013F000803F08D0B0F5A02F05D0DFF8C80340F239
:101400006D1101F031FE706800F00C00042817D057
:10141000706800F00C00082802D17068C0030FD477
:10142000606898B1B0F5803F06D03168B0F5A02F64
:1014300021D141F480203060306840F4803020E0D9
:10144000306880032AD5606840BB4CE1306820F4E6
:1014500080303060306820F480203060FFF7F8F88A
:1014600005463068800319D5FFF7F2F8411B0320C9
:101470006429F6D938E121F480303060306820F4F6
:1014800080203060FFF7E4F805463068800305D41B
:10149000FFF7DEF8401B6428F7D9FAE020788007D0
:1014A0003CD52069022804D3C64840F2A11101F0BE
:1014B000DBFD6069202804D3C2484FF4D17101F0EC
:1014C000D3FD706810F00C0F07D0706800F00C00AE
:1014D000082809D17068C00306D43068800716D583
:1014E0002069012813D0FEE02069002800F09580D3
:1014F000B54801210160FFF7ABF805463068800769
:1015000005D4FFF7A5F8401B0228F7D9C1E03068E1
:10151000616920F0F80040EAC100306020780007DF
:1015200036D5A069A84DB8B1012806D0A5484FF41A
:10153000F17101F099FDA06970B10120C5F8800436
:10154000FFF786F80546706A800714D4FFF780F825
:10155000401B0228F7D99CE00020C5F88004FFF763
:1015600077F80546706A800712D5FFF771F8401BBF
:101570000228F7D98DE095484FF4FA510068B0FB86
:10158000F1F0019000BF0198411E00280191F9D1AE
:101590002078400740F18680E068052805D80121C1
:1015A00001FA00F010F0230F04D1864840F2112117
:1015B00001F05AFDF069C0000BD4F0694FF001084A
:1015C00040F08050F061F06900F080500090009889
:1015D00001E04FF000087E4F3868C0050FD438682E
:1015E00040F480703860FFF733F805463868C0056E
:1015F00005D4FFF72DF8401B6428F7D949E0E068CF
:10160000E0B1012805D0316A05282ED141F004004F
:101610003062306A40F001002DE06B48002101602B
:10162000FFF716F80546306880077FF577AFFFF7BC
:101630000FF8411B03200229F5D955E0306A20F04C
:1016400001003062306A20F004003062FFF700F8D9
:10165000054641F28837306A80071CD5FEF7F8FF4F
:10166000411B0320B942F6D93EE021F0010030626F
:10167000306A20F004003062FEF7EAFF054641F2CE
:101680008837306A800706D4FEF7E2FF401BB84275
:10169000F7D9032028E0B8F1000F1EBFF06920F051
:1016A0008050F061E069411E02290AD3002800F051
:1016B0008680444840F2AF2101F0D6FCE069002862
:1016C0007DD0716801F00C01082913D101280AD0DE
:1016D0007068216A00F480328A4204D1616A00F4A1
:1016E000701088426BD0012002B0BDE8F08100BFCD
:1016F00000100240344F022823D1206A40F4803089
:10170000B0F5803F04D02F484FF42E7101F0ACFCAF
:10171000606A4FEAB0400F2804D32A4840F2B9214A
:1017200001F0A2FC00203866FEF792FF0546306803
:10173000800115D5FEF78CFF411B03200229F6D945
:10174000D2E700203866FEF783FF04463068800148
:1017500035D5FEF77DFF011B03200229F6D9C3E72B
:10176000206AB0F5803F14D1A16841F40030B0F593
:10177000003F02D14FF4803006E0124840F2CF2102
:1017800001F072FCA168206A726822F400321143F1
:101790007160716821F474110843616A08437060D4
:1017A00001203866FEF754FF04463068800106D4F5
:1017B000FEF74EFF011B03200229F6D994E7002013
:1017C00092E700BF0F310008000042427C00002079
:1017D00000700040411E0020B0EB116F1CBF0120C3
:1017E0007047044AF023516003490B700721906051
:1017F0001160704710E000E023ED00E0704700004A
:1018000010B5D0F800E00446DEF80010DEF80C2039
:10181000DEF814305FEA017C50D002F4907003F0DF
:101820000103C01852D0C8071FBF12F48070E06BCC
:1018300040F00100E063480704D51BB1E06B40F0C5
:101840000200E063880704D51BB1E06B40F00400A0
:10185000E063BCF1000F04D51BB1E06B40F0080061
:10186000E063E06B00286ED002EA0100800604D538
:10187000204600F034FAD4F800E0DEF81400E16B02
:1018800000F0400001F0080140184CD0204600F064
:1018900019FA20684169490640D5416921F04001A3
:1018A0004161606BD0B32F494163FEF7EDFC002826
:1018B00049D0606B416BBDE81040084711408A0673
:1018C00005D52046BDE8104000F009BA11400806D1
:1018D0000FD4480637D5DEF80C0020F04000CEF8D3
:1018E0000C00202084F839002046BDE8104000F0AC
:1018F000E4B894F83900212825D1A068216AB0F510
:10190000805F16D108886FF35F20CEF8040020694D
:10191000002814BF481C881C20620FE02046BDE848
:101920001040FFF76BBF2046FFF768FF0020E06321
:1019300010BD481C20620878CEF80400E08C013805
:10194000E084000400D010BDDEF80C0020F0800020
:10195000CEF80C00DEF80C0040F04000CEF80C0091
:1019600010BD00BFB91C0008D8B110B5044601680D
:101970008069C0B12D4A91420BD02D4A914208D0C6
:101980008F4A914205D02B484FF4A37101F06CFBB4
:10199000A0694FEA3020042813D3264840F24711AB
:1019A0000DE001207047214881420AD02048814241
:1019B00007D08348814204D01E4840F24B1101F009
:1019C00053FBA06840F48050B0F5805F04D0194804
:1019D00040F24D1101F048FB94F8390028B900207D
:1019E00084F83800204600F027F8242084F83900D5
:1019F0002068C16821F40051C160204600F0ACF9B4
:101A00002068016921F490410161416921F02A01B6
:101A10004161C16841F40051C16000202021E063B0
:101A200084F8391084F83A1010BD00BF004400401B
:101A300000480040D630000870B586B00026524CF1
:101A4000CDE90466CDE90266006804F5405188429C
:101A50002FD14C4802AD016841F48041016001681A
:101A600001F4804101910199016841F00401016094
:101A70002946006800F004000190019803200590B9
:101A8000022003904FF4007002902046FEF75AFCAB
:101A90004FF48060CDE90366294602902046FEF7A8
:101AA00051FC252007210022FEF746FE2520FEF7E7
:101AB0002FFE06B070BD00BF70477047FEE7B0B59F
:101AC00052004FF0000C4FF0370E00239A4208BF2F
:101AD000B0BD0EEB1074050FB0F1204F4FEA0010AF
:101AE00038BF05F13004CC5443F00104023301F84F
:101AF00004C0EBE7F0B585B00020234C032601AD10
:101B0000224FCDE903001F48016841F01001016038
:101B1000016801F0100100910099016841F0200175
:101B20000160016801F0200100910099016841F015
:101B300004010160016801F004010091009901684D
:101B400041F0080101602946006800F0080000909B
:101B5000009802964FF46040019004F50060B84789
:101B60004EF2FF100296294601902046B8474FF6E4
:101B7000FF7002962946019004F58060B84705B0D1
:101B8000F0BD00BF181002400008014045030008E6
:101B900010B5AC48A84C4FF4E13300210C22C0E949
:101BA0000043C0E90211C0E90412C0E90611FFF7C1
:101BB000DBFE002814BFBDE8104010BDFEF763BB7C
:101BC0000038014080B50C480C49002200F0EAFAC8
:101BD00008B1FEF758FB0848094900F0A5FC08B118
:101BE000FEF751FB044800F0B3FC002814BFBDE829
:101BF000804080BDFEF747BBE0030020600000206E
:101C000094000020FEE7704770477047FEF724BD40
:101C1000B0B594B000244FF4E01002250121CDE9C5
:101C20000F44CDE90D44CDE9024413904FF48030C8
:101C3000129011950E910C94CDE90A100AA8FFF7A5
:101C4000BFFB4FF480600994022108900F20CDE97A
:101C50000654059005A8FFF75DFA10200494019042
:101C600001A8FFF7B7F914B0B0BD00000E480F4A45
:101C7000016841F001010160416811400C4A416076
:101C8000016811400160016821F480210160416810
:101C900021F4FE0141604FF41F01816005484FF0BF
:101CA00000610160704700BF001002400000FFF8B3
:101CB000FFFFF6FE08ED00E0406A0021C185C18407
:101CC000FFF79CBD0168CA6822F49072CA604A6935
:101CD00022F001024A61202180F83A10704790F802
:101CE0003A10222918BF70478168B1F5805F08D18A
:101CF00002680369816A526883B1D2B221F8012B6C
:101D000010E0026901684968002A826A02F1010351
:101D1000836218BF01F07F01117004E06FF35F224E
:101D200021F8022B8162C18D0139C185090400D0DF
:101D300070470168CA6822F02002CA60CA6822F4AB
:101D40008072CA604A6922F001024A61202180F84B
:101D50003A10FFF7B1BE000010B5044640683449A0
:101D6000884204D3334840F6FD3101F07DF9E06844
:101D700040F40050B0F5005F04D02E4840F6FE312C
:101D800001F072F9206950B1B0F5806F07D0B0F55D
:101D9000C06F04D0274840F6FF3101F065F9606953
:101DA00018B14FF6F371084004D022484FF4406157
:101DB00001F05AF920680169E26821F440511143A9
:101DC00041F20C620161D4F808C0D4E904E3C168AF
:101DD00091434EEA0C021A431143C1604169A26962
:101DE00021F44071114341611349884202D0FFF749
:101DF000A3FA01E0FFF7AAFA19214843D4E9001237
:101E00006FF063049200B0FBF2F06422B0FBF2F3D7
:101E100003FB0400322404EB0010B0FBF2F000F0EE
:101E2000F00200F00F0002EB03121044886010BDB6
:101E300021AA4400D6300008003801400148FFF7CD
:101E4000DFBC00BF1009002080B5D0F8B422526872
:101E50009047002080BD80B513460A46002100F05F
:101E6000B3FA002080BD80B513460A46002100F079
:101E700047FB002080BD10B58021044600F025FB03
:101E800020460021BDE8104000F01FBB80B50521B1
:101E900000220023C0F89412002100F095FA0020DF
:101EA00080BD80B513460A460221C0E90733C0F859
:101EB0009412002100F024FB002080BD80B5042195
:101EC00000220023C0F89412002100F019FB00202A
:101ED00080BD000010B52B4C0A4603A0214600F03F
:101EE0006FF8204610BD00BF48494420436F6E661E
:101EF00069670000122008800048704780000020B9
:101F000010B5204C0A4603A0214600F059F820469F
:101F100010BD00BF48494420496E74657266616314
:101F2000650000000420088000487047440100203C
:101F300010B5144C0A4603A0214600F041F8204693
:101F400010BD00BF53544D6963726F656C65637457
:101F5000726F6E696373000010B50A4C0A4603A0E5
:101F6000214600F02DF8204610BD00BF53544D33DC
:101F7000322048756D616E20696E746572666163AA
:101F800065000000CC0100201A2008800A4908687A
:101F90008A6880180ED0B0B5084D4C680822A91C7C
:101FA000FFF78DFD05F1120120460422FFF787FDA2
:101FB000BDE8B04001487047E8F7FF1F4801002026
:101FC00080B550B34FF0000C864603E00EF1010ED1
:101FD0000CF1010C9EF80030002BF7D15FFA8CFC5D
:101FE0004FF0020E0EEB4C0CA2F800C081F800C0BE
:101FF0004FF0030C01220BE05FFA8EF301304FF03B
:10200000000CCA544EF001020EF10203D2B29E46F9
:1020100001F802C00278002AEED180BD03288FBFEC
:102020000220C000024921FA00F098BFC0B27047F8
:1020300000020102D0F8B8020021017300207047AD
:10204000B0B58121044600F0CBF80025E562D4F854
:10205000B80218B100F08AFCC4F8B8520020B0BD34
:102060000A210180004870471401002022210180CC
:1020700000487047CC0000202221018000487047B2
:10208000F00000202221018000487047200100203C
:1020900010B5812103220423044600F089F90120B0
:1020A000E062102000F064FCC4F8B80200280FBF02
:1020B000022001460020087310BD94460A4690F89D
:1020C0009C1203290CD1D0F8B8120B7B43B980B510
:1020D00001230B738121634600F012FABDE88040B2
:1020E00000207047E0B50023D0F8B8C2ADF8063044
:1020F0000B7813F060030FD0202B46D14B78023BB6
:10210000092B42D8DFE803F0051C41414141414120
:10211000181E0CF1040133E04B780B2B16D0062B64
:102120001CD00A2B26D083BB90F89C22032A2CD1EA
:102130000DF10601022224E0C878CCF8040022E068
:1021400061461DE08878CCF800001CE090F89C22E5
:10215000032A1AD18878CCF8080014E0CA78212A1A
:1021600018D0222A11D1CA880D494A2A28BF4A22EA
:102170000C3106E090F89C22032A06D10CF10801EC
:102180000122FFF78EFE002002E0FFF774FE02201E
:1021900002B080BDCA880249092A28BF0922F0E797
:1021A0000800002088B1D0F8B43213B10023C0F881
:1021B000B43209B1C0F8B01280B50121027080F8C4
:1021C0009C1200F0B5F8002080BD0220704780B559
:1021D000D0F8C002FEF746FBBDE88040FFF71EBF07
:1021E00080B5D0F8C002FEF718FBBDE88040FFF7CD
:1021F00015BFB0B5044669B1D4F8B40242693AB12A
:1022000094F89C02032803D1204690470020B0BDDB
:102210000220B0BDD4F8940280B104280ED0022868
:102220003DD1D4E9081081420DD9081A114683B274
:10223000206220461A46FFF716FE18E0204680214D
:1022400000F043F92BE0E169814217D3B1FBF0F2D2
:1022500002FB101090B9D4F8980281420ED22046A9
:10226000002100220025FFF7FEFDC4F89852204609
:1022700000210022002300F0A7F810E0D4F8B402F7
:10228000C16829B194F89C02032801D120468847EF
:102290002046802100F019F92046FFF7F7FD94F859
:1022A000A0120020012904BF84F8A002B0BDB0BD77
:1022B000B0B5044661B1D4F8B402826932B194F881
:1022C0009C02032802D1204690472DE002252CE0F5
:1022D000D4F894020025052812D0032825D1D4E98A
:1022E0005810814213D9091AC4F86011814238BFCD
:1022F000084683B2114620461A46FFF7ACFD13E0AC
:1023000020460021C4F8945200F0DFF80DE0D4F824
:10231000B402016929B194F89C02032801D1204636
:1023200088472046FFF7CAFD00252846B0BD0000BB
:10233000B0B5044614480021144B0822C0F8684286
:10234000C4F8C002C0E9061101620221C0E90032EE
:102350008160FEF731FD08B1FDF795FFD4F8C002AA
:102360000B4D002100221823A847D4F8C002802179
:1023700000225823A847D4F8C002812100224FF43C
:102380008073A8470020B0BDA4060020005C004078
:10239000C9070008D0F8C00201F07F02090600EB6F
:1023A000421000F12A0258BF00F59572107870476C
:1023B00080B59446D0F8C0021A466346FEF780FA0C
:1023C000BDE88040FFF72ABE80B5D0F8C002FEF716
:1023D000A4FABDE88040FFF721BEF8B50021002235
:1023E0004023044600254026FFF7E2FF0127204650
:1023F000802100224023C4F86461C4F85871FFF7BB
:10240000D7FF84F89C726662A761C4F89452C4F83E
:10241000A4526560D4F8B80228B1D4F8B4020021FF
:10242000426820469047002001B0F0BD90F89C1211
:10243000042904BF90F89D1280F89C120020704778
:1024400090F89C12032907D1D0F8B412C96919B1C8
:1024500080B58847BDE880400020704701740020A7
:10246000704780B5D0F8C002FEF770FDBDE880402F
:10247000FFF7D4BDB0B500F52A750446284600F034
:1024800048F8B4F8AE120120C4E9A50194F8A802F6
:1024900000F01F01022907D001290AD071B9204696
:1024A000294600F05BF80EE02046294600F08EF940
:1024B00009E02046294600F033FA04E000F08001EC
:1024C000204600F002F80020B0BD80B5D0F8C00270
:1024D000FEF739FABDE88040FFF7A0BD80B5D0F81F
:1024E000C002FEF74EFDBDE88040FFF797BD90F8B3
:1024F0009C1280F89D12042180F89C1200207047E5
:1025000080B5D0F8C002FEF750FABDE88040FFF772
:1025100085BD0A7802704A7842704A8842808A886B
:102520008280C988C180704700290EBF0220C0F890
:10253000B41200207047D0F8B4223AB180B51268C6
:102540009047002818BF0120400080BD022070473E
:1025500080B5FFF7C3FF002080BD0000BCB5044676
:1025600008780D4610F060000BD0402802D02028DB
:1025700040F02481D4F8B40229468268204690476E
:102580001FE16878092800F21981DFE810F00A00DD
:10259000200017012C00170157007A0017013400A2
:1025A000420094F89C020138022800F20781E88872
:1025B000022840F00381D4F8A40203222146002817
:1025C00008BF012241F80C2F2046022275E094F842
:1025D0009C020138022800F2F1806888012840F04E
:1025E000F080002004E06888012840F0EA800120A3
:1025F000C4F8A402DEE0E888012840F0DF8094F807
:102600009C02411E022952D20020214641F8080FA7
:1026100051E068886C4DC1B22870022980F0CE80EC
:1026200094F89C0203284BD0022840F067800029D0
:1026300000F0C080032084F89C024CE0A8880028A9
:1026400040F0BC80E888002840F0B88068887F2887
:1026500000F2B48094F89C12032900F0AF8000F0DF
:102660007F052046294684F89E52FFF7FAFE204651
:10267000FFF724FC002D0CBF0120022084F89C02EF
:102680009FE000204FF0FF31ADF80600688801EBB5
:102690001021062900F29280DFE801F0043824902E
:1026A00090454F00D4F8B012207C0A686FE00328F0
:1026B00040F08480211D20460122FFF7F2FB80E0DC
:1026C000002946D06068884200F07480C1B220467C
:1026D000FFF7BAFB297820466160FFF72CFF02283C
:1026E00068D16BE0C0B2052868D8DFE800F0033B92
:1026F0003F43474BD4F8B002426846E02046FFF71C
:10270000BAFB29782046FFF79FFB5AE0217CD4F8DA
:10271000B40200290CBF816AC16A0DF10600884726
:102720000146022013E0207C002847D1D4F8B402EF
:10273000416B0DF1060088472CE0207CF0BBD4F8FB
:10274000B402016B0DF1060088470146072048706E
:1027500021E000206060022084F89C022046FFF700
:1027600073FB27E0D4F8B00282680EE0D4F8B00220
:10277000C2680AE0D4F8B002026906E0D4F8B002F8
:10278000426902E0D4F8B0028269BAB1207C0DF14E
:10279000060190470146BDF8060048B1EA883AB103
:1027A000904238BF02462046ADF80620FFF779FB7D
:1027B000E88830B92046FFF781FB02E02046FFF7AA
:1027C0005AFB002002B0B0BDC8010020B0B50446DD
:1027D00008780A4610F060000AD0402801D020286E
:1027E00046D1D4F8B402114683682046984742E0A7
:1027F000202807D1D4F8B402114683682046BDE8EA
:10280000B040184750781179A8B1012826D0032884
:102810002ED194F89C02032824D15088002849D155
:1028200041F08000802845D0D088002842D1204641
:10283000FFF74BFE3EE094F89C0203281DD00228CF
:1028400016D1002953D0802912D101F07F0000EB6E
:10285000800004EB800000F1140150E094F89C0229
:1028600003281FD0022803D141F08000802825D101
:102870002046FFF700FB0020B0BD01F00F000A0664
:1028800000EB800004EB800020D4D0F85801002831
:10289000EED001F07F0000EB800004EB800000F53B
:1028A000AA751EE050880028E5D1480602D02046CF
:1028B000FFF78DFC2046FFF701FBDCE72046FFF722
:1028C00004FE20468021FFF700FED4E7806900283F
:1028D000CED001F07F0000EB800004EB800000F11F
:1028E000140541F0800080280DD1002011E001F096
:1028F0007F0000EB800004EB800000F5AA7100204F
:102900000860204608E02046FFF744FD0028ECD090
:1029100001202860204629460222FFF7C2FAAAE7D2
:10292000B0B5044608780D4610F0600018BF402886
:1029300015D194F89C020138022812D8A88810F00A
:10294000FE0F0ED1D4F8B402294682682046904783
:1029500050B9E88840B92046FFF7B0FA04E02028D3
:10296000E7D02046FFF787FA0020B0BD704700008F
:1029700000487047CC0300202DE9F0410C78024656
:1029800047F2706600EB840830F8240091F803E009
:1029900020EA0605BEF1030F07D80020DFE80EF09D
:1029A00002070D0A45F4007506E0012005E045F434
:1029B000806501E045F4C065002048F2800C40F6D7
:1029C0000F7645EA0C05A8F80050B8F800503540DD
:1029D000254345EA0C05A8F800500D7B002D5ED07C
:1029E000B8F8005040F60F6635400CF58076354358
:1029F000A8F8005002F58065B2F850700B8905EB1D
:102A0000041623F00103F3532301B2F850204C893C
:102A100008332B4424F001049C524A78B8F8001083
:102A200001F48041002A61D049B1B8F8001040F6A5
:102A30000F7211400CF580421143A8F80010B8F84D
:102A40000010490609D5B8F8001040F60F72114081
:102A50000CF140021143A8F80010B8F8001040F63D
:102A60000F72BEF1010F01EA02010CF5804241EA4A
:102A7000020140F63F72A8F80010B8F8001001EA11
:102A800002010CF1200282EA010208BF41EA0C02B5
:102A9000A8F80020B8F8001043F60F7257E04F78FE
:102AA000B2F8505002F5806624013544002F52D010
:102AB000C98821F001012953B8F80010490609D549
:102AC000B8F8001040F60F7211400CF140021143AB
:102AD000A8F80010B8F8001040F63F72BEF1010FE0
:102AE00001EA020134D00CF1200273E049B1B8F8D8
:102AF000001040F60F7211400CF580421143A8F807
:102B00000010B8F80010490609D5B8F8001040F6D2
:102B10000F7211400CF140021143A8F80010B8F8F0
:102B2000001040F60F7211400CF14002114343F6C1
:102B30000F72A8F80010B8F8001011400CF54052C0
:102B4000514040F63F72A8F80010B8F8001011404C
:102B500041EA0C013FE0CF8844F0080E27F001075E
:102B600025F80E7044F00C07B2F850200969F519E9
:102B700039B13E290DD801F0010707EB5101890257
:102B800012E0515B164C21F4F8415153515B214343
:102B90000AE0CE064FF0FF374FEA511608BF07EBA9
:102BA00051160F4941EA86215153B8F800104904E3
:102BB00009D5B8F8001040F60F7211400CF58042AC
:102BC0001143A8F80010B8F8001043F60F72114036
:102BD0000CF540525140A8F80010BDE8F08100BF4C
:102BE0000080FFFF0020704780B50A784B78097B92
:102BF00048F2800C30F822E000EB820041B30EF482
:102C000080428BB33AB1018840F60F7211400CF547
:102C10008042114301800188490607D5018840F6AA
:102C20000F7211400CF1400211430180018840F6FF
:102C30000F7211400CF58042114340F63F72018043
:102C40000188114041EA0C01018043F60F7230E027
:102C5000B3B35FEA4E612AD5018840F60F72114086
:102C60000CF14002114321E03AB1018840F60F72A5
:102C700011400CF58042114301800188490607D5B7
:102C8000018840F60F7211400CF14002114301809F
:102C9000018840F60F7211400CF14002114343F6D7
:102CA0000F7201800188114041EA0C01018040F659
:102CB0003F720188114041EA0C010180002080BD73
:102CC0005FEA4E41C1D5018840F60F7211400CF504
:102CD00080421143B8E7002070470020704701216F
:102CE000A0F840100021A0F84010A0F84410A0F86F
:102CF0005010B0F8401041F43F41A0F840100020BF
:102D00007047B0F8401044F2FF021140A0F84010A4
:102D100000207047002070470A7BCABB0A784B78B6
:102D200030F822C05200DBB15FEA4C6348F2A00CDD
:102D30000ED580B530F812E040F60F730EEA030EA0
:102D40000CF1200343EA0E0320F81230BDE8804066
:102D5000C97801291CD030F8121040F63F7312E0F8
:102D60005FEA4C414BF2800C09D530F8123040F646
:102D70000F7119400CF58053194320F8121030F8E8
:102D8000121043F60F73194081EA0C0120F812105B
:102D90000020704791F800C04978094B002940F69F
:102DA0003F7108BF03F57F6308BF43F60F7130F82A
:102DB0002C201140594020F82C100020704700BFF3
:102DC0009080FFFFF8B5044608698E690D460146FC
:102DD000864288BF3146A1EB0001A96188BF064643
:102DE0006878297B012811D1A1B1297834F82120F4
:102DF000B4F8500009012044520600F580602DD43B
:102E000041F00401465205F108002CE091B1F0B305
:102E1000287879E0EA886969B3B2204600F0FFF8C3
:102E2000B4F8500021182878020104321144A1F8A6
:102E300000644FE0B4F85000002E204400F580619B
:102E400028784FEA001202F10C0248D03E2E4ED8EC
:102E500006F0010303EB56039B0254E041F00C0122
:102E6000465205F10A0002886969B3B2204600F0B3
:102E7000D6F8687808B301282BD1287840F60F726D
:102E800034F820101140494A02F580521DE0B4F890
:102E9000500004F5806E002E0EEB000328784FEAF8
:102EA000001202F104053CD03E2E50D806F001017C
:102EB00001EB56014FEA812C54E0287840F60F725E
:102EC00034F8201011403A4A1032114324F82010EF
:102ED00000E0287840F63F7248F2B00118E0535AFB
:102EE00023F4F8435352535A43F400430BE0F506DE
:102EF0004FF0FF334FEA561508BF03EB56154FF45A
:102F0000004343EA8523535243F60F724BF280018C
:102F100034F820301A40514024F82010002001B02D
:102F2000F0BDE95A42F00C0221F4F841E952E95AA5
:102F300041F40041E952B4F8501071448B5A23F423
:102F4000F8438B528B5A43F400438B52DCE7F10673
:102F5000154F4FF0FF3C4FEA561108BF0CEB5611CE
:102F600047EA812C25F803C042F00C023E2EB4F84B
:102F700050100EEB01034BF2800105D806F001075B
:102F800007EB5607BF020BE0F5064FF0FF374FEA9D
:102F9000561508BF07EB56154FF4004747EA85273B
:102FA000D75243F60F72B3E70080FFFF80B0FFFFF8
:102FB000B080FFFFB0F8401041F43F41A0F840104E
:102FC000002070470148FDF705BD00BFA4060020A2
:102FD000B0F8440070474FF0000C00EB420000F5E1
:102FE0008062ACEB530C481C08E032F8041B0CF177
:102FF000010C00F8011C090A01700230BCF1000F3D
:10300000F3D1D9071CBF118800F8011C70470020BC
:10301000704711B98021A0F84C100020704700EBD8
:10302000420003F1010C0023A3EB5C0300F5806078
:1030300004E031F8022B013320F8042B002BF8D1E7
:103040007047FEE710B5074C00F00F03044AB0F1DB
:10305000FF3F2344C8BF83180801187010BD00BF8C
:1030600000E400E014ED00E07047000084B0FDF7DC
:10307000FDFAFEF7CDFDFEF73DFDFEF7A3FDFEF7E1
:1030800087FD0A480A4C01ADD0E900120089CDE95C
:103090000112ADF80C00204629460A22FFF70DF870
:1030A0004FF47A70FDF73EF9F5E700BFB430000841
:1030B000E0030020000A0000000000000000000003
:1030C00000000000000001020304060708090000D8
:1030D0000000010203042E2E2F447269766572737C
:1030E0002F53544D3332463178785F48414C5F441A
:1030F00072697665722F5372632F73746D33326603
:103100003178785F68616C5F756172742E63002E30
:103110002E2F447269766572732F53544D333246A5
:103120003178785F48414C5F4472697665722F53FD
:1031300072632F73746D3332663178785F68616CB7
:103140005F7263632E63002E2E2F44726976657260
:10315000732F53544D3332463178785F48414C5F7A
:103160004472697665722F5372632F73746D3332B4
:10317000663178785F68616C5F7263635F65782E33
:1031800063002E2E2F447269766572732F53544D4F
:103190003332463178785F48414C5F4472697665D6
:1031A000722F5372632F73746D3332663178785F88
:1031B00068616C5F6770696F2E63002E2E2F4472FA
:1031C00069766572732F53544D3332463178785F88
:1031D00048414C5F4472697665722F5372632F7356
:1031E000746D3332663178785F68616C5F636F72DB
:1031F0007465782E6300000018320008000000207B
:103200006801000028010008F03200086801002071
:10321000F00D00008401000832013210150921115F
:10322000014401224A100A05010902A1010901A174
:10323000100805091901290315180F2501950375B3
:103240000181029501750581012028173009310996
:10325000381581257F750895038106C0093C05FF57
:10326000090129200E75019502B12275069501B15B
:1032700001C013F51E1408251F1B0831041A590438
:103280001A89041AD5141A0108111324F41312010F
:103290003202164083042B571D0201020391139141
:1032A000201B0841041AE504819A350C811A79140F
:1032B0001A6D041A85041A6104140902221301010B
:1032C00025E03209048D01030102D61607058103AA
:1032D000041A0AE8091E2422074B0A0694198B09CE
:1032E00020301954071E040309041A0300000000CB
:04000005080000ED02
:00000001FF
