:020000040800F2
:10000000A01300208901000839300008F12D0008F4
:10001000353000081703000857530008000000009F
:10002000000000000000000000000000E5340008AF
:10003000FB07000800000000B9340008E73400089E
:10004000A3010008A3010008A3010008A301000800
:10005000A3010008A3010008A3010008A3010008F0
:10006000A3010008A3010008A3010008A3010008E0
:10007000A3010008A3010008A3010008A3010008D0
:10008000A3010008A3010008A3010008A3010008C0
:10009000A9520008A3010008A3010008A301000859
:1000A000A3010008A3010008A3010008A3010008A0
:1000B000A3010008A3010008A3010008A301000890
:1000C000A3010008A3010008A3010008A301000880
:1000D000A30100089D390008A3010008A30100083E
:1000E000A3010008A3010008A301000800F002F822
:1000F00000F03AF80AA090E8000C82448344AAF188
:100100000107DA4501D100F02FF8AFF2090EBAE885
:100110000F0013F0010F18BFFB1A43F0010318473B
:10012000D0520000F0520000103A24BF78C878C1C5
:10013000FAD8520724BF30C830C144BF04680C60ED
:10014000704700000023002400250026103A28BF35
:1001500078C1FBD8520728BF30C148BF0B60704739
:100160001FB51FBD10B510BD00F09BF81146FFF77D
:10017000F7FF05F0F3F800F0B9F803B4FFF7F2FF6A
:1001800003BC00F0C1F80000094880470948004757
:10019000FEE7FEE7FEE7FEE7FEE7FEE7FEE7FEE737
:1001A000FEE7FEE704480549034A054B7047000097
:1001B00075350008ED000008A00F0020A0130020F6
:1001C000A00F0020B2F120030AD5C2F1200320FACB
:1001D00002F001FA03F321FA02F140EA030070474A
:1001E00021FA03F04FF00001704710B5203AC0F03B
:1001F0000B80B1E81850203AA0E81850B1E8185028
:10020000A0E81850BFF4F5AF5FEA027C24BFB1E864
:100210001850A0E8185044BF18C918C0BDE81040D5
:100220005FEA827C24BF51F8043B40F8043B08BFDE
:100230007047D20728BF31F8023B48BF11F8012BA5
:1002400028BF20F8023B48BF00F8012B70474FF051
:10025000000200B5134694469646203922BFA0E816
:100260000C50A0E80C50B1F12001BFF4F7AF090722
:1002700028BFA0E80C5048BF0CC05DF804EB890013
:1002800028BF40F8042B08BF704748BF20F8022B56
:1002900011F0804F18BF00F8012B7047704770476E
:1002A0007047754600F02CF8AE4605006946534687
:1002B00020F00700854618B020B5FFF773FFBDE8B2
:1002C00020404FF000064FF000074FF000084FF0BD
:1002D000000B21F00701AC46ACE8C009ACE8C0094E
:1002E000ACE8C009ACE8C0098D46704710B50446BB
:1002F000AFF300802046BDE81040FFF73EBF00008E
:1003000000487047400F002001491820ABBEFEE7AF
:1003100026000200704700BFFEE70146D1F8180230
:1003200090F80024022A0FD090F80024032A0BD062
:1003300090F80024052A07D090F80024062A03D05C
:1003400090F80024092A19D1022280F80024002202
:1003500080F80124002340F202421354521C13542B
:10036000521C135490F80034521C13540023521C96
:1003700013540022C0F80824C0F80C24704701462A
:10038000D1F8180290F800240A2A15D1022280F828
:100390000024002280F80124002340F2024213547A
:1003A000521C1354521C135490F80034521C135412
:1003B0000023521C135414E00A2280F800240E2259
:1003C00080F80124002340F202421354521C1354BB
:1003D000521C135490F80034521C13540023521C26
:1003E0001354704770B505460E46D5F8184294F878
:1003F000000402280FD094F8000403280BD094F8CE
:100400000004052807D094F80004062803D094F8C7
:100410000004092819D1022084F80004002084F87F
:100420000104002140F202400155401C0155401CCE
:10043000015594F80014401C01550021401C015541
:100440000020C4F80804C4F80C040848407D00F0FB
:10045000100030B1284604F0D5FA284604F0C2F95D
:1004600002E0708800F01AFB70BD0000BC000020A4
:1004700070B506460D46D6F81842E888002822DDF9
:1004800094F80004022803D094F80004052815D13C
:100490006888C4F80804E888C4F80C04032084F8C9
:1004A000000494F8001440F205400155B4F80C041F
:1004B00082B22146304603F0CAFA23E0294630468C
:1004C00003F0B9FA1EE094F80004052803D094F86C
:1004D0000004022812D1012084F80704062084F8C1
:1004E0000004002140F202400155401C0155401C0F
:1004F000015594F80014401C015503E0294630468C
:1005000003F099FA70BD70B50446D4F81852012270
:1005100005F58061204603F0BBFA70BD70B5054655
:10052000D5F8184294F80004032802D0062869D1AF
:100530003BE0D4F80C0440B3042084F8000400210C
:1005400040F202400155401C0155401C015594F8F1
:100550000014401C0155D4F8080460B920784128E3
:1005600009D1D4F81004D5F81C1204F201428B69A9
:100570000021984718E0D4F81004D5F81C1204F2B2
:1005800001428B69012198470EE0052084F80004A0
:10059000002140F202400155401C0155401C01550C
:1005A00094F80014401C01552DE094F8070401282C
:1005B00010D1072084F80004012140F202400155C7
:1005C0000021401C0155401C015594F80014401CAA
:1005D000015516E094F8070498B90F48007D00F023
:1005E000040070B1022084F80004002140F20240AF
:1005F0000155401C0155401C015594F80014401C45
:10060000015500E000BF00BF062204F20141284668
:1006100003F03EFA70BD0000BC00002070B5054636
:10062000D5F81842002084F807042448007D00F023
:10063000040078B1062084F80004002140F2024052
:100640000155401C0155401C015594F80014401CF4
:10065000015570BD082084F80004002140F20240DA
:100660000155401C0155401C015594F80014401CD4
:100670000155284604F0C6F9D5F81C128868804751
:1006800000BF00BF00BF00BF00BFBFF34F8F00BF60
:1006900000BF00BF0A48006800F4E0600949084351
:1006A000001D0749086000BF00BF00BFBFF34F8FA8
:1006B00000BF00BF00BF00BF00BFFDE7BC000020BF
:1006C0000CED00E00000FA052DE9F04106460D466C
:1006D000D6F818420027B846E88800287CDD94F850
:1006E0000004022803D094F8000409286AD168881D
:1006F000C4F80804E888C4F80C04D4F8080400BB63
:10070000D4F80C04032801D9022000E0092084F861
:100710000004002140F202400155401C0155401CDC
:10072000015594F80014401C015500202070212030
:1007300060704120A07003222146304603F0A8F9E2
:1007400059E0D4F80804012826D9092084F80004C7
:10075000002140F202400155401C0155401C01554A
:1007600094F80014401C0155D4F80804801ED4F8F5
:10077000101401EB8028D4F80C24D6F81C02214672
:100780004369404698470746B4F80C0482B239469C
:10079000304603F07DF92EE00F2084F8000400219C
:1007A00040F202400155401C0155401C015594F88F
:1007B0000014401C01552946304603F03CF91AE06C
:1007C0000AE0FFE70020C4F80C04C4F80804294636
:1007D000304603F030F90EE0022084F800040021D6
:1007E00040F202400155401C0155401C015594F84F
:1007F0000014401C0155BDE8F081704770470000AF
:1008000010B50446012C00D104E040F2662109A095
:1008100004F0A3FD00201749C8611748006940F0A3
:100820000400154908610846006940F0400008616D
:1008300010BD00002E2E2F447269766572732F53FF
:10084000544D3332463178785F48414C5F44726989
:100850007665722F5372632F73746D3332663178FD
:10086000785F68616C5F666C6173685F65782E6342
:1008700000000000200E0020002002400021074A56
:10088000D1610749096941F00201054A1161114628
:100890004861096941F0400111617047200E002054
:1008A000002002400022054BDA61054A126942F03D
:1008B0000102034B1A61018070470000200E0020E6
:1008C0000020024000201E49C96801F0100139B122
:1008D0001C49C96941F002011A4AD16140F0100077
:1008E0001749C96801F0040139B11649C96941F0D5
:1008F0000101144AD16140F004001149C96901F0B5
:10090000010169B10F49C96941F004010D4AD16182
:1009100000BF0B49C96921F00101094AD16100BF3B
:1009200000BF40F20111884206D10549C96921F092
:100930000101034AD16101E00149C86000BF70476D
:1009400000200240200E002070B5044600F0D8FCC4
:10095000054609E0601C38B124B100F0D1FC401B11
:10096000A04201D9032070BD1248C06800F0010008
:100970000028EFD10F48C06800F0200020B100BF70
:1009800020200C49C86000BF0A48C06800F0100071
:1009900048B90848C06900F0010020B90548C0689E
:1009A00000F0040018B1FFF78DFF0120DBE7002005
:1009B000D9E700000020024070B50A480468001D15
:1009C0000568001D0668344454B1082206492046D3
:1009D00002F010FA042204491031284602F00AFA03
:1009E00070BD0000E8F7FF1F3600002070B5044618
:1009F000002594F82100022803D00420A0630125DB
:100A000048E02068006820F00E0021680860206837
:100A1000006820F00100216808601F4920688842B2
:100A200001D1012026E01C4914312068884201D1FF
:100A300010201FE0184928312068884201D1801514
:100A400018E015493C312068884201D1801411E03A
:100A5000114950312068884202D14FF4803009E0BA
:100A60000D4964312068884202D14FF4801001E0C2
:100A70004FF08070084908394860012084F821004F
:100A800000BF002084F8200000BF606B10B120463A
:100A9000616B8847284670BD0800024070B5044667
:100AA00000F02EFC06462546681C10B1044800786C
:100AB000054400BF00F024FC801BA842FAD370BD9F
:100AC000740000202DE9F04104460E460127002560
:100AD00000BF6748007E012802D10220BDE8F081F6
:100AE00001206349087600BF206810B12068022801
:100AF00000D103E0B8215FA004F02FFC2068022899
:100B000014D14CF25030FFF71FFF00280DD1012007
:100B1000FFF776FE4CF25030FFF716FF07466548A8
:100B2000006920F004006349086199E0A068B0F111
:100B3000006F2CD360480088802807D15F49A068E7
:100B4000884201D8012020E000201EE05A48008899
:100B5000402807D15A49A068884201D8012014E0F2
:100B6000002012E054480088202807D15549A06889
:100B7000884201D8012008E0002006E05249A06820
:100B8000884201D8012000E0002000B103E0F921F3
:100B900038A004F0E2FB4848008880280BD1D4E953
:100BA000021001EB8020401E4449884201D80120F8
:100BB0002CE000202AE04048008840280BD1D4E9EE
:100BC000021001EB8020401E3D49884201D80120DF
:100BD0001CE000201AE03848008820280BD1D4E916
:100BE000021001EB8020401E3649884201D80120C6
:100BF0000CE000200AE0D4E9021001EB8020401E46
:100C00003149884201D8012000E0002000B103E012
:100C1000FA2118A004F0A1FB4CF25030FFF794FE2B
:100C2000F0B94FF0FF303060A56812E02846FFF7BA
:100C300025FE4CF25030FFF787FE07461D4800693D
:100C400020F002001B4908610FB1356007E005F58F
:100C50008065D4E9021001EB8020A842E6D800BFED
:100C600000BF00200249087600BF384636E7000082
:100C7000200E00202E2E2F447269766572732F533A
:100C8000544D3332463178785F48414C5F44726945
:100C90007665722F5372632F73746D3332663178B9
:100CA000785F68616C5F666C6173685F65782E63FE
:100CB0000000000000200240E0F7FF1FFFFF0108D6
:100CC000FFFF0008FF7F0008FF3F0008034800699E
:100CD00040F0800001490861002070470020024078
:100CE0002DE9FE4F05460C46174698464FF0010980
:100CF00000260020029000BF4348007E012802D158
:100D00000220BDE8FE8F01203F49087600BF012D7B
:100D100003D0022D01D0032D00D103E0C2213BA05E
:100D200004F01BFBB4F1006F28D3474800888028EB
:100D300006D14648844201D801201DE000201BE076
:100D400041480088402806D14148844201D801200A
:100D500012E0002010E03C480088202806D13D48E1
:100D6000844201D8012007E0002005E03A4884428F
:100D700001D8012000E0002000B103E0C32123A03E
:100D800004F0EBFA4CF25030FFF7DEFD8146B9F18A
:100D9000000F32D1012D02D10120029006E0022D78
:100DA00002D10220029001E004200290002620E0FF
:100DB0003201BA46C34650465946FFF703FA80B29D
:100DC0000190022000FB064000900199FFF76AFDA8
:100DD0004CF25030FFF7B8FD81462048006920F002
:100DE00001001E490861B9F1000F00D004E0701C39
:100DF000C6B202988642DBDB00BF00BF002002497A
:100E0000087600BF48467CE7200E00202E2E2F4497
:100E10007269766572732F53544D33324631787848
:100E20005F48414C5F4472697665722F5372632F3D
:100E300073746D3332663178785F68616C5F666CAD
:100E40006173682E63000000E0F7FF1FFFFF0108D9
:100E5000FFFF0008FF7F0008FF3F0008002002405E
:100E600000200849096901F0800151B10649054A8D
:100E70005160064951601146096901F0800101B1D4
:100E8000012070470020024023016745AB89EFCD68
:100E90002DE9FC5F05460C464FF000080026B146E0
:100EA000002001908346DB4885420BD0DA4885421A
:100EB00008D0DA48854205D0D948854202D0D948C1
:100EC000854200D103E0CD21D7A004F046FA208866
:100ED00080B220B120686FF30F0000B903E0CE218B
:100EE000D1A004F03AFA606830B36068012823D0DA
:100EF0006068112820D0606802281DD06068122820
:100F00001AD0D8496068884216D0D74960688842AC
:100F100012D0D649606888420ED0D54960688842B0
:100F20000AD0D4496068884206D0D34960688842B4
:100F300002D06068032800D103E0CF21BAA004F0FA
:100F40000CFA002761E1012000FA07F8206800EAA6
:100F5000080646456FD1AF4885420BD0AE48854262
:100F600008D0AE48854205D0AD48854202D0AD4894
:100F7000854200D103E0DD21ABA004F0EEF9B94ACF
:100F80006068811A90426AD00EDC032875D006DCB6
:100F9000002863D0012819D002286FD139E0112828
:100FA00025D01228F9D147E0B1F5881F5BD006DCC7
:100FB000B1F5803F56D0B1F5801F7AD150E0B1F540
:100FC000001F4ED0B1F5041F73D14DE0E068022838
:100FD00005D0E068012802D0E068032800D103E0D2
:100FE000E52191A004F0B9F9E068019062E0E068C1
:100FF000022805D0E068012802D0E068032800D16B
:1010000003E0EC2188A004F0A8F9E068001D01903D
:1010100050E0E068022805D0E068012802D0E068CE
:10102000032800D103E0F3217FA004F096F9E068E3
:10103000083001903EE0DDE0E068022805D0E0687D
:10104000012802D0E068032800D103E0FA2176A04D
:1010500004F083F9E0680C3001902BE000BF00BF82
:1010600000BF00BF00BF00BFA06828B1A068012872
:1010700002D0A068022802D106E017E019E040F291
:10108000071169A004F069F9A06810B90420019063
:101090000BE0A068012804D108200190C5F8108059
:1010A00003E008200190C5F8148003E000200190BF
:1010B00000E000BF00BFFF2E01D8284600E0281D39
:1010C0008246FF2E01D8B80002E0A7F10800800098
:1010D0008346DAF800000F2101FA0BF188430199E9
:1010E00001FA0BF10843CAF80000606800F0805074
:1010F000B0F1805F7ED100BF6048806940F00100A0
:101100005E4988610846806900F00100009000BFD8
:1011100000BF4FEAB130B90850F82190B807010F6D
:101120000F20884029EA00093A48854201D1002071
:101130000FE03948854201D101200AE03748854255
:1011400001D1022005E03648854201D1032000E0AC
:101150000420B907090F884040EA09094848B9083E
:1011600040F82190606800F48030B0F5803F05D1F0
:101170004448006830434349086004E0414800683F
:10118000B04340490860606800F40030B0F5003FAB
:1011900007D13C48001D006830433A49091D0860EA
:1011A00006E03848001D0068B0433649091D086054
:1011B000606800F48010B0F5801F07D13148083016
:1011C000006830432F490831086006E02D48083098
:1011D0000068B0432B4908310860606800F40010D3
:1011E000B0F5001F09D127480C300068304325496D
:1011F0000C3100E008E0086006E022480C3000688E
:10120000B04320490C3108607F1C102FFFF49BAEC7
:10121000BDE8FC9F00080140000C014000100140A7
:1012200000140140001801402E2E2F44726976658B
:1012300072732F53544D3332463178785F48414CA6
:101240005F4472697665722F5372632F73746D33C6
:1012500032663178785F68616C5F6770696F2E63A2
:1012600000000000000011100000211000003110EB
:101270000000121000002210000032100010024086
:10128000080001400004014070B506460C461546B2
:10129000A0B218B1200C000400B904E040F2E31140
:1012A00008A004F05AF80DB1012D00D104E04FF46C
:1012B000F27104A004F051F80DB1346101E0200492
:1012C000306170BD2E2E2F447269766572732F5374
:1012D000544D3332463178785F48414C5F447269EF
:1012E0007665722F5372632F73746D333266317863
:1012F000785F68616C5F6770696F2E630000000043
:1013000001480068704700006C0000200348006836
:101310000349097808440149086070476C000020BF
:101320007400002010B50848006840F0100006491D
:101330000860032000F0FCF8002000F007F800F03F
:101340002BF8002010BD00000020024070B50446BC
:101350000E4800784FF47A71B1FBF0F00C4909683F
:10136000B1FBF0F5284601F091FB08B1012070BDFA
:10137000102C07D200222146501E00F06FF80548BD
:10138000046001E00120F2E70020F0E77400002093
:10139000780000207000002008B500BF1348806965
:1013A00040F00100114988610846806900F00100A1
:1013B000009000BF00BF00BF0846C06940F08050E9
:1013C000C8610846C06900F08050009000BF00BFAF
:1013D000052000F0ADF800BF0549486820F0E06046
:1013E00040F00070486000BF08BD000000100240DF
:1013F0000000014010B50446002C00DB03E0CE21C4
:1014000007A003F0AAFF00BF04F01F0101208840DD
:101410006109890001F1E021C1F8000100BF10BDA0
:101420002E2E2F447269766572732F53544D3332CA
:10143000463178785F48414C5F4472697665722F17
:101440005372632F73746D3332663178785F6861DD
:101450006C5F636F727465782E6300002DE9F05F36
:1014600080460C4615460027102D00D203E0BA2115
:1014700020A003F072FF102C00D203E0BB211DA0BE
:1014800003F06BFF01F0DAFD0746394622462B4692
:1014900001F00700C0F1070ABAF1040F02D94FF0BA
:1014A000040A01E0C0F1070AD14600F1040ABAF1CA
:1014B000070F02D24FF0000A01E0A0F1030AD44660
:1014C0004FF0010A0AFA09FAAAF1010A0AEA020A25
:1014D0000AFA0CFA4FF0010B0BFA0CFBABF1010B03
:1014E0000BEA030B4AEA0B063146404601F0AEFD1B
:1014F000BDE8F09F2E2E2F447269766572732F53CC
:10150000544D3332463178785F48414C5F447269BC
:101510007665722F5372632F73746D333266317830
:10152000785F68616C5F636F727465782E6300002A
:1015300010B50446072C07D0062C05D0052C03D087
:10154000042C01D0032C00D103E0A22109A003F058
:1015500004FF00BF04F00701154A10684FF6FF02B0
:101560001040144A024342EA0120114A106000BFB1
:1015700010BD00002E2E2F447269766572732F53B2
:10158000544D3332463178785F48414C5F4472693C
:101590007665722F5372632F73746D3332663178B0
:1015A000785F68616C5F636F727465782E630000AA
:1015B0000CED00E00000FA0570B505460C46002170
:1015C00004F08000802806D104F07F0605F1280091
:1015D00000EB461103E005F50A7000EB44111AB95F
:1015E000002088728B8004E001208872CB80180C68
:1015F0000881002070BD704770B504460D4604F1A7
:10160000280101EB45114A692946D4F85C0402F02F
:101610000CFE70BD70B504460D4604F50A7101EB71
:1016200045114A692946D4F85C0402F06BFE70BD8E
:1016300070B504460D46002605F08000802806D1CE
:1016400005F07F0104F1280000EB411603E004F5EA
:101650000A7000EB45160020B07005F07F00307076
:10166000C5F3C010707000BF94F82804012801D1A0
:10167000022070BD012084F8280400BF3146206894
:1016800003F0D0FB00BF002084F8280400BF00BF97
:10169000EFE72DE9F04704460D46174698464FF010
:1016A0000009002605F08000802806D105F07F01A2
:1016B00004F1280000EB411605E005F07F0104F578
:1016C0000A7000EB411605F07F00307005F08000D5
:1016D000C0097070376186F8038000BF94F8280451
:1016E000012802D10220BDE8F087012084F82804F7
:1016F00000BF3146206803F099F900BF002084F84C
:10170000280400BF4846EEE72DE9F04105460E46A5
:1017100017469846002406F07F0105F50A7000EB95
:1017200041146761C4F818800020E061607006F021
:101730007F00207006F07F0020B92146286803F062
:101740000EFC03E02146286803F009FC0020BDE8F8
:10175000F08170B504460D46002605F08000802813
:1017600006D105F07F0104F1280000EB411603E0EB
:1017700004F50A7000EB45160120B07005F07F00FB
:101780003070C5F3C010707000BF94F828040128B1
:1017900001D1022070BD012084F8280400BF314629
:1017A000206803F099FB05F07F0020B904F22C417A
:1017B000206803F034FB00BF002084F8280400BF39
:1017C00000BFE7E72DE9F04105460E46174698466B
:1017D000002406F07F0105F1280000EB4114676149
:1017E000C4F818800020E0610120607006F07F00DE
:1017F000207006F07F0020B92146286803F0AFFB77
:1018000003E02146286803F0AAFB0020BDE8F08130
:1018100010B50446206803F04FFD00F40040B0F519
:10182000004F02D1204601F025FC206803F044FD62
:1018300000F48060B0F5806F0ED12068B0F84400ED
:1018400020F480602168A1F84400204600F06AF985
:101850000021204600F086F9206803F02DFD00F4F9
:101860008040B0F5804F07D12068B0F8440020F4E4
:1018700080402168A1F84400206803F01DFD00F4B9
:101880000050B0F5005F07D12068B0F8440020F4A4
:1018900000502168A1F84400206803F00DFD00F419
:1018A0008050B0F5805F1AD12068B0F8400020F079
:1018B00004002168A1F840002068B0F8400020F042
:1018C00008002168A1F84000204600F03DF920689A
:1018D000B0F8440020F480502168A1F8440020684A
:1018E00003F0EAFC00F40060B0F5006F20D120683E
:1018F000B0F8400040F008002168A1F840002068DE
:10190000B0F8440020F400602168A1F84400206889
:10191000B0F8400040F004002168A1F840002068C1
:1019200003F0CAFCC0F3003010B9204600F07AF989
:10193000206803F0C1FC00F40070B0F5007F0AD10C
:101940002068B0F8440020F400702168A1F8440039
:10195000204600F000F9206803F0AEFC00F480702F
:10196000B0F5807F07D12068B0F8440020F4807083
:101970002168A1F8440010BD30B585B004460025AB
:1019800014B9012005B030BD46492068884200D115
:1019900003E09F2144A003F0E0FC94F8290428B957
:1019A000002084F82804204600F09AF8032084F8E8
:1019B0002904206803F028FA142204F11001684673
:1019C000FEF713FC94E80F0003F005FA00212068ED
:1019D00003F08BFC002525E0012104F1280000EB39
:1019E0004510417004F1280000EB4510057004F12A
:1019F000280000EB45108581002104F1280000EB50
:101A00004510C17004F1280000EB4510016104F19C
:101A1000280000EB4510416104F1280000EB45105F
:101A200081616D1C0F2DD7D3002524E0002104F522
:101A30000A7000EB4510417004F50A7000EB451088
:101A4000057004F1280000EB4510858104F50A704B
:101A500000EB4510C17004F50A7000EB4510016100
:101A600004F50A7000EB4510416104F50A7000EBC3
:101A7000451081616D1C0F2DD8D3142204F1100183
:101A80006846FEF7B2FB94E80F0003F0AEF90020C1
:101A900084F82400012084F82904206803F0A2F9C6
:101AA00000206FE7005C00402E2E2F44726976659F
:101AB00072732F53544D3332463178785F48414C1E
:101AC0005F4472697665722F5372632F73746D333E
:101AD00032663178785F68616C5F7063642E630092
:101AE00038B504460D492068884215D100BF0C481E
:101AF000C06940F400000A49C8610846C06900F4A2
:101B00000000009000BF00BF002211461420FFF724
:101B1000A5FC1420FFF76EFC38BD0000005C0040FF
:101B20000010024070B504460125A068022801D0CB
:101B3000FEF764FE2946D4F85C0402F0D5FCD4F824
:101B40005C0402F097FC70BD10B50446D4F85C0448
:101B500002F0B2FC10BD10B50446D4F85C0402F0EB
:101B6000B2FC10BD70B504460D4600BF94F82804C1
:101B7000012801D1022070BD012084F8280400BF93
:101B800084F824502946206803F0B2FB00BF0020EF
:101B900084F8280400BF00BFEDE710B5044604F246
:101BA0002C41D4F85C0402F0B6FC10BD10B504461C
:101BB00000BF94F82804012801D1022010BD0120A3
:101BC00084F8280400BF01212046FFF714FD206897
:101BD00003F005F9206803F05BFB00BF002084F8E8
:101BE000280400BF00BFE9E710B5044600BF94F821
:101BF0002804012801D1022010BD012084F8280406
:101C000000BF206803F000F9206803F078FB20682B
:101C100003F0E8F800BF002084F8280400BF00BFEC
:101C2000EAE7000010B50446D4F85C0402F0DBFCDF
:101C3000A06928B10348006840F006000149086027
:101C400010BD000010ED00E0F8B5044600260025A8
:101C5000207800F0010048B9207800F00200022846
:101C600004D0207800F01000102800D103E07C217F
:101C700061A003F072FB207800F0010000287DD005
:101C8000606858B16068B0F5807F07D06068B0F5D3
:101C9000007F03D06068B0F5407F00D103E082216F
:101CA00055A003F05AFB00276248C06900F080503D
:101CB00070B900BF5F48C06940F080505D49C8619D
:101CC0000846C06900F08050009000BF00BF0127A7
:101CD0005948006800F48070B0B95748006840F473
:101CE000807055490860FFF70BFB064606E0FFF7DA
:101CF00007FB801B642801D90320F8BD4E4800680B
:101D000000F480700028F2D04A48006A00F4407560
:101D10002DB3A08800F44070A84220D04548006A46
:101D200020F44075012045490860002008604148C2
:101D3000056205F0010090B1FFF7E2FA064608E0FF
:101D4000FFF7DEFA801B41F28831884201D9032077
:101D5000D3E73848006A00F002000028F0D0354888
:101D6000006A20F440706168084332490862012F1C
:101D700006D10846C06920F0805000E001E0C8614B
:101D800000BF207800F0020002281AD1A06858B1E4
:101D9000A068B0F5804F07D0A068B0F5004F03D021
:101DA000A068B0F5404F00D103E0C92112A003F0B4
:101DB000D4FA2048406820F44040A16808431D49F7
:101DC0004860207800F01000102813D1E068B0F5CA
:101DD000800F01D0E06800B904E040F2251106A0B0
:101DE00003F0BBFA1348406820F48000E168084320
:101DF00010494860002080E72E2E2F4472697665D6
:101E000072732F53544D3332463178785F48414CCA
:101E10005F4472697665722F5372632F73746D33EA
:101E200032663178785F68616C5F7263635F657892
:101E30002E63000000100240007000404004424247
:101E400070B504460D46002604B104E040F22E3180
:101E5000AFA003F082FA207800F0010070B920787A
:101E600000F00200022809D0207800F004000428C5
:101E700004D0207800F00800082800D104E040F2E7
:101E80002F31A3A003F069FA1DB1012D01D0022D5D
:101E900000D104E04FF44C719DA003F05EFAAA4813
:101EA000006800F00700A8420ED2A748006820F0A2
:101EB00007002843A44908600846006800F00700AE
:101EC000A84201D0012070BD207800F00200022855
:101ED0003DD1207800F00400042805D19B484068DB
:101EE00040F4E06099494860207800F00800082834
:101EF00005D19648406840F4605094494860A06815
:101F0000B8B1A068802814D0A068902811D0A0682B
:101F1000A0280ED0A068B0280BD0A068C02808D098
:101F2000A068D02805D0A068E02802D0A068F028DA
:101F300000D104E040F2563175A003F00EFA834858
:101F4000406820F0F000A16808438049486020788C
:101F500000F0010000286BD0606828B1606801289B
:101F600002D06068022800D104E040F25D3168A030
:101F700003F0F3F96068012806D17448006800F4A2
:101F8000003090B901209EE76068022806D16F48B2
:101F9000006800F0007040B9012094E76B480068C9
:101FA00000F0020008B901208DE76848406820F081
:101FB00003006168084365494860FFF7A1F90646D8
:101FC0006068012810D108E0FFF79AF9801B41F200
:101FD0008831884201D9032075E75C48406800F0E9
:101FE0000C000428F0D123E06068022810D108E03A
:101FF000FFF786F9801B41F28831884201D903201E
:1020000061E75248406800F00C000828F0D10FE06A
:1020100008E0FFF775F9801B41F28831884201D949
:10202000032050E74948406800F00C000028F0D138
:102030004548006800F00700A8420ED942480068F1
:1020400020F007002843404908600846006800F077
:102050000700A84201D0012035E7207800F00400F5
:1020600004281FD1E06878B1E068B0F5806F0BD02C
:10207000E068B0F5A06F07D0E068B0F5C06F03D09E
:10208000E068B0F5E06F00D104E040F2B13120A08B
:1020900003F063F92D48406820F4E060E1680843EC
:1020A0002A494860207800F00800082820D12069DB
:1020B00078B12069B0F5806F0BD02069B0F5A06FC2
:1020C00007D02069B0F5C06F03D02069B0F5E06F8C
:1020D00000D104E04FF46E710DA003F03EF91B48EF
:1020E000406820F46050216940EAC1001749486007
:1020F00000F058F815494968C1F30311144A515CBE
:10210000C840144908600020FFF720F90020DAE6F3
:102110002E2E2F447269766572732F53544D3332CD
:10212000463178785F48414C5F4472697665722F1A
:102130005372632F73746D3332663178785F6861E0
:102140006C5F7263632E6300002002400010024047
:1021500078530008780000200148006870470000AC
:102160007800002000B5FFF7F7FF04494968C1F384
:102170000221034A515CC84000BD0000001002402B
:102180008853000800B5FFF7E7FF04494968C1F329
:10219000C221034A515CC84000BD0000001002404B
:1021A00088530008F0B585B00FF26C0C9CE8E01085
:1021B00001A8A0E8E0101CA52D68009500210022D0
:1021C000002300240020194D696801F00C05F5B1C9
:1021D000042D02D0082D19D101E0154819E001ADF8
:1021E000C1F38346AC5D01F4803555B10F4D6D6888
:1021F000C5F340451DF805200D4D6543B5FBF2F3D1
:1022000002E00C4D04FB05F3184602E000BF08484D
:1022100000BF00BF05B0F0BD0203040506070809B2
:102220000A0B0C0D0E0F10100102000000100240EE
:1022300000127A0000093D00F8B50446002504B1FB
:1022400004E04FF4B871F7A003F087F8206890B16C
:10225000207800F0010070B9207800F00200022818
:1022600009D0207800F00800082804D0207800F079
:102270000400042800D104E040F27111E9A003F049
:102280006CF8207800F00100002870D0606838B148
:102290006068B0F5803F03D06068B0F5A02F00D132
:1022A00004E040F27711DFA003F057F8EB484068F4
:1022B00000F00C0004280CD0E848406800F00C0046
:1022C000082811D1E548406800F48030B0F5803F1F
:1022D0000AD1E248006800F40030002860D060684D
:1022E00000285DD10120F8BD00BF6068B0F5803FD7
:1022F00006D1DA48006840F48030D849086028E008
:10230000606858B9D548006820F48030D349086027
:102310000846006820F4802008601AE06068B0F584
:10232000A02F0BD1CD48006840F48020CB49086035
:102330000846006840F4803008600AE0C74800683A
:1023400020F48030C54908600846006820F48020E9
:10235000086000BF606890B1FEF7D2FF054607E055
:10236000FEF7CEFF401B642802D90320BBE717E02D
:10237000BA48006800F400300028F1D010E0FEF701
:10238000BFFF054606E0FEF7BBFF401B642801D9EE
:102390000320A8E7B148006800F400300028F2D11B
:1023A000207800F0020002286BD1206910B120696A
:1023B000012800D104E040F2AB119AA002F0CDFF59
:1023C00060691F2800D804E04FF4D67195A002F090
:1023D000C4FFA248406800F00C0050B19F4840681C
:1023E00000F00C00082818D19C48406800F48030A8
:1023F00098B99A48006800F0020020B120690128CD
:1024000001D001206FE79548006820F0F80061696D
:1024100040EAC1009149086033E02069E8B1012039
:102420008F490860FEF76CFF054606E0FEF768FF7F
:10243000401B022801D9032055E78848006800F0B6
:1024400002000028F2D08548006820F0F800616999
:1024500040EAC1008149086013E00020804908601B
:10246000FEF74EFF054606E0FEF74AFF401B022836
:1024700001D9032037E77948006800F002000028FE
:10248000F2D1207800F00800082838D1A06910B1F6
:10249000A069012800D104E04FF4F67161A002F0B8
:1024A0005CFFA069B8B101206E490860FEF728FF03
:1024B000054606E0FEF724FF401B022801D9032051
:1024C00011E76648406A00F002000028F2D00120BF
:1024D00000F0F4FF13E0002062490860FEF710FFEF
:1024E000054606E0FEF70CFF401B022801D9032039
:1024F000F9E65A48406A00F002000028F2D120783C
:1025000000F00400042878D10026E06828B1E068D3
:10251000012802D0E068052800D104E040F21B2128
:1025200040A002F01AFF4D48C06900F0805070B919
:1025300000BF4A48C06940F080504849C861084619
:10254000C06900F08050009000BF00BF01264648DF
:10255000006800F48070B0B94348006840F48070AF
:1025600041490860FEF7CCFE054606E0FEF7C8FECE
:10257000401B642801D90320B5E63B48006800F4FD
:1025800080700028F2D000BFE068012806D13348EF
:10259000006A40F001003149086227E0E06858B95C
:1025A0002E48006A20F001002C4908620846006AA3
:1025B00020F00400086219E0E06805280BD12748E4
:1025C000006A40F00400254908620846006A40F0AD
:1025D000010008620AE02148006A20F001001F495A
:1025E00008620846006A20F00400086200BFE06844
:1025F000A0B1FEF785FE054609E04FE0FEF780FE3C
:10260000401B41F28831884201D903206BE6134810
:10261000006A00F002000028F0D036E0FEF770FEFD
:1026200005462CE02E2E2F447269766572732F5367
:10263000544D3332463178785F48414C5F4472697B
:102640007665722F5372632F73746D3332663178EF
:10265000785F68616C5F7263632E630000100240F4
:10266000000042428004424200700040FEF748FEF3
:10267000401B41F28831884201D9032033E670487B
:10268000006A00F002000028F0D1012E05D16C484C
:10269000C06920F080506A49C86100BFE06928B174
:1026A000E069012802D0E069022800D105E040F28B
:1026B000B921AFF2900002F050FEE069002875D019
:1026C0005F48406800F00C00082870D0E0690228DC
:1026D0006ED1206A18B1206AB0F5803F00D105E0C4
:1026E00040F2C221AFF2C40002F037FE606AB8B314
:1026F000606AB0F5802F33D0606AB0F5002F2FD01C
:10270000606AB0F5402F2BD0606AB0F5801F27D0EB
:10271000606AB0F5A01F23D0606AB0F5C01F1FD05B
:10272000606AB0F5E01F1BD0606AB0F5001F17D0DB
:10273000606AB0F5101F13D0606AB0F5201F0FD08B
:10274000606AB0F5301F0BD0606AB0F5401F07D04B
:10275000606AB0F5501F03D0606AB0F5601F00D109
:1027600005E040F2C321AFF2441002F0F6FD002074
:1027700034490866FEF7C4FD054606E0FEF7C0FDD5
:10278000401B022801D90320ADE52D48006800F068
:1027900000700028F2D1206AB0F5803F17D1A06800
:1027A00018B1A068B0F5003F03D108E045E042E071
:1027B0002CE040F2D921AFF2941002F0CEFD204877
:1027C000406820F40030A16808431D494860D4E9FE
:1027D000080108431A49496821F47411084318494B
:1027E0004860012017490866FEF78AFD054606E0A5
:1027F000FEF786FD401B022801D9032073E510482F
:10280000006800F000700028F2D016E000200D49AA
:102810000866FEF775FD054606E0FEF771FD401BF4
:10282000022801D903205EE50548006800F0007029
:102830000028F2D101E0012055E5002053E5000019
:10284000001002400000424210B504460CB90120BD
:1028500010BD5C492068884203D05B4920688842EB
:1028600000D103E06B2159A002F077FD606818B138
:102870006068B0F5827F00D103E06C2153A002F0C4
:102880006CFDA06838B1A068B0F5806F03D0A06877
:10289000B0F5004F00D103E06D214CA002F05DFDCA
:1028A000E068B0F5006F01D0E06800B903E06E2188
:1028B00046A002F052FD206910B12069022800D123
:1028C00003E06F2141A002F048FD606910B160692A
:1028D000012800D103E070213CA002F03EFDA06978
:1028E000B0F5007F05D0A06918B1A069B0F5802FC0
:1028F00000D103E0712135A002F02FFDE069A0B105
:10290000E069082811D0E06910280ED0E069182885
:102910000BD0E069202808D0E069282805D0E069BC
:10292000302802D0E069382800D103E0722127A0C6
:1029300002F013FD206A10B1206A802800D103E064
:10294000732122A002F009FD0021A16294F8510038
:1029500010B9204600F058F8022084F85100206891
:10296000006820F0400021680860D4E901010843B4
:10297000E16808432169084361690843218B01F438
:1029800000710843E1690843216A0843A16A0843CA
:10299000216808600421A06901EA1040616A0843C7
:1029A000216848602168E06A08612068C06920F4F5
:1029B00000602168C86100206065012084F8510032
:1029C000002045E700300140003800402E2E2F4403
:1029D0007269766572732F53544D3332463178786D
:1029E0005F48414C5F4472697665722F5372632F62
:1029F00073746D3332663178785F68616C5F7370C1
:102A0000695F65782E63000010B586B0044600202B
:102A100002900390049005901949206888422DD1B6
:102A200000BF1848806940F4805016498861084604
:102A3000806900F48050019000BF00BF00BF0846CD
:102A4000806940F0040088610846806900F0040055
:102A5000019000BF00BFA02002900220039003203D
:102A6000059002A90848FEF713FA402002900020C2
:102A70000390049002A90448FEF70AFA06B010BDBC
:102A800000300140001002400008014070B50446CB
:102A90002546681EB0F1807F01D301200FE0681E3B
:102AA0004FF0E02148610F214FF0FF3000F0CEFAE7
:102AB00000204FF0E021886107200861002070BDF0
:102AC000704700002DE9F04704462068056820683B
:102AD000C668206847694FF00008C14605F00F0836
:102AE000B8F1000F0AD105F0200038B106F020003F
:102AF00020B1204600F094FDBDE8F087B8F1000F4A
:102B00006DD007F0010018B906F49070002866D067
:102B100005F0010030B106F4807018B1E06B40F0B0
:102B20000100E06305F0040030B107F0010018B1C6
:102B3000E06B40F00200E06305F0020030B107F006
:102B4000010018B1E06B40F00400E06305F00800FC
:102B500030B107F0010018B1E06B40F00800E0630D
:102B6000E06B68B305F0200028B106F0200010B13A
:102B7000204600F055FD20684069C0F38019E06BE5
:102B800000F0080010B9B9F1000F22D0204600F083
:102B900027FD2068406900F04000B0B1206840691E
:102BA00020F0400021684861606B50B11748616BAC
:102BB0004863606BFDF71AFF10B1606B416B88478B
:102BC0000CE02046FFF77CFF08E02046FFF778FF87
:102BD00004E02046FFF774FF0020E0638CE705F077
:102BE000800030B106F0800018B1204600F0A2FE4F
:102BF00082E705F0400030B106F0400018B12046F1
:102C000000F0FEFC78E700BF76E70000CD35000855
:102C100010B504460CB9012010BDA069002826D0CB
:102C20003A492068884207D039492068884203D051
:102C300038492068884200D104E040F20F1136A0E4
:102C400002F08BFBA06958B1A069B0F5807F07D076
:102C5000A069B0F5007F03D0A069B0F5407F00D136
:102C600017E04FF488712CA002F077FB11E02749A0
:102C70002068884207D026492068884203D0254929
:102C80002068884200D104E04FF48A7122A002F04B
:102C900064FBA06818B1A068B0F5805F00D104E0C3
:102CA0004FF48B711CA002F058FB94F8390028B93E
:102CB000002084F83800204600F04CF8242084F8E6
:102CC00039002068C06820F400502168C8602046A0
:102CD00000F0FAFC2068006920F490402168086147
:102CE0002068406920F02A00216848612068C06897
:102CF00040F400502168C8600020E063202084F880
:102D0000390084F83A00002086E7000000380140CE
:102D100000440040004800402E2E2F447269766522
:102D200072732F53544D3332463178785F48414C9B
:102D30005F4472697665722F5372632F73746D33BB
:102D400032663178785F68616C5F756172742E638A
:102D50000000000010B586B00446002002900390E9
:102D6000049005901E492068884236D100BF1D4856
:102D7000806940F480401B4988610846806900F4FE
:102D80008040019000BF00BF00BF0846806940F04E
:102D9000040088610846806900F00400019000BFCB
:102DA00000BF48150290022003900320059002A95D
:102DB0000D48FEF76DF84FF48060029000200390FC
:102DC000049002A90848FEF763F803221146252063
:102DD000FEF744FB2520FEF70DFB06B010BD0000FA
:102DE0000038014000100240000801407047704761
:102DF00000BFFEE730B50B46002100BF16E00A24F5
:102E0000B4EB107F05D9302404EB107403F81140A3
:102E100005E0412404EB10740A3C03F81140000162
:102E200000254C00641C1D554C1CE1B29142E6DBB0
:102E300030BD10B5FDF74AFF002010BD30B585B09C
:102E40000446002004900090A0020290012003900C
:102E500004A96846FDF736FE054615B1022005B007
:102E600030BD0020FBE7034639B101290BD1FF201B
:102E7000507000209070D07006E0FF20507000204D
:102E80009070D07000BF00BF00BF0020704710B529
:102E9000FDF7E6FF002010BD30B5034614460022C2
:102EA0001D4600BF03E015F8010B8854521CA242D6
:102EB000F9D3084630BD2DE9F04105460E461746C8
:102EC000002412E055F804C0315962460023022064
:102ED000FDF706FF30B928593159884204D0022045
:102EE000BDE8F0810120FBE7241DBC42EAD30020AD
:102EF000F6E7000000B585B0002001900290039035
:102F0000049000BF1648806940F020001449886191
:102F10000846806900F02000009000BF00BF00BF9D
:102F20000846806940F0040088610846806900F026
:102F30000400009000BF00BF012210210948FEF7E5
:102F4000A3F910200190012002900020039003209B
:102F5000049001A90348FDF79BFF05B000BD0000E8
:102F6000001002400008014010B50F480F490860EA
:102F70004FF48270486000210C488160C1600221DA
:102F8000016101214161490281610821C161002182
:102F90000162416281620A21C162FFF755FC08B1FA
:102FA000FDF72CFC10BD000000300140E4000020C3
:102FB00010B50B480B4908604FF4E1304860002120
:102FC00008488160C16001610C214161002181617B
:102FD000C161FFF71DFE08B1FDF710FC10BD000038
:102FE000003801403C01002010B500220D490E4878
:102FF00001F0EFF808B1FDF701FC0C490A4801F0B7
:1030000028FB08B1FDF7FAFB0949074800F090FEDC
:1030100008B1FDF7F3FB044801F0E4FB08B1FDF74C
:10302000EDFB10BD000000207C010020800000208E
:103030005000002000BFFEE7704700000248006813
:10304000C0F30220704700000CED00E010B500282E
:1030500007DA0A07140E054A00F00F031B1FD454A9
:1030600003E00A07130E024A135410BD18ED00E0E6
:1030700000E400E02DE9FC4105460024002700267D
:103080000020019000900CE2BDF8040000F00F0653
:10309000002E7DD1BDF8040000F0100088BB286828
:1030A000008848F60F7108402968088005F1280457
:1030B0002868B0F85010207801EBC000801C296807
:1030C00001F5806131F81000C0F30900E061E169A9
:1030D00060690844606100212846FEF78DFA95F882
:1030E00024000028CFD0A0690028CCD195F8240076
:1030F00040F080002968A1F84C00002085F82400E9
:10310000CFE1FFE705F50A74286800880090BDF854
:10311000000000F4006018B32868B0F85010207860
:1031200001EBC000801D296801F5806131F81000B5
:10313000C0F30900E061A18B8BB2A28805F22C419B
:10314000286802F0BEF828680088C0F30E0048F630
:103150008F710840296808802846FEF71EFDA0E10F
:10316000BDF8000000F4004000288CD028680088DA
:10317000C0F30E0048F68F7108402968088028685F
:10318000B0F85010207801EBC000801D296800E0E5
:1031900055E001F5806131F81000C0F30900E061ED
:1031A000E06960B1B4F81CC01FFA8CF3A2886169B1
:1031B000286802F086F8E1696069084460610021CE
:1031C0002846FEF727FA2A6802F580622868B0F8D8
:1031D0005000801D02EB400122693E2A10D922696D
:1031E000C2F34F10227C02F01F020AB9421E90B2B5
:1031F0004FF6FF7202EA802242F400420A600DE0BC
:103200002269C2F34F00227C02F001020AB1421C83
:1032100090B24FF6FF7202EA80220A60296809889C
:103220004BF68F7201EA020080F4805080F4005067
:1032300040F4004141F080012A68118031E17100C1
:10324000286830F811000090BDF8000000F400403C
:1032500000287CD07100286830F81100C0F30E00FF
:1032600048F68F7108407200296821F8120005F5B0
:103270000A7000EB4614A07AA8B92868B0F850107C
:10328000207801EBC000801D296801F5806131F8CC
:103290001000C0F30907EFB3A28861693B462868B4
:1032A00002F00FF844E021784900286830F8110056
:1032B00000F48040A8B12868B0F85010207801EBE5
:1032C000C000801C296801F5806131F81000C0F34E
:1032D0000907DFB1E28861693B46286801F0F1FF28
:1032E00014E02868B0F85010207801EBC000801D71
:1032F000296801F5806131F81000C0F309072FB18A
:10330000228961693B46286801F0DBFF217849008A
:10331000286800E00CE030F8110048F68F71084092
:1033200048F2C001084322785200296821F81200AF
:10333000E0693844E061606938446061A06910B1B7
:103340002069B84204D921782846FEF763F905E0E0
:1033500021782846D4E90523FEF7D6F9BDF8000008
:1033600000F0800000287CD005F1280000EB461416
:103370007100286830F8110048F60F71084072009B
:10338000296821F81200A07AD0B92868B0F8501046
:10339000207801EBC000801C296801F5806131F8BC
:1033A0001000C0F30900E061E069E8B3B4F81CC0A4
:1033B0001FFA8CF3A2886169286801F0ABFF4EE028
:1033C00021784900286830F8110000F04000D0B1A1
:1033D0002868B0F85010207801EBC000801C2968E4
:1033E00001F5806131F81000C0F30900E061E06987
:1033F00028B3B4F81CC01FFA8CF3E288616928680E
:1034000001F088FF1BE02868B0F85010207801EB2D
:10341000C000801D296801F5806131F81000C0F3FB
:103420000900E061E06900E019E040B1B4F81CC0B7
:103430001FFA8CF322896169286801F06BFF2178FB
:103440004900286830F8110048F68F7108404CF2A6
:103450008001084322785200296821F81200286868
:1034600000E01EE0B0F85010207801EBC000801C96
:10347000296801F5806131F81000C0F30900E061AE
:10348000E169606908446061A06920B92178284633
:10349000FEF7B2F805E021782846D4E90523FEF7C7
:1034A00091F92868B0F84400019000F40040002829
:1034B0007FF4EAADBDE8FC817047000008B508491B
:1034C0000968C9084FF47A72B1FBF2F141430091E7
:1034D00000BF00BF00994A1E00920029F9D108BD23
:1034E00078000020704710B5FDF710FF10BD00B543
:1034F00093B0282109A8FCF7AAFE142104A8FCF720
:10350000A6FE0020009001900290039001200990F7
:1035100000040A9000200B9001200D9002201090D2
:10352000C10311914FF4E011129109A8FEF784FE36
:1035300008B1FDF763F90F200490022005900020E8
:1035400006904FF48060079000200890022104A8A4
:10355000FEF776FC08B1FDF751F91020009000202D
:1035600003906846FEF770FB08B1FDF747F913B00A
:1035700000BD00001148006840F001000F490860DC
:10358000084640680E4908400C49486008460068F3
:103590000C490840094908600846006820F480206A
:1035A00008600846406820F4FE0048604FF41F00A1
:1035B0008860C8030449086070470000001002409A
:1035C0000000FFF8FFFFF6FE08ED00E070B50546CD
:1035D0006C6A0020E085E0842046FFF771FA70BD38
:1035E0000168C96821F490710268D1600168496975
:1035F00021F0010102685161202180F83A107047E2
:1036000010B504462068C06820F040002168C860FA
:10361000202084F839002046FFF7E9FB002010BD88
:1036200070B5044694F83A0022284AD1A068B0F553
:10363000805F13D1A56A206940B920684068C0F353
:1036400008002880A06A801CA06219E020684068F9
:10365000C0B22880A06A401CA06211E0206938B97D
:1036600020684068C1B2A26A501CA062117007E0D5
:103670002068406800F07F01A26A501CA0621170AF
:10368000E08D401E80B2E085C8B92068C06820F097
:1036900020002168C8602068C06820F4807021681C
:1036A000C8602068406920F001002168486120203E
:1036B00084F83A002046FFF799FB002070BD0020F7
:1036C000FCE70220FAE700002DE9F041044600255E
:1036D00087496068884200D204E040F6A71185A0BF
:1036E00001F03BFEE06818B1E068B0F5005F00D182
:1036F00004E040F6A8117FA001F02FFE206938B148
:103700002069B0F5806F03D02069B0F5C06F00D19B
:1037100004E040F6A91177A001F01FFE4FF6F37107
:103720006069084010B9606900B104E040F6AA1170
:1037300070A001F012FE2068006920F44050E1689A
:103740000843216808612169A0680843616908434A
:1037500005432068C06841F20C6188432843216812
:10376000C8602068406920F44070A169084321685E
:1037700048616F49206888425CD1FEF703FD00EB89
:10378000C00101EB001061688900B0FBF1F6FEF7A3
:10379000F9FC00EBC00101EB001061688900B0FB8F
:1037A000F1F06421B0FBF1F000EBC00101EB00107F
:1037B000A6EB8000322101EB00106421B0FBF1F098
:1037C00000F0F006FEF7DEFC00EBC00101EB00109C
:1037D00061688900B0FBF1F06421B0FBF1F006EB09
:1037E0000016FEF7CFFC00EBC00101EB0010616892
:1037F0008900B0FBF1F7FEF7C5FC00EBC00101EB5F
:10380000001061688900B0FBF1F06421B0FBF1F0B9
:1038100000EBC00101EB0010A7EB8000322101EBAF
:1038200000106421B0FBF1F000F00F00304421687B
:1038300088605BE0FEF796FC00EBC00101EB001036
:1038400061688900B0FBF1F6FEF78CFC00EBC0016B
:1038500001EB001061688900B0FBF1F06421B0FB5E
:10386000F1F000EBC00101EB0010A6EB800032216B
:1038700001EB00106421B0FBF1F000F0F006FEF760
:1038800071FC00EBC00101EB001061688900B0FB26
:10389000F1F06421B0FBF1F006EB0016FEF762FCDC
:1038A00000EBC00101EB001061688900B0FBF1F78B
:1038B000FEF758FC00EBC00101EB001061688900C5
:1038C000B0FBF1F06421B0FBF1F000EBC00101EBC3
:1038D0000010A7EB8000322101EB00106421B0FB47
:1038E000F1F000F00F00304421688860BDE8F081FD
:1038F00021AA44002E2E2F447269766572732F53CD
:10390000544D3332463178785F48414C5F44726998
:103910007665722F5372632F73746D33326631780C
:10392000785F68616C5F756172742E6300000000DF
:1039300000380140014691F8390021282CD18868CF
:10394000B0F5805F0FD10A6A1088C0F308000B68D9
:103950005860086918B9086A801C086209E0086A9A
:10396000401C086205E00B6A581C086218780B6856
:103970005860C88C401E80B2C88458B90868C068B6
:1039800020F080000B68D8600868C06840F04000F4
:103990000B68D860002070470220FCE710B5024891
:1039A000FFF790F810BD00003C01002070B5044600
:1039B0000D46D4F81402294642682046904700205C
:1039C00070BD70B504460D4694F8FC01022802D083
:1039D000032811D100E000BF688801280BD1002026
:1039E000C4F80402D4F8140229468268204690479D
:1039F000204600F05EF804E02946204600F01BF85F
:103A000000BF00BF70BD70B506460C4615462B467C
:103A100022460021304600F015FD002070BD70B533
:103A200006460C4615462B4622460021304600F03D
:103A3000E4FD002070BD70B504460D46802120468F
:103A400000F0A0FD0021204600F09CFD70BD70B587
:103A500004460E4615460320C4F8F4014FF4847062
:103A60000551001D05512B4632460021204600F02D
:103A7000E9FC002070BD10B504460520C4F8F4012F
:103A800000231A461946204600F0DCFC002010BD39
:103A900070B504460E4615460220C4F8F401A5612F
:103AA000E5612B4632460021204600F0A6FD0020AD
:103AB00070BD10B504460420C4F8F40100231A4672
:103AC0001946204600F099FD002010BD0246002056
:103AD000704702460020704770B504460E46D4F881
:103AE00018520020C5F80804C5F80C04022085F817
:103AF0000004002085F80104022140F205404155F0
:103B0000D4F8180250B1D4F81C1288688047D4F851
:103B1000180200F084FF0020C4F81802002070BDD5
:103B20000146002070477CB50546D5F8184294F848
:103B30000004042876D1D4F8080400285CD1207849
:103B400018B9D4F80C0401286ED0207821281CD193
:103B5000D4F80C04052818D16078C4F81004A178B2
:103B6000D4F8100400EB0120C4F81004E178D4F874
:103B7000100400EB0140C4F810042179D4F81004BB
:103B800000EB0160C4F810044EE02078412824D1F5
:103B9000D4F80C04052820D16078C4F81004A1786A
:103BA000D4F8100400EB0120C4F81004E178D4F834
:103BB000100400EB0140C4F810042179D4F810047B
:103BC00000EB0160C4F81004D4F81004D5F81C22EE
:103BD000D168884738B302207CBD0020C4F80C04AB
:103BE000C4F808048DF800000120ADF8060069460D
:103BF0002846FFF720FF17E0D4F80804012813D95E
:103C0000D4F80804801ED4F8101401EB8026D4F8F0
:103C10000C24D5F81C02314603692046984710B1A0
:103C20000220D9E716E0FFE70020C4F80C04C4F82E
:103C30000804032084F80004002140F202400155EA
:103C4000401C0155401C015594F80014401C0155BE
:103C50000020C1E794F80004072802D12846FCF7A9
:103C6000DDFC0020B8E7000001461B200880014869
:103C700070470000BC00002001460A20088001486F
:103C800070470000D800002070B504460D46164667
:103C9000062D08DCD4F81C1232460868034900F0EF
:103CA00059FA024870BD0020FCE70000400E0020D9
:103CB00070B505460E464FF4836000F0B1FEC5F8BE
:103CC0001802D5F8180208B9022070BDD5F81842BC
:103CD000002004F580646061114820610020A0602C
:103CE000E060E0710220207000206070A4F5806424
:103CF000002140F202400155401C0155401C015575
:103D00000221401C01550021401C0155D5F81C1210
:103D10004868804708B10220D7E70020D5E70000B7
:103D200000800008024600207047024600207047CD
:103D3000024609B1C2F81C1200207047014600205B
:103D4000704700002DE9F04705460C460027B846AD
:103D5000B946D5F81862207800F0600090B32028AA
:103D600069D16078072824D2DFE800F01E04090E2C
:103D700012161A0021462846FCF77AFB20E021465D
:103D80002846FCF7A1FC1BE02846FCF7C7FB17E020
:103D90002846FCF7F4FA13E02846FCF7B4FB0FE0E2
:103DA0002846FCF7BAFA0BE021462846FCF71AFB36
:103DB00006E021462846FFF73EFE4FF0020900BF0D
:103DC00000BF38E0FFE76078062804D00A2815D045
:103DD0000B2828D119E060882121B1EB202F07D1D1
:103DE000174FE088092801DD092000E0E0888046BF
:103DF000424639462846FFF74BFE1BE0012206F2F9
:103E000014412846FFF744FE14E0A078012803DAA5
:103E1000A078C6F8140405E021462846FFF70BFEFB
:103E20004FF0020906E021462846FFF704FE4FF056
:103E3000020900BF00BF00BF4846BDE8F087000090
:103E4000CE00002070B505460C462DB92246064925
:103E500006A000F07FF904E02246034903A000F029
:103E600079F9014870BD0000A003002044465520A8
:103E7000436F6E66696700000246122008800148A1
:103E8000704700001C00002070B505460C462DB997
:103E90002246064906A000F05DF904E022460349E7
:103EA00003A000F057F9014870BD0000A0030020F6
:103EB00044465520496E7465726661636500000072
:103EC00002460420088001487047000030000020AE
:103ED00070B505460C462246024903A000F03AF9A7
:103EE000004870BDA003002053544D6963726F6594
:103EF0006C656374726F6E696373000070B505461C
:103F00000C462DB92246064906A000F023F904E02C
:103F10002246034903A000F01DF9014870BD0000CE
:103F2000A003002053544D333220446F776E4C6F02
:103F30006164204669726D776172652055706461B5
:103F40007465000070B505460C461A202080FCF709
:103F500033FD014870BD00003400002070B50446F8
:103F60000D46E888012804D029462046FFF763FD66
:103F70001BE094F8FC01022802D003280FD108E0CE
:103F80000020A060012204F108012046FFF780FD17
:103F90000AE00122211D2046FFF77AFD04E02946B0
:103FA0002046FFF748FD00BF00BF70BDF8B50446CE
:103FB0000E4670880012082872D2DFE800F08204F2
:103FC0000C2082826372207CD4F810120A68694641
:103FD000904705467AE0207C40B9D4F81402816A03
:103FE0006846884705460221697007E0D4F8140244
:103FF000C16A6846884705460221697066E0B07864
:10400000062834D2DFE800F0030B131B232B207C9F
:10401000D4F810124A6869469047054630E0207C83
:10402000D4F810128A6869469047054628E0207C3B
:10403000D4F81012CA6869469047054620E0207CF3
:10404000D4F810120A6969469047054618E0207CAA
:10405000D4F810124A6969469047054610E0207C62
:10406000D4F810128A6969469047054608E0B1788D
:10407000D4F814026A46836B20469847054600BF71
:1040800000BF23E0207C30B9D4F81402416B6846AD
:10409000884705461AE031462046FFF7CCFCF8BDBC
:1040A0000FE0207C40B9D4F81402016B68468847C1
:1040B00005460721697009E031462046FFF7BBFC41
:1040C000EDE731462046FFF7B6FCE8E700BFBDF854
:1040D000000088B1F08878B1F088BDF800108842FF
:1040E00002DDBDF8000000E0F0880090BDF800207F
:1040F00029462046FFF7CCFC00BFD0E70146002050
:1041000002E0421CD0B2491C0A78002AF9D170475B
:1041100070B504460D4694F8FC01022802D003282D
:1041200011D100E000BF0120E060D4F8040218B112
:10413000E06840F00200E060022204F10C01204639
:10414000FFF7A6FC04E029462046FFF774FC00BFF9
:1041500000BF70BD2DE9F04104460D46174600260C
:10416000FCB12046FFF7CAFF022101EB4000388076
:104170003A783046711CCEB22A5403223046711C64
:10418000CEB22A540AE014F8012B3046711CCEB28C
:104190002A5400223046711CCEB22A5420780028BE
:1041A000F1D1BDE8F0810146002031B1012906D0EE
:1041B000022906D0032908D105E0002007E00220EB
:1041C00005E0012003E0022001E0022000BF00BF63
:1041D000704770B504460D4616460CB9022070BDF6
:1041E000D4F8140210B10020C4F814020DB1C4F8C0
:1041F0001052012084F8FC012670204600F0C6F819
:104200000020ECE72DE9F04104460D46002600278A
:104210002946D4F82002FDF70BFA06463046FFF790
:10422000C2FF07463846BDE8F0812DE9F04104465B
:104230000E461746002E54D104F11405D4F8F401AB
:10424000022843D1D5E90201884210D9D5E90201FB
:10425000401AA860288982B239462046FFF7DFFB62
:1042600000231A461946204600F0ECF82EE0E968D3
:104270006868B0FBF1F201FB1200B8B9E968686840
:10428000884213D36868D4F8F81188420ED200220D
:1042900011462046FFF7C3FB0020C4F8F8010023B5
:1042A0001A461946204600F0CDF80FE0D4F8140263
:1042B000C06840B194F8FC01032804D1D4F814027A
:1042C000C168204688472046FFF7D5FB94F80002D6
:1042D000012814D1204600F0C4F9002084F800021F
:1042E0000DE0D4F81402406948B194F8FC010328A9
:1042F00005D1D4F814023146426920469047002087
:10430000BDE8F0812DE9F04105460E4617465EBB3B
:1043100005F58274D5F8F401032833D1D4E90201FC
:10432000884210D9D4E90201401AA060D4E9020100
:10433000884201D2A06800E0E06882B2394628468F
:10434000FFF761FB1EE0D5F81402006940B195F853
:10435000FC01032804D1D5F81402016928468847D6
:104360002846FFF7A6FB0DE0D5F81402806948B196
:1043700095F8FC01032805D1D5F81402314682696D
:10438000284690470020BDE8F081000010B50446A3
:104390001248C0F85C44C4F8200211480F49086074
:1043A0000820486002210D48816000218161C161BF
:1043B0000162FDF7E1FA08B1FCF720FA18230022A8
:1043C0001146D4F82002FDF7F7F858230022802187
:1043D000D4F82002FDF7F0F8002010BDA005002061
:1043E000005C004010B50246D2F8203201F0800097
:1043F000802807D101F07F0403F1280000EB44106E
:10440000807810BD01F07F0403F50A7000EB4410C2
:104410008078F6E72DE9F04704460F4615461E461C
:104420004FF00008C1462B4632463946D4F82002E8
:10443000FDF72FF980464046FFF7B5FE8146484616
:10444000BDE8F0872DE9F04704460D4616461F46A5
:104450004FF00008C1463B4632462946D4F82002B8
:10446000FDF752F980464046FFF79DFE81464846DB
:10447000BDE8F08710B504464023002211462046CF
:10448000FFF7C8FF40214FF48870015140230022FC
:1044900080212046FFF7BEFF40212162012084F8E1
:1044A000FC01D4F8180228B12179D4F8140242682A
:1044B00020469047002010BD014691F8FD0181F88B
:1044C000FC010020704710B5044694F8FC01032855
:1044D00008D1D4F81402C06920B1D4F81402C1691B
:1044E00020468847002010BD024611740020704706
:1044F0002DE9F04104460D46002600272946D4F850
:104500002002FDF72FFB06463046FFF74CFE07461C
:104510003846BDE8F08170B504460D46294604F5DD
:10452000027000F082F80120C4F8F40140F20E207D
:10453000005BC4F8F80194F8080200F01F0020B1F5
:10454000012808D0022812D10BE004F502712046A0
:1045500000F04FF913E004F50271204600F02DFA47
:104560000DE004F50271204600F07CF907E094F8B4
:10457000080200F08001204600F004F800BF00BFF0
:10458000002070BD2DE9F04104460D4600260027AD
:104590002946D4F82002FDF7DCF806463046FFF73E
:1045A00002FE07463846BDE8F08170B50446002596
:1045B0000026D4F82002FDF7F9FA05462846FFF751
:1045C000F2FD0646304670BD70B504460025002653
:1045D000D4F82002FDF708FB05462846FFF7E3FD67
:1045E0000646304670BD014691F8FC0181F8FD0198
:1045F000042081F8FC01002070472DE9F0470446B3
:104600000D4616461F464FF00008C1463B4632464F
:104610002946D4F82002FDF7D5F880464046FFF73A
:10462000C2FD81464846BDE8F0870A7802704A78A4
:1046300042708B78CA7803EB022242800B794A7968
:1046400003EB022282808B79CA7903EB0222C280BB
:1046500070470246002011B1C2F8141200E0022097
:10466000704701460020704770B504460D46A88883
:10467000F8B9E888E8B9A87800F07F0694F8FC015A
:10468000032804D129462046FFF7D5F915E084F820
:10469000FE6131462046FFF72BFF2046FFF709FA5F
:1046A0001EB1022084F8FC0107E0012084F8FC011F
:1046B00003E029462046FFF7BEF970BD70B50446F9
:1046C0000D460226D4F8140238B1D4F81402294653
:1046D00002682046904700B90026304670BD0000B1
:1046E00070B504460D46A87834490870084600782D
:1046F000012804DD29462046FFF79DF95BE094F888
:10470000FC01022802D003284FD11CE02B4800787E
:10471000A8B12A4800786060032084F8FC0127488B
:1047200001782046FFF7CAFF022804D12946204617
:10473000FFF781F970BD2046FFF7BBF902E0204684
:10474000FFF7B7F936E01D48007870B9022084F809
:10475000FC011A4800786060184801782046FFF78D
:1047600025F92046FFF7A5F91EE01449097860688D
:10477000884216D021792046FFF718F90F480078B3
:1047800060600E4801782046FFF798FF022804D1A8
:1047900029462046FFF74FF9CCE72046FFF789F975
:1047A00002E02046FFF785F904E029462046FFF79E
:1047B00042F900BF00BF00BFBCE700007C00002042
:1047C00070B504460D46688801280AD1C4F8040271
:1047D000D4F8140229468268204690472046FFF705
:1047E00068F970BD10B504462046FFF7DEFE0020D4
:1047F00010BD70B505460C46002660780A2829D2FF
:10480000DFE800F01923281E280A0528140F214686
:104810002846FFF7CBFB22E021462846FFF724FF7E
:104820001DE021462846FFF75BFF18E02146284699
:10483000FFF794FB13E021462846FFF769FC0EE0E2
:1048400021462846FFF7BCFF09E021462846FFF72E
:10485000B8F804E021462846FFF7EDF800BF00BF96
:10486000304670BD2DE9F04105460E464FF0000878
:104870003479307800F06000202808D1D5F814028F
:1048800031468268284690470020BDE8F081707864
:10489000002855D001282AD003287AD195F8FC01A8
:1048A000022802D003281BD107E02CB1802C03D0B2
:1048B00021462846FFF766FE17E0708830B92CB114
:1048C000802C03D021462846FFF75CFED5F8140261
:1048D00031468268284690472846FFF7EAF804E008
:1048E00031462846FFF7A7F800BF00BF62E095F801
:1048F000FC01022802D003281BD107E02CB1802C38
:1049000003D021462846FFF73DFE17E0708878B9AE
:1049100004F07F0048B121462846FFF773FCD5F824
:10492000140231468268284690472846FFF7C1F8AE
:1049300004E031462846FFF77EF800BF00BF39E0AB
:1049400095F8FC01022802D003282BD107E004F0DF
:104950007F0018B121462846FFF714FE27E004F037
:104960008000802806D104F07F0105F1140000EBDF
:10497000011005E004F07F0105F5827000EB0110E5
:10498000074621462846FFF72DFD18B10120386063
:1049900002E00EE000203860022239462846FFF788
:1049A00077F804E031462846FFF745F800BF00BF1E
:1049B00000E000BF00BF404667E770B504460D4603
:1049C000002694F8FC01032814D1287901280CDC76
:1049D000D4F814022946826820469047E88840B9F6
:1049E0003EB92046FFF765F803E029462046FFF769
:1049F00022F804E029462046FFF71DF800BF00BF5B
:104A0000002070BD10B504462179D4F81402426824
:104A1000204690472046FFF7D7FD002010BD704785
:104A20000146014870470000000A002010B5024608
:104A3000C87830B101282CD0022810D0032836D1F4
:104A400019E00878400032F8100048F68F1318403B
:104A500040F400700B785B0022F8130028E008781F
:104A6000400032F8100048F68F1318400B785B00B6
:104A700022F813001CE00878400032F8100048F6D5
:104A80008F13184040F4C0600B785B0022F81300CD
:104A90000EE00878400032F8100048F68F131840F6
:104AA00040F480600B785B0022F8130000E000BF48
:104AB00000BF0878400032F8100048F68F731840A5
:104AC00048F2800318430B7818435B0022F8130068
:104AD000887A00287DD1487898B3888840104400AF
:104AE000B2F85030087803EBC00002F5806343F859
:104AF00010400878400032F8100000F0400068B123
:104B00000878400032F8100048F68F73184048F2D9
:104B1000C00318430B785B0022F813000B785B008E
:104B200032F8133048F6BF7403EA040080F0200026
:104B300040F4004343F080030C78640022F8143002
:104B400047E1FFE7888840104400B2F85030087809
:104B500003EBC000001D02F5806343F81040B2F87B
:104B60005040087804EBC000801D1C4604EB400355
:104B70000C693E2C10D90C69C4F34F100C7C04F066
:104B80001F040CB9441EA0B24FF6FF7404EA80243F
:104B900044F400441C600DE00C69C4F34F000C7C2D
:104BA00004F001040CB1441CA0B24FF6FF7404EAF7
:104BB00080241C600878400032F8100000F4804027
:104BC00078B10878400032F8100048F68F7318402A
:104BD00000E01BE04CF2800318430B785B0022F8E6
:104BE00013000B785B0032F813304BF68F7403EA36
:104BF000040080F4805080F4005040F4004343F0FF
:104C000080030C78640022F81430E2E00878400059
:104C100032F8100040F4807048F68F73184048F264
:104C2000800318430B785B0022F81300C8884010FB
:104C30004400B2F85030087803EBC00002F58063FE
:104C400043F81040088940104400B2F8503008780A
:104C500003EBC000001D02F5806343F81040487864
:104C6000F0BB0878400032F8100000F4804068B1D2
:104C70000878400032F8100048F68F7318404CF264
:104C8000800318430B785B0022F81300087840007B
:104C900032F8100000F0400068B10878400032F8A7
:104CA000100048F68F73184048F2C00318430B7881
:104CB0005B0022F813000878400032F8100048F634
:104CC0008F73184048F2C00318430B785B0022F83A
:104CD00013000B785B0032F813304BF68F7400E052
:104CE0001EE003EA040080F4805080F4005040F499
:104CF000004343F080030C78640022F814300B78F2
:104D00005B0032F8133048F6BF7403EA040040F445
:104D1000004343F080030C78640022F8143058E01C
:104D20000878400032F8100000F4804068B108783C
:104D3000400032F8100048F68F7318404CF28003A0
:104D400018430B785B0022F813000878400032F813
:104D5000100000F0400068B10878400032F8100000
:104D600048F68F73184048F2C00318430B785B0075
:104D700022F813000878400032F8100048F68F73CC
:104D800018404CF2800318430B785B0022F81300A4
:104D90000B785B0032F8133048F6BF7403EA040066
:104DA00040F4004343F080030C78640022F8143090
:104DB0000B785B0032F813304BF68F7403EA040073
:104DC00040F4004343F080030C78640022F8143070
:104DD00000BF002010BD10B50446002010BD0146E4
:104DE0000020704701460020704710B5044601209E
:104DF00024F8400F00202080A0802082403C2046E4
:104E000000F046FA002010BD014600224FF43D425A
:104E1000B1F840009043A1F84000002070470246DE
:104E20000020704710B50246487848B30878400023
:104E300032F8100000F0400068B10878400032F805
:104E4000100048F68F73184048F2C00318430B78DF
:104E50005B0022F813000B785B0032F8133048F641
:104E6000BF7403EA040080F0100080F0200040F4DA
:104E7000004343F080030C78640022F8143029E0EA
:104E80000878400032F8100000F4804068B10878DB
:104E9000400032F8100048F68F7318404CF280033F
:104EA00018430B785B0022F813000B785B0032F894
:104EB00013304BF68F7403EA040080F4805080F4C2
:104EC000005040F4004343F080030C78640022F863
:104ED000143000BF002010BD10B502460878A0B9FC
:104EE0000B785B0032F813304BF6BF7403EA040012
:104EF00080F4805080F0100040F4004343F08003C1
:104F00000C78640022F8143027E0487890B10B78D0
:104F10005B0032F8133048F6BF7403EA040080F0F7
:104F2000100040F4004343F080030C78640022F842
:104F3000143012E00B785B0032F813304BF68F74AC
:104F400003EA040080F4805040F4004343F08003FF
:104F50000C78640022F8143000BF002010BDF0B5BA
:104F600006460C460027A569607801287CD1216996
:104F7000A069884204D92569A069401BA06102E0AC
:104F8000A5690020A061A07A80B9ABB2A2883046A2
:104F9000616900F0BFF9B6F85010207801EBC0004D
:104FA000801C06F5806141F81050A1E02078400097
:104FB00036F8100000F04000C0B3607838BBB6F897
:104FC0005020207802EBC000801D06F5806202EBC5
:104FD00040013E2D0ED9C5F34F1005F01F020AB94E
:104FE000421E90B24FF6FF7202EA802242F4004263
:104FF0000A600BE0C5F34F0005F001020AB1421C44
:1050000090B24FF6FF7202EA80220A600CE06078EC
:10501000012809D1B6F85010207801EBC000801C9F
:1050200006F5806141F81050278939E0FFE7607884
:1050300040BBB6F85020207802EBC000801C06F57B
:10504000806202EB40013E2D0FD9C5F34F1005F0F1
:105050001F020AB9421E90B24FF6FF7202EA802286
:1050600042F400420A600CE057E0C5F34F0005F03F
:1050700001020AB1421C90B24FF6FF7202EA80228E
:105080000A600CE06078012809D1B6F85010207849
:1050900001EBC000801C06F5806141F81050E788E4
:1050A000ABB23A463046616900F034F9607870B9C5
:1050B0002078400036F8100048F68F71084048F21A
:1050C000C00108432178490026F8110010E06078FB
:1050D00001280DD12078400036F8100048F68F7175
:1050E00008404CF2800108432178490026F811005D
:1050F0002178490036F8111048F6BF7201EA020023
:1051000080F0100080F0200040F4004141F0800168
:105110002278520026F81210B8E02169A06988426E
:1051200004D92569A069401BA06102E0A56900209F
:10513000A061A07A38BBB6F85020207802EBC000FE
:10514000801D06F5806202EB40013E2D0ED9C5F3AD
:105150004F1005F01F020AB9421E90B24FF6FF72BF
:1051600002EA802242F400420A600BE0C5F34F00DD
:1051700005F001020AB1421C90B24FF6FF7202EA3A
:1051800080220A606DE0607838BBB6F85020207845
:1051900002EBC000801C06F5806202EB40013E2D50
:1051A0000ED9C5F34F1005F01F020AB9421E90B286
:1051B0004FF6FF7202EA802242F400420A600BE0DE
:1051C000C5F34F0005F001020AB1421C90B24FF640
:1051D000FF7202EA80220A600CE06078012809D19F
:1051E000B6F85010207801EBC000801C06F58061F5
:1051F00041F81050607838BBB6F85020207802EBA8
:10520000C000801D06F5806202EB40013E2D0ED9E4
:10521000C5F34F1005F01F020AB9421E90B24FF6B7
:10522000FF7202EA802242F400420A600BE0C5F3FA
:105230004F0005F001020AB1421C90B24FF6FF7216
:1052400002EA80220A600CE06078012809D1B6F8F1
:105250005010207801EBC000801C06F5806141F8F9
:1052600010502178490036F811104BF68F7201EA80
:10527000020080F4805080F4005040F4004141F07E
:1052800080012278520026F8121000BF0020F0BDE5
:10529000014600224FF43F42B1F840001043A1F80C
:1052A000400000207047000010B50248FCF7B0FA3B
:1052B00010BD0000A005002001460020B1F8440008
:1052C0007047F0B55F1C7E100024002500EB4207FC
:1052D00007F58065344605E035F804CB21F801CBAD
:1052E000491C641E002CF7D1F0BD02460020704717
:1052F000024611B98020A2F84C00002070470146F8
:10530000012021F8400F00208880032021F8400967
:10531000002070472DE9F041044603F101084FEAEF
:1053200068070025AC460026002004EB420808F57B
:1053300080603D460BE091F800C0491C91F8008068
:105340004CEA082620F8026B801C491C6D1E002DBB
:10535000F1D1BDE8F08100BFFEE77047FBF7E2FF47
:10536000FEF7C5F8FDF7C6FDFDF722FEFDF7FCFDD3
:10537000FDF73AFE00BFFEE700000000000000005D
:1053800001020304060708090000000001020304EB
:1053900040496E7465726E616C20466C6173682062
:1053A00020202F307830383030303030302F3033CC
:1053B0002A3031364B612C30312A3031364B672C54
:1053C00030312A3036344B672C30372A3132384B63
:1053D000672C30342A3031364B672C30312A303646
:1053E000344B672C30372A3132384B6700000000CD
:1053F0001054000800000020E4000000280100080C
:10540000F4540008E4000020BC120000440100082D
:10541000793E0008C13E0008D13E0008FD3E00086C
:10542000453F0008453E0008893E00081201000281
:1054300000000040830411DF0002010203010000AC
:10544000040309041A03000000000000000000002B
:10545000000000000000000000000000000000004C
:10546000905300088F2E0008332E00083D2E0008B0
:10547000B72E0008992E0008672E000800000000D3
:10548000100000000100000000A24A04000000001B
:10549000B13C0008D93A0008453D0008273B000808
:1054A000213B0008CD3A0008D33A00083D3D0008F2
:1054B000253D00082B3D0008693C0008693C0008B8
:1054C000693C0008793C0008893C000809021B007F
:1054D000010102C0320904000000FE010206092198
:1054E0000BFF0000041A01000A0600020000004041
:0454F00001000000B7
:04000005080000ED02
:00000001FF
