:020000040800F2
:10000000C00F002001010008C3170008991600085E
:10001000C1170008890100082D2900080000000010
:10002000000000000000000000000000EB170008C6
:100030008B01000800000000E9170008ED17000818
:100040001B0100081B0100081B0100081B01000820
:100050001B0100081B0100081B0100081B01000810
:100060001B0100081B0100081B0100081B01000800
:100070001B0100081B0100081B0100081B010008F0
:100080001B0100081B0100081B0100081B010008E0
:10009000C52800081B0100081B0100081B010008FF
:1000A0001B0100081B0100081B0100081B010008C0
:1000B0001B0100081B0100081B0100081B010008B0
:1000C0001B0100081B0100081B0100081B010008A0
:1000D0001B0100081B0100081B0100081B01000890
:1000E0001B0100081B0100081B010008DFF80CD0F1
:1000F00000F02AF80048004731290008C00F00200E
:100100000648804706480047FEE7FEE7FEE7FEE7B1
:10011000FEE7FEE7FEE7FEE7FEE7FEE74D18000814
:10012000ED000008D2B201E000F8012B491EFBD21D
:1001300070470022F6E710B513460A4604461946F2
:10014000FFF7F0FF204610BD064C074D06E0E068C3
:1001500040F0010394E8070098471034AC42F6D30E
:10016000FFF7C8FF582A0008782A000800207047C7
:100170000020704700207047002070470020704723
:100180000020704700207047FEE77047704700006E
:100190002DE9FE4F8346B3480C4658444FEAB02C35
:1001A000BCF1050F05D3B048CD21654602F0BFFB79
:1001B000AC4620680021B1EB104F01D180B228B9C4
:1001C000A948CE21654602F0B2FBAC466068122811
:1001D00000F228810121A54A8140114200F02281CC
:1001E000A948AA4D042100264FF0010E0F274FF019
:1001F000000A4FF00009834508BF03210191CDF8A3
:1002000000B0B9F1100F08BFBDE8FE8F20680EFAEC
:1002100009F810EA080F00F00181BCF1050F08D3BE
:100220009148DD21674602F082FBBC460F274FF064
:10023000010E6068032816D911283BD012284AD035
:100240008B49884213D08B49884210D08A49884212
:100250000DD08A4988420AD08949884207D0894905
:10026000884204D076E0DFE800F00247596AA068CF
:10027000E8B1012813D0022814D07B4840F20711BE
:10028000E34602F054FBA06800285BD0DC46DDF8B2
:1002900000B001284FF0010E4FF00F0702D1CBF84C
:1002A000108001E0CBF814804FF0080A52E04FF0C4
:1002B000040A4FE0E068411E032909D36A48EC2193
:1002C000674602F034FBE068BC460F274FF0010E92
:1002D00000F1040A3EE0E068411E032909D36248A8
:1002E000FA21674602F023FBE068BC460F274FF077
:1002F000010E00F10C0A2DE0D4F80CA0AAF10100C7
:10030000032827D35848E521674602F010FBD4F8AC
:100310000CA0BC460F274FF0010E1BE0E068411E09
:10032000032909D35048F321674602F000FBE06837
:10033000BC460F274FF0010E00F1080A0AE04FF00B
:10034000000A07E0DC46DDF800B04FF0040A4FF089
:10035000010E0F2730465A46B9F1080F28BF203842
:1003600028BF0432136807FA00F10AFA00F023EA02
:10037000010108431060E079C0064FD576482A464F
:100380000F23A5F57E720146006840F00100086069
:10039000086800F00100029006F00C00029983400A
:1003A0004FEA990152F8217027EA0303394FBB4500
:1003B00008D0394FBB4507D0384FBB45019F08BF18
:1003C000022702E0002700E0012707FA00F00F27CC
:1003D000184342F821006068C103296854BF21EA2C
:1003E000080141EA080129608103696854BF21EAD4
:1003F000080141EA08016960C102A96854BF21EA05
:10040000080141EA08018002A9602148014600680C
:1004100054BF20EA080040EA08000860043609F1E9
:100420000109EEE6124988423FF4DAAE11498842EA
:100430003FF4D6AE104988423FF4D2AE0F4988420D
:100440003FF4CEAE0E4988423FF4CAAE0D49884211
:100450003FF4C6AE0448CF21654602F068FAAC46C8
:10046000BEE600BF00F8FEBFE32900080F0006004B
:1004700000001110000012100000211000002210D6
:10048000000031100000321000140140000401404F
:100490000C04014000080140000C01400010014024
:1004A00005480068704700BF1B48034900780A6888
:1004B00010440860704700BFB80B002080B50748A3
:1004C000016841F010010160032000F08DF8002068
:1004D00000F006F800F024F8002080BD0020024063
:1004E00070B50D4E04464FF47A713078B1FBF0F0E0
:1004F0000A490968B1FBF0F001F0BAF801250F2CA8
:1005000008D838B94FF0FF3021460022002500F00E
:100510003DF87460284670BD0000002024000020D3
:1005200082B00D480422016841F0010101600168B8
:1005300001F0010101910199416841F08051416050
:10054000406800F08050009000980448016862F311
:100550001A61016002B070471810024004000140A7
:1005600010B50446B0F1FF3F03DC2948CE2102F06C
:10057000DEF904F01F000121034A01FA00F06109CD
:1005800042F8210010BD00BF00E100E070B5144644
:100590000E460546102A03D31D48BA2102F0C7F9BA
:1005A000102E03D31A48BB2102F0C1F919484FF0AD
:1005B000FF320068C0F30220C11E80F0070038BF80
:1005C0000021042828BF042002FA00F026EA0000D7
:1005D000884002FA01F124EA010101432846BDE8FE
:1005E000704001F0EFB800BF10B50446033805288D
:1005F00003D30748A22102F09AF906484FF6FF02FA
:1006000001681140044A64F30A211143016010BDDE
:100610001C2A00080CED00E00000FA0580B501F08E
:100620007F0E00EB411C090600EB4E1000F1280084
:1006300058BF0CF50A702AB10121C3808172190CD0
:10064000018102E0002183808172002080BD70471B
:1006500000EB4112D0F85C04D26B01F054BB00EB0C
:100660004112D0F85C04D2F83C2201F09DBB10B5D9
:1006700001F07F0C0A46044600EB4C13100603F110
:1006800028014FEAD21058BF03F50A71487081F86B
:1006900000C094F82804012804BF022010BD0120E6
:1006A00084F82804206801F060FF002084F8280402
:1006B00010BDB0B5044601F07F030A4600EB4110BF
:1006C00004EB4311150601F128014FF0000558BF56
:1006D00000F50A71D00948700B708D7094F82804E9
:1006E000012801D1022507E0012084F828042068B0
:1006F00001F0D3FF84F828542846B0BD70B501F04E
:100700007F0C06460C4600EB4C10250600F1280134
:1007100058BF00F50A71E0090A61487081F800C00D
:10072000CB7096F82804012804BF022070BD012078
:1007300086F82804306801F00DFE002086F82804B1
:1007400070BD80B501F07F0C4FF0000E00EB4C1136
:1007500001F50F77A7E80C4081F829E281F828C25B
:1007600001F50A71006801F0F3FF002080BDB0B50B
:10077000044601F07F050A4600EB411004EB4511E9
:10078000130601F1280158BF00F50A71D00948701D
:1007900001200D70887094F82824012A04BF0220DB
:1007A000B0BD84F82804206801F0ACFF25B92068AA
:1007B00004F22C4101F06FFF002084F82804B0BD42
:1007C00080B501F07F0C00EB4C1101F828CF4FF001
:1007D000000C01F1140E8EE80C1001224A70006822
:1007E00001F0B6FF002080BD2DE9FE4F04460068F1
:1007F00002F06EF8000401D42068ACE1002048F655
:100800000F75ADF80A00ADF8080004F22C40019015
:1008100098E1BDF80A1011F00F0832D030F8281016
:100820004FEA4809ADF80810BDF90810B1F1FF3FD3
:1008300000F3098130F8191040F68F7204EB481A62
:100840000AF50A7B114020F819109AF83212002993
:1008500000F0AC809BF8001030F82120B0F8503048
:1008600003EBC101520400EB410100F1B680D1F865
:100870000C646FF39F26002E00F0BC80BAF8302283
:10088000B2E0BDF80A200188D2062AD429400180AE
:10089000B0F8501094F8282001EBC20100EB4100A1
:1008A000D0F804046FF39F206064E16B08440021DA
:1008B000E0632046FFF7CCFE94F82400002800F007
:1008C0004181206C002840F03D81206894F824107C
:1008D00041F08001C9B2A0F84C10002084F8240037
:1008E00030E1ADF80810BDF80810090541D4BDF994
:1008F0000810B1F1FF3F00F32581018840F68F72A7
:1009000011400180B0F8501094F8282201EBC20188
:1009100000EB4101D1F80C346FF39F23002BC4F896
:1009200044320CD0B4F82C22D4F83C1201F0D3FF9E
:10093000D4F83C02D4F844120844C4F83C022046DF
:100940000021FFF78CFE2068B0F85010D4F8383240
:1009500000F20C423F2BC0F0E3805F0140F2FF3613
:10096000DB0627EA060708BF07F5F84747F4004308
:10097000DBE0B0F8501094F8282201EBC20100EB44
:100980004101D1F80C3401996FF39F23C4F844322C
:10099000B4F82C2201F09FFF206840F68F72018886
:1009A00011400180204600F035FACBE0B0F850103D
:1009B0009BF8002001EBC20100EB4101D1F80C646F
:1009C0006FF39F26002E00F0A980BAF82C22DAF8E7
:1009D0003C12334601F07FFF1AE0D1F804646FF354
:1009E0009F263EB1BAF82E22DAF83C12334601F0C7
:1009F00072FF00E000269BF80000216840F60F73AC
:100A000031F820201A4048F2C0031A4321F8202070
:100A1000DAE98F03DAF8441231448219002BCAF85C
:100A20004412CAF83C2203D0DAF83802B04205D9A1
:100A30009BF800102046FFF712FE04E09BF8001020
:100A40002046FFF77EFEBDF8080000067AD5206834
:100A500004EB481606F1280730F81910294020F851
:100A6000191096F8321099B1397830F82120B0F881
:100A7000503003EBC101520600EB41011DD4D1F807
:100A80000C346FF39F23002B736421D0328E1CE053
:100A9000B0F85020397802EBC10200EB4202D2F8E4
:100AA00004346FF39F23002B73641FD0B28DF16B5E
:100AB00001F02AFF3978206818E0D1F804346FF388
:100AC0009F23002B736403D0F28DF16B01F01CFFA8
:100AD0003978206840F60F7330F821201A4048F228
:100AE000C00303F57F531A4320F82120B0F85020AB
:100AF00002EBC10200EB4200D0F804046FF39F2028
:100B00007064D6E90F2302442046002BF26302D022
:100B1000FFF756FE16E0FFF79BFD13E0002677E790
:100B200003F0010707EB53039B029BB242F811301D
:100B300043F60F720188114048F2C00202F53F529D
:100B4000514001802068B0F94410B1F1FF3FADF889
:100B50000A107FF75EAE01F0BBFE40050DD52068A0
:100B6000B0F8441021F48061A0F84410204600F051
:100B700023F92046002100F039F9206801F0A8FE91
:100B800001462068490442BFB0F8441021F4804176
:100B9000A0F8441001F09CFE01462068890442BF81
:100BA000B0F8441021F40051A0F8441001F090FE78
:100BB00001462068C90415D5B0F8401021F00401A1
:100BC000A0F84010B0F8401021F00801A0F8401043
:100BD000204600F003F92068B0F8441021F4805159
:100BE000A0F8441001F074FE000519D52068B0F893
:100BF000401041F00801A0F84010B0F8441021F472
:100C00000061A0F84410B0F8401041F00401A0F8D1
:100C1000401001F05DFEC00402D4204600F01AF935
:100C2000206801F055FE800509D52068B0F8441011
:100C300021F40071A0F84410204600F0D3F8206899
:100C400001F046FEC00558BFBDE8FE8F2068B0F831
:100C5000441021F48071A0F84410BDE8FE8F00001C
:100C6000F0B585B0002866D0044600683449884253
:100C700003D034A09F2101F05AFE94F8290428B92A
:100C8000002084F82804204600F078F8032084F837
:100C90002904206801F0F6FC94E82F50D4E9076796
:100CA0008DE82050CDE9036701F05DFC206800214C
:100CB000002501F021FE0120002100220CE0631834
:100CC00020319A8683F8282083F82900C3E90E553D
:100CD0001D6483F82B500132B1F5F07FEFD1002075
:100CE000002100220DE06318203183F8282283F8C8
:100CF0002902C3E98E00C3F8400283F82B029A86CA
:100D00000132B1F5F07FEED194E88F00D4E90565AA
:100D1000D4E907CECDE9007602AE86E8205001F096
:100D20009FFC0025012084F8245084F829042068C1
:100D300001F094FC00E00125284605B0F0BD00BF9D
:100D4000005C00402E2E2F447269766572732F531B
:100D5000544D3332463178785F48414C5F44726974
:100D60007665722F5372632F73746D3332663178E8
:100D7000785F68616C5F7063642E630000680C4983
:100D8000884218BF7047E0B50A480022016841F464
:100D9000000101600021006800F40000019001984A
:100DA0001420FFF7F3FB1420BDE88C40FFF7D8BBFD
:100DB000005C00401C10024010B504468068022808
:100DC00018BFFFF7E3F9D4F85C04012101F09EF8A5
:100DD000D4F85C04BDE8104001F065B8D0F85C04BC
:100DE00001F080B8D0F85C0401F082B810B5044678
:100DF00090F82804012804BF022010BD012084F8C7
:100E0000241084F82804206801F078FD002084F87C
:100E1000280410BDD0F85C2400F22C41104601F0EB
:100E200081B810B5044690F82804012804BF0220B8
:100E300010BD0120012184F828042046FFF707FC9B
:100E4000206801F009FC206801F034FD002084F8DE
:100E5000280410BD10B50446D0F85C0401F09FF8DA
:100E6000A06920B10248016841F00601016010BD8F
:100E700010ED00E02DE9FC410446006810F0130F6E
:100E800004D149487C2101F052FD2068F24EC00790
:100E90005FD060684FEA3020042803D342488221A3
:100EA00001F045FDB069C0000BD4B0694FF00108F6
:100EB00040F08050B061B06900F08050019001981E
:100EC00001E04FF00008394F3868C00510D4386889
:100ED00040F480703860FFF7E3FA05463868C005D3
:100EE00006D4FFF7DDFA401B6428F7D9032057E04A
:100EF000F06910F440701ED0616801F440718842BE
:100F000019D02B49F06901220A6000220A6020F4FE
:100F10004071C007F1610ED0FFF7C2FA054641F2F9
:100F20008837F069800706D4FFF7BAFA411B03201F
:100F3000B942F6D934E0F0696168B8F1000F20F4E5
:100F4000407040EA0100F0611EBFB06920F080509F
:100F5000B061206881070FD5A1684FEAB132042A39
:100F600005D31148C92101F0E2FC2068A16832686C
:100F700022F4404211433160C00610D5E06840F4CD
:100F80008001B1F5800F05D0074840F2251101F02E
:100F9000CEFCE068316821F4800108433060002015
:100FA00002B0BDE8F08100BFA82900080070004031
:100FB000400442422DE9F8430D46044620B99448C6
:100FC00040F22E3101F0B3FC2078000704D19048A4
:100FD00040F22F3101F0ABFC032D04D38C484FF4C9
:100FE0004C7101F0A4FC8B4B186800F00700A8427C
:100FF0000AD2186820F0070028431860186800F02B
:101000000700A84240F098802068810792498846EE
:1010100001D4994628E0410706D5D8F80010424689
:1010200041F4E061C8F80010010706D5D8F80010B7
:10103000424641F46051C8F80010A16899464FEA51
:1010400031120F2A00F2CC80012303FA02F24FF68C
:1010500001731A4200F0C480D8F80020434622F001
:10106000F0021143C8F80010C00752D1D9F80000AF
:1010700000F00700A8420CD9D9F8000020F00700C2
:101080002843C9F80000D9F8000000F00700A84282
:1010900052D12068410714D5E1684FEA3122072A6E
:1010A00000F2A680012303FA02F212F0F10F00F021
:1010B0009F80D8F80020434622F4E0621143C8F82C
:1010C0000010000715D520694FEA3021072900F2EA
:1010D0009780012202FA01F111F0F10F00F09080E7
:1010E000D8F80010424621F4605141EAC000C8F827
:1010F000000000F095F8D8F80010474A0026C1F328
:101100000311515CC840454908600020FFF7E8F929
:1011100013E0606850B101281BD0022811D140466D
:1011200058F8040C800107D5022618E04046002636
:1011300058F8040C800712D40126304601B0BDE8EF
:10114000F083334840F25D3101F0F1FB6668012E17
:1011500040D14046012658F8040C8003EDD5D8F85C
:10116000000020F003003043C8F80000FFF798F9B2
:101170000646606841F2883701280FD002281BD14B
:101180004046D8F8000000F00C0008283FF46EAF8D
:10119000FFF786F9801BB842F2D919E04046D8F82B
:1011A000000000F00C0004283FF460AFFFF778F96E
:1011B000801BB842F2D90BE04046D8F8000010F08E
:1011C0000C0F3FF453AFFFF76BF9801BB842F3D914
:1011D0000326B2E74046022E58F8040CA2D0A9E735
:1011E0000B4840F2563101F0A2FB2068A16833E7BA
:1011F000074840F2B13101F09AFB2068E16858E7F6
:1012000003484FF46E7101F092FB206968E700BF5C
:1012100070290008002002406029000824000020F6
:1012200010B50D4C0D48226802F00C03082B18BFB6
:1012300010BDC2F383430AA1CB5CD10302D40D4895
:10124000584310BD21680AA25843C1F34041515C84
:10125000B0FBF1F010BD00BF0410024000127A0094
:1012600002030405060708090A0B0C0D0E0F1010E7
:101270000102000000093D002DE9FC41044628B9A7
:10128000DFF8DC034FF4B87101F051FB206848B17E
:1012900010F00F0106D1DFF8C80340F2711101F020
:1012A00046FB2068CC4EC00757D0606858B1B0F5F7
:1012B000803F08D0B0F5A02F05D0DFF8A40340F29E
:1012C000771101F034FB706800F00C00042817D08F
:1012D000706800F00C00082802D17068C0030FD4B9
:1012E000606898B1B0F5803F06D03168B0F5A02FA6
:1012F00020D141F480203060306840F480301FE01D
:101300003068800329D5606838BB3BE1306820F441
:1013100080303060306820F480203060FFF7C0F803
:1013200005463068800318D5FFF7BAF8401B6428DB
:10133000F7D90BE121F480303060306820F4802050
:101340003060FFF7ADF805463068800305D4FFF73D
:10135000A7F8401B6428F7D9F8E0207880073CD52F
:101360002069022804D3BE4840F2AB1101F0DFFA35
:101370006069202804D3BA484FF4D67101F0D7FA37
:10138000706810F00C0F07D0706800F00C0008288F
:1013900009D17068C00306D43068800716D520696B
:1013A000012813D0EEE02069002800F09580AD48B8
:1013B00001210160FFF774F805463068800705D405
:1013C000FFF76EF8401B0228F7D9BFE0306861696B
:1013D00020F0F80040EAC10030602078000736D5E0
:1013E000A069A04DB8B1012806D09D484FF4F67110
:1013F00001F09DFAA06970B10120C5F88004FFF7E3
:101400004FF80546706A800714D4FFF749F8401B6F
:101410000228F7D99AE00020C5F88004FFF740F8C9
:101420000546706A800712D5FFF73AF8401B02287C
:10143000F7D98BE08C484FF4FA510068B0FBF1F01B
:10144000019000BF0198411E00280191F9D1207838
:10145000400740F18480E068052805D8012101FAA1
:1014600000F010F0230F04D17D4840F21B2101F061
:101470005EFAF069C0000BD4F0694FF0010840F04B
:101480008050F061F06900F080500090009801E019
:101490004FF00008754F3868C0050FD4386840F425
:1014A00080703860FEF7FCFF05463868C00505D43B
:1014B000FEF7F6FF401B6428F7D947E0E068D8B193
:1014C000012805D0316A05282CD141F00400306292
:1014D000306A40F001002BE0624800210160FEF715
:1014E000DFFF0546306880077FF577AFFEF7D8FF4E
:1014F000401B0228F6D929E0306A20F00100306252
:10150000306A20F004003062FEF7CAFF054641F25F
:101510008837306A80071BD5FEF7C2FF401BB842F0
:10152000F7D913E021F001003062306A20F00400A6
:101530003062FEF7B5FF054641F28837306A800712
:1015400006D4FEF7ADFF401BB842F7D9032084E074
:10155000B8F1000F1EBFF06920F08050F061E06923
:10156000411E022909D3002876D03D4840F2B92116
:1015700001F0DDF9E06900286ED0716801F00C011E
:10158000082901D1012068E0364F022826D1206ABF
:1015900040F48030B0F5803F04D0314840F2C221A1
:1015A00001F0C5F9606A4FEAB0400F2804D32C4817
:1015B00040F2C32101F0BBF900203866FEF770FF4E
:1015C00005463068800118D5FEF76AFF411B0320ED
:1015D0000229F6D941E000BF001002400020386621
:1015E000FEF75EFF04463068800135D5FEF758FFF0
:1015F000011B03200329F6D32FE0206AB0F5803FBA
:1016000014D1A16841F40030B0F5003F02D14FF48D
:10161000803006E0124840F2D92101F088F9A16833
:10162000206A726822F4003211437160716821F4FB
:1016300074110843616A0843706001203866FEF740
:101640002FFF04463068800106D4FEF729FF011BF6
:1016500003200229F6D900E0002002B0BDE8F081A5
:101660007029000800004242240000200070004061
:10167000411E0020B0EB116F1CBF01207047044ACF
:10168000F023516003490B7007219060116070478F
:1016900010E000E023ED00E0FEE7B0B552004FF0AF
:1016A000000C4FF0370E00239A4208BFB0BD0EEB7E
:1016B0001074050FB0F1204F4FEA001038BF05F14C
:1016C0003004CC5443F00104023301F804C0EBE7CA
:1016D000F0B585B00020234C032601AD224FCDE9A3
:1016E00003001F48016841F010010160016801F02A
:1016F000100100910099016841F02001016001682A
:1017000001F0200100910099016841F0040101609D
:10171000016801F0040100910099016841F008019D
:1017200001602946006800F00800009000980296C9
:101730004FF46040019004F50060B8474EF2FF702E
:101740000296294601902046B8474FF6FF70029650
:101750002946019004F58060B84705B0F0BD00BF90
:1017600018100240000801409101000880B510489F
:101770001049002200F0A0FA08B1FEF707FD0C485E
:101780000D4900F029FC08B1FEF700FD08480B499F
:1017900000F029F908B1FEF7F9FC054800F030FC2B
:1017A000002814BFBDE8804080BDFEF7EFBC00BF3D
:1017B000340500200800002028000020DC00002064
:1017C000FEE7704710B5064A00F00F030028054CED
:1017D00002444FEA0110B8BF1A19107010BD00BFC3
:1017E00000E400E014ED00E070477047FEF75CBED7
:1017F000B0B594B000244FF4E01002250121CDE9EA
:101800000F44CDE90D44CDE9024413904FF48030EC
:10181000129011950E910C94CDE90A100AA8FFF7C9
:101820002BFD4FF480600994022108900F20CDE930
:101830000654059005A8FFF7BDFB10200494019005
:1018400001A8FFF717FB14B0B0BD00000E480F4A07
:10185000016841F001010160416811400C4A41609A
:10186000016811400160016821F480210160416834
:1018700021F4FE0141604FF41F01816005484FF0E3
:1018800000610160704700BF001002400000FFF8D7
:10189000FFFFF6FE08ED00E00020704701292ED181
:1018A000F8B5D0F81852044643F204702E18B088E8
:1018B000B030B08080B2B0F55C5F0DD10027B7804A
:1018C0003078032808D1D4F81C024FF4DC510122EF
:1018D0008368281D984737707178B08831B9B0F5A2
:1018E000DC5F02BF012070704FF4DC5028440121FE
:1018F000B023021D204600F0CDFABDE8F8400020DC
:101900007047B0B50121044600F0F4F9D4F818028C
:1019100058B1D4F81C020025416800208847D4F84B
:10192000180200F011FDC4F818520020B0BDB0B587
:10193000D0F8184243F20A71625C012A12D143F2D4
:101940004C72A25C022A0DD1651843F20B71D0F8DB
:101950001C02615C026908469047002043F24B710B
:10196000287060540020B0BD002070476D210180B8
:101970004F4870470A21018000487047D00000207E
:10198000B0B501210122B023044600F077FA43F2FA
:10199000507000F0DBFC0028C4F8180215D0054692
:1019A00043F2097000210322295443F205702950A3
:1019B00043F204702A54296046210022D4F81C0204
:1019C00003684AF64440984708B10220B0BD2A1D7A
:1019D00020460121B02300F05DFA0020B0BD0020B8
:1019E00070470020704709B1C0F81C1200207047F2
:1019F0000020704770B50546D0F8186208780C468C
:101A000010F0600011D020284AD16078012828D039
:101A1000812820D143F20B70402106443046FEF766
:101A200088FBE2882846314638E060780B282DD0C4
:101A30000A2830D006280ED1E0784FF40451B1EBDB
:101A4000002F2DD1E2881A48092A00F1120128BF7F
:101A50000922284622E02846214600F042F80220CA
:101A600070BDE288E2B143F20B703118284600F0F5
:101A700043F843F20A700121315443F24B71A079CB
:101A8000705443F24C716079705409E0A0780128D9
:101A900008D8306004E028463146012200F044F8BE
:101AA000002070BD2846214600F01BF8F8E700BF73
:101AB0006000002080B5D0F81422526890470020C2
:101AC00080BD80B513460A46002100F0E3F90020EE
:101AD00080BD80B513460A46002100F069FA002057
:101AE00080BD10B58021044600F047FA2046002151
:101AF000BDE8104000F041BA80B513460A46032104
:101B0000C0E94233C0F8F411002100F0C3F900200D
:101B100080BD80B5052100220023C0F8F41100210A
:101B200000F0B8F9002080BD80B513460A460221B6
:101B3000C0E90633C0F8F411002100F039FA0020A2
:101B400080BD80B5042100220023C0F8F4110021DB
:101B500000F02EFA002080BD10B52B4C0A4603A0E1
:101B6000214600F06FF8204610BD00BF41554449A2
:101B70004F20436F6E6669670000000012200880E6
:101B800000487047F800002010B51F4C0A4603A01B
:101B9000214600F057F8204610BD00BF415544498A
:101BA0004F20496E74657266616365000420088089
:101BB000004870470C01002010B5134C0A4603A0E2
:101BC000214600F03FF8204610BD00BF53544D6938
:101BD00063726F656C656374726F6E696373000026
:101BE00010B5094C0A4603A0214600F02BF8204608
:101BF00010BD00BF53544D333220417564696F20CE
:101C0000436C617373000000340100201A200880C7
:101C10000A4908688A6880180ED0B0B5084D4C682B
:101C20000822A91CFFF739FD05F112012046042204
:101C3000FFF733FDBDE8B04001487047E8F7FF1FEC
:101C40001001002080B550B34FF0000C864603E031
:101C50000EF1010E0CF1010C9EF80030002BF7D1B3
:101C60005FFA8CFC4FF0020E0EEB4C0CA2F800C099
:101C700081F800C04FF0030C01220BE05FFA8EF3F5
:101C800001304FF0000CCA544EF001020EF1020375
:101C9000D2B29E4601F802C00278002AEED180BD81
:101CA00003288FBF0220C000024921FA00F098BF2C
:101CB000C0B270470002010288B1D0F8143213B1EB
:101CC0000023C0F8143209B1C0F8101280B5012108
:101CD000027080F8FC1100F099F8002080BD02200D
:101CE000704780B5D0F82002FEF7E3FCBDE88040E5
:101CF000FFF7D6BF80B5D0F82002FEF7B8FCBDE8EC
:101D00008040FFF7CDBFB0B5044659B1D4F81402F6
:101D10004269002A46D094F8FC01032842D12046AB
:101D200090473FE0D4F8F401022834D1D4E90710F9
:101D3000814208D9081A114683B2E06120461A464A
:101D4000FFF7C7FE13E0A169814217D3B1FBF0F2A0
:101D500002FB101090B9D4F8F80181420ED220464F
:101D6000002100220025FFF7B4FEC4F8F8512046F8
:101D700000210022002300F08DF80CE0D4F81402BA
:101D8000C16829B194F8FC01032801D12046884795
:101D90002046FFF7BEFE94F80002012804BF002091
:101DA00084F800020020B0BD10B5044651B1D4F84B
:101DB0001402826942B394F8FC01032824D120461E
:101DC000904721E0D4F8F40103281DD1D4E9431051
:101DD00081420CD9091AC4F80C11814238BF084657
:101DE00083B2114620461A46FFF76BFE0CE0D4F88A
:101DF0001402016929B194F8FC01032801D120469D
:101E000088472046FFF79DFE002010BD10B5044610
:101E100011480021114B0822C0F85C44C4F820028C
:101E2000C0E9061101620221C0E900328160FEF7BB
:101E300017FF08B1FEF7AAF9D4F82002002100220A
:101E40001823FEF7EBFBD4F8200280210022582350
:101E5000FEF7E4FB002010BD58070020005C0040A6
:101E6000D0F8200201F07F02090600EB421000F1D9
:101E70002A0258BF00F22A221078704780B5944693
:101E8000D0F820021A466346FEF738FCBDE88040D1
:101E9000FFF706BF80B5D0F82002FEF752FCBDE880
:101EA0008040FFF7FDBEB0B500210022402304466C
:101EB0004025FFF7E3FF2046802100224023C4F89D
:101EC0001051FFF7DBFF012084F8FC012562D4F8F4
:101ED000180228B1D4F814022179426820469047AC
:101EE0000020B0BD90F8FD1180F8FC110020704773
:101EF00090F8FC11032907D1D0F81412C96919B15F
:101F000080B58847BDE880400020704701740020FC
:101F1000704780B5D0F82002FEF768FFBDE880402A
:101F2000FFF7BEBEB0B500F502750446284600F0C6
:101F300048F8B4F80E120120C4E97D0194F80802B3
:101F400000F01F01022907D001290AD071B92046EB
:101F5000294600F05BF80EE02046294600F06EF9B5
:101F600009E02046294600F0D2F904E000F08001A3
:101F7000204600F002F80020B0BD80B5D0F8200265
:101F8000FEF7F5FBBDE88040FFF78ABE80B5D0F8CC
:101F90002002FEF746FFBDE88040FFF781BE90F8C3
:101FA000FC1180F8FD11042180F8FC11002070471D
:101FB00080B5D0F82002FEF703FCBDE88040FFF7B3
:101FC0006FBE0A7802704A7842704A8842808A88D6
:101FD0008280C988C180704700290EBF0220C0F8E6
:101FE000141200207047D0F814223AB180B512685C
:101FF0009047002818BF0120400080BD0220704794
:1020000080B5FFF7C3FF002080BD0000BCB50446CB
:102010004878092800F2CF800D46DFE800F0051867
:10202000CC25CC5A7ACC364694F8FC0100F0FE0060
:10203000022840F0C080D4F8040203222146002880
:1020400008BF012241F80C2F20460222D8E094F864
:10205000FC0100F0FE00022840F0AD8068880128F5
:1020600040F0AC80002004E06888012840F0A680A1
:102070000120C4F804022946D4F8140282682046DC
:1020800090472046FFF75DFD98E0E888012840F082
:10209000928094F8FC01032851D0022840F08B80F4
:1020A0000020214641F8080F4AE06888624DC1B21D
:1020B0002870022980F07F8094F8FC01032842D028
:1020C000022840F078800029DBD0032084F8FC014E
:1020D00044E0A888002840F06E80E888002840F09E
:1020E0006A8094F8FC01032800F06580A87800F06D
:1020F0007F052046294684F8FE51FFF70AFF204657
:10210000FFF71FFD002D0CBF0120022084F8FC0109
:1021100054E068884FF0FF3101EB102106294AD8BE
:10212000DFE801F004312449493E4700D4F8101299
:10213000207C0A680DF106019047014653E0211DFD
:10214000204601225CE000293BD0606888423FF4D1
:1021500098AFC1B22046FFF7ADFC297820466160F8
:10216000FFF741FF02287FF48CAF24E0C0B20528BE
:1021700021D8DFE800F003484D52575CD4F8101224
:10218000207C4A68D6E7217CD4F8140200290CBFD1
:10219000816AC16A0DF1060088470146022021E0EC
:1021A000207C40B9D4F81402416B0DF10600884739
:1021B000C3E7207C70B12046FFF793FC002002B0FB
:1021C000B0BD00206060022084F8FC012046FFF7CB
:1021D00071FC56E7D4F81402016B0DF10600884734
:1021E000014607204870BDF806000028E6D0EA88BE
:1021F000002AE3D0904238BF0246ADF806202046C0
:10220000FFF792FCDAE7D4F81012207C8A6891E795
:10221000D4F81012207CCA688CE7D4F81012207C05
:102220000A6987E7D4F81012207C4A6982E7D4F85B
:102230001012207C8A697DE730010020B0B5044689
:1022400008780D4600F06000202807D1D4F8140269
:1022500029468268204690470020B0BD68782979D9
:1022600088B1012818D00328F6D194F8FC0103287E
:1022700016D1688850BB41F08000802826D02046C7
:10228000FFF77BFE22E094F8FC01032828D0022807
:1022900010D148060AD1DFE794F8FC0103280DD0DD
:1022A000022807D141F080008028D5D02046FFF7D2
:1022B00064FED1E72046FFF714FCCDE768880028CC
:1022C000CAD1480608D02046FFF70BFDD4F8140207
:1022D00029468268204690472046FFF732FCBBE73C
:1022E00001F07F000A0604EB001000F1140558BF4E
:1022F00000F582752046FFF7B3FD002818BF0120C6
:102300002860294602222046FFF70EFCA4E7B0B55C
:10231000044690F8FC01032804D188880D4610F08B
:10232000FE0F04D02046FFF7DCFB0020B0BDD4F840
:1023300014022946826820469047E8880028F4D194
:102340002046FFF7FEFBF0E77047000000487047AB
:102350003403002070B5CA78032A0CD8DFE802F0F5
:10236000020D161D0D7848F68F1430F825202240F6
:1023700002F5007219E00D7819E00D7848F68F1417
:1023800030F82520224002F580620EE00D7848F6F4
:102390008F1430F82520224007E00D7848F68F147E
:1023A00030F82520224002F5C06220F825206A007E
:1023B00040F60F7348F2800C30F8124023402B4354
:1023C00043EA0C0320F8123000EB42028B7A002B18
:1023D00048D0138840F60F6633400CF580763343BF
:1023E0001380CB88B0F8506006EBC50623F00103DC
:1023F00000EB4606C6F800340B89B0F8506006EBD7
:10240000C50623F0010300EB4600C0F80834497804
:10241000108800F48040002944D038B1108840F67C
:102420000F7108400CF58041084310801088400669
:1024300007D5108840F60F7108400CF140010843A1
:102440001080108840F60F7108400CF58041084359
:1024500040F63F7110801088084043F60F7140EA43
:102460000C0044E04B788C88B0F8506006EBC50651
:1024700024F0010E002B40D000EB4600C0F800E431
:102480001088400607D5108840F60F7108400CF1FF
:10249000400108431080108840F63F7108400CF15D
:1024A00020015CE038B1108840F60F7108400CF54F
:1024B0008041084310801088400607D5108840F6F8
:1024C0000F7108400CF1400108431080108840F65D
:1024D0000F7108400CF14001084343F60F71108062
:1024E000108808400CF54051484040F63F7110807C
:1024F0001088084040EA0C0032E000EB4604EB0094
:10250000C4F808E4B0F85060096900F20C403344A4
:102510003F290BD34E0140F2FF35C90626EA0506D6
:1025200008BF06F5F84646F4004104E001F0010654
:1025300006EB5101890289B240F81310108840045B
:1025400007D5108840F60F7108400CF5804108430C
:102550001080108843F60F7108400CF54051484038
:102560001080002070BD0020704780B50A784B783D
:10257000897A48F2800C30F822E000EB820041B307
:102580000EF480428BB33AB1018840F60F721140CD
:102590000CF58042114301800188490607D5018866
:1025A00040F60F7211400CF1400211430180018886
:1025B00040F60F7211400CF58042114340F63F7215
:1025C00001800188114041EA0C01018043F60F723D
:1025D00030E0B3B35FEA4E612AD5018840F60F724E
:1025E00011400CF14002114321E03AB1018840F65C
:1025F0000F7211400CF58042114301800188490699
:1026000007D5018840F60F7211400CF140021143CA
:102610000180018840F60F7211400CF14002114315
:1026200043F60F7201800188114041EA0C010180DC
:1026300040F63F720188114041EA0C010180002000
:1026400080BD5FEA4E41C1D5018840F60F7211404E
:102650000CF580421143B8E7002070470020704716
:102660000121A0F840100021A0F84010A0F844106B
:10267000A0F85010B0F8401041F43F41A0F84010CD
:1026800000207047B0F8401044F2FF221140A0F83B
:102690004010002070470020704780B50B784978C3
:1026A00030F823205B0091B1510648F2B00E0BD5F3
:1026B00030F813C040F60F710CEA010C0EF1100156
:1026C00041EA0C0120F8131040F63F7111E051046B
:1026D0004BF2800E0BD530F813C040F60F710CEAA8
:1026E000010C0EF5805141EA0C0120F8131043F65D
:1026F0000F7130F81320114081EA0E0120F81310F9
:10270000002080BD0A786AB1497830F82230520042
:1027100049F2800C81B140F63F711940ACF57F63FE
:1027200059400EE0018843F63F731940074B1033C0
:10273000594020F8221006E043F60F71194081EA53
:102740000C0120F812100020704700BF8090FFFF9E
:1027500070B5044608698E690D460146864288BFF9
:102760003146A1EB0001A96188BF06466878A97AC5
:10277000012827D151B32878B3B234F82010B4F827
:10278000502002EBC00004EB4000C0F8046448068F
:102790004FF0080058BF06202A5A6969204600F009
:1027A000B3F8687848F2B001002841D001284BD135
:1027B000287840F60F7334F820201A403C4B03F57C
:1027C00080533DE0B1B1D8B1287864E0AA88696946
:1027D000B3B2204600F098F8B4F85010287840F6CC
:1027E0003F7201EBC00104EB4101C1F8046448F2FF
:1027F000B00154E0B4F85010287801EBC00132E089
:10280000B4F85010287804F204433F2E01EBC00EB8
:102810004FEAC0021CD34FEA461C40F2FF35F106D6
:102820002CEA050508BF05F5F84545F4004114E01C
:10283000287840F60F7334F820201A4001F1100375
:102840001A4324F8202000E0287840F63F7226E062
:1028500006F0010101EB560189028DB243F81E50CA
:10286000B4F85010114404F20C423F2E0BD3730104
:1028700040F2FF35F60623EA050308BF03F5F843E7
:1028800043F4004304E006F0010303EB56039B020C
:102890009BB242F8113043F60F724BF2800134F8CC
:1028A00020301A40514024F82010002070BD00BF95
:1028B00080B0FFFFB0F8401041F43F41A0F8401055
:1028C000002070470148FDF78FBF00BF5807002068
:1028D000B0F84400704700EB420003F1010C002304
:1028E000A3EB5C0300F5806003E004C8013321F82A
:1028F000022B002BF9D170470020704711B98021BD
:10290000A0F84C100020704700EB420003F1010CCE
:102910000023A3EB5C0300F5806004E031F8022B98
:10292000013320F8042B002BF8D17047FEE77047E5
:10293000FDF7C4FDFEF75CFFFEF7CAFEFEF716FFCB
:10294000FEE702E008C8121F08C1002AFAD170474A
:102950007047002001E001C1121F002AFBD170471F
:10296000000000000000000001020304060708093F
:102970002E2E2F447269766572732F53544D333265
:10298000463178785F48414C5F4472697665722FB2
:102990005372632F73746D3332663178785F686178
:1029A0006C5F7263632E63002E2E2F44726976650E
:1029B00072732F53544D3332463178785F48414C0F
:1029C0005F4472697665722F5372632F73746D332F
:1029D00032663178785F68616C5F7263635F6578D7
:1029E0002E63002E2E2F447269766572732F535416
:1029F0004D3332463178785F48414C5F4472697696
:102A000065722F5372632F73746D33326631787829
:102A10005F68616C5F6770696F2E63002E2E2F44B4
:102A20007269766572732F53544D3332463178781C
:102A30005F48414C5F4472697665722F5372632F11
:102A400073746D3332663178785F68616C5F636F81
:102A5000727465782E630000782A00080000002058
:102A60003001000042290008A82B00083001002096
:102A7000900E000052290008010000001000000024
:102A80007D1B0008AD1B0008B91B0008E11B0008F6
:102A90000D1C0008591B0008891B000800A24A04ED
:102AA0008119000803190008F519000869190008C0
:102AB0002F190008991800089D180008F11900083E
:102AC000DF190008E31900086D1900086D190008E6
:102AD0006D1900087519000809026D00020100C097
:102AE000320904000000010100000924010001274F
:102AF0000001010C24020101010001000000000995
:102B0000240602010101000009240303010300025D
:102B10000009040100000102000009040101010193
:102B2000020000072401010101000B24020302023C
:102B3000100144AC0009050101B0000100000725A7
:102B400001000000000000000A0600020000004032
:102B50000100000079010008710100086D01000802
:102B6000850100087D010008810100087501000849
:102B700012010002000000408304405700020102DD
:102B800003010000040309041A0300000000000010
:102B90000000000000000000000000000000000035
:082BA00000000000000000002D
:04000005080000ED02
:00000001FF
