:020000040800F2
:10000000A84100209D010008EF230008D522000828
:10001000ED2300085F0B0008D92F00080000000046
:10002000000000000000000000000000092D000892
:10003000610B000800000000F12300080B2D0008F0
:10004000B7010008B7010008B7010008B7010008B0
:10005000B7010008B7010008B7010008B7010008A0
:10006000B7010008B7010008B7010008B701000890
:10007000B7010008B7010008B7010008B701000880
:10008000B7010008B7010008B7010008B701000870
:10009000B7010008B7010008B7010008B701000860
:1000A000B7010008B7010008B7010008B701000850
:1000B000B7010008B7010008B7010008B701000840
:1000C000B7010008B7010008B7010008B701000830
:1000D000B7010008B7010008B7010008B701000820
:1000E000B7010008B7010008B7010008B701000810
:1000F000B7010008B7010008B7010008B701000800
:10010000B7010008B7010008B7010008B7010008EF
:10011000B7010008B7010008B7010008B7010008DF
:10012000B7010008B7010008B7010008B7010008CF
:10013000B7010008B7010008B7010008B7010008BF
:10014000B7010008B7010008B7010008B7010008AF
:10015000B7010008B7010008B7010008B70100089F
:10016000B7010008B7010008B7010008B70100088F
:10017000B7010008B7010008B7010008000000003F
:10018000B7010008B7010008DFF80CD000F08CFCC4
:100190000048004719300008A84100200648804761
:1001A00006480047FEE7FEE7FEE7FEE7FEE7FEE75C
:1001B000FEE7FEE7FEE7FEE79D2D00088901000847
:1001C0002DE9F05F0546002092469B46884606468C
:1001D000814640241BE0284641464746224600F01F
:1001E00087FA53465A46C01A914110D31146184611
:1001F000224600F06EFA2D1A67EB01084F462246A0
:100200000120002100F065FA17EB00094E41201E85
:10021000A4F10104DFDC484631462A464346BDE8E6
:10022000F09FD2B201E000F8012B491EFBD27047CB
:100230000022F6E710B513460A4604461946FFF7B2
:10024000F0FF204610BD00002DE9FF4F087883B075
:100250009946FF2805D0491C2D2804D000240020F1
:1002600008E000200BE00124F9E700EB800003EB3D
:100270004000491C0B78FF2BF7D104B1404200230A
:100280000293147819461D462D2C01D02B2C04D135
:10029000521C2D2C13D000240294AA461478FF2C53
:1002A0000FD00A25A3FB057801FB05814FF0000C58
:1002B00003FB0C11521CE3194AEB0101EEE7012488
:1002C000EAE7814453EA010002D019F5C87F06DA53
:1002D00003980021C0E9001107B0BDE8F08F0025A8
:1002E000AE4E2F46DFF8B882184600F084FBCDE909
:1002F0000001B9F1000002DAC9F1000400E004468F
:100300000023A74A1AEB030B42EB045A12E0E00762
:1003100007D02A4633463846414600F045F907469D
:1003200088462A4633461046194600F03DF90546F0
:100330000E466410002CEAD1DDE90001B9F1000F8E
:100340005A46534606DA00F0E7FA3A46434600F0CA
:10035000E3FA05E000F028F93A46434600F024F9B4
:10036000029A0AB181F00041039AC2E90001B3E7A1
:100370002DE9FF4F1F468DB0D7E901464FF0FF38FA
:100380002E2045464FF000090B90B9696D1C0E9860
:100390008847396A824688470028F6D1BAF1FF3F7C
:1003A0000AD024F4D064002E11DDBAF12B0F08D04E
:1003B000BAF12D0F0BD102E0404611B08DE744F4A5
:1003C0008064B9696D1C0E9888478246761E69461E
:1003D000600501D52D2000E02B208DF8000001F1F3
:1003E000010B0DF1200809E0B9696D1C0E988847D2
:1003F00082460F9844F40074761E0560002E02DDDC
:10040000BAF1300FF0D00B998A453ED144F0800408
:1004100006E00F99681CA9F1010944F40074086012
:10042000B9696D1C761E0E98884782463028F0D038
:100430002BE00B998A4505D1200603D444F08004B3
:10044000761E18E0504602F063FF08B30DF1130268
:10045000761EAAF1300044F40074934506D20BF8DE
:10046000010B200607D5A9F1010003E0200602D404
:1004700009F101008146A00502D50F99681C0860AA
:10048000B9696D1C0E9888478246002ED1DC53E076
:10049000002E51DDBAF1650F02D0BAF1450F4BD1F4
:1004A000A00549D5B9696D1C24F44074761E0E98D8
:1004B00088478246002E0CDD2B2804D0BAF12D0F80
:1004C00007D144F48074B9696D1C0E988847824640
:1004D000761EE00501D52D2100E02B2108F8011B37
:1004E000CDF82C8021E00DF12901761E44F4007432
:1004F00088450CD2AAF1300010F0FF0088F8000007
:1005000002D10B99884509D908F1010806E0E005F8
:1005100001D5244801E042F20F708146B9696D1C93
:100520000E98884782460F980560002E04DD5046DD
:1005300002F0EEFE0028D6D1F9690E988847FF2018
:100540008BF8000088F800000020069007904B46CA
:100550006A4608A906A8FFF777FEA00502D46FF047
:1005600001002AE714F0240F0AD0E00714D1DDE9D6
:1005700006123868031D3B600068C0E900120BE0FA
:10058000DDE9060100F074FA0146E00704D138689D
:10059000021D3A600068016028460EE70000144022
:1005A0000000F03FF1D8FFFF2DE9FE4F81EA030480
:1005B00004F0004421F0004100944FF0000B23F0C0
:1005C000004350EA01045ED052EA03045BD0C3F357
:1005D0000A54C1F30A552C44A4F2F3340194A0FB4D
:1005E0000254C1F3130141F48011C3F3130343F424
:1005F000801301FB024400FB034E840A970A44EA7D
:10060000815447EA8357A4FB076802958D0A05FBCE
:1006100007854FEA932C04FB0C542705029D4FEAF3
:10062000065847EA1637B5EB08056EEB070C870E40
:10063000920E47EA811742EA8312A7FB0201B6EB4A
:100640000B0164EB00042B0D43EA0C335E1844EB02
:100650001C50DA465146E7FB0201C5F313044FEA8A
:100660000B3343EA14534FEA0432019C43EA060376
:10067000A4F10C040294009CCDE900B400F057F8FA
:1006800003B0BDE8F08F00200146F9E70EB540F257
:10069000334102910021CDE900110A460B4600F0DA
:1006A00046F803B000BD30B50B46014600202022BD
:1006B000012409E021FA02F59D4205D303FA02F56F
:1006C000491B04FA02F52844151EA2F10102F1DCCF
:1006D00030BD202A04DB203A00FA02F100207047E6
:1006E0009140C2F1200320FA03F319439040704770
:1006F000202A04DB203A21FA02F00021704721FA77
:1007000002F3D040C2F120029140084319467047DD
:1007100010B5141E73F1000408DA401C41F1000109
:1007200092185B411A4301D120F0010010BD2DE960
:10073000F04D92469B4611B1B1FA81F202E0B0FA57
:1007400080F220329046FFF7C4FF04460F4640EA8D
:100750000A0041EA0B0153465A46084313D011469A
:1007600053EA010019D0C8F140025046FFF7C0FF1C
:1007700005460E46504659464246FFF7AAFF084333
:1007800005D0012004E020463946BDE8F08D002068
:10079000054346EAE0762C4337430A986305E40AAA
:1007A000A0EB08000022FD0A44EA47540A3002D5B3
:1007B00000200146E9E7010510196941DDE9084516
:1007C00000196941BDE8F04DA2E72DE9FE4F8046D2
:1007D00081EA0300C00F0C46009021F0004123F095
:1007E0000045B8EB0200A94105D24046214690469B
:1007F0001C460B46024623F00040104347D0270D0D
:10080000C7F30A00C3F30A510290401A019040282E
:100810006BDAC3F3130040F4801B0098924620B1BA
:100820000023D2EB030A63EB0B0B01985946C0F18E
:1008300040025046FFF74DFF06460D4650465946CA
:10084000019A00F043F910EB08006141002487EAA7
:10085000115284EAE7731A4340D0009A62B3019AB6
:10086000012A4FEA075215DC001B61EB02014FF031
:10087000004202EA0752CDE90042001C41F5801116
:1008800032462B46FFF753FF03B0BDE8F08F4046DA
:100890002146F9E7001B61EB0201001C41F58013C2
:1008A00000185B412018A2F5001747EB030140EA4E
:1008B000D570B6196D4111E06D084FEA360645EA6C
:1008C000C0754FEA0752001B61EB0201001C41F5A5
:1008D000801149084FEA30000019514132462B4639
:1008E00003B0BDE8F04FFFF713BF009801224000AE
:1008F0000023D0EB020263EBE073009821464FEA3D
:10090000E074B8EB000061EB0401E9E783F0004319
:100910005BE781F0004158E72DE9F04D81EA0304DF
:1009200004F0004B21F0004514464FF0000A23F07C
:10093000004150EA050220D054EA01021DD0C5F35F
:100940000A570246C5F31303C1F31300C1F30A5655
:1009500040F4801543F48013A7EB0608101BD6461D
:1009600008F2FD3873EB050002D308F1010801E03D
:1009700092185B41B8F1000F03DA00200146BDE890
:10098000F08D00204FF48011064684460EE0171BC0
:1009900073EB050705D3121B63EB050306434CEA13
:1009A000010C49084FEA300092185B4150EA0107F8
:1009B000EDD152EA030012D082EA040083EA050175
:1009C000084305D0101BAB4106D20122002306E0EC
:1009D00000224FF0004302E06FF0010253101AEBC7
:1009E00006004CEB085110EB0A0041EB0B01BDE88F
:1009F000F04DFFF78DBE0EB540F233420292002259
:100A0000CDE900221346FFF792FE03B000BDC1F30B
:100A10000A52C1F3130140F2FF3341F480119A42AC
:100A200002DA00200146704740F233439A42A2F2B4
:100A3000334202DC5242FFF75BBEFFF74ABE0000C2
:100A400030B5041E71F1000404DB4FF00044404255
:100A500064EB0101141E73F1000405DB1C464FF02A
:100A60000043524263EB0403994208BF904230BDF9
:100A700001F0004330B421F0004150EA010206D0F9
:100A80000A0DA2F56072C1F31301002A02DC30BC2A
:100A900000207047440F44EAC104C100E01830BC94
:100AA00000EBC25000F024B8064C074D06E0E068A9
:100AB00040F0010394E8070098471034AC42F6D3A5
:100AC000FFF766FBE43B0008043C0008202A06DB35
:100AD000CB17203A41FA02F043EAE07306E041FA0C
:100AE00002F3D040C2F120029140084319467047FA
:100AF0000029A8BF7047401C490008BF20F0010032
:100B0000704710B4B0FA80FC00FA0CF050EA01040F
:100B100004BF10BC704749B1CCF1200421FA04F4A1
:100B200011FA0CF118BF012121430843A3EB0C017A
:100B3000CB1D4FEA00614FEA102042BF002010BCDD
:100B4000704700EBC35010440029A4BF10BC70478D
:100B5000401C490008BF20F0010010BC7047FEE7B0
:100B600070477047B0B5044600F078F90546DD4897
:100B7000611C007818BF044400F070F9401BA042CB
:100B8000FAD3B0BD2DE9FE4F05468A480C462844ED
:100B90004FEAB026092E03D38748B32102F030FA7A
:100BA00020680021B1EB104F01D180B218B9824802
:100BB000B42102F025FA6068122800F2DD800121DC
:100BC0007E4A8140114200F0D780A068032803D3F9
:100BD0007948B62102F014FA7F4808214FF0010C41
:100BE0004FF000084FF000094FF0000A854208BF9F
:100BF000072104F11000072E38BF31460091019003
:100C0000BAF1100F08BFBDE8FE8F20680CFA0AFB8E
:100C100010EA0B0F00F0A980606840F01001122963
:100C200026D101980068102806D281B24BF6FF72D7
:100C300022FA01F1C90707D15F48C72102F0E0F9A4
:100C400001984FF0010C02E067A101EB80006FF00A
:100C5000030309F01C010F22006803EA5A038A40CB
:100C60002B4488401E6A26EA02021043186260681C
:100C700003222B6800F00301122802FA08F201FA9D
:100C800008F123EA02036FEA020641EA0301296040
:100C90001ED80CFA00F111F0061F19D0E1680429E2
:100CA00007D34548DA2102F0ABF96068E1684FF0FC
:100CB000010CAA6801FA08F132401143A960C0F39F
:100CC00000116A6801FA0AF122EA0B021143696015
:100CD000E968A268C00001EA060102FA08F241EAE6
:100CE0000201E96041D5002009F00C020F230290B7
:100CF0003C4893400146006840F480400860086822
:100D0000364900F480400E4602902AF00300084461
:100D1000029945490F4641589943009B03FA02F254
:100D20001143C1513068626840EA0B01D30358BFD8
:100D300020EA0B0131609303706840EA0B0158BF51
:100D400020EA0B017160D302B06840EA0B0158BF82
:100D500020EA0B012248B16092020346006840EA93
:100D60000B0158BF20EA0B01196008F1020809F1D4
:100D700004090AF1010A43E7114988423FF425AF0B
:100D8000104988423FF421AF0F4988423FF41DAF1C
:100D90000E4988423FF419AF0D4988423FF415AF20
:100DA0000C4988423FF411AF0348B52102F028F9FD
:100DB0000BE700BF0000FEBF6D3B00080F00060000
:100DC000000011100000121000002110000022107D
:100DD0000000311000003210001C0240003C0140B5
:100DE0000C3C0140443802400000000001000000BB
:100DF00002000000030000000400000005000000E5
:100E000006000000070000000800000009000000C4
:100E10000A0000000B0000000C0000000D000000A4
:100E2000000000000F00000008FCFFFF70B5164630
:100E30000C46054621B9084840F29F1102F0E0F83F
:100E40003EB1012E06D004484FF4D07102F0D8F81C
:100E500000E02404AC6170BD6D3B000805480068EB
:100E6000704700BF1F48034900780A6810440860B3
:100E7000704700BFA001002080B50B48016841F415
:100E800000710160016841F480610160016841F412
:100E900080710160032000F073F8002000F006F874
:100EA00000F022F8002080BD003C024070B50D4EDD
:100EB00004464FF47A713078B1FBF0F0C04909680C
:100EC000B1FBF0F001F036F901250F2C08D838B944
:100ED0004FF0FF3021460022002500F023F8746017
:100EE000284670BD0000002082B000200C4901900F
:100EF0004A6842F480424A604A6802F480420192A1
:100F0000019A0090086840F080500860086800F07E
:100F1000805000900098052002B000F031B800BF6A
:100F20004038024070B514460E460546102A03D3D9
:100F30001D48AA2102F064F8102E03D31A48AB21F1
:100F400002F05EF819484FF0FF320068C0F302204B
:100F5000C11E80F0070038BF0021042828BF0420EC
:100F600002FA00F026EA0000884002FA01F124EAC1
:100F7000010101432846BDE8704002F02FB800BFD0
:100F800010B504460338052803D30748922102F020
:100F900037F806484FF6FF0201681140044A64F32F
:100FA0000A211143016010BDA63B00080CED00E0D2
:100FB0000000FA052DE9F041002800F0CB8004463E
:100FC00000680D4601380F2804D370484FF41071A3
:100FD00002F016F8082D04D36C4840F2412102F0CB
:100FE0000FF86B4ED6F8000400F00F00A84208D2AC
:100FF00086F80054D6F8000400F00F00A84240F034
:10100000A9802068B04681071ED5410742BFB1685C
:1010100041F4E051B160010742BFB16841F4604161
:10102000B160A1684FEA31120F2A00F297800123C4
:1010300003FA02F24FF601731A4200F08F80B26891
:1010400022F0F0021143B160C00747D1D8F8000484
:1010500000F00F00A84207D988F80054D8F800041F
:1010600000F00F00A84275D12068410711D5E16852
:101070004FEAB122072A79D8012303FA02F212F0CB
:10108000F10F73D0D8F8082022F4E0521143C8F8C9
:101090000810000712D520694FEAB02107296DD842
:1010A000012202FA01F111F0F10F67D0D8F808100F
:1010B00021F4604141EAC000C8F8080000F086F859
:1010C000D8F80810334A0026C1F30311515CC84018
:1010D0003B4908600020FFF7E9FE3CE06668B01E6F
:1010E000022810D396B3012E474607D0274840F276
:1010F0006B2101F085FF6668012E05D13868012655
:10110000800308D427E0474626F0010002281ED1BC
:10111000386880011ED5B86820F003003043B860FD
:10112000FFF79CFE064641F288374046D8F8080093
:10113000616800F00C00B0EB810F3FF487AFFFF760
:101140008DFE801BB842F0D9032604E0474638687C
:101150008007E0D401263046BDE8F0810B484FF40B
:10116000197101F04DFF2068A16868E7074840F257
:10117000A92101F045FF2068E16883E703484FF4A7
:101180002C7101F03DFF206990E700BF353B00085E
:1011900000380240743A000809480A490A4A0068BF
:1011A0000968C1F38221515CC84070470448054971
:1011B000054A00680968C1F34231515CC840704774
:1011C0000800002008380240843A000810B5144C8A
:1011D000606800F00C011348082904D0042904BFFA
:1011E000114810BD10BD2168236801F03F0221683D
:1011F0005B02C1F3881105D4A1FB00010023FEF7B7
:10120000DFFF03E008484843B0FBF2F02168022208
:10121000C1F3014102EB4101B0FBF1F010BD00BF91
:10122000043802400024F40000127A002DE9FC4149
:10123000002800F04E8104460068102805D3DFF82E
:10124000C003E82101F0DCFE2068CF4EC0073CD08F
:10125000606850B1B0F5803F07D0B0F5A02F04D042
:10126000DFF89C03ED2101F0CBFEB06800F00C002C
:10127000042823D0B06800F00C00082802D1706860
:1012800040021BD46768B7F5803F07D03068B7F5D8
:10129000A02F40F07B8140F480203060306840F423
:1012A00080303060FFF7DAFD0546306880030CD4EB
:1012B000FFF7D4FD401B6428F7D9C4E030688003F1
:1012C00003D56068002800F00481207880073CD5B1
:1012D000E068022804D3CA4840F21F1101F090FED2
:1012E0002069202804D3C6484FF4907101F088FE8D
:1012F000B06810F00C0F07D0B06800F00C000828A0
:1013000009D17068400206D43068800716D5E068BD
:10131000012813D0DDE0E168BA48002900F095808B
:1013200001210160FFF79AFD05463068800705D46A
:10133000FFF794FD401B0228F7D984E0306821694B
:1013400020F0F80040EAC10030602078000729D57D
:101350006069AC4DB8B1012806D0A9484FF4B0710E
:1013600001F04EFE606970B10120C5F8800EFFF7F4
:1013700075FD0546706F800714D4FFF76FFD401BA5
:101380000228F7D95FE00020C5F8800EFFF766FD60
:101390000546706F800705D5FFF760FD401B0228EA
:1013A000F7D950E0207840077ED5A068052805D8F9
:1013B000012101FA00F010F0230F04D190484FF4FE
:1013C000C67101F01DFE306C4FF00008C0000CD457
:1013D000CDF804804FF00108306C40F0805030644C
:1013E000306C00F0805001900198874F3868C0053C
:1013F0000FD4386840F480703860FFF72FFD054641
:101400003868C00505D4FFF729FD401B0228F7D92D
:1014100019E0A768012F05D0306F052F25D140F0C6
:1014200004003067306F40F001003067FFF716FDB1
:10143000054641F28837306F80072ED4FFF70EFD46
:10144000401BB842F7D9032044E000210160FFF7B8
:1014500005FD0546306880077FF577AFFFF7FEFC96
:10146000411B03200229F5D934E020F00100306748
:10147000306F20F004003067FFF7F0FC0546002FC6
:10148000D7D141F28837306F800706D5FFF7E6FCE9
:10149000411B0320B942F6D91CE0B8F1000F1EBF72
:1014A000306C20F080503064A069411E02290BD3BB
:1014B000002800F0A280524840F2CF1101F0A0FDB8
:1014C000A069002800F09980B16801F00C0108299A
:1014D00003D1012002B0BDE8F081022843D1E069C8
:1014E00040F48000B0F5800F04D045484FF4EC7113
:1014F00001F086FD206A402804D3414840F2D9110A
:1015000001F07EFD606A3238B0F5BF7F04D93C48F7
:101510004FF4ED7101F074FDA06A082805D801218F
:1015200001FA00F010F4AA7F04D1354840F2DB1133
:1015300001F066FDE06A02380E2804D330484FF40B
:10154000EE7101F05DFD2F4F00203866FFF786FC3D
:1015500005463068800131D5FFF780FC411B032030
:101560000229F6D9B6E7274800210166FFF776FC85
:1015700004463068800140D5FFF770FC011B032052
:101580000329F6D3A6E700BF0038024020F48030DC
:101590003060306820F480203060FFF75FFC054643
:1015A000002F7FF482AE306880037FF58EAEFFF7A8
:1015B00055FC411B03206429F5D98BE704F11C0578
:1015C0002FCD0843D90340EA82104FF6FF729143B2
:1015D00040EA0560A1F5803108437060012038665B
:1015E000FFF73CFC04463068800106D4FFF736FC68
:1015F000011B03200229F6D96CE700206AE700BF2F
:10160000353B00080000474200700040F0B587B04D
:101610000F46044651B1B7F5006F07D0B7F5805FAC
:1016200004D0394840F6211101F0EAFC032084F887
:101630003400606C03280CD14FF08050A16B08433C
:10164000A063A06B48B3206840F2FF518163012082
:101650002DE08FB3B7F5805FEED0B7F5006F41D1C5
:1016600000200021CDE90400206800F00BFF80017C
:101670003BD404A9204601F0E5FA0028DED19DF80C
:10168000160040072BD5216D2068090400F0B2FF39
:101690000028D3D12068022133E094E80F00D4E978
:1016A0000556CDE90075029600F002FF00200121E9
:1016B00084F8341007B0F0BD00200021CDE904000B
:1016C000206800F0DFFE80010FD404A9204601F05D
:1016D000B9FA0028B2D19DF81600C00708D14FF022
:1016E0008060ABE74FF00060A8E74FF40060A5E72B
:1016F000216D2068090400F07DFF00289ED120683C
:10170000002100F0C7FF99E7C53A000870B504460C
:1017100090F8340001281CBF022070BD002015463F
:101720000E468A42A06303D2A06B40F0006005E041
:10173000E06DA84205D2A06B40F00070A0630120CC
:1017400070BD032084F8340094F84C10206889069A
:1017500006D440F2FF518163A06B40F0806028E026
:10176000002100F08FFE80011CD4606C012803D0A2
:1017700003280CD06D0276022068314601F06AF829
:10178000216848B90846294601F04AF818B9206886
:1017900000F09AFF90B1216840F2FF528A63A16B7A
:1017A000084306E0206840F2FF518163A06B40F4DB
:1017B0000060A063012084F8340070BD012084F82B
:1017C0003400002070BD426F130E0B706FF0FF03EA
:1017D00003EA12234B8093B21206B1F802C04CEA1E
:1017E00013234B804A604FF47F03826F03EA122277
:1017F0004B681A434FF47F434A60826F03EA122218
:101800004B681A434A6090F879204B681A434A6043
:10181000826F0A72C26F130E4B724FF07F4303EA5E
:101820000222CA6090F87D20CB6843EA0242CA6077
:1018300090F87C20CB6843EA0222CA6090F88320AB
:10184000CB681A43CA60D0F880000A7CC0F3035307
:101850001A430A744FF4706202EA10224A824A8ADA
:10186000C0F30723C0B240081A434A82087501201A
:1018700048750020704780B5426E930F0B70C2F31D
:1018800083634B70C2F301638B70130CCB70130A2C
:101890000B714A716FF00F03826E03EA1253CB8013
:1018A000B1F806C0C2F3035343EA0C03CB80C2F382
:1018B00003430B72C2F3C0334B72C2F380338B729B
:1018C000C2F34033CB72C2F300330B7300234B736C
:1018D000436C012B41D0002B40F0AC804FF44063AF
:1018E00003EA82020A6190F868200B6943EA8202E7
:1018F0000A61C26E0B6943EA92730B61C2F3C26361
:101900000B75C2F302624A75C26EC2F342538B7505
:10191000C2F38243CB75062303EAD2330B7691F8E8
:1019200018C0C2F3C03343EA0C030B760423D1F88A
:1019300010C091F818E003FA0EFE0CF101030EFB43
:1019400003FE0123C0F854E091F808C003FA0CF339
:1019500083655B0A03FB0EF31AE04FF47C134FF42C
:10196000007C03EA02420A6190F86F200B6943EAA7
:1019700002220A6190F86E200B691A434FF48063CB
:101980000A61C26ED1F810E003EB8E23C0E9153C6A
:10199000C3654FF400730366C2F380334B767E2336
:1019A00003EAD2138B7691F81AC0C2F3C01302F087
:1019B0007F0243EA0C038B76CA76006FC20F0A7768
:1019C000C0F341724A77C0F382628A770C2202EA3E
:1019D0009052CA77CA7FC0F381531A43CA77C0F3C3
:1019E000405281F82020002281F82120C0F30043DA
:1019F00081F82230C0F3C03381F82330C0F3803344
:101A000081F82430C0F3403381F82530C0F300332F
:101A100081F82630C0F3812381F82730C0F30123F9
:101A2000C0B2400881F8283081F82900012081F8EF
:101A30002A000AE0016840F2FF528A630122816BAA
:101A400041F08051816380F83420104680BD426CA3
:101A50000A60826C4A60C26C8A60026DCA60426D24
:101A60000A61826D4A61C26D8A61006EC8610020A0
:101A7000704710B504460068216D090400F066FF48
:101A800020B1A16B0843A063002010BD2068002195
:101A900000F0F8FCC0F3432010BD2DE9F04397B0EF
:101AA00089460446FFF7DAF906462068002100F06F
:101AB000E9FC800122D42068402100F0D1FDD0B99A
:101AC000216D2068090400F095FDA0B9012011A93D
:101AD0001690002015900220149060201390402052
:101AE00012904FF0FF301190206800F083FC2068C6
:101AF00000F09CFF88B1A16BA16301E04FF400608E
:101B0000216840F2FF528A63A16B0843A063012061
:101B100084F8340017B0BDE8F08301AF40F22A48E2
:101B20002068426B416B12EA080F14D108040AD5F1
:101B3000002505E0206800F019FD47F82500013573
:101B4000082DF7D12037FFF789F9801B01304FF0BE
:101B50000040E5D1D4E7090766D4416B890765D415
:101B6000416B89060BD52020CAE700F0FFFC3860E6
:101B7000FFF774F9801B01305AD020680437416B9D
:101B80008902F2D440F2FF5181630198C1B28A09FF
:101B900089F80020C1F3401189F801106FF0FF01AE
:101BA00001EA1022A9F80220B9F8022042EA1060E6
:101BB000A9F802000298020600F47F43C9F8042045
:101BC000D9F8042042EA0322C9F804204FF47F42E6
:101BD000D9F8043002EA10221A43C9F80420D9F8CF
:101BE000042042EA1060C9F804000398020A89F848
:101BF000080089F80920C0F3035201EA104089F86F
:101C00000A20A9F80C000498B9F80C10C2B21143CC
:101C1000A9F80C10C0F3852189F80E10C0F301203B
:101C200089F80F00002075E7082069E7022067E7C0
:101C30004FF0004064E70000002861D010B5044672
:101C40000068CA49884204D02E4840F25B1101F076
:101C5000D7F9606840F40050B0F5005F04D029481F
:101C60004FF4AE7101F0CCF9A06840F48060B0F59B
:101C7000806F04D0234840F25D1101F0C1F9E068A3
:101C800040F40070B0F5007F04D01E484FF4AF71EF
:101C900001F0B6F9206950B1B0F5006F07D0B0F58A
:101CA000805F04D0174840F25F1101F0A9F9606924
:101CB00040F48040B0F5804F04D012484FF4B0712A
:101CC00001F09EF9A069B0F5807F04D30D4840F281
:101CD000611101F095F994F8340020B900202077C3
:101CE000204600F0F5F8032084F83400204600F088
:101CF0000BF800200121A063206384F8341010BD8C
:101D000001207047C53A0008F0B58FB0044600685E
:101D10000026762100220023CDE9006602910021F1
:101D200000F0C6FB684F3E60206800F01BFC0125F8
:101D300002203D60FEF716FF0496206800F0DEFCEE
:101D400038B184F83450A16B0843A06328460FB023
:101D5000F0BD206800F0FAFCD8B100204FF6FF7605
:101D6000A06413E00498411CB04204913BD0206869
:101D7000002100F03FFC98BB2068002100F054FCDB
:101D800070BB2068002100F07DFBC00F0028E9D067
:101D90002CE0012000214FF6FF76A064002018E01F
:101DA0000498411CB04204911DD02068002100F02D
:101DB00021FC0028C5D120684FF0804100F034FCA0
:101DC0000028BED12068002100F05CFB00F08041BB
:101DD000C00F0028E4D0B1F1804F07D1012006E008
:101DE0004FF08050ADE74FF08070AAE7002001254A
:101DF0006064ADF80E50206800F040FB00B3606CEA
:101E0000032820D12068042100F03CFB000D04A928
:101E1000E0642046FFF72FFD216D206800230A04AF
:101E200000F032FD00287FF48CAF94E88F00D4E9F5
:101E30000565CDE90076029500F03AFB002585E7BF
:101E40004FF080607DE7206800F038FD00287FF4C7
:101E500078AF20681D4E0021B047606704212068DC
:101E6000B047A06708212068B047E0670C212068D0
:101E7000B047C4F88000606C0328C3D020680DF11F
:101E80000E0100F07DFD00287FF45BAF606C03283D
:101E9000B8D0BDF80E1021650904206800F025FDBA
:101EA00000287FF44EAF20680021B047606604210F
:101EB0002068B047A06608212068B047E0660C2182
:101EC0002068B04720679DE7A08025428524000850
:101ED0002DE9F04387B0044602A81421FEF7A8F9C3
:101EE0002068224DA8423DD10026F9484FF00C0849
:101EF0004FF00309022702AC0196416941F40061E9
:101F00004161416901F40061019101990196016803
:101F100041F004010160016801F00401019101999F
:101F20000196016841F0080101602146006800F057
:101F3000080001900198CDF81880CDE90469039755
:101F40004FF4F850029005F55C40FEF71BFE0420AC
:101F5000CDE90598CDE903762146029005F560406C
:101F6000FEF710FE07B0BDE8F08300BF002C014073
:101F70002DE9F04786B01F4616460D460446FEF78B
:101F80006DFF75B1804694F8340001280DD1002111
:101F9000B819A163E26D90420FD9A06B40F00070B8
:101FA00006E0A06B40F0006002E0A06B40F0005043
:101FB000A063012006B0BDE8F087032084F8340058
:101FC0002068C162616C01294FF4007118BF76026C
:101FD00000F046FB20BB4FF0010900204FF0020A41
:101FE0006946CDF8149004909020CDF80CA0029092
:101FF0004FF0FF30009078020190206800F0FAF96D
:10200000022F06D3C4F830A03146206800F0D4FB7C
:1020100005E0C4F830903146206800F0E7FB50B18D
:10202000216840F2FF528A63A16B0843A06301203C
:1020300084F83400BEE7DDF8389040F22A3A206890
:10204000426B416B12EA0A0F22D108040AD500261E
:1020500005E0206800F08AFA45F826000136082ECF
:10206000F7D12035B9F1000F05D0FEF7F7FEA0EB50
:1020700008004845E3D3206840F2FF518163A06B1C
:1020800040F00040A063012084F83400032091E771
:10209000022F10D311F480710DD0616C03290AD086
:1020A00000F0DEFC0146206829B140F2FF52826355
:1020B000A06B0843BAE7416B090725D4416B890738
:1020C00029D4416B890614D540F2FF518163A06B7E
:1020D00040F02000AAE700F049FAB9F1000F2860AB
:1020E00020D0FEF7BBFEA0EB080048451AD22068BE
:1020F0000435416B8902EED440F2FF518163012027
:1021000084F83400002055E740F2FF518163A06B52
:1021100040F008008AE740F2FF518163A06B40F075
:10212000020083E7206840F2FF518163A06B40F01A
:1021300000407BE7411E0020B0EB116F1CBF012067
:102140007047044AF023516003490B7007219060E7
:102150001160704710E000E023ED00E000285FD040
:1021600010B504460068A16900295BD0384A904246
:102170000ED0384A90420BD09B4A904208D0364A43
:10218000904205D0354840F2491100F039FFA1696D
:102190004FEA3120042804D330484FF4A57100F0F1
:1021A0002FFFA06840F48050B0F5805F04D02B482A
:1021B0004FF4A87100F024FFE06940F40040B0F54E
:1021C000004F04D0254840F2511100F019FF94F857
:1021D000390028B9002084F83800204600F044F87F
:1021E000242084F839002068C16821F40051C160BE
:1021F000204600F0F9FD2068016921F49041016159
:10220000416921F02A014161C16841F40051C16076
:1022100000202021E06384F8391084F83A1010BDC2
:10222000012070470A498842BBD00A498842B8D089
:102230000B498842B5D00B498842B2D06A498842DE
:10224000AFD005498842ACD004484FF4A771A6E747
:10225000004400400048004000140140FC3A0008DF
:10226000004C00400050004010B586B0044601A864
:102270001421FDF7DDFF21685B48814225D1002153
:102280003C4A00F570400091536943F010035361DC
:10229000536903F010030093009B0091116841F013
:1022A00001011160116801F00101009100990721FD
:1022B00005910321049101210391022102914FF420
:1022C000C061019101A9FEF75DFC06B010BD00BF21
:1022D00030380240FEE7000070B586B00021254886
:1022E000254C4FF4C065012605910091026842F02B
:1022F00020020260026802F020020092009A00911F
:10230000026842F080020260026802F080020092DD
:10231000009A0091026842F004020260026802F032
:1023200004020092009A0091026842F001020260E9
:10233000026802F001020092009A009101680122F5
:1023400041F0080101604FF4C061006800F008002E
:10235000009000982046FEF769FD032001A9CDE911
:1023600003601120CDE901502046FEF70BFC06B0BA
:1023700070BD00BF303802400014024010B50C4C54
:102380007749204602C01821FDF752FF2046FFF78B
:1023900053FC08B1FEF7E5FB05484FF40061FFF779
:1023A00035F9002814BFBDE8104010BDFEF7D9BBB9
:1023B000DC00002010B50B480B4C4FF4E13300213A
:1023C0000C22C0E90043C0E90211C0E90412C0E9CF
:1023D0000611FFF7C3FE002814BFBDE8104010BD72
:1023E000FEF7BFBB6001002000100140FEE7704710
:1023F00070470000B0B5044648680D46B0F1007F54
:1024000004D37B4840F2AD1100F0FAFDA8684FEA12
:1024100030100F2804D376484FF4D77100F0F0FD48
:10242000E86840F00200022804D0714840F2AF1181
:1024300000F0E6FD286940F00400042804D06C4850
:102440004FF4D87100F0DCFD6869022805D36848B4
:1024500040F2B11100F0D4FD6869296805F1080364
:1024600061626968A1620ECB114319430843E16AB6
:1024700021F0F7010843E0620020B0BD006800F0E1
:1024800003007047BCB5054600200C4601904FEA9A
:10249000B100042804D356484FF4CC7100F0B0FDCD
:1024A0002819143001900198006802B0B0BD00BF37
:1024B0002DE9F04704462A48984692460F46844242
:1024C00003D04B48DD2100F09BFD47F40050B0F5F0
:1024D000005F03D04648DE2100F092FD4AF48060A0
:1024E000B0F5806F03D04248DF2100F089FD48F449
:1024F0000070089DB0F5007F03D03D48E02100F05A
:102500007FFDDDF824904DB1B5F5006F06D0B5F52F
:10251000805F03D03648E12100F072FD49F480402D
:102520000A9EB0F5804F03D03148E22100F068FDEB
:10253000B6F5807F03D32E48E32100F061FD60688B
:1025400047F6FF61884347EA0A0141EA0801294347
:1025500041EA09013143084360600020BDE8F0878B
:10256000002C01400321016000207047D0F880005A
:102570007047000070B5064648680D46402804D3F1
:102580001B4840F2691100F03BFDA86840B14028AB
:1025900006D0C02804D016484FF4B57100F030FDC5
:1025A000E86850B1B0F5807F07D0B0F5007F04D067
:1025B0000F4840F26B1100F023FD286940F4806160
:1025C000B1F5806F05D00A484FF4B67100F018FDE0
:1025D000286929682B1D40F6FF74B1600ECBF568A1
:1025E0001143A543194308432843F060002070BD00
:1025F0008C3A000810B586B004464FF48060059010
:1026000000200490402003903720CDE9011001A95B
:102610002046FFF7AFFF2046372141F2883206B04F
:10262000BDE8104000F038BA10B586B004464FF44B
:1026300080600590002004904020039029200290A3
:102640000648084301A901902046FFF793FF204662
:1026500006B0BDE8104000F0D5BA00BF0000108001
:1026600010B586B004464FF48060059000200490B9
:10267000402003901020CDE9011001A92046FFF76A
:1026800079FF2046102141F2883206B0BDE81040A3
:1026900000F002BA10B586B004464FF48060059091
:1026A00000200490402003900620CDE9011001A9EC
:1026B0002046FFF75FFF2046062141F2883206B030
:1026C000BDE8104000F0E8B910B586B004464FF4FC
:1026D0008060402105900020049003912621CDE9DF
:1026E000010101A92046FFF745FF204626214FF2B0
:1026F000186206B0BDE8104000F0CEB910B586B043
:102700000446002001A9CDE90300CDE901004FF402
:10271000806005902046FFF72DFFC3484FF4FA5123
:102720000068B0FBF1F041F288314843C04301300A
:1027300007D0616B0906FAD540F2FF50A063002074
:1027400001E04FF0004006B010BD00BF10B586B0EC
:1027500004464FF4806001A90590002004904020B9
:102760000390082002904FF4D57001902046FFF7A7
:1027700001FFAD484FF4FA510068B0FBF1F041F2AF
:1027800088314843C04301300DD0616B11F0450FD3
:10279000F9D0606B400709D4606B400644BF40200D
:1027A000A063002005E04FF0004002E04020A0635D
:1027B000042006B010BD00BF10B586B004464FF42B
:1027C0008060059000200490402003901220CDE905
:1027D000011001A92046FFF7CDFE2046122141F24B
:1027E000883206B0BDE8104000F056B910B586B08A
:1027F00004464FF480600590002004904020039030
:102800001120CDE9011001A92046FFF7B3FE2046B3
:10281000112141F2883206B0BDE8104000F03CB909
:1028200010B586B004464FF48060059000200490F7
:10283000402003902120CDE9011001A92046FFF797
:1028400099FE2046212141F2883206B0BDE81040B1
:1028500000F022B910B586B004464FF480600590B0
:1028600000200490402003902020CDE9011001A910
:102870002046FFF77FFE2046202141F2883206B035
:10288000BDE8104000F008B910B586B004464FF41A
:10289000806001A90590002004904020039007204B
:1028A000CDE901202046FFF765FE2046072141F2D1
:1028B000883206B0BDE8104000F0EEB810B586B022
:1028C00004464FF48060C0210590002004900391DD
:1028D0000221CDE9010101A92046FFF74BFE204668
:1028E00006B0BDE8104000F069B910B586B00446E6
:1028F0004FF48060059000200490C02003900920D0
:10290000CDE9011001A92046FFF734FE204606B0AC
:10291000BDE8104000F052B910B586B004464FF43F
:102920008060402105900020049003913321CDE97F
:10293000010101A92046FFF71DFE2046332141F287
:10294000883206B0BDE8104000F0A6B810B586B0D9
:1029500004464FF4806005900020049040200390CE
:102960000D20CDE9011001A92046FFF703FE204606
:102970000D2141F2883206B0BDE8104000F08CB85D
:10298000B0B586B005464FF480600C4640210490F7
:102990000020039002910321CDE9000169462846F9
:1029A000FFF7E8FDA6484FF4FA510068B0FBF1F0DC
:1029B00041F288314843C043013023D0696B11F0A4
:1029C000450FF9D0686B40071FD4686BC0071ED154
:1029D0002869C0B203281ED140F2FF50A86300202E
:1029E000059005F1140005900598006810F4604FFB
:1029F00013D0410415D400044FF4805058BF4FF455
:102A0000803006E04FF0004003E0042000E00120A9
:102A1000A86306B0B0BD0120FBE7000C20800020B9
:102A2000F7E74FF40050F4E70800002010B586B037
:102A300004464FF4806040210590002004900391EB
:102A40000D21CDE9010101A92046FFF793FD2046A4
:102A50000D2141F2883206B0BDE8104000F01CB8EC
:102A600010B586B004464FF48060402105900020E8
:102A7000049003910C21CDE9010101A92046FFF743
:102A800079FD044A20460C2106B0BDE8104000F054
:102A900003B800BF00E1F50503466948D0F800C05F
:102AA0004FF4FA50BCFBF0F05043C043013004BF78
:102AB0004FF0004070475A6B12F0450FF6D0586B3C
:102AC000400742BF042098637047586BC0071EBF81
:102AD0000120986370471869C0B288421CBF01206A
:102AE000704781B040F2FF5003F11401324A9863FD
:102AF00000200090009100990968114201B008BFC0
:102B00007047002954DB480044BF402070478800CC
:102B100044BF80207047C80044BF4FF480707047A6
:102B2000080144BF4FF400707047480144BF4FF4A0
:102B300080607047C80144BF4FF4006070470802CE
:102B400044BF4FF480507047480244BF4FF40050D8
:102B50007047880244BF4FF480407047C80244BFAA
:102B60004FF400407047480344BF4FF400307047B3
:102B7000880344BF4FF480207047C80344BF4FF41C
:102B800000207047080444BF4FF480107047480489
:102B900044BF4FF400107047880444BF4FF48000D6
:102BA000704708074FF4000058BF4FF4803070475B
:102BB0004FF00070704700BF08E0FFFD20494FF460
:102BC000FA520968B1FBF2F141F288325143C9432C
:102BD00001310ED0426B12F0450FF9D0416B49071D
:102BE0000AD4416BC90709D140F2FF51816300212A
:102BF00006E04FF0004103E0042100E00121816381
:102C0000084670470E494FF4FA520968B1FBF2F1D9
:102C100041F288325143C94301310CD0426B12F06A
:102C2000450FF9D0416B042211F0040108BF40F2B6
:102C3000FF52826301E04FF000410846704700BF39
:102C4000080000202DE9F04389B088460546FEF7CC
:102C500005F9064600200821CDE900002868FFF7A5
:102C6000FFFC00284DD1296D28680904FFF7C2FC3C
:102C7000002846D1012003A90890002007900220D7
:102C8000069030200590082004904FF0FF3003900C
:102C90002868FFF7AFFB2868FFF73EFE88BB0027D8
:102CA00040F22A44E94629684A6B486B22420FD118
:102CB000800205D50846FFF759FC49F8270001377F
:102CC000FEF7CCF8801B01304FF00040EBD118E04C
:102CD000000710D4486B80070FD4486B80060ED4D1
:102CE00040F2FF5088630098019900BA09BAC8E918
:102CF0000010002005E0082002E0022000E0202073
:102D0000886309B0BDE8F0837047FEF7ABB80000F8
:102D1000B0B592B000241F480225CDE90A44CDE9A0
:102D200008440194016841F080510160006800F09E
:102D300080500190019801941748016841F4804146
:102D40000160006800F48040019001980720119014
:102D50004FF4A87010950F9008200E904FF480004B
:102D6000CDE90C504FF4803007900120069006A862
:102D7000FEF75CFA4FF48050052105904FF4A05007
:102D800004900F20CDE90254019001A8FEF712F93A
:102D900012B0B0BD403802400070004010B50E487F
:102DA0000F4CD0F8801041F47001C0F880100B492E
:102DB0000A6842F001020A6000228A600B68234020
:102DC0000B60084B4B600B6823F480230B60CA60D8
:102DD0004FF00061016010BD08ED00E000380240D6
:102DE000FFFFF6FE103000242DE9F84F834604461D
:102DF00074495BF8040F884204D3734840F6E53108
:102E000000F0FEF8E06840F40050B0F5005F04D038
:102E10006D4840F6E63100F0F3F8206950B1B0F5A6
:102E2000806F07D0B0F5C06F04D0674840F6E73137
:102E300000F0E6F8606918B14FF6F371084004D06D
:102E4000614840F6E83100F0DBF8206849F20C6791
:102E50000169E26821F4405111430161A168D4E99C
:102E60000423E669C568114325EA0707B6F5004F54
:102E700041EA030141EA060141EA0701C1604169F3
:102E8000A26921F4407141EA020141614F4940F4D5
:102E9000806043D188420CBFDFF83491DFF8349171
:102EA000C847DBF800A08046C847DBF8007006463C
:102EB000C847DBF8001019257F00684306FB05F3BF
:102EC0004900B3FBF7F3B0FBF1F06421B0FBF1F282
:102ED00002FB1102181A4FEA4A031044322202EB95
:102EE000C0004FF4F872B0FBF1F002EA400008FBBA
:102EF00005F2B2FBF3F2B2FBF1F100EB0116C847A9
:102F0000DBF8001068434900B0FBF1F7C847DBF875
:102F10000010684307220323490040E0884214BFA1
:102F2000DFF8B090DFF8A890C847DBF800A0804633
:102F3000C847DBF800700646C847DBF800101925C3
:102F4000BF00684306FB05F38900B3FBF7F3B0FB52
:102F5000F1F06421B0FBF1F202FB1102181A4FEA02
:102F60008A031044322202EB001008FB05F2B0FB8A
:102F7000F1F0B2FBF3F200F0F000B2FBF1F100EB84
:102F80000116C847DBF8001068438900B0FBF1F771
:102F9000C847DBF8001068430F2204238900B0FB08
:102FA000F1F0391A6427B0FBF7F505FB1700084468
:102FB000216898403230B0FBF7F010403043886011
:102FC000BDE8F88FA137A000FC3A000800140140CA
:102FD000AD11000899110008FEE7000010B5074C7C
:102FE00000F00F03044AB0F1FF3F2344C8BF831829
:102FF0000801187010BD00BF00E400E014ED00E00F
:103000007047000003490A685206FCD5C2B24A6004
:10301000704700BF00100140ADF5816DFDF72CFF3A
:10302000FFF776FEFFF758F9FFF7A8F9FFF7C2F9A7
:10303000334C2046FEF71DFD324D204605F11401AC
:10304000FEF7C1FB294601F84C0B2046FEF713FCA6
:10305000297841EA8000294601F82C0B2046FEF72A
:10306000F6FC297841EA0010294601F8040B2046B5
:10307000FEF713FD297841EA8010287000061CD164
:1030800021A000F0E5FCD5E90F014843FDF7FEFA69
:103090009FED190B55EC104B22462B46FDF784FA99
:1030A00022462B46FDF780FA22462B46FDF77CFA96
:1030B00002461BA00B4600F049F802AC4FF48061B9
:1030C0002046FDF7B5F80E4D002101222846FEF7F7
:1030D0001DFB194821460022012300902846FEF7D7
:1030E00047FF16A0214600F031F86420FDF73AFDB5
:1030F000FBE700BF00BF00BF000000000000503F22
:10310000DC00002010000020534420436172642042
:10311000496E697469616C697A65640D000000002C
:103120004361706163697479093A20252E34662001
:103130004742200D0A000000FFFF0F007364207259
:103140006561642025730D0A000000000FB4054B73
:1031500010B503A9044A029800F0E2F810BC5DF82B
:1031600014FB0000053000088800002002E008C8B9
:10317000121F08C1002AFAD170477047002001E0F1
:1031800001C1121F002AFBD1704700002DE9FF5F2B
:1031900082B00021DDE90430020DDDF840B00343C8
:1031A00018D044F61050A2F2FF3242431514119881
:1031B00001281FD0A5EB0B00401C5FEA000A4FF06E
:1031C00000064E4FDFF83891B046504615D5CAF18B
:1031D000000413E0119801244AA3012801D16FEAE9
:1031E0000B010298119AC0E90031C0E9024206B011
:1031F000BDE8F09FCBF10000DFE704460021404A24
:10320000491842EB0450CDE9001012E0E00707D066
:1032100032463B4640464946FDF7C6F98046894658
:1032200032463B4610461946FDF7BEF906460F46A4
:103230006410002CEAD1DDE90401DDE90023BAF1D4
:10324000000F06DAFDF7B0F942464B46FDF7ACF940
:1032500005E0FDF761FB42464B46FDF75DFB04468A
:103260000E460022284BFDF7EBFB03D84FF0FF3052
:10327000014607E00022254B20463146FDF7A5FA1E
:10328000FDF7C5FB102409E0002C0ADB0A2200230D
:10329000FCF796FF039B30321A55641E50EA010278
:1032A000F2D1641C039AC4F111031444119A012A47
:1032B00003D0012208430DD10AE0084304D00020C6
:1032C0004FF0110B119072E7A3EB0B056D1E0DE093
:1032D0005B4504DD4FF0000205F1010504E003DA6F
:1032E0004FF00002A5F10105002AECD002981199D7
:1032F000C0E90231C0E9004579E700000000144050
:103300000000F03F300000000000F0430000E03F0C
:1033100030380A2801D20120704700207047000091
:103320002DE9FF4F95B09B468946064600250FE2E2
:10333000252877D100242746F84A0121059400E08A
:10334000044316F8013F203B01FA03F01042F7D185
:1033500030782A2811D06FF02F033078A0F1300296
:10336000092A16D8059A44F0020402EB820203EB04
:1033700042021044761C0590EFE759F8042B0592A1
:10338000002A03DA504244F40054059044F0020449
:10339000761C30782E2816D116F8010F44F004045C
:1033A0002A280DD06FF02F023078A0F13003092BBE
:1033B00009D807EB870302EB4303C718761CF3E732
:1033C00059F8047B761C30786C280FD006DC4C282A
:1033D00017D068280DD06A2814D104E0742810D0C2
:1033E0007A280FD10DE044F400140AE044F480146C
:1033F00001E044F440147278824202D104F5801452
:10340000761C761C307866280BD013DC582877D0D1
:1034100009DC002875D04528F6D04628F4D0472886
:103420001AD19DE118E0632835D0642879D0652849
:1034300012D195E1702873D008DC6728F1D0692893
:103440006FD06E280DD06F2806D1B5E073282CD030
:10345000752875D0782874D05A46179990476D1CF6
:1034600075E1C4F30250022809D003280DD0D9F821
:10347000001004280DD00D6009F1040967E1D9F8A6
:103480000010EA17C1E90052F6E7D9F800100D80E4
:10349000F2E70D70F0E719F8041B8DF8001000201A
:1034A0008DF80100EA46012003E059F804AB4FF023
:1034B000FF3061074FF0000102D40DE008F1010177
:1034C0008846B9420FDA8045F8DB1AF8081000295F
:1034D000F4D108E008F1010188468142FADB1AF8CC
:1034E00008100029F6D105985B46A0EB0807214695
:1034F0003846179A00F094FA284400EB080507E0D4
:103500004DE029E10DE01AF8010B5A461799904752
:10351000B8F10108F7D25B4621463846179A13E105
:1035200042E00A220092C4F302524FF0000A022A3B
:1035300008D059F804CB032A4FEAEC710AD00DE009
:1035400029E02AE009F1070121F00702F2E802C1AF
:10355000914609E00FFA8CFC4FEAEC71042A03D182
:103560004FFA8CFC4FEAEC71002907DA0A46002179
:10357000DCF1000C61EB02012D2202E0220504D5F2
:103580002B228DF80420012203E0E20701D0202243
:10359000F7E7904659E00A2102E010220DE01021E1
:1035A0004FF0000A00910BE010224FF0000A44F0A7
:1035B00004040827009203E008224FF0000A00925A
:1035C000C4F30252022A05D059F804CB0021032A81
:1035D00008D009E009F1070121F00702F2E802C171
:1035E000914605E01FFA8CFC042A01D10CF0FF0C77
:1035F0004FF00008220728D5702806D0009B83F0E2
:10360000100353EA0A0305D00EE040228DF804208F
:10361000012208E05CEA010206D030228DF8042085
:103620008DF8050002229046009B83F0080353EAC0
:103630000A030AD15CEA010201D1620705D53022F2
:103640008DF804204FF001087F1E582804D034A0C4
:1036500003900EA802900DE036A0F9E753466046AD
:10366000009AFCF7ADFD84460398825C0298401EE8
:10367000029002705CEA0100F0D1029806A9081AD3
:1036800000F1200A600702D524F4803400E001270D
:10369000574502DDA7EB0A0000E0002000EB0A011D
:1036A000009005984144401A0590E00306D45B461B
:1036B0002146179A059800F0B3F90544002706E063
:1036C00001A85A46C05D179990476D1C7F1C47455D
:1036D000F6DBE0030CD55B462146179A059800F00F
:1036E0009FF9054404E030205A46179990476D1C15
:1036F0000099481E00900029F5DC08E00298029924
:103700005A460078491C0291179990476D1CBAF1EE
:103710000001AAF1010AF1DC65E1000009280100BD
:103720003031323334353637383961626364656637
:1037300000000000303132333435363738394142F9
:10374000434445460000000000F058F90544761C4B
:10375000307800287FF4ECAD19B02846BDE8F08F32
:10376000620700D4062709F1070222F0070CFCE8E3
:103770000223E14603F000485FEA080C02D00FF292
:10378000702C0DE05FEA045C02D50FF2682C07E0B4
:103790005FEAC47C02D00FF2602C01E0AFF2700C43
:1037A0004FF0FF3823F00043CDF850C065280CD00F
:1037B00006DC452809D046281DD047283DD13DE0EC
:1037C000662818D067287ED138E00021112F01DB50
:1037D000112000E0781CCDE9000106A90EA8FFF732
:1037E000D5FCDDE90F010E9A03910021009207F14B
:1037F000010A04914DE04FF000400097CDE901101F
:1038000006A90EA8FFF7C2FCDDE90F0203920E9B8A
:1038100011990022DDF80CA00093049211B9791CD3
:1038200000EB010AB7EB0A0004D4C0F1FF3007F146
:10383000010A0490AAEB0700019044E0012F00DA8E
:1038400001270021112F01DD112000E03846CDE9CC
:10385000000106A90EA8FFF799FCDDE90F010E9AF9
:103860000391002104910092BA4621070CD40399D8
:10387000514500DA8A46BAF1010F05DD009AAAF136
:103880000101515C302908D0B84202DA10F1040F6E
:1038900006DA0121CDE9011015E0AAF10101E9E7FD
:1038A000002805DC049901440491AAEB000102E020
:1038B000411C514500DD8A460499401A401C019084
:1038C0004FF000400290200704D40198504501DBDE
:1038D000CDF8048000208DF84F0002980DF14F07BD
:1038E000B0F1004F25D02B200E9002984FF0020827
:1038F00000280CDA404202902D200E9007E00A21A9
:103900000298FCF7D0FE3031029007F8011DB8F1A3
:103910000001A8F10108F2DC02980028EFD1791E1D
:103920000E980870307800F0200040F0450007F84D
:10393000020D12A8C01B00F107081498007800B10E
:10394000012000EB0A01019801EBE0710598414468
:10395000401A401E0590E00306D45B462146179AA4
:10396000059800F05DF805441498007818B15A469F
:10397000179990476D1CE00324D55B462146179AA2
:10398000059800F04DF805441CE00498002807DB7A
:10399000DDE90301884203DD0098405C179901E0EE
:1039A000179930205A469047049805F10105401CAC
:1039B00004900198401E019004D12E205A46179978
:1039C00090476D1CBAF10001AAF1010ADDDC05E0A7
:1039D00017F8010B5A46179990476D1CB8F1000172
:1039E000A8F10108F4DC5B462146179A0598ABE67E
:1039F0002D0000002B000000200000002DE9F04108
:103A0000044600251E461746880404D405E03946BE
:103A10002020B0476D1C641EF9D52846BDE8F08112
:103A20002DE9F041044600251E469046C80301D505
:103A3000302700E02027880404D505E041463846B9
:103A4000B0476D1C641EF9D52846BDE8F081000022
:103A500010B5044601E0FFF7D5FA14F8010B04494C
:103A60000028F8D1BDE810400A20FFF7CBBA0000CB
:103A70008800002000000000000000000102030494
:103A80000607080900000000010203042E2E2F443F
:103A90007269766572732F53544D33324634787899
:103AA0005F48414C5F4472697665722F5372632F91
:103AB00073746D3332663478785F6C6C5F73646DE9
:103AC0006D632E63002E2E2F447269766572732FFC
:103AD00053544D3332463478785F48414C5F4472DA
:103AE000697665722F5372632F73746D3332663447
:103AF00078785F68616C5F73642E63002E2E2F44AC
:103B00007269766572732F53544D33324634787828
:103B10005F48414C5F4472697665722F5372632F20
:103B200073746D3332663478785F68616C5F756189
:103B300072742E63002E2E2F447269766572732F75
:103B400053544D3332463478785F48414C5F447269
:103B5000697665722F5372632F73746D33326634D6
:103B600078785F68616C5F7263632E63002E2E2F1E
:103B7000447269766572732F53544D3332463478EC
:103B8000785F48414C5F4472697665722F53726367
:103B90002F73746D3332663478785F68616C5F6759
:103BA00070696F2E63002E2E2F44726976657273D2
:103BB0002F53544D3332463478785F48414C5F443C
:103BC00072697665722F5372632F73746D33326628
:103BD0003478785F68616C5F636F727465782E63A8
:103BE00000000000083C0008000000201000000059
:103BF0006C310008183C00081000002098410000BB
:103C00007C310008000000000100000010000000EE
:083C10000024F4000000000094
:040000050800018965
:00000001FF
