:020000040800F2
:100000007808002041020008C1680008FD5D000872
:10001000BD680008211D0008917200080000000062
:10002000000000000000000000000000F16A00086D
:10003000251D00080000000045690008516B0008FC
:100040005B0200085B0200085B0200085B0200081C
:100050005B0200085B0200085B0200085B0200080C
:100060005B0200085B0200085B0200085B020008FC
:100070005B0200085B0200085B0200085B020008EC
:100080005B0200085B0200085B0200085B020008DC
:100090005B0200085B0200085B0200085B020008CC
:1000A0005B020008356C00085B0200085B02000878
:1000B0005B0200085B0200085B0200085B020008AC
:1000C0005B0200085B0200085B0200085B0200089C
:1000D0005B020008817200085B0200085B020008F6
:1000E000291D00085B0200085B02000800F002F80E
:1000F00000F094F80AA090E8000C82448344AAF12E
:100100000107DA4501D100F089F8AFF2090EBAE82B
:100110000F0013F0010F18BFFB1A43F0010318473B
:10012000D07E0000F07E0000103A24BF78C878C16D
:10013000FAD8520724BF30C830C144BF04680C60ED
:10014000704700000023002400250026103A28BF35
:1001500078C1FBD8520728BF30C148BF0B60704739
:100160006E2900F07B81702900F0CF82662907F0AC
:100170009785652907F09485672907F0918561299E
:1001800007F0908503681B0A28BF41F080016929A8
:1001900000F02881642900F02581752900F0228172
:1001A0006F2900F05D82782900F09B82E92900F038
:1001B000F781E42900F0F481F52900F0F181EF29BD
:1001C00000F05A82F82900F09A820368DB0928BF00
:1001D00041F08001632900F09B87732900F0A0871C
:1001E000E32900F0AB87F32900F0B08700207047C7
:1001F0001FB501F005F804000020002107F03AFDCA
:10020000401C60600020002107F01EFDE0600FBC74
:1002100000F014F80FB41FBD10B510BD00F0C2FF00
:100220001146FFF7E5FF07F0D7F801F09FF803B498
:10023000FFF7F2FF03BC07F09DF8000001F0F5B8EE
:100240000948804709480047FEE7FEE7FEE7FEE76A
:10025000FEE7FEE7FEE7FEE7FEE7FEE704480549A6
:10026000054A064B70470000D56B0008ED000008FA
:10027000780200207808002078040020780400200C
:10028000704700000FB4044910B503AA029800F0AB
:1002900017F910BC5DF814FB700000200FB41CB5FA
:1002A000084B06AA7B4469460090059800F0EFF8D9
:1002B00004460020694600F0FDF820461CBC5DF8AD
:1002C00014FB00000D0200004FF0000200B51346C1
:1002D00094469646203922BFA0E80C50A0E80C5066
:1002E000B1F12001BFF4F7AF090728BFA0E80C5017
:1002F00048BF0CC05DF804EB890028BF40F8042B10
:1003000008BF704748BF20F8022B11F0804F18BF7C
:1003100000F8012B7047704770477047704770B501
:10032000044685690068C10601D5302600E0202614
:10033000C00707D070BDD4E9012130469047206A3C
:10034000401C20626D1EF6D570BD70B504468569EF
:100350000078C00707D170BDD4E901212020904763
:10036000206A401C20626D1EF6D570BD09684A05E2
:1003700001D540B27047C905FCD500B27047096885
:100380004A0501D5C0B27047C905FCD580B2704797
:1003900070B50C460546012A05D02878800600D5A0
:1003A000EA69002302E0012305E05B1C934202D2CC
:1003B000E05C0028F9D1A869E618C01AA861286A8B
:1003C000184428622846FFF7AAFF04E0D5E9012176
:1003D00014F8010B9047B442F8D32846FFF7B5FF55
:1003E00070BD00002DE9F041064600241068752913
:1003F000314616A510D0FFF7B9FF002802DA4042B7
:1004000013A507E031688A0701D512A502E0490764
:1004100004D511A5012401E0FFF7B1FF00210A2254
:1004200006F1240709E0B0FBF2FCB0FBF2F302FB9B
:100430001C00303078541846491C0028F3D123465C
:100440002A463046BDE8F04100F073BA00000000D3
:100450002D0000002B000000200000001168026841
:10046000006A530501D508700AE0D30501D508805C
:1004700006E0130603D5C217C1E9000200E00860D8
:100480000120704701694A1C02610878704700B575
:100490008FB0CDE901310021059105497944CDE9BD
:1004A00003101146684600F03BF90FB000BD000094
:1004B000E5FFFFFF0A6802F8010B0A6070470000C1
:1004C000074B70B50D467B44FFF7E1FF0446284615
:1004D00000F040FE10B14FF0FF3070BD204670BDFF
:1004E000D76E00002DE9FF5F15468A460446DFF807
:1004F000AC80F8440027D8E900103E46CDE9001052
:1005000010E03AF816106A4602A800F027FE411CD7
:1005100007D02178890603D5E269391891420DD8B0
:100520000744761C2078800602D5E069B84205DDD4
:10053000AE42E6DB3AF816000028E2D1A069C01B03
:10054000A0612046FFF7EBFED8E90010CDE90010CE
:10055000002017E03AF818106A4602A800F0FEFDE5
:10056000B0F1FF3F81460BD000250DF1080B05E0EF
:10057000D4E901211BF8050090476D1C4D45F7D3C8
:1005800008F10100B0428046E4DB206A3844206272
:100590002046FFF7DAFEBDE8FF9F0000B2770000BB
:1005A0002DE9F0418046D21D22F007020025D2E954
:1005B0000002F52915A614D0011E72F1000106DA19
:1005C0000023D0EB030063EB020211A608E0D8F889
:1005D00000108B0701D50FA602E0490701D50EA632
:1005E00001251146002408F1240704E000F05CF91D
:1005F00030323A55641C50EA0102F7D12B4632469C
:1006000021464046BDE8F04100F093B900000000EB
:100610002D0000002B0000002000000030B400215D
:1006200000F1240408E002F00705D208303542EA60
:100630004372DB086554491C52EA0305F3D1046890
:10064000002310A2250708D504F020040C4304D091
:10065000C46901230CA2641EC46130BC00F069B9F6
:1006600010B5044621461068FFF789FE0246204671
:10067000BDE810400023D1E7D21D22F00701D1E9E7
:100680000023CBE70000000030000000F0B40D466E
:100690000188090502D5214C7C4402E01F4C7C44B2
:1006A0000E34002100F1240608E002F00F071209C1
:1006B000E75D42EA03721B097754491C52EA0307BB
:1006C000F3D102780023120704D5702D06D009B1AA
:1006D000022311342246F0BC00F02BB90123103460
:1006E000F8E770B504460D4621461068FFF747FE4F
:1006F000024629462046BDE870400023C6E7D21DC9
:1007000022F00703D3E90023C0E70368126843F02F
:10071000200303600823C3610023B7E714760000B9
:100720002DE9F05F894604464FF0000ADFF874B106
:10073000FB44C0F820A02046E1688847002874D018
:10074000252806D0D4E901219047206A401C206268
:10075000F1E700265F462046E168884720280546E5
:1007600007DB312D05D2781910F8200C08B10643AB
:10077000F1E7B00701D526F00406C4F81CA0002755
:10078000C4F818A02A2D09D0284607F056FA38B325
:1007900004EB8708303DC8F8185019E059F8041BDD
:1007A000204604EB87029161E1688847012F0546E6
:1007B00018D1E069002820DA26F020061DE0D8F8DC
:1007C000180000EB800005EB40003038C8F8180036
:1007D0002046E1688847054607F02FFA0028EED149
:1007E000012F0AD02E2D08D12046E16888477F1CB2
:1007F0000546022F46F02006C4DBA069002803DA74
:10080000404246F00106A061F00701D026F0100634
:100810006C2D0BD0682D09D04C2D39D06A2D35D0D8
:10082000742D35D07A2D33D016E038E0E1682F46AC
:1008300020468847B842054609D16C2F26D04FF490
:100840008060E168064320468847054604E06C2F37
:100850001AD04FF4807006430DB3A5F1410019285A
:1008600002D8203546F400664A46294620462660CE
:100870004E46FFF775FC80B101280BD0F61D26F01F
:10088000070000F1080956E74020E4E78020D8E798
:100890000020D6E706F104094DE7284652E7206A12
:1008A000BDE8F09FA475000030B5B0F10A0271F107
:1008B00000034FEA900E4EEA817EB0EB0E0061EB32
:1008C00091014FEA101E4EEA017E10EB0E0041EB43
:1008D00011114FEA102E4EEA016E10EB0E0041EBA3
:1008E00011214FEA104E4EEA014E10EB0E0041EB83
:1008F0001141401841F100014FEAD00040EA417037
:100900004FEAD1014FEA810444EA907410EB80056C
:1009100044EB01046D1944EB0404521BA3414FF056
:10092000000348BF0A3200D530BD401C41F1000130
:1009300030BD2DE9F0470D4699469246044600F138
:1009400024080168880604D5E06921F010012160BF
:1009500000E00120A84201DD471B00E00027A1695B
:100960007A1902EB0900081AA0612078C00602D4A7
:100970002046FFF7D4FC002608E0D4E901211AF84C
:1009800006009047206A401C761C20624E45F4DB2E
:100990002078C0060AD52046FFF7C1FC06E0D4E95E
:1009A000012130209047206A401C2062381EA7F1A8
:1009B0000107F4DC07E0D4E9012118F805009047AD
:1009C000206A401C2062281EA5F10105F3DC2046A8
:1009D000FFF7BBFC2078000602D50220BDE8F087B7
:1009E0000120FBE72DE9FF4F0C461E464FF0FF3775
:1009F0008BB0D2E90001DDF860800A908A46C1F32D
:100A00000A5505B93D46002108464FF00000BAF1ED
:100A1000000F00F4400005DA00EB80004FF44001C5
:100A200001EA50004FEA9059B9F1010F00DDB946D3
:100A30000A9850EA4A000ED044F61050A5F2FF354D
:100A400045432F14B8F1000F1ED07542291E1EDD3C
:100A5000C9F100021CE0B8F1010F4FF0000001D015
:100A6000302103E0F24305E02154401CB042FBDB9F
:100A700030460022002121540B99C1F80880C1E9B9
:100A800000200FB0BDE8F08FBD1B6D1CDEE74A46AD
:100A900000DA694206A800F0F7FB06AB93E807000E
:100AA00003AB83E8070050460A9906F0EAFC8DE89C
:100AB0000700A0F500501F3800900398002D0ADDB4
:100AC00042F21F014A460844002303A903906846E6
:100AD00006F053FF09E0A0F500504A461F380023F6
:100AE00003A90390684606F05DFF8DE80700000447
:100AF000000C03D04FF0FF30410800E01046B8F181
:100B0000000F03D00022009215461EE0751E05D48A
:100B1000FFF7CAFE303262556D1EF9D5B346012289
:100B2000084302D000227F1C04E02078302801D145
:100B300000227F1E002A099784D01DE0112D07DABC
:100B4000FFF7B2FE303262556D1C50EA0102F5D15A
:100B5000084302D00098C8B10EE00021681E05E0ED
:100B6000235C625C63542254401E491C8142F7DBC3
:100B7000AB46A81B401E0990002004F80B000B9800
:100B8000099AC0F80880C0E9002B7AE711264FF0D7
:100B9000000857E72DE9F04F88460446D21D22F0A1
:100BA000070191B0D1E90001CDE90A0107F031F860
:100BB00002460B98C00F01D02D2007E02068810766
:100BC00001D52B2002E0202101EAC000032A099070
:100BD00001D0072A05DB03464146204600F014FBFE
:100BE0000BE12078800601D5E06900E00620B8F12D
:100BF000650F814606D0B8F1660F18D0B8F1670FBF
:100C000070D131E00020B9F1110F009001DB112308
:100C100001E009F101030AAA01A90CA8FFF7E2FE0D
:100C2000DDE90C70002609F10105834647E001204B
:100C30004B4600904FF000470AAA01A90CA8FFF705
:100C4000D1FEDDE90DB00C995D46002610B909F121
:100C500001000D18B9EB050003D4C0F1FF3609F10E
:100C60000105A5EB09002BE0B9F1010F01DA4FF006
:100C700001090020B9F1110F0090484601DD112350
:100C800000E003460AAA01A90CA8FFF7ABFEDDE9C4
:100C90000C704D4600268346207800070AD4AB45E9
:100CA00000DA5D4601A8012D04DD411911F8011C8F
:100CB000302907D04F4502DA17F1040F04DA01207A
:100CC00082460FE06D1EEEE7002F02DCED1B3E4476
:100CD00003E0781CA84200DD7D1CB81B00F1010A6E
:100CE0004FF000472078000703D4AA4501DB4FF0FE
:100CF000FF3A0021B7F1004F0DF143088DF8431082
:100D000024D002202B23002F01DA7F422D230A2139
:100D1000021EA0F1010000DC5FB197FBF1FC97FB24
:100D2000F1F201FB1C7C17460CF1300C08F801CDE8
:100D3000EEE7A8F1010003702188090501D54521DE
:100D400000E06521A0F1010800F8011C09980FA935
:100D5000A1EB0807FF1D00B10120411901EBEA706A
:100D6000A1693844081A401EA0612078C00602D448
:100D70002046FFF7D4FA099828B1D4E90121904719
:100D8000206A401C20622078C00622D52046FFF74A
:100D9000C6FA1EE0002E04DBB34502DD01A8805D2B
:100DA00000E03020D4E901219047206A401C2062F5
:100DB000761CAAF101005FEA000A0AD100F020FACD
:100DC000C0680168405CD4E901219047206A401C5A
:100DD0002062281EA5F10105DCDC07E0D4E9012131
:100DE00018F8010B9047206A401C2062381EA7F1BA
:100DF0000107F3DC2046FFF7A8FA032011B041E613
:100E00002DE9F04F04460D46D21D22F0070089B0AF
:100E1000D0E900974846394606F0FBFE0246F80F37
:100E200001D02D2307E02068810701D52B2302E0A4
:100E3000202101EAC0038DF820300BB1012000E031
:100E40000020032A824601D0072A04DB29462046D7
:100E500000F0DAF93FE12078800601D40D2500E0AA
:100E6000E569C7F30A560D2D49DA00214FEA175BF1
:100E700008464FF00000002F00F4400007DA00EBB6
:100E800080004FF4400100EBD07001EA6000811552
:100E9000012901DD4FF0FF3100224FEA850CBCF142
:100EA000180F06D31346ACF118004FF08052C24021
:100EB00003E04FF4801323FA0CF30CF10C0CBCF19B
:100EC000200F04D3ACF1200C09FA0CF001E007FA72
:100ED0000CF000294FF0004801DD18B90FE00ED1E9
:100EE00040450CD319EB02095F4121B9404502D1BD
:100EF0009F4329EA0209BBEB175F00D0761C2088CC
:100F0000000502D57B48784402E07A4878441938D5
:100F100008AA302302F80A30037C0AF10101002EEE
:100F20000AF1020A53546A4602DC4FF0300101E034
:100F30004FF031014FF001088DF8001002D0A6F2F9
:100F4000FF3603E059EA470100D06B4E002D02DC6A
:100F50002178090704D54FF002082E218DF80110E1
:100F6000C44600210BE0C7F303433F01C35C491CA7
:100F70006D1E02F80830052908F1010801DA002D7C
:100F8000F1DC00210CE000EB1973491C1B786D1E8D
:100F9000082902F808304FEA091908F1010801DAB6
:100FA000002DF0DC21688B0602D516E0A8F10108BF
:100FB000E04505DD02EB080313F8013C302BF5D0CA
:100FC000B8F1000F09DD02EB080313F8013C2E2BEA
:100FD00003D1090701D4A8F10108002D05DD3E2148
:100FE00002F808106D1E08F10108407C002E02F87E
:100FF000080008F1010804DA2D20764202F8080002
:1010000002E02B2002F808000A214FF47A70864291
:1010100008F101080BDB96FBF0F3303302F80830DF
:1010200096FBF0F308F1010800FB136601E0642E63
:101030000CDB642096FBF0F3303302F8083096FBAB
:10104000F0F308F1010800FB136601E00A2E06DB4D
:1010500096FBF1F0303002F8080008F1010896FB29
:10106000F1F001FB1060303002F80800A16908F1CE
:10107000010808EB050202EB0A00081AA0612078BB
:10108000C00602D42046FFF74AF9216A08AE01EBF8
:101090000A00206204E0D4E9012116F8010B904710
:1010A000BAF1010AF7D22078C00602D52046FFF730
:1010B00036F96E4609E016F8010B3E280FD0D4E948
:1010C00001219047206A401C2062B8F10108F2D249
:1010D0002046FFF73AF909B00320BDE8F08F206AF7
:1010E0002844206203E0D4E90121302090476D1E9E
:1010F000EBD3F8E7F26D000002FCFFFF10B5436987
:1011000013B1AFF3008001E0FFF742F9012010BDF9
:10111000127800F124010A7000224A700122EDE7E2
:1011200011684FF0FF32E9E710B5436913B1AFF32F
:10113000008001E0FFF7D6F9012010BD128800F110
:10114000240182840022C2840122EDE711684FF05D
:10115000FF32E9E7007B00F0800070472DE9F041A5
:1011600016460C46054600F043F8036893F8010163
:10117000012807D0FF2C12D8185D80B101202C70F7
:10118000BDE8F081D3F807013246214603F2071388
:10119000C7182846BC46BDE8F041002360474FF021
:1011A000FF30EDE7754600F0EBF8AE460500694606
:1011B000534620F00700854618B020B5FFF74EF8DB
:1011C000BDE820404FF000064FF000074FF0000848
:1011D0004FF0000BAC46ACE8C009ACE8C009ACE885
:1011E000C009ACE8C00921F007018D467047000036
:1011F00010B500F005F8001D10BD00BF796A0000B1
:1012000000487047300000202DE9F0411F46044699
:1012100003260168072A01F4006004DB08B116A563
:1012200005E016A503E008B115A500E015A521F01D
:1012300010002060A069C01EA0610FB1401EA06117
:101240002046FFF76CF84FB1D4E9012138469047AA
:10125000206A401C2062C01C206206E0206AFAE777
:10126000D4E9012115F8010B9047761EF8D22046EB
:10127000FFF76BF8BDE8F0814E414E006E616E00E5
:10128000494E4600696E66002DE9F04781461646D4
:101290008AB0354878440DC88DE80D00324878444E
:1012A000801C03AC0DC884E80D0041F69B30084457
:1012B000372190FBF1F290FBF1F5A5F1800501FBE0
:1012C00012041B3C02D56442012000E00020DFF83C
:1012D00098A080460027FA44AAF1BE0A0EE0E00773
:1012E0000AD03246684607EB470101230AEB810129
:1012F00006F058FB8DE8070064107F1C002CEED12F
:10130000194F7F44AE3F19E0E80715D007EB0410F2
:101310000DF1180A90E80E008AE80E00C068F0424D
:1013200001D1981908903246012306A903A806F0B6
:1013300039FB03AB83E807006D10641C002DE3D17B
:101340004FF0010332466946B8F1000F03A802D0FE
:1013500006F013FB01E006F025FBC9E90001C9F81E
:1013600008200AB0BDE8F087F46A000010B5044612
:10137000AFF300802046BDE81040FEF758BF0000E4
:1013800000487047100000204FF0013C50F8042B3B
:1013900051F8043B9A4221D1A2EB0C03934313EA88
:1013A000CC1317D150F8042B51F8043B9A4215D1B5
:1013B000A2EB0C03934313EACC130BD150F8042B8C
:1013C00051F8043B9A4209D1A2EB0C03934313EA70
:1013D000CC13DBD04FF00000704700BFD01A01BA29
:1013E000B1FA81F101F0180122FA01F0CB40DBB231
:1013F000C0B2C01AC1F120012CFA01F3D11A9143F5
:1014000011EAC311E6D170470246C91C21F003015D
:10141000D2E900031B1A8B4201D20020704701441D
:10142000C91D21F00701116070472DE9F34F83B00A
:1014300000274FF48074BA4603A821468DF8007047
:10144000FFF7E2FF5FEA000801D100F076F82146DD
:10145000404605F089FF060009D04FF0010B4546D4
:10146000C14616F8014B8FB15C2C16D01CE008F178
:1014700008004146C8F800000020C8F80400D8F869
:1014800000402070012005B0BDE8F08F222C01D073
:10149000272C0FD12746BA462CE03078222807D0D7
:1014A0005C2805D0272803D0BC4203D1002721E0C7
:1014B000761C04464CB12FB9202C06D0A4F10900AB
:1014C000042802D905F8014BCBE74D4502D1BAF10A
:1014D000000F0FD052464946002005F8010B684620
:1014E000AFF300809DF8000070B14D464FF0000A48
:1014F0000BF1010B002CB4D14FEA8B0103A8FFF7CD
:1015000083FF040002D004E0A946EFE7002000F0CA
:1015100014F800204246C4F8008005E012F8011BD0
:1015200011B9401C44F82020AA42F7D3002144F806
:1015300020102146A7E77047704710B500F00AF861
:10154000BDE81040AFF30080002801D005F012BFC5
:101550007047000010B5012805D0002103A000F05D
:1015600021F8012010BD09A1F8E7000053494752B6
:10157000544D454D3A204F7574206F662068656163
:1015800070206D656D6F7279000000003A2048652B
:101590006170206D656D6F727920636F7272757006
:1015A0007465640070B505460C460A2000E06D1CA9
:1015B00005F0E6FE35B128780028F8D102E0641C79
:1015C00005F0DEFE14B120780028F8D1BDE87040A7
:1015D0000A2005F0D5BE000080B586B013468C46C3
:1015E0008646059004910392059804994FF47A7207
:1015F00000FB02100293CDF804C0CDF800E000F02B
:1016000007F8BDF80C0000F019F806B080BD000026
:1016100080B582B0014601900091FFE70198002853
:1016200009D0FFE740F2E23000F008F8FFE7019848
:1016300001380190F2E702B080BD000080B586B0AD
:101640000146ADF8160040F2EC10C2F2000002684C
:101650006FF001031361BDF81620C2F57A7292B2E1
:1016600003685A62049103F067FB0390FFE740F2BE
:10167000EC10C2F2000000680069C007002801D128
:10168000FFE7F4E740F2EC10C2F20000029003F032
:101690009FFBDDF808E0DEF800106FF001020A6140
:1016A000019006B080BD000080B582B040F60040D9
:1016B000C4F201004FF4006100F014FF1421002077
:1016C0000190019AFFF788FF02B080BD80B586B017
:1016D00000F0A8F84FF0680E6C20FF2204907046CE
:1016E0000499CDF80CE000F0B5F823210020039A0E
:1016F00002901046029A00F0ADF83721822203983A
:1017000000F0A8F838210122039800F0A3F86A211C
:101710000398029A00F09EF81B211820039A01906A
:101720001046019A00F096F81C210398019A00F0E7
:1017300091F81D210398029A00F08CF81A210222D8
:10174000039800F087F819210398029A00F082F8B4
:101750007521039800F038F88DF817000C200299D5
:1017600000F032F88DF816009DF817109DF816203D
:1017700047F6AA70C0F60000FEF784FD03990090BA
:1017800008460499029A00F065F89DF8160048286A
:1017900017D1FFE70C200B21012200F05BF8FFE7D7
:1017A0000C200B2100F010F8002804D0FFE70520E2
:1017B00000F058FBF4E70C200A21162200F04AF84A
:1017C000FFE706B080BD000010B588B00A460346AA
:1017D0008DF81F008DF81E109DF81F0041009DF828
:1017E0001E00EC466FF07F4ECCF808E04FF0010E83
:1017F000CCF804E00DF11D04CCF8004040F2001CD0
:10180000C2F2000C06906046DDF818C005926246F0
:101810000493734601F0F6F89DF81D1003900846F6
:1018200008B010BD80B584B068206B218022039081
:10183000029100F00FF83220019000F013FB01221A
:101840000398029900F006F8019800F00BFB04B031
:1018500080BD0000B0B588B013468C4686468DF832
:101860001F008DF81E108DF81D209DF81F004100EF
:101870009DF81E2068466FF07F4484600124446018
:101880000DF11D05056040F20010C2F20000069344
:101890002346CDF814C0CDF810E001F013FB0390FF
:1018A00008B0B0BD80B582B001468DF807009DF844
:1018B00007000028009109D0FFE740F60000C4F2BD
:1018C00001001021012200F03DFE08E040F600007A
:1018D000C4F201001021002200F034FEFFE702B044
:1018E00080BD000080B582B000F00AFA00F0AAF8CE
:1018F0000020FFF7D7FFC72000F080F94FF0010E5E
:1019000001907046FFF7CEFF00F09CF802B080BD5A
:1019100080B58AB001468DF827009DF82700002881
:10192000089103D0FFE7FFF7DDFFFFE740F2C800B3
:10193000C2F200004FF4807101614FF480324261C5
:10194000416202624FF48051C16181614FF0807148
:101950008162079000F07AF9079AD160906000F0F8
:10196000B5F80799086000F079F807994860486869
:1019700043F21502C0F2EF02904206903FD0FFE71B
:1019800044F21500C0F2EF00069981422AD0FFE729
:1019900044F21700C0F2EF000699814215D0FFE72C
:1019A00044F21800C0F2EF000699814234D1FFE7FB
:1019B00040F2C800C2F200002C3047F69971C0F620
:1019C0000001FEF76BFC059033E040F2C800C2F264
:1019D00000002C3047F68B71C0F60001FEF75EFC6C
:1019E000049026E040F2C800C2F200002C3047F616
:1019F0008471C0F60001FEF751FC039019E040F23B
:101A0000C800C2F200002C3047F69271C0F6000107
:101A1000FEF744FC02900CE040F2C800C2F2000065
:101A20002C3047F6A171C0F60001FEF737FC01909B
:101A3000FFE7FF2000F0E2F84FF0000E0090704644
:101A40000AB080BD80B5FFE7012000F097F8C0071D
:101A5000002801D0FFE7F7E780BD000080B584B023
:101A6000FFF7F0FF4FF0000E7046CDF808E0FFF7EB
:101A700019FF02988DF80E00ADF80C009F2000F0C1
:101A8000BDF84FF0FF0E01907046CDF800E000F079
:101A9000B5F88DF80C00009800F0B0F88DF80D0046
:101AA000009800F0ABF88DF80E000120FFF7FAFE69
:101AB000FFF7C8FF9DF80C009DF80DE09DF80E1093
:101AC000000440EA0E20084404B080BD80B588B010
:101AD0000020ADF81E000690FFF7E4FE902000F015
:101AE0008DF84FF0FF0E05907046CDF810E000F035
:101AF00085F8DDF810E00390704600F07FF8DDF81F
:101B000018E00290704600F079F8DDF810E00190DE
:101B1000704600F073F88DF81E00049800F06EF81F
:101B20008DF81F000120FFF7BDFE9DF81E009DF8F7
:101B30001FE04EEA002008B080BD000080B582B0F2
:101B4000FF208DF8060068466FF07F41016040F28B
:101B50005410C2F200000DF106010DF1070201233D
:101B600002F034FD002804D0FFE7FF208DF80700C5
:101B7000FFE79DF8070002B080BD000080B586B089
:101B800001468DF8160000208DF815000491FFF72E
:101B900089FE9DF8160001460128039108D0FFE751
:101BA0000398022809D0FFE7039803280AD00EE023
:101BB000052000F023F8029010E0352000F01EF818
:101BC00001900BE0152000F019F8009006E00120CC
:101BD000FFF768FE00208DF817000BE0FFF7AEFF5F
:101BE0008DF815000120FFF75DFE9DF815008DF8BA
:101BF0001700FFE79DF8170006B080BD80B584B0E0
:101C000001468DF80F009DF80F008DF80D00684615
:101C10006FF07F42026040F25410C2F200000DF1FA
:101C20000D020DF10E034FF0010C029111461A4600
:101C3000634602F0CBFC002804D0FFE7FF208DF8BC
:101C40000E00FFE79DF80E0004B080BD80B58CB09B
:101C5000FFF7F8FE4FF0000E7046CDF818E0FFF7E2
:101C600021FE06988DF82F00099008904B20FFF771
:101C7000C5FF4FF0FF0E05907046CDF810E0FFF75E
:101C8000BDFFDDF810E003907046FFF7B7FFDDF809
:101C900010E002907046FFF7B1FFDDF810E0019010
:101CA0007046FFF7ABFFDDF818E0CDF81CE00090C0
:101CB000FFE70798072819DCFFE708980999090248
:101CC00041EA1061000208900991FFF737FF8DF893
:101CD0002F00089809999DF82FE040EA0E0009911D
:101CE0000890FFE7079801300790E2E70120FFF72F
:101CF000D9FDFFF7A7FE089809990CB080BD000038
:101D000080B582B00020FFF7CDFD0620FFF776FFFB
:101D10004FF0010E01907046FFF7C4FD02B080BD88
:101D2000FFE7FEE77047000080B54FF4804000F009
:101D3000D3F84FF4004000F0CFF880BD70470000AA
:101D400080B588B00146079000208DF81B000798E9
:101D500090F821000228059107D0FFE70798042199
:101D6000816301208DF81B0077E007980068016807
:101D700021F00E01016007980068016821F001015F
:101D80000160079800680821C4F20201884203D16B
:101D9000FFE70120049047E0079800681C21C4F287
:101DA0000201884203D1FFE71020039039E0079831
:101DB00000683021C4F20201884204D1FFE74FF4E9
:101DC000807002902AE0079800684421C4F2020162
:101DD000884204D1FFE74FF4805001901BE0079840
:101DE00000685821C4F20201884204D1FFE74FF491
:101DF000803000900CE0079800686C21C4F202016A
:101E00004FF08072884208BF4FF480120092FFE7C3
:101E100000980190FFE701980290FFE70298039075
:101E2000FFE703980490FFE704980421C4F202013D
:101E300008600798012180F82110FFE7079800212A
:101E400080F82010FFE70798406B002804D0FFE7D8
:101E50000798416B8847FFE7FFE79DF81B0008B034
:101E600080BD000080B584B001460390009100F071
:101E7000B1FB02900398019001980130002809D02D
:101E8000FFE740F20400C2F2000000780199084424
:101E90000190FFE7FFE700F09DFBDDF808E0A0EB15
:101EA0000E00DDF804E0704501D2FFE7F3E704B06F
:101EB00080BD000080B582B00146ADF80600BDF8D7
:101EC0000600B0F5804F009103D1FFE7FFF7ECFB70
:101ED00000E0FFE702B080BD80B582B00146ADF8FA
:101EE000060040F21440C4F201000068BDF806206C
:101EF000104200910CD0FFE7BDF8060040F21441FB
:101F0000C4F201010860BDF80600FFF7D3FFFFE748
:101F100002B080BD80B594B00A460346139012917A
:101F2000002011900D90139840F60001C4F20101B9
:101F300088420992089320D0FFE7139840F60041A9
:101F4000C4F20101884218D0FFE7139841F2000162
:101F5000C4F20101884210D0FFE7139841F200411A
:101F6000C4F20101884208D0FFE7139841F600014E
:101F7000C4F20101884201D1FFE707E047F6107083
:101F8000C0F60000BD2105F001FAFFE712980088B5
:101F9000002806D0FFE712984088002801D1FFE70B
:101FA00007E047F61070C0F60000BE2105F0EEF91C
:101FB000FFE712984068002849D0FFE71298406870
:101FC000012844D0FFE71298406811283FD0FFE76E
:101FD0001298406802283AD0FFE712984068122809
:101FE00035D0FFE7129840680021C1F21101884204
:101FF0002DD0FFE7129840680021C1F221018842EC
:1020000025D0FFE7129840680021C1F231018842D3
:102010001DD0FFE7129840680021C1F212018842EA
:1020200015D0FFE7129840680021C1F222018842D2
:102030000DD0FFE7129840680021C1F232018842BA
:1020400005D0FFE712984068032801D1FFE707E0B9
:1020500047F61070C0F60000BF2105F097F9FFE7C2
:10206000FFE7129800681199C840002800F03882F4
:10207000FFE71198012101FA00F010901298006812
:10208000109908400F900F981099884240F02482D0
:10209000FFE7139840F60001C4F20101884220D006
:1020A000FFE7139840F60041C4F20101884218D0BE
:1020B000FFE7139841F20001C4F20101884210D0F9
:1020C000FFE7139841F20041C4F20101884208D0B1
:1020D000FFE7139841F60001C4F20101884201D1E3
:1020E000FFE707E047F61070C0F60000CD2105F0CD
:1020F0004DF9FFE7129840680028079000F0B8807B
:10210000FFE70798012840D0FFE70798022875D01D
:10211000FFE70798032800F0DE80FFE70798112803
:102120004FD0FFE70798122800F08580FFE70020D6
:10213000C1F211000799814200F09A80FFE7002068
:10214000C1F212000799814200F09280FFE700205F
:10215000C1F221000799814200F08A80FFE7002048
:10216000C1F222000799814200F08280FFE700203F
:10217000C1F23100079981427AD0FFE70020C1F215
:1021800032000799814273D0A8E01298C0680228F3
:102190000AD0FFE71298C068012805D0FFE712981F
:1021A000C068032801D1FFE707E047F61070C0F6CA
:1021B0000000D52105F0EAF8FFE71298C0680D90FD
:1021C0008DE01298C06802280AD0FFE71298C06814
:1021D000012805D0FFE71298C068032801D1FFE766
:1021E00007E047F61070C0F60000DC2105F0CEF8DD
:1021F000FFE71298C06804300D9070E01298C06834
:1022000002280AD0FFE71298C068012805D0FFE72E
:102210001298C068032801D1FFE707E047F6107065
:10222000C0F60000E32105F0B1F8FFE71298C0689E
:1022300008300D9053E01298C06802280AD0FFE7DA
:102240001298C068012805D0FFE71298C0680328DB
:1022500001D1FFE707E047F61070C0F60000EA2161
:1022600005F094F8FFE71298C0680C300D9036E046
:102270001298806800280AD0FFE712988068012829
:1022800005D0FFE712988068022801D1FFE707E038
:1022900047F61070C0F60000F72105F077F8FFE769
:1022A00012988068002803D1FFE704200D9011E008
:1022B00012988068012806D1FFE708200D90109839
:1022C0001399086105E008200D9010981399486152
:1022D000FFE7FFE703E000200D9000E0FFE70F9825
:1022E000FF2803D8FFE71398069003E01398043003
:1022F0000690FFE706980C900F98FF2804D8FFE798
:1023000011988000059006E011986FF01F0101EB15
:1023100080000590FFE705980B900C9800680B99DA
:102320000F228A4090430D9A02FA01F108430C995A
:10233000086012984068C000002840F1CC80FFE798
:10234000FFE741F21800C4F20200016841F0010108
:102350000160006800F001000A900A980490FFE70D
:10236000119820F003000821C4F2010140580E909A
:10237000119800F0030080000F2101FA00F00E997F
:1023800021EA00000E90139840F60001C4F201010A
:10239000884203D1FFE70020039026E0139840F61F
:1023A0000041C4F20101884203D1FFE701200290FD
:1023B00018E0139841F20001C4F20101884203D1F0
:1023C000FFE7022001900AE0139841F20041C4F2B5
:1023D00001010422884208BF03220192FFE701980D
:1023E0000290FFE702980390FFE70398119901F02C
:1023F0000301890088400E9908430E900E981199A8
:1024000021F003010822C4F20102885012984068AA
:10241000C003002809D5FFE70F9840F20041C4F23D
:1024200001010A681043086009E00F9840F200417A
:10243000C4F201010A6822EA00000860FFE712986E
:1024400040688003002809D5FFE70F9840F2044157
:10245000C4F201010A681043086009E00F9840F2D5
:102460000441C4F201010A6822EA00000860FFE7A3
:1024700012984068C002002809D5FFE70F9840F283
:102480000841C4F201010A681043086009E00F988E
:1024900040F20841C4F201010A6822EA0000086023
:1024A000FFE7129840688002002809D5FFE70F98DF
:1024B00040F20C41C4F201010A681043086009E0CF
:1024C0000F9840F20C41C4F201010A6822EA0000B0
:1024D0000860FFE7FFE7FFE7119801301190C0E5C2
:1024E00014B080BD80B584B00A4603460390ADF8B1
:1024F0000A10BDF80A0000280192009305D0FFE7FA
:102500000020002801D1FFE708E047F61070C0F670
:1025100000004FF4F57104F039FFFFE70398C0683D
:10252000BDF80A10084205D0FFE7BDF80A0003997C
:10253000486104E0BDF80A0003990861FFE704B0B0
:1025400080BD000080B586B013468C468646059057
:10255000ADF812108DF81120BDF812000028039379
:10256000CDF808C0CDF804E005D0FFE70020002832
:1025700001D1FFE708E047F61070C0F600004FF405
:10258000EA7104F003FFFFE79DF81100002805D071
:10259000FFE79DF81100012801D1FFE708E047F6A9
:1025A0001070C0F6000040F2D51104F0EFFEFFE716
:1025B0009DF81100002805D0FFE7BDF8120005992D
:1025C000086105E0BDF81200000405990861FFE705
:1025D00006B080BD40F27020C2F200000068704773
:1025E00080B590B001460E900E9800280B9104D152
:1025F000FFE701208DF83F00FFE10E98006845F2EB
:102600000041C4F20001884209D0FFE70E9800683B
:1026100045F60001C4F20001884201D1FFE708E05D
:1026200047F6BC50C0F6000040F2CD1104F0AEFEFB
:10263000FFE70E98406800280AD0FFE70E98406830
:1026400041F68021C0F20601884201D8FFE708E088
:1026500047F6BC50C0F600004FF4E77104F096FE58
:10266000FFE70E988068002806D0FFE70E98806884
:10267000B0F5804F01D1FFE708E047F6BC50C0F647
:10268000000040F2CF1104F081FEFFE70E98C06811
:10269000800A002801D1FFE708E047F6BC50C0F6E9
:1026A00000004FF4E87104F071FEFFE70E98006936
:1026B000B0F5804F06D0FFE70E980069B0F5404FA7
:1026C00001D1FFE708E047F6BC50C0F6000040F239
:1026D000D11104F05BFEFFE70E984069002805D099
:1026E000FFE70E984069012801D1FFE708E047F6AF
:1026F000BC50C0F600004FF4E97104F047FEFFE75C
:102700000E9880696FF0FE01084201D1FFE708E0F2
:1027100047F6BC50C0F6000040F2D31104F036FE7C
:10272000FFE70E98C069002805D0FFE70E98C06942
:10273000402801D1FFE708E047F6BC50C0F6000092
:102740004FF4EA7104F022FEFFE70E98006A0028B9
:1027500005D0FFE70E98006A802801D1FFE708E066
:1027600047F6BC50C0F6000040F2D51104F00EFE52
:10277000FFE70E9890F83D00002808D1FFE70E987B
:10278000002180F83C100E9800F0CCFCFFE70E987A
:10279000242180F83D100E980068016821F00101A5
:1027A000016001F031F80C900E98406848F2A06189
:1027B000C0F2010188420BD8FFE70C9848F2804133
:1027C000C0F21E010022884238BF01220A920AE0AC
:1027D0000C9840F60011C0F23D010022884238BF3B
:1027E00001220A92FFE70A98012804D1FFE701209D
:1027F0008DF83F0001E10C984DF68361C4F21B3166
:10280000A0FB0101890C0D910E990968496821F01E
:102810003F010D9A11430E9A126851600E99096892
:10282000096A21F03F010E9A526848F2A063C0F293
:1028300001039A420990089104D8FFE70D980130EE
:1028400007900FE00D984FF49671484344F6D3512A
:10285000C1F26201A0FB0101012202EB911106907D
:102860000791FFE70798089908430E9A12681062CB
:102870000E980068C0694CF6FF7290430E9A526839
:1028800048F2A063C0F201039A4205901FD8FFE707
:102890000C9801380E9949684900B0FBF1F00130FD
:1028A0006FF31F30032803D8FFE7042004900BE0E8
:1028B0000C9801380E9949684900B0FBF1F00130DD
:1028C0006FF31F300490FFE7049803904FE00E98D9
:1028D000806800280DD1FFE70C9801380E994968EF
:1028E00001EB4101B0FBF1F001306FF31F300290BA
:1028F0000DE00C9801380E99496819225143B0FB3C
:10290000F1F00130042161F31F300290FFE70298DB
:102910000005002803D1FFE70120019024E00E9874
:10292000806800280DD1FFE70C9801380E9949689E
:1029300001EB4101B0FBF1F001306FF31F3000906B
:102940000DE00C9801380E99496819225143B0FBEB
:10295000F1F00130042161F31F300090FFE700988F
:1029600040F400400190FFE701980390FFE70398CF
:10297000059908430E9A1268D0610E9800680068A5
:1029800020F0C0000E9A1368D2F81CC0126A42EA06
:102990000C02104318600E980068806848F2FF32FD
:1029A00090430E9A1368D2F80CC0126942EA0C02E6
:1029B000104398600E980068C06820F0FF000E9ADF
:1029C0001368D2F814C0926942EA0C021043D8602E
:1029D0000E980068026842F0010202600E98002220
:1029E00002640E98202380F83D300E9802630E9802
:1029F00080F83E208DF83F20FFE79DF83F0010B0A3
:102A000080BD00002DE9F0419AB0DDF888C0DDF806
:102A100084E0209C1D4616460F4680461490ADF873
:102A20004E10ADF84C20ADF84A30ADF848E0CDF886
:102A300030C00B940A9509960897CDF81C80FFF7D3
:102A4000C9FD1190BDF84A00012805D0FFE7BDF887
:102A50004A00102801D1FFE708E047F6BC50C0F655
:102A6000000040F60E2104F091FCFFE7149890F866
:102A70003D00202840F01C82FFE7149811996A4617
:102A800011600221C0F210010122192303F0D6FBCC
:102A9000002804D0FFE702208DF857000CE2FFE782
:102AA000149890F83C00012804D1FFE702208DF82B
:102AB000570001E21498012180F83C10FFE7FFE77E
:102AC000149800680068C007002807D1FFE7149831
:102AD0000068016841F001010160FFE71498006897
:102AE000016821F4006101601498222180F83D10F2
:102AF0001498402180F83E10149800210164209819
:102B000014994862BDF84800149948851498408D7E
:102B10001499088514980021CFF6FF71C1621498AA
:102B2000BDF84E10BDF84C20BDF84A30DDF888C025
:102B3000DDF844E06C46C4F804E0C4F800C003F0DB
:102B400093F9002804D0FFE701208DF85700B3E186
:102B50001498008D002815D1FFE7FFE700201090A2
:102B6000149800684069109014980068806910906B
:102B700010980690FFE714980068016841F400710E
:102B8000016060E01498008D012820D1FFE71498BF
:102B90000068016821F480610160EFF3108072B673
:102BA0001690FFE700200F901498006840690F907E
:102BB0001498006880690F900F980590FFE71498AB
:102BC0000068016841F40071016062B63AE014984F
:102BD000008D022820D1FFE714980068016841F4B5
:102BE00000610160EFF3108072B61790FFE70020DC
:102BF0000E901498006840690E90149800688069DF
:102C00000E900E980490FFE714980068016821F474
:102C10008061016062B614E014980068016841F4B4
:102C200080610160FFE700200D9014980068406902
:102C30000D901498006880690D900D980390FFE73F
:102C4000FFE7FFE7FFE7FFE71498008D002800F09B
:102C50001D81FFE71498008D032800F2DA80FFE75A
:102C60001498008D01281FD1FFE714982299119A1A
:102C700003F0ECFB002804D0FFE701208DF857009B
:102C80001AE11498006800691499496A0870149848
:102C9000416A013141621498018D0139018514980E
:102CA000418D01394185B3E01498008D022842D14D
:102CB000FFE71498229B11996A4611600421C0F223
:102CC0000101002203F0BAFA002804D0FFE7012036
:102CD0008DF85700F0E0EFF3108072B6189014985A
:102CE0000068016841F4007101601498006800698F
:102CF0001499496A08701498416A01314162149824
:102D0000018D013901851498418D0139418562B6E3
:102D10001498006800691499496A08701498416A07
:102D2000013141621498018D013901851498418D5A
:102D3000013941856BE01498229B11996A46116014
:102D40000421C0F20101002203F078FA002804D027
:102D5000FFE701208DF85700AEE014980068016885
:102D600021F480610160EFF3108072B6199014981D
:102D7000006800691499496A08701498416A013121
:102D800041621498018D013901851498418D0139F2
:102D900041851498229B11996A4611600421C0F262
:102DA0000101002203F04AFA002804D0FFE70120C5
:102DB0008DF8570080E014980068016841F40071B4
:102DC00001601498006800691499496A08701498A1
:102DD000416A013141621498018D013901851498CD
:102DE000418D0139418562B61498006800691499D3
:102DF000496A08701498416A013141621498018D42
:102E0000013901851498418D01394185FFE7FFE7BC
:102E10003BE014982299119A03F018FB002804D083
:102E2000FFE701208DF8570046E01498006800691C
:102E30001499496A08701498416A013141621498E2
:102E4000018D013901851498418D0139418514980E
:102E50000068406900F004000121B1EB900F13D12C
:102E6000FFE71498006800691499496A087014987B
:102E7000416A013141621498018D0139018514982C
:102E8000418D01394185FFE7FFE7DDE614982021F8
:102E900080F83D101498002180F83E10FFE7149848
:102EA000002180F83C10FFE700208DF8570003E078
:102EB00002208DF85700FFE79DF857001AB0BDE8D3
:102EC000F08100002DE9F0418EB0DDF858C0DDF84A
:102ED00054E0149C1D4616460F4680460C90ADF8F3
:102EE0002E10ADF82C20ADF82A30ADF828E0CDF842
:102EF00020C00794069505960497CDF80C80FFF73F
:102F000069FB0990BDF82A00012805D0FFE7BDF84C
:102F10002A00102801D1FFE708E047F6BC50C0F6B0
:102F2000000040F6931104F031FAFFE70C9890F896
:102F30003D00202840F0ED80FFE70C9809996A4693
:102F400011600221C0F210010122192303F076F969
:102F5000002804D0FFE702208DF83700DDE0FFE70E
:102F60000C9890F83C00012804D1FFE702208DF86E
:102F70003700D2E00C98012180F83C10FFE7FFE712
:102F80000C9800680068C007002807D1FFE70C987C
:102F90000068016841F001010160FFE70C980068DA
:102FA000016821F4006101600C98212180F83D1036
:102FB0000C98402180F83E100C9800210164149870
:102FC0000C994862BDF828000C9948850C98408DF2
:102FD0000C9908850C980021CFF6FF71C1620C98FE
:102FE000BDF82E10BDF82C20BDF82A30DDF858C0F1
:102FF000DDF824E06C46C4F804E0C4F800C003F037
:1030000021F8002804D0FFE701208DF8370084E084
:10301000FFE70C98008D00284BD0FFE70C9816991D
:10302000099A03F083FA002810D0FFE70C98006C8F
:10303000042807D1FFE70C980068016841F400718B
:103040000160FFE701208DF8370066E00C98016809
:10305000406A007808610C98416A013141620C981D
:10306000018D013901850C98418D013941850C98FC
:103070000068406900F004000121B1EB900F17D106
:10308000FFE70C98008D002812D0FFE70C9801682C
:10309000406A007808610C98416A013141620C98DD
:1030A000018D013901850C98418D01394185FFE77A
:1030B000AFE70C981699099A03F066F8002810D02B
:1030C000FFE70C98006C042807D1FFE70C98006814
:1030D000016841F400710160FFE701208DF83700BD
:1030E0001BE00C980068016841F4007101600C98C5
:1030F000202180F83D100C98002180F83E10FFE759
:103100000C98002180F83C10FFE700208DF8370074
:1031100003E002208DF83700FFE79DF837000EB07E
:10312000BDE8F08180B58AB0014609900020089082
:103130000790069005900998006845F20042C4F295
:103140000002904202912ED1FFE7FFE741F2180002
:10315000C4F20200016841F008010160006800F05B
:103160000800049004980190FFE7C0200590122009
:1031700006900320089040F60040C4F2010005A923
:10318000FEF7C8FEFFE741F21C00C4F2020001682E
:1031900041F400110160006800F4001003900398EE
:1031A0000090FFE7FFE70AB080BD000040F2040096
:1031B000C2F20000007840F27021C2F200010A68F9
:1031C000104408607047000080B582B042F20000F1
:1031D000C4F20200016841F010010160032000F018
:1031E000D5F80020019000F007F8009000F040F8BA
:1031F000019802B080BD000080B584B00146029005
:1032000040F20000C2F20000006840F20402C2F284
:10321000000212784FF47A73B3FBF2F2B0FBF2F0D3
:10322000019101F0BBFB002804D0FFE701208DF8DD
:103230000F0018E002980F280DD8FFE702994FF011
:10324000FF30002200F062F8029840F20801C2F25A
:103250000001086003E001208DF80F0003E000206A
:103260008DF80F00FFE79DF80F0004B080BD00004F
:1032700085B0FFE741F21800C4F20200016841F096
:1032800001010160006800F00100049004980190C1
:10329000FFE7FFE741F21C00C4F20200016841F0C1
:1032A00080510160006800F0805003900398009006
:1032B000FFE7FFE70420C4F20100016802910299D0
:1032C00021F0E0610291029941F0007102910299AE
:1032D0000160FFE705B0704780B582B001468DF808
:1032E00007009DF907000028009101DBFFE707E0D8
:1032F00047F64970C0F60000BE2104F047F8FFE72A
:103300009DF9070003F0C6FF02B080BD80B58AB00A
:1033100013468C4686468DF82700089107920020B8
:10332000069007980F280593CDF810C0CDF80CE053
:1033300001D8FFE707E047F64970C0F60000AA2170
:1033400004F024F8FFE708980F2801D8FFE707E00A
:1033500047F64970C0F60000AB2104F017F8FFE70C
:1033600003F0B4FF06909DF92700DDF818E00899F6
:10337000079A0290704603F0A5FA02990190084658
:10338000019903F0ABFF0AB080BD000080B582B0A8
:103390000146019001980728009110D0FFE701989D
:1033A00006280CD0FFE70198052808D0FFE7019810
:1033B000042804D0FFE70198032801D1FFE707E0C4
:1033C00047F64970C0F60000922103F0DFFFFFE7E7
:1033D000019803F0A9FF02B080BD000080B588B05D
:1033E0000A46034606900591069800280392029328
:1033F00004D1FFE701208DF81F00FAE1069800686C
:10340000C007002814D1FFE70698006800F002000A
:1034100002280DD0FFE70698006800F00400042899
:1034200006D0FFE7069800680007002801D5FFE7EF
:1034300008E047F6D860C0F600004FF44E7103F084
:10344000A5FFFFE70598002808D0FFE705980128A9
:1034500004D0FFE70598022801D1FFE708E047F60E
:10346000D860C0F6000040F2393103F08FFFFFE76B
:10347000059842F20001C4F20201096801F0070157
:10348000884216D9FFE742F20000C4F20200016848
:1034900021F00701059A11430160006800F0070060
:1034A0000599884204D0FFE701208DF81F00A0E1B4
:1034B000FFE7069800688007002861D5FFE70698B7
:1034C00000684007002809D5FFE741F20400C4F274
:1034D0000200016841F4E0610160FFE706980068BE
:1034E0000007002809D5FFE741F20400C4F20200FA
:1034F000016841F460510160FFE706988068002888
:1035000028D0FFE706988068802823D0FFE7069838
:10351000806890281ED0FFE706988068A02819D000
:10352000FFE706988068B02814D0FFE70698806807
:10353000C0280FD0FFE706988068D0280AD0FFE7A0
:1035400006988068E02805D0FFE706988068F02894
:1035500001D1FFE708E047F6D860C0F6000040F26E
:103560005F3103F013FFFFE741F20400C4F20200F1
:10357000016821F0F001069A926811430160FFE7AB
:1035800006980068C00700287BD0FFE706984068CF
:1035900000280AD0FFE706984068012805D0FFE719
:1035A00006984068022801D1FFE708E047F6D86096
:1035B000C0F6000040F2663103F0E8FEFFE706982F
:1035C000406801280ED1FFE741F20000C4F202007A
:1035D00000688003002804D4FFE701208DF81F0055
:1035E00007E121E00698406802280ED1FFE741F28A
:1035F0000000C4F2020000688001002804D4FFE744
:1036000001208DF81F00F4E00DE041F20000C4F24B
:10361000020000688007002804D4FFE701208DF82D
:103620001F00E6E0FFE7FFE741F20400C4F20200FA
:10363000016821F00301069A526811430160FEF708
:10364000C9FF0490FFE741F20400C4F202000068E1
:1036500000F00C0006994968B0EB810F10D0FFE72D
:10366000FEF7B8FFDDF810E0A0EB0E0041F2893E56
:10367000704504D3FFE703208DF81F00B9E0E2E7AF
:10368000FFE7059842F20001C4F20201096801F067
:103690000701884216D2FFE742F20000C4F202009E
:1036A000016821F00701059A11430160006800F0EC
:1036B00007000599884204D0FFE701208DF81F001C
:1036C00097E0FFE7069800684007002833D5FFE73A
:1036D0000698C068002818D0FFE70698C068B0F5C3
:1036E000806F12D0FFE70698C068B0F5A06F0CD0CD
:1036F000FFE70698C068B0F5C06F06D0FFE70698F0
:10370000C068B0F5E06F01D1FFE708E047F6D86088
:10371000C0F600004FF4697103F038FEFFE741F294
:103720000400C4F20200016821F4E061069AD26844
:1037300011430160FFE7069800680007002834D5B0
:10374000FFE706980069002818D0FFE7069800698F
:10375000B0F5806F12D0FFE706980069B0F5A06F52
:103760000CD0FFE706980069B0F5C06F06D0FFE700
:1037700006980069B0F5E06F01D1FFE708E047F671
:10378000D860C0F6000040F2AB3103F0FFFDFFE768
:1037900041F20400C4F20200016821F46051069A6B
:1037A000126941EAC2010160FFE700F055F841F2F9
:1037B000040EC4F2020EDEF800E05FFA8EFE4FEA5D
:1037C0001E1E47F6A451C0F6000111F80E10C840A5
:1037D00040F20001C2F20001086040F20800C2F2AB
:1037E00000000068FFF708FD00218DF81F10019010
:1037F000FFE79DF81F0008B080BD000040F2000008
:10380000C2F200000068704780B5FFF7F7FF41F291
:10381000040EC4F2020EDEF800E0CEF3022E47F6EC
:10382000B451C0F6000111F80E10C84080BD000070
:1038300080B5FFF7E3FF41F2040EC4F2020EDEF89A
:1038400000E0CEF3C22E47F6B451C0F6000111F8E5
:103850000E10C84080BD00008BB040F60E70C1F263
:1038600010000A9040F60A30C0F60C50099040F261
:103870000670C0F60810089040F20230C0F2045002
:10388000079040F20120ADF81A0000200590049046
:1038900003900290019041F20400C4F2020000681B
:1038A0000590059800F00C000146002800913DD0DD
:1038B000FFE70098042804D0FFE70098082806D006
:1038C00035E041F20020C0F27A00019035E0059821
:1038D000C0F3834007A9085C02909DF81600C0075A
:1038E000002818D0FFE741F20400C4F2020000688B
:1038F00000F400300DF11A0141EA504000780490C4
:10390000029841F20021C0F27A0148430499B0FBC9
:10391000F1F0039007E0029840F60011C0F23D017B
:1039200048430390FFE70398019006E0FFE741F268
:103930000020C0F27A000190FFE701980BB07047B9
:1039400080B588B00146069006980028019105D1FF
:10395000FFE701208DF81F0000F08BBC069800687F
:1039600000281AD0FFE706980068C007002814D185
:10397000FFE70698006800F0020002280DD0FFE77C
:103980000698006800F00800082806D0FFE70698AF
:1039900000684007002801D5FFE708E047F6D86037
:1039A000C0F6000040F2671103F0F0FCFFE7069854
:1039B0000068C007002800F0D180FFE70698406843
:1039C00000280CD0FFE706984068B0F5803F06D08D
:1039D000FFE706984068B0F5A02F01D1FFE708E0A7
:1039E00047F6D860C0F6000040F26D1103F0CEFC3F
:1039F000FFE741F20400C4F20200006800F00C008E
:103A0000042813D0FFE741F20400C4F2020000686A
:103A100000F00C0008281DD1FFE741F20400C4F2B9
:103A200002000068C003002814D5FFE741F200003F
:103A3000C4F202000068800300280AD5FFE7069858
:103A40004068002805D1FFE701208DF81F0000F035
:103A500010BC82E0FFE706984068B0F5803F09D1CE
:103A6000FFE741F20000C4F20200016841F4803136
:103A7000016033E00698406800280DD1FFE741F26D
:103A80000000C4F20200016821F480310160016885
:103A900021F48021016020E006984068B0F5A02F55
:103AA0000DD1FFE741F20000C4F20200016841F4C9
:103AB00080210160016841F4803101600CE041F235
:103AC0000000C4F20200016821F480310160016845
:103AD00021F480210160FFE7FFE7FFE7FFE7069899
:103AE000406800281CD0FFE7FEF774FD0590FFE753
:103AF00041F20000C4F202000068800300280ED4E6
:103B0000FFE7FEF767FDDDF814E0A0EB0E00652887
:103B100004D3FFE703208DF81F00AAE3E8E71BE0CA
:103B2000FEF758FD0590FFE741F20000C4F20200E5
:103B30000068800300280ED5FFE7FEF74BFDDDF897
:103B400014E0A0EB0E00652804D3FFE703208DF8F6
:103B50001F008EE3E8E7FFE7FFE7FFE7069800684E
:103B60008007002840F1B580FFE70698006900282B
:103B700005D0FFE706980069012801D1FFE708E0BA
:103B800047F6D860C0F6000040F2A11103F0FEFB3A
:103B9000FFE7069840691F2801D8FFE708E047F6CD
:103BA000D860C0F600004FF4D17103F0EFFBFFE7DF
:103BB00041F20400C4F20200006810F00C0F13D0B0
:103BC000FFE741F20400C4F20200006800F00C00BC
:103BD000082829D1FFE741F20400C4F2020000687E
:103BE000C003002820D4FFE741F20000C4F2020025
:103BF00000688007002809D5FFE7069800690128BA
:103C000004D0FFE701208DF81F0032E341F20000ED
:103C1000C4F20200016821F0F801069A526941EAF3
:103C2000C2010160FFE753E00698006900282DD02B
:103C3000FFE70020C4F2422001210160FEF7CAFC28
:103C40000590FFE741F20000C4F20200006880071F
:103C500000280ED4FFE7FEF7BDFCDDF814E0A0EB72
:103C60000E00032804D3FFE703208DF81F0000E3B4
:103C7000E8E741F20000C4F20200016821F0F80117
:103C8000069A526941EAC201016020E00020C4F2B4
:103C9000422000210160FEF79DFC0590FFE741F204
:103CA0000000C4F202000068800700280ED5FFE77C
:103CB000FEF790FCDDF814E0A0EB0E00032804D31F
:103CC000FFE703208DF81F00D3E2E8E7FFE7FFE7F7
:103CD000FFE7069800680007002861D5FFE706980F
:103CE0008069002805D0FFE706988069012801D186
:103CF000FFE708E047F6D860C0F600004FF4F17126
:103D000003F044FBFFE706988069002825D0FFE711
:103D100040F28040C4F2422001210160FEF75AFCCB
:103D20000590FFE741F22400C4F20200006880071A
:103D300000280ED4FFE7FEF74DFCDDF814E0A0EB01
:103D40000E00032804D3FFE703208DF81F0090E244
:103D5000E8E7012002F0F8FD21E040F28040C4F2E3
:103D6000422000210160FEF735FC0590FFE741F29B
:103D70002400C4F202000068800700280ED5FFE787
:103D8000FEF728FCDDF814E0A0EB0E00032804D3B6
:103D9000FFE703208DF81F006BE2E8E7FFE7FFE78E
:103DA000069800684007002840F1FA80FFE70020ED
:103DB0008DF80F000698C06800280AD0FFE7069823
:103DC000C068012805D0FFE70698C068052801D122
:103DD000FFE708E047F6D860C0F6000040F2112186
:103DE00003F0D4FAFFE741F21C00C4F202000068BD
:103DF000C000002814D4FFE7FFE741F21C00C4F222
:103E00000200016841F080510160006800F08050BC
:103E1000029002980090FFE701208DF80F00FFE765
:103E200047F20000C4F200000068C005002824D456
:103E3000FFE747F20000C4F20000016841F480711E
:103E40000160FEF7C7FB0590FFE747F20000C4F2F0
:103E500000000068C00500280ED4FFE7FEF7BAFB9B
:103E6000DDF814E0A0EB0E00652804D3FFE7032083
:103E70008DF81F00FDE1E8E7FFE7FFE70698C0685F
:103E8000012809D1FFE741F22000C4F202000168D5
:103E900041F00101016032E00698C06800280DD1B0
:103EA000FFE741F22000C4F20200016821F00101A5
:103EB0000160016821F0040101601FE00698C068FC
:103EC00005280DD1FFE741F22000C4F2020001688D
:103ED00041F004010160016841F0010101600CE062
:103EE00041F22000C4F20200016821F001010160EA
:103EF000016821F004010160FFE7FFE7FFE7FFE74A
:103F00000698C06800281ED0FFE7FEF763FB059007
:103F1000FFE741F22000C4F2020000688007002899
:103F200010D4FFE7FEF756FBDDF814E0A0EB0E001F
:103F300041F2893E704504D3FFE703208DF81F004E
:103F400097E1E6E71DE0FEF745FB0590FFE741F24C
:103F50002000C4F2020000688007002810D5FFE7A7
:103F6000FEF738FBDDF814E0A0EB0E0041F2893ECD
:103F7000704504D3FFE703208DF81F0079E1E6E7E1
:103F8000FFE79DF80F00012809D1FFE741F21C006F
:103F9000C4F20200016821F080510160FFE7FFE7F1
:103FA0000698C06900280AD0FFE70698C069012872
:103FB00005D0FFE70698C069022801D1FFE708E0B5
:103FC00047F6D860C0F6000040F2AF2103F0DEF9FA
:103FD000FFE70698C069002800F04781FFE741F23B
:103FE0000400C4F20200006800F00C00082800F091
:103FF0001681FFE70698C069022840F0EE80FFE7CF
:104000000698006A002806D0FFE70698006AB0F517
:10401000803F01D1FFE708E047F6D860C0F6000016
:104020004FF42E7103F0B2F9FFE70698406A0028BA
:1040300054D0FFE70698406AB0F5802F4ED0FFE7D6
:104040000698406AB0F5002F48D0FFE70698406A0E
:10405000B0F5402F42D0FFE70698406AB0F5801FC8
:104060003CD0FFE70698406AB0F5A01F36D0FFE7C6
:104070000698406AB0F5C01F30D0FFE70698406A46
:10408000B0F5E01F2AD0FFE70698406AB0F5001FA0
:1040900024D0FFE70698406AB0F5101F1ED0FFE756
:1040A0000698406AB0F5201F18D0FFE70698406ACE
:1040B000B0F5301F12D0FFE70698406AB0F5401FF8
:1040C0000CD0FFE70698406AB0F5501F06D0FFE716
:1040D0000698406AB0F5601F01D1FFE708E047F697
:1040E000D860C0F6000040F2B92103F04FF9FFE7B5
:1040F0006020C4F2422000210160FEF76BFA0590B7
:10410000FFE741F20000C4F20200006880010028CD
:104110000ED5FFE7FEF75EFADDF814E0A0EB0E0027
:10412000032804D3FFE703208DF81F00A1E0E8E790
:104130000698006AB0F5803F21D1FFE706988068B5
:10414000002806D0FFE706988068B0F5003F01D14F
:10415000FFE708E047F6D860C0F6000040F2CF2144
:1041600003F014F9FFE741F20400C4F20200016811
:1041700021F40031069A926811430160FFE741F291
:104180000400C4F20200016821F47411069A136A53
:10419000526A1A43114301606020C4F24220012197
:1041A0000160FEF717FA0590FFE741F20000C4F244
:1041B00002000068800100280ED4FFE7FEF70AFA2B
:1041C000DDF814E0A0EB0E00032804D3FFE7032082
:1041D0008DF81F004DE0E8E720E06020C4F24220A7
:1041E00000210160FEF7F6F90590FFE741F20000BB
:1041F000C4F202000068800100280ED5FFE7FEF738
:10420000E9F9DDF814E0A0EB0E00032804D3FFE782
:1042100003208DF81F002CE0E8E7FFE724E0069874
:10422000C069012804D1FFE701208DF81F0020E0BC
:1042300041F20400C4F2020000680490049800F403
:1042400080300699096A884208D1FFE7049800F493
:1042500070100699496A884204D0FFE701208DF862
:104260001F0006E0FFE7FFE7FFE700208DF81F00D3
:10427000FFE79DF81F0008B080BD000080B584B046
:104280000146029002980028019104D1FFE7012025
:104290008DF80F0047E10298006843F20001C4F274
:1042A0000101884209D0FFE70298006843F6000147
:1042B000C4F20001884201D1FFE708E047F6F4505C
:1042C000C0F600004FF4AC7103F060F8FFE702980D
:1042D0004068002806D0FFE702984068B0F5827F6A
:1042E00001D1FFE708E047F6F450C0F6000040F2C5
:1042F000591103F04BF8FFE70298806800280CD0B2
:10430000FFE702988068B0F5806F06D0FFE702985B
:104310008068B0F5004F01D1FFE708E047F6F450A0
:10432000C0F600004FF4AD7103F030F8FFE70298DB
:10433000C068B0F5006F05D0FFE70298C06800289C
:1043400001D1FFE708E047F6F450C0F6000040F264
:104350005B1103F01BF8FFE702988069B0F5007F5E
:104360000BD0FFE702988069002806D0FFE702988B
:104370008069B0F5802F01D1FFE708E047F6F450DF
:10438000C0F600004FF4AE7103F000F8FFE70298AA
:10439000C069002823D0FFE70298C06908281ED012
:1043A000FFE70298C069102819D0FFE70298C0699A
:1043B000182814D0FFE70298C06920280FD0FFE723
:1043C0000298C06928280AD0FFE70298C0693028FF
:1043D00005D0FFE70298C069382801D1FFE708E05F
:1043E00047F6F450C0F6000040F25D1102F0CEFF37
:1043F000FFE70298006A002805D0FFE70298006AEC
:10440000802801D1FFE708E047F6F450C0F600002D
:104410004FF4AF7102F0BAFFFFE70298406A00283C
:1044200001D1FFE708E047F6F450C0F6000040F283
:10443000611102F0ABFFFFE70298406A002829D122
:10444000FFE702980069002805D0FFE7029800699D
:10445000022801D1FFE708E047F6F450C0F600005B
:104460004FF4B27102F092FFFFE702984069002812
:1044700005D0FFE702984069012801D1FFE708E075
:1044800047F6F450C0F6000040F2651102F07EFFDE
:10449000FFE7FFE7029800218162029890F851003F
:1044A000002808D1FFE70298002180F850100298F8
:1044B00000F03EF8FFE70298022180F851100298C0
:1044C0000068016821F040010160029801684268BB
:1044D0008368D0F80CC01A4342EA0C0203691A43FD
:1044E00043691A43836903F400731A43C3691A4387
:1044F000036A1A43806A104308600298418B01F0F6
:1045000004010068416002980068C16921F40061FB
:10451000C1610298002141650298012280F8512072
:104520008DF80F10FFE79DF80F0004B080BD00006C
:1045300080B58CB001460B9000200A90099008903D
:1045400007900B98006843F20002C4F20102904207
:10455000049139D1FFE7FFE741F21800C4F20200ED
:10456000016841F480510160006800F480500690B9
:1045700006980390FFE7FFE741F21800C4F202003B
:10458000016841F004010160006800F0040005903A
:1045900005980290FFE7A0200790022008900320D2
:1045A0000A9040F60000C4F2010007A901900091B2
:1045B000FDF7B0FC4020079000200890099001987A
:1045C0000099FDF7A7FCFFE70CB080BD70B594B073
:1045D000DDF860C09E4614460D46064612901191C5
:1045E0001092ADF83E3001200B9000208DF82B008A
:1045F000129880680028CDF820C0CDF81CE0069401
:104600000595049601D1FFE708E047F6F450C0F69F
:10461000000040F2824102F0B9FEFFE7FFE7129886
:1046200090F85000012804D1FFE702208DF84F00D8
:10463000B0E11298012180F85010FFE7FFE7FDF785
:10464000C9FF0C90129890F851008DF8370012981D
:1046500040680E90BDF83E00ADF83C009DF8370074
:10466000012813D0FFE70E98B0F5827F0AD1FFE74B
:1046700012988068002805D1FFE79DF837000428CC
:1046800004D0FFE702208DF82B0074E11198002878
:1046900009D0FFE71098002805D0FFE7BDF83E00DD
:1046A000002804D1FFE701208DF82B0063E1129868
:1046B00090F85100042805D0FFE71298052180F8F2
:1046C0005110FFE71298002141651098129A9063EB
:1046D000BDF83E00129AD087BDF83E00129A90872E
:1046E0001198129A1063BDF83E00129AD086BDF858
:1046F0003E00129A908612980164129841641298B2
:104700000068006800F04000402807D0FFE71298DA
:104710000068016841F040010160FFE71298C0683D
:10472000B0F5006F40F08080FFE7129840680028E5
:1047300005D0FFE7BDF83C0001280ED1FFE7129835
:104740000168006B0088C8601298016B0231016338
:104750001298C18E0139C186FFE7FFE71298C08E1B
:1047600001210028039107D1FFE71298C08F00288C
:1047700018BF01200390FFE70398C007002852D01C
:10478000FFE71298006880688007002819D5FFE7C6
:104790001298C08E002814D0FFE70B98012810D182
:1047A000FFE712980168006B0088C8601298016BDF
:1047B000023101631298C18E0139C18600200B902D
:1047C000FFE7129800688068C007002816D0FFE74E
:1047D0001298C08F002811D0FFE712980068C068B7
:1047E0001299896B08801298816B0231816312984B
:1047F000C18F0139C18701200B90FFE7FDF7EAFE69
:10480000DDF830E0A0EB0E00DDF860E0704509D384
:10481000FFE718980130002804D0FFE703208DF847
:104820002B00A8E09AE782E012984068002805D0A3
:10483000FFE7BDF83C0001280ED1FFE712980168A0
:10484000006B007808731298016B013101631298B4
:10485000C18E0139C186FFE7FFE71298C08E0121A2
:104860000028029107D1FFE71298C08F002818BFD7
:1048700001200290FFE70298C007002856D0FFE70A
:104880001298006880688007002819D5FFE7129801
:10489000C08E002814D0FFE70B98012810D1FFE745
:1048A00012980168006B007808731298016B01314F
:1048B00001631298C18E0139C18600200B90FFE779
:1048C000129800688068C007002816D0FFE7129889
:1048D000C08F002811D0FFE712980068C0681299B5
:1048E000896B08701298816B013181631298C18FB6
:1048F0000139C18701200B90FFE7FDF76BFEDDF862
:1049000030E0A0EB0E00DDF860E0704505D3FFE776
:1049100018980130002804D1FFE71898002804D126
:10492000FFE703208DF82B0025E096E7FFE71298BC
:1049300018990C9A02F028F8002807D0FFE7012008
:104940008DF82B0012982021416514E012988068A0
:1049500000280FD1FFE7FFE70020099012980068B8
:10496000C0680990129800688068099009980190C1
:10497000FFE7FFE7FFE71298012180F85110FFE7FA
:104980001298002180F85010FFE79DF82B008DF859
:104990004F00FFE79DF84F0014B070BD80B582B0A6
:1049A000014601900198009102F0A4F802B080BD88
:1049B00082B001460190009102B0704782B001467A
:1049C0000190009102B0704780B588B00A46034656
:1049D000069005910698006842F60041C4F2010174
:1049E00088420292019318D0FFE706980068B0F160
:1049F000804F12D0FFE70698006840F20041C4F2F1
:104A00000001884209D0FFE70698006840F60001DF
:104A1000C4F20001884201D1FFE708E047F6646074
:104A2000C0F6000040F2646102F0B0FCFFE70598B8
:104A30000068002823D0FFE70598006810281ED0E2
:104A4000FFE705980068202819D0FFE7059800685F
:104A5000302814D0FFE70598006840280FD0FFE702
:104A60000598006850280AD0FFE70598006860287C
:104A700005D0FFE705980068702801D1FFE708E03E
:104A800047F66460C0F6000040F2656102F07EFC0B
:104A9000FFE705984068802805D0FFE70598406843
:104AA000002801D1FFE708E047F66460C0F6000087
:104AB00040F2666102F06AFCFFE7FFE7069890F8B3
:104AC0003C00012804D1FFE702208DF81F0039E0E7
:104AD0000698012180F83C10FFE7FFE706980221C5
:104AE00080F83D10069800684068049006980068B9
:104AF00080680390049820F0700004900598006886
:104B0000049908430490039820F0800003900598CE
:104B1000406803990843039004980699096848601F
:104B200003980699096888600698012180F83D106D
:104B3000FFE70698002180F83C10FFE700208DF881
:104B40001F00FFE79DF81F0008B080BD80B584B04E
:104B50000146029002980028019104D1FFE701204C
:104B60008DF80F009EE00298006842F60041C4F202
:104B70000101884218D0FFE702980068B0F1804F29
:104B800012D0FFE70298006840F20041C4F2000131
:104B9000884209D0FFE70298006840F60001C4F29D
:104BA0000001884201D1FFE708E047F62C60C0F61B
:104BB00000004FF4897102F0E9FBFFE7029880687A
:104BC000002814D0FFE70298806810280FD0FFE774
:104BD0000298806820280AD0FFE702988068402861
:104BE00005D0FFE702988068602801D1FFE708E060
:104BF00047F62C60C0F6000040F2131102F0C6FB2D
:104C0000FFE70298006900280CD0FFE702980069CE
:104C1000B0F5807F06D0FFE702980069B0F5007F0D
:104C200001D1FFE708E047F62C60C0F600004FF422
:104C30008A7102F0ABFBFFE702988069002805D07B
:104C4000FFE702988069802801D1FFE708E047F676
:104C50002C60C0F6000040F2151102F097FBFFE750
:104C6000029890F83D00002808D1FFE70298002143
:104C700080F83C10029800F019F8FFE70298022132
:104C800080F83D10029850F8041B009008460099E7
:104C900001F0D8FF0298012180F83D1000208DF826
:104CA0000F00FFE79DF80F0004B080BD80B588B00D
:104CB000014607900798006842F60042C4F20102DC
:104CC000904204911BD1FFE7FFE741F21800C4F2C4
:104CD0000200016841F400610160006800F40060B6
:104CE000069006980390FFE7192000210290019199
:104CF000019AFEF70BFB0298FEF7EEFA1AE007980E
:104D0000006840F60001C4F20001884211D1FFE7BB
:104D1000FFE741F21C00C4F20200016841F0040107
:104D20000160006800F00400059005980090FFE71E
:104D3000FFE7FFE708B080BD80B584B0014603906F
:104D40000398006842F60042C4F2010290420191C9
:104D500018D0FFE703980068B0F1804F12D0FFE74A
:104D60000398006840F20041C4F20001884209D073
:104D7000FFE70398006840F60001C4F20001884292
:104D800001D1FFE708E047F62C60C0F6000040F2D2
:104D9000851102F0FBFAFFE70398022180F83D102D
:104DA00003980068806800F00700029002980628C7
:104DB00007D0FFE703980068016841F00101016036
:104DC000FFE70398012180F83D10002004B080BD6A
:104DD00080B582B0014601900198006842F6004219
:104DE000C4F201029042009118D0FFE701980068D8
:104DF000B0F1804F12D0FFE70198006840F2004107
:104E0000C4F20001884209D0FFE70198006840F62B
:104E10000001C4F20001884201D1FFE708E047F633
:104E20002C60C0F600004FF4D07102F0AFFAFFE73B
:104E30000198022180F83D10FFE701980068006AA0
:104E400041F21111084210D1FFE701980068006A91
:104E500040F24441084207D1FFE701980068016829
:104E600021F001010160FFE7FFE7FFE70198012161
:104E700080F83D10002002B080BD000080B58CB0ED
:104E80000A4603460A90099107920693FFE70A989B
:104E900090F83C00012804D1FFE702208DF82F0094
:104EA0006AE30A98012180F83C10FFE7FFE70A98BF
:104EB000022180F83D1009980068B0F5805F2ED07F
:104EC000FFE709980068B0F5005F28D0FFE7099870
:104ED0000068002823D0FFE70998006810281ED03A
:104EE000FFE709980068202819D0FFE709980068B3
:104EF000302814D0FFE70998006840280FD0FFE75A
:104F00000998006850280AD0FFE7099800686028CF
:104F100005D0FFE709980068702801D1FFE708E095
:104F200047F62C60C0F6000041F28A1102F02EFA1A
:104F3000FFE70A98006880680890089820F07700DA
:104F40000890089820F47F40089008980A9909680A
:104F50008860099800680028059000F0CC82FFE77F
:104F60000598102800F0C782FFE70598202800F078
:104F7000C282FFE70598302800F0BD82FFE7059860
:104F8000402800F04A82FFE70598502800F0698128
:104F9000FFE70598602800F0D281FFE705987028A8
:104FA00037D0FFE70598B0F5805F06D0FFE705989A
:104FB000B0F5005F00F0C480CFE20A98006842F6C6
:104FC0000041C4F20101884218D0FFE70A98006846
:104FD000B0F1804F12D0FFE70A98006840F200411C
:104FE000C4F20001884209D0FFE70A98006840F641
:104FF0000001C4F20001884201D1FFE708E047F652
:105000002C60C0F6000041F2961102F0BFF9FFE7F4
:10501000A4E20A98006842F60041C4F20101884205
:1050200018D0FFE70A980068B0F1804F12D0FFE770
:105030000A98006840F20041C4F20001884209D099
:10504000FFE70A98006840F60001C4F200018842B8
:1050500001D1FFE708E047F62C60C0F6000041F2FE
:105060009D1102F093F9FFE709988068002812D09B
:10507000FFE709988068B0F5805F0CD0FFE70998DA
:105080008068B0F5005F06D0FFE709988068B0F54A
:10509000405F01D1FFE708E047F62C60C0F6000052
:1050A0004FF48D5102F072F9FFE709984068B0F5AE
:1050B000004F14D0FFE70998406800280FD0FFE7A1
:1050C0000998406800280AD0FFE70998406802283C
:1050D00005D0FFE7099840680A2801D1FFE708E0FA
:1050E00047F62C60C0F6000041F2A11102F04EF923
:1050F000FFE70998C0680F2801D8FFE708E047F6E6
:105100002C60C0F6000041F2A21102F03FF9FFE767
:105110000A98006809994A688B68C9680491194619
:10512000049B01F00BFE0A980068806808900898BC
:1051300040F07700089008980A99096888600DE2A5
:105140000A98006842F60041C4F20101884218D072
:10515000FFE70A980068B0F1804F12D0FFE70A9885
:10516000006840F20041C4F20001884209D0FFE724
:105170000A98006840F60001C4F20001884201D19B
:10518000FFE708E047F62C60C0F6000041F2B511D9
:1051900002F0FCF8FFE709988068002812D0FFE7CA
:1051A00009988068B0F5805F0CD0FFE709988068A7
:1051B000B0F5005F06D0FFE709988068B0F5405F62
:1051C00001D1FFE708E047F62C60C0F6000041F28D
:1051D000B81102F0DBF8FFE709984068B0F5004F1E
:1051E00014D0FFE70998406800280FD0FFE709981E
:1051F000406800280AD0FFE709984068022805D0D7
:10520000FFE7099840680A2801D1FFE708E047F660
:105210002C60C0F6000041F2B91102F0B7F8FFE7C8
:105220000998C0680F2801D8FFE708E047F62C600E
:10523000C0F6000041F2BA1102F0A8F8FFE70A98A0
:10524000006809994A688B68C96803911946039BED
:1052500001F074FD0A980068816841F48041816022
:105260007CE10A98006842F60041C4F201018842DC
:1052700018D0FFE70A980068B0F1804F12D0FFE71E
:105280000A98006840F20041C4F20001884209D047
:10529000FFE70A98006840F60001C4F20001884266
:1052A00001D1FFE708E047F62C60C0F6000041F2AC
:1052B000C91102F06BF8FFE709984068B0F5004F9C
:1052C00014D0FFE70998406800280FD0FFE709983D
:1052D000406800280AD0FFE709984068022805D0F6
:1052E000FFE7099840680A2801D1FFE708E047F680
:1052F0002C60C0F6000041F2CC1102F047F8FFE745
:105300000998C0680F2801D8FFE708E047F62C602D
:10531000C0F6000041F2CD1102F038F8FFE70A981C
:10532000006809994A68C96802911146029A01F019
:1053300045FD0A980068502101F026FD0EE10A980B
:10534000006842F60041C4F20101884218D0FFE72C
:105350000A980068B0F1804F12D0FFE70A98006801
:1053600040F20041C4F20001884209D0FFE70A98E8
:10537000006840F60001C4F20001884201D1FFE755
:1053800008E047F62C60C0F6000041F2D91101F0A8
:10539000FDFFFFE709984068B0F5004F14D0FFE724
:1053A0000998406800280FD0FFE709984068002856
:1053B0000AD0FFE709984068022805D0FFE709985E
:1053C00040680A2801D1FFE708E047F62C60C0F6E4
:1053D000000041F2DC1101F0D9FFFFE70998C06835
:1053E0000F2801D8FFE708E047F62C60C0F6000060
:1053F00041F2DD1101F0CAFFFFE70A980068099940
:105400004A68C96801911146019A01F009FD0A989C
:105410000068602101F0B8FCA0E00A98006842F63C
:105420000041C4F20101884218D0FFE70A980068E1
:10543000B0F1804F12D0FFE70A98006840F20041B7
:10544000C4F20001884209D0FFE70A98006840F6DC
:105450000001C4F20001884201D1FFE708E047F6ED
:105460002C60C0F6000041F2E91101F08FFFFFE768
:1054700009984068B0F5004F14D0FFE709984068DC
:1054800000280FD0FFE70998406800280AD0FFE7FE
:1054900009984068022805D0FFE7099840680A2863
:1054A00001D1FFE708E047F62C60C0F6000041F2AA
:1054B000EC1101F06BFFFFE70998C0680F2801D8D5
:1054C000FFE708E047F62C60C0F6000041F2ED115E
:1054D00001F05CFFFFE70A98006809994A68C9680B
:1054E00000911146009A01F069FC0A980068402179
:1054F00001F04AFC32E00A98006842F60041C4F22A
:105500000101884218D0FFE70A980068B0F1804F87
:1055100012D0FFE70A98006840F20041C4F200018F
:10552000884209D0FFE70A98006840F60001C4F2FB
:105530000001884201D1FFE708E047F62C60C0F681
:10554000000041F2FC1101F021FFFFE70A9800681A
:105550000999096801F018FC00E0FFE70A980121A9
:1055600080F83D10FFE70A98002180F83C10FFE723
:1055700000208DF82F00FFE79DF82F000CB080BDB4
:1055800082B001460190009102B0704780B582B0B0
:105590000146019001980068006900F002000022B5
:1055A000B2EB500F009129D0FFE701980068C06866
:1055B00000F002000021B1EB500F1ED0FFE7019870
:1055C00000686FF0020101610198012101770198E3
:1055D000006880698007002804D0FFE70198FFF782
:1055E000CFFF06E0019800F015F9019800F018F9D6
:1055F000FFE7019800210177FFE7FFE701980068C6
:10560000006900F004000021B1EB900F29D0FFE702
:1056100001980068C06800F004000021B1EB900F11
:105620001ED0FFE7019800686FF004010161019846
:105630000221017701980068806910F4407F04D04E
:10564000FFE70198FFF79CFF06E0019800F0E2F801
:10565000019800F0E5F8FFE7019800210177FFE7E6
:10566000FFE701980068006900F008000021B1EB35
:10567000D00F29D0FFE701980068C06800F008004B
:105680000021B1EBD00F1ED0FFE7019800686FF04A
:105690000801016101980421017701980068C0693F
:1056A0008007002804D0FFE70198FFF769FF06E0B4
:1056B000019800F0AFF8019800F0B2F8FFE7019808
:1056C00000210177FFE7FFE701980068006900F01B
:1056D00010000021B1EB101F29D0FFE701980068EE
:1056E000C06800F010000021B1EB101F1ED0FFE7D2
:1056F000019800686FF0100101610198082101779D
:1057000001980068C06910F4407F04D0FFE7019859
:10571000FFF736FF06E0019800F07CF8019800F0F2
:105720007FF8FFE7019800210177FFE7FFE7019885
:1057300000680069C007002811D0FFE701980068E1
:10574000C068C007002809D0FFE7019800686FF023
:1057500001010161019800F069F8FFE7FFE7019896
:1057600000680069C0B20021B1EBD01F13D0FFE781
:1057700001980068C068C0B20021B1EBD01F09D009
:10578000FFE7019800686FF0800101610198FFF761
:105790000FF9FFE7FFE701980068006900F040009B
:1057A0000021B1EB901F14D0FFE701980068C0689A
:1057B00000F040000021B1EB901F09D0FFE70198F5
:1057C00000686FF040010161019800F035F8FFE7D3
:1057D000FFE701980068006900F020000021B1EBAC
:1057E000501F14D0FFE701980068C06800F0200047
:1057F0000021B1EB501F09D0FFE7019800686FF05E
:10580000200101610198FFF7D9F8FFE7FFE702B037
:1058100080BD000082B001460190009102B0704747
:1058200082B001460190009102B0704782B00146FB
:105830000190009102B0704782B001460190009142
:1058400002B0704782B001460190009102B07047EB
:1058500080B58CB001460B900B98006800680A90E8
:105860000B980068C06809900B9800684069089020
:105870000020079006900A9800F00F000790079804
:105880000028059112D1FFE79DF828008006002826
:105890000BD5FFE79DF824008006002805D5FFE71B
:1058A0000B9801F02DFB0490E0E0FFE7079800283B
:1058B00000F0BA80FFE79DF82000C007002807D15C
:1058C000FFE7BDF8240010F4907F00F0AD80FFE703
:1058D0009DF82800C00700280CD0FFE79DF82500A0
:1058E000C007002806D0FFE70B98C16B41F001010B
:1058F000C163FFE79DF82800400700280CD5FFE7AB
:105900009DF82000C007002806D0FFE70B98C16B68
:1059100041F00201C163FFE79DF8280080070028DD
:105920000CD5FFE79DF82000C007002806D0FFE750
:105930000B98C16B41F00401C163FFE79DF828009B
:10594000000700280CD5FFE79DF82000C0070028BD
:1059500006D0FFE70B98C16B41F00801C163FFE778
:105960000B98C06B00285ED0FFE79DF828008006EA
:1059700000280BD5FFE79DF824008006002805D5F8
:10598000FFE70B9801F0BCFA0390FFE70B98006863
:105990004069C0F3801006900B98C06B0007002888
:1059A00004D4FFE70698002833D0FFE70B9801F0F6
:1059B0007BFA0B98006840694006002824D5FFE771
:1059C0000B980068416921F0400141610B98406BE0
:1059D000002814D0FFE70B98406B46F68561C0F6AF
:1059E000000141630B98406BFCF7AAF9002805D031
:1059F000FFE70B98406B416B8847FFE703E00B988C
:105A0000FFF720FFFFE703E00B98FFF71BFFFFE71F
:105A100008E00B98FFF716FF0B984FF0000EC0F848
:105A20003CE0FFE7FFE721E09DF8280000060028A2
:105A30000BD5FFE79DF824000006002805D5FFE7F9
:105A40000B9801F0C9FB029010E09DF82800400679
:105A500000280BD5FFE79DF824004006002805D557
:105A6000FFE70B9801F036FA0190FFE70CB080BD1C
:105A700080B584B00146029002980028019104D1BB
:105A8000FFE701208DF80F00C1E00298806900282F
:105A900047D0FFE70298006843F60001C4F2010115
:105AA000884212D0FFE70298006844F20041C4F235
:105AB0000001884209D0FFE70298006844F600011F
:105AC000C4F20001884201D1FFE708E047F69F6079
:105AD000C0F600004FF4A37101F058FCFFE70298F4
