:020000040800F2
:10000000802E0020FD010008B72D0008C32900083C
:10001000B52D0008A10C00086D4900080000000083
:10002000000000000000000000000000FB3300089A
:10003000A30C000800000000B92D0008FD330008E3
:10004000170200081702000817020008170200082C
:10005000170200081702000817020008170200081C
:10006000170200081702000817020008170200080C
:1000700017020008170200081702000817020008FC
:1000800017020008170200081702000817020008EC
:10009000714800081702000817020008170200083C
:1000A00017020008170200081702000817020008CC
:1000B00017020008170200081702000817020008BC
:1000C00017020008170200081702000817020008AC
:1000D000170200082D360008170200081702000852
:1000E00017020008170200081702000800F002F8C3
:1000F00000F075F80AA090E8000C82448344AAF14D
:100100000107DA4501D100F06AF8AFF2090EBAE84A
:100110000F0013F0010F18BFFB1A43F0010318473B
:100120009C590000BC5900000A444FF0000C10F824
:10013000013B13F0070408BF10F8014B1D1108BF65
:1001400010F8015B641E05D010F8016B641E01F805
:10015000016BF9D113F0080F1EBF10F8014BAD1C55
:100160000C1B09D16D1E58BF01F801CBFAD505E073
:1001700014F8016B01F8016B6D1EF9D59142D6D3CD
:10018000704700000023002400250026103A28BFF5
:1001900078C1FBD8520728BF30C148BF0B607047F9
:1001A000662905F0558303681B0A28BF41F08001CA
:1001B000F82900F07980632900F0C983732900F0E1
:1001C000CE83002070471FB500F0E0FB0400002044
:1001D000002105F015FAE0601FBD10B510BD00F05C
:1001E000F1FC1146FFF7EFFF04F0CCFD00F00FFD2E
:1001F00003B4FFF7F2FF03BC04F0B8FD09488047E1
:1002000009480047FEE7FEE7FEE7FEE7FEE7FEE7F8
:10021000FEE7FEE7FEE7FEE704480549034A054B13
:10022000704700005D340008ED000008802A0020BF
:10023000802E0020802A0020704700000FB404495F
:1002400010B503AA029800F08FFB10BC5DF814FBF8
:100250005424002070B50C460546012A05D02878A4
:10026000800600D5EA69002302E0012305E05B1C5B
:10027000934202D2E05C0028F9D1A869E618C01ABE
:10028000A861286A184428622846AFF3008004E079
:10029000D5E9012114F8010B9047B442F8D3284660
:1002A000AFF3008070BD0000D21DF0B40D4622F007
:1002B00007020188D2E90034090502D5104A7A44C0
:1002C00002E00F4A7A440E32002100F1240608E0D1
:1002D00003F00F071B09D75D43EA04732409775421
:1002E000491C53EA0407F3D104780023240704D5FA
:1002F000702D02D009B102231132F0BC00F0B6B863
:10030000925500002DE9F0474FF0000A8946044657
:10031000C0F820A02046E1688847002876D025282C
:1003200006D0D4E901219047206A401C2062F1E701
:10033000E168204600268847C4F81CA0054600272F
:10034000C4F818A02A2D09D0284605F051F938B371
:1003500004EB8708303DC8F8185019E059F8041B21
:10036000204604EB87029161E1688847012F05462A
:1003700018D1E069002820DA26F020061DE0D8F820
:10038000180000EB800005EB40003038C8F818007A
:100390002046E1688847054605F02AF90028EED195
:1003A000012F0AD02E2D08D12046E16888477F1CF6
:1003B0000546022F46F02006C4DBA069002803DAB8
:1003C000404246F00106A061F00701D026F0100679
:1003D0006C2D0AD0682D08D04C2D39D06A2D35D01F
:1003E000742D35D07A2D33D016E0E1682F462046A3
:1003F0008847B84205460AD16C2F27D04FF4806059
:10040000E168064320468847054605E027E06C2F53
:100410001AD04FF4807006430DB3A5F1410019289E
:1004200002D8203546F400664A4629462046266012
:100430004E46FFF7B5FE80B101280BD0F61D26F021
:10044000070000F1080965E74020E4E78020D7E7CE
:100450000020D5E706F104095CE7284661E7206A39
:10046000BDE8F08770477047704770472DE9F04747
:100470000D4699469246044600F124080168880614
:1004800004D5E06921F01001216000E00120A842BC
:1004900001DD471B00E00027A1697A1902EB090082
:1004A000081AA0612078C00602D42046AFF300806D
:1004B000002608E0D4E901211AF806009047206AD6
:1004C000401C761C20624E45F4DB2078C0060AD51D
:1004D0002046AFF3008006E0D4E9012130209047A8
:1004E000206A401C2062381EA7F10107F4DC07E0F7
:1004F000D4E9012118F805009047206A401C2062C9
:10050000281EA5F10105F3DC2046AFF3008020781A
:10051000000602D50220BDE8F0870120FBE72DE9A7
:10052000FF4F0C461E464FF0FF378BB0D2E900015B
:10053000DDF860800A908A46C1F30A5505B93D4648
:10054000002108464FF00000BAF1000F00F440000F
:1005500005DA00EB80004FF4400101EA50004FEA59
:100560009059B9F1010F00DDB9460A9850EA4A00E6
:100570000ED044F61050A5F2FF3545432F14B8F1C4
:10058000000F1ED07542291E1EDDC9F100021CE0BD
:10059000B8F1010F4FF0000001D0302103E0F24329
:1005A00005E02154401CB042FBDB30460022002114
:1005B00021540B99C1F80880C1E900200FB0BDE8B3
:1005C000F08FBD1B6D1CDEE74A4600DA694206A8C3
:1005D00000F07EFA06AB93E8070003AB83E8070060
:1005E00050460A9904F028FC8DE80700A0F5005059
:1005F0001F3800900398002D0ADD42F21F014A4681
:100600000844002303A90390684604F091FE09E022
:10061000A0F500504A461F38002303A903906846FE
:1006200004F09BFE8DE807000004000C03D04FF09F
:10063000FF30410800E01046B8F1000F03D000225F
:10064000009215461EE0751E05D400F0A3F9303265
:1006500062556D1EF9D5B3460122084302D000222F
:100660007F1C04E02078302801D100227F1E002A60
:10067000099784D01DE0112D07DA00F08BF9303294
:1006800062556D1C50EA0102F5D1084302D0009872
:10069000C8B10EE00021681E05E0235C625C635473
:1006A0002254401E491C8142F7DBAB46A81B401E6A
:1006B0000990002004F80B000B98099AC0F80880F4
:1006C000C0E9002B7AE711264FF0000857E72DE923
:1006D000F04F88460446D21D22F0070191B0D1E9BF
:1006E0000001CDE90A0104F06FFF02460B98C00F2C
:1006F00001D02D2007E02068810701D52B2002E0E2
:10070000202101EAC000032A099001D0072A05DB55
:1007100003464146204600F09BF90BE12078800615
:1007200001D5E06900E00620B8F1650F814606D0EA
:10073000B8F1660F18D0B8F1670F70D131E0002022
:10074000B9F1110F009001DB112301E009F1010360
:100750000AAA01A90CA8FFF7E2FEDDE90C70002649
:1007600009F10105834647E001204B4600904FF018
:1007700000470AAA01A90CA8FFF7D1FEDDE90DB0D8
:100780000C995D46002610B909F101000D18B9EB6E
:10079000050003D4C0F1FF3609F10105A5EB0900FE
:1007A0002BE0B9F1010F01DA4FF001090020B9F196
:1007B000110F0090484601DD112300E003460AAA0C
:1007C00001A90CA8FFF7ABFEDDE90C704D46002631
:1007D0008346207800070AD4AB4500DA5D4601A8BD
:1007E000012D04DD411911F8011C302907D04F45B6
:1007F00002DA17F1040F04DA012082460FE06D1EC1
:10080000EEE7002F02DCED1B3E4403E0781CA8421B
:1008100000DD7D1CB81B00F1010A4FF00047207875
:10082000000703D4AA4501DB4FF0FF3A0021B7F1DE
:10083000004F0DF143088DF8431024D002202B23E4
:10084000002F01DA7F422D230A21021EA0F10100B0
:1008500000DC5FB197FBF1FC97FBF1F201FB1C7C24
:1008600017460CF1300C08F801CDEEE7A8F10100B5
:1008700003702188090501D5452100E06521A0F11B
:10088000010800F8011C09980FA9A1EB0807FF1D3A
:1008900000B10120411901EBEA70A1693844081A3E
:1008A000401EA0612078C00602D42046AFF300802D
:1008B000099828B1D4E901219047206A401C2062A0
:1008C0002078C00622D52046AFF300801EE0002E1F
:1008D00004DBB34502DD01A8805D00E03020D4E9EF
:1008E00001219047206A401C2062761CAAF1010079
:1008F0005FEA000A0AD100F049F8C0680168405C6C
:10090000D4E901219047206A401C2062281EA5F1ED
:100910000105DCDC07E0D4E9012118F8010B904760
:10092000206A401C2062381EA7F10107F3DC204634
:10093000AFF30080032011B041E610B5436913B155
:10094000AFF3008001E0FFF785FC012010BD1278B5
:1009500000F124010A7000224A700122EDE71168BB
:100960004FF0FF32E9E70000074B70B50D467B44BE
:1009700000F05BF80446284600F01CF910B14FF077
:10098000FF3070BD204670BDFF4300000048704737
:100990005801002030B5B0F10A0271F100034FEAAE
:1009A000900E4EEA817EB0EB0E0061EB91014FEAB2
:1009B000101E4EEA017E10EB0E0041EB11114FEAC2
:1009C000102E4EEA016E10EB0E0041EB11214FEAA2
:1009D000104E4EEA014E10EB0E0041EB1141401853
:1009E00041F100014FEAD00040EA41704FEAD101E5
:1009F0004FEA810444EA907410EB800544EB010453
:100A00006D1944EB0404521BA3414FF0000348BF8F
:100A10000A3200D530BD401C41F1000130BD00005C
:100A200001694A1C02610878704700B58FB0CDE9B2
:100A300001310021059105497944CDE903101146A2
:100A40006846FFF75FFC0FB000BD0000E5FFFFFF49
:100A50002DE9F0411F46044603260168072A01F4E8
:100A6000006004DB08B116A505E016A503E008B197
:100A700015A500E015A521F010002060A069C01E9A
:100A8000A0610FB1401EA0612046AFF300804FB1BE
:100A9000D4E9012138469047206A401C2062C01CDE
:100AA000206206E0206AFAE7D4E9012115F8010B7B
:100AB0009047761EF8D22046AFF30080BDE8F08163
:100AC0004E414E006E616E00494E4600696E6600F2
:100AD0002DE9F047814616468AB0354878440DC85E
:100AE0008DE80D0032487844801C03AC0DC884E8C2
:100AF0000D0041F69B300844372190FBF1F290FB4A
:100B0000F1F5A5F1800501FB12041B3C02D56442FE
:100B1000012000E00020DFF898A080460027FA447A
:100B2000AAF1BE0A0EE0E0070AD03246684607EB9B
:100B3000470101230AEB810104F00FFC8DE8070057
:100B400064107F1C002CEED1194F7F44AE3F19E09A
:100B5000E80715D007EB04100DF1180A90E80E0015
:100B60008AE80E00C068F04201D198190890324618
:100B7000012306A903A804F0F0FB03AB83E80700F8
:100B80006D10641C002DE3D14FF00103324669461D
:100B9000B8F1000F03A802D004F0CAFB01E004F092
:100BA000DCFBC9E90001C9F808200AB0BDE8F087FC
:100BB000184E0000007B00F080007047004870472E
:100BC000380100207546FFF7F9FFAE46050069467B
:100BD000534620F00700854618B020B5FFF71CFBF0
:100BE000BDE820404FF000064FF000074FF000082E
:100BF0004FF0000BAC46ACE8C009ACE8C009ACE86B
:100C0000C009ACE8C00921F007018D46704710B556
:100C10000446AFF300802046BDE81040FFF7E8BA75
:100C20004FF0013C50F8042B51F8043B9A4221D17B
:100C3000A2EB0C03934313EACC1317D150F8042B07
:100C400051F8043B9A4215D1A2EB0C03934313EAEB
:100C5000CC130BD150F8042B51F8043B9A4209D124
:100C6000A2EB0C03934313EACC13DBD04FF000004C
:100C7000704700BFD01A01BAB1FA81F101F0180132
:100C800022FA01F0CB40DBB2C0B2C01AC1F12001A0
:100C90002CFA01F3D11A914311EAC311E6D170473E
:100CA000FEE7704770470022AFF3008010B50F4C8D
:100CB0008446607A012884BF012010BD94F809E0C1
:100CC000002004F80E00637A04EB8303C3F804C029
:100CD000637A23441A72627A531C3032637242F68A
:100CE0003A73C870A1F801300A7010BDAC2400201E
:100CF00090F8211002291BD102681F4B11689A42FB
:100D000021F00E011160116821F0010111601949F3
:100D100012D01A4B9A4211D0194B9A4210D0194B4B
:100D20009A4210D0184B9A4210D14FF4803315E0FC
:100D3000042181630120704701230FE010230DE09F
:100D40004FF480730AE04FF4805307E001F1680C20
:100D50004FF08073624508BF4FF480130B604FF46F
:100D600080710184416B19B180B58847002080BD36
:100D70000020704704000240080002401C000240AE
:100D80003000024044000240580002402DE9FE4F6E
:100D90008346B2480C4658444FEAB02CBCF1050FCC
:100DA00005D3C748BD21654603F0E1FFAC46206886
:100DB0000021B1EB104F01D180B228B9C048BE214B
:100DC000654603F0D4FFAC466068122800F2278124
:100DD0000121A34A8140114200F02181A748A84D7A
:100DE000042100264FF0010E0F274FF0000A4FF0AC
:100DF0000009834508BF03210191CDF800B02068A8
:100E000030FA09F108BFBDE8FE8F0EFA09F810EAC2
:100E1000080F00F00081BCF1050F08D3A848CD21D0
:100E2000674603F0A4FFBC460F274FF0010E606831
:100E3000032816D911283AD0122849D08949884266
:100E400013D08949884210D0884988420DD08849FA
:100E500088420AD08749884207D08749884204D00F
:100E600075E0DFE800F002465869A068E0B10128AB
:100E700012D0022813D09248F721E34603F077FFFF
:100E8000A06800285BD0DC46DDF800B001284FF0F8
:100E9000010E4FF00F0702D1CBF8108001E0CBF824
:100EA00014804FF0080A52E04FF0040A4FE0E06867
:100EB000411E032909D38248DC21674603F057FF0E
:100EC000E068BC460F274FF0010E00F1040A3EE037
:100ED000E068411E032909D37948EA21674603F0F7
:100EE00046FFE068BC460F274FF0010E00F10C0AE8
:100EF0002DE0D4F80CA0AAF10100032827D37048F4
:100F0000D521674603F033FFD4F80CA0BC460F2769
:100F10004FF0010E1BE0E068411E032909D3684829
:100F2000E321674603F023FFE068BC460F274FF03C
:100F3000010E00F1080A0AE04FF0000A07E0DC4663
:100F4000DDF800B04FF0040A4FF0010E0F273046D5
:100F50005A46B9F1080F28BF203828BF0432136859
:100F600007FA00F10AFA00F023EA010108431060D1
:100F7000E079C0064FD582482A460F23A5F57E7238
:100F80000146006840F001000860086800F00100B8
:100F9000029006F00C00029983404FEA990152F842
:100FA000217027EA0303384FBB4508D0374FBB45B4
:100FB00007D0374FBB45019F08BF022702E000273B
:100FC00000E0012707FA00F00F27184342F821003C
:100FD0006068C103296854BF21EA080141EA080199
:100FE00029608103696854BF21EA080141EA0801C8
:100FF0006960C102A96854BF21EA080141EA0801F9
:101000008002A9601F480146006854BF20EA08001A
:1010100040EA08000860043609F10109EFE61149C9
:1010200088423FF4DBAE104988423FF4D7AE0F4907
:1010300088423FF4D3AE0E4988423FF4CFAE0D490B
:1010400088423FF4CBAE0C4988423FF4C7AE1C48FF
:10105000BF21654603F08BFEAC46BFE600F8FEBF3D
:101060000F000600000011100000121000002110F7
:101070000000221000003110000032100014014066
:10108000000401400C04014000080140000C014034
:101090000010014070B516460C46054621B90848B7
:1010A0004FF4EA7103F063FE3EB1012E06D004480E
:1010B00040F2D51103F05BFE00E024042C6170BD0A
:1010C000475A000805480068704700BF1B4803499D
:1010D00000780A6810440860704700BF402A00206A
:1010E00080B50748016841F010010160032000F05D
:1010F0008DF8002000F006F800F024F8002080BDF4
:101100000020024070B50D4E04464FF47A713078DD
:10111000B1FBF0F00A490968B1FBF0F001F092FA76
:1011200001250F2C08D838B94FF0FF302146002296
:10113000002500F03DF87460284670BD00000020D6
:1011400028000020E0B50E48016841F0010101606F
:10115000016801F0010101910199416841F080515C
:101160004160406800F0805000900098052000F039
:101170004DF804480222016862F31A6101608CBDD7
:101180001810024004000140B0F1FF3F09DD00F0FB
:101190001F010122400902FA01F1044A42F820101D
:1011A00070472448BE2103F0E2BD00BF00E100E02B
:1011B00070B514460E460546102A03D31D48AA21D1
:1011C00003F0D5FD102E03D31A48AB2103F0CFFD59
:1011D00019484FF0FF320068C0F30220C11E80F0B2
:1011E000070038BF0021042828BF042002FA00F0BD
:1011F00026EA0000884002FA01F124EA01010143D5
:101200002846BDE8704003F09FBD00BF10B50446FE
:101210000338052803D30748922103F0A8FD0648A8
:101220004FF6FF0201681140044A64F30A2111439A
:10123000016010BD805A00080CED00E00000FA05C6
:1012400080B501F0070E00EB411C090600EB4E10C3
:1012500000F1280058BF0CF594702AB101210381D8
:101260000173190C418102E00021C3800173002049
:1012700080BD704700EB4112D0F86802D26B02F0DB
:10128000F6BA00EB4112D0F86802D2F83C2102F025
:101290004DBB10B5044601F00700090607D404EB66
:1012A0004011002281F8292101F5947105E004EB39
:1012B0004011012281F829202831087094F8280271
:1012C000012804BF022010BD012084F828022068F4
:1012D00003F0DCF8002084F8280210BDB0B5044605
:1012E000406801F00F02824201D9012522E001F09D
:1012F0000700090607D404EB4011002281F82921D8
:1013000001F5947105E004EB4011012281F82920D8
:10131000283100258D70087094F82802012801D129
:10132000022507E0012084F82802206803F046F92E
:1013300084F828522846B0BD10B5044690F828021B
:10134000012804BF022010BD01200A0684F82802EB
:10135000206802D403F088FA03E001F0070103F0EB
:1013600085FA002084F8280210BD01F0070100EB87
:101370004110D0F84401704710B5044601F0070051
:10138000090604EB401C05D400218CF829110CF54A
:10139000947104E001218CF829100CF128010A61F4
:1013A000CB7008704A7802B1C881022B04BF0020BC
:1013B000087194F82802012804BF022010BD012002
:1013C00084F82802206802F029FF002084F828020F
:1013D00010BD80B501F0070C4FF0000E00EB4C1172
:1013E00001F59E77A7E80C4081F829E181F828C132
:1013F00001F59471006803F037F9002080BDB0B5A5
:101400000446406801F00705854284BF0120B0BD55
:10141000080607D404EB4110002180F8291100F5DB
:10142000947106E004EB4510012180F8291000F1C9
:10143000280101200D70887094F82822012A04BF29
:101440000220B0BD84F82802206803F0F5F825B921
:10145000206804F50C7103F0AFF8002084F828022E
:10146000B0BD80B501F0070C00EB4C1101F828CF9E
:101470004FF0000C01F1140E8EE80C1001224A709E
:10148000006803F0F1F8002080BD00002DE9F84F5E
:101490000446006803F0F2F9000401D4206859E121
:1014A00004F50C7040F60F7500904CE1B0F8442044
:1014B00012F00F0B2DD030F82BA04FEA4B095FEA4A
:1014C0000A4140F1FA8030F8191004EB4B1707F588
:1014D00094782940803120F8191097F834110029A8
:1014E00000F0858098F8001030F82120B0F85030D6
:1014F00003EBC101520400EB410100F18E80B1F811
:101500000C646FF39F26002E00F0B080B7F83221F4
:101510008AE00188D2062CD4294001F500410180DF
:10152000B0F8501094F8282001EBC20100EB410004
:10153000B0F804046FF39F206064E16B084400215D
:10154000E0632046FFF796FE94F82400002800F0A0
:10155000FA80206C002840F0F680206894F824106F
:1015600041F08001C9B2A0F84C10002084F824009A
:10157000E9E00A055ED4090440F1E58001882940CC
:1015800080310180B0F8501094F8282101EBC2019D
:1015900000F20C4232F811306FF39F23002BC4F895
:1015A000443114D0D4F83C1189B1B4F82E2103F0A1
:1015B00068F9D4F83C01D4F8441108440021C4F877
:1015C0003C012046FFF75DFE206800F20C42B0F8B7
:1015D0005010D4F83831002B00F097803E2B00F2E9
:1015E0009C8003F0010707EB53039B02A0E0B0F8D7
:1015F000501098F8002001EBC20100EB4101B1F856
:101600000C646FF39F26002E7DD0B7F82E21D7F8FB
:101610003C11334603F035F934E0B1F804646FF35C
:101620009F261EB3B7F83021D7F83C11334603F09C
:1016300028F91CE0B0F8501094F8282101EBC20101
:1016400000EB4101B1F80C3400996FF39F23C4F80B
:101650004431B4F82E2103F014F9206801882940A0
:1016600080310180204600F0E1F96CE0002698F816
:101670000000216848F2C00331F820202A401A43B4
:1016800021F82020D7E94F03D7F8441131448219BB
:10169000002BC7F84411C7F83C2103D0D7F8380114
:1016A000B04205D998F800102046FFF7EAFD04E0A3
:1016B00098F800102046FFF78CFE5FEA0A6042D5DA
:1016C000206804EB4B1330F81910294001F5004154
:1016D00020F81910B0F8502093F8281002EBC1023E
:1016E00000EB4200B0F804046FF39F205864DA6BFB
:1016F00002442046DA631B6C13B1FFF7B2FE22E00E
:10170000FFF7B8FD1FE00026BCE78B5A574E23F4C5
:10171000F8438B528B5A33430AE0DF064FF0FF3613
:101720004FEA531708BF06EB5317504B43EA872382
:101730008B5243F60F720188114048F2C00202F545
:101740003F52514001802068B0F94410B1F1FF3F91
:101750007FF7ACAE03F092F840050DD52068B0F8E5
:10176000441021F48061A0F84410204600F030F9C4
:101770002046002100F046F9206803F07FF801467A
:101780002068490442BFB0F8441021F48041A0F819
:10179000441003F073F801462068890442BFB0F892
:1017A000441021F40051A0F8441003F067F80146FA
:1017B0002068C90415D5B0F8401021F00401A0F844
:1017C0004010B0F8401021F00801A0F84010204669
:1017D00000F010F92068B0F8441021F48051A0F80E
:1017E000441003F04BF8000520D52068B0F84010F5
:1017F00041F00801A0F84010B0F8441021F4006155
:10180000A0F84410B0F8401041F00401A0F84010D6
:1018100003F034F8C00406D52068B0F8441021F471
:101820008051A0F84410204600F020F9206803F011
:1018300025F8800509D52068B0F8441021F400711E
:10184000A0F84410204600F0D9F8206803F016F8FC
:10185000C00558BFBDE8F88F2068B0F8441021F4E7
:101860008071A0F84410BDE8F88F00BF0080FFFF32
:10187000F0B585B0002861D004460068364988423A
:1018800003D036A08C2103F072FA94F8290228B90B
:10189000002084F82802204600F07CF8032084F819
:1018A0002902206802F07FFE94E82F50D4E90767F0
:1018B0008DE82050CDE9036702F0E6FDD8BB206833
:1018C0000021002502F0F9FF6168012000220CE0F0
:1018D00004EB4317FB8687F8282087F82900C7E91F
:1018E0000E553D6487F82B500132D3B29942EFD8A0
:1018F000002000220CE004EB4313C3E94E00C3F8C0
:10190000400183F82B0183F8282183F82901013253
:10191000D3B29942EFD804F1080720688CCFD4E9FC
:101920000565D4E907CECDE9007602AE86E8205001
:1019300002F027FE30B1022084F829020125284652
:1019400005B0F0BD0025012084F8245084F8290258
:10195000206802F014FEF2E7005C00402E2E2F44B7
:101960007269766572732F53544D333246317878ED
:101970005F48414C5F4472697665722F5372632FE2
:1019800073746D3332663178785F68616C5F706351
:10199000642E630000680C49884218BF7047E0B5A8
:1019A0000A480022016841F400010160002100683A
:1019B00000F40000019001981420FFF7F9FB1420B7
:1019C000BDE88C40FFF7E0BB005C00401C1002400B
:1019D00010B504468068022818BFFFF763F9D4F8F1
:1019E0006802012102F08AF8D4F86802BDE81040CC
:1019F00002F043B8D0F8680202F068B8D0F8680284
:101A000002F06EB810B5044690F82802012804BF11
:101A1000022010BD012084F8241084F828022068D8
:101A200002F04DFF002084F8280210BDD0F8682293
:101A300000F50C71104602F06DB810B5044690F830
:101A40002802012804BF022010BD0120012184F8D2
:101A500028022046FFF70DFC206802F08EFD20686A
:101A600002F0FAFE002084F8280210BD10B50446EA
:101A7000D0F8680202F08BF8A06920B10248016832
:101A800041F00601016010BD10ED00E02DE9FC41C0
:101A90000446006810F0130F04D149486C2103F08C
:101AA00066F92068EC4EC0075FD060684FEA3020CE
:101AB000042803D34248722103F059F9B069C000E9
:101AC0000BD4B0694FF0010840F08050B061B069AC
:101AD00000F080500190019801E04FF00008394F6C
:101AE0003868C00510D4386840F480703860FFF75B
:101AF000E9FA05463868C00506D4FFF7E3FA401B4B
:101B00006428F7D9032057E0F06910F440701ED024
:101B1000616801F44071884219D02B49F0690122B3
:101B20000A6000220A6020F44071C007F1610ED003
:101B3000FFF7C8FA054641F28837F069800706D4F6
:101B4000FFF7C0FA411B0320B942F6D934E0F0692F
:101B50006168B8F1000F20F4407040EA0100F061C4
:101B60001EBFB06920F08050B061206881070FD59A
:101B7000A1684FEAB132042A05D31148B92103F014
:101B8000F6F82068A168326822F4404211433160BF
:101B9000C00610D5E06840F48001B1F5800F05D093
:101BA000074840F2151103F0E2F8E068316821F4CB
:101BB000800108433060002002B0BDE8F08100BF22
:101BC0000C5A000800700040400442422DE9F843DE
:101BD000002800F0B780044600780D46000704D1C5
:101BE0007F484FF44E7103F0C2F8032D04D37C48B4
:101BF00040F2393103F0BBF87A49086800F0070079
:101C0000A8420AD2086820F0070028430860086844
:101C100000F00700A84240F09580206889468107BF
:101C20008D49884627D5410706D5D8F80010424689
:101C300041F4E061C8F80010010706D5D8F800109B
:101C4000424641F46051C8F80010A1684FEA3112D1
:101C50000F2A00F2AD80012303FA02F24FF601735E
:101C60001A4200F0A580D8F80020434622F0F00286
:101C70001143C8F80010C00751D1D9F8000000F096
:101C80000700A8420CD9D9F8000020F0070028432B
:101C9000C9F80000D9F8000000F00700A84251D1AF
:101CA0002068410714D5E1684FEA3122072A00F283
:101CB0008780012303FA02F212F0F10F00F0808016
:101CC000D8F80020434622F4E0621143C8F800101F
:101CD000000713D520694FEA3021072978D801225F
:101CE00002FA01F111F0F10F72D0D8F8001042465B
:101CF00021F4605141EAC000C8F8000000F090F8FB
:101D0000D8F80010384AC1F30311515CC840424969
:101D1000086036480068FFF7F5F9002013E06068B6
:101D200050B101281AD0022810D158F8041C40469E
:101D3000880107D5022018E0404658F8041C00200E
:101D4000890712D4012001B0BDE8F083244840F295
:101D5000663103F00CF86068012823D1404658F83A
:101D6000040C80034FF00100EDD5D8F8001021F0ED
:101D700003010843C8F80000FFF7A4F9064641F242
:101D800088374046D8F80000616800F00C00B0EBDE
:101D9000810F3FF472AFFFF795F9801BB842F0D97D
:101DA0000320D0E74146022858F8041CC0D0C7E7FA
:101DB0000B4840F25F3102F0DAFF2068A16852E779
:101DC00007484FF4697102F0D2FF2068E16877E7B5
:101DD000034840F2AB3102F0CAFF206985E700BF3B
:101DE000D4590008002002401059000804000020C7
:101DF00009481949094A00680968C1F30221515C80
:101E0000C840704704481449044A00680968C1F38F
:101E1000C221515CC84070472800002020590008AA
:101E200010B50D4C0D48226802F00C03082B18BFAA
:101E300010BDC2F383430AA1CB5CD10302D40D4889
:101E4000584310BD21680AA25843C1F34041515C78
:101E5000B0FBF1F010BD00BF0410024000127A0088
:101E600002030405060708090A0B0C0D0E0F1010DB
:101E70000102000000093D002DE9FC41002800F0AE
:101E80008E810446006848B110F00F0106D1DFF8DA
:101E9000EC0340F2671102F06AFF2068C24EC007EF
:101EA00058D0606858B1B0F5803F08D0B0F5A02F89
:101EB00005D0DFF8C80340F26D1102F058FF7068DA
:101EC00000F00C00042817D0706800F00C000828FF
:101ED00002D17068C0030FD4606898B1B0F5803F3C
:101EE00006D03168B0F5A02F21D141F480203060B8
:101EF000306840F4803020E0306880032AD5606884
:101F000040BB4CE1306820F480303060306820F411
:101F100080203060FFF7D6F805463068800319D579
:101F2000FFF7D0F8411B03206429F6D938E121F4EA
:101F300080303060306820F480203060FFF7C2F8D5
:101F400005463068800305D4FFF7BCF8401B6428C1
:101F5000F7D9FAE0207880073CD52069022804D31D
:101F6000C64840F2A11102F002FF6069202804D3A4
:101F7000C2484FF4D17102F0FAFE706810F00C0FF5
:101F800007D0706800F00C00082809D17068C00301
:101F900006D43068800716D52069012813D0FEE0EA
:101FA0002069002800F09580B54801210160FFF705
:101FB00089F805463068800705D4FFF783F8401B91
:101FC0000228F7D9C1E03068616920F0F80040EAE2
:101FD000C10030602078000736D5A069A84DB8B19F
:101FE000012806D0A5484FF4F17102F0C0FEA069A7
:101FF00070B10120C5F88004FFF764F80546706AE7
:10200000800714D4FFF75EF8401B0228F7D99CE044
:102010000020C5F88004FFF755F80546706A800770
:1020200012D5FFF74FF8401B0228F7D98DE09548ED
:102030004FF4FA510068B0FBF1F0019000BF019835
:10204000411E00280191F9D12078400740F1868097
:10205000E068052805D8012101FA00F010F0230FEF
:1020600004D1864840F2112102F081FEF069C000DF
:102070000BD4F0694FF0010840F08050F061F06936
:1020800000F080500090009801E04FF000087E4F73
:102090003868C0050FD4386840F480703860FFF7A6
:1020A00011F805463868C00505D4FFF70BF8401B4A
:1020B0006428F7D949E0E068E0B1012805D0316A29
:1020C00005282ED141F004003062306A40F0010052
:1020D0002DE06B4800210160FEF7F4FF05463068F3
:1020E00080077FF577AFFEF7EDFF411B0320022944
:1020F000F5D955E0306A20F001003062306A20F0F6
:1021000004003062FEF7DEFF054641F28837306A90
:1021100080071CD5FEF7D6FF411B0320B942F6D934
:102120003EE021F001003062306A20F004003062AD
:10213000FEF7C8FF054641F28837306A800706D4AB
:10214000FEF7C0FF401BB842F7D9032028E0B8F1E2
:10215000000F1EBFF06920F08050F061E069411E61
:1021600002290AD3002800F08680444840F2AF21BB
:1021700002F0FDFDE06900287DD0716801F00C01DE
:10218000082913D101280AD07068216A00F480322E
:102190008A4204D1616A00F4701088426BD0012039
:1021A00002B0BDE8F08100BF00100240344F0228A9
:1021B00023D1206A40F48030B0F5803F04D02F480E
:1021C0004FF42E7102F0D3FD606A4FEAB0400F2841
:1021D00004D32A4840F2B92102F0C9FD0020386634
:1021E000FEF770FF05463068800115D5FEF76AFFDF
:1021F000411B03200229F6D9D2E700203866FEF7FA
:1022000061FF04463068800135D5FEF75BFF011B96
:1022100003200229F6D9C3E7206AB0F5803F14D124
:10222000A16841F40030B0F5003F02D14FF4803096
:1022300006E0124840F2CF2102F099FDA168206A21
:10224000726822F4003211437160716821F47411D4
:102250000843616A0843706001203866FEF732FF68
:1022600004463068800106D4FEF72CFF011B0320D2
:102270000229F6D994E7002092E700BFD45900085C
:1022800000004242280000200070004070B5002885
:1022900000F0A280044600685149884207D05149A5
:1022A000884204D0E6484FF4AC7102F060FD6068EB
:1022B00038B1B0F5827F04D0E14840F2591102F004
:1022C00056FDA06850B1B0F5806F07D0B0F5004F53
:1022D00004D0DB484FF4AD7102F049FDE06840F4F2
:1022E0000060B0F5006F04D0D54840F25B1102F0F9
:1022F0003EFDA06950B1B0F5007F07D0B0F5802F4A
:1023000004D0CF484FF4AE7102F031FDE0694FEADE
:10231000F000082804D3CA4840F25D1102F027FDFE
:10232000206A40F08000802804D0C5484FF4AF7187
:1023300002F01DFD606A30B1C14840F2611102F047
:1023400016FD606A88B9206940F00200022804D0B6
:10235000BB484FF4B27102F00AFD6069022804D351
:10236000B74840F2651102F002FD00264FF0000C64
:10237000A66294F8510030B9204684F8506000F00D
:1023800033F8D4F828C0022184F8511021680A6873
:1023900022F040020A60D4E90123D4E903051A437C
:1023A0001043626928431043A26902F40073184382
:1023B000E3691843236A184340EA0C0008600420CC
:1023C00000EA12404860C86920F40060C86101203A
:1023D000666584F8510000E00126304670BD00BFFC
:1023E000003800400030014070B586B00026194C1E
:1023F000CDE90466CDE90266006804F52051884203
:1024000025D1154802AD016841F480510160016891
:1024100001F4805101910199016841F004010160CA
:102420002946006800F004000190019803200590FF
:1024300002200390A02002902046FEF7A7FC402037
:10244000CDE90366294602902046FEF79FFC06B0C0
:1024500070BD00BF00080140181002402DE9F8438C
:10246000044680681E4615460F4620B1744840F267
:10247000824102F07CFC94F85000012801D1022036
:10248000C4E0012084F85000FEF71CFE94F85110BF
:10249000814601296BD10120002F00F0B180002D71
:1024A00000F0AE80002E00F0AB8094F85100731E57
:1024B000DDF82080B3FA83F304281CBF052084F8DC
:1024C00051005B0900206065E687A563A687276346
:1024D000C4E91000A686E6862068016849065EBF4A
:1024E000016841F0400101606168E268B1FA81F180
:1024F000B2F5006F4FEA511141EA030145D131B104
:1025000037F8021BC1602763E08E0138E0860126A0
:1025100008F10105E08E10B9E08F002879D020681D
:10252000816889070CD5E18E012E09D141B1216B5B
:10253000002631F8022BC2602163E18E0139E18669
:102540008168C9070AD0E18F41B1C068A16B01263B
:1025500021F8020BA163E08F0138E087FEF7B2FD9E
:10256000002DD7D0A0EB09004045D3D347E06068E9
:10257000B0F5827F07D10220042941D1A16800294A
:102580003FF489AF3CE002203AE039B13978017379
:10259000206B01302063E08E0138E086012608F1CF
:1025A0000105E08E08B9E08F98B32068816889073B
:1025B0000ED5E18E012E0BD151B1216B0026097889
:1025C0000173216B206801312163E18E0139E186BD
:1025D0008168C9070BD0E18F49B1C068A16B0126A2
:1025E0000870A06B0130A063E08F0138E087FEF730
:1025F00069FD002DD5D0A0EB09004045D1D30320C3
:10260000002184F85010012184F8511001B0BDE878
:10261000F083204641464A4600F073FE18B1202060
:1026200060650120ECE7A16800200029E8D1009056
:102630002168CA680092896800910099E0E700BFAC
:1026400063590008411E0020B0EB116F1CBF012030
:102650007047044AF023516003490B7007219060D2
:102660001160704710E000E023ED00E070470000CB
:1026700010B5D0F800E00446DEF80010DEF80C20BB
:10268000DEF814305FEA017C50D002F4907003F061
:102690000103C01852D0C8071FBF12F48070E06B4E
:1026A00040F00100E063480704D51BB1E06B40F047
:1026B0000200E063880704D51BB1E06B40F0040022
:1026C000E063BCF1000F04D51BB1E06B40F00800E3
:1026D000E063E06B00286ED002EA0100800604D5BA
:1026E000204600F0F4FED4F800E0DEF81400E16BC0
:1026F00000F0400001F0080140184CD0204600F0E6
:10270000D9FE20684169490640D5416921F0400160
:102710004161606BD0B32F494163FEF7E9FA0028AD
:1027200049D0606B416BBDE81040084711408A06F4
:1027300005D52046BDE8104000F0C9BE114008068E
:102740000FD4480637D5DEF80C0020F04000CEF854
:102750000C00202084F839002046BDE8104000F02D
:102760002FB994F83900212825D1A068216AB0F545
:10277000805F16D108886FF35F20CEF804002069CF
:10278000002814BF481C881C20620FE02046BDE8CA
:102790001040FFF76BBF2046FFF768FF0020E063A3
:1027A00010BD481C20620878CEF80400E08C013887
:1027B000E084000400D010BDDEF80C0020F08000A2
:1027C000CEF80C00DEF80C0040F04000CEF80C0013
:1027D00010BD00BFA9340008D8B110B50446016887
:1027E0008069C0B12D4A91420BD02D4A914208D048
:1027F0002C4A914205D02C484FF4A37102F0B7FA4D
:10280000A0694FEA3020042813D3274840F247112B
:102810000DE001207047214881420AD020488142C2
:1028200007D02048814204D01F4840F24B1102F0EB
:102830009EFAA06840F48050B0F5805F04D01A483A
:1028400040F24D1102F093FA94F8390028B90020B3
:1028500084F83800204600F029F8242084F8390054
:102860002068C16821F40051C160204600F06CFE70
:102870002068016921F490410161416921F02A0138
:102880004161C16841F40051C16000202021E06332
:1028900084F8391084F83A1010BD00BF004400409D
:1028A00000480040003801409B59000870B586B0D0
:1028B00000261E4CCDE90466CDE90266006804F5E9
:1028C000405188422FD11A4802AD016841F480413D
:1028D0000160016801F4804101910199016841F0B2
:1028E000040101602946006800F00400019001988D
:1028F00003200590022003904FF4007002902046C0
:10290000FEF744FA4FF48060CDE903662946029051
:102910002046FEF73BFA252003210322FEF748FC60
:102920002520FEF731FC06B070BD00BF0008014055
:1029300018100240034690F83A00202806D10120E2
:10294000E9B1E2B193F83800012801D102207047C3
:102950000020DA85D8639A859962222183F83800AD
:1029600083F83A101968CA6842F48072CA604A69EA
:1029700042F001024A61CA6842F02002CA60704710
:10298000B0B5094C211D884218BFB0BD254607A02F
:1029900015F8041BFDF752FC284621460122BDE82C
:1029A000B040FFF7C7BF00BF980100207561727487
:1029B0003120726563656976653A2025630D0A00EA
:1029C0007047FEE7B0B552004FF0000C4FF0370EE5
:1029D00000239A4208BFB0BD0EEB1074050FB0F192
:1029E000204F4FEA001038BF05F13004CC5443F0BB
:1029F0000104023301F804C0EBE7B0B5D0F8B852D7
:102A0000044641F21800285C88B12046812101F07B
:102A1000ACF8687A022818BFB0BD41F20C00012161
:102A20001F232A182046BDE8B04001F01DB841F22E
:102A3000140028580028E8D0687A0028E5D12046FC
:102A4000012101F092F8E0E710B5D0F8B842627ABF
:102A5000022A05D1812101F088F80020607210BDA2
:102A600049B2B1F1FF3FFADC012A08BF10BD0121D4
:102A7000BDE8104000F0D8B810B50446D0F8B80250
:102A8000017ACA1E022A05D220460021BDE8104064
:102A900000F0CAB8022912D141F2190141F21B0219
:102AA000415C0244204600F09DF9B0F1FF3FC8BFF1
:102AB00010BD20460121BDE8104000F0B5B810BDA2
:102AC000B0B5D0F8B8520446287A012832D0E8BB15
:102AD00041F2100041F230012858685041F21400D0
:102AE00041F23401285868502046012100F066FF69
:102AF0001F2810D141F20C003149285888420AD1D0
:102B000041F21900295C012905D841F21A00285C1C
:102B1000013810281BD341F2190005222023295C1B
:102B2000204600F0D5FB022068722046BDE8B04088
:102B3000FFF763BF41F21900295C41F21B002A181C
:102B4000204600F04FF9B0F1FF3F2DDDB0BD41F25E
:102B50001B002A18204600F045F9297AB0F1FF3F02
:102B600020DD481E0328F1D3688918B3D4F8B812C1
:102B700041F2380200238B5441F234028B581B1A65
:102B80008B5004220A7241F21402895805F10C029A
:102B9000814238BF084683B281212046BDE8B0405B
:102BA00000F0FEBF0529C0D120460121BDE8B0409C
:102BB00000F03AB820460021BDE8B04000F034B83B
:102BC00055534243D0F8B802002101727047B0B5A6
:102BD000D0F8B852044641F25C0000212952298104
:102BE000D4F8BC020168002088472046012100F08B
:102BF000DCFE2046812100F0D8FE41F20C000121CC
:102C00001F232A182046BDE8B04000F02DBFD0F8A1
:102C1000B8124FF480721F230A8141F20C020A4459
:102C2000012100F021BF0000B0B5D0F8B852044631
:102C300041F238000D2329540A4941F22C002A1888
:102C40002950002120462972812100F0A9FF41F27C
:102C50000C0001211F232A182046BDE8B04000F0D7
:102C600003BF00BF5553425310B5034C0348611CCA
:102C7000FEF719F8207010BDDC01002024010020AF
:102C80007FB51348134C012210250126016841F03D
:102C900020010160016801F02001009100990168A4
:102CA00041F0040101601021006800F00400009070
:102CB00000982046FEF7EEF90320694603900020B5
:102CC00002902046CDE90056FEF760F87FBD00BFB8
:102CD0001810024000080140B0B5104800220A2137
:102CE0000F4D4FF0080C4FF4007E02234FF4827416
:102CF000C0E90822C0E90A210121C0E90054C0E965
:102D00000222C0E90431C0E906ECFFF7BFFA00284F
:102D100014BFBDE8B040B0BDFDF7C4BFE829002036
:102D20000030014080B50C480C490C224FF4E133CF
:102D300040F8041F0021C0E90131C0E90311C0E9D6
:102D40000521C161FFF748FD002814BFBDE88040A0
:102D500080BDFDF7A7BF00BF9801002000380140EB
:102D600080B510481049002200F05AFD08B1FDF767
:102D700099FF0C480D4901F02AF808B1FDF792FFC0
:102D800008480B4900F083FF08B1FDF78BFF0548A9
:102D900001F031F8002814BFBDE8804080BDFDF788
:102DA00081BF00BFB824002008000020440000209C
:102DB000E8000020FEE7704770479918D0F8B82265
:102DC0004FF48353D258914209D980B5002105228E
:102DD000212300F07DFAFF20BDE8804000E00020C4
:102DE00040B270472DE9FE4F044610780D46164656
:102DF000A0F11A0110290FD8DFE801F03D0935359F
:102E000009353535354D356A35357F35D000D4F83F
:102E1000B8020025458150E25A2800F00B810328B2
:102E200000F01781122800F045812F2800F05E8104
:102E3000C8B9D4F8B86241F214003058002840F004
:102E40003582D4F8BC0281682846884700250028CE
:102E500000F05F812046002102223A2300F038FA78
:102E60000520307229E2204600210522202300F0AF
:102E70002FFAFF2521E2D4F8B8020821DFF8482410
:102E80004181072104E08BB20139C718D35C3B7341
:102E90004B1CF8D165E1D4F8B8620021002206F19C
:102EA0000C0001E0815401320C2AFBD1D4F8BC02A1
:102EB00001A90DF10A02436828469847002800F04E
:102EC0003C812046002102223A2300F001FA48E129
:102ED000D4E9AE6041F25E0106EB0108436806F5F5
:102EE00083572846394642469847002800F03B81E0
:102EF0002046002102223A23DCE1D4F8B88298F877
:102F000008004746002800F041814FF4805641F206
:102F10005E0041F2680B41F2640A07F10C09A8F85F
:102F20000A60385A57F80B104143B1F5805F38BF3B
:102F30000E461FFA86F857F80A204946B8FBF0F308
:102F4000D4F8BC02D0F810C02846E047B0F1FF3FEB
:102F500040F36E8141F25E0007EB0A0581214A468B
:102F60004346BB4407EB000A204600F019FEBAF8BE
:102F700000002968B8FBF0F001442960DBF800107C
:102F8000081ACBF8000041F234003958A1EB0601D1
:102F9000395040F0E68003203872E2E0D4F8B8827D
:102FA00041F25E0008EB000798F80800002800F0E6
:102FB00025813888D7F80A10D7F8062008F10C09BF
:102FC00001FB00F64946B6F5805F28BF4FF48056F6
:102FD0001FFA86FABAFBF0F3D4F8BC02D0F814C09A
:102FE0002846E047B0F1FF3F40F327813888D7F803
:102FF0000620D7F80A30BAFBF0F10A44591AC7F88C
:103000000620C7F80A1041F2340258F80230A3EB48
:10301000060348F8023000F01581484301214A4672
:10302000B0F5805F28BF4FF4805083B2204600F097
:103030001BFD96E0D4F8B8020821A24A418107217D
:1030400004E08BB20139C718D35C3B734B1CF8D139
:1030500087E0D4F8B8020C21002201E0425401318B
:103060001E29FBD10C2141F25C0241F25D03C174C7
:1030700070210173815CC35C994214D000EBC103E1
:1030800041F23C0701310244DF5D877341F24107A1
:10309000DF5D07764FF48257DB5D4376CBB2043BAE
:1030A00018BF0B461370122141813179122998BF44
:1030B000418156E07178D4F8B802C9072BD1D4F811
:1030C000BC2205EBC501D26902EB81010A79531DCF
:1030D00032799A4288BF1A46428104E0013A93B29B
:1030E000CF5C03441F73002AF8D13AE07078800760
:1030F0001ED4D4F8B86241F268002946335841F230
:10310000640032582046FFF758FE00250028C0F220
:10311000D4807581D1E007216C4A4181062104E009
:103120008BB20139C718D35C3B734B1CF8D118E044
:103130002046002105222423BCE008200221F07350
:103140000198B1820138010AF074B174010C000ECB
:10315000717430740C21BDF80A00F075000A718199
:10316000B0750025A9E03868002535820138010ACC
:10317000F073B173010C000E717330730821B8F84D
:103180000000F074000A7181B07496E041F21800FA
:1031900018F90000002880F28980D4F8BC02816808
:1031A0002846884700287FF4A3AED6F8020002BA6A
:1031B00041F2640048F80020F079317A41F2680663
:1031C00041EA00232046294648F80630FFF7F5FD7E
:1031D0000028C6DB022108EB060041F25E0288F8F7
:1031E000081041F2140138F80220006858F8011064
:1031F000504381425AD1D4F8B87286E641F21800A1
:1032000018F90000B0F1FF3F50DDD4F8BC0281682E
:103210002846884700287FF46BAED4F8BC02C1680A
:1032200028468847A0B1204600210222272341E0FA
:1032300020460021042211233CE0204600210422E4
:10324000032337E0204600210025FFF7EDFC34E0A2
:10325000D6F8020002BA41F2640048F80020F07982
:10326000317A41EA002320462946C7F80A30FFF7A1
:10327000A4FD0028FFF675AF41F25E00D7F80A10F2
:1032800038F80000484341F2140158F80110814217
:103290000CD10121B0F5805F08F10C0288F808100C
:1032A00028BF4FF4805083B20121BFE620460021A1
:1032B00005222023002500F00BF868B203B0BDE81A
:1032C000F08F00BF2859000830590008385900080D
:1032D00010B5D0F8B80241F25D0C4FF4825E0024C4
:1032E00010F80C3000EBC30101F80E4041F23C0431
:1032F0000A55591CCAB2043A18BF0A4600F80C20F5
:1033000010BD10B513460A468021044600F00AF8A5
:1033100000280FBF0020606D40F02000606518BFDE
:10332000032010BD2DE9F041984616460F4604468D
:10333000551C206880683840B8421CBF0020BDE89A
:10334000F081002DF5D0FDF7BDFEA0EB0800B042E6
:10335000EFD32068416821F0E00141606168B1F578
:10336000827F0AD1A168B1F5004F02D0B1F5806F1C
:1033700003D1016821F040010160A16AB1F5005F4D
:1033800007D1016821F400510160016841F4005146
:103390000160002084F85000012084F851000320CF
:1033A000BDE8F0814FF48050086010800020704725
:1033B00000207047002070470020704700207047B1
:1033C00080B510031A0301F02FFC002080BDF8B572
:1033D00014460D469F1816030AE0304629464FF45E
:1033E000805201F0D3FB06F58056013405F5805577
:1033F000BC42F2D3002001B0F0BD7047FDF766BEBD
:10340000B0B594B000244FF4E01002250121CDE9BD
:103410000F44CDE90D44CDE9024413904FF48030C0
:10342000129011950E910C94CDE90A100AA8FEF79E
:1034300023FD4FF480600994022108900F20CDE90C
:103440000654059005A8FEF7C1FB102004940190D6
:1034500001A8FEF71BFB14B0B0BD00000E480F4AD8
:10346000016841F001010160416811400C4A41606E
:10347000016811400160016821F480210160416808
:1034800021F4FE0141604FF41F01816005484FF0B7
:1034900000610160704700BF001002400000FFF8AB
:1034A000FFFFF6FE08ED00E0406A0021C185C184FF
:1034B000FFF7DCB80168CA6822F49072CA604A69F2
:1034C00022F001024A61202180F83A10704790F8FA
:1034D0003A10222918BF70478168B1F5805F08D182
:1034E00002680369816A526883B1D2B221F8012B64
:1034F00010E0026901684968002A826A02F101034A
:10350000836218BF01F07F01117004E06FF35F2246
:1035100021F8022B8162C18D0139C185090400D0D7
:1035200070470168CA6822F02002CA60CA6822F4A3
:103530008072CA604A6922F001024A61202180F843
:103540003A10FFF71DBA000010B504464068344930
:10355000884204D3334840F6FD3101F008FCE068AE
:1035600040F40050B0F5005F04D02E4840F6FE3124
:1035700001F0FDFB206950B1B0F5806F07D0B0F5C8
:10358000C06F04D0274840F6FF3101F0F0FB6069BE
:1035900018B14FF6F371084004D022484FF440614F
:1035A00001F0E5FB20680169E26821F44051114314
:1035B00041F20C620161D4F808C0D4E904E3C168A7
:1035C00091434EEA0C021A431143C1604169A2695A
:1035D00021F44071114341611349884202D0FEF742
:1035E00007FC01E0FEF70EFC19214843D4E9001264
:1035F0006FF063049200B0FBF2F06422B0FBF2F3D0
:1036000003FB0400322404EB0010B0FBF2F000F0E6
:10361000F00200F00F0002EB03121044886010BDAE
:1036200021AA44009B590008003801400148FFF7D7
:103630001FB800BF9C01002080B5D0F8B4225268AA
:103640009047002080BD80B513460A46002100F057
:103650000BFA002080BD80B513460A46002100F019
:103660009FFA002080BD10B58021044600F07DFA4D
:1036700020460021BDE8104000F077BA80B5052152
:1036800000220023C0F89412002100F0EDF9002080
:1036900080BD80B513460A460221C0E90733C0F851
:1036A0009412002100F07CFA002080BD80B5042136
:1036B00000220023C0F89412002100F071FA0020CB
:1036C00080BD000010B52A4C0A4603A0214600F038
:1036D0006DF8204610BD00BF4D534320436F6E660A
:1036E0006967000012200880004870472C00002005
:1036F00010B51F4C0A4603A0214600F057F820469B
:1037000010BD00BF4D534320496E746572666163FE
:103710006500000004200880004870474000002039
:1037200010B5134C0A4603A0214600F03FF820468E
:1037300010BD00BF53544D6963726F656C6563744F
:10374000726F6E696373000010B5094C0A4603A0DE
:10375000214600F02BF8204610BD00BF53544D33D6
:1037600032204D6173732053746F7261676500007E
:10377000E40100201A2008800A4908688A68801835
:103780000ED0B0B5084D4C680822A91CFFF71AF9F5
:1037900005F1120120460422FFF714F9BDE8B040FC
:1037A00001487047E8F7FF1F0801002080B550B3BB
:1037B0004FF0000C864603E00EF1010E0CF1010CF7
:1037C0009EF80030002BF7D15FFA8CFC4FF0020E10
:1037D0000EEB4C0CA2F800C081F800C04FF0030CB7
:1037E00001220BE05FFA8EF301304FF0000CCA5457
:1037F0004EF001020EF10203D2B29E4601F802C061
:103800000278002AEED180BD03288FBF0220C000BD
:10381000024921FA00F098BFC0B2704700020102CD
:1038200088B1D0F8B43213B10023C0F8B43209B172
:10383000C0F8B01280B50121027080F89C1200F02F
:10384000C1F8002080BD0220704780B5D0F8C002CA
:10385000FDF744FDBDE88040FFF7D6BF80B5D0F846
:10386000C002FDF716FDBDE88040FFF7CDBFB0B543
:10387000044669B1D4F8B40242693AB194F89C02A2
:10388000032803D1204690470020B0BD0220B0BDE0
:10389000D4F8940280B104280ED002283DD1D4E996
:1038A000081081420DD9081A114683B220622046C1
:1038B0001A46FFF7D0FE18E02046802100F055F9A7
:1038C0002BE0E169814217D3B1FBF0F202FB10104B
:1038D00090B9D4F8980281420ED2204600210022ED
:1038E0000025FFF7B8FEC4F89852204600210022B8
:1038F000002300F0B9F810E0D4F8B402C16829B18F
:1039000094F89C02032801D1204688472046802154
:1039100000F02BF92046FFF7B1FE94F8A01200202A
:10392000012904BF84F8A002B0BDB0BDB0B5044603
:1039300061B1D4F8B402826932B194F89C020328D0
:1039400002D1204690472DE002252CE0D4F89402C5
:103950000025052812D0032825D1D4E9581081422A
:1039600013D9091AC4F86011814238BF084683B2DE
:10397000114620461A46FFF766FE13E02046002156
:10398000C4F8945200F0F1F80DE0D4F8B4020169E3
:1039900029B194F89C02032801D12046884720468B
:1039A000FFF784FE00252846B0BD80B5D0F8C002E0
:1039B000FDF7C2FCBDE88040FFF726BFD0F8C0028B
:1039C000FDF7D3BCB0B5044617480021174B0822B9
:1039D000C0F86842C4F8C002C0E9061101620221C1
:1039E000C0E900328160FDF743FF08B1FDF75AF9E5
:1039F000D4F8C0020E4D002100221823A847D4F8A5
:103A0000C002802100225823A847D4F8C002812197
:103A100000229823A847D4F8C00201210022D8230D
:103A2000A8470020B0BD00BF7C270020005C0040FC
:103A300041120008D0F8C00201F07F02090600EB35
:103A4000421000F12A0258BF00F5957210787047B5
:103A500080B59446D0F8C0021A466346FDF78CFC48
:103A6000BDE88040FFF7D0BE80B5D0F8C002FDF7BA
:103A7000B0FCBDE88040FFF7C7BEF8B500210022CA
:103A80004023044600254026FFF7E2FF0127204699
:103A9000802100224023C4F86461C4F85871FFF704
:103AA000D7FF84F89C726662A761C4F89452C4F888
:103AB000A4526560D4F8B80228B1D4F8B402002149
:103AC000426820469047002001B0F0BD90F89C125B
:103AD000042904BF90F89D1280F89C1200207047C2
:103AE00090F89C12032907D1D0F8B412C96919B112
:103AF00080B58847BDE880400020704701740020F1
:103B0000704780B5D0F8C002FDF77CFFBDE880406B
:103B1000FFF77ABEB0B500F52A750446284600F0D6
:103B20004BF9B4F8AE120120C4E9A50194F8A8023B
:103B300000F01F01022907D001290AD071B92046DF
:103B4000294600F05DF90EE02046294600F090FA83
:103B500009E02046294600F035FB04E000F0800132
:103B6000204600F002F80020B0BD80B5D0F8C002B9
:103B7000FDF745FCBDE88040FFF746BE80B5D0F8B4
:103B8000C002FDF75AFFBDE88040FFF73DBE90F848
:103B90009C1280F89D12042180F89C12002070472E
:103BA00080B5D0F8C002FDF75CFCBDE88040FFF7AF
:103BB0002BBE80B5FEF760FF002080BD80B5FEF70C
:103BC0007FFF002080BDB0B501210446FFF746FE0F
:103BD000002520468121C4F86C51FFF73FFE2046A6
:103BE000E562FEF7EFFFD4F8B80218B100F010FB61
:103BF000C4F8B8520020B0BD0A21018000487047C7
:103C0000BC00002020210180004870477C0000207B
:103C100020210180004870479C0000202021018065
:103C200000487047C8000020B0B50446007C01255C
:103C300060B12046012102224023FFF709FF204600
:103C4000812102224023C4F86C510DE0204601215D
:103C500002224FF40073FFF7FBFEC4F86C512046BC
:103C6000812102224FF40073FFF7F2FE0120E0628F
:103C700041F26C0000F0CEFA0028C4F8B80204D07B
:103C80002046FEF7A4FF0020B0BD0220B0BD09B160
:103C9000C0F8BC12002070477CB50446D0F8B8626A
:103CA00000200D46ADF80600087810F0600116D02F
:103CB000202963D16978FF2923D0FE295ED1698844
:103CC00000295BD1000659D5E888012856D1D4F8DF
:103CD000BC02806980473060204631464AE06878FF
:103CE0000B2818D001281DD00A283DD0002845D126
:103CF00094F89C02032841D10DF1060120460222CE
:103D000039E06988D1BB000638D4E888B0BB2046CA
:103D1000FEF77DFF4DE094F89C0203282ED1A87891
:103D2000706046E029792046FFF73FFE297920465A
:103D3000FFF794FDA98801F00F00090600EB800051
:103D400004EB800020D400210222C0F85811012188
:103D5000207C0028204614BF40234FF40073FFF757
:103D600077FE04F5B6701EE094F89C02032805D196
:103D7000311D20460122FFF78CFC1AE0204629461F
:103D8000FFF771FC022015E00021022281618121F0
:103D9000207C0028204614BF40234FF40073FFF717
:103DA00057FE04F12C000121016020462979FEF71D
:103DB0004BFE002002B070BD0A7802704A78427053
:103DC0004A8842808A888280C988C18070470029D9
:103DD0000EBF0220C0F8B41200207047D0F8B42201
:103DE0003AB180B512689047002818BF0120400002
:103DF00080BD0220704780B5FFF7C0FE002080BD67
:103E0000BCB5044608780D4610F060000BD0402881
:103E100002D0202840F02481D4F8B40229468268D8
:103E2000204690471FE16878092800F21981DFE8F1
:103E300010F00A00200017012C00170157007A002B
:103E400017013400420094F89C020138022800F265
:103E50000781E888022840F00381D4F8A4020322F5
:103E60002146002808BF012241F80C2F20460222DB
:103E700075E094F89C020138022800F2F18068880D
:103E8000012840F0F080002004E06888012840F01C
:103E9000EA800120C4F8A402DEE0E888012840F0AE
:103EA000DF8094F89C02411E022952D20020214654
:103EB00041F8080F51E068886C4DC1B228700229A2
:103EC00080F0CE8094F89C0203284BD0022840F06A
:103ED0006780002900F0C080032084F89C024CE039
:103EE000A888002840F0BC80E888002840F0B8800E
:103EF00068887F2800F2B48094F89C12032900F0AF
:103F0000AF8000F07F052046294684F89E52FFF7D7
:103F1000F8FD2046FFF7CAFB002D0CBF0120022050
:103F200084F89C029FE000204FF0FF31ADF80600BE
:103F3000688801EB1021062900F29280DFE801F089
:103F40000438249090454F00D4F8B012207C0A68C1
:103F50006FE0032840F08480211D20460122FFF7F6
:103F600098FB80E0002946D06068884200F07480A9
:103F7000C1B22046FFF760FB297820466160FFF759
:103F80002DFF022868D16BE0C0B2052868D8DFE8B1
:103F900000F0033B3F43474BD4F8B002426846E091
:103FA0002046FFF760FB29782046FFF745FB5AE0E3
:103FB000217CD4F8B40200290CBF816AC16A0DF1DA
:103FC000060088470146022013E0207C002847D1E4
:103FD000D4F8B402416B0DF1060088472CE0207C38
:103FE000F0BBD4F8B402016B0DF10600884701461E
:103FF0000720487021E000206060022084F89C02C5
:104000002046FFF719FB27E0D4F8B00282680EE0E3
:10401000D4F8B002C2680AE0D4F8B002026906E03F
:10402000D4F8B002426902E0D4F8B0028269BAB1B1
:10403000207C0DF1060190470146BDF8060048B10D
:10404000EA883AB1904238BF02462046ADF80620D1
:10405000FFF71FFBE88830B92046FFF727FB02E097
:104060002046FFF700FB002002B0B0BDE1010020B8
:10407000B0B5044608780A4610F060000AD040281F
:1040800001D0202846D1D4F8B402114683682046D6
:10409000984742E0202807D1D4F8B402114683683B
:1040A0002046BDE8B040184750781179A8B10128E2
:1040B00026D003282ED194F89C02032824D15088BE
:1040C000002849D141F08000802845D0D0880028C0
:1040D00042D12046FFF749FD3EE094F89C020328B8
:1040E0001DD0022816D1002953D0802912D101F009
:1040F0007F0000EB800004EB800000F1140150E031
:1041000094F89C0203281FD0022803D141F08000BC
:10411000802825D12046FFF7A6FA0020B0BD01F087
:104120000F000A0600EB800004EB800020D4D0F8DA
:1041300058010028EED001F07F0000EB800004EB76
:10414000800000F5AA751EE050880028E5D14806D9
:1041500002D02046FFF779FB2046FFF7A7FADCE7FD
:104160002046FFF702FD20468021FFF7FEFCD4E742
:1041700080690028CED001F07F0000EB800004EBC6
:10418000800000F1140541F0800080280DD100204E
:1041900011E001F07F0000EB800004EB800000F5EF
:1041A000AA7100200860204608E02046FFF742FC84
:1041B0000028ECD001202860204629460222FFF783
:1041C00068FAAAE7B0B5044608780D4610F060001A
:1041D00018BF402815D194F89C020138022812D843
:1041E000A88810F0FE0F0ED1D4F8B40229468268D8
:1041F0002046904750B9E88840B92046FFF756FA64
:1042000004E02028E7D02046FFF72DFA0020B0BDBB
:104210007047000000487047E40300202DE9F0419A
:104220000C78024647F2706600EB840830F82400F0
:1042300091F803E020EA0605BEF1030F07D800203D
:10424000DFE80EF002070D0A45F4007506E00120D4
:1042500005E045F4806501E045F4C065002048F2C2
:10426000800C40F60F7645EA0C05A8F80050B8F827
:1042700000503540254345EA0C05A8F800500D7B59
:10428000002D5ED0B8F8005040F60F6635400CF5B2
:1042900080763543A8F8005002F58065B2F850707A
:1042A0000B8905EB041623F00103F3532301B2F845
:1042B00050204C8908332B4424F001049C524A7846
:1042C000B8F8001001F48041002A61D049B1B8F873
:1042D000001040F60F7211400CF580421143A8F80F
:1042E0000010B8F80010490609D5B8F8001040F6DB
:1042F0000F7211400CF140021143A8F80010B8F8F9
:10430000001040F60F72BEF1010F01EA02010CF538
:10431000804241EA020140F63F72A8F80010B8F866
:10432000001001EA02010CF1200282EA010208BF3A
:1043300041EA0C02A8F80020B8F8001043F60F720A
:1043400057E04F78B2F8505002F5806624013544AA
:10435000002F52D0C98821F001012953B8F800106C
:10436000490609D5B8F8001040F60F7211400CF15B
:1043700040021143A8F80010B8F8001040F63F7250
:10438000BEF1010F01EA020134D00CF1200273E00A
:1043900049B1B8F8001040F60F7211400CF5804298
:1043A0001143A8F80010B8F80010490609D5B8F86C
:1043B000001040F60F7211400CF140021143A8F8B2
:1043C0000010B8F8001040F60F7211400CF14002D6
:1043D000114343F60F72A8F80010B8F8001011400E
:1043E0000CF54052514040F63F72A8F80010B8F862
:1043F0000010114041EA0C013FE0CF8844F0080E64
:1044000027F0010725F80E7044F00C07B2F8502091
:104410000969F51939B13E290DD801F0010707EBFB
:104420005101890212E0515B164C21F4F8415153BD
:10443000515B21430AE0CE064FF0FF374FEA511699
:1044400008BF07EB51160F4941EA86215153B8F8CE
:104450000010490409D5B8F8001040F60F72114059
:104460000CF580421143A8F80010B8F8001043F68C
:104470000F7211400CF540525140A8F80010BDE8F1
:10448000F08100BF0080FFFF0020704780B50A78F0
:104490004B78097B48F2800C30F822E000EB820078
:1044A00041B30EF480428BB33AB1018840F60F72EB
:1044B00011400CF58042114301800188490607D55F
:1044C000018840F60F7211400CF140021143018047
:1044D000018840F60F7211400CF58042114340F6FE
:1044E0003F7201800188114041EA0C01018043F6CE
:1044F0000F7230E0B3B35FEA4E612AD5018840F60F
:104500000F7211400CF14002114321E03AB10188D1
:1045100040F60F7211400CF5804211430180018872
:10452000490607D5018840F60F7211400CF1400290
:1045300011430180018840F60F7211400CF14002D6
:10454000114343F60F7201800188114041EA0C01CA
:10455000018040F63F720188114041EA0C01018060
:10456000002080BD5FEA4E41C1D5018840F60F7240
:1045700011400CF580421143B8E70020704700203D
:1045800070470121A0F840100021A0F84010A0F8C9
:104590004410A0F85010B0F8401041F43F41A0F88A
:1045A000401000207047B0F8401044F2FF02114064
:1045B000A0F8401000207047002070470A7BCABB5B
:1045C0000A784B7830F822C05200DBB15FEA4C63C6
:1045D00048F2A00C0ED580B530F812E040F60F730B
:1045E0000EEA030E0CF1200343EA0E0320F812300A
:1045F000BDE88040C97801291CD030F8121040F67F
:104600003F7312E05FEA4C414BF2800C09D530F861
:10461000123040F60F7119400CF58053194320F801
:10462000121030F8121043F60F73194081EA0C0192
:1046300020F812100020704791F800C04978094B0B
:10464000002940F63F7108BF03F57F6308BF43F6BA
:104650000F7130F82C201140594020F82C10002008
:10466000704700BF9080FFFFF8B5044608698E6967
:104670000D460146864288BF3146A1EB0001A96183
:1046800088BF06466878297B012811D1A1B1297815
:1046900034F82120B4F8500009012044520600F5F6
:1046A00080602DD441F00401465205F108002CE051
:1046B00091B1F0B3287879E0EA886969B3B220460D
:1046C00000F003F9B4F850002118287802010432F0
:1046D0001144A1F800644FE0B4F85000002E2044CB
:1046E00000F5806128784FEA001202F10C0248D0F0
:1046F0003E2E4ED806F0010303EB56039B0254E016
:1047000041F00C01465205F10A0002886969B3B212
:10471000204600F0DAF8687808B301282BD1287811
:1047200040F60F7234F820101140494A02F58052C9
:104730001DE0B4F8500004F5806E002E0EEB00036F
:1047400028784FEA001202F104053CD03E2E50D8E2
:1047500006F0010101EB56014FEA812C54E0287864
:1047600040F60F7234F8201011403A4A10321143CB
:1047700024F8201000E0287840F63F7248F2B0019B
:1047800018E0535A23F4F8435352535A43F4004366
:104790000BE0F5064FF0FF334FEA561508BF03EB69
:1047A00056154FF4004343EA8523535243F60F72E4
:1047B0004BF2800134F820301A40514024F8201088
:1047C000002001B0F0BDE95A42F00C0221F4F8419A
:1047D000E952E95A41F40041E952B4F850107144E9
:1047E0008B5A23F4F8438B528B5A43F400438B5279
:1047F000DCE7F106154F4FF0FF3C4FEA561108BFBA
:104800000CEB561147EA812C25F803C042F00C024C
:104810003E2EB4F850100EEB01034BF2800105D888
:1048200006F0010707EB5607BF020BE0F5064FF055
:10483000FF374FEA561508BF07EB56154FF40047F0
:1048400047EA8527D75243F60F72B3E70080FFFF90
:1048500080B0FFFFB080FFFFB0F8401041F43F414F
:10486000A0F84010002070470020704700207047DB
:104870000148FCF70BBE00BF7C270020B0F84400C5
:1048800070474FF0000C00EB420000F58062ACEB8B
:10489000530C481C08E032F8041B0CF1010C00F822
:1048A000011C090A01700230BCF1000FF3D1D907D5
:1048B0001CBF118800F8011C70470020704711B917
:1048C0008021A0F84C100020704700EB420003F15B
:1048D000010C0023A3EB5C0300F5806004E031F8D9
:1048E000022B013320F8042B002BF8D17047000075
:1048F0001248002101700078704700BF042908D8D1
:104900000120DFE801F00703030807004FF480509F
:1049100003E0042070474FF480301060012070479E
:1049200080B510031A0300F07FF9002080BD00005D
:104930000248002101700078704700BF2400002069
:10494000F8B514460D469F1816030AE0304629466E
:104950004FF4805200F01AF906F58056013405F53F
:104960008055BC42F2D3002001B0F0BDFEE700004C
:104970000146044800294FF010010CBF002201221B
:10498000FCF788BB0008014080B500F0D1F900F0C9
:1049900095F80020FFF7ECFFC72000F085F9012013
:1049A000FFF7E6FFBDE8804000F088B8B0B50446E8
:1049B00000F0BEF900F082F80020FFF7D9FFDB4DD0
:1049C0002020A847C4F30740A847F02000EA14209D
:1049D000A8470020A8470120FFF7CAFFBDE8B04064
:1049E00000F06CB810B508B1FFF7CEFF254C4FF4BE
:1049F00080704FF480314FF480524FF0807304F197
:104A0000100CACE80700C4E90721C4E9090300F071
:104A100065F9C4E9020100F077F8206000F056F86B
:104A2000606019480021C161FDF730FC08B1FCF756
:104A300039F96068154988420DD0154988420CD073
:104A4000144988420BD0144988420ED117481449A2
:104A5000C4E90B1011E0114802E0124800E01248CE
:104A6000C4F82F000E48E06207E011A110484A6820
:104A7000C4E90B02087A84F83400FF2000F014F92E
:104A8000002010BD482A0020E82900201530EF0042
:104A90001540EF001740EF001840EF00513136008D
:104AA00057323551513332005136340031323800EB
:104AB0004E6F6E65547970650000000080B501206E
:104AC00000F0D2F8C007FAD180BD000070B5FFF742
:104AD000F5FF0020FFF74CFF944E9F20B047FF20CA
:104AE000B0470446FF20B0470546FF20B0470646C2
:104AF0000120FFF73DFF280240EA04408419FFF738
:104B0000DDFF204670BD00BFB0B50020FFF730FFCD
:104B1000864D9020A847FF20A847FF20A8470020E7
:104B2000A847FF20A8470446FF20A84705460120C4
:104B3000FFF71EFF45EA0420B0BD00BFB2F5807F3D
:104B400088BF7047F8B514460D46064600F0F0F8E9
:104B50000020FFF70DFF754F0220B847C6F307404E
:104B6000B847C6F30720B8470020B84704E015F857
:104B7000010B00F099F8013C002CF8D10120FFF75F
:104B8000F7FEBDE8F840FFF799BF00BFF8B5B2F5F2
:104B9000805F00D9F8BD0E4640F6FF71144F1546F0
:104BA0004FF4805220EA01042046394600F03CF8D8
:104BB0002046FFF7FBFE04E016F8010B013D07F865
:104BC000010B002DF8D10B4D094900262960B6F5DF
:104BD000805F08BFF8BDA0194FF48072FFF7AEFFE9
:104BE000286806F5807600F580712960EFE700BF40
:104BF00054140020A82400201CB56FF07F40FF242F
:104C00000DF106010DF107020123009032488DF8E5
:104C10000640FDF723FC002814BF8DF807409DF8DF
:104C20000740204602B010BDF8B5064600201446E5
:104C30000D46FFF79DFE3D4F0320B847C6F30740E2
:104C4000B847C6F30720B847F0B2B84704E0FFF70B
:104C5000D3FF05F8010B013C002CF8D10120BDE881
:104C6000F840FFF785BE00BF10B504460020FFF7EF
:104C70007FFE032C05D0022C05D0012C0ED105207F
:104C800002E0152000E0352000F00EF8FFF7B4FF39
:104C900004460120FFF76CFE204610BD0120FFF7FF
:104CA00067FE002010BD0000E0B58DF806006FF033
:104CB0007F400DF106010DF1070201230090064827
:104CC000FDF7CCFB00281ABFFF208DF807009DF8E8
:104CD000070002B080BD00BFE829002070B5FFF7D3
:104CE000EDFE00200024FFF743FE104D4B20A847A7
:104CF000FF20A847FF20A847FF20A847FF20A8477C
:104D00000826002508E0FFF777FF290240EA042083
:104D1000013E41EA14650446002EF4D10120FFF75C
:104D200027FEFFF7CBFE2046294670BDA94C0008A0
:104D300080B50020FFF71CFE0620FFF7B5FF01201D
:104D4000BDE88040FFF714BE10B5074C00F00F031C
:104D5000044AB0F1FF3F2344C8BF8318080118700C
:104D600010BD00BF00E400E014ED00E070477047A4
:104D700003490A685206FCD5C2B24A60704700BFB8
:104D800000380140FCF7ACF9FEF73AFBFDF778FF7D
:104D9000FDF7C8FFFDF7E4FFFDF79EFFFDF764FF99
:104DA0000020FFF71FFE0D480D490122FDF7C2FD4F
:104DB0000C4D124C0CA005F12C01A047D5E90223A3
:104DC0000FA0A047A86A00F031FC134B002200F0AE
:104DD00041FC024611A00B46A047FEE79C010020C3
:104DE00098010020482A0020466C6173682054799D
:104DF00070653A2573200D0A000000003D0200088E
:104E0000466C61736820556E697175652049443A36
:104E1000256C6C58200D0A000000503F466C6173F1
:104E2000682043617069636974793A252E3266207F
:104E30004B420D0A000000005FEA400C08BF91F0F1
:104E4000000F4FEA8C234FEAC12243EA51514FEA47
:104E50001C5018BF00F5F0404FEA300018BF41F079
:104E600000415FEA6C5C00F02980BCF1FF3F08BFA5
:104E700040F080407047130C06BF12044FF0100C36
:104E80004FF0000C130E04BF12020CF1080C130FAC
:104E900004BF12010CF1040C930F04BF92000CF13B
:104EA000020CD30F04BF52000CF1010C11464FF05D
:104EB0000002A0F11F00A0EB0C00704711F0004FA2
:104EC00008BF704731F000413FF4D5AF0B0C06BF6F
:104ED00009044FF0100C4FF0000C0B0E04BF090238
:104EE0000CF1080C0B0F04BF09010CF1040C8B0F23
:104EF00004BF89000CF1020CCB0F04BF49000CF178
:104F0000010CCCF1200322FA03F341EA030102FA77
:104F10000CF2A0EB0C0000F10100704723F07F477A
:104F200020F07F4C80EA030000F00040ACEB070368
:104F300003F57C5303F1FF032DE9804909B44FEADF
:104F4000144324EA03484FEA154B25EA0B4E0FF2AF
:104F5000042606EB13273E7803FB0667C7F5000718
:104F600007FB06F64FEAD64606F102064FEA54372B
:104F700007FB066CCCF1005C4FEA1C472CEA074C9F
:104F80000CFB06F507FB06F404EB15464FEA9616F4
:104F900049085FEA320234BF00204FF000404FEA78
:104FA000D13706FB07FC4FEA1C4C0CFB0BF7D21B5E
:104FB00003FB0CF761EB07010CFB0EF7B0EB0740AE
:104FC00072EB17420CFB08F734BFA2EB0742B2EBBF
:104FD000074261EB17414FEA0C444FEA910706FB89
:104FE00007FC4FEA1C4C0CFB0BF7B0EBC74072EB15
:104FF000573203FB0CF734BFA2EBC742B2EBC742F8
:1050000061EB57310CFB0EF7B0EBC70072EB577238
:105010000CFB08F734BFA2EBC702B2EBC70261EB8F
:1050200057714FEA816141EA92114FEA826242EA86
:1050300090124FEA806004EBCC04039F4FEAD13713
:1050400006FB07FC4FEA1C4C0CFB0BF7D21B03FBC7
:105050000CF761EB07010CFB0EF7B0EB074072EBAE
:1050600017420CFB08F734BFA2EB0742B2EB074232
:1050700061EB17414FEA8C5504EB9C244FEA9107F2
:1050800006FB07FC4FEA1C4C0CFB0BF7B0EBC740D0
:1050900072EB573203FB0CF734BFA2EBC742B2EB03
:1050A000C74261EB57310CFB0EF7B0EBC70072EB58
:1050B00057720CFB08F734BFA2EBC702B2EBC70272
:1050C00061EB57714FEA816141EA92114FEA8262C6
:1050D00042EA90124FEA806015EB4C2544F100043F
:1050E0004FEAD13706FB07FC4FEA1C4C0CFB0BF7D1
:1050F000D21B03FB0CF761EB07010CFB0EF7B0EBC7
:10510000074072EB17420CFB08F734BFA2EB0742D3
:10511000B2EB074261EB17414FEA813141EA92411C
:105120004FEA823242EA90424FEA80304FEA0C76F0
:1051300015EB1C1544F1000448EA03434EEA0B4802
:105140004FF0000EB2EB080C71EB030724BF624670
:1051500039464EEB0E0E4FF0000B001852414941FC
:105160004BEB0B0BB2EB080C71EB03077BF1000B65
:1051700024BF624639464EEB0E0E4FF0000B00186E
:10518000524149414BEB0B0BB2EB080C71EB03079F
:105190007BF1000B24BF624639464EEB0E0E51EAFE
:1051A000020718BF46F0010616EB0E7655F1000215
:1051B00054F1000103D5BDE88901BDE80088BDE8D0
:1051C0008901BDE80048B619524141EB0101A3F144
:1051D0000103704780807F7E7D7C7B7A797877764B
:1051E00076757473727171706F6E6E6D6C6C6B6AC4
:1051F0006A69686867666665646463636261616062
:10520000605F5F5E5E5D5D5C5C5B5B5A5A595958DE
:105210005857575656555555545453535252525148
:10522000515050504F4F4F4E4E4D4D4D4C4C4C4B9E
:105230004B4B4A4A4A4949494848484747474746E5
:105240004646454545444444444343434342424221
:10525000424141419C46002B30D477002BD04FEA8D
:1052600037071CB503B44FF010004FF01001BAF12E
:10527000000F06D0BCF1000FDCBF40F0080040F08A
:1052800008014FF000000FBCBDE810400BF1010B0E
:10529000BBF1010F08BF5FEA170722BF12F101023D
:1052A00011F101014FF0004143F1000300F0004013
:1052B00043EA00007047F9D35708D0E746EA0646AC
:1052C0004FEA164613F1400F1FDD13F1200FDFBF29
:1052D00016430A46002120335B42BED0C3F12007AB
:1052E00046EA06464FEA164602FA07F746EA070676
:1052F00022FA03F2C3F1200701FA07F742EA070294
:1053000021FA03F14FF00003A7E746EA020646EA56
:1053100006464FEA164646EA0106BCBF46EA06467E
:10532000360C4FF000034FF000024FF0000194E7FD
:105330002DE9804C70B49A46934691E8380007C82E
:1053400031EA400C48BF34EA430C03D5FFF7E6FDD1
:10535000FFF780FFF0BCBDE8008C2DE9804C70B4F5
:105360009A46934691E8380007C810F0804F08BF6E
:1053700013F0804F03D100F005F8FFF76BFFF0BC8E
:10538000BDE8008C20F07F4723F07F4C80EA0300CB
:1053900000F0004007EB0C03A3F57C53A3F1FE03E0
:1053A00092F0000F00F0B38095F0000F00F07780CE
:1053B0002DE901494FEA114021EA00484FEA14461D
:1053C00024EA064700FB06FC08FB06F607FB08F884
:1053D00018EB06484CEB164C00FB07F718EB074898
:1053E0004CEB17404FEA124B22EA0B4E4FEA1546A0
:1053F00025EA06470BFB06FC0EFB06F607FB0EFE36
:105400001EEB064E4CEB164C0BFB07F71EEB074E44
:105410004CEB174B18EB0B0840F1000018EB0E0B90
:1054200058EB000840F100008F1A4FF000014FF0D8
:1054300000063CBFC943661B14BFB5EB040C00213A
:105440003CBFC943F61B4FEA174427EA04454FEA1D
:105450001C472CEA074C04FB076205FB07F70CFB13
:1054600005F616EB074642EB174204FB0CFC16EB65
:105470000C4642EB1C421BEB060658EB0202414174
:105480004EEA8E0E46EA9E0601D5BDE80189B619A0
:10549000524141EB0101A3F10103BDE801894FEA4B
:1054A000144524EA05464FEA114721EA074C05FB5B
:1054B00007F406FB07F70CFB06F111EB074144EB81
:1054C000174405FB0CFC11EB0C4144EB1C444FEA68
:1054D000124722EA074C05FB07F206FB07F70CFB15
:1054E00006F616EB074642EB174205FB0CFC16EBE3
:1054F0000C4642EB1C456A1854F1000148BF704746
:10550000B619524141EB0101A3F10103704795F037
:10551000000F37D04FEA114221EA02464FEA144702
:1055200024EA074C02FB07F106FB07F70CFB06F425
:1055300014EB074441EB174102FB0CFC14EB0C4449
:1055400041EB1C414FEA154725EA074C02FB07F5E2
:1055500006FB07F70CFB06F616EB074645EB17456F
:1055600002FB0CFC16EB0C4645EB1C42121951F1E8
:10557000000148BF7047B619524141EB0101A3F148
:10558000010370474FEA144524EA05464FEA1147E4
:1055900021EA074C05FB07F106FB07F70CFB06F2B7
:1055A00012EB074241EB174105FB0CFC12EB0C42DE
:1055B00051EB1C414FF0000648BF7047921841EB79
:1055C0000101A3F101037047490050EAC12018BF4F
:1055D00004204A0D18BF40F0010040F2FF72B2EB08
:1055E000515F08BF40F00200012808BF0520704746
:1055F00030380A2801D2012070470020704700008F
:1056000010B500290AD00878002807D0054878444A
:10561000FBF706FB002801D0002010BD02487844AB
:1056200010BD0000CE040000C6040000B0FA80F3F4
:1056300010FA03F10AD0C3F11D0303F580634FEAAA
:1056400003524FEA415002EBD12170474FF0000066
:105650007047000070B5DFF848C11CEA111E1EBF7C
:105660001CEA13159EEA0C0F95EA0C0F00F06F80F0
:1056700081EA03044EEAD47EAE4421EA4C1123EAC7
:105680004C1341F4801143F48013AEF17F7EA1FBF3
:10569000024CA0FB0365361955EB0C05A1FB034C2E
:1056A0004CF10003A0FB021C16EB0C06654153F104
:1056B0000003094218BF46F0010613F4007F0BD126
:1056C0004FEA03314FEA053041EA155140EA1650DE
:1056D00034036FF003020AE04FEAC3214FEAC5200A
:1056E00041EA555140EA5650F4026FF0020202EBD3
:1056F0002E4201EB025585EACE710AD05FEA440CD6
:1057000018BF24F0004450F1000041F1000120EAEC
:10571000D47040F2FE7C624500D270BDA84214BF36
:105720004FF080444FF04044002E08BF0024BEF1EB
:10573000806FA8BFA1F1C041BDE8704080F28280B7
:1057400001F1C04101F000414FF0000070470CEA48
:1057500013159EEA0C0F18BF95EA0C0F06D081EACC
:10576000030E4FF000000EF0004170BD00F01CF879
:105770008900013E00F007B800F009B84FEA430C79
:105780005FEA5C5C08D081EA030100F05BB84FEA95
:10579000410C5FEA5C5CF6D102494FF000007047B3
:1057A0000000FF070000F87F0EF1020E2EF0030E3E
:1057B0005EF8046B364205D4012A43EB030515F568
:1057C000001F12D8012841EB010C1CF5001F0CD85A
:1057D0000ED14FEAD17C0CEB4C0C0CF1020C15F500
:1057E000001F08BF4CEBD37C04E04FF0080C01E035
:1057F0004FEAD37C0CEB4C0526FA05F606F00706BB
:10580000B6F1040C06D20EEB860CBDE870404CF0ED
:10581000010C6047DFE80CF0090B02024FF0004179
:10582000A1F500214FF0000070BD19461046012877
:1058300051EB010418BFD4F5001484BF002001F01F
:10584000004170BD0808A0F500114FEA3101704712
:10585000FAF73DBF303132333435363738394142CB
:1058600043444546403058003031323334353637C2
:105870003839616263646566403078000240000038
:10588000000000A00000000005400000000000C86B
:10589000000000000C4000000000409C00000000E0
:1058A000194000000020BCBE000000003440000091
:1058B000BFC91B8E00000004B5400000504BCFD084
:1058C0006607E2CF010000006C4100003E8251AA51
:1058D000DFEEA73401000000D9420000DCB5A0E2F1
:1058E0003A301F97FFFFFFFFB4450000FD25A0C819
:1058F000E9A3C14FFFFFFFFFFF3F00000000008052
:1059000000000000FF3F00000000008000000000D9
:10591000000000000000000001020304060708095F
:105920000000000001020304000600000000000067
:105930000000000000000000000000030080830061
:105940008002021F00000053544D202020202050D0
:10595000726F647563742020202020202020203066
:105960002E30312E2E2F447269766572732F535468
:105970004D3332463178785F48414C5F44726976E6
:1059800065722F5372632F73746D3332663178787A
:105990005F68616C5F7370692E63002E2E2F4472F6
:1059A00069766572732F53544D3332463178785F80
:1059B00048414C5F4472697665722F5372632F734E
:1059C000746D3332663178785F68616C5F756172CF
:1059D000742E63002E2E2F447269766572732F53D6
:1059E000544D3332463178785F48414C5F44726998
:1059F0007665722F5372632F73746D33326631780C
:105A0000785F68616C5F7263632E63002E2E2F4493
:105A10007269766572732F53544D333246317878FC
:105A20005F48414C5F4472697665722F5372632FF1
:105A300073746D3332663178785F68616C5F72635E
:105A4000635F65782E63002E2E2F4472697665722F
:105A5000732F53544D3332463178785F48414C5F51
:105A60004472697665722F5372632F73746D33328B
:105A7000663178785F68616C5F6770696F2E63006C
:105A80002E2E2F447269766572732F53544D333224
:105A9000463178785F48414C5F4472697665722F71
:105AA0005372632F73746D3332663178785F686137
:105AB0006C5F636F727465782E630000F85A00089B
:105AC000000000203801000028010008B05B000839
:105AD00038010020482D0000840100081C0000004F
