:020000040800F2
:10000000802E00208102000871520008594B000820
:100010006D520008151600083DA3000800000000FE
:1000200000000000000000000000000091680008CF
:10003000191600080000000071580008F168000857
:100040009B0200089B0200089B0200089B0200081C
:100050009B0200089B0200089B0200089B0200080C
:100060009B0200089B0200089B0200089B020008FC
:100070009B0200089B0200089B0200089B020008EC
:100080009B0200089B0200089B0200089B020008DC
:1000900055A000089B0200089B0200089B02000874
:1000A0009B0200089B0200089B0200089B020008BC
:1000B0009B0200089B0200089B0200089B020008AC
:1000C0009B0200089B0200089B0200089B0200089C
:1000D0009B020008F16D00089B0200089B020008CB
:1000E0009B0200089B0200089B02000800F002F837
:1000F00000F0B4F80AA090E8000C82448344AAF10E
:100100000107DA4501D100F0A9F8AFF2090EBAE80B
:100110000F0013F0010F18BFFB1A43F0010318473B
:1001200034BA000054BA00000A444FF0000C10F832
:10013000013B13F0070408BF10F8014B1D1108BF65
:1001400010F8015B641E05D010F8016B641E01F805
:10015000016BF9D113F0080F1EBF10F8014BAD1C55
:100160000C1B09D16D1E58BF01F801CBFAD505E073
:1001700014F8016B01F8016B6D1EF9D59142D6D3CD
:10018000704700000023002400250026103A28BFF5
:1001900078C1FBD8520728BF30C148BF0B607047F9
:1001A0006E2900F07981702900F0CD8266290BF06C
:1001B000FE8265290BF0FB8267290BF0F88261292A
:1001C0000BF0F78203681B0A28BF41F08001692900
:1001D00000F02681642900F02381752900F0208138
:1001E0006F2900F05B82782900F09982E92900F0FC
:1001F000F581E42900F0F281F52900F0EF81EF2983
:1002000000F05882F82900F098820368DB0928BFC3
:1002100041F08001632900F09987732900F09E87DF
:10022000E32900F0A987F32900F0AE87002070478A
:100230001FB501F003F80400002000210BF0E2F8E4
:10024000401C6060002000210BF0C6F8E0600FBC8D
:1002500000F014F80FB41FBD10B510BD00F0C0FFC2
:100260001146FFF7E5FF0AF07BFC01F09DF803B4AF
:10027000FFF7F2FF03BC0AF045FC000001F0F3B801
:100280000948804709480047FEE7FEE7FEE7FEE72A
:10029000FEE7FEE7FEE7FEE7FEE7FEE70448054966
:1002A000034A054B7047000095690008ED000008FF
:1002B000802A0020802E0020802A00207047000025
:1002C0000FB4044910B503AA029800F017F910BC46
:1002D0005DF814FB102400200FB41CB5084B06AACF
:1002E0007B4469460090059800F0EFF80446002032
:1002F000694600F0FDF820461CBC5DF814FB0000C8
:100300000D0200004FF0000200B5134694469646D9
:10031000203922BFA0E80C50A0E80C50B1F1200118
:10032000BFF4F7AF090728BFA0E80C5048BF0CC0C6
:100330005DF804EB890028BF40F8042B08BF704724
:1003400048BF20F8022B11F0804F18BF00F8012B96
:100350007047704770477047704770B504468569AD
:100360000068C10601D5302600E02026C00707D06E
:1003700070BDD4E9012130469047206A401C2062BC
:100380006D1EF6D570BD70B5044685690078C0074E
:1003900007D170BDD4E9012120209047206A401C7C
:1003A00020626D1EF6D570BD09684A0501D540B2C0
:1003B0007047C905FCD500B2704709684A0501D5E8
:1003C000C0B27047C905FCD580B2704770B50C4605
:1003D0000546012A05D02878800600D5EA69002361
:1003E00002E0012305E05B1C934202D2E05C00289E
:1003F000F9D1A869E618C01AA861286A18442862C9
:100400002846FFF7AAFF04E0D5E9012114F8010B03
:100410009047B442F8D32846FFF7B5FF70BD0000FF
:100420002DE9F0410646002410687529314616A5CD
:1004300010D0FFF7B9FF002802DA404213A507E009
:1004400031688A0701D512A502E0490704D511A534
:10045000012401E0FFF7B1FF00210A2206F1240781
:1004600009E0B0FBF2FCB0FBF2F302FB1C00303001
:1004700078541846491C0028F3D123462A463046B2
:10048000BDE8F04100F073BA000000002D0000004C
:100490002B0000002000000011680268006A53056C
:1004A00001D508700AE0D30501D5088006E01306DF
:1004B00003D5C217C1E9000200E0086001207047BF
:1004C00001694A1C02610878704700B58FB0CDE918
:1004D00001310021059105497944CDE90310114608
:1004E000684600F03BF90FB000BD0000E5FFFFFFDC
:1004F0000A6802F8010B0A6070470000074B70B5EC
:100500000D467B44FFF7E1FF0446284600F040FE1D
:1005100010B14FF0FF3070BD204670BD23A6000023
:100520002DE9FF5F15468A460446DFF8AC80F844A3
:100530000027D8E900103E46CDE9001010E03AF857
:1005400016106A4602A800F027FE411C07D0217849
:10055000890603D5E269391891420DD80744761C03
:100560002078800602D5E069B84205DDAE42E6DBC0
:100570003AF816000028E2D1A069C01BA06120460D
:10058000FFF7EBFED8E90010CDE90010002017E0DE
:100590003AF818106A4602A800F0FEFDB0F1FF3FDD
:1005A00081460BD000250DF1080B05E0D4E90121AF
:1005B0001BF8050090476D1C4D45F7D308F101006D
:1005C000B0428046E4DB206A384420622046FFF7D0
:1005D000DAFEBDE8FF9F000086B200002DE9F04181
:1005E0008046D21D22F007020025D2E90002F5293B
:1005F00015A614D0011E72F1000106DA0023D0EB1B
:10060000030063EB020211A608E0D8F800108B0784
:1006100001D50FA602E0490701D50EA60125114616
:10062000002408F1240704E000F05CF930323A5568
:10063000641C50EA0102F7D12B463246214640465F
:10064000BDE8F04100F093B9000000002D0000006B
:100650002B0000002000000030B4002100F1240431
:1006600008E002F00705D208303542EA4372DB08A1
:100670006554491C52EA0305F3D10468002310A213
:10068000250708D504F020040C4304D0C4690123D5
:100690000CA2641EC46130BC00F069B910B50446F8
:1006A00021461068FFF789FE02462046BDE810404B
:1006B0000023D1E7D21D22F00701D1E90023CBE7C7
:1006C0000000000030000000F0B40D46018809056C
:1006D00002D5214C7C4402E01F4C7C440E340021A6
:1006E00000F1240608E002F00F071209E75D42EA74
:1006F00003721B097754491C52EA0307F3D10278AD
:100700000023120704D5702D06D009B1022311343D
:100710002246F0BC00F02BB901231034F8E770B585
:1007200004460D4621461068FFF747FE024629465B
:100730002046BDE870400023C6E7D21D22F0070323
:10074000D3E90023C0E70368126843F02003036085
:100750000823C3610023B7E7E8B000002DE9F05F8C
:10076000894604464FF0000ADFF874B1FB44C0F834
:1007700020A02046E1688847002874D0252806D0AC
:10078000D4E901219047206A401C2062F1E700264D
:100790005F462046E16888472028054607DB312D63
:1007A00005D2781910F8200C08B10643F1E7B0071C
:1007B00001D526F00406C4F81CA00027C4F818A030
:1007C0002A2D09D028460AF0FFFD38B304EB87082C
:1007D000303DC8F8185019E059F8041B204604EBC6
:1007E00087029161E1688847012F054618D1E069C9
:1007F000002820DA26F020061DE0D8F8180000EBCB
:10080000800005EB40003038C8F818002046E16849
:10081000884705460AF0D8FD0028EED1012F0AD0FE
:100820002E2D08D12046E16888477F1C0546022FFF
:1008300046F02006C4DBA069002803DA404246F0F7
:100840000106A061F00701D026F010066C2D0BD038
:10085000682D09D04C2D39D06A2D35D0742D35D066
:100860007A2D33D016E038E0E1682F4620468847DD
:10087000B842054609D16C2F26D04FF48060E1685C
:10088000064320468847054604E06C2F1AD04FF4F3
:10089000807006430DB3A5F14100192802D8203518
:1008A00046F400664A462946204626604E46FFF733
:1008B00077FC80B101280BD0F61D26F0070000F16F
:1008C000080956E74020E4E78020D8E70020D6E773
:1008D00006F104094DE7284652E7206ABDE8F09F7B
:1008E00078B0000030B5B0F10A0271F100034FEAB0
:1008F000900E4EEA817EB0EB0E0061EB91014FEA63
:10090000101E4EEA017E10EB0E0041EB11114FEA72
:10091000102E4EEA016E10EB0E0041EB11214FEA52
:10092000104E4EEA014E10EB0E0041EB1141401803
:1009300041F100014FEAD00040EA41704FEAD10195
:100940004FEA810444EA907410EB800544EB010403
:100950006D1944EB0404521BA3414FF0000348BF40
:100960000A3200D530BD401C41F1000130BD2DE9F7
:10097000F0470D4699469246044600F12408016866
:10098000880604D5E06921F01001216000E0012013
:10099000A84201DD471B00E00027A1697A1902EB9C
:1009A0000900081AA0612078C00602D42046FFF78B
:1009B000D4FC002608E0D4E901211AF8060090478B
:1009C000206A401C761C20624E45F4DB2078C0066D
:1009D0000AD52046FFF7C1FC06E0D4E9012130200A
:1009E0009047206A401C2062381EA7F10107F4DC02
:1009F00007E0D4E9012118F805009047206A401C5F
:100A00002062281EA5F10105F3DC2046FFF7BBFCA0
:100A10002078000602D50220BDE8F0870120FBE720
:100A20002DE9FF4F0C461E464FF0FF378BB0D2E941
:100A30000001DDF860800A908A46C1F30A5505B9C5
:100A40003D46002108464FF00000BAF1000F00F4C7
:100A5000400005DA00EB80004FF4400101EA50004D
:100A60004FEA9059B9F1010F00DDB9460A9850EAF2
:100A70004A000ED044F61050A5F2FF3545432F141E
:100A8000B8F1000F1ED07542291E1EDDC9F100020B
:100A90001CE0B8F1010F4FF0000001D0302103E05D
:100AA000F24305E02154401CB042FBDB30460022FB
:100AB000002121540B99C1F80880C1E900200FB032
:100AC000BDE8F08FBD1B6D1CDEE74A4600DA6942C7
:100AD00006A800F0F7FB06AB93E8070003AB83E83A
:100AE000070050460A990AF093F88DE80700A0F530
:100AF00000501F3800900398002D0ADD42F21F01BC
:100B00004A460844002303A9039068460AF0FCFA09
:100B100009E0A0F500504A461F38002303A90390BE
:100B200068460AF006FB8DE807000004000C03D0BD
:100B30004FF0FF30410800E01046B8F1000F03D03D
:100B40000022009215461EE0751E05D4FFF7CAFE6E
:100B5000303262556D1EF9D5B3460122084302D0EA
:100B600000227F1C04E02078302801D100227F1E63
:100B7000002A099784D01DE0112D07DAFFF7B2FE95
:100B8000303262556D1C50EA0102F5D1084302D0A3
:100B90000098C8B10EE00021681E05E0235C625C8D
:100BA00063542254401E491C8142F7DBAB46A81B0C
:100BB000401E0990002004F80B000B98099AC0F819
:100BC0000880C0E9002B7AE711264FF0000857E7AC
:100BD0002DE9F04F88460446D21D22F0070191B05E
:100BE000D1E90001CDE90A010AF0DAFB02460B98CF
:100BF000C00F01D02D2007E02068810701D52B20F0
:100C000002E0202101EAC000032A099001D0072A4E
:100C100005DB03464146204600F014FB0BE120783B
:100C2000800601D5E06900E00620B8F1650F814635
:100C300006D0B8F1660F18D0B8F1670F70D131E067
:100C40000020B9F1110F009001DB112301E009F13F
:100C500001030AAA01A90CA8FFF7E2FEDDE90C7066
:100C6000002609F10105834647E001204B4600902C
:100C70004FF000470AAA01A90CA8FFF7D1FEDDE951
:100C80000DB00C995D46002610B909F101000D1850
:100C9000B9EB050003D4C0F1FF3609F10105A5EB5E
:100CA00009002BE0B9F1010F01DA4FF00109002032
:100CB000B9F1110F0090484601DD112300E0034611
:100CC0000AAA01A90CA8FFF7ABFEDDE90C704D469E
:100CD00000268346207800070AD4AB4500DA5D463B
:100CE00001A8012D04DD411911F8011C302907D09C
:100CF0004F4502DA17F1040F04DA012082460FE0B3
:100D00006D1EEEE7002F02DCED1B3E4403E0781C75
:100D1000A84200DD7D1CB81B00F1010A4FF000471E
:100D20002078000703D4AA4501DB4FF0FF3A0021E9
:100D3000B7F1004F0DF143088DF8431024D0022085
:100D40002B23002F01DA7F422D230A21021EA0F15E
:100D5000010000DC5FB197FBF1FC97FBF1F201FBB6
:100D60001C7C17460CF1300C08F801CDEEE7A8F119
:100D7000010003702188090501D5452100E06521A6
:100D8000A0F1010800F8011C09980FA9A1EB0807C0
:100D9000FF1D00B10120411901EBEA70A16938443F
:100DA000081A401EA0612078C00602D42046FFF732
:100DB000D4FA099828B1D4E901219047206A401C4F
:100DC00020622078C00622D52046FFF7C6FA1EE032
:100DD000002E04DBB34502DD01A8805D00E0302079
:100DE000D4E901219047206A401C2062761CAAF1B8
:100DF00001005FEA000A0AD100F020FAC068016829
:100E0000405CD4E901219047206A401C2062281EE2
:100E1000A5F10105DCDC07E0D4E9012118F8010B9C
:100E20009047206A401C2062381EA7F10107F3DCBE
:100E30002046FFF7A8FA032011B041E62DE9F04F54
:100E400004460D46D21D22F0070089B0D0E9009774
:100E5000484639460AF0A4FA0246F80F01D02D237D
:100E600007E02068810701D52B2302E0202101EA59
:100E7000C0038DF820300BB1012000E00020032AD0
:100E8000824601D0072A04DB2946204600F0DAF921
:100E90003FE12078800601D40D2500E0E569C7F325
:100EA0000A560D2D49DA00214FEA175B08464FF02C
:100EB0000000002F00F4400007DA00EB80004FF440
:100EC000400100EBD07001EA60008115012901DDCD
:100ED0004FF0FF3100224FEA850CBCF1180F06D30A
:100EE0001346ACF118004FF08052C24003E04FF4BB
:100EF000801323FA0CF30CF10C0CBCF1200F04D37B
:100F0000ACF1200C09FA0CF001E007FA0CF0002912
:100F10004FF0004801DD18B90FE00ED140450CD369
:100F200019EB02095F4121B9404502D19F4329EAEB
:100F30000209BBEB175F00D0761C2088000502D5A4
:100F40007B48784402E07A487844193808AA30236C
:100F500002F80A30037C0AF10101002E0AF1020AAC
:100F600053546A4602DC4FF0300101E04FF031018A
:100F70004FF001088DF8001002D0A6F2FF3603E012
:100F800059EA470100D06B4E002D02DC2178090799
:100F900004D54FF002082E218DF80110C44600211F
:100FA0000BE0C7F303433F01C35C491C6D1E02F80D
:100FB0000830052908F1010801DA002DF1DC0021D3
:100FC0000CE000EB1973491C1B786D1E082902F810
:100FD00008304FEA091908F1010801DA002DF0DCA8
:100FE00021688B0602D516E0A8F10108E04505DD71
:100FF00002EB080313F8013C302BF5D0B8F1000FD9
:1010000009DD02EB080313F8013C2E2B03D109077D
:1010100001D4A8F10108002D05DD3E2102F80810D9
:101020006D1E08F10108407C002E02F8080008F14E
:10103000010804DA2D20764202F8080002E02B2095
:1010400002F808000A214FF47A70864208F101087C
:101050000BDB96FBF0F3303302F8083096FBF0F32D
:1010600008F1010800FB136601E0642E0CDB64202C
:1010700096FBF0F3303302F8083096FBF0F308F1FA
:10108000010800FB136601E00A2E06DB96FBF1F077
:10109000303002F8080008F1010896FBF1F001FB7E
:1010A0001060303002F80800A16908F1010808EB6F
:1010B000050202EB0A00081AA0612078C00602D4DB
:1010C0002046FFF74AF9216A08AE01EB0A002062C8
:1010D00004E0D4E9012116F8010B9047BAF1010AA6
:1010E000F7D22078C00602D52046FFF736F96E46C3
:1010F00009E016F8010B3E280FD0D4E901219047F2
:10110000206A401C2062B8F10108F2D22046FFF7A5
:101110003AF909B00320BDE8F08F206A2844206224
:1011200003E0D4E90121302090476D1EEBD3F8E7AE
:10113000C6A8000002FCFFFF10B5436913B1AFF36E
:10114000008001E0FFF742F9012010BD127800F1A4
:1011500024010A7000224A700122EDE711684FF065
:10116000FF32E9E710B5436913B1AFF3008001E046
:10117000FFF7D6F9012010BD128800F12401828406
:101180000022C2840122EDE711684FF0FF32E9E747
:10119000007B00F0800070472DE9F04116460C46B8
:1011A000054600F043F8036893F80101012807D0D1
:1011B000FF2C12D8185D80B101202C70BDE8F081A1
:1011C000D3F807013246214603F20713C718284611
:1011D000BC46BDE8F041002360474FF0FF30EDE72B
:1011E000754600F0EBF8AE4605006946534620F020
:1011F0000700854618B020B5FFF750F8BDE820403D
:101200004FF000064FF000074FF000084FF0000BC2
:10121000AC46ACE8C009ACE8C009ACE8C009ACE831
:10122000C00921F007018D467047000010B500F09D
:1012300005F8001D10BD00BFCDA10000004870479B
:10124000580100202DE9F0411F460446032601689D
:10125000072A01F4006004DB08B116A505E016A515
:1012600003E008B115A500E015A521F010002060ED
:10127000A069C01EA0610FB1401EA0612046FFF70B
:101280006CF84FB1D4E9012138469047206A401CE0
:101290002062C01C206206E0206AFAE7D4E901213E
:1012A00015F8010B9047761EF8D22046FFF76BF831
:1012B000BDE8F0814E414E006E616E00494E460021
:1012C000696E66002DE9F047814616468AB03548BA
:1012D00078440DC88DE80D0032487844801C03AC7A
:1012E0000DC884E80D0041F69B300844372190FB7F
:1012F000F1F290FBF1F5A5F1800501FB12041B3C16
:1013000002D56442012000E00020DFF898A080466A
:101310000027FA44AAF1BE0A0EE0E0070AD03246DE
:10132000684607EB470101230AEB810109F001FF41
:101330008DE8070064107F1C002CEED1194F7F440C
:10134000AE3F19E0E80715D007EB04100DF1180ABD
:1013500090E80E008AE80E00C068F04201D19819AA
:1013600008903246012306A903A809F0E2FE03AB68
:1013700083E807006D10641C002DE3D14FF00103DA
:1013800032466946B8F1000F03A802D009F0BCFE4E
:1013900001E009F0CEFEC9E90001C9F808200AB051
:1013A000BDE8F087C8A5000010B50446AFF3008083
:1013B0002046BDE81040FEF75ABF000000487047C5
:1013C000380100204FF0013C50F8042B51F8043B49
:1013D0009A4221D1A2EB0C03934313EACC1317D109
:1013E00050F8042B51F8043B9A4215D1A2EB0C03A0
:1013F000934313EACC130BD150F8042B51F8043B60
:101400009A4209D1A2EB0C03934313EACC13DBD02D
:101410004FF00000704700BFD01A01BAB1FA81F155
:1014200001F0180122FA01F0CB40DBB2C0B2C01AC1
:10143000C1F120012CFA01F3D11A914311EAC31131
:10144000E6D170470246C91C21F00301D2E900032E
:101450001B1A8B4201D2002070470144C91D21F0A4
:101460000701116070472DE9F34F83B000274FF457
:101470008074BA4603A821468DF80070FFF7E2FF9A
:101480005FEA000801D100F076F82146404609F0F5
:1014900037FB060009D04FF0010B4546C14616F850
:1014A000014B8FB15C2C16D01CE008F108004146BE
:1014B000C8F800000020C8F80400D8F800402070E8
:1014C000012005B0BDE8F08F222C01D0272C0FD1D0
:1014D0002746BA462CE03078222807D05C2805D071
:1014E000272803D0BC4203D1002721E0761C044604
:1014F0004CB12FB9202C06D0A4F10900042802D940
:1015000005F8014BCBE74D4502D1BAF1000F0FD0E2
:1015100052464946002005F8010B6846AFF30080AB
:101520009DF8000070B14D464FF0000A0BF1010B21
:10153000002CB4D14FEA8B0103A8FFF783FF04000E
:1015400002D004E0A946EFE7002000F014F80020E4
:101550004246C4F8008005E012F8011B11B9401C96
:1015600044F82020AA42F7D3002144F82010214655
:10157000A7E77047704710B500F00AF8BDE81040C3
:10158000AFF30080002801D009F0BCBA704700001A
:1015900010B5012805D0002103A000F021F801209A
:1015A00010BD09A1F8E7000053494752544D454D7D
:1015B0003A204F7574206F662068656170206D65F4
:1015C0006D6F7279000000003A2048656170206DEF
:1015D000656D6F727920636F7272757074656400E7
:1015E00070B505460C460A2000E06D1C09F090FA23
:1015F00035B128780028F8D102E0641C09F088FA97
:1016000014B120780028F8D1BDE870400A2009F014
:101610007FBA0000FFE7FEE7704700007047000058
:1016200080B584B00A46034603900291039802995C
:101630004FF0000C01926246009300F003F804B0F2
:1016400080BD000080B586B013468C468646059066
:1016500004918DF80F2001208DF80E0000208DF8E8
:101660000D0042F26840C2F20000407A0128029365
:10167000CDF804C0CDF800E026DCFFE742F2684078
:10168000C2F20000417A002242540599437A00EBED
:10169000830359609DF80F10437A03441972417A0D
:1016A0004B1C43728DF80D109DF80D0030300499DD
:1016B000087004983A21417004982F218170049891
:1016C000C2708DF80E20FFE79DF80E0006B080BDB9
:1016D00080B584B04FF2E870C1F6FF7000680390E7
:1016E0004FF2EC70C1F6FF70006802904FF2F0709C
:1016F000C1F6FF70006801900198039908440390B7
:101700000398002813D0FFE7039840F20011C2F2BB
:1017100000018A1C0823009111461A4603F01EFAA4
:10172000029800991231042203F018FAFFE704B07E
:1017300080BD000080B588B00146079000208DF87C
:101740001B00079890F821000228059107D0FFE7B9
:1017500007980421816301208DF81B0077E007982A
:101760000068016821F00E010160079800680168B7
:1017700021F001010160079800680821C4F202010C
:10178000884203D1FFE70120049047E007980068F2
:101790001C21C4F20201884203D1FFE7102003900C
:1017A00039E0079800683021C4F20201884204D170
:1017B000FFE74FF4807002902AE007980068442108
:1017C000C4F20201884204D1FFE74FF48050019037
:1017D0001BE0079800685821C4F20201884204D136
:1017E000FFE74FF4803000900CE0079800686C2110
:1017F000C4F202014FF08072884208BF4FF4801299
:101800000092FFE700980190FFE701980290FFE740
:1018100002980390FFE703980490FFE704980421DF
:10182000C4F2020108600798012180F82110FFE747
:101830000798002180F82010FFE70798406B0028E8
:1018400004D0FFE70798416B8847FFE7FFE79DF863
:101850001B0008B080BD000080B594B00A46034666
:1018600013901291002011900D90139840F60001F2
:10187000C4F2010188420992089320D0FFE713982F
:1018800040F60041C4F20101884218D0FFE71398E6
:1018900041F20001C4F20101884210D0FFE7139821
:1018A00041F20041C4F20101884208D0FFE71398D9
:1018B00041F60001C4F20101884201D1FFE707E0CF
:1018C0004BF62320C0F60000BD2109F023F9FFE705
:1018D00012980088002806D0FFE712984088002858
:1018E00001D1FFE707E04BF62320C0F60000BE2140
:1018F00009F010F9FFE712984068002849D0FFE787
:1019000012984068012844D0FFE7129840681128D7
:101910003FD0FFE71298406802283AD0FFE71298BC
:101920004068122835D0FFE7129840680021C1F2C4
:10193000110188422DD0FFE7129840680021C1F2C2
:101940002101884225D0FFE7129840680021C1F2AA
:10195000310188421DD0FFE7129840680021C1F292
:101960001201884215D0FFE7129840680021C1F2A9
:10197000220188420DD0FFE7129840680021C1F291
:101980003201884205D0FFE712984068032801D150
:10199000FFE707E04BF62320C0F60000BF2109F067
:1019A000B9F8FFE7FFE7129800681199C8400028CE
:1019B00000F03882FFE71198012101FA00F0109041
:1019C00012980068109908400F900F98109988425B
:1019D00040F02482FFE7139840F60001C4F20101B1
:1019E000884220D0FFE7139840F60041C4F201017D
:1019F000884218D0FFE7139841F20001C4F20101B8
:101A0000884210D0FFE7139841F20041C4F201016F
:101A1000884208D0FFE7139841F60001C4F20101A3
:101A2000884201D1FFE707E04BF62320C0F6000013
:101A3000CD2109F06FF8FFE7129840680028079061
:101A400000F0B880FFE70798012840D0FFE707982B
:101A5000022875D0FFE70798032800F0DE80FFE733
:101A6000079811284FD0FFE70798122800F08580CB
:101A7000FFE70020C1F211000799814200F09A802F
:101A8000FFE70020C1F212000799814200F0928026
:101A9000FFE70020C1F221000799814200F08A800F
:101AA000FFE70020C1F222000799814200F0828006
:101AB000FFE70020C1F23100079981427AD0FFE7A9
:101AC0000020C1F232000799814273D0A8E0129839
:101AD000C06802280AD0FFE71298C068012805D024
:101AE000FFE71298C068032801D1FFE707E04BF633
:101AF0002320C0F60000D52109F00CF8FFE712986A
:101B0000C0680D908DE01298C06802280AD0FFE7E7
:101B10001298C068012805D0FFE71298C068032812
:101B200001D1FFE707E04BF62320C0F60000DC21DF
:101B300008F0F0FFFFE71298C06804300D9070E0E5
:101B40001298C06802280AD0FFE71298C0680128DE
:101B500005D0FFE71298C068032801D1FFE707E02E
:101B60004BF62320C0F60000E32108F0D3FFFFE787
:101B70001298C06808300D9053E01298C06802288F
:101B80000AD0FFE71298C068012805D0FFE7129835
:101B9000C068032801D1FFE707E04BF62320C0F619
:101BA0000000EA2108F0B6FFFFE71298C0680C3089
:101BB0000D9036E01298806800280AD0FFE712984E
:101BC0008068012805D0FFE712988068022801D1BB
:101BD000FFE707E04BF62320C0F60000F72108F0EE
:101BE00099FFFFE712988068002803D1FFE70420DF
:101BF0000D9011E012988068012806D1FFE70820B7
:101C00000D9010981399086105E008200D90109828
:101C100013994861FFE7FFE703E000200D9000E023
:101C2000FFE70F98FF2803D8FFE71398069003E01B
:101C3000139804300690FFE706980C900F98FF2841
:101C400004D8FFE711988000059006E011986FF026
:101C50001F0101EB80000590FFE705980B900C98A1
:101C600000680B990F228A4090430D9A02FA01F105
:101C700008430C99086012984068C000002840F1A1
:101C8000CC80FFE7FFE741F21800C4F202000168D0
:101C900041F001010160006800F001000A900A981B
:101CA0000490FFE7119820F003000821C4F201011D
:101CB00040580E90119800F0030080000F2101FAA7
:101CC00000F00E9921EA00000E90139840F60001F2
:101CD000C4F20101884203D1FFE70020039026E00F
:101CE000139840F60041C4F20101884203D1FFE796
:101CF0000120029018E0139841F20001C4F20101A2
:101D0000884203D1FFE7022001900AE0139841F2D4
:101D10000041C4F201010422884208BF032201925B
:101D2000FFE701980290FFE702980390FFE703980E
:101D3000119901F00301890088400E9908430E9023
:101D40000E98119921F003010822C4F20102885073
:101D500012984068C003002809D5FFE70F9840F2A9
:101D60000041C4F201010A681043086009E00F98BD
:101D700040F20041C4F201010A6822EA0000086052
:101D8000FFE7129840688003002809D5FFE70F9805
:101D900040F20441C4F201010A681043086009E0FE
:101DA0000F9840F20441C4F201010A6822EA0000DF
:101DB0000860FFE712984068C002002809D5FFE7D5
:101DC0000F9840F20841C4F201010A68104308600C
:101DD00009E00F9840F20841C4F201010A6822EAC2
:101DE00000000860FFE7129840688002002809D5CB
:101DF000FFE70F9840F20C41C4F201010A6810435A
:101E0000086009E00F9840F20C41C4F201010A6831
:101E100022EA00000860FFE7FFE7FFE711980130C2
:101E20001190C0E514B080BD80B586B013468C46D5
:101E300086460590ADF812108DF81120BDF81200FD
:101E400000280393CDF808C0CDF804E005D0FFE7E3
:101E50000020002801D1FFE708E04BF62320C0F660
:101E600000004FF4EA7108F055FEFFE79DF81100FD
:101E7000002805D0FFE79DF81100012801D1FFE7F8
:101E800008E04BF62320C0F6000040F2D51108F020
:101E900041FEFFE79DF81100002805D0FFE7BDF8DF
:101EA00012000599086105E0BDF8120000040599CB
:101EB0000861FFE706B080BD42F64020C2F2000094
:101EC0000068704740F23010C2F20000007842F61D
:101ED0004021C2F200010A68104408607047000007
:101EE00080B582B042F20000C4F20200016841F005
:101EF00010010160032000F0D9F80020019000F0EB
:101F000007F8009000F040F8019802B080BD000092
:101F100080B584B00146029040F22000C2F2000079
:101F2000006840F23012C2F2000212784FF47A7365
:101F3000B3FBF2F2B0FBF2F0019102F027FB0028B4
:101F400004D0FFE701208DF80F0018E002980F2859
:101F50000DD8FFE702994FF0FF30002200F066F83D
:101F6000029840F23411C2F20001086003E001203F
:101F70008DF80F0003E000208DF80F00FFE79DF8BB
:101F80000F0004B080BD000080B586B0FFE741F2CD
:101F90001800C4F20200016841F00101016000680C
:101FA00000F00100059005980290FFE7FFE741F27D
:101FB0001C00C4F20200016841F080510160006819
:101FC00000F08050049004980190FFE7052000F095
:101FD0006DF8FFE70420C4F2010001680391039942
:101FE00021F0E0610391039941F00071039103999D
:101FF0000160FFE706B080BD80B582B001468DF874
:1020000007009DF907000028009101DBFFE707E0CA
:102010004BF65C20C0F60000BE2108F07BFDFFE718
:102020009DF9070008F002FD02B080BD80B58AB0BE
:1020300013468C4686468DF82700089107920020AB
:10204000069007980F280593CDF810C0CDF80CE046
:1020500001D8FFE707E04BF65C20C0F60000AA219C
:1020600008F058FDFFE708980F2801D8FFE707E0C0
:102070004BF65C20C0F60000AB2108F04BFDFFE7FB
:1020800008F0F0FC06909DF92700DDF818E00899AB
:10209000079A0290704603F0EDF802990190084605
:1020A000019908F0E7FC0AB080BD000080B582B05D
:1020B0000146019001980728009110D0FFE7019890
:1020C00006280CD0FFE70198052808D0FFE7019803
:1020D000042804D0FFE70198032801D1FFE707E0B7
:1020E0004BF65C20C0F60000922108F013FDFFE7DC
:1020F000019808F0E5FC02B080BD0000B0B588B0E2
:102100009C4696460C4605460790ADF81A10ADF869
:1021100018200593BDF81A0000060028CDF80CC061
:10212000CDF808E0019400950AD5FFE70798BDF8BF
:102130001A1001F0070100EB41102830049008E06C
:102140000798BDF81A1000EB411000F59470049048
:10215000FFE7BDF81800002807D1FFE70498002129
:10216000017305980499C8800AE00498012101735D
:10217000059804990881BDF8160004994881FFE785
:10218000002008B0B0BD000084B00A4603460390AA
:102190008DF80B109DF80B0001280192009301D1DE
:1021A000FFE700E0FFE704B07047000080B586B0AD
:1021B0000A46034605908DF813100598D0F868126A
:1021C0009DF813C000EB4C10C06B039008466146AD
:1021D000DDF80CC002926246019305F003FB00900B
:1021E00006B080BD80B586B00A46034605908DF8DE
:1021F00013100598D0F868129DF813C000EB4C102E
:10220000D0F83C01039008466146DDF80CC002920C
:102210006246019305F0B6FB009006B080BD000059
:1022200080B588B00A46034606908DF817109DF8D1
:10223000170000060028039202930DD5FFE70698C9
:102240009DF8171001F0070100EB411028300490B1
:102250000498012141700DE006989DF8171001F0D7
:10226000070100EB411000F59470049004980021E0
:102270004170FFE79DF8170000F00700049908700F
:10228000FFE7069890F82802012804D1FFE7022012
:102290008DF81F0015E00698012180F82812FFE74D
:1022A000FFE706980068049907F06AF80190FFE7D5
:1022B0000698002180F82812FFE700208DF81F0003
:1022C000FFE79DF81F0008B080BD000080B588B012
:1022D0000A46034606908DF817109DF8170000F087
:1022E0000F000699496888420392029304D9FFE7D8
:1022F00001208DF81F004AE09DF817000006002815
:102300000DD5FFE706989DF8171001F0070100EBC7
:102310004110283004900498012141700DE0069886
:102320009DF8171001F0070100EB411000F59470C3
:102330000490049800214170FFE704980021817007
:102340009DF8170000F0070004990870FFE7069851
:1023500090F82802012804D1FFE702208DF81F0021
:1023600015E00698012180F82812FFE7FFE706989C
:102370000068049907F020FA0190FFE70698002111
:1023800080F82812FFE700208DF81F00FFE79DF876
:102390001F0008B080BD000080B588B00A46034623
:1023A00006908DF8171004920393FFE7069890F8B3
:1023B0002802012804D1FFE702208DF81F0025E044
:1023C0000698012180F82812FFE7FFE79DF8170023
:1023D000000600280AD5FFE7069800689DF8171048
:1023E00001F0070107F02CFE029005E00698006856
:1023F00007F01EFE0190FFE7FFE70698002180F836
:102400002812FFE700208DF81F00FFE79DF81F004E
:1024100008B080BD84B00A46034603908DF80B10C7
:1024200003989DF80B1001F0070100EB4110D0F864
:1024300044010192009304B070470000B0B58AB027
:102440009C4696460C46054608908DF81F10ADF840
:102450001C208DF81B3000208DF81A009DF81F00FD
:1024600000060028CDF810C0CDF80CE002940195CC
:102470000DD5FFE708989DF81F1001F0070100EB4C
:102480004110283005900598012141700DE0089811
:102490009DF81F1001F0070100EB411000F594704A
:1024A0000590059800214170FFE79DF81F0000F09E
:1024B000070005990870BDF81C00059908619DF892
:1024C0001B000599C87005984078002804D0FFE7E4
:1024D00005980178C181FFE79DF81B00022804D10F
:1024E000FFE7059800210171FFE7FFE7089890F8E2
:1024F0002802012804D1FFE702208DF8270016E00A
:102500000898012180F82812FFE7FFE70898006883
:10251000059906F0D5FB0090FFE70898002180F8A8
:102520002812FFE79DF81A008DF82700FFE79DF8B5
:1025300027000AB0B0BD0000B0B58CB09C469646EE
:102540000C4605460B908DF82B10099208930B98BA
:102550009DF82B1001F0070100EB411000F594707D
:102560000790099807994861089807998861079822
:102570000021C161079841709DF82B0000F0070011
:10258000079908709DF82B0040070028CDF818C067
:10259000CDF814E00494039507D1FFE70B98006889
:1025A000079907F0FBF9029006E00B98006807997D
:1025B00007F0F4F90190FFE700200CB0B0BD000077
:1025C00080B58AB00A46034608908DF81F109DF822
:1025D0001F0000F00700089949688842059204939B
:1025E00004D9FFE701208DF8270059E09DF81F006E
:1025F000000600280DD5FFE708989DF81F1001F090
:10260000070100EB41102830069006980121417027
:102610000BE008989DF81F1000EB411000F5947036
:102620000690069800214170FFE70698012181700D
:102630009DF81F0000F0070006990870FFE7089852
:1026400090F82802012804D1FFE702208DF8270026
:1026500026E00898012180F82812FFE7FFE7089894
:102660000068069907F050F99DF81F1049070029E6
:1026700003900BD1FFE70898016800F50C700290F9
:102680000846029907F08EF80190FFE7FFE70898E7
:10269000002180F82812FFE700208DF82700FFE7CF
:1026A0009DF827000AB080BDB0B58CB09C46964618
:1026B0000C4605460B908DF82B10099208930B9849
:1026C0009DF82B1001F0070100EB41102830079016
:1026D0000998079948610898079988610798002127
:1026E000C1610798012141709DF82B0000F007009F
:1026F000079908709DF82B0040070028CDF818C0F6
:10270000CDF814E00494039507D1FFE70B98006817
:10271000079907F043F9029006E00B9800680799C3
:1027200007F03CF90190FFE700200CB0B0BD0000BD
:1027300080B584B00146039003980068029107F0C9
:1027400091FC0004002805D5FFE7039802F0D2FDB4
:102750000190FFE70398006807F084FC400500281B
:1027600011D5FFE703980068B0F8441021F48061A8
:10277000A0F84410039800F0F5F90398002100F048
:102780002FFA0090FFE70398006807F06BFC400405
:10279000002809D5FFE703980068B0F8441021F439
:1027A0008041A0F84410FFE70398006807F05AFC46
:1027B0008004002809D5FFE703980068B0F84410AA
:1027C00021F40051A0F84410FFE70398006807F0D7
:1027D00049FCC00400281CD5FFE703980068B0F846
:1027E000401021F00401A0F8401003980068B0F8F0
:1027F000401021F00801A0F84010039800F0D4F92F
:1028000003980068B0F8441021F48051A0F84410F7
:10281000FFE70398006807F025FC000500282DD588
:10282000FFE703980068B0F8401041F00801A0F8F5
:10283000401003980068B0F8441021F40061A0F83B
:10284000441003980068B0F8401041F00401A0F86B
:1028500040100398006807F005FCC004002809D563
:10286000FFE703980068B0F8441021F48051A0F805
:102870004410FFE7039800F02FFAFFE70398006881
:1028800007F0F0FB800500280CD5FFE703980068EF
:10289000B0F8441021F40071A0F84410039800F03F
:1028A00091F9FFE70398006807F0DCFBC0050028FA
:1028B00009D5FFE703980068B0F8441021F480714F
:1028C000A0F84410FFE704B080BD00002DE9F041FE
:1028D0008EB001460C900C9800280A9104D1FFE7B5
:1028E00001208DF837000BE10C98006845F6004197
:1028F000C4F20001884201D1FFE707E04BF6071060
:10290000C0F600008C2108F005F9FFE70C9890F85C
:102910002902002808D1FFE70C98002180F828122E
:102920000C9800F0F3F8FFE70C98032180F82912C7
:102930000C98006806F022FF0C99D1F800E04A6874
:102940008B68D1F80CC00C694D698E69CF69096A32
:10295000E846C8F81010C8F80C70C8F80860C8F845
:102960000450C8F800400990704611461A46634664
:1029700006F0E2FC002808D0FFE70C98022180F85E
:10298000291201208DF83700BAE00C980068002168
:10299000089107F0C7FB08998DF82F100790FFE703
:1029A0009DF82F000C994968884236D2FFE70C98B1
:1029B0009DF82F1000EB4110012180F829109DF89F
:1029C0002F000C9901EB401181F828009DF82F0091
:1029D0000C9901EB4011C8860C989DF82F1000EB64
:1029E0004110002180F82B100C989DF82F2000EB4F
:1029F000421081630C989DF82F2000EB4210C163B8
:102A00000C989DF82F2000EB42100164FFE79DF821
:102A10002F0001308DF82F00C2E700208DF82F0025
:102A2000FFE79DF82F000C994968884232D2FFE7F2
:102A30000C989DF82F1000EB4110002180F829110F
:102A40009DF82F000C9A02EB401282F828010C9896
:102A50009DF82F2000EB421080F82B110C989DF868
:102A60002F2000EB4210C0F838110C989DF82F2051
:102A700000EB4210C0F83C110C989DF82F2000EBA1
:102A80004210C0F84011FFE79DF82F0001308DF88B
:102A90002F00C6E70C98016842688368D0F80CC024
:102AA000D0F810E044698569C669006A6F463861EC
:102AB000FE60BD607C60C7F800E0084611461A461B
:102AC000634606F023FE002808D0FFE70C98022199
:102AD00080F8291201208DF8370011E00C980021B0
:102AE00080F824100C98012280F829220C980068A4
:102AF000069106F003FE06998DF837100590FFE762
:102B00009DF837000EB0BDE8F081000080B586B0BA
:102B1000014605900598006845F60042C4F200029F
:102B2000904203911BD1FFE7FFE741F21C00C4F282
:102B30000200016841F400010160006800F4000037
:102B4000049004980290FFE7142000210190009166
:102B5000009AFFF76BFA0198FFF74EFAFFE706B00D
:102B600080BD000080B586B00146059001208DF83B
:102B70001300059880680228039103D0FFE7FEF751
:102B80004DFDFFE70598D0F868029DF8131005F099
:102B90001DF90599D1F868120290084605F09AF8D7
:102BA000019006B080BD000080B584B0014603905E
:102BB0000398D0F86802029105F0D6F8019004B0AD
:102BC00080BD000080B584B0014603900398D0F822
:102BD0006802029105F0DCF8019004B080BD0000AD
:102BE00080B586B00A46034604908DF80F10029215
:102BF0000193FFE7049890F82802012804D1FFE729
:102C000002208DF817001BE00498012180F828129B
:102C1000FFE7FFE79DF80F00049981F8240004986E
:102C200000689DF80F1007F089FA0090FFE70498FC
:102C3000002180F82812FFE700208DF81700FFE739
:102C40009DF8170006B080BD80B584B001460390A2
:102C50000398D0F8682200F50C7002901046029A92
:102C60000191114605F0E4F8009004B080BD000029
:102C700080B586B0014604900391FFE7049890F870
:102C80002802012804D1FFE702208DF817001EE07A
:102C90000498012180F82812FFE7FFE7049801213A
:102CA000FFF772FA0498006806F020FD049909689D
:102CB0000290084607F0A8F90190FFE70498002168
:102CC00080F82812FFE700208DF81700FFE79DF835
:102CD000170006B080BD000080B584B001460390A7
:102CE0000398D0F86802029105F02AF903998969DE
:102CF0000029019009D0FFE74EF61050CEF20000F7
:102D0000016841F006010160FFE704B080BD0000EA
:102D100080B588B001460690002005900490069882
:102D20000068C007002801910DD1FFE706980068F0
:102D300000F00200022806D0FFE706980068C006EF
:102D4000002801D5FFE707E04BF6E810C0F60000C9
:102D50006C2107F0DFFEFFE706980068C007002837
:102D600000F0D380FFE706984068002812D0FFE704
:102D700006984068B0F5807F0CD0FFE70698406861
:102D8000B0F5007F06D0FFE706984068B0F5407FB9
:102D900001D1FFE707E04BF6E810C0F60000722112
:102DA00007F0B8FEFFE700208DF80F0041F21C008D
:102DB000C4F202000068C000002814D4FFE7FFE757
:102DC00041F21C00C4F20200016841F08051016030
:102DD000006800F08050029002980090FFE7012008
:102DE0008DF80F00FFE747F20000C4F20000006812
:102DF000C005002824D4FFE747F20000C4F2000019
:102E0000016841F480710160FFF756F80590FFE713
:102E100047F20000C4F200000068C00500280ED48C
:102E2000FFE7FFF749F8DDF814E0A0EB0E00652896
:102E300004D3FFE703208DF81F00C3E0E8E7FFE7B6
:102E400041F22000C4F20200006800F440700490D7
:102E5000049800283FD0FFE704980699496801F4D8
:102E60004071884237D0FFE741F22000C4F20200EF
:102E7000016821F44071049140F24041C4F24221C2
:102E800001220A6000220A60049901609DF8100086
:102E9000C00700281ED0FFE7FFF70EF80590FFE7F8
:102EA00041F22000C4F2020000688007002810D41C
:102EB000FFE7FFF701F8DDF814E0A0EB0E0041F2A8
:102EC000893E704504D3FFE703208DF81F0079E0A9
:102ED000E6E7FFE7FFE741F22000C4F202000168E5
:102EE00021F44071069A5268114301609DF80F0069
:102EF000012809D1FFE741F21C00C4F20200016879
:102F000021F080510160FFE7FFE706980068800725
:102F100000282CD5FFE706988068002812D0FFE72C
:102F200006988068B0F5804F0CD0FFE7069880685F
:102F3000B0F5004F06D0FFE706988068B0F5404F27
:102F400001D1FFE707E04BF6E810C0F60000B92119
:102F500007F0E0FDFFE741F20400C4F2020001685F
:102F600021F44041069A926811430160FFE70698F8
:102F70000068C006002821D5FFE70698C068B0F5B4
:102F8000800F05D0FFE70698C068002801D1FFE751
:102F900008E04BF6E810C0F6000040F2151107F00B
:102FA000B9FDFFE741F20400C4F20200016821F418
:102FB0008001069AD26811430160FFE700208DF876
:102FC0001F00FFE79DF81F0008B080BD80B588B0E6
:102FD0000A4603460690059106980028039202933C
:102FE00004D1FFE701208DF81F00FAE10698006880
:102FF000C007002814D1FFE70698006800F002001F
:1030000002280DD0FFE70698006800F004000428AD
:1030100006D0FFE7069800680007002801D5FFE703
:1030200008E04BF6B010C0F600004FF44E7107F008
:1030300071FDFFE70598002808D0FFE705980128F3
:1030400004D0FFE70598022801D1FFE708E04BF61E
:10305000B010C0F6000040F2393107F05BFDFFE729
:10306000059842F20001C4F20201096801F007016B
:10307000884216D9FFE742F20000C4F2020001685C
:1030800021F00701059A11430160006800F0070074
:103090000599884204D0FFE701208DF81F00A0E1C8
:1030A000FFE7069800688007002861D5FFE70698CB
:1030B00000684007002809D5FFE741F20400C4F288
:1030C0000200016841F4E0610160FFE706980068D2
:1030D0000007002809D5FFE741F20400C4F202000E
:1030E000016841F460510160FFE70698806800289C
:1030F00028D0FFE706988068802823D0FFE706984D
:10310000806890281ED0FFE706988068A02819D014
:10311000FFE706988068B02814D0FFE7069880681B
:10312000C0280FD0FFE706988068D0280AD0FFE7B4
:1031300006988068E02805D0FFE706988068F028A8
:1031400001D1FFE708E04BF6B010C0F6000040F2F6
:103150005F3107F0DFFCFFE741F20400C4F2020038
:10316000016821F0F001069A926811430160FFE7BF
:1031700006980068C00700287BD0FFE706984068E3
:1031800000280AD0FFE706984068012805D0FFE72D
:1031900006984068022801D1FFE708E04BF6B0101E
:1031A000C0F6000040F2663107F0B4FCFFE7069875
:1031B000406801280ED1FFE741F20000C4F202008E
:1031C00000688003002804D4FFE701208DF81F0069
:1031D00007E121E00698406802280ED1FFE741F29E
:1031E0000000C4F2020000688001002804D4FFE758
:1031F00001208DF81F00F4E00DE041F20000C4F260
:10320000020000688007002804D4FFE701208DF841
:103210001F00E6E0FFE7FFE741F20400C4F202000E
:10322000016821F00301069A526811430160FEF71C
:1032300043FE0490FFE741F20400C4F2020000687C
:1032400000F00C0006994968B0EB810F10D0FFE741
:10325000FEF732FEDDF810E0A0EB0E0041F2893EF1
:10326000704504D3FFE703208DF81F00B9E0E2E7C3
:10327000FFE7059842F20001C4F20201096801F07B
:103280000701884216D2FFE742F20000C4F20200B2
:10329000016821F00701059A11430160006800F000
:1032A00007000599884204D0FFE701208DF81F0030
:1032B00097E0FFE7069800684007002833D5FFE74E
:1032C0000698C068002818D0FFE70698C068B0F5D7
:1032D000806F12D0FFE70698C068B0F5A06F0CD0E1
:1032E000FFE70698C068B0F5C06F06D0FFE7069804
:1032F000C068B0F5E06F01D1FFE708E04BF6B01011
:10330000C0F600004FF4697107F004FCFFE741F2DA
:103310000400C4F20200016821F4E061069AD26858
:1033200011430160FFE7069800680007002834D5C4
:10333000FFE706980069002818D0FFE706980069A3
:10334000B0F5806F12D0FFE706980069B0F5A06F66
:103350000CD0FFE706980069B0F5C06F06D0FFE714
:1033600006980069B0F5E06F01D1FFE708E04BF681
:10337000B010C0F6000040F2AB3107F0CBFBFFE726
:1033800041F20400C4F20200016821F46051069A7F
:10339000126941EAC2010160FFE700F055F841F20D
:1033A000040EC4F2020EDEF800E05FFA8EFE4FEA71
:1033B0001E1E4BF6B401C0F6000111F80E10C840F5
:1033C00040F22001C2F20001086040F23410C2F263
:1033D00000000068FEF79CFD00218DF81F10019091
:1033E000FFE79DF81F0008B080BD000040F22000FC
:1033F000C2F200000068704780B5FFF7F7FF41F2A6
:10340000040EC4F2020EDEF800E0CEF3022E4BF6FC
:10341000C401C0F6000111F80E10C84080BD0000C4
:1034200080B5FFF7E3FF41F2040EC4F2020EDEF8AE
:1034300000E0CEF3C22E4BF6C401C0F6000111F835
:103440000E10C84080BD00008BB040F60E70C1F277
:1034500010000A9040F60A30C0F60C50099040F275
:103460000670C0F60810089040F20230C0F2045016
:10347000079040F20120ADF81A000020059004905A
:1034800003900290019041F20400C4F2020000682F
:103490000590059800F00C000146002800913DD0F1
:1034A000FFE70098042804D0FFE70098082806D01A
:1034B00035E041F20020C0F27A00019035E0059835
:1034C000C0F3834007A9085C02909DF81600C0076E
:1034D000002818D0FFE741F20400C4F2020000689F
:1034E00000F400300DF11A0141EA504000780490D8
:1034F000029841F20021C0F27A0148430499B0FBDE
:10350000F1F0039007E0029840F60011C0F23D018F
:1035100048430390FFE70398019006E0FFE741F27C
:103520000020C0F27A000190FFE701980BB07047CD
:1035300080B588B00146069006980028019105D113
:10354000FFE701208DF81F0000F08BBC0698006893
:1035500000281AD0FFE706980068C007002814D199
:10356000FFE70698006800F0020002280DD0FFE790
:103570000698006800F00800082806D0FFE70698C3
:1035800000684007002801D5FFE708E04BF6B010BF
:10359000C0F6000040F2671107F0BCFAFFE706989A
:1035A0000068C007002800F0D180FFE70698406857
:1035B00000280CD0FFE706984068B0F5803F06D0A1
:1035C000FFE706984068B0F5A02F01D1FFE708E0BB
:1035D0004BF6B010C0F6000040F26D1107F09AFAF9
:1035E000FFE741F20400C4F20200006800F00C00A2
:1035F000042813D0FFE741F20400C4F2020000687F
:1036000000F00C0008281DD1FFE741F20400C4F2CD
:1036100002000068C003002814D5FFE741F2000053
:10362000C4F202000068800300280AD5FFE706986C
:103630004068002805D1FFE701208DF81F0000F049
:1036400010BC82E0FFE706984068B0F5803F09D1E2
:10365000FFE741F20000C4F20200016841F480314A
:10366000016033E00698406800280DD1FFE741F281
:103670000000C4F20200016821F480310160016899
:1036800021F48021016020E006984068B0F5A02F69
:103690000DD1FFE741F20000C4F20200016841F4DD
:1036A00080210160016841F4803101600CE041F249
:1036B0000000C4F20200016821F480310160016859
:1036C00021F480210160FFE7FFE7FFE7FFE70698AD
:1036D000406800281CD0FFE7FEF7EEFB0590FFE7EF
:1036E00041F20000C4F202000068800300280ED4FA
:1036F000FFE7FEF7E1FBDDF814E0A0EB0E00652824
:1037000004D3FFE703208DF81F00AAE3E8E71BE0DE
:10371000FEF7D2FB0590FFE741F20000C4F2020081
:103720000068800300280ED5FFE7FEF7C5FBDDF833
:1037300014E0A0EB0E00652804D3FFE703208DF80A
:103740001F008EE3E8E7FFE7FFE7FFE70698006862
:103750008007002840F1B580FFE70698006900283F
:1037600005D0FFE706980069012801D1FFE708E0CE
:103770004BF6B010C0F6000040F2A11107F0CAF9F4
:10378000FFE7069840691F2801D8FFE708E04BF6DD
:10379000B010C0F600004FF4D17107F0BBF9FFE79D
:1037A00041F20400C4F20200006810F00C0F13D0C4
:1037B000FFE741F20400C4F20200006800F00C00D0
:1037C000082829D1FFE741F20400C4F20200006892
:1037D000C003002820D4FFE741F20000C4F2020039
:1037E00000688007002809D5FFE7069800690128CE
:1037F00004D0FFE701208DF81F0032E341F2000002
:10380000C4F20200016821F0F801069A526941EA07
:10381000C2010160FFE753E00698006900282DD03F
:10382000FFE70020C4F2422001210160FEF744FBC3
:103830000590FFE741F20000C4F202000068800733
:1038400000280ED4FFE7FEF737FBDDF814E0A0EB0D
:103850000E00032804D3FFE703208DF81F0000E3C8
:10386000E8E741F20000C4F20200016821F0F8012B
:10387000069A526941EAC201016020E00020C4F2C8
:10388000422000210160FEF717FB0590FFE741F29F
:103890000000C4F202000068800700280ED5FFE790
:1038A000FEF70AFBDDF814E0A0EB0E00032804D3BA
:1038B000FFE703208DF81F00D3E2E8E7FFE7FFE70B
:1038C000FFE7069800680007002861D5FFE7069823
:1038D0008069002805D0FFE706988069012801D19A
:1038E000FFE708E04BF6B010C0F600004FF4F171AE
:1038F00007F010F9FFE706988069002825D0FFE758
:1039000040F28040C4F2422001210160FEF7D4FA67
:103910000590FFE741F22400C4F20200006880072E
:1039200000280ED4FFE7FEF7C7FADDF814E0A0EB9D
:103930000E00032804D3FFE703208DF81F0090E258
:10394000E8E7012001F096FF21E040F28040C4F258
:10395000422000210160FEF7AFFA0590FFE741F237
:103960002400C4F202000068800700280ED5FFE79B
:10397000FEF7A2FADDF814E0A0EB0E00032804D352
:10398000FFE703208DF81F006BE2E8E7FFE7FFE7A2
:10399000069800684007002840F1FA80FFE7002001
:1039A0008DF80F000698C06800280AD0FFE7069837
:1039B000C068012805D0FFE70698C068052801D136
:1039C000FFE708E04BF6B010C0F6000040F211210E
:1039D00007F0A0F8FFE741F21C00C4F20200006803
:1039E000C000002814D4FFE7FFE741F21C00C4F236
:1039F0000200016841F080510160006800F08050D1
:103A0000029002980090FFE701208DF80F00FFE779
:103A100047F20000C4F200000068C005002824D46A
:103A2000FFE747F20000C4F20000016841F4807132
:103A30000160FEF741FA0590FFE747F20000C4F28B
:103A400000000068C00500280ED4FFE7FEF734FA36
:103A5000DDF814E0A0EB0E00652804D3FFE7032097
:103A60008DF81F00FDE1E8E7FFE7FFE70698C06873
:103A7000012809D1FFE741F22000C4F202000168E9
:103A800041F00101016032E00698C06800280DD1C4
:103A9000FFE741F22000C4F20200016821F00101B9
:103AA0000160016821F0040101601FE00698C06810
:103AB00005280DD1FFE741F22000C4F202000168A1
:103AC00041F004010160016841F0010101600CE076
:103AD00041F22000C4F20200016821F001010160FE
:103AE000016821F004010160FFE7FFE7FFE7FFE75E
:103AF0000698C06800281ED0FFE7FEF7DDF90590A4
:103B0000FFE741F22000C4F20200006880070028AD
:103B100010D4FFE7FEF7D0F9DDF814E0A0EB0E00BB
:103B200041F2893E704504D3FFE703208DF81F0062
:103B300097E1E6E71DE0FEF7BFF90590FFE741F2E8
:103B40002000C4F2020000688007002810D5FFE7BB
:103B5000FEF7B2F9DDF814E0A0EB0E0041F2893E69
:103B6000704504D3FFE703208DF81F0079E1E6E7F5
:103B7000FFE79DF80F00012809D1FFE741F21C0083
:103B8000C4F20200016821F080510160FFE7FFE705
:103B90000698C06900280AD0FFE70698C069012886
:103BA00005D0FFE70698C069022801D1FFE708E0C9
:103BB0004BF6B010C0F6000040F2AF2106F0AAFFAD
:103BC000FFE70698C069002800F04781FFE741F24F
:103BD0000400C4F20200006800F00C00082800F0A5
:103BE0001681FFE70698C069022840F0EE80FFE7E3
:103BF0000698006A002806D0FFE70698006AB0F52C
:103C0000803F01D1FFE708E04BF6B010C0F600009E
:103C10004FF42E7106F07EFFFFE70698406A0028F9
:103C200054D0FFE70698406AB0F5802F4ED0FFE7EA
:103C30000698406AB0F5002F48D0FFE70698406A22
:103C4000B0F5402F42D0FFE70698406AB0F5801FDC
:103C50003CD0FFE70698406AB0F5A01F36D0FFE7DA
:103C60000698406AB0F5C01F30D0FFE70698406A5A
:103C7000B0F5E01F2AD0FFE70698406AB0F5001FB4
:103C800024D0FFE70698406AB0F5101F1ED0FFE76A
:103C90000698406AB0F5201F18D0FFE70698406AE2
:103CA000B0F5301F12D0FFE70698406AB0F5401F0C
:103CB0000CD0FFE70698406AB0F5501F06D0FFE72A
:103CC0000698406AB0F5601F01D1FFE708E04BF6A7
:103CD000B010C0F6000040F2B92106F01BFFFFE76C
:103CE0006020C4F2422000210160FEF7E5F8059053
:103CF000FFE741F20000C4F20200006880010028E2
:103D00000ED5FFE7FEF7D8F8DDF814E0A0EB0E00C3
:103D1000032804D3FFE703208DF81F00A1E0E8E7A4
:103D20000698006AB0F5803F21D1FFE706988068C9
:103D3000002806D0FFE706988068B0F5003F01D163
:103D4000FFE708E04BF6B010C0F6000040F2CF21CC
:103D500006F0E0FEFFE741F20400C4F20200016851
:103D600021F40031069A926811430160FFE741F2A5
:103D70000400C4F20200016821F47411069A136A67
:103D8000526A1A43114301606020C4F242200121AB
:103D90000160FEF791F80590FFE741F20000C4F2E0
:103DA00002000068800100280ED4FFE7FEF784F8C7
:103DB000DDF814E0A0EB0E00032804D3FFE7032096
:103DC0008DF81F004DE0E8E720E06020C4F24220BB
:103DD00000210160FEF770F80590FFE741F2000056
:103DE000C4F202000068800100280ED5FFE7FEF74C
:103DF00063F8DDF814E0A0EB0E00032804D3FFE71E
:103E000003208DF81F002CE0E8E7FFE724E0069888
:103E1000C069012804D1FFE701208DF81F0020E0D0
:103E200041F20400C4F2020000680490049800F417
:103E300080300699096A884208D1FFE7049800F4A7
:103E400070100699496A884204D0FFE701208DF876
:103E50001F0006E0FFE7FFE7FFE700208DF81F00E7
:103E6000FFE79DF81F0008B080BD000080B584B05A
:103E70000146029002980028019104D1FFE7012039
:103E80008DF80F0047E10298006843F20001C4F288
:103E90000101884209D0FFE70298006843F600015B
:103EA000C4F20001884201D1FFE708E04BF63F1061
:103EB000C0F600004FF4AC7106F02CFEFFE702984C
:103EC0004068002806D0FFE702984068B0F5827F7E
:103ED00001D1FFE708E04BF63F10C0F6000040F2CA
:103EE000591106F017FEFFE70298806800280CD0F1
:103EF000FFE702988068B0F5806F06D0FFE7029870
:103F00008068B0F5004F01D1FFE708E04BF63F10A5
:103F1000C0F600004FF4AD7106F0FCFDFFE702981B
:103F2000C068B0F5006F05D0FFE70298C0680028B0
:103F300001D1FFE708E04BF63F10C0F6000040F269
:103F40005B1106F0E7FDFFE702988069B0F5007F9E
:103F50000BD0FFE702988069002806D0FFE702989F
:103F60008069B0F5802F01D1FFE708E04BF63F10E4
:103F7000C0F600004FF4AE7106F0CCFDFFE70298EA
:103F8000C069002823D0FFE70298C06908281ED026
:103F9000FFE70298C069102819D0FFE70298C069AE
:103FA000182814D0FFE70298C06920280FD0FFE737
:103FB0000298C06928280AD0FFE70298C069302813
:103FC00005D0FFE70298C069382801D1FFE708E073
:103FD0004BF63F10C0F6000040F25D1106F09AFD6E
:103FE000FFE70298006A002805D0FFE70298006A00
:103FF000802801D1FFE708E04BF63F10C0F6000033
:104000004FF4AF7106F086FDFFE70298406A002882
:1040100001D1FFE708E04BF63F10C0F6000040F288
:10402000611106F077FDFFE70298406A002829D168
:10403000FFE702980069002805D0FFE702980069B1
:10404000022801D1FFE708E04BF63F10C0F6000060
:104050004FF4B27106F05EFDFFE702984069002858
:1040600005D0FFE702984069012801D1FFE708E089
:104070004BF63F10C0F6000040F2651106F04AFD15
:10408000FFE7FFE7029800218162029890F8510053
:10409000002808D1FFE70298002180F8501002980C
:1040A00000F03EF8FFE70298022180F851100298D4
:1040B0000068016821F040010160029801684268CF
:1040C0008368D0F80CC01A4342EA0C0203691A4311
:1040D00043691A43836903F400731A43C3691A439B
:1040E000036A1A43806A104308600298418B01F00A
:1040F00004010068416002980068C16921F4006110
:10410000C1610298002141650298012280F8512086
:104110008DF80F10FFE79DF80F0004B080BD000080
:1041200080B58CB001460B9000200A900990089051
:1041300007900B98006843F20002C4F2010290421B
:10414000049139D1FFE7FFE741F21800C4F2020001
:10415000016841F480510160006800F480500690CD
:1041600006980390FFE7FFE741F21800C4F202004F
:10417000016841F004010160006800F0040005904E
:1041800005980290FFE7A0200790022008900320E6
:104190000A9040F60000C4F2010007A901900091C6
:1041A000FDF75AFB402007900020089009900198E5
:1041B0000099FDF751FBFFE70CB080BD70B594B0DE
:1041C000DDF860C09E4614460D46064612901191D9
:1041D0001092ADF83E3001200B9000208DF82B009E
:1041E000129880680028CDF820C0CDF81CE0069415
:1041F0000595049601D1FFE708E04BF63F10C0F6A5
:10420000000040F2824106F085FCFFE7FFE71298CC
:1042100090F85000012804D1FFE702208DF84F00EC
:10422000B0E11298012180F85010FFE7FFE7FDF799
:1042300043FE0C90129890F851008DF837001298B8
:1042400040680E90BDF83E00ADF83C009DF8370088
:10425000012813D0FFE70E98B0F5827F0AD1FFE75F
:1042600012988068002805D1FFE79DF837000428E0
:1042700004D0FFE702208DF82B0074E1119800288C
:1042800009D0FFE71098002805D0FFE7BDF83E00F1
:10429000002804D1FFE701208DF82B0063E112987C
:1042A00090F85100042805D0FFE71298052180F806
:1042B0005110FFE71298002141651098129A9063FF
:1042C000BDF83E00129AD087BDF83E00129A908742
:1042D0001198129A1063BDF83E00129AD086BDF86C
:1042E0003E00129A908612980164129841641298C6
:1042F0000068006800F04000402807D0FFE71298EF
:104300000068016841F040010160FFE71298C06851
:10431000B0F5006F40F08080FFE7129840680028F9
:1043200005D0FFE7BDF83C0001280ED1FFE7129849
:104330000168006B0088C8601298016B023101634C
:104340001298C18E0139C186FFE7FFE71298C08E2F
:1043500001210028039107D1FFE71298C08F0028A0
:1043600018BF01200390FFE70398C007002852D030
:10437000FFE71298006880688007002819D5FFE7DA
:104380001298C08E002814D0FFE70B98012810D196
:10439000FFE712980168006B0088C8601298016BF3
:1043A000023101631298C18E0139C18600200B9041
:1043B000FFE7129800688068C007002816D0FFE762
:1043C0001298C08F002811D0FFE712980068C068CB
:1043D0001299896B08801298816B0231816312985F
:1043E000C18F0139C18701200B90FFE7FDF764FD04
:1043F000DDF830E0A0EB0E00DDF860E0704509D399
:10440000FFE718980130002804D0FFE703208DF85B
:104410002B00A8E09AE782E012984068002805D0B7
:10442000FFE7BDF83C0001280ED1FFE712980168B4
:10443000006B007808731298016B013101631298C8
:10444000C18E0139C186FFE7FFE71298C08E0121B6
:104450000028029107D1FFE71298C08F002818BFEB
:1044600001200290FFE70298C007002856D0FFE71E
:104470001298006880688007002819D5FFE7129815
:10448000C08E002814D0FFE70B98012810D1FFE759
:1044900012980168006B007808731298016B013163
:1044A00001631298C18E0139C18600200B90FFE78D
:1044B000129800688068C007002816D0FFE712989D
:1044C000C08F002811D0FFE712980068C0681299C9
:1044D000896B08701298816B013181631298C18FCA
:1044E0000139C18701200B90FFE7FDF7E5FCDDF8FE
:1044F00030E0A0EB0E00DDF860E0704505D3FFE78B
:1045000018980130002804D1FFE71898002804D13A
:10451000FFE703208DF82B0025E096E7FFE71298D0
:1045200018990C9A02F080F8002807D0FFE70120C4
:104530008DF82B0012982021416514E012988068B4
:1045400000280FD1FFE7FFE70020099012980068CC
:10455000C0680990129800688068099009980190D5
:10456000FFE7FFE7FFE71298012180F85110FFE70E
:104570001298002180F85010FFE79DF82B008DF86D
:104580004F00FFE79DF84F0014B070BD80B582B0BA
:10459000014601900198009102F07CF902B080BDC3
:1045A00082B001460190009102B0704780B58CB096
:1045B00001460B900B98006800680A900B98006801
:1045C000C06809900B980068406908900020079027
:1045D00006900A9800F00F000790079800280591B0
:1045E00012D1FFE79DF82800800600280BD5FFE7D1
:1045F0009DF824008006002805D5FFE70B9802F0FF
:1046000037FA0490E0E0FFE70798002800F0BA804E
:10461000FFE79DF82000C007002807D1FFE7BDF89D
:10462000240010F4907F00F0AD80FFE79DF8280093
:10463000C00700280CD0FFE79DF82500C007002820
:1046400006D0FFE70B98C16B41F00101C163FFE7A2
:104650009DF82800400700280CD5FFE79DF82000B2
:10466000C007002806D0FFE70B98C16B41F002019C
:10467000C163FFE79DF82800800700280CD5FFE7FD
:104680009DF82000C007002806D0FFE70B98C16BFB
:1046900041F00401C163FFE79DF8280000070028EE
:1046A0000CD5FFE79DF82000C007002806D0FFE7E3
:1046B0000B98C16B41F00801C163FFE70B98C06B19
:1046C00000285ED0FFE79DF82800800600280BD563
:1046D000FFE79DF824008006002805D5FFE70B982A
:1046E00002F0C6F90390FFE70B9800684069C0F339
:1046F000801006900B98C06B0007002804D4FFE7D9
:104700000698002833D0FFE70B9802F085F90B9844
:10471000006840694006002824D5FFE70B98006830
:10472000416921F0400141610B98406B002814D091
:10473000FFE70B98406B46F6F511C0F600014163A8
:104740000B98406BFCF7F6FF002805D0FFE70B98AD
:10475000406B416B8847FFE703E00B98FFF720FFB2
:10476000FFE703E00B98FFF71BFFFFE708E00B985C
:10477000FFF716FF0B984FF0000EC0F83CE0FFE784
:10478000FFE721E09DF82800000600280BD5FFE791
:104790009DF824000006002805D5FFE70B9802F0DD
:1047A000D3FA029010E09DF82800400600280BD5AF
:1047B000FFE79DF824004006002805D5FFE70B9889
:1047C00002F040F90190FFE70CB080BD80B584B0E5
:1047D0000146029002980028019104D1FFE70120D0
:1047E0008DF80F00C1E002988069002847D0FFE7EC
:1047F0000298006843F60001C4F20101884212D019
:10480000FFE70298006844F20041C4F200018842C8
:1048100009D0FFE70298006844F60001C4F20001E5
:10482000884201D1FFE708E04BF67710C0F60000A0
:104830004FF4A37106F06EF9FFE702988069002833
:1048400012D0FFE702988069B0F5807F0CD0FFE7B7
:1048500002988069B0F5007F06D0FFE70298806972
:10486000B0F5407F01D1FFE708E04BF67710C0F6C6
:10487000000040F2471106F04DF9FFE725E00298ED
:10488000006843F60001C4F20101884212D0FFE73C
:104890000298006844F20041C4F20001884209D045
:1048A000FFE70298006844F60001C4F20001884264
:1048B00001D1FFE708E04BF67710C0F6000040F2A8
:1048C0004B1106F027F9FFE7FFE702988068002800
:1048D00006D0FFE702988068B0F5805F01D1FFE75E
:1048E00008E04BF67710C0F6000040F24D1106F0DC
:1048F00011F9FFE7029890F83900002808D1FFE786
:104900000298002180F83810029800F033F8FFE791
:104910000298242180F8391002980068C16821F4B7
:104920000051C160029802F01FF902980068016905
:1049300021F49041016102980068416921F02A0147
:10494000416102980068C16841F40051C160029859
:104950000021C16302984FF0200E80F839E00298E0
:1049600080F83AE08DF80F10FFE79DF80F0004B0D3
:1049700080BD000080B58EB001460D9000200C90E7
:104980000B900A9009900D98006843F60002C4F25B
:1049900001029042069147D1FFE7FFE741F218007C
:1049A000C4F20200016841F480410160006800F433
:1049B0008040089008980590FFE7FFE741F2180053
:1049C000C4F20200016841F004010160006800F0D7
:1049D0000400079007980490FFE74FF400700990D7
:1049E00002200A9003200C9040F60001C4F201015D
:1049F00009AA03900846029111460192FCF72CFF88
:104A00004FF48060099000200A900B900298019961
:104A1000FCF722FF252000900399039AFDF706FB7F
:104A20000098FDF7E9FAFFE70EB080BD80B587B0CA
:104A300013468C46864605900491ADF80E200598E5
:104A400090F83A0020280293CDF804C0CDF800E099
:104A50004CD1FFE70498002805D0FFE7BDF80E0011
:104A6000002804D1FFE701208DF81B0042E0FFE79A
:104A7000059890F83800012804D1FFE702208DF84E
:104A80001B0037E00598012180F83810FFE7FFE7A9
:104A9000049805998862BDF80E0005998885BDF8CF
:104AA0000E000599C88505980021C163059822214B
:104AB00080F83A10FFE70598002180F83810FFE7EA
:104AC00005980068C16841F48071C160059800686C
:104AD000416941F00101416105980068C16841F0F8
:104AE0002001C16000208DF81B0003E002208DF83A
:104AF0001B00FFE79DF81B0007B080BD80B586B0A6
:104B000001460590059842F6FC12C2F2000290425E
:104B1000049119D1FFE742F63D20C2F2000001786E
:104B20004BF6D922C0F6000203901046FBF7C8FBF3
:104B300042F6FC11C2F200010122029008460399DC
:104B4000FFF774FF0190FFE706B080BD82B0014619
:104B50000190009102B07047FFE7FEE780B586B094
:104B600013468C468646059004918DF80F20002050
:104B70008DF80E000293CDF804C0CDF800E0FFE7F9
:104B80009DF80E009DF80F10884229DAFFE705987E
:104B9000000F092809D8FFE70598000F3030049965
:104BA0009DF80E2001F8120009E00598372101EB6D
:104BB000107004999DF80E2001F81200FFE7059887
:104BC0000001059004989DF80E1000EB41000021B3
:104BD0004170FFE79DF80E0001308DF80E00CFE721
:104BE00006B080BD80B586B0014605900598D0F826
:104BF000B8020490049841F21802805C00280391E6
:104C000012D1FFE7049841F21401405800280BD05C
:104C1000FFE70498407A002806D1FFE705980121B4
:104C200003F050F90290FFE70598812103F04AF95B
:104C30000499497A022901900BD1FFE7059804995C
:104C400041F20C020A4401211F2303F015F80090E1
:104C5000FFE706B080BD000080B586B00146059034
:104C60000598D0F8B8020490049841F210028258D6
:104C700041F23003C250049841F21402825841F2CA
:104C80003403C250059801220391114602F030FF0F
:104C90001F2820D1FFE7049841F20C01405845F24B
:104CA0005531C4F24231884215D1FFE7049841F2F0
:104CB0001901405C01280ED8FFE7049841F21A015F
:104CC000405C002807D0FFE7049841F21A01405CDD
:104CD000112810D3FFE70598049941F21902895C65
:104CE0000522202301F0F0FA049802214172059870
:104CF000FFF778FF51E00598049941F219028A5CA8
:104D000041F21B03194402911146029A00F0D6FEAB
:104D1000B0F1FF3F0FDCFFE70498007A052805D1CA
:104D2000FFE70598012100F043F903E00598FFF73C
:104D300059FFFFE730E00498007A02282AD0FFE705
:104D40000498007A012825D0FFE70498007A032808
:104D500020D0FFE70498408900280BD0FFE7059892
:104D6000049901F10C02498901911146019A00F060
:104D700063F90EE004984089002805D1FFE7059803
:104D8000002100F015F903E00598FFF72BFFFFE77E
:104D9000FFE700E001E0FFE7FFE706B080BD0000AD
:104DA00080B586B00A46034605908DF81310059825
:104DB000D0F8B80203900398407A02280292019337
:104DC0000BD1FFE70598812103F07CF803994FF0A0
:104DD000000E81F809E0009011E09DF81300000634
:104DE00000280AD5FFE70398407A012805D0FFE79D
:104DF0000598012100F0DCF800E000E0FFE706B0D4
:104E000080BD000080B588B00A46034607908DF843
:104E10001B100798D0F8B80205900598007A014653
:104E2000022804920393029105D0FFE70298C11E65
:104E3000022917D31BE00798059941F219028A5CF1
:104E400041F21B03194401911146019A00F036FE0C
:104E5000B0F1FF3F05DCFFE70798012100F0A8F85B
:104E6000FFE705E00798002100F0A2F800E0FFE767
:104E700008B080BD80B588B00A46034607908DF81B
:104E80001B100798D0F8B80205900598007A0146E3
:104E9000002804920393029104D0FFE702980128AE
:104EA00004D01AE00798FFF7D7FE17E00798059996
:104EB00041F219028A5C41F21B0319440191114627
:104EC000019A00F0FBFDB0F1FF3F05DCFFE707981A
:104ED000012100F06DF8FFE700E0FFE708B080BDBA
:104EE00083B0014602900298D0F8B8020190019870
:104EF00000220272009103B07047000080B58AB0B2
:104F0000014609900998D0F8B80208900898002244
:104F1000027208984272089841F25D03C2540898E0
:104F200041F25C03C2540998D0F8BC0200680790B3
:104F30001046079A06919047099901220590084664
:104F40001146049202F0B2FD0999812203900846AD
:104F5000114602F0ABFD0999089A41F20C031A447C
:104F60001F2302900846049902F086FE01900AB0C1
:104F700080BD000080B584B0014603900398D0F84E
:104F8000B802029002980022027202980122427234
:104F90000398029B41F20C0C63444FF01F0C0191EB
:104FA00011461A46634602F067FE009004B080BDC9
:104FB00080B588B00A46034607908DF81B10079805
:104FC000D0F8B8020590059841F22C0145F2553C05
:104FD000C5F2423C40F801C09DF81B00DDF814C04A
:104FE00041F2380E0CF80E0005984FF0000C80F8D6
:104FF00008C00798DDF814C061444FF0810C4FF0F1
:105000000D0E04916146DDF810C0039262460293D2
:10501000734602F0A5FF0799059A41F20C031A4462
:1050200001234FF01F0C019008461946634602F019
:1050300023FE009008B080BD80B58AB013468C4630
:10504000864609900891ADF81E200998D0F8B8025C
:105050000690069841F214014058BDF81E1088428F
:105060000493CDF80CC0CDF808E006D2FFE706980F
:1050700041F214014058019003E0BDF81E00019078
:10508000FFE70198ADF81600BDF81E00069941F241
:1050900034028B58181A8850069841F238010022C1
:1050A00042540698042101720998089ABDF81630F6
:1050B000812102F055FF00900AB080BD80B540F21A
:1050C0001C10C2F2000041F20C41C2F20001FCF7D8
:1050D000A7FA42F63C21C2F20001087080BD000030
:1050E00080B58CB000200B900A9009900890FFE7E3
:1050F00041F21800C4F20200016841F02001016091
:10510000006800F02000079007980590FFE7FFE790
:1051100041F21800C4F20200016841F0040101608C
:10512000006800F00400069006980490FFE740F63F
:105130000000C4F2010010210122039002910192AB
:10514000FCF772FE029808900199099100220A92D8
:1051500003220B9208A90398FCF77EFB0CB080BDDC
:1051600080B542F6A410C2F2000043F20001C4F27E
:10517000010101604FF48271416000218160C160D2
:1051800002220261012242614FF400728261082210
:10519000C2610162416281620A21C162FEF766FE5C
:1051A000002803D0FFE7FCF739FAFFE780BD0000D5
:1051B00080B542F6FC10C2F2000043F60001C4F2D2
:1051C000010101604FF4E131416000218160C16063
:1051D00001610C2242618161C161FFF7F7FA002889
:1051E00003D0FFE7FCF71AFAFFE780BD80B542F273
:1051F0007440C2F2000040F20001C2F2000100223D
:1052000002F06EFA002803D0FFE7FCF707FAFFE789
:1052100042F27440C2F2000040F23C01C2F20001CE
:1052200003F042F9002803D0FFE7FCF7F7F9FFE7A6
:1052300042F27440C2F2000040F2E001C2F200010A
:1052400002F0B0FF002803D0FFE7FCF7E7F9FFE723
:1052500042F27440C2F2000003F090FA002803D03A
:10526000FFE7FCF7DBF9FFE780BD0000FFE7FEE7A3
:105270007047000080B58BB013468C4686460A9076
:10528000099108920A9800F0070007900798C0F16A
:10529000070005280493CDF80CC0CDF808E003D32F
:1052A000FFE70420019004E00798C0F10700019097
:1052B000FFE70198069007980430062803D8FFE717
:1052C0000020009003E0079803380090FFE7009863
:1052D000059009980699012202FA01F10139084066
:1052E00005998840089B02FA01F1013919400843E9
:1052F0000BB080BD80B596B0014615900A91FFE7CE
:1053000015980068B0F844000004002840F1AD8210
:10531000FFE715980068B0F84400ADF84C00BDF800
:105320004C0000F00F008DF849009DF8490000285E
:1053300040F05381FFE7BDF84C00C006002848D478
:10534000FFE7FFE715980068008848F60F710840EE
:10535000ADF84600BDF8460040F4004015990968D4
:105360000880FFE715982830149015980068B0F869
:10537000500014990A7800EBC200159A126802EBEB
:105380004000B0F804046FF39F20C861149841698D
:10539000C2691144416115980021FCF707FF159877
:1053A00090F82400002813D0FFE7149880690028A3
:1053B0000ED1FFE7159890F8240040F08000159971
:1053C0000968A1F84C001598002180F82410FFE727
:1053D00002E1159800F59470149015980068008803
:1053E000ADF84A00BDF84A000005002835D5FFE7B2
:1053F00015980068B0F8500014990A7800EBC200C4
:10540000159A126802EB4000B0F80C046FF39F206D
:10541000C8611598016800F50C70149AD388928BB6
:1054200009900846099908921A46089B04F026FE3E
:10543000FFE715980068008840F68F710840ADF8C6
:105440004400BDF8440040F08000159909680880C8
:10545000FFE71598FDF7F8FBBDE0BDF84A00000432
:10546000002840F1B780FFE7FFE715980068008843
:1054700040F68F710840ADF84200BDF8420040F0A0
:105480008000159909680880FFE715980068B0F852
:10549000500014990A7800EBC200159A126802EBCA
:1054A0004000B0F80C046FF39F20C8611498C069E5
:1054B00000281BD0FFE714984069002816D0FFE7AA
:1054C0001598006814994A69CB88898B0791114611
:1054D0001A46079B04F0D2FD14984169C269114431
:1054E000416115980021FCF77DFEFFE7FFE7159865
:1054F00000680F9015980068B0F850000F990844A4
:105500000F900F9800F20C400E90FFE7149800697E
:1055100000280BD1FFE70E98018821F4F8410180A3
:105520000E98018841F40041018032E0149800692E
:105530003E2815D8FFE7FFE71498006940080D9052
:105540001498007CC007002804D0FFE70D980130B4
:105550000D90FFE70D9880020E990880FFE717E095
:10556000FFE71498006940090D901498007CC0066C
:10557000002804D1FFE70D9801380D90FFE70D9842
:105580004FF4004141EA80200E990880FFE7FFE7D1
:10559000FFE7FFE7FFE7FFE71598006800884BF695
:1055A0008F710840ADF83200BDF8320080F48050B1
:1055B000ADF83200BDF8320080F40050ADF8320092
:1055C000BDF8320048F28001084315990968088047
:1055D000FFE7FFE7FFE7FFE746E1159800689DF862
:1055E000491030F82100ADF84A00BDF84A00000427
:1055F000002840F1E580FFE7FFE7159800689DF877
:10560000491030F8210040F68F710840ADF83000A5
:10561000BDF8300040F08000159909689DF84920D8
:1056200021F82200FFE715989DF8491000EB411082
:1056300000F5947014901498007B002825D1FFE7A2
:1056400015980068B0F850001499097800EBC10073
:105650001599096801EB4000B0F80C046FF39F2026
:10566000ADF84E00BDF84E0000280DD0FFE71598AC
:10567000006814994A69C988BDF84E3006911146F0
:10568000069A04F0FBFCFFE76EE015980068149999
:10569000097830F821004004002825D5FFE7159847
:1056A0000068B0F850001499097800EBC100159912
:1056B000096801EB4000B0F804046FF39F20ADF8D7
:1056C0004E00BDF84E0000280DD0FFE71598006889
:1056D00014994A690989BDF84E3005911146059A19
:1056E00004F0CCFCFFE724E015980068B0F8500007
:1056F0001499097800EBC1001599096801EB400085
:10570000B0F80C046FF39F20ADF84E00BDF84E00CA
:1057100000280DD0FFE71598006814994A69498957
:10572000BDF84E3004911146049A04F0A7FCFFE73F
:10573000FFE7FFE7FFE7159800681499097830F84C
:10574000210048F68F710840ADF82E00BDF82E00FC
:1057500048F2C001084315990968149A127821F893
:105760002200FFE7FFE7FFE7BDF84E001499CA6982
:105770001044C861BDF84E0014994A69104448614C
:1057800014988069002807D0FFE7BDF84E001499EF
:105790000969884206D2FFE7159814990978FCF741
:1057A00021FD0CE0159814990A784B6989690391D9
:1057B00011461A46039BFCF7BFFE0290FFE7FFE786
:1057C000BDF84A00000600284DD5FFE715989DF862
:1057D000491000EB411028301490FFE7159800683D
:1057E0009DF8491030F8210048F60F710840ADF8D7
:1057F0002C00BDF82C0040F40040159909689DF874
:10580000492021F82200FFE715980068B0F8500001
:1058100014990A7800EBC200159A126802EB400056
:10582000B0F804046FF39F20C86114984169C269FD
:105830001144416114988069002806D1FFE715984A
:1058400014990978FCF7B2FC0CE0159814990A78C1
:105850004B698969019111461A46019BFCF724FFA7
:105860000090FFE7FFE7FFE74AE5002016B080BDA4
:105870007047000084B001460390039840F2200274
:10588000C2F200021268D20844F6D353C1F2620396
:10589000A2FB03239B095843029001910092FFE76A
:1058A00000BFFFE70298411E02910028F8D1FFE7F0
:1058B00004B07047B0B58AB09C4696460C46054683
:1058C00008908DF81F10069205930898D0F8B8023A
:1058D000049006980599084404994FF48352895816
:1058E0008842CDF80CC0CDF808E0019400950BD9A2
:1058F000FFE708989DF81F100522212300F0E4FC23
:10590000FF208DF8270003E000208DF82700FFE737
:105910009DF927000AB0B0BD80B589B013468C460A
:10592000864608908DF81F1006920898D0F8B802A5
:10593000039006984078C00700280293CDF804C071
:10594000CDF800E01ED0FFE70720ADF81200BDF84B
:10595000120003994881FFE7BDF81200002810D01B
:10596000FFE7BDF812000138ADF81200BDF81200D3
:105970004BF6DC01C0F60001095C039A1044017388
:10598000EAE733E00898D0F8BC02C0699DF81F1020
:1059900001EBC10100EB810005900598007905300D
:1059A000ADF8120006980079BDF81210884205DCA7
:1059B000FFE706980079ADF81200FFE7BDF8120086
:1059C00003994881FFE7BDF8120000280DD0FFE7DA
:1059D000BDF812000138ADF812000598BDF812109C
:1059E000405C039A11440873EDE7FFE7002009B01B
:1059F00080BD000080B588B013468C46864607906F
:105A00008DF81B1005920820ADF812000798D0F809
:105A1000B8020390BDF81200039948810293CDF8B3
:105A200004C0CDF800E0FFE7BDF81200002810D058
:105A3000FFE7BDF812000138ADF81200BDF8120002
:105A40004BF6CC01C0F60001095C039A10440173C7
:105A5000EAE7002008B080BD80B588B013468C46C8
:105A6000864607908DF81B1005920798D0F8B8026B
:105A700004900820ADF80E00BDF80E00049948818E
:105A80000293CDF804C0CDF800E0FFE7BDF80E00AA
:105A9000002810D0FFE7BDF80E000138ADF80E0069
:105AA000BDF80E004BF6D401C0F60001095C049A63
:105AB00010440173EAE7002008B080BD80B594B0BF
:105AC00013468C46864612908DF847101092109817
:105AD000007801465A280F93CDF838C0CDF834E04D
