:020000040800F2
:10000000007E002029030008E9C1000859B100085A
:10001000E5C10008752700089117010800000000DD
:1000200000000000000000000000000089D9000866
:10003000192B00080000000081C60008E9D900085B
:100040004303000843030008430300084303000878
:100050004303000843030008430300084303000868
:100060004303000843030008430300084303000858
:100070004303000843030008430300084303000848
:100080004303000843030008430300084303000838
:100090004303000843030008430300084303000828
:1000A0004303000843030008430300084303000818
:1000B0004303000843030008430300084303000808
:1000C00043030008430300084303000843030008F8
:1000D000430300080DE4000843030008430300083D
:1000E00043030008430300084303000843030008D8
:1000F00043030008430300084303000843030008C8
:1001000043030008430300084303000843030008B7
:1001100043030008430300084303000843030008A7
:1001200043030008F12800084303000843030008C4
:100130004303000843030008430300084303000887
:100140004303000843030008430300086DC200088E
:100150004303000843030008430300084303000867
:100160004303000843030008430300084303000857
:100170004303000843030008E128000800000000D2
:10018000430300084303000800F002F800F0BAF847
:100190000AA090E8000C82448344AAF10107DA45E2
:1001A00001D100F0AFF8AFF2090EBAE80F0013F07A
:1001B000010F18BFFB1A43F001031847CC57010089
:1001C000EC5701000A444FF0000C10F8013B13F00B
:1001D000070408BF10F8014B1D1108BF10F8015BA0
:1001E000641E05D010F8016B641E01F8016BF9D193
:1001F00013F0080F1EBF10F8014BAD1C0C1B09D1EA
:100200006D1E58BF01F801CBFAD505E014F8016B5B
:1002100001F8016B6D1EF9D59142D6D370470000ED
:100220000023002400250026103A28BF78C1FBD8FF
:10023000520728BF30C148BF0B6070476E2900F0DD
:10024000C182702900F01584662914F04D87652954
:1002500014F04A87672914F04787612914F046870C
:1002600003681B0A28BF41F08001692900F06E82F3
:10027000642900F06B82752900F068826F2900F014
:10028000A383782900F0E183E92900F03D83E42984
:1002900000F03A83F52900F03783EF2900F0A083BE
:1002A000F82900F0E0830368DB0928BF41F08001F2
:1002B000632901F08581732901F08A81E32901F026
:1002C0009581F32901F09A81002070471FB514F041
:1002D000FEFE9DE8030000F0A1F901F0EFF9040033
:1002E0000020002114F01EFD401C60600020002151
:1002F00014F002FDE06000F015F88DE80F001FBD5E
:1003000010B510BD01F0ADF91146FFF7DFFF13F096
:1003100023FB01F089FA03B4FFF7F2FF03BC11F0ED
:10032000A9FA000000F074BC09488047094800475A
:10033000FEE7FEE7FEE7FEE7FEE7FEE7FEE7FEE795
:10034000FEE7FEE704480549054A064B70470000F2
:10035000C5DA000889010008003E0020007E002068
:10036000005E0020005E0020704770B5064600F079
:1003700039F9056806F10B0020F00704B4429CBF70
:10038000002070BD2B466A68BAB11068A04210D335
:1003900004F1080188423CBF5068586007D3516897
:1003A000101941601168091B016058601460101D2C
:1003B00070BD13465268002AE7D12146284600F056
:1003C00019F90028DED170BD70B50446051F00F094
:1003D00009F90068002C14BF446870BD002C18BFD8
:1003E000AC423CBF20466468F8D301680A18AA42B0
:1003F00018BF456003D12A6805461144016028688A
:100400004119A1421CBF6C6070BD616869602168C0
:100410000844286070BD53EA020C00F069802DE9A1
:10042000F04B4FF00006002B1FBFB3FA83F503FA21
:1004300005F424FA05F65E4012BF1643B2FA82F5BF
:1004400002FA05F4C5F120051EBF22FA05FC44EAB4
:100450000C04203556EA044C4FEA144418BF641CBF
:100460004FF000084FF00009904271EB030C39D3B4
:10047000002919BFB1FA81F701FA07F6B0FA80F73F
:1004800000FA07F6C7F120071EBF20FA07FC46EA6C
:100490000C062037B6FBF4FCA7EB0507103F07F06E
:1004A0001F0BCBF120062CFA06F60CFA0BFB44BF0F
:1004B000B3460026202FA4BF5E464FF0000B5BEA38
:1004C000060C08BF4FF0010B19EB0B0948EB0608AF
:1004D000ABFB027C06FB02CC0BFB03CCC01B71EB1D
:1004E0000C01C1E70B46024641464846BDE8F08B89
:1004F00013B54FF000004FF00001AFF30080BDE8EE
:100500001C4070470FB4044910B503AA029800F0CC
:100510008BF910BC5DF814FB283400200FB41CB517
:10052000084B06AA7B4469460090059800F063F9E1
:1005300004460020694600F071F920461CBC5DF8B5
:1005400014FB0000F50200004FF000020429C0F087
:10055000128010F0030C00F01B80CCF1040CBCF1F5
:10056000020F18BF00F8012BA8BF20F8022BA1EB47
:100570000C0100F00DB85FEAC17C24BF00F8012B2C
:1005800000F8012B48BF00F8012B70474FF0000224
:1005900000B5134694469646203922BFA0E80C5079
:1005A000A0E80C50B1F12001BFF4F7AF090728BF54
:1005B000A0E80C5048BF0CC05DF804EB890028BFD0
:1005C00040F8042B08BF704748BF20F8022B11F0F9
:1005D000804F18BF00F8012B704770477047704775
:1005E0007047000000487047400100207047704786
:1005F0007047704738B504460A4600206946AFF395
:100600000080002808BF38BD02460099204600F04F
:1006100089FB012038BD012001F01CB8F8B5AFF30B
:100620000080054600200C46102000BF0646A81991
:10063000A0420DD9324669460020AFF30080070082
:1006400008BF01F007F80098A04218BF0546C4197A
:10065000FFF7C8FF05600746F01D20F007004619A8
:10066000284600F00AF8B44208BFF8BDA21B314684
:100670003868BDE8F84000F055BB00210160C0E9D2
:10068000011070471020704770B5044685690068F6
:10069000C10601D5302600E02026C00707D070BD76
:1006A000D4E9012130469047206A401C20626D1E2B
:1006B000F6D570BD70B5044685690078C00707D1CE
:1006C00070BDD4E9012120209047206A401C20629F
:1006D0006D1EF6D570BD09684A0501D540B2704758
:1006E000C905FCD500B2704709684A0501D5C0B2FA
:1006F0007047C905FCD580B2704770B50C460546F9
:10070000012A05D02878800600D5EA69002302E096
:10071000012305E05B1C934202D2E05C0028F9D182
:10072000A869E618C01AA861286A184428622846F1
:10073000FFF7AAFF04E0D5E9012114F8010B904767
:10074000B442F8D32846FFF7B5FF70BD2DE9F0415C
:100750000646002410687529314616A510D0FFF70B
:10076000BAFF002802DA404213A507E031688A0781
:1007700001D512A502E0490704D511A5012401E025
:10078000FFF7B2FF00210A2206F1240709E0B0FBBF
:10079000F2FCB0FBF2F302FB1C0030307854184638
:1007A000491C0028F3D123462A463046BDE8F041D3
:1007B00000F017BB000000002D0000002B0000001F
:1007C0002000000011680268006A530501D5087016
:1007D0000AE0D30501D5088006E0130603D5C21749
:1007E000C1E9000200E008600120704701694A1C6D
:1007F00002610878704700B58FB0CDE90131002162
:10080000059105497944CDE903101146684600F089
:100810003BF90FB000BD0000E5FFFFFF0A6802F8DA
:10082000010B0A6070470000074B70B50D467B4412
:10083000FFF7E1FF0446284600F0E4FE10B14FF058
:10084000FF3070BD204670BDDF2C01002DE9FF5F39
:1008500015468A460446DFF8AC80F8440027D8E9FC
:1008600000103E46CDE9001010E03AF816106A4636
:1008700002A800F0CBFE411C07D02178890603D5E1
:10088000E269391891420DD80744761C2078800619
:1008900002D5E069B84205DDAE42E6DB3AF8160063
:1008A0000028E2D1A069C01BA0612046FFF7ECFE42
:1008B000D8E90010CDE90010002017E03AF8181030
:1008C0006A4602A800F0A2FEB0F1FF3F81460BD0BD
:1008D00000250DF1080B05E0D4E901211BF8050006
:1008E00090476D1C4D45F7D308F10100B04280469A
:1008F000E4DB206A384420622046FFF7DBFEBDE8D7
:10090000FF9F0000924801002DE9F0418046D21D72
:1009100022F007020025D2E90002F52915A614D01D
:10092000011E72F1000106DA0023D0EB030063EB35
:10093000020211A608E0D8F800108B0701D50FA617
:1009400002E0490701D50EA601251146002408F151
:10095000240704E000F000FA30323A55641C50EAF3
:100960000102F7D12B46324621464046BDE8F04110
:1009700000F037BA000000002D0000002B0000003E
:100980002000000030B4002100F1240408E002F04F
:100990000705D208303542EA4372DB086554491C2A
:1009A00052EA0305F3D10468002310A2250708D5F5
:1009B00004F020040C4304D0C46901230CA2641E7B
:1009C000C46130BC00F00DBA10B504462146106871
:1009D000FFF78AFE02462046BDE810400023D1E71B
:1009E000D21D22F00701D1E90023CBE7000000006F
:1009F00030000000F0B40D460188090502D5214CF5
:100A00007C4402E01F4C7C440E34002100F124069B
:100A100008E002F00F071209E75D42EA03721B09C2
:100A20007754491C52EA0307F3D1027800231207D6
:100A300004D5702D06D009B1022311342246F0BC32
:100A400000F0CFB901231034F8E770B504460D4625
:100A500021461068FFF748FE024629462046BDE8B9
:100A600070400023C6E7D21D22F00703D3E900231C
:100A7000C0E70368126843F0200303600823C361E2
:100A80000023B7E7F44601002DE9F05F89460446EC
:100A90004FF0000ADFF874B1FB44C0F820A02046F4
:100AA000E1688847002874D0252806D0D4E90121C0
:100AB0009047206A401C2062F1E700265F462046EE
:100AC000E16888472028054607DB312D05D27819D3
:100AD00010F8200C08B10643F1E7B00701D526F065
:100AE0000406C4F81CA00027C4F818A02A2D09D0B9
:100AF000284614F0F9F838B304EB8708303DC8F8FD
:100B0000185019E059F8041B204604EB8702916144
:100B1000E1688847012F054618D1E069002820DAEE
:100B200026F020061DE0D8F8180000EB800005EB49
:100B300040003038C8F818002046E168884705466C
:100B400014F0D2F80028EED1012F0AD02E2D08D1B2
:100B50002046E16888477F1C0546022F46F02006A4
:100B6000C4DBA069002803DA404246F00106A06118
:100B7000F00701D026F010066C2D0BD0682D09D09F
:100B80004C2D39D06A2D35D0742D35D07A2D33D0F7
:100B900016E038E0E1682F4620468847B84205460F
:100BA00009D16C2F26D04FF48060E16806432046BF
:100BB0008847054604E06C2F1AD04FF48070064336
:100BC0000DB3A5F14100192802D8203546F400667E
:100BD0004A462946204626604E46FFF72FFB80B145
:100BE00001280BD0F61D26F0070000F1080956E792
:100BF0004020E4E78020D8E70020D6E706F104098A
:100C00004DE7284652E7206ABDE8F09F8446010080
:100C10002DE9FE4F00274FF48074BA4620468DF828
:100C20000070FFF7A2FB5FEA000801D100F012FD9F
:100C30002146404610F018FE060009D04FF0010B87
:100C40004546C14616F8014B8FB15C2C16D01CE00E
:100C500008F108004146C8F800000020C8F8040068
:100C6000D8F800402070012003B0BDE8F08F222C9E
:100C700001D0272C0FD12746BA462CE03078222805
:100C800007D05C2805D0272803D0BC4203D1002719
:100C900021E0761C04464CB12FB9202C06D0A4F1DB
:100CA0000900042802D905F8014BCBE74D4502D1D4
:100CB000BAF1000F0FD052464946002005F8010B4B
:100CC0006846AFF300809DF8000068B14D464FF0D4
:100CD000000A0BF1010B002CB4D14FEA8B00FFF797
:100CE00044FB040002D004E0A946F0E7002000F035
:100CF000B1FC00264046C4F8008005E010F8011B56
:100D000011B9761C44F82600A842F7D321460020EA
:100D100044F826003046A7E7004870473801002015
:100D200070477047034640688C46002818BF8842C9
:100D30003CBF03464068F8D318681844884207D07F
:100D40000CF1030020F00700001D411A521A014661
:100D5000081D0A60FFF738BB30B5B0F10A0271F127
:100D600000034FEA900E4EEA817EB0EB0E0061EB7D
:100D700091014FEA101E4EEA017E10EB0E0041EB8E
:100D800011114FEA102E4EEA016E10EB0E0041EBEE
:100D900011214FEA104E4EEA014E10EB0E0041EBCE
:100DA0001141401841F100014FEAD00040EA417082
:100DB0004FEAD1014FEA810444EA907410EB8005B8
:100DC00044EB01046D1944EB0404521BA3414FF0A2
:100DD000000348BF0A3200D530BD401C41F100017C
:100DE00030BD2DE9F0470D4699469246044600F184
:100DF00024080168880604D5E06921F0100121600B
:100E000000E00120A84201DD471B00E00027A169A6
:100E10007A1902EB0900081AA0612078C00602D4F2
:100E20002046FFF731FC002608E0D4E901211AF83A
:100E300006009047206A401C761C20624E45F4DB79
:100E40002078C0060AD52046FFF71EFC06E0D4E94C
:100E5000012130209047206A401C2062381EA7F1F3
:100E60000107F4DC07E0D4E9012118F805009047F8
:100E7000206A401C2062281EA5F10105F3DC2046F3
:100E8000FFF718FC2078000602D50220BDE8F087A5
:100E90000120FBE72DE9FF4F0C461E464FF0FF37C0
:100EA0008BB0D2E90001DDF860800A908A46C1F378
:100EB0000A5505B93D46002108464FF00000BAF139
:100EC000000F00F4400005DA00EB80004FF4400111
:100ED00001EA50004FEA9059B9F1010F00DDB9461F
:100EE0000A9850EA4A000ED044F61050A5F2FF3599
:100EF00045432F14B8F1000F1ED07542291E1EDD88
:100F0000C9F100021CE0B8F1010F4FF0000001D060
:100F1000302103E0F24305E02154401CB042FBDBEA
:100F200030460022002121540B99C1F80880C1E904
:100F300000200FB0BDE8F08FBD1B6D1CDEE74A46F8
:100F400000DA694206A800F0FDFB06AB93E8070053
:100F500003AB83E8070050460A9913F0E5FA8DE8E1
:100F60000700A0F500501F3800900398002D0ADDFF
:100F700042F21F014A460844002303A90390684631
:100F800013F04EFD09E0A0F500504A461F3800233B
:100F900003A90390684613F058FD8DE8070000048C
:100FA000000C03D04FF0FF30410800E01046B8F1CC
:100FB000000F03D00022009215461EE0751E05D4D6
:100FC000FFF7CAFE303262556D1EF9D5B3460122D5
:100FD000084302D000227F1C04E02078302801D191
:100FE00000227F1E002A099784D01DE0112D07DA08
:100FF000FFF7B2FE303262556D1C50EA0102F5D1A6
:10100000084302D00098C8B10EE00021681E05E038
:10101000235C625C63542254401E491C8142F7DB0E
:10102000AB46A81B401E0990002004F80B000B984B
:10103000099AC0F80880C0E9002B7AE711264FF022
:10104000000857E72DE9F04F88460446D21D22F0EC
:10105000070191B0D1E90001CDE90A0113F02CFE9E
:1010600002460B98C00F01D02D2007E020688107B1
:1010700001D52B2002E0202101EAC000032A0990BB
:1010800001D0072A05DB03464146204600F01AFB43
:101090000BE12078800601D5E06900E00620B8F178
:1010A000650F814606D0B8F1660F18D0B8F1670F0A
:1010B00070D131E00020B9F1110F009001DB112354
:1010C00001E009F101030AAA01A90CA8FFF7E2FE59
:1010D000DDE90C70002609F10105834647E0012097
:1010E0004B4600904FF000470AAA01A90CA8FFF751
:1010F000D1FEDDE90DB00C995D46002610B909F16D
:1011000001000D18B9EB050003D4C0F1FF3609F159
:101110000105A5EB09002BE0B9F1010F01DA4FF051
:1011200001090020B9F1110F0090484601DD11239B
:1011300000E003460AAA01A90CA8FFF7ABFEDDE90F
:101140000C704D4600268346207800070AD4AB4534
:1011500000DA5D4601A8012D04DD411911F8011CDA
:10116000302907D04F4502DA17F1040F04DA0120C5
:1011700082460FE06D1EEEE7002F02DCED1B3E44C1
:1011800003E0781CA84200DD7D1CB81B00F1010AB9
:101190004FF000472078000703D4AA4501DB4FF049
:1011A000FF3A0021B7F1004F0DF143088DF84310CD
:1011B00024D002202B23002F01DA7F422D230A2185
:1011C000021EA0F1010000DC5FB197FBF1FC97FB70
:1011D000F1F201FB1C7C17460CF1300C08F801CD34
:1011E000EEE7A8F1010003702188090501D545212A
:1011F00000E06521A0F1010800F8011C09980FA981
:10120000A1EB0807FF1D00B10120411901EBEA70B5
:10121000A1693844081A401EA0612078C00602D493
:101220002046FFF731FA099828B1D4E90121904707
:10123000206A401C20622078C00622D52046FFF795
:1012400023FA1EE0002E04DBB34502DD01A8805D19
:1012500000E03020D4E901219047206A401C206240
:10126000761CAAF101005FEA000A0AD100F026FA12
:10127000C0680168405CD4E901219047206A401CA5
:101280002062281EA5F10105DCDC07E0D4E901217C
:1012900018F8010B9047206A401C2062381EA7F105
:1012A0000107F3DC2046FFF705FA032011B041E601
:1012B0002DE9F04F04460D46D21D22F0070089B0FB
:1012C000D0E900974846394613F0F6FC0246F80F7D
:1012D00001D02D2307E02068810701D52B2302E0F0
:1012E000202101EAC0038DF820300BB1012000E07D
:1012F0000020032A824601D0072A04DB2946204623
:1013000000F0E0F93FE12078800601D40D2500E0EF
:10131000E569C7F30A560D2D49DA00214FEA175B3C
:1013200008464FF00000002F00F4400007DA00EB01
:1013300080004FF4400100EBD07001EA600081159D
:10134000012901DD4FF0FF3100224FEA850CBCF18D
:10135000180F06D31346ACF118004FF08052C2406C
:1013600003E04FF4801323FA0CF30CF10C0CBCF1E6
:10137000200F04D3ACF1200C09FA0CF001E007FABD
:101380000CF000294FF0004801DD18B90FE00ED134
:1013900040450CD319EB02095F4121B9404502D108
:1013A0009F4329EA0209BBEB175F00D0761C208817
:1013B000000502D57B48784402E07A487844193821
:1013C00008AA302302F80A30037C0AF10101002E3A
:1013D0000AF1020A53546A4602DC4FF0300101E080
:1013E0004FF031014FF001088DF8001002D0A6F245
:1013F000FF3603E059EA470100D06B4E002D02DCB6
:101400002178090704D54FF002082E218DF801102C
:10141000C44600210BE0C7F303433F01C35C491CF2
:101420006D1E02F80830052908F1010801DA002DC7
:10143000F1DC00210CE000EB1973491C1B786D1ED8
:10144000082902F808304FEA091908F1010801DA01
:10145000002DF0DC21688B0602D516E0A8F101080A
:10146000E04505DD02EB080313F8013C302BF5D015
:10147000B8F1000F09DD02EB080313F8013C2E2B35
:1014800003D1090701D4A8F10108002D05DD3E2193
:1014900002F808106D1E08F10108407C002E02F8C9
:1014A000080008F1010804DA2D20764202F808004D
:1014B00002E02B2002F808000A214FF47A708642DD
:1014C00008F101080BDB96FBF0F3303302F808302B
:1014D00096FBF0F308F1010800FB136601E0642EAF
:1014E0000CDB642096FBF0F3303302F8083096FBF7
:1014F000F0F308F1010800FB136601E00A2E06DB99
:1015000096FBF1F0303002F8080008F1010896FB74
:10151000F1F001FB1060303002F80800A16908F119
:10152000010808EB050202EB0A00081AA061207806
:10153000C00602D42046FFF7A7F8216A08AE01EBE7
:101540000A00206204E0D4E9012116F8010B90475B
:10155000BAF1010AF7D22078C00602D52046FFF77B
:1015600093F86E4609E016F8010B3E280FD0D4E937
:1015700001219047206A401C2062B8F10108F2D294
:101580002046FFF797F809B00320BDE8F08F206AE6
:101590002844206203E0D4E90121302090476D1EE9
:1015A000EBD3F8E78A3D010002FCFFFF10B5436969
:1015B00013B1AFF3008001E0FFF79FF8012010BDE9
:1015C000127800F124010A7000224A700122EDE72E
:1015D00011684FF0FF32E9E710B5436913B1AFF37B
:1015E000008001E0FFF732F9012010BD128800F100
:1015F000240182840022C2840122EDE711684FF0A9
:10160000FF32E9E7007B00F0800070472DE9F041F0
:1016100016460C46054600F049F8036893F80101A8
:10162000012807D0FF2C12D8185D80B101202C7042
:10163000BDE8F081D3F807013246214603F20713D3
:10164000C7182846BC46BDE8F041002360474FF06C
:10165000FF30EDE710B500F0F5F8BDE8104000F000
:10166000ECB87546FFF758FBAE4605006946534691
:1016700020F00700854618B020B5FEF763FEBDE8F0
:1016800020404FF000064FF000074FF000084FF0E9
:10169000000BAC46ACE8C009ACE8C009ACE8C00936
:1016A000ACE8C00921F007018D46704710B500F085
:1016B00005F8001D10BD00BF6D36010000487047E1
:1016C000580100202DE9F0411F4604460326016819
:1016D000072A01F4006004DB08B116A505E016A591
:1016E00003E008B115A500E015A521F01000206069
:1016F000A069C01EA0610FB1401EA0612046FEF788
:10170000C3FF4FB1D4E9012138469047206A401CFD
:101710002062C01C206206E0206AFAE7D4E90121B9
:1017200015F8010B9047761EF8D22046FEF7C2FF4F
:10173000BDE8F0814E414E006E616E00494E46009C
:10174000696E66002DE9F047814616468AB0354835
:1017500078440DC88DE80D0032487844801C03ACF5
:101760000DC884E80D0041F69B300844372190FBFA
:10177000F1F290FBF1F5A5F1800501FB12041B3C91
:1017800002D56442012000E00020DFF898A08046E6
:101790000027FA44AAF1BE0A0EE0E0070AD032465A
:1017A000684607EB470101230AEB810113F04DF96D
:1017B0008DE8070064107F1C002CEED1194F7F4488
:1017C000AE3F19E0E80715D007EB04100DF1180A39
:1017D00090E80E008AE80E00C068F04201D1981926
:1017E00008903246012306A903A813F02EF903AB93
:1017F00083E807006D10641C002DE3D14FF0010356
:1018000032466946B8F1000F03A802D013F008F978
:1018100001E013F01AF9C9E90001C9F808200AB07B
:10182000BDE8F087803A010010B50446AFF30080B0
:101830002046BDE81040FEF76EBD002801D010F034
:1018400019B8704710B5012805D0002103A000F099
:1018500021F8012010BD09A1F8E7000053494752C3
:10186000544D454D3A204F7574206F662068656170
:1018700070206D656D6F7279000000003A20486538
:101880006170206D656D6F727920636F7272757013
:101890007465640070B505460C460A2000E06D1CB6
:1018A0000FF0EEFF35B128780028F8D102E0641C73
:1018B0000FF0E6FF14B120780028F8D1BDE87040A1
:1018C0000A200FF0DDBF000030B44FF0013C50F8AB
:1018D000042B51F8043BCCFA52F4D51A20D1FCB9B0
:1018E00050F8042B51F8043BCCFA52F4D51A17D116
:1018F000B4B950F8042B51F8043BCCFA52F4D51A81
:101900000ED16CB950F8042B51F8043BCCFA52F4C8
:10191000D51A05D1002CDAD030BC4FF0000070474A
:1019200029BAB1FA81F111F01801D1F120008440F7
:10193000F2D1CA40CB4012F0FF0213F0FF0330BCDB
:10194000D01A7047B0B58AB013468C4686468DF8DB
:101950002700089107929DF827200898BDF81C10D1
:101960006C464FF6FF75C0F20F05A5606160206000
:1019700043F62000C2F20000A02101240693234672
:10198000CDF814C0CDF810E005F0E4FC03900AB0E7
:10199000B0BD000080B586B013468C4686460590E3
:1019A00004910392059804994FF47A7200FB021097
:1019B0000293CDF804C0CDF800E000F007F8BDF8C0
:1019C0000C0000F019F806B080BD000080B582B0B0
:1019D000014601900091FFE70198002809D0FFE738
:1019E0004FF47A7000F008F8FFE701980138019091
:1019F000F2E702B080BD000080B586B00146ADF8C8
:101A0000160043F67450C2F2000002686FF0010342
:101A10001361BDF81620C2F57A7292B203685A6259
:101A2000049108F035FF0390FFE743F67450C2F2CB
:101A3000000000680069C007002801D1FFE7F4E753
:101A400043F67450C2F20000029008F0C7FFDDF8C0
:101A500008E0DEF800106FF001020A61019006B0A4
:101A600080BD000080B582B001468DF807009DF86A
:101A70000700002800910AD0FFE740F20040C4F2BE
:101A800002004FF40041012205F0CEF909E040F2D6
:101A90000040C4F202004FF40041002205F0C4F9F6
:101AA000FFE702B080BD000080B582B0002000904A
:101AB000009900F067F9222000F0D4F90098ADF801
:101AC0000600FFE7BDF80600EF281CDCFFE700205A
:101AD000ADF80400FFE7BDF80400B0F5A07F0BDA15
:101AE000FFE74FF6FF7000F0AFF9FFE7BDF8040025
:101AF0000130ADF80400EEE7FFE7BDF80600013065
:101B0000ADF80600DEE702B080BD000080B582B00F
:101B1000014601900198009104F0DEFC02B080BD06
:101B200080B5002000F020F980BD000080B58EB0A7
:101B3000FFF7F6FF43F27C4EC2F2000EAEF8000053
:101B4000F020AEF804004FF4A070AEF80200BEF82A
:101B5000000049F2253E70450DD1FFE743F27C407D
:101B6000C2F20000063045F28C61C0F60101FEF7BA
:101B7000D5FC0D900CE043F27C40C2F20000063030
:101B800045F28361C0F60101FEF7C8FC0C90FFE747
:101B900043F27C40C2F20000008849F225318842BD
:101BA00040F0DA80FFE70A200B90FFF7AFFF01203B
:101BB0004FF480710A9000F063F902204FF4A061A5
:101BC00000F05EF9032041F23001099000F058F96D
:101BD00004200021089100F053F9082040F202216E
:101BE000079000F04DF90920089900F049F90B9889
:101BF000089900F045F90C20089900F041F90D20F2
:101C00000690089900F03CF90F20089900F038F987
:101C100010200590089900F033F911200721049055
:101C2000039100F02DF912200290089900F028F994
:101C300013200190089900F023F90398089900F007
:101C40001FF941F29061059800F01AF940F227213E
:101C5000049800F015F99D21029800F011F94FF455
:101C6000C851019800F00CF92920252100F008F94D
:101C70002B20069900F004F93020039900F000F9B8
:101C8000312040F2033100F0FBF83220099900F0D6
:101C9000F7F8352040F2062100F0F2F836200799D7
:101CA00000F0EEF8372040F2064100F0E9F8382065
:101CB0004FF4417100F0E4F83920039900F0E0F8A6
:101CC0003C2040F2026100F0DBF83D20079900F073
:101CD000D7F8EF2140F23F130898089A00F08AF8ED
:101CE00060204FF4274100F0CBF861200A9900F002
:101CF000C7F86A20089900F0C3F88020089900F01E
:101D0000BFF88120089900F0BBF88220089900F004
:101D1000B7F88320089900F0B3F88420089900F000
:101D2000AFF88520089900F0ABF89020059900F0F5
:101D3000A7F892204FF4C06100F0A2F840F23311EE
:101D4000039800F09DF8282000F032F8FFF7ACFE71
:101D50000A98FFF787FEFFE70EB080BD8020C6F629
:101D6000004000887047000080B582B00146ADF8A1
:101D70000600BDF80600009100F074F8FFF7EEFFD2
:101D800002B080BD80B584B00A460346ADF80E00AF
:101D9000ADF80C10BDF80E1020200292019300F057
:101DA0006FF8BDF80C10212000F06AF804B080BD77
:101DB00080B584B00146ADF80E0003200290019179
:101DC000FFF7D2FFADF80C00BDF80C0020F0380092
:101DD000ADF80C00BDF80E00BDF80C10084340F043
:101DE0008000ADF80C00BDF80C10029800F048F827
:101DF00004B080BDB0B586B09C4696460C460546FC
:101E0000ADF81600ADF81410ADF81220ADF8103092
:101E1000BDF816105020CDF80CC0CDF808E00194A4
:101E2000009500F02DF8BDF81410512000F028F8AE
:101E3000BDF81210522000F023F8BDF81010532006
:101E400000F01EF806B0B0BD82B00146ADF8060045
:101E5000BDF806008022C6F600421080009102B054
:101E60007047000082B00146ADF80600BDF80600DC
:101E70007E22C6F600421080009102B0704700003A
:101E800080B584B00A460346ADF80E00ADF80C10DC
:101E9000BDF80E0002920193FFF7E4FFBDF80C00BD
:101EA000FFF7D2FF04B080BD80B584B001468DF845
:101EB0000F009DF80F00024600280291019204D005
:101EC000FFE70198012809D011E041F20040C4F277
:101ED00002004FF4806104F075FF09E041F2004018
:101EE000C4F202004FF4007104F06CFF00E0FFE761
:101EF00004B080BD80B584B001460390039A43F2DC
:101F00008070C2F2000000234FF4963C0291194603
:101F1000634601F08DFC019004B080BD80B584B0B3
:101F200000204FF4C0014FF0C062029007F05EFA4B
:101F300000F084F80A2000F045F88DF80E000B2020
:101F400000F040F88DF80F009DF80E009DF80F107E
:101F500041EA002043F28C41C2F2000108601C20DB
:101F6000019100F02FF88DF80E001D2000F02AF8E6
:101F70008DF80F009DF80E009DF80F1041EA00202B
:101F8000019948600298ADF80C00FFE7BDF80C001D
:101F9000A52814D8FFE7BDF80C0045F20421C0F6CF
:101FA000010101EB400211F81000517800F050F8E7
:101FB000FFE7BDF80C000130ADF80C00E6E704B017
:101FC00080BD000080B584B001468DF80F000291FD
:101FD0000AF08AFC42200AF027FC002801D0FFE723
:101FE000FFE701200AF04EFB9DF80F000AF01CFCF1
:101FF000002801D0FFE7FFE7012001900AF042FB33
:102000000AF08CFC01980AF03DFB0AF06DFC4320BD
:102010000AF00AFC002801D0FFE7FFE701200AF0E0
:1020200031FB0AF05BFB8DF80E000AF037FB0AF07B
:1020300075FC9DF80E0004B080BD000080B5122034
:10204000802100F005F80A20FFF7C0FC80BD0000E9
:1020500080B584B00A4603468DF80F008DF80E1047
:10206000029201930AF040FC42200AF0DDFB0028B6
:1020700001D0FFE7FFE701200AF004FB9DF80F0005
:102080000AF0D2FB002801D0FFE7FFE701200AF0A9
:10209000F9FA9DF80E000AF0C7FB002801D0FFE70F
:1020A000FFE70AF03BFC04B080BD000080B582B0C1
:1020B00001468DF807009DF80700002800910AD01E
:1020C000FFE740F20040C4F202004FF480410122D9
:1020D00004F0AAFE09E040F20040C4F202004FF40E
:1020E0008041002204F0A0FEFFE702B080BD0000A6
:1020F00080B582B000F0DAF80020FFF7D7FFC720E4
:1021000000F0A6FA4FF0010E01907046FFF7CEFFE7
:1021100000F0CCF802B080BD80B586B001460590D5
:102120000598000B0590059800030590049100F0B8
:1021300011FB00F0BBF80020FFF7B8FF202000F0F3
:1021400087FA9DF816100390084600F081FA9DF872
:1021500015100290084600F07BFA9DF814100190CB
:10216000084600F075FA012100900846FFF79EFF2F
:1021700000F09CF806B080BD80B58AB001468DF8AD
:1021800027009DF827000028089103D0FFE7FFF7FC
:10219000AFFFFFE743F29840C2F200004FF48071B6
:1021A00001614FF480324261416202624FF480511A
:1021B000C16181614FF080718162079000F070FA17
:1021C000079AD160906000F0B5F80799086000F0B8
:1021D00079F807994860486843F21502C0F2EF02A7
:1021E000904206903FD0FFE744F21500C0F2EF00A6
:1021F000069981422AD0FFE744F21700C0F2EF00AF
:102200000699814215D0FFE744F21800C0F2EF00B2
:102210000699814234D1FFE743F29840C2F20000B0
:102220002C3045F27B61C0F60101FEF777F905908D
:1022300033E043F29840C2F200002C3045F26D6169
:10224000C0F60101FEF76AF9049026E043F29840D7
:10225000C2F200002C3045F26661C0F60101FEF7C3
:102260005DF9039019E043F29840C2F200002C306F
:1022700045F27461C0F60101FEF750F902900CE0DE
:1022800043F29840C2F200002C3045F28361C0F660
:102290000101FEF743F90190FFE7FF2000F0D8F9B4
:1022A0004FF0000E009070460AB080BD80B5FFE789
:1022B000012000F08DF9C007002801D0FFE7F7E703
:1022C00080BD000080B584B0FFF7F0FF4FF0000E36
:1022D0007046CDF808E0FFF7E9FE02988DF80E0091
:1022E000ADF80C009F2000F0B3F94FF0FF0E019005
:1022F0007046CDF800E000F0ABF98DF80C000098C6
:1023000000F0A6F98DF80D00009800F0A1F98DF805
:102310000E000120FFF7CAFEFFF7C8FF9DF80C0072
:102320009DF80DE09DF80E10000440EA0E200844D0
:1023300004B080BD80B588B00020ADF81E000690C6
:10234000FFF7B4FE902000F083F94FF0FF0E0590E8
:102350007046CDF810E000F07BF9DDF810E0039056
:10236000704600F075F9DDF818E00290704600F054
:102370006FF9DDF810E00190704600F069F98DF812
:102380001E00049800F064F98DF81F000120FFF78B
:102390008DFE9DF81E009DF81FE04EEA002008B05B
:1023A00080BD000080B58CB013468C4686460B90ED
:1023B0000A9109920998B0F5807F0893CDF81CC066
:1023C000CDF818E001D9FFE738E00B98000A0B9030
:1023D0000B9800020B9000F0BDF90020FFF766FE9D
:1023E000022000F035F99DF82EE00590704600F0CF
:1023F0002FF99DF82DE00490704600F029F99DF822
:102400002CE00390704600F023F90290FFE7099852
:1024100000280DD0FFE70A98007800F019F9019024
:10242000FFE70998013809900A9801300A90EEE711
:102430000120FFF73BFEFFF739FFFFE70CB080BD3F
:1024400080B58AB013468C4686460990089107925B
:102450000798B0F5805F0493CDF80CC0CDF808E084
:1024600001D9FFE754E00998000B0990099800038F
:102470000990099840F29811C2F200014FF480527D
:1024800000F068F80998FFF747FE00200690FFE784
:1024900006980799884210D2FFE7089800780699B5
:1024A00040F29812C2F200025054FFE70698013041
:1024B0000690089801300890EAE743F2D040C2F253
:1024C000000040F29811C2F2000101600020059066
:1024D000FFE705980F281BD8FFE7099843F2D04182
:1024E000C2F200010A684FF48073019111461A4646
:1024F000FFF758FF0198016801F5807101600999A3
:1025000001F580710991FFE7059801300590E0E73A
:102510000AB080BD80B582B0FF208DF80600684605
:102520006FF07F41016043F67C40C2F200000DF184
:1025300006010DF10702012307F02AFE002804D04E
:10254000FFE7FF208DF80700FFE79DF8070002B0C6
:1025500080BD000080B58AB013468C46864609903F
:102560000891079200200693CDF814C0CDF810E032
:10257000FFF79CFD032000F06BF89DF826100390F8
:10258000084600F065F89DF825100290084600F016
:102590005FF89DF824100190084600F059F800906B
:1025A000FFE7079800280ED0FFE7FFF7B3FFDDF83D
:1025B00020E08EF80000FFE70798013807900898A0
:1025C00001300890EDE70120FFF770FD0AB080BDF3
:1025D00080B586B001468DF8160000208DF81500F4
:1025E0000491FFF763FD9DF8160001460128039151
:1025F00008D0FFE70398022809D0FFE703980328D3
:102600000AD00EE0052000F023F8029010E03520FB
:1026100000F01EF801900BE0152000F019F8009072
:1026200006E00120FFF742FD00208DF817000BE0C7
:10263000FFF770FF8DF815000120FFF737FD9DF8BB
:1026400015008DF81700FFE79DF8170006B080BD54
:1026500080B584B001468DF80F009DF80F008DF80D
:102660000D0068466FF07F42026043F67C40C2F284
:1026700000000DF10D020DF10E034FF0010C02915F
:1026800011461A46634607F083FD002804D0FFE791
:10269000FF208DF80E00FFE79DF80E0004B080BD0E
:1026A00080B58CB0FFF702FE4FF0000E7046CDF8FB
:1026B00018E0FFF7FBFC06988DF82F0009900890B2
:1026C0004B20FFF7C5FF4FF0FF0E05907046CDF889
:1026D00010E0FFF7BDFFDDF810E003907046FFF754
:1026E000B7FFDDF810E002907046FFF7B1FFDDF8AC
:1026F00010E001907046FFF7ABFFDDF818E0CDF871
:102700001CE00090FFE70798072819DCFFE708980E
:102710000999090241EA1061000208900991FFF746
:10272000F9FE8DF82F00089809999DF82FE040EAEE
:102730000E0009910890FFE7079801300790E2E743
:102740000120FFF7B3FCFFF7B1FD089809990CB021
:1027500080BD000080B582B00020FFF7A7FC0620F6
:10276000FFF776FF4FF0010E01907046FFF79EFCD9
:1027700002B080BDFFE7FEE780B584B0014603905C
:102780000398806B02900298806B406D0228019143
:1027900005D0FFE70298012180F82510FFE7029895
:1027A00000F0B8FD04B080BD80B588B00146079048
:1027B000002006900798806B05900598806A002895
:1027C000049149D0FFE70598806B0068006800F429
:1027D000002006900598806AC00700281BD1FFE7FB
:1027E0000698002817D0FFE70598806B0068C0683E
:1027F00006900598816B069AC06A02EBC000002221
:1028000003900846039901F0FFF805998A6A013A96
:102810008A6202901FE00598806B006800680003E0
:10282000002817D4FFE70598806B006800690690C0
:102830000598816B069AC06A02EBC00001220190E4
:102840000846019901F0E0F805998A6A013A8A621E
:102850000090FFE7FFE727E00598806B00680068BD
:102860000003002806D5FFE70598416B806B0068E0
:10287000C16018E00598806B0068006800030028BC
:1028800010D4FFE70598406B069006980599C96A31
:1028900000EB81000599896B096808610598016B57
:1028A0008162FFE7FFE7FFE70598806A0599096BFA
:1028B000884213D1FFE705980068C16841F0010123
:1028C000C1600598006800688007002805D5FFE70B
:1028D0000598012180F82510FFE7FFE708B080BDCB
:1028E00080B543F28070C2F2000000F01FFD80BD91
:1028F00080B543F2C070C2F2000003F00BF980BD56
:1029000084B0014603900398007810384AF6AB2251
:10291000CAF6AA22A0FB020212090292029A45F20A
:102920005033C0F601039A5C039BDA65029A042ACD
:102930000191009007D3FFE703980168042262F336
:102940000901816506E00398016840F2FF32914376
:102950008165FFE70398806D04B0704787B001463A
:10296000069000208DF817000698806A049006985B
:1029700080690028039122D1FFE704980328029080
:102980001BD80299DFE801F0020D02180698C06A10
:10299000C001002804D5FFE701208DF81700FFE7EC
:1029A0000CE00698C06AB0F1C07F04D1FFE70120B7
:1029B0008DF81700FFE701E000E0FFE745E006982B
:1029C0008069B0F5005F25D1FFE7049803280190E6
:1029D0001ED80199DFE801F00206021101208DF8EE
:1029E000170016E00698C06AC001002804D5FFE76A
:1029F00001208DF81700FFE70BE00698C06AB0F1E0
:102A0000C07F04D1FFE701208DF81700FFE700E049
:102A1000FFE719E004980328009004D3FFE700982B
:102A2000032804D00EE001208DF817000BE0069873
:102A3000C06AC001002804D5FFE701208DF8170007
:102A4000FFE700E0FFE7FFE7FFE79DF8170007B0AB
:102A500070470000B0B588B09C4696460C460546C7
:102A600007900691059204930498079909684860B5
:102A7000079880684028CDF80CC0CDF808E0019494
:102A8000009509D1FFE705980799096888600698BD
:102A900007990968C86008E006980799096888607E
:102AA000059807990968C860FFE708B0B0BD000045
:102AB000B0B588B09C4696460C46054607900691F0
:102AC0000592049307980068016821F48021016051
:102AD0000498079909684860079880684028CDF8ED
:102AE0000CC0CDF808E00194009509D1FFE70598E6
:102AF000079909688860069807990968C86008E01E
:102B00000698079909688860059807990968C86058
:102B1000FFE708B0B0BD000070470000704700003C
:102B200080B584B00A460346039002910398029947
:102B30004FF0000C01926246009300F003F804B0DD
:102B400080BD000080B586B013468C468646059051
:102B500004918DF80F2001208DF80E0000208DF8D3
:102B60000D0043F2D440C2F20000407A00280293E4
:102B7000CDF804C0CDF800E026DCFFE743F2D440F6
:102B8000C2F20000417A002242540599437A00EBD8
:102B9000830359609DF80F10437A03441972417AF8
:102BA0004B1C43728DF80D109DF80D0030300499C8
:102BB000087004983A21417004982F21817004987C
:102BC000C2708DF80E20FFE79DF80E0006B080BDA4
:102BD000B0B58AB09C4696460C46054609900891C9
:102BE000079206930020059006980028CDF810C0A3
:102BF000CDF80CE00294019505D0FFE70698B0F5FA
:102C0000804F01D1FFE708E045F24170C0F60100B6
:102C100040F24F110EF03AFEFFE70698B0F5804FF4
:102C200040F0B680FFE7099840F20411CAF20001B3
:102C3000884201D1FFE708E045F24170C0F601008B
:102C400040F255110EF022FEFFE7089800680F28A9
:102C500001D8FFE708E045F24170C0F601004FF4EB
:102C6000AB710EF013FEFFE708984068002806D00D
:102C7000FFE7089840680F2801D8FFE708E045F211
:102C80004170C0F6010040F257110EF0FFFDFFE762
:102C900008988068002806D0FFE708988068FF2819
:102CA00001D8FFE708E045F24170C0F601004FF49B
:102CB000AC710EF0EBFDFFE70898C0680F2801D853
:102CC000FFE708E045F24170C0F6010040F25911FB
:102CD0000EF0DCFDFFE708988069002812D0FFE7BE
:102CE00008988069B0F1805F0CD0FFE70898806990
:102CF000B0F1005F06D0FFE708988069B0F1405F4F
:102D000001D1FFE708E045F24170C0F601004FF441
:102D1000AD710EF0BBFDFFE7079800280CD0FFE770
:102D20000798022808D0FFE70798042804D0FFE797
:102D30000798062801D1FFE708E045F24170C0F688
:102D4000010040F25B110EF0A1FDFFE70998079921
:102D500050F82100059005980021CCF6F07108404C
:102D600005900898016842688368D0F80CC041EA71
:102D7000021141EA032141EA0C41806908430599A7
:102D80000843059005980999079A41F8220006E042
:102D9000099807996FF0704240F82120FFE7002062
:102DA0000AB0B0BD80B586B00A46034605900491CE
:102DB000002003900598B0F1204F0292019301D1B9
:102DC000FFE707E045F24170C0F6010086210EF0F2
:102DD0005DFDFFE70498006800280FD0FFE7049826
:102DE000006802280AD0FFE704980068042805D08C
:102DF000FFE704980068062801D1FFE707E045F2E5
:102E00004170C0F6010087210EF040FDFFE70498F5
:102E10004068002805D0FFE704984068022801D1E7
:102E2000FFE707E045F24170C0F6010088210EF08F
:102E30002DFDFFE70498806800280AD0FFE704987A
:102E40008068042805D0FFE704988068082801D12D
:102E5000FFE707E045F24170C0F6010089210EF05E
:102E600015FDFFE70498C06800280AD0FFE7049822
:102E7000C068102805D0FFE70498C068202801D159
:102E8000FFE707E045F24170C0F601008A210EF02D
:102E9000FDFCFFE704980069002806D0FFE70498CE
:102EA0000069B0F5807F01D1FFE707E045F241708E
:102EB000C0F601008B210EF0E9FCFFE704984069A1
:102EC000002806D0FFE704984069B0F5007F01D1E3
:102ED000FFE707E045F24170C0F601008C210EF0DB
:102EE000D5FCFFE704988069002806D0FFE7049826
:102EF0008069B0F5806F01D1FFE707E045F24170CE
:102F0000C0F601008E210EF0C1FCFFE70498C069F5
:102F1000002806D0FFE70498C069B0F5006F01D122
:102F2000FFE707E045F24170C0F6010090210EF086
:102F3000ADFCFFE70498006A002806D0FFE704987C
:102F4000006AB0F5805F01D1FFE707E045F241700C
:102F5000C0F6010091210EF099FCFFE70498406A49
:102F6000002806D0FFE70498406AB0F5005F01D161
:102F7000FFE707E045F24170C0F6010092210EF034
:102F800085FCFFE70498806A002806D0FFE70498D4
:102F9000806AB0F5804F01D1FFE707E045F241704C
:102FA000C0F6010093210EF071FCFFE70498C06A9F
:102FB000002806D0FFE70498C06AB0F5004F01D1A1
:102FC000FFE707E045F24170C0F6010094210EF0E2
:102FD0005DFCFFE70498006B002806D0FFE704982B
:102FE000006BB0F5002F01D1FFE707E045F241701B
:102FF000C0F6010095210EF049FCFFE70498C06B74
:10300000002818D0FFE70498C06BB0F5803F12D0BD
:10301000FFE70498C06BB0F5003F0CD0FFE70498C1
:10302000C06BB0F5403F06D0FFE70498C06BB0F529
:10303000802F01D1FFE707E045F24170C0F60100A3
:1030400096210EF023FCFFE705980499096850F8D3
:103050002100039003988021CFF6F071084003907F
:10306000049841688268C368D0F810C011431943BE
:1030700041EA0C014269114382691143C26911435B
:10308000026A1143426A1143826A1143C26A1143C0
:10309000C26B1143006B08430399084303900498E3
:1030A0008068082805D1FFE7039840F040000390AE
:1030B000FFE703980599049A126841F8220000205E
:1030C00006B080BD80B588B013468C468646079012
:1030D00006910592002004900798B0F1204F0393C9
:1030E000CDF808C0CDF804E001D1FFE708E045F2D3
:1030F0004170C0F601004FF48C710EF0C7FBFFE782
:10310000069800680F2801D8FFE708E045F24170F3
:10311000C0F6010040F219110EF0B8FBFFE7069867
:103120004068002806D0FFE7069840680F2801D8BD
:10313000FFE708E045F24170C0F601004FF48D71E1
:103140000EF0A4FBFFE706988068002806D0FFE792
:1031500006988068FF2801D8FFE708E045F2417033
:10316000C0F6010040F21B110EF090FBFFE706983D
:10317000C0680F2801D8FFE708E045F24170C0F6AB
:1031800001004FF48E710EF081FBFFE70698006995
:10319000022806D3FFE706980069102801D8FFE748
:1031A00008E045F24170C0F6010040F21D110EF03A
:1031B0006DFBFFE706984069022806D3FFE70698F3
:1031C0004069112801D8FFE708E045F24170C0F6D8
:1031D00001004FF48F710EF059FBFFE706988069EC
:1031E000002812D0FFE706988069B0F1805F0CD00C
:1031F000FFE706988069B0F1005F06D0FFE7069808
:103200008069B0F1405F01D1FFE708E045F241700D
:10321000C0F6010040F21F110EF038FBFFE70598E1
:1032200000280CD0FFE70598022808D0FFE7059892
:10323000042804D0FFE70598062801D1FFE708E03D
:1032400045F24170C0F601004FF490710EF01EFB84
:10325000FFE70798059900EB810040680490049807
:1032600000F0404004900698016842688368D0F8F6
:103270000CC041EA021141EA032141EA0C41026912
:103280000023CFF6F07303EB025211434269FE3282
:1032900041EA026180690843049908430490049854
:1032A0000799059A01EB82014860002008B080BDB3
:1032B00080B584B047F61020C1F6FF700068039017
:1032C00047F61420C1F6FF700068029047F61820F8
:1032D000C1F6FF70006801900198039908440390BB
:1032E0000398002813D0FFE7039840F20011C2F2C0
:1032F00000018A1C0823009111461A4608F020FAA2
:10330000029800991231042208F01AFAFFE704B07B
:1033100080BD000082B001460190009102B070476C
:1033200082B001460190009102B0704780B586B02E
:1033300001460590059800680069049004984007CC
:103340000028039119D5FFE7059800680421416121
:103350000598C26B42F00202C263059880F82510FE
:103360000598806B42F27971C0F6000101650598FD
:10337000806B02F0ABFB0290FFE704988007002807
:103380001AD5FFE705980068022141610598C16BD5
:1033900041F00101C1630598042180F825100598CA
:1033A000806B42F27971C0F6000101650598806B6F
:1033B00002F08CFB0190FFE70498C006002808D5B6
:1033C000FFE70598006810214161059800F02EF98B
:1033D000FFE704980007002808D5FFE70598006874
:1033E00008214161059800F0EBFAFFE70498C00757
:1033F000002818D0FFE705980068006880070028BB
:1034000007D5FFE705980068C16821F01E01C1607B
:10341000FFE705980068C16821F00101C1600598C7
:10342000FFF77EFFFFE706B080BD000080B584B0E7
:103430000146029002980028019104D1FFE7012083
:103440008DF80F00EEE0029800680021C5F205013A
:10345000884201D1FFE707E045F20570C0F60100A0
:1034600059210EF013FAFFE702988068002805D072
:10347000FFE702988068202801D1FFE707E045F2C6
:103480000570C0F601005A210EF000FAFFE702981D
:10349000C068002805D0FFE70298C068802801D1E5
:1034A000FFE707E045F20570C0F601005B210EF072
:1034B000EDF9FFE702980069002805D0FFE70298C0
:1034C0000069402801D1FFE707E045F20570C0F62A
:1034D00001005C210EF0DAF9FFE70298406800284D
:1034E00005D0FFE702984068102801D1FFE707E008
:1034F00045F20570C0F601005D210EF0C7F9FFE747
:103500000298406900280CD0FFE702984069B0F5A6
:10351000807F06D0FFE702984069B0F5007F01D1B7
:10352000FFE707E045F20570C0F601005E210EF0EE
:10353000ADF9FFE702988069002812D0FFE70298F2
:103540008069B0F5806F0CD0FFE702988069B0F514
:10355000006F06D0FFE702988069B0F5406F01D197
:10356000FFE707E045F20570C0F601005F210EF0AD
:103570008DF9FFE70298006A002805D0FFE702985E
:10358000006A082801D1FFE707E045F20570C0F6A0
:10359000010060210EF07AF9FFE7029890F825000B
:1035A000002804D1FFE7029800F04EF8FFE70298E8
:1035B000022180F8251002980068016840F6F87230
:1035C000914301600298416902684368D0F808C0DD
:1035D000D0F80CE0194341EA0E010369194341EAAE
:1035E0000C0183691943006A08431168084310609D
:1035F00002984068102805D1FFE702980168C06969
:103600008861FFE702980068C16841F01E01C1604F
:1036100002980021C1630298012280F825208DF8CC
:103620000F10FFE79DF80F0004B080BD82B0014687
:10363000019043F6F450C2F20000026801320260C9
:10364000009102B07047000080B596B00146159019
:10365000002014901390129011901090159800680B
:103660000022C5F2050290420A9140F0DE80FFE799
:10367000FFE700200F9043F63400C4F20200016817
:1036800041F001010160006800F001000F900F9807
:103690000990FFE7FFE700200E9043F63000C4F2E8
:1036A0000200016841F010010160006800F01000A4
:1036B0000E900E980890FFE7FFE700200D9043F66C
:1036C0003000C4F20200016841F0010101600068AD
:1036D00000F001000D900D980790FFE7FFE7002034
:1036E0000C9043F63000C4F20200016841F004017E
:1036F0000160006800F004000C900C980690FFE751
:10370000FFE700200B9043F63000C4F2020001688E
:1037100041F002010160006800F002000B900B987C
:103720000590FFE770201090022011900021129167
:1037300013910D22149241F20003C4F202030DF121
:10374000400C04901846039161460292CDF804C0E3
:1037500002F068FF50201090049811900399129184
:103760001391029A14920020C4F20200019902F00F
:1037700059FF4FF4707010900498119003991291B2
:103780001391029A149240F60000C4F202000199CB
:1037900002F048FFC02010900498119003991291F4
:1037A0001391029A149240F20040C4F2020001996F
:1037B00002F038FF43F2C070C2F2000046F2284126
:1037C000C4F2020101604FF0007141600399816011
:1037D000C1604FF4806202614FF4805242614FF445
:1037E000804282614FF48072C2614FF40032026203
:1037F000416202F03BFB002803D0FFE7FFF78EF9A0
:10380000FFE7FFE7159843F2C071C2F20001816340
:1038100015988863FFE74E2001210022009004F0F4
:10382000DDF8009804F0C0F8FFE716B080BD000096
:10383000B0B58EB09C4696460C4605460C900B9152
:103840000A920993002008900B980028CDF81CC01C
:10385000CDF818E00594049504D0FFE70B980228F2
:1038600001D1FFE708E045F2CC60C0F601004FF45B
:10387000B1710EF00BF8FFE7FFE70C9890F8240009
:10388000012804D1FFE702208DF8370093E00C985F
:10389000012180F82410FFE7FFE70C98022180F84F
:1038A00025100C980068016841F4804101600C9873
:1038B0000068016821F0020101600B980C99096809
:1038C0000A68104308600C98806B42F2A971C0F638
:1038D0000001C1630C98806B42F27971C0F600015F
:1038E000C1640C98806B002101650C9881620C9872
:1038F0000163BDF8260000280AD1FFE70C98016893
:10390000806B28310A9A099B02F060FD039042E027
:103910000C98806B42F2A971C0F6000141640C98CA
:103920000121816209980C99C8620A980C99486330
:10393000FFE70C98C06AB0F5803F0BD3FFE70C9807
:10394000C06A40080C99C8620C98806A40000C99C3
:103950008862EEE70C98806A02380C9988620C98AD
:10396000806A0C9908630A980C99C96A00EB810077
:1039700008900C980168826B28310A9BDDF820C002
:10398000C06AEE46CEF8000010461A46634600F0C4
:103990005BF80290FFE70C980068016841F00101B4
:1039A0000160FFE70C98002180F82410FFE7002059
:1039B0008DF83700FFE79DF837000EB0B0BD00006E
:1039C00080B586B00146059043F2E040C2F20000A7
:1039D00002680132026043F6F452C2F20002136838
:1039E000006845F20B6CC0F6010C04906046039130
:1039F0001946049B02921A46FCF784FD0021029AA4
:103A00001160019006B080BD80B586B013468C462B
:103A10008646059004918DF80F209DF80F00002830
:103A20000293CDF804C0CDF800E005D1FFE704987B
:103A300005990968C86004E0049805990968086157
:103A4000FFE7002006B080BD70B5ADF5767DDDF8EE
:103A5000E8C39E4614460D460646F490F391F29252
:103A6000F19300208DF8C303FA980028CDF8BCC369
:103A7000CDF8B8E3ED94EC95EB9606D0FFE7BDF8F2
:103A8000EA03002801D1FFE707E045F6CB00C0F6C6
:103A90000100A0210DF0FAFEFFE7F498806880286D
:103AA00009D1FFE7F4984FF48071416501208DF84A
:103AB000D70302F005B8F498C06B00280AD0FFE7DE
:103AC000F498406C002805D0FFE7F498C06C0028FB
:103AD00008D1FFE7F4984021416501208DF8D70314
:103AE00001F0EEBFFFE7F49890F83400012805D10B
:103AF000FFE702208DF8D70301F0E2BFF49801211F
:103B000080F83410FFE7FFE7F49890F835000128BB
:103B100041F0C787FFE7F498022180F83510F49848
:103B200000214165F4980068016841F4802101603A
:103B3000F198F49909680861F498F399F29AFA9B5C
:103B4000FEF788FFF498006846F25941C4F202017A
:103B50008842C0F0BF80FFE7F498006846F2100189
:103B6000C4F20201884203D1FFE72020EA90AAE0D4
:103B7000F498006846F21041C4F20201884203D171
:103B8000FFE72020E9909BE0F498006846F270017E
:103B9000C4F20201884203D1FFE72020E8908CE0C4
:103BA000F498006846F27041C4F20201884203D1E1
:103BB000FFE72020E7907DE0F498006846F22801B6
:103BC000C4F20201884204D1FFE74FF40060E6909E
:103BD0006DE0F498006846F22841C4F20201884280
:103BE00004D1FFE74FF40060E5905DE0F4980068D1
:103BF00046F28801C4F20201884204D1FFE74FF483
:103C00000060E4904DE0F498006846F28841C4F208
:103C10000201884204D1FFE74FF40060E3903DE0E9
:103C2000F498006846F24001C4F20201884204D1CF
:103C3000FFE74FF40010E2902DE0F498006846F2A0
:103C40004041C4F20201884204D1FFE74FF4001062
:103C5000E1901DE0F498006846F2A001C4F2020170
:103C6000884204D1FFE74FF40010E0900DE0F49893
:103C7000006846F2A041C4F202014FF0006288429F
:103C800008BF4FF40012E092FFE7E098E190FFE7F1
:103C9000E198E290FFE7E298E390FFE7E398E49091
:103CA000FFE7E498E590FFE7E598E690FFE7E69800
:103CB000E790FFE7E798E890FFE7E898E990FFE7EB
:103CC000E998EA90FFE7EA9846F20C41C4F2020153
:103CD000086056E2F498006846F2B901C4F20201A5
:103CE0008842C0F0C080FFE7F498006846F21001F7
:103CF000C4F20201884203D1FFE72020DF90AAE04E
:103D0000F498006846F21041C4F20201884203D1DF
:103D1000FFE72020DE909BE0F498006846F27001F7
:103D2000C4F20201884203D1FFE72020DD908CE03D
:103D3000F498006846F27041C4F20201884203D14F
:103D4000FFE72020DC907DE0F498006846F228012F
:103D5000C4F20201884204D1FFE74FF40060DB9017
:103D60006DE0F498006846F22841C4F202018842EE
:103D700004D1FFE74FF40060DA905DE0F49800684A
:103D800046F28801C4F20201884204D1FFE74FF4F1
:103D90000060D9904DE0F498006846F28841C4F282
:103DA0000201884204D1FFE74FF40060D8903DE063
:103DB000F498006846F24001C4F20201884204D13E
:103DC000FFE74FF40010D7902DE0F498006846F21A
:103DD0004041C4F20201884204D1FFE74FF40010D1
:103DE000D6901DE0F498006846F2A001C4F20201EA
:103DF000884204D1FFE74FF40010D5900DE0F4980D
:103E0000006846F2A041C4F202014FF0006288420D
:103E100008BF4FF40012D592FFE7D598D690FFE780
:103E2000D698D790FFE7D798D890FFE7D898D99041
:103E3000FFE7D998DA90FFE7DA98DB90FFE7DB98A5
:103E4000DC90FFE7DC98DD90FFE7DD98DE90FFE790
:103E5000DE98DF90FFE7DF9846F20841C4F20201E6
:103E60000860D4908AE1F498006846F25901C4F2DF
:103E700002018842C0F0C080FFE7F498006846F273
:103E80001001C4F20201884203D1FFE72020D39041
:103E9000AAE0F498006846F21041C4F20201884298
:103EA00003D1FFE72020D2909BE0F498006846F20F
:103EB0007001C4F20201884203D1FFE72020D190B3
:103EC0008CE0F498006846F27041C4F20201884226
:103ED00003D1FFE72020D0907DE0F498006846F2FF
:103EE0002801C4F20201884204D1FFE74FF40060C8
:103EF000CF906DE0F498006846F22841C4F20201C8
:103F0000884204D1FFE74FF40060CE905DE0F49862
:103F1000006846F28801C4F20201884204D1FFE73A
:103F20004FF40060CD904DE0F498006846F288416F
:103F3000C4F20201884204D1FFE74FF40060CC9044
:103F40003DE0F498006846F24001C4F20201884264
:103F500004D1FFE74FF40010CB902DE0F4980068F7
:103F600046F24041C4F20201884204D1FFE74FF417
:103F70000010CA901DE0F498006846F2A001C4F257
:103F80000201884204D1FFE74FF40010C9900DE010
:103F9000F498006846F2A041C4F202014FF00062BA
:103FA000884208BF4FF40012C992FFE7C998CA902F
:103FB000FFE7CA98CB90FFE7CB98CC90FFE7CC986F
:103FC000CD90FFE7CD98CE90FFE7CE98CF90FFE75A
:103FD000CF98D090FFE7D098D190FFE7D198D290BA
:103FE000FFE7D298D390FFE7D39846F20C01C4F2D2
:103FF00002010860C890BEE0F498006846F2100123
:10400000C4F20201884203D1FFE72020C790AAE052
:10401000F498006846F21041C4F20201884203D1CC
:10402000FFE72020C6909BE0F498006846F27001FC
:10403000C4F20201884203D1FFE72020C5908CE042
:10404000F498006846F27041C4F20201884203D13C
:10405000FFE72020C4907DE0F498006846F2280134
:10406000C4F20201884204D1FFE74FF40060C3901C
:104070006DE0F498006846F22841C4F202018842DB
:1040800004D1FFE74FF40060C2905DE0F49800684F
:1040900046F28801C4F20201884204D1FFE74FF4DE
:1040A0000060C1904DE0F498006846F28841C4F287
:1040B0000201884204D1FFE74FF40060C0903DE068
:1040C000F498006846F24001C4F20201884204D12B
:1040D000FFE74FF40010BF902DE0F498006846F21F
:1040E0004041C4F20201884204D1FFE74FF40010BE
:1040F000BE901DE0F498006846F2A001C4F20201EF
:10410000884204D1FFE74FF40010BD900DE0F49811
:10411000006846F2A041C4F202014FF000628842FA
:1041200008BF4FF40012BD92FFE7BD98BE90FFE7B5
:10413000BE98BF90FFE7BF98C090FFE7C098C190BE
:10414000FFE7C198C290FFE7C298C390FFE7C3980A
:10415000C490FFE7C498C590FFE7C598C690FFE7F5
:10416000C698C790FFE7C79846F20801C4F202015B
:104170000860C890FFE7C898D490FFE7D498BC9037
:10418000FFE7F498006846F25941C4F20201884200
:10419000C0F0BF80FFE7F498006846F21001C4F257
:1041A0000201884203D1FFE71020BB90AAE0F498F7
:1041B000006846F21041C4F20201884203D1FFE7D1
:1041C0001020BA909BE0F498006846F27001C4F2A7
:1041D0000201884203D1FFE71020B9908CE0F498E7
:1041E000006846F27041C4F20201884203D1FFE741
:1041F0001020B8907DE0F498006846F22801C4F2DF
:104200000201884204D1FFE74FF48060B7906DE06F
:10421000F498006846F22841C4F20201884204D1B1
:10422000FFE74FF48060B6905DE0F498006846F2D6
:104230008801C4F20201884204D1FFE74FF4806094
:10424000B5904DE0F498006846F28841C4F202014E
:10425000884204D1FFE74FF48060B4903DE0F498C9
:10426000006846F24001C4F20201884204D1FFE72F
:104270004FF48010B3902DE0F498006846F240416E
:10428000C4F20201884204D1FFE74FF48010B290DB
:104290001DE0F498006846F2A001C4F202018842D1
:1042A00004D1FFE74FF48010B1900DE0F49800685E
:1042B00046F2A041C4F202014FF08062884208BF7A
:1042C0004FF48012B192FFE7B198B290FFE7B29835
:1042D000B390FFE7B398B490FFE7B498B590FFE7C9
:1042E000B598B690FFE7B698B790FFE7B798B89043
:1042F000FFE7B898B990FFE7B998BA90FFE7BA9886
:10430000BB90FFE7BB9846F20C41C4F20201086083
:1043100056E2F498006846F2B901C4F202018842FC
:10432000C0F0C080FFE7F498006846F21001C4F2C4
:104330000201884203D1FFE71020B090AAE0F49870
:10434000006846F21041C4F20201884203D1FFE73F
:104350001020AF909BE0F498006846F27001C4F220
:104360000201884203D1FFE71020AE908CE0F49860
:10437000006846F27041C4F20201884203D1FFE7AF
:104380001020AD907DE0F498006846F22801C4F258
:104390000201884204D1FFE74FF48060AC906DE0E9
:1043A000F498006846F22841C4F20201884204D120
:1043B000FFE74FF48060AB905DE0F498006846F250
:1043C0008801C4F20201884204D1FFE74FF4806003
:1043D000AA904DE0F498006846F28841C4F20201C8
:1043E000884204D1FFE74FF48060A9903DE0F49843
:1043F000006846F24001C4F20201884204D1FFE79E
:104400004FF48010A8902DE0F498006846F24041E7
:10441000C4F20201884204D1FFE74FF48010A79054
:104420001DE0F498006846F2A001C4F2020188423F
:1044300004D1FFE74FF48010A6900DE0F4980068D7
:1044400046F2A041C4F202014FF08062884208BFE8
:104450004FF48012A692FFE7A698A790FFE7A798CF
:10446000A890FFE7A898A990FFE7A998AA90FFE76E
:10447000AA98AB90FFE7AB98AC90FFE7AC98AD90F3
:10448000FFE7AD98AE90FFE7AE98AF90FFE7AF982B
:10449000B090FFE7B09846F20841C4F2020108600C
:1044A000A5908AE1F498006846F25901C4F202012D
:1044B0008842C0F0C080FFE7F498006846F210011F
:1044C000C4F20201884203D1FFE71020A490AAE0C1
:1044D000F498006846F21041C4F20201884203D108
:1044E000FFE71020A3909BE0F498006846F270016B
:1044F000C4F20201884203D1FFE71020A2908CE0B1
:10450000F498006846F27041C4F20201884203D177
:10451000FFE71020A1907DE0F498006846F22801A2
:10452000C4F20201884204D1FFE74FF48060A090FA
:104530006DE0F498006846F22841C4F20201884216
:1045400004D1FFE74FF480609F905DE0F49800682D
:1045500046F28801C4F20201884204D1FFE74FF419
:1045600080609E904DE0F498006846F28841C4F265
:104570000201884204D1FFE74FF480609D903DE046
:10458000F498006846F24001C4F20201884204D166
:10459000FFE74FF480109C902DE0F498006846F2FD
:1045A0004041C4F20201884204D1FFE74FF4801079
:1045B0009B901DE0F498006846F2A001C4F202014D
:1045C000884204D1FFE74FF480109A900DE0F498F0
:1045D000006846F2A041C4F202014FF080628842B6
:1045E00008BF4FF480129A92FFE79A989B90FFE7DA
:1045F0009B989C90FFE79C989D90FFE79D989E90CC
:10460000FFE79E989F90FFE79F98A090FFE7A098F4
:10461000A190FFE7A198A290FFE7A298A390FFE7DF
:10462000A398A490FFE7A49846F20C01C4F20201FB
:1046300008609990BEE0F498006846F21001C4F258
:104640000201884203D1FFE710209890AAE0F49875
:10465000006846F21041C4F20201884203D1FFE72C
:10466000102097909BE0F498006846F27001C4F225
:104670000201884203D1FFE7102096908CE0F49865
:10468000006846F27041C4F20201884203D1FFE79C
:10469000102095907DE0F498006846F22801C4F25D
:1046A0000201884204D1FFE74FF4806094906DE0EE
:1046B000F498006846F22841C4F20201884204D10D
:1046C000FFE74FF4806093905DE0F498006846F255
:1046D0008801C4F20201884204D1FFE74FF48060F0
:1046E00092904DE0F498006846F28841C4F20201CD
:1046F000884204D1FFE74FF4806091903DE0F49848
:10470000006846F24001C4F20201884204D1FFE78A
:104710004FF4801090902DE0F498006846F24041EC
:10472000C4F20201884204D1FFE74FF480108F9059
:104730001DE0F498006846F2A001C4F2020188422C
:1047400004D1FFE74FF480108E900DE0F4980068DC
:1047500046F2A041C4F202014FF08062884208BFD5
:104760004FF480128E92FFE78E988F90FFE78F981C
:104770009090FFE790989190FFE791989290FFE7D3
:1047800092989390FFE793989490FFE79498959070
:10479000FFE795989690FFE796989790FFE7979890
:1047A0009890FFE7989846F20801C4F20201086069
:1047B0009990FFE79998A590FFE7A5988D90FFE75E
:1047C000F498006846F25941C4F202018842C0F0F0
:1047D000BF80FFE7F498006846F21001C4F20201BE
:1047E000884203D1FFE708208C90AAE0F498006883
:1047F00046F21041C4F20201884203D1FFE70820CB
:104800008B909BE0F498006846F27001C4F20201BC
:10481000884203D1FFE708208A908CE0F498006872
:1048200046F27041C4F20201884203D1FFE708203A
:1048300089907DE0F498006846F22801C4F20201F4
:10484000884204D1FFE74FF4007088906DE0F4983F
:10485000006846F22841C4F20201884204D1FFE711
:104860004FF4007087905DE0F498006846F288018C
:10487000C4F20201884204D1FFE74FF40070869031
:104880004DE0F498006846F28841C4F20201884283
:1048900004D1FFE74FF4007085903DE0F498006884
:1048A00046F24001C4F20201884204D1FFE74FF40E
:1048B000002084902DE0F498006846F24041C4F254
:1048C0000201884204D1FFE74FF4002083901DE0ED
:1048D000F498006846F2A001C4F20201884204D1B3
:1048E000FFE74FF4002082900DE0F498006846F254
:1048F000A041C4F202014FF00072884208BF4FF499
:1049000000228292FFE782988390FFE78398849049
:10491000FFE784988590FFE785988690FFE7869863
:104920008790FFE787988890FFE788988990FFE74E
:1049300089988A90FFE78A988B90FFE78B988C90F4
:10494000FFE78C9846F20C41C4F20201086056E27F
:10495000F498006846F2B901C4F202018842C0F03E
:10496000C080FFE7F498006846F21001C4F202012B
:10497000884203D1FFE708208190AAE0F4980068FC
:1049800046F21041C4F20201884203D1FFE7082039
:1049900080909BE0F498006846F27001C4F2020136
:1049A000884203D1FFE708207F908CE0F4980068EC
:1049B00046F27041C4F20201884203D1FFE70820A9
:1049C0007E907DE0F498006846F22801C4F202016E
:1049D000884204D1FFE74FF400707D906DE0F498B9
:1049E000006846F22841C4F20201884204D1FFE780
:1049F0004FF400707C905DE0F498006846F2880106
:104A0000C4F20201884204D1FFE74FF400707B90AA
:104A10004DE0F498006846F28841C4F202018842F1
:104A200004D1FFE74FF400707A903DE0F4980068FD
:104A300046F24001C4F20201884204D1FFE74FF47C
:104A4000002079902DE0F498006846F24041C4F2CD
:104A50000201884204D1FFE74FF4002078901DE066
:104A6000F498006846F2A001C4F20201884204D121
:104A7000FFE74FF4002077900DE0F498006846F2CD
:104A8000A041C4F202014FF00072884208BF4FF407
:104A900000227792FFE777987890FFE778987990EF
:104AA000FFE779987A90FFE77A987B90FFE77B9809
:104AB0007C90FFE77C987D90FFE77D987E90FFE7F4
:104AC0007E987F90FFE77F988090FFE780988190A5
:104AD000FFE7819846F20841C4F20201086076902F
:104AE0008AE1F498006846F25901C4F20201884252
:104AF000C0F0C080FFE7F498006846F21001C4F2ED
:104B00000201884203D1FFE708207590AAE0F498DB
:104B1000006846F21041C4F20201884203D1FFE767
:104B2000082074909BE0F498006846F27001C4F28B
:104B30000201884203D1FFE7082073908CE0F498CB
:104B4000006846F27041C4F20201884203D1FFE7D7
:104B5000082072907DE0F498006846F22801C4F2C3
:104B60000201884204D1FFE74FF4007071906DE0BC
:104B7000F498006846F22841C4F20201884204D148
:104B8000FFE74FF4007070905DE0F498006846F223
:104B90008801C4F20201884204D1FFE74FF400709B
:104BA0006F904DE0F498006846F28841C4F202012B
:104BB000884204D1FFE74FF400706E903DE0F49816
:104BC000006846F24001C4F20201884204D1FFE7C6
:104BD0004FF400206D902DE0F498006846F24041BB
:104BE000C4F20201884204D1FFE74FF400206C9028
:104BF0001DE0F498006846F2A001C4F20201884268
:104C000004D1FFE74FF400206B900DE0F4980068AA
:104C100046F2A041C4F202014FF00072884208BF80
:104C20004FF400226B92FFE76B986C90FFE76C9853
:104C30006D90FFE76D986E90FFE76E986F90FFE7BD
:104C40006F987090FFE770987190FFE7719872907D
:104C5000FFE772987390FFE773987490FFE774987A
:104C60007590FFE7759846F20C01C4F202010860E6
:104C70006A90BEE0F498006846F21001C4F20201A6
:104C8000884203D1FFE708206990AAE0F498006801
:104C900046F21041C4F20201884203D1FFE7082026
:104CA00068909BE0F498006846F27001C4F202013B
:104CB000884203D1FFE7082067908CE0F4980068F1
:104CC00046F27041C4F20201884203D1FFE7082096
:104CD00066907DE0F498006846F22801C4F2020173
:104CE000884204D1FFE74FF4007065906DE0F498BE
:104CF000006846F22841C4F20201884204D1FFE76D
:104D00004FF4007064905DE0F498006846F288010A
:104D1000C4F20201884204D1FFE74FF400706390AF
:104D20004DE0F498006846F28841C4F202018842DE
:104D300004D1FFE74FF4007062903DE0F498006802
:104D400046F24001C4F20201884204D1FFE74FF469
:104D5000002061902DE0F498006846F24041C4F2D2
:104D60000201884204D1FFE74FF4002060901DE06B
:104D7000F498006846F2A001C4F20201884204D10E
:104D8000FFE74FF400205F900DE0F498006846F2D2
:104D9000A041C4F202014FF00072884208BF4FF4F4
:104DA00000225F92FFE75F986090FFE76098619054
:104DB000FFE761986290FFE762986390FFE763986E
:104DC0006490FFE764986590FFE765986690FFE759
:104DD00066986790FFE767986890FFE76898699022
:104DE000FFE7699846F20801C4F2020108606A9080
:104DF000FFE76A987690FFE776985E90FFE7F49871
:104E0000006846F25941C4F202018842C0F0BF80F6
:104E1000FFE7F498006846F21001C4F202018842EC
:104E200003D1FFE704205D90AAE0F498006846F201
:104E30001041C4F20201884203D1FFE704205C90D4
:104E40009BE0F498006846F27001C4F202018842C7
:104E500003D1FFE704205B908CE0F498006846F2F1
:104E60007041C4F20201884203D1FFE704205A9046
:104E70007DE0F498006846F22801C4F202018842FD
:104E800004D1FFE74FF4807059906DE0F49800680A
:104E900046F22841C4F20201884204D1FFE74FF4F0
:104EA000807058905DE0F498006846F28801C4F282
:104EB0000201884204D1FFE74FF4807057904DE023
:104EC000F498006846F28841C4F20201884204D195
:104ED000FFE74FF4807056903DE0F498006846F28A
:104EE0004001C4F20201884204D1FFE74FF4802060
:104EF00055902DE0F498006846F24041C4F202015A
:104F0000884204D1FFE74FF4802054901DE0F498CC
:104F1000006846F2A001C4F20201884204D1FFE712
:104F20004FF4802053900DE0F498006846F2A041C1
:104F3000C4F202014FF08072884208BF4FF4802211
:104F40005392FFE753985490FFE754985590FFE72A
:104F500055985690FFE756985790FFE75798589006
:104F6000FFE758985990FFE759985A90FFE75A98E9
:104F70005B90FFE75B985C90FFE75C985D90FFE7D4
:104F80005D9846F20C41C4F20201086056E2F498C2
:104F9000006846F2B901C4F202018842C0F0C08044
:104FA000FFE7F498006846F21001C4F2020188425B
:104FB00003D1FFE704205290AAE0F498006846F27B
:104FC0001041C4F20201884203D1FFE7042051904E
:104FD0009BE0F498006846F27001C4F20201884236
:104FE00003D1FFE7042050908CE0F498006846F26B
:104FF0007041C4F20201884203D1FFE704204F90C0
:105000007DE0F498006846F22801C4F2020188426B
:1050100004D1FFE74FF480704E906DE0F498006883
:1050200046F22841C4F20201884204D1FFE74FF45E
:1050300080704D905DE0F498006846F28801C4F2FB
:105040000201884204D1FFE74FF480704C904DE09C
:10505000F498006846F28841C4F20201884204D103
:10506000FFE74FF480704B903DE0F498006846F203
:105070004001C4F20201884204D1FFE74FF48020CE
:105080004A902DE0F498006846F24041C4F20201D3
:10509000884204D1FFE74FF4802049901DE0F49846
:1050A000006846F2A001C4F20201884204D1FFE781
:1050B0004FF4802048900DE0F498006846F2A0413B
:1050C000C4F202014FF08072884208BF4FF4802280
:1050D0004892FFE748984990FFE749984A90FFE7D0
:1050E0004A984B90FFE74B984C90FFE74C984D90B7
:1050F000FFE74D984E90FFE74E984F90FFE74F988F
:105100005090FFE750985190FFE751985290FFE779
:10511000529846F20841C4F20201086047908AE1C1
:10512000F498006846F25901C4F202018842C0F0C6
:10513000C080FFE7F498006846F21001C4F2020153
:10514000884203D1FFE704204690AAE0F498006863
:1051500046F21041C4F20201884203D1FFE7042065
:1051600045909BE0F498006846F27001C4F2020199
:10517000884203D1FFE7042044908CE0F498006853
:1051800046F27041C4F20201884203D1FFE70420D5
:1051900043907DE0F498006846F22801C4F20201D1
:1051A000884204D1FFE74FF4807042906DE0F4989C
:1051B000006846F22841C4F20201884204D1FFE7A8
:1051C0004FF4807041905DE0F498006846F28801E9
:1051D000C4F20201884204D1FFE74FF4807040908E
:1051E0004DE0F498006846F28841C4F2020188421A
:1051F00004D1FFE74FF480703F903DE0F4980068E1
:1052000046F24001C4F20201884204D1FFE74FF4A4
:1052100080203E902DE0F498006846F24041C4F2B0
:105220000201884204D1FFE74FF480203D901DE049
:10523000F498006846F2A001C4F20201884204D149
:10524000FFE74FF480203C900DE0F498006846F2B0
:10525000A041C4F202014FF08072884208BF4FF4AF
:1052600080223C92FFE73C983D90FFE73D983E90BE
:10527000FFE73E983F90FFE73F984090FFE7409858
:105280004190FFE741984290FFE742984390FFE743
:1052900043984490FFE744984590FFE7459846902F
:1052A000FFE7469846F20C01C4F2020108603B9009
:1052B000BEE0F498006846F21001C4F20201884290
:1052C00003D1FFE704203A90AAE0F498006846F280
:1052D0001041C4F20201884203D1FFE70420399053
:1052E0009BE0F498006846F27001C4F20201884223
:1052F00003D1FFE7042038908CE0F498006846F270
:105300007041C4F20201884203D1FFE704203790C4
:105310007DE0F498006846F22801C4F20201884258
:1053200004D1FFE74FF4807036906DE0F498006888
:1053300046F22841C4F20201884204D1FFE74FF44B
:10534000807035905DE0F498006846F28801C4F200
:105350000201884204D1FFE74FF4807034904DE0A1
:10536000F498006846F28841C4F20201884204D1F0
:10537000FFE74FF4807033903DE0F498006846F208
:105380004001C4F20201884204D1FFE74FF48020BB
:1053900032902DE0F498006846F24041C4F20201D8
:1053A000884204D1FFE74FF4802031901DE0F4984B
:1053B000006846F2A001C4F20201884204D1FFE76E
:1053C0004FF4802030900DE0F498006846F2A04140
:1053D000C4F202014FF08072884208BF4FF480226D
:1053E0003092FFE730983190FFE731983290FFE735
:1053F00032983390FFE733983490FFE73498359034
:10540000FFE735983690FFE736983790FFE73798F3
:105410003890FFE738983990FFE739983A90FFE7DE
:105420003A9846F20801C4F2020108603B90FFE797
:105430003B984790FFE747982F90FFE7F498006864
:1054400046F25941C4F202018842C0F0BB80FFE736
:10545000F498006846F21001C4F20201884203D1B8
:10546000FFE701202E90A6E0F498006846F2104174
:10547000C4F20201884203D1FFE701202D9097E09A
:10548000F498006846F27001C4F20201884203D128
:10549000FFE701202C9088E0F498006846F2704104
:1054A000C4F20201884203D1FFE701202B9079E08A
:1054B000F498006846F22801C4F20201884203D140
:1054C000FFE740202A906AE0F498006846F22841FD
:1054D000C4F20201884203D1FFE7402029905BE03B
:1054E000F498006846F28801C4F20201884203D1B0
:1054F000FFE7402028904CE0F498006846F288418D
:10550000C4F20201884203D1FFE7402027903DE02A
:10551000F498006846F24001C4F20201884204D1C6
:10552000FFE74FF4803026902DE0F498006846F2B3
:105530004041C4F20201884204D1FFE74FF48030B9
:1055400025901DE0F498006846F2A001C4F2020123
:10555000884204D1FFE74FF4803024900DE0F498A6
:10556000006846F2A041C4F202014FF48002884272
:1055700008BF4FF480322492FFE724982590FFE77C
:1055800025982690FFE726982790FFE727982890F0
:10559000FFE728982990FFE729982A90FFE72A98A3
:1055A0002B90FFE72B982C90FFE72C982D90FFE78E
:1055B0002D982E90FFE72E9846F20C41C4F202017E
:1055C00008604AE2F498006846F2B901C4F20201A8
:1055D0008842C0F0BC80FFE7F498006846F21001F2
:1055E000C4F20201884203D1FFE701202390A6E024
:1055F000F498006846F21041C4F20201884203D1D7
:10560000FFE70120229097E0F498006846F27001CD
:10561000C4F20201884203D1FFE70120219088E013
:10562000F498006846F27041C4F20201884203D146
:10563000FFE70120209079E0F498006846F2280105
:10564000C4F20201884203D1FFE740201F906AE0C4
:10565000F498006846F22841C4F20201884203D15E
:10566000FFE740201E905BE0F498006846F2880156
:10567000C4F20201884203D1FFE740201D904CE0B4
:10568000F498006846F28841C4F20201884203D1CE
:10569000FFE740201C903DE0F498006846F240018E
:1056A000C4F20201884204D1FFE74FF480301B901E
:1056B0002DE0F498006846F24041C4F202018842AD
:1056C00004D1FFE74FF480301A901DE0F498006891
:1056D00046F2A001C4F20201884204D1FFE74FF470
:1056E000803019900DE0F498006846F2A041C4F2B1
:1056F00002014FF48002884208BF4FF480321992B1
:10570000FFE719981A90FFE71A981B90FFE71B987C
:105710001C90FFE71C981D90FFE71D981E90FFE767
:105720001E981F90FFE71F982090FFE72098219078
:10573000FFE721982290FFE722982390FFE7239824
:1057400046F20841C4F202010860189082E1F49820
:10575000006846F25901C4F202018842C0F0BC80E0
:10576000FFE7F498006846F21001C4F20201884293
:1057700003D1FFE701201790A6E0F498006846F2F5
:105780001041C4F20201884203D1FFE701201690C4
:1057900097E0F498006846F27001C4F20201884272
:1057A00003D1FFE70120159088E0F498006846F2E5
:1057B0007041C4F20201884203D1FFE70120149036
:1057C00079E0F498006846F22801C4F202018842A8
:1057D00003D1FFE7402013906AE0F498006846F296
:1057E0002841C4F20201884203D1FFE74020129011
:1057F0005BE0F498006846F28801C4F20201884236
:1058000003D1FFE7402011904CE0F498006846F285
:105810008841C4F20201884203D1FFE74020109082
:105820003DE0F498006846F24001C4F2020188426B
:1058300004D1FFE74FF480300F902DE0F49800681A
:1058400046F24041C4F20201884204D1FFE74FF41E
:1058500080300E901DE0F498006846F2A001C4F27A
:105860000201884204D1FFE74FF480300D900DE033
:10587000F498006846F2A041C4F202014FF480029D
:10588000884208BF4FF480320D92FFE70D980E90CA
:10589000FFE70E980F90FFE70F981090FFE7109822
:1058A0001190FFE711981290FFE712981390FFE70D
:1058B00013981490FFE714981590FFE71598169029
:1058C000FFE716981790FFE7179846F20C01C4F20D
:1058D000020108600C90BAE0F498006846F21001EA
:1058E000C4F20201884203D1FFE701200B90A6E039
:1058F000F498006846F21041C4F20201884203D1D4
:10590000FFE701200A9097E0F498006846F27001E2
:10591000C4F20201884203D1FFE70120099088E028
:10592000F498006846F27041C4F20201884203D143
:10593000FFE70120089079E0F498006846F228011A
:10594000C4F20201884203D1FFE7402007906AE0D9
:10595000F498006846F22841C4F20201884203D15B
:10596000FFE7402006905BE0F498006846F288016B
:10597000C4F20201884203D1FFE7402005904CE0C9
:10598000F498006846F28841C4F20201884203D1CB
:10599000FFE7402004903DE0F498006846F24001A3
:1059A000C4F20201884204D1FFE74FF48030039033
:1059B0002DE0F498006846F24041C4F202018842AA
:1059C00004D1FFE74FF4803002901DE0F4980068A6
:1059D00046F2A001C4F20201884204D1FFE74FF46D
:1059E000803001900DE0F498006846F2A041C4F2C6
:1059F00002014FF48002884208BF4FF480320192C6
:105A0000FFE701980290FFE702980390FFE70398F1
:105A10000490FFE704980590FFE705980690FFE7DC
:105A200006980790FFE707980890FFE70898099005
:105A3000FFE709980A90FFE70A980B90FFE70B9899
:105A400046F20801C4F2020108600C90FFE70C98CE
:105A50001890FFE718980090FFE7F4980068016835
:105A600041F016010160F4980068416941F080013D
:105A70004161F498006C002805D1FFE7F498806C30
:105A8000002807D0FFE7F4980068016841F008019A
:105A90000160FFE7F4980068016841F001010160CE
:105AA00009E0FFE7F498002180F83410FFE70220B6
:105AB0008DF8C303FFE79DF8C3038DF8D703FFE715
:105AC0009DF8D7030DF5767D70BD000083B00146CB
:105AD0000190019890F835000228009107D0FFE767
