:020000040800F2
:10000000607E002029030008B9A00008858F000841
:10001000B5A000081D2900085DF6000800000000DA
:1000200000000000000000000000000055B80008BB
:10003000C52A00080000000051A50008B5B8000856
:100040004303000843030008430300084303000878
:100050004303000843030008C92A000843030008BB
:100060004303000843030008430300084303000858
:100070004303000843030008430300084303000848
:100080004303000843030008430300084303000838
:100090004303000843030008430300084303000828
:1000A0004303000843030008430300084303000818
:1000B0004303000843030008430300084303000808
:1000C00043030008430300084303000843030008F8
:1000D00043030008D9C20008430300084303000893
:1000E00043030008430300084303000843030008D8
:1000F00043030008430300084303000843030008C8
:1001000043030008430300084303000843030008B7
:1001100043030008430300084303000843030008A7
:100120004303000861290008430300084303000853
:100130004303000843030008430300084303000887
:100140004303000843030008430300083DA10008DF
:100150004303000843030008430300084303000867
:100160004303000843030008430300084303000857
:100170004303000843030008512900080000000061
:10018000430300084303000800F002F800F0BAF847
:100190000AA090E8000C82448344AAF10107DA45E2
:1001A00001D100F0AFF8AFF2090EBAE80F0013F07A
:1001B000010F18BFFB1A43F001031847003C010070
:1001C000203C01000A444FF0000C10F8013B13F0F2
:1001D000070408BF10F8014B1D1108BF10F8015BA0
:1001E000641E05D010F8016B641E01F8016BF9D193
:1001F00013F0080F1EBF10F8014BAD1C0C1B09D1EA
:100200006D1E58BF01F801CBFAD505E014F8016B5B
:1002100001F8016B6D1EF9D59142D6D370470000ED
:100220000023002400250026103A28BF78C1FBD8FF
:10023000520728BF30C148BF0B6070476E2900F0DD
:100240000583702900F05984662913F039816529E6
:1002500013F03681672913F03381612913F032815D
:1002600003681B0A28BF41F08001692900F0B282AF
:10027000642900F0AF82752900F0AC826F2900F08C
:10028000E783782900F02584E92900F08183E429B7
:1002900000F07E83F52900F07B83EF2900F0E483F2
:1002A000F82900F024840368DB0928BF41F08001AD
:1002B000632901F0FB81732901F00082E32901F039
:1002C0000B82F32901F01082002070471FB513F054
:1002D000EAF89DE8030000F0E5F901F065FA040092
:1002E0000020002112F00AFF401C60600020002165
:1002F00012F0EEFEE06000F015F88DE80F001FBD73
:1003000010B510BD01F023FA1146FFF7DFFF11F021
:100310001FFC01F0FFFA03B4FFF7F2FF03BC0FF07C
:100320000FFA000000F0EABC09488047094800477E
:10033000FEE7FEE7FEE7FEE7FEE7FEE7FEE7FEE795
:10034000FEE7FEE704480549054A064B70470000F2
:1003500091B9000889010008603E0020607E0020FD
:10036000605E0020605E0020704770B5064600F0B9
:100370007DF9056806F10B0020F00704B4429CBF2C
:10038000002070BD2B466A68BAB11068A04210D335
:1003900004F1080188423CBF5068586007D3516897
:1003A000101941601168091B016058601460101D2C
:1003B00070BD13465268002AE7D12146284600F056
:1003C0005DF90028DED170BD70B50446051F00F050
:1003D0004DF90068002C14BF446870BD002C18BF94
:1003E000AC423CBF20466468F8D301680A18AA42B0
:1003F00018BF456003D12A6805461144016028688A
:100400004119A1421CBF6C6070BD616869602168C0
:100410000844286070BD53EA020C00F069802DE9A1
:10042000F04B4FF00006002B1FBFB3FA83F503FA21
:1004300005F424FA05F65E4012BF1643B2FA82F5BF
:1004400002FA05F4C5F120051EBF22FA05FC44EAB4
:100450000C04203556EA044C4FEA144418BF641CBF
:100460004FF000084FF00009904271EB030C39D3B4
:10047000002919BFB1FA81F701FA07F6B0FA80F73F
:1004800000FA07F6C7F120071EBF20FA07FC46EA6C
:100490000C062037B6FBF4FCA7EB0507103F07F06E
:1004A0001F0BCBF120062CFA06F60CFA0BFB44BF0F
:1004B000B3460026202FA4BF5E464FF0000B5BEA38
:1004C000060C08BF4FF0010B19EB0B0948EB0608AF
:1004D000ABFB027C06FB02CC0BFB03CCC01B71EB1D
:1004E0000C01C1E70B46024641464846BDE8F08B89
:1004F00013B54FF000004FF00001AFF30080BDE8EE
:100500001C4070470FB4044910B503AA029800F0CC
:10051000CFF910BC5DF814FB2C3400200FB41CB5CF
:10052000084B06AA7B4469460090059800F0A7F99D
:1005300004460020694600F0B5F920461CBC5DF871
:1005400014FB00007D030000032A40F2308010F00D
:10055000030C00F0158011F8013BBCF1020F62445E
:1005600098BF11F801CB00F8013B38BF11F8013BEF
:10057000A2F1040298BF00F801CB38BF00F8013B9C
:1005800011F0030300F08883083AC0F0088051F8A6
:10059000043B083A51F804CBA0E80810F5E7121D17
:1005A0005CBF51F8043B40F8043BAFF30080D20736
:1005B00024BF11F8013B11F801CB48BF11F8012B02
:1005C00024BF00F8013B00F801CB48BF00F8012B25
:1005D00070474FF000020429C0F0128010F0030CA5
:1005E00000F01B80CCF1040CBCF1020F18BF00F826
:1005F000012BA8BF20F8022BA1EB0C0100F00DB8D5
:100600005FEAC17C24BF00F8012B00F8012B48BF32
:1006100000F8012B70474FF0000200B513469446D6
:100620009646203922BFA0E80C50A0E80C50B1F14A
:100630002001BFF4F7AF090728BFA0E80C5048BF5E
:100640000CC05DF804EB890028BF40F8042B08BFFC
:10065000704748BF20F8022B11F0804F18BF00F8F8
:10066000012B7047704770477047704700487047CC
:1006700040010020704770477047704738B5044606
:100680000A4600206946AFF30080002808BF38BD45
:1006900002460099204600F0BBFB012038BD012036
:1006A00001F04EB8F8B5AFF30080054600200C46C7
:1006B000102000BF0646A819A0420DD9324669464F
:1006C0000020AFF30080070008BF01F039F8009860
:1006D000A04218BF0546C419FFF7C8FF05600746CA
:1006E000F01D20F007004619284600F00AF8B44231
:1006F00008BFF8BDA21B31463868BDE8F84000F0DD
:1007000087BB00210160C0E90110704710207047CD
:1007100070B5044685690068C10601D5302600E041
:100720002026C00707D070BDD4E90121304690478C
:10073000206A401C20626D1EF6D570BD70B504465F
:1007400085690078C00707D170BDD4E90121202058
:100750009047206A401C20626D1EF6D570BD096866
:100760004A0501D540B27047C905FCD500B27047B3
:1007700009684A0501D5C0B27047C905FCD580B2E9
:10078000704770B50C460546012A05D028788006CA
:1007900000D5EA69002302E0012305E05B1C9342D7
:1007A00002D2E05C0028F9D1A869E618C01AA86155
:1007B000286A184428622846FFF7AAFF04E0D5E912
:1007C000012114F8010B9047B442F8D32846FFF7F3
:1007D000B5FF70BD2DE9F04106460024106875296B
:1007E000314616A510D0FFF7BAFF002802DA4042C2
:1007F00013A507E031688A0701D512A502E0490771
:1008000004D511A5012401E0FFF7B2FF00210A225F
:1008100006F1240709E0B0FBF2FCB0FBF2F302FBA7
:100820001C00303078541846491C0028F3D1234668
:100830002A463046BDE8F04100F049BB0000000008
:100840002D0000002B00000020000000116802684D
:10085000006A530501D508700AE0D30501D5088068
:1008600006E0130603D5C217C1E9000200E00860E4
:100870000120704701694A1C02610878704700B581
:100880008FB0CDE901310021059105497944CDE9C9
:1008900003101146684600F03BF90FB000BD0000A0
:1008A000E5FFFFFF0A6802F8010B0A6070470000CD
:1008B000074B70B50D467B44FFF7E1FF0446284621
:1008C00000F016FF10B14FF0FF3070BD204670BD34
:1008D0004B0E01002DE9FF5F15468A460446DFF8FE
:1008E000AC80F8440027D8E900103E46CDE900105E
:1008F00010E03AF816106A4602A800F0FDFE411C0E
:1009000007D02178890603D5E269391891420DD8BC
:100910000744761C2078800602D5E069B84205DDE0
:10092000AE42E6DB3AF816000028E2D1A069C01B0F
:10093000A0612046FFF7ECFED8E90010CDE90010D9
:10094000002017E03AF818106A4602A800F0D4FE1A
:10095000B0F1FF3F81460BD000250DF1080B05E0FB
:10096000D4E901211BF8050090476D1C4D45F7D3D4
:1009700008F10100B0428046E4DB206A384420627E
:100980002046FFF7DBFEBDE8FF9F0000E22B0100E1
:100990002DE9F0418046D21D22F007020025D2E960
:1009A0000002F52915A614D0011E72F1000106DA25
:1009B0000023D0EB030063EB020211A608E0D8F895
:1009C00000108B0701D50FA602E0490701D50EA63E
:1009D00001251146002408F1240704E000F032FA52
:1009E00030323A55641C50EA0102F7D12B463246A8
:1009F00021464046BDE8F04100F069BA0000000021
:100A00002D0000002B0000002000000030B4002169
:100A100000F1240408E002F00705D208303542EA6C
:100A20004372DB086554491C52EA0305F3D104689C
:100A3000002310A2250708D504F020040C4304D09D
:100A4000C46901230CA2641EC46130BC00F03FBA2B
:100A500010B5044621461068FFF78AFE024620467C
:100A6000BDE810400023D1E7D21D22F00701D1E9F3
:100A70000023CBE70000000030000000F0B40D467A
:100A80000188090502D5214C7C4402E01F4C7C44BE
:100A90000E34002100F1240608E002F00F071209CD
:100AA000E75D42EA03721B097754491C52EA0307C7
:100AB000F3D102780023120704D5702D06D009B1B6
:100AC000022311342246F0BC00F001BA0123103495
:100AD000F8E770B504460D4621461068FFF748FE5A
:100AE000024629462046BDE870400023C6E7D21DD5
:100AF00022F00703D3E90023C0E70368126843F03C
:100B0000200303600823C3610023B7E7442A0100E0
:100B10002DE9F05F894604464FF0000ADFF874B112
:100B2000FB44C0F820A02046E1688847002874D024
:100B3000252806D0D4E901219047206A401C206274
:100B4000F1E700265F462046E168884720280546F1
:100B500007DB312D05D2781910F8200C08B10643B7
:100B6000F1E7B00701D526F00406C4F81CA0002761
:100B7000C4F818A02A2D09D0284612F0A1FA38B3DB
:100B800004EB8708303DC8F8185019E059F8041BE9
:100B9000204604EB87029161E1688847012F0546F2
:100BA00018D1E069002820DA26F020061DE0D8F8E8
:100BB000180000EB800005EB40003038C8F8180042
:100BC0002046E1688847054612F07AFA0028EED1FF
:100BD000012F0AD02E2D08D12046E16888477F1CBE
:100BE0000546022F46F02006C4DBA069002803DA80
:100BF000404246F00106A061F00701D026F0100641
:100C00006C2D0BD0682D09D04C2D39D06A2D35D0E4
:100C1000742D35D07A2D33D016E038E0E1682F46B8
:100C200020468847B842054609D16C2F26D04FF49C
:100C30008060E168064320468847054604E06C2F43
:100C40001AD04FF4807006430DB3A5F14100192866
:100C500002D8203546F400664A46294620462660DA
:100C60004E46FFF7EBFA80B101280BD0F61D26F0B7
:100C7000070000F1080956E74020E4E78020D8E7A4
:100C80000020D6E706F104094DE7284652E7206A1E
:100C9000BDE8F09FD429010010B5203AC0F00B80C8
:100CA000B1E81850A0E81850B1E81850A0E8185062
:100CB000203ABFF4F5AF5FEA027C24BFB1E81850D8
:100CC000A0E8185044BF18C918C0BDE810405FEA3A
:100CD000827C24BF51F8043B40F8043B08BF7047B6
:100CE000D20728BF31F8023B48BF11F8012B28BFBB
:100CF00020F8023B48BF00F8012B70472DE9FE4F5A
:100D000000274FF48074BA4620468DF80070FFF734
:100D10002CFB5FEA000801D100F012FD214640469D
:100D20000EF008FD060009D04FF0010B4546C14604
:100D300016F8014B8FB15C2C16D01CE008F10800AE
:100D40004146C8F800000020C8F80400D8F8004068
:100D50002070012003B0BDE8F08F222C01D0272C99
:100D60000FD12746BA462CE03078222807D05C28DD
:100D700005D0272803D0BC4203D1002721E0761CF0
:100D800004464CB12FB9202C06D0A4F10900042848
:100D900002D905F8014BCBE74D4502D1BAF1000F5E
:100DA0000FD052464946002005F8010B6846AFF3C4
:100DB00000809DF8000068B14D464FF0000A0BF12D
:100DC000010B002CB4D14FEA8B00FFF7CEFA0400E0
:100DD00002D004E0A946F0E7002000F0B1FC0026B4
:100DE0004046C4F8008005E010F8011B11B9761CDC
:100DF00044F82600A842F7D32146002044F82600F4
:100E00003046A7E700487047380100207047704718
:100E1000034640688C46002818BF88423CBF034602
:100E20004068F8D318681844884207D00CF10300D2
:100E300020F00700001D411A521A0146081D0A60E1
:100E4000FFF7C2BA30B5B0F10A0271F100034FEA00
:100E5000900E4EEA817EB0EB0E0061EB91014FEAFD
:100E6000101E4EEA017E10EB0E0041EB11114FEA0D
:100E7000102E4EEA016E10EB0E0041EB11214FEAED
:100E8000104E4EEA014E10EB0E0041EB114140189E
:100E900041F100014FEAD00040EA41704FEAD10130
:100EA0004FEA810444EA907410EB800544EB01049E
:100EB0006D1944EB0404521BA3414FF0000348BFDB
:100EC0000A3200D530BD401C41F1000130BD2DE992
:100ED000F0470D4699469246044600F12408016801
:100EE000880604D5E06921F01001216000E00120AE
:100EF000A84201DD471B00E00027A1697A1902EB37
:100F00000900081AA0612078C00602D42046FFF725
:100F1000FFFB002608E0D4E901211AF806009047FB
:100F2000206A401C761C20624E45F4DB2078C00607
:100F30000AD52046FFF7ECFB06E0D4E9012130207A
:100F40009047206A401C2062381EA7F10107F4DC9C
:100F500007E0D4E9012118F805009047206A401CF9
:100F60002062281EA5F10105F3DC2046FFF7E6FB11
:100F70002078000602D50220BDE8F0870120FBE7BB
:100F80002DE9FF4F0C461E464FF0FF378BB0D2E9DC
:100F90000001DDF860800A908A46C1F30A5505B960
:100FA0003D46002108464FF00000BAF1000F00F462
:100FB000400005DA00EB80004FF4400101EA5000E8
:100FC0004FEA9059B9F1010F00DDB9460A9850EA8D
:100FD0004A000ED044F61050A5F2FF3545432F14B9
:100FE000B8F1000F1ED07542291E1EDDC9F10002A6
:100FF0001CE0B8F1010F4FF0000001D0302103E0F8
:10100000F24305E02154401CB042FBDB3046002295
:10101000002121540B99C1F80880C1E900200FB0CC
:10102000BDE8F08FBD1B6D1CDEE74A4600DA694261
:1010300006A800F0FDFB06AB93E8070003AB83E8CE
:10104000070050460A9911F05BFC8DE80700A0F5F7
:1010500000501F3800900398002D0ADD42F21F0156
:101060004A460844002303A90390684611F0C4FED1
:1010700009E0A0F500504A461F38002303A9039059
:10108000684611F0CEFE8DE807000004000C03D086
:101090004FF0FF30410800E01046B8F1000F03D0D8
:1010A0000022009215461EE0751E05D4FFF7CAFE09
:1010B000303262556D1EF9D5B3460122084302D085
:1010C00000227F1C04E02078302801D100227F1EFE
:1010D000002A099784D01DE0112D07DAFFF7B2FE30
:1010E000303262556D1C50EA0102F5D1084302D03E
:1010F0000098C8B10EE00021681E05E0235C625C28
:1011000063542254401E491C8142F7DBAB46A81BA6
:10111000401E0990002004F80B000B98099AC0F8B3
:101120000880C0E9002B7AE711264FF0000857E746
:101130002DE9F04F88460446D21D22F0070191B0F8
:10114000D1E90001CDE90A0111F0A2FF02460B9896
:10115000C00F01D02D2007E02068810701D52B208A
:1011600002E0202101EAC000032A099001D0072AE9
:1011700005DB03464146204600F01AFB0BE12078D0
:10118000800601D5E06900E00620B8F1650F8146D0
:1011900006D0B8F1660F18D0B8F1670F70D131E002
:1011A0000020B9F1110F009001DB112301E009F1DA
:1011B00001030AAA01A90CA8FFF7E2FEDDE90C7001
:1011C000002609F10105834647E001204B460090C7
:1011D0004FF000470AAA01A90CA8FFF7D1FEDDE9EC
:1011E0000DB00C995D46002610B909F101000D18EB
:1011F000B9EB050003D4C0F1FF3609F10105A5EBF9
:1012000009002BE0B9F1010F01DA4FF001090020CC
:10121000B9F1110F0090484601DD112300E00346AB
:101220000AAA01A90CA8FFF7ABFEDDE90C704D4638
:1012300000268346207800070AD4AB4500DA5D46D5
:1012400001A8012D04DD411911F8011C302907D036
:101250004F4502DA17F1040F04DA012082460FE04D
:101260006D1EEEE7002F02DCED1B3E4403E0781C10
:10127000A84200DD7D1CB81B00F1010A4FF00047B9
:101280002078000703D4AA4501DB4FF0FF3A002184
:10129000B7F1004F0DF143088DF8431024D0022020
:1012A0002B23002F01DA7F422D230A21021EA0F1F9
:1012B000010000DC5FB197FBF1FC97FBF1F201FB51
:1012C0001C7C17460CF1300C08F801CDEEE7A8F1B4
:1012D000010003702188090501D5452100E0652141
:1012E000A0F1010800F8011C09980FA9A1EB08075B
:1012F000FF1D00B10120411901EBEA70A1693844DA
:10130000081A401EA0612078C00602D42046FFF7CC
:10131000FFF9099828B1D4E901219047206A401CBF
:1013200020622078C00622D52046FFF7F1F91EE0A2
:10133000002E04DBB34502DD01A8805D00E0302013
:10134000D4E901219047206A401C2062761CAAF152
:1013500001005FEA000A0AD100F026FAC0680168BD
:10136000405CD4E901219047206A401C2062281E7D
:10137000A5F10105DCDC07E0D4E9012118F8010B37
:101380009047206A401C2062381EA7F10107F3DC59
:101390002046FFF7D3F9032011B041E62DE9F04FC5
:1013A00004460D46D21D22F0070089B0D0E900970F
:1013B0004846394611F06CFE0246F80F01D02D2345
:1013C00007E02068810701D52B2302E0202101EAF4
:1013D000C0038DF820300BB1012000E00020032A6B
:1013E000824601D0072A04DB2946204600F0E0F9B6
:1013F0003FE12078800601D40D2500E0E569C7F3C0
:101400000A560D2D49DA00214FEA175B08464FF0C6
:101410000000002F00F4400007DA00EB80004FF4DA
:10142000400100EBD07001EA60008115012901DD67
:101430004FF0FF3100224FEA850CBCF1180F06D3A4
:101440001346ACF118004FF08052C24003E04FF455
:10145000801323FA0CF30CF10C0CBCF1200F04D315
:10146000ACF1200C09FA0CF001E007FA0CF00029AD
:101470004FF0004801DD18B90FE00ED140450CD304
:1014800019EB02095F4121B9404502D19F4329EA86
:101490000209BBEB175F00D0761C2088000502D53F
:1014A0007B48784402E07A487844193808AA302307
:1014B00002F80A30037C0AF10101002E0AF1020A47
:1014C00053546A4602DC4FF0300101E04FF0310125
:1014D0004FF001088DF8001002D0A6F2FF3603E0AD
:1014E00059EA470100D06B4E002D02DC2178090734
:1014F00004D54FF002082E218DF80110C4460021BA
:101500000BE0C7F303433F01C35C491C6D1E02F8A7
:101510000830052908F1010801DA002DF1DC00216D
:101520000CE000EB1973491C1B786D1E082902F8AA
:1015300008304FEA091908F1010801DA002DF0DC42
:1015400021688B0602D516E0A8F10108E04505DD0B
:1015500002EB080313F8013C302BF5D0B8F1000F73
:1015600009DD02EB080313F8013C2E2B03D1090718
:1015700001D4A8F10108002D05DD3E2102F8081074
:101580006D1E08F10108407C002E02F8080008F1E9
:10159000010804DA2D20764202F8080002E02B2030
:1015A00002F808000A214FF47A70864208F1010817
:1015B0000BDB96FBF0F3303302F8083096FBF0F3C8
:1015C00008F1010800FB136601E0642E0CDB6420C7
:1015D00096FBF0F3303302F8083096FBF0F308F195
:1015E000010800FB136601E00A2E06DB96FBF1F012
:1015F000303002F8080008F1010896FBF1F001FB19
:101600001060303002F80800A16908F1010808EB09
:10161000050202EB0A00081AA0612078C00602D475
:101620002046FFF775F8216A08AE01EB0A00206238
:1016300004E0D4E9012116F8010B9047BAF1010A40
:10164000F7D22078C00602D52046FFF761F86E4633
:1016500009E016F8010B3E280FD0D4E9012190478C
:10166000206A401C2062B8F10108F2D22046FFF740
:1016700065F809B00320BDE8F08F206A2844206295
:1016800003E0D4E90121302090476D1EEBD3F8E749
:101690007620010002FCFFFF10B5436913B1AFF3E0
:1016A000008001E0FFF76DF8012010BD127800F115
:1016B00024010A7000224A700122EDE711684FF000
:1016C000FF32E9E710B5436913B1AFF3008001E0E1
:1016D000FFF700F9012010BD128800F12401828477
:1016E0000022C2840122EDE711684FF0FF32E9E7E2
:1016F000007B00F0800070472DE9F04116460C4653
:10170000054600F049F8036893F80101012807D065
:10171000FF2C12D8185D80B101202C70BDE8F0813B
:10172000D3F807013246214603F20713C7182846AB
:10173000BC46BDE8F041002360474FF0FF30EDE7C5
:1017400010B500F0F5F8BDE8104000F0ECB87546B3
:10175000FFF758FBAE4605006946534620F00700E8
:10176000854618B020B5FEF7EDFDBDE820404FF0EE
:1017700000064FF000074FF000084FF0000BAC469A
:10178000ACE8C009ACE8C009ACE8C009ACE8C009E5
:1017900021F007018D46704710B500F005F8001DD7
:1017A00010BD00BF591901000048704758010020C2
:1017B0002DE9F0411F46044603260168072A01F47B
:1017C000006004DB08B116A505E016A503E008B12A
:1017D00015A500E015A521F010002060A069C01E2D
:1017E000A0610FB1401EA0612046FEF791FF4FB1EE
:1017F000D4E9012138469047206A401C2062C01C71
:10180000206206E0206AFAE7D4E9012115F8010B0D
:101810009047761EF8D22046FEF790FFBDE8F08193
:101820004E414E006E616E00494E4600696E660084
:101830002DE9F047814616468AB0354878440DC8F0
:101840008DE80D0032487844801C03AC0DC884E854
:101850000D0041F69B300844372190FBF1F290FBDC
:10186000F1F5A5F1800501FB12041B3C02D5644291
:10187000012000E00020DFF898A080460027FA440D
:10188000AAF1BE0A0EE0E0070AD03246684607EB2E
:10189000470101230AEB810111F0C3FA8DE807002B
:1018A00064107F1C002CEED1194F7F44AE3F19E02D
:1018B000E80715D007EB04100DF1180A90E80E00A8
:1018C0008AE80E00C068F04201D1981908903246AB
:1018D000012306A903A811F0A4FA03AB83E80700CB
:1018E0006D10641C002DE3D14FF0010332466946B0
:1018F000B8F1000F03A802D011F07EFA01E011F058
:1019000090FAC9E90001C9F808200AB0BDE8F087DB
:101910006C1D010010B50446AFF300802046BDE801
:101920001040FEF7F8BC002801D00DF009BF704749
:1019300010B5012805D0002103A000F021F80120F6
:1019400010BD09A1F8E7000053494752544D454DD9
:101950003A204F7574206F662068656170206D6550
:101960006D6F7279000000003A2048656170206D4B
:10197000656D6F727920636F727275707465640043
:1019800070B505460C460A2000E06D1C0DF0DEFE29
:1019900035B128780028F8D102E0641C0DF0D6FE9D
:1019A00014B120780028F8D1BDE870400A200DF06D
:1019B000CDBE00000000000030B44FF0013C50F8F4
:1019C000042B51F8043BCCFA52F4D51A20D1FCB9BF
:1019D00050F8042B51F8043BCCFA52F4D51A17D125
:1019E000B4B950F8042B51F8043BCCFA52F4D51A90
:1019F0000ED16CB950F8042B51F8043BCCFA52F4D8
:101A0000D51A05D1002CDAD030BC4FF00000704759
:101A100029BAB1FA81F111F01801D1F12000844006
:101A2000F2D1CA40CB4012F0FF0213F0FF0330BCEA
:101A3000D01A7047B0B58AB013468C4686468DF8EA
:101A40002700089107929DF827200898BDF81C10E0
:101A50006C464FF6FF75C0F20F05A560616020600F
:101A600043F62400C2F20000A0210124069323467D
:101A7000CDF814C0CDF810E003F014FB03900AB0C9
:101A8000B0BD000080B586B013468C4686460590F2
:101A900004910392059804994FF47A7200FB0210A6
:101AA0000293CDF804C0CDF800E000F007F8BDF8CF
:101AB0000C0000F019F806B080BD000080B582B0BF
:101AC000014601900091FFE70198002809D0FFE747
:101AD0004FF47A7000F008F8FFE7019801380190A0
:101AE000F2E702B080BD000080B586B00146ADF8D7
:101AF000160043F6D050C2F2000002686FF00103F6
:101B00001361BDF81620C2F57A7292B203685A6268
:101B1000049106F0D3FD0390FFE743F6D050C2F2E4
:101B2000000000680069C007002801D1FFE7F4E762
:101B300043F6D050C2F20000029006F065FEDDF8D8
:101B400008E0DEF800106FF001020A61019006B0B3
:101B500080BD000080B582B001468DF807009DF879
:101B60000700002800910AD0FFE740F20040C4F2CD
:101B700002004FF48051002202F0FEFF09E040F223
:101B80000040C4F202004FF48041012202F0F4FF51
:101B9000FFE702B080BD000080B584B001468DF83B
:101BA0000F0000208DF80E0068464FF0FF320260F3
:101BB00043F6D840C2F200000DF10F020DF10E0302
:101BC0004FF0010C029111461A46634606F0F6F9F1
:101BD0009DF80E100190084604B080BD80B582B01B
:101BE00001468DF807009DF80700002800910AD0F3
:101BF000FFE740F20040C4F202004FF4004101222E
:101C000002F0BAFF09E040F20040C4F202004FF4D3
:101C10000041002202F0B0FFFFE702B080BD0000EB
:101C200080B582B000200090009900F08FF922204A
:101C300000F0FCF90098ADF80600FFE7BDF80600DB
:101C4000EF281CDCFFE70020ADF80400FFE7BDF83B
:101C50000400B0F5A07F0BDAFFE74FF6FF7000F04D
:101C6000D7F9FFE7BDF804000130ADF80400EEE756
:101C7000FFE7BDF806000130ADF80600DEE702B070
:101C800080BD000080B582B00146019001980091AE
:101C900002F09EFA02B080BD80B586B00146059084
:101CA0000598049000200290029A0191114600F0DC
:101CB0004DF9222000F0BAF902980390FFE703984B
:101CC000800A4A280BD8FFE70498039930F81100DE
:101CD00000F09EF9FFE7039801300390EFE706B0AC
:101CE00080BD000080B5002000F022F980BD00001A
:101CF00080B58EB0FFF7F6FF43F2804EC2F2000EC1
:101D0000AEF80000F020AEF804004FF4A070AEF87A
:101D10000200BEF8000049F2253E70450DD1FFE7F4
:101D200043F28040C2F20000063043F6FA21C0F6CA
:101D30000101FEF7F3FB0D900CE043F28040C2F28C
:101D40000000063043F6F121C0F60101FEF7E6FB84
:101D50000C90FFE743F28040C2F20000008849F295
:101D60002531884240F0DB80FFE70A200B90FFF727
:101D700089FF01204FF480710A9000F065F902207C
:101D80004FF4A06100F060F9032041F230010990A6
:101D900000F05AF904200021089100F055F90820BC
:101DA00040F20221079000F04FF90920089900F055
:101DB0004BF90B98089900F047F90C20089900F0AE
:101DC00043F90D200690089900F03EF90F2008997C
:101DD00000F03AF910200590089900F035F911202B
:101DE00007210490039100F02FF912200290089926
:101DF00000F02AF913200190089900F025F90398C2
:101E0000089900F021F941F29061059800F01CF961
:101E100040F22721049800F017F99D21029800F064
:101E200013F94FF4C851019800F00EF9292025212B
:101E300000F00AF92B20069900F006F930200399EA
:101E400000F002F9312040F2033100F0FDF83220B9
:101E5000099900F0F9F8352040F2062100F0F4F875
:101E60003620079900F0F0F8372040F2064100F0E4
:101E7000EBF838204FF44171009000F0E5F839207C
:101E8000039900F0E1F83C2040F2026100F0DCF838
:101E90003D20079900F0D8F8EF2140F23F13089851
:101EA000089A00F08BF860204FF4274100F0CCF83E
:101EB00061200A9900F0C8F86A20089900F0C4F877
:101EC0008020089900F0C0F88120089900F0BCF843
:101ED0008220089900F0B8F88320089900F0B4F83F
:101EE0008420089900F0B0F88520089900F0ACF83B
:101EF0009020059900F0A8F892204FF4C06100F0FE
:101F0000A3F840F23311039800F09EF8009800F017
:101F100033F8FFF785FE0A98FFF760FEFFE70EB083
:101F200080BD00008020C6F6004000887047000099
:101F300080B582B00146ADF80600BDF806000091FC
:101F400000F074F8FFF7EEFF02B080BD80B584B0FA
:101F50000A460346ADF80E00ADF80C10BDF80E10A1
:101F600020200292019300F06FF8BDF80C102120A0
:101F700000F06AF804B080BD80B584B00146ADF8C9
:101F80000E00032002900191FFF7D2FFADF80C0084
:101F9000BDF80C0020F03800ADF80C00BDF80E00C4
:101FA000BDF80C10084340F08000ADF80C00BDF8FF
:101FB0000C10029800F048F804B080BDB0B586B0AF
:101FC0009C4696460C460546ADF81600ADF8141032
:101FD000ADF81220ADF81030BDF816105020CDF835
:101FE0000CC0CDF808E00194009500F02DF8BDF884
:101FF0001410512000F028F8BDF81210522000F003
:1020000023F8BDF81010532000F01EF806B0B0BD44
:1020100082B00146ADF80600BDF806008022C6F683
:1020200000421080009102B07047000082B001466B
:10203000ADF80600BDF806007E22C6F6004210800C
:10204000009102B07047000080B584B00A46034694
:10205000ADF80E00ADF80C10BDF80E000292019321
:10206000FFF7E4FFBDF80C00FFF7D2FF04B080BD1E
:1020700080B584B001468DF80F009DF80F00024630
:1020800000280291019204D0FFE70198012809D0AD
:1020900011E041F20040C4F202004FF4806102F00E
:1020A00039FD09E041F20040C4F202004FF4007132
:1020B00002F030FD00E0FFE704B080BD80B584B0E1
:1020C00000204FF4C0014FF0C062029005F036F8D6
:1020D000FA210298029AFFF7D5FC00F083F80A2053
:1020E00000F044F88DF80E000B2000F03FF88DF85A
:1020F0000F009DF80E009DF80F1041EA002043F2FA
:102100009041C2F2000108601C20019100F02EF8FD
:102110008DF80E001D2000F029F88DF80F009DF8B5
:102120000E009DF80F1041EA0020019948600298C6
:10213000ADF80C00FFE7BDF80C00A52814D8FFE7A8
:10214000BDF80C0043F21261C0F6010101EB400240
:1021500011F81000517800F04FF8FFE7BDF80C00BF
:102160000130ADF80C00E6E704B080BD80B584B066
:1021700001468DF80F00029108F01EFB422008F086
:10218000BBFA002801D0FFE7FFE7012008F0E2F9E1
:102190009DF80F0008F0B0FA002801D0FFE7FFE734
:1021A0000120019008F0D6F908F020FB019808F012
:1021B000D1F908F001FB432008F09EFA002801D075
:1021C000FFE7FFE7012008F0C5F908F0EFF98DF807
:1021D0000E0008F0CBF908F009FB9DF80E0004B0E2
:1021E00080BD000080B51220802100F005F80A2093
:1021F000FFF764FC80BD000080B584B00A4603464A
:102200008DF80F008DF80E100292019308F0D4FAA9
:10221000422008F071FA002801D0FFE7FFE7012013
:1022200008F098F99DF80F0008F066FA002801D030
:10223000FFE7FFE7012008F08DF99DF80E0008F098
:102240005BFA002801D0FFE7FFE708F0CFFA04B0FF
:1022500080BD000080B582B001468DF807009DF872
:102260000700002800910AD0FFE740F20040C4F2C6
:1022700002004FF48041012202F07EFC09E040F2AE
:102280000040C4F202004FF48041002202F074FCCE
:10229000FFE702B080BD000080B582B000F0DAF840
:1022A0000020FFF7D7FFC72000F0A6FA4FF0010E7D
:1022B00001907046FFF7CEFF00F0CCF802B080BD71
:1022C00080B586B0014605900598000B05900598ED
:1022D00000030590049100F011FB00F0BBF8002012
:1022E000FFF7B8FF202000F087FA9DF81610039042
:1022F000084600F081FA9DF815100290084600F09B
:102300007BFA9DF814100190084600F075FA01213F
:1023100000900846FFF79EFF00F09CF806B080BDD5
:1023200080B58AB001468DF827009DF82700002867
:10233000089103D0FFE7FFF7AFFFFFE743F29840B4
:10234000C2F200004FF4807101614FF480324261AB
:10235000416202624FF48051C16181614FF080712E
:102360008162079000F070FA079AD160906000F0E7
:10237000B5F80799086000F079F80799486048684F
:1023800043F21502C0F2EF02904206903FD0FFE701
:1023900044F21500C0F2EF00069981422AD0FFE70F
:1023A00044F21700C0F2EF000699814215D0FFE712
:1023B00044F21800C0F2EF000699814234D1FFE7E1
:1023C00043F29840C2F200002C3043F6E921C0F6F7
:1023D0000101FEF7A3F8059033E043F29840C2F202
:1023E00000002C3043F6DB21C0F60101FEF796F821
:1023F000049026E043F29840C2F200002C3043F6ED
:10240000D421C0F60101FEF789F8039019E043F2E8
:102410009840C2F200002C3043F6E221C0F60101E0
:10242000FEF77CF802900CE043F29840C2F2000004
:102430002C3043F6F121C0F60101FEF76FF8019050
:10244000FFE7FF2000F0D8F94FF0000E0090704633
:102450000AB080BD80B5FFE7012000F08DF9C0070C
:10246000002801D0FFE7F7E780BD000080B584B009
:10247000FFF7F0FF4FF0000E7046CDF808E0FFF7D1
:10248000E9FE02988DF80E00ADF80C009F2000F0D8
:10249000B3F94FF0FF0E01907046CDF800E000F068
:1024A000ABF98DF80C00009800F0A6F98DF80D003E
:1024B000009800F0A1F98DF80E000120FFF7CAFE88
:1024C000FFF7C8FF9DF80C009DF80DE09DF80E1079
:1024D000000440EA0E20084404B080BD80B588B0F6
:1024E0000020ADF81E000690FFF7B4FE902000F02B
:1024F00083F94FF0FF0E05907046CDF810E000F024
:102500007BF9DDF810E00390704600F075F9DDF816
:1025100018E00290704600F06FF9DDF810E00190CD
:10252000704600F069F98DF81E00049800F064F917
:102530008DF81F000120FFF78DFE9DF81E009DF80D
:102540001FE04EEA002008B080BD000080B58CB0CE
:1025500013468C4686460B900A9109920998B0F56D
:10256000807F0893CDF81CC0CDF818E001D9FFE7B3
:1025700038E00B98000A0B900B9800020B9000F0CB
:10258000BDF90020FFF766FE022000F035F99DF846
:102590002EE00590704600F02FF99DF82DE0049094
:1025A000704600F029F99DF82CE00390704600F089
:1025B00023F90290FFE7099800280DD0FFE70A9859
:1025C000007800F019F90190FFE7099801380990A7
:1025D0000A9801300A90EEE70120FFF73BFEFFF773
:1025E00039FFFFE70CB080BD80B58AB013468C463A
:1025F00086460990089107920798B0F5805F04938A
:10260000CDF80CC0CDF808E001D9FFE754E00998F7
:10261000000B0990099800030990099840F298115D
:10262000C2F200014FF4805200F068F80998FFF7F9
:1026300047FE00200690FFE706980799884210D2CF
:10264000FFE708980078069940F29812C2F200025B
:102650005054FFE706980130069008980130089022
:10266000EAE743F2D040C2F2000040F29811C2F211
:102670000001016000200590FFE705980F281BD896
:10268000FFE7099843F2D041C2F200010A684FF413
:102690008073019111461A46FFF758FF01980168AF
:1026A00001F580710160099901F580710991FFE7D9
:1026B000059801300590E0E70AB080BD80B582B092
:1026C000FF208DF8060068466FF07F41016043F6F9
:1026D0008040C2F200000DF106010DF10702012356
:1026E00005F06CFC002804D0FFE7FF208DF8070000
:1026F000FFE79DF8070002B080BD000080B58AB0FA
:1027000013468C468646099008910792002006934E
:10271000CDF814C0CDF810E0FFF79CFD032000F0C9
:102720006BF89DF826100390084600F065F89DF8B8
:1027300025100290084600F05FF89DF824100190E3
:10274000084600F059F80090FFE7079800280ED0DF
:10275000FFE7FFF7B3FFDDF820E08EF80000FFE7AA
:10276000079801380790089801300890EDE701209C
:10277000FFF770FD0AB080BD80B586B001468DF8C8
:10278000160000208DF815000491FFF763FD9DF8F9
:10279000160001460128039108D0FFE7039802289C
:1027A00009D0FFE7039803280AD00EE0052000F0C7
:1027B00023F8029010E0352000F01EF801900BE0A5
:1027C000152000F019F8009006E00120FFF742FD07
:1027D00000208DF817000BE0FFF770FF8DF8150053
:1027E0000120FFF737FD9DF815008DF81700FFE772
:1027F0009DF8170006B080BD80B584B001468DF805
:102800000F009DF80F008DF80D0068466FF07F42B5
:10281000026043F68040C2F200000DF10D020DF19E
:102820000E034FF0010C029111461A46634605F063
:10283000C5FB002804D0FFE7FF208DF80E00FFE75E
:102840009DF80E0004B080BD80B58CB0FFF702FE8D
:102850004FF0000E7046CDF818E0FFF7FBFC06982D
:102860008DF82F00099008904B20FFF7C5FF4FF01F
:10287000FF0E05907046CDF810E0FFF7BDFFDDF8C4
:1028800010E003907046FFF7B7FFDDF810E002900C
:102890007046FFF7B1FFDDF810E001907046FFF7DA
:1028A000ABFFDDF818E0CDF81CE00090FFE70798DB
:1028B000072819DCFFE708980999090241EA106125
:1028C000000208900991FFF7F9FE8DF82F00089893
:1028D00009999DF82FE040EA0E0009910890FFE762
:1028E000079801300790E2E70120FFF7B3FCFFF7FC
:1028F000B1FD089809990CB080BD000080B582B088
:102900000020FFF7A7FC0620FFF776FF4FF0010E2F
:1029100001907046FFF79EFC02B080BDFFE7FEE726
:1029200080B584B0014603900398806B02900298B2
:10293000806B406D0228019105D0FFE702980121CC
:1029400080F82510FFE7029800F02AFD04B080BD52
:1029500080B543F28470C2F2000000F039FD80BD02
:1029600080B543F2C470C2F2000000F0D5FF80BD14
:1029700084B0014603900398007810384AF6AB22E1
:10298000CAF6AA22A0FB020212090292029A43F29C
:102990005E73C0F601039A5C039BDA65029A042A0F
:1029A0000191009007D3FFE703980168042262F3C6
:1029B0000901816506E00398016840F2FF32914306
:1029C0008165FFE70398806D04B0704787B00146CA
:1029D000069000208DF817000698806A04900698EB
:1029E00080690028039122D1FFE704980328029010
:1029F0001BD80299DFE801F0020D02180698C06AA0
:102A0000C001002804D5FFE701208DF81700FFE77B
:102A10000CE00698C06AB0F1C07F04D1FFE7012046
:102A20008DF81700FFE701E000E0FFE745E00698BA
:102A30008069B0F5005F25D1FFE704980328019075
:102A40001ED80199DFE801F00206021101208DF87D
:102A5000170016E00698C06AC001002804D5FFE7F9
:102A600001208DF81700FFE70BE00698C06AB0F16F
:102A7000C07F04D1FFE701208DF81700FFE700E0D9
:102A8000FFE719E004980328009004D3FFE70098BB
:102A9000032804D00EE001208DF817000BE0069803
:102AA000C06AC001002804D5FFE701208DF8170097
:102AB000FFE700E0FFE7FFE7FFE79DF8170007B03B
:102AC000704700007047000080B5012001F034FC21
:102AD00080BD00007047000080B584B00A46034600
:102AE00003900291039802994FF0000C0192624604
:102AF000009300F003F804B080BD000080B586B0FC
:102B000013468C468646059004918DF80F200120CF
:102B10008DF80E0000208DF80D0043F2D440C2F273
:102B20000000407A00280293CDF804C0CDF800E000
:102B300026DCFFE743F2D440C2F20000417A0022D3
:102B400042540599437A00EB830359609DF80F10B6
:102B5000437A03441972417A4B1C43728DF80D106D
:102B60009DF80D0030300499087004983A214170A6
:102B700004982F2181700498C2708DF80E20FFE711
:102B80009DF80E0006B080BDB0B58AB09C46964652
:102B90000C4605460990089107920693002005907F
:102BA00006980028CDF810C0CDF80CE002940195ED
:102BB00005D0FFE70698B0F5804F01D1FFE708E0A8
:102BC00043F6AE30C0F6010040F24F110CF0C4FDE8
:102BD000FFE70698B0F5804F40F0B680FFE7099810
:102BE00040F20411CAF20001884201D1FFE708E077
:102BF00043F6AE30C0F6010040F255110CF0ACFDCA
:102C0000FFE7089800680F2801D8FFE708E043F6BF
:102C1000AE30C0F601004FF4AB710CF09DFDFFE744
:102C200008984068002806D0FFE7089840680F28F9
:102C300001D8FFE708E043F6AE30C0F6010040F2ED
:102C400057110CF089FDFFE708988068002806D02E
:102C5000FFE708988068FF2801D8FFE708E043F6FF
:102C6000AE30C0F601004FF4AC710CF075FDFFE71B
:102C70000898C0680F2801D8FFE708E043F6AE3097
:102C8000C0F6010040F259110CF066FDFFE708980C
:102C90008069002812D0FFE708988069B0F1805F52
:102CA0000CD0FFE708988069B0F1005F06D0FFE71D
:102CB00008988069B0F1405F01D1FFE708E043F672
:102CC000AE30C0F601004FF4AD710CF045FDFFE7EA
:102CD000079800280CD0FFE70798022808D0FFE7E4
:102CE0000798042804D0FFE70798062801D1FFE7DA
:102CF00008E043F6AE30C0F6010040F25B110CF084
:102D00002BFDFFE70998079950F8210005900598D9
:102D10000021CCF6F07108400590089801684268DF
:102D20008368D0F80CC041EA021141EA032141EA6C
:102D30000C41806908430599084305900598099955
:102D4000079A41F8220006E0099807996FF070424F
:102D500040F82120FFE700200AB0B0BD80B586B062
:102D60000A46034605900491002003900598B0F1AF
:102D7000204F0292019301D1FFE707E043F6AE3006
:102D8000C0F6010086210CF0E7FCFFE7049800681C
:102D900000280FD0FFE70498006802280AD0FFE758
:102DA00004980068042805D0FFE704980068062806
:102DB00001D1FFE707E043F6AE30C0F601008721FE
:102DC0000CF0CAFCFFE704984068002805D0FFE734
:102DD00004984068022801D1FFE707E043F6AE30CF
:102DE000C0F6010088210CF0B7FCFFE7049880686A
:102DF00000280AD0FFE704988068042805D0FFE780
:102E000004988068082801D1FFE707E043F6AE3058
:102E1000C0F6010089210CF09FFCFFE70498C06810
:102E200000280AD0FFE70498C068102805D0FFE703
:102E30000498C068202801D1FFE707E043F6AE30D0
:102E4000C0F601008A210CF087FCFFE704980069B6
:102E5000002806D0FFE704980069B0F5807F01D113
:102E6000FFE707E043F6AE30C0F601008B210CF01F
:102E700073FCFFE704984069002806D0FFE7049838
:102E80004069B0F5007F01D1FFE707E043F6AE30BF
:102E9000C0F601008C210CF05FFCFFE7049880690C
:102EA000002806D0FFE704988069B0F5806F01D153
:102EB000FFE707E043F6AE30C0F601008E210CF0CC
:102EC0004BFCFFE70498C069002806D0FFE7049890
:102ED000C069B0F5006F01D1FFE707E043F6AE30FF
:102EE000C0F6010090210CF037FCFFE70498006A5F
:102EF000002806D0FFE70498006AB0F5805F01D192
:102F0000FFE707E043F6AE30C0F6010091210CF078
:102F100023FCFFE70498406A002806D0FFE70498E6
:102F2000406AB0F5005F01D1FFE707E043F6AE303D
:102F3000C0F6010092210CF00FFCFFE70498806AB4
:102F4000002806D0FFE70498806AB0F5804F01D1D1
:102F5000FFE707E043F6AE30C0F6010093210CF026
:102F6000FBFBFFE70498C06A002806D0FFE704983F
:102F7000C06AB0F5004F01D1FFE707E043F6AE307D
:102F8000C0F6010094210CF0E7FBFFE70498006B0A
:102F9000002806D0FFE70498006BB0F5002F01D1A0
:102FA000FFE707E043F6AE30C0F6010095210CF0D4
:102FB000D3FBFFE70498C06B002818D0FFE7049804
:102FC000C06BB0F5803F12D0FFE70498C06BB0F53E
:102FD000003F0CD0FFE70498C06BB0F5403F06D02F
:102FE000FFE70498C06BB0F5802F01D1FFE707E041
:102FF00043F6AE30C0F6010096210CF0ADFBFFE7C2
:1030000005980499096850F82100039003988021DD
:10301000CFF6F07108400390049841688268C36855
:10302000D0F810C01143194341EA0C014269114321
:1030300082691143C2691143026A1143426A114312
:10304000826A1143C26A1143C26B1143006B084389
:1030500003990843039004988068082805D1FFE786
:10306000039840F040000390FFE703980599049A05
:10307000126841F82200002006B080BD80B588B0FB
:1030800013468C46864607900691059200200490D0
:103090000798B0F1204F0393CDF808C0CDF804E0B5
:1030A00001D1FFE708E043F6AE30C0F601004FF46F
:1030B0008C710CF051FBFFE7069800680F2801D8CF
:1030C000FFE708E043F6AE30C0F6010040F2191108
:1030D0000CF042FBFFE706984068002806D0FFE7A7
:1030E000069840680F2801D8FFE708E043F6AE30A5
:1030F000C0F601004FF48D710CF02EFBFFE706982F
:103100008068002806D0FFE706988068FF2801D86D
:10311000FFE708E043F6AE30C0F6010040F21B11B5
:103120000CF01AFBFFE70698C0680F2801D8FFE7EC
:1031300008E043F6AE30C0F601004FF48E710CF09B
:103140000BFBFFE706980069022806D3FFE7069805
:103150000069102801D8FFE708E043F6AE30C0F65A
:10316000010040F21D110CF0F7FAFFE706984069E4
:10317000022806D3FFE706984069112801D8FFE727
:1031800008E043F6AE30C0F601004FF48F710CF04A
:10319000E3FAFFE706988069002812D0FFE7069857
:1031A0008069B0F1805F0CD0FFE706988069B0F1CC
:1031B000005F06D0FFE706988069B0F1405F01D15B
:1031C000FFE708E043F6AE30C0F6010040F21F1101
:1031D0000CF0C2FAFFE7059800280CD0FFE705982D
:1031E000022808D0FFE70598042804D0FFE70598D7
:1031F000062801D1FFE708E043F6AE30C0F6010033
:103200004FF490710CF0A8FAFFE70798059900EBCE
:10321000810040680490049800F0404004900698B3
:10322000016842688368D0F80CC041EA021141EAA3
:10323000032141EA0C4102690023CFF6F07303EB4E
:10324000025211434269FE3241EA02618069084339
:1032500004990843049004980799059A01EB8201A8
:103260004860002008B080BD81B043F65060C2F2D3
:10327000000001688DF80310002101609DF8030033
:1032800001B0704780B584B047F61020C1F6FF70DA
:103290000068039047F61420C1F6FF7000680290A2
:1032A00047F61820C1F6FF70006801900198039955
:1032B000084403900398002813D0FFE7039840F2D6
:1032C0000011C2F200018A1C0823009111461A461F
:1032D00006F04CF9029800991231042206F046F9E2
:1032E000FFE704B080BD000080B584B001460290C5
:1032F00002980028019104D1FFE701208DF80F000A
:1033000027E00298006843F20001C4F202018842FB
:1033100001D1FFE707E043F63A30C0F6010068212B
:103320000CF01AFAFFE702984079002807D1FFE76E
:10333000029800210171029800F010F8FFE702984E
:103340000221417102980121417100208DF80F0086
:10335000FFE79DF80F0004B080BD000084B0014677
:1033600003900398006843F20002C4F20202904204
:10337000019113D1FFE7FFE70020029043F63000F0
:10338000C4F20200016841F480510160006800F459
:103390008050029002980090FFE7FFE704B070476A
:1033A00082B001460190009102B0704780B582B0B2
:1033B0000146019041F29810C2F200000268013209
:1033C00002604FF0D0400091FEF766FC02B080BD75
:1033D00080B586B0014605900598006800690490A4
:1033E000049840070028039119D5FFE70598006865
:1033F000042141610598C26B42F00202C263059844
:1034000080F825100598806B42F62111C0F6000166
:1034100001650598806B00F05BFA0290FFE7049865
:10342000800700281AD5FFE705980068022141614E
:103430000598C16B41F00101C1630598042180F832
:1034400025100598806B42F62111C0F60001016538
:103450000598806B00F03CFA0190FFE70498C006E5
:10346000002808D5FFE705980068102141610598FC
:1034700000F02EF9FFE704980007002808D5FFE7C1
:103480000598006808214161059800F01BFAFFE7E4
:103490000498C007002818D0FFE705980068006866
:1034A0008007002807D5FFE705980068C16821F06C
:1034B0001E01C160FFE705980068C16821F00101A5
:1034C000C1600598FFF772FFFFE706B080BD0000FE
:1034D00080B584B00146029002980028019104D181
:1034E000FFE701208DF80F00EEE002980068002150
:1034F000C5F20501884201D1FFE707E043F67230CB
:10350000C0F6010059210CF027F9FFE70298806806
:10351000002805D0FFE702988068202801D1FFE746
:1035200007E043F67230C0F601005A210CF014F99E
:10353000FFE70298C068002805D0FFE70298C0683E
:10354000802801D1FFE707E043F67230C0F60100A2
:103550005B210CF001F9FFE702980069002805D013
:10356000FFE702980069402801D1FFE707E043F632
:103570007230C0F601005C210CF0EEF8FFE7029813
:103580004068002805D0FFE702984068102801D164
:10359000FFE707E043F67230C0F601005D210CF052
:1035A000DBF8FFE70298406900280CD0FFE702989B
:1035B0004069B0F5807F06D0FFE702984069B0F51A
:1035C000007F01D1FFE707E043F67230C0F601004B
:1035D0005E210CF0C1F8FFE702988069002812D044
:1035E000FFE702988069B0F5806F0CD0FFE7029882
:1035F0008069B0F5006F06D0FFE702988069B0F5EA
:10360000406F01D1FFE707E043F67230C0F60100DA
:103610005F210CF0A1F8FFE70298006A002805D0AE
:10362000FFE70298006A082801D1FFE707E043F6A8
:103630007230C0F6010060210CF08EF8FFE70298AE
:1036400090F82500002804D1FFE7029800F046F822
:10365000FFE70298022180F82510029800680168AF
:1036600040F6F8729143016002984169026843682C
:10367000D0F808C0D0F80CE0194341EA0E01036904
:10368000194341EA0C0183691943006A0843116830
:103690000843106002984068102805D1FFE702989F
:1036A0000168C0698861FFE702980068C16841F05D
:1036B0001E01C16002980021C1630298012280F8B6
:1036C00025208DF80F10FFE79DF80F0004B080BD96
:1036D00082B001460190009102B0704780B596B06B
:1036E00001461590002014901390129011901090A4
:1036F000159800680022C5F2050290420A9140F038
:10370000DE80FFE7FFE700200F9043F63400C4F2AD
:103710000200016841F001010160006800F0010051
:103720000F900F980990FFE7FFE700200E9043F6F7
:103730003000C4F20200016841F01001016000682D
:1037400000F010000E900E980890FFE7FFE70020B1
:103750000D9043F63000C4F20200016841F001010F
:103760000160006800F001000D900D980790FFE7E0
:10377000FFE700200C9043F63000C4F2020001681D
:1037800041F004010160006800F004000C900C9806
:103790000690FFE7FFE700200B9043F63000C4F2ED
:1037A0000200016841F002010160006800F00200BF
:1037B0000B900B980590FFE770201090022011905D
:1037C0000021129113910D22149241F20003C4F2D0
:1037D00002030DF1400C04901846039161460292D9
:1037E000CDF804C000F0C6FD502010900498119050
:1037F000039912911391029A14920020C4F20200CC
:10380000019900F0B7FD4FF470701090049811907A
:10381000039912911391029A149240F60000C4F297
:103820000200019900F0A6FDC020109004981190AC
:10383000039912911391029A149240F20040C4F23B
:103840000200019900F096FD43F2C470C2F200003C
:1038500046F22841C4F2020101604FF0007141605C
:1038600003998160C1604FF4806202614FF480521D
:1038700042614FF4804282614FF48072C2614FF422
:1038800000320262416200F0F3F9002803D0FFE742
:10389000FFF720F9FFE7FFE7159843F2C471C2F282
:1038A0000001816315988863FFE74E200121002203
:1038B000009001F03BFF009801F01EFFFFE716B0FB
:1038C00080BD000082B001460190009102B07047B7
:1038D00083B001460190019890F8350002280091CC
:1038E00007D0FFE701988021416501208DF80B008A
:1038F0000EE00198052180F83510019800680168F4
:1039000021F001010160FFE700208DF80B00FFE7C7
:103910009DF80B0003B0704780B588B00146079052
:103920000020059040F22000C2F20000006848F23A
:10393000B512C1F64E32A0FB0202920A0492079A17
:10394000926D0392039A12680692069A079BDB6DAA
:103950004FF0080C0CFA03F31A42029101901BD0AD
:10396000FFE70798006800684007002813D5FFE7C5
:1039700007980068016821F0040101600798C06D94
:10398000082101FA00F0039988600798416D41F021
:1039900001014165FFE7FFE706980799C96D01221C
:1039A00002FA01F1084215D0FFE707980068406964
:1039B000000600280DD5FFE70798C06D012101FA28
:1039C00000F0039988600798416D41F0020141655C
:1039D000FFE7FFE706980799C96D042202FA01F193
:1039E000084215D0FFE707980068006880070028A4
:1039F0000DD5FFE70798C06D042101FA00F0039987
:103A000088600798416D41F004014165FFE7FFE7D9
:103A100006980799C96D102202FA01F108424BD0AD
:103A2000FFE70798006800680007002843D5FFE714
:103A30000798C06D102101FA00F00399886007987B
:103A400000680068400300281CD5FFE7079800685D
:103A50000068000300280AD4FFE70798006C0028DC
:103A600004D0FFE70798016C8847FFE709E0079853
:103A7000806C002804D0FFE70798816C8847FFE737
:103A8000FFE717E0079800680068C005002807D422
:103A9000FFE707980068016821F008010160FFE76F
:103AA0000798006C002804D0FFE70798016C88474E
:103AB000FFE7FFE7FFE7FFE706980799C96D2022B8
:103AC00002FA01F1084200F09580FFE707980068CC
:103AD0000068C006002840F18C80FFE70798C06DA1
:103AE000202101FA00F003998860079890F83500CA
:103AF000052838D1FFE707980068016821F0160112
:103B0000016007980068416921F0800141610798D0
:103B1000006C002805D1FFE70798806C002807D0CB
:103B2000FFE707980068016821F008010160FFE7DE
:103B30000798C06D3F2101FA00F003998860FFE704
:103B40000798002180F83410FFE70798012180F8DA
:103B500035100798006D002804D0FFE70798016D25
:103B60008847FFE781E00798006800684003002865
:103B70001CD5FFE7079800680068000300280AD4F6
:103B8000FFE70798406C002804D0FFE70798416CD6
:103B90008847FFE709E00798C06B002804D0FFE7DB
:103BA0000798C16B8847FFE7FFE721E007980068A7
:103BB0000068C005002811D4FFE707980068016875
:103BC00021F010010160FFE70798002180F8341010
:103BD000FFE70798012180F83510FFE70798C06BD1
:103BE000002804D0FFE70798C16B8847FFE7FFE78D
:103BF000FFE7FFE70798406D002836D0FFE70798FA
:103C0000406DC007002826D0FFE70798052180F8FF
:103C1000351007980068016821F001010160FFE795
:103C20000598013005900499884201D9FFE707E023
:103C3000FFE7079800680068C0070028F0D1FFE799
:103C4000FFE70798002180F83410FFE7079801216B
:103C500080F83510FFE70798C06C002804D0FFE714
:103C60000798C16C8847FFE7FFE708B080BD0000F8
:103C700080B586B00146049000200390009100F0CA
:103C8000D9FF02900498002804D1FFE701208DF8A5
:103C9000170099E20498006846F21001C4F202018C
:103CA000884200F08880FFE70498006846F2280107
:103CB000C4F2020188427ED0FFE70498006846F211
:103CC0004001C4F20201884275D0FFE70498006801
:103CD00046F25801C4F2020188426CD0FFE7049812
:103CE000006846F27001C4F20201884263D0FFE727
:103CF0000498006846F28801C4F2020188425AD052
:103D0000FFE70498006846F2A001C4F2020188426D
:103D100051D0FFE70498006846F2B801C4F20201EE
:103D2000884248D0FFE70498006846F21041C4F288
:103D3000020188423FD0FFE70498006846F228411C
:103D4000C4F20201884236D0FFE70498006846F2C8
:103D50004041C4F2020188422DD0FFE70498006878
:103D600046F25841C4F20201884224D0FFE7049889
:103D7000006846F27041C4F2020188421BD0FFE79E
:103D80000498006846F28841C4F20201884212D0C9
:103D9000FFE70498006846F2A041C4F2020188429D
:103DA00009D0FFE70498006846F2B841C4F2020166
:103DB000884201D1FFE707E043F63850C0F6010022
:103DC000B8210BF0C9FCFFE70498406800282AD00E
:103DD000FFE704984068B0F1007F24D0FFE7049823
:103DE0004068B0F1806F1ED0FFE704984068B0F1E2
:103DF000C06F18D0FFE704984068B0F1006F12D090
:103E0000FFE704984068B0F1206F0CD0FFE70498FA
:103E10004068B0F1406F06D0FFE704984068B0F109
:103E2000606F01D1FFE707E043F63850C0F60100AC
:103E3000B9210BF091FCFFE70498806800280AD0B4
:103E4000FFE704988068402805D0FFE70498806861
:103E5000802801D1FFE707E043F63850C0F60100A3
:103E6000BA210BF079FCFFE70498C068B0F5007F39
:103E700005D0FFE70498C068002801D1FFE707E0FC
:103E800043F63850C0F60100BB210BF065FCFFE79C
:103E900004980069B0F5806F05D0FFE704980069C9
:103EA000002801D1FFE707E043F63850C0F60100D3
:103EB000BC210BF051FCFFE70498406900280CD0AE
:103EC000FFE704984069B0F5006F06D0FFE704985B
:103ED0004069B0F5805F01D1FFE707E043F6385055
:103EE000C0F60100BD210BF037FCFFE704988069A4
:103EF00000280CD0FFE704988069B0F5005F06D079
:103F0000FFE704988069B0F5804F01D1FFE707E033
:103F100043F63850C0F60100BE210BF01DFCFFE750
:103F20000498C06900280BD0FFE70498C069B0F579
:103F3000807F05D0FFE70498C069202801D1FFE702
:103F400007E043F63850C0F60100BF210BF004FC37
:103F5000FFE70498006A002812D0FFE70498006A7F
:103F6000B0F5803F0CD0FFE70498006AB0F5003F41
:103F700006D0FFE70498006AB0F5403F01D1FFE7A3
:103F800007E043F63850C0F60100C0210BF0E4FB17
:103F9000FFE70498406A002805D0FFE70498406ACC
:103FA000042801D1FFE707E043F63850C0F60100CE
:103FB000C1210BF0D1FBFFE70498406A00285ED0D6
:103FC000FFE70498806A00280FD0FFE70498806A12
:103FD00001280AD0FFE70498806A022805D0FFE78D
:103FE0000498806A032801D1FFE707E043F63850C0
:103FF000C0F60100C6210BF0AFFBFFE70498C06AD2
:10400000002812D0FFE70498C06AB0F5000F0CD06A
:10401000FFE70498C06AB0F1807F06D0FFE70498FC
:10402000C06AB0F1C07F01D1FFE707E043F6385026
:10403000C0F60100C7210BF08FFBFFE70498006B6F
:10404000002812D0FFE70498006BB0F5001F0CD0D9
:10405000FFE70498006BB0F5800F06D0FFE70498E7
:10406000006BB0F5C00F01D1FFE707E043F6385011
:10407000C0F60100C8210BF06FFBFFE7FFE7FFE789
:104080000498002180F83410FFE70498022180F89A
:10409000351004980068016821F001010160FFE714
:1040A000049800680068C007002814D0FFE700F0FB
:1040B000C1FDDDF808E0A0EB0E0006280AD3FFE7FB
:1040C0000498202141650498032180F835108DF86B
:1040D000171079E0E4E704980068006803900398FB
:1040E00048F23F01CFF21001084003900498416864
:1040F0008268C368D0F810C01143194341EA0C012B
:104100004269114382691143C2691143006A08433D
:104110000399084303900498406A042808D1FFE7F4
:104120000498C16A006B0843039908430390FFE7B2
:10413000039804990968086004980068406903902E
:10414000039820F0070003900498406A03990843FD
:1041500003900498406A04281CD1FFE70498806A01
:104160000399084303900498C06A002811D0FFE720
:104170000498FEF72BFC00280AD0FFE704984021A2
:1041800041650498012180F835108DF817101BE067
:10419000FFE7FFE703980499096848610498FEF770
:1041A000E7FB01900498C06D3F2101FA00F00199EE
:1041B000886004980021416504984FF0010E80F852
:1041C00035E08DF81710FFE79DF8170006B080BDA9
:1041D00080B584B001460390009100F02BFD029061
:1041E0000398019001980130002809D0FFE740F2C0
:1041F0003010C2F200000078019908440190FFE7F6
:10420000FFE700F017FDDDF808E0A0EB0E00DDF899
:1042100004E0704501D2FFE7F3E704B080BD000081
:1042200080B58CB000200B900A9009900890079000
:1042300041F29C10C2F200000068002801D0FFE7A4
:1042400069E041F29C10C2F2000001210160FFE729
:104250000020069043F63800C4F20200016841F0E5
:1042600001010160006800F00100069006980590C9
:10427000FFE74FF23F0007900220089000210991CC
:1042800003220A920C230B9341F2004CC4F2020C5D
:104290000DF11C0E04906046039171460292019349
:1042A000CDF800E000F066F841F23F400790049836
:1042B000089003990991029A0A92019B0B9341F687
:1042C0000000C4F20200009900F054F84FF6837029
:1042D00007900498089003990991029A0A92019B09
:1042E0000B9341F20000C4F20200009900F042F882
:1042F0004FF6737007900498089003990991029AF9
:104300000A92019B0B9340F60040C4F20200009910
:1043100000F030F8FFE70CB080BD000082B001462D
:10432000ADF8060043F65060C2F2000003220260BE
:10433000009102B07047000080B582B00146ADF830
:10434000060043F61440C4F201000068BDF80620E0
:10435000104200910CD0FFE7BDF8060043F614416F
:10436000C4F201010860BDF80600FFF7D7FFFFE7C0
:1043700002B080BD80B592B00A46034611901091FC
:1043800000200E900D900C9011980021C4F20201B3
:1043900088420A92099340D0FFE7119840F2004109
:1043A000C4F20201884238D0FFE7119840F60001BC
:1043B000C4F20201884230D0FFE7119840F6004174
:1043C000C4F20201884228D0FFE7119841F20001AF
:1043D000C4F20201884220D0FFE7119841F2004167
:1043E000C4F20201884218D0FFE7119841F600019B
:1043F000C4F20201884210D0FFE7119841F6004153
:10440000C4F20201884208D0FFE7119842F200018D
:10441000C4F20201884201D1FFE707E043F6FF4002
:10442000C0F60100B3210BF097F9FFE71098008860
:10443000002806D0FFE710984088002801D1FFE748
:1044400007E043F6FF40C0F60100B4210BF084F909
:10445000FFE710984068002849D0FFE710984068AF
:10446000012844D0FFE71098406811283FD0FFE7AB
:104470001098406802283AD0FFE710984068122848
:1044800035D0FFE7109840680021C1F21101884241
:104490002DD0FFE7109840680021C1F22101884229
:1044A00025D0FFE7109840680021C1F23101884211
:1044B0001DD0FFE7109840680021C1F21201884228
:1044C00015D0FFE7109840680021C1F22201884210
:1044D0000DD0FFE7109840680021C1F232018842F8
:1044E00005D0FFE710984068032801D1FFE707E0F7
:1044F00043F6FF40C0F60100B5210BF02DF9FFE7B0
:104500001098806800280AD0FFE71098806801287A
:1045100005D0FFE710988068022801D1FFE707E087
:1045200043F6FF40C0F60100B6210BF015F9FFE796
:1045300000200F90FFE70F980F2800F2B982FFE7E5
:104540000F98012101FA00F00E90109800680E9962
:1045500008400D900D980E99884240F0A482FFE724
:1045600010984068022806D0FFE71098406812288B
:1045700040F0EE80FFE710980069002800F0B98055
:10458000FFE710980069092800F0B380FFE7109852
:104590000069002800F0AD80FFE71098006900284E
:1045A00000F0A780FFE710980069002800F0A180C4
:1045B000FFE710980069002800F09B80FFE7109843
:1045C0000069012800F09580FFE710980069012834
:1045D00000F08F80FFE710980069022800F08980C2
:1045E000FFE710980069022800F08380FFE7109829
:1045F000006902287DD0FFE710980069032878D071
:10460000FFE710980069042873D0FFE7109800694D
:1046100004286ED0FFE710980069042869D0FFE7EE
:1046200010980069052864D0FFE7109800690528F4
:104630005FD0FFE71098006909285AD0FFE710986B
:104640000069062855D0FFE710980069092850D066
:10465000FFE71098006907284BD0FFE71098006922
:10466000072846D0FFE710980069072841D0FFE7E8
:104670001098006908283CD0FFE7109800690828C6
:1046800037D0FFE710980069082832D0FFE710986C
:10469000006909282DD0FFE710980069092828D063
:1046A000FFE7109800690A2823D0FFE710980069F7
:1046B0000A281ED0FFE7109800690B2819D0FFE7E1
:1046C000109800690C2814D0FFE7109800690C2896
:1046D0000FD0FFE7109800690D280AD0FFE7109867
:1046E00000690C2805D0FFE7109800690F2801D158
:1046F000FFE707E043F6FF40C0F60100C7210BF0DB
:104700002BF8FFE711980F996FF0030202EA5101AD
:104710000844006A0C900F9800F0070080000F21F9
:1047200001FA00F00C9921EA00000C901098006941
:104730000F9901F00701890088400C9908430C90FB
:104740000C9811990F9B02EA530211440862FFE78B
:10475000119800680C900F984000032101FA00F0B6
:104760000C9921EA00000C901098406800F00300BA
:104770000F99490088400C9908430C900C981199A6
:1047800008601098406801280FD0FFE71098406833
:1047900002280AD0FFE710984068112805D0FFE7EB
:1047A0001098406812284CD1FFE71098C068002884
:1047B0000FD0FFE71098C06801280AD0FFE71098D3
:1047C000C068022805D0FFE71098C068032801D10F
:1047D000FFE707E043F6FF40C0F60100DA210AF0E8
:1047E000BBFFFFE7119880680C900F9840000321F1
:1047F00001FA00F00C9921EA00000C901098C068B2
:104800000F99490088400C9908430C900C98119915
:104810008860119840680C900F98012101FA00F00F
:104820000C9921EA00000C9010984068C0F3001029
:104830000F9988400C9908430C900C981199486086
:10484000FFE71198C0680C900F984000032101FA0F
:1048500000F00C9921EA00000C90109880680F99E4
:10486000490088400C9908430C900C981199C86035
:1048700010984068C000002840F11481FFE7FFE76E
:1048800000200B9043F64400C4F20200016841F49A
:1048900080410160006800F480400B900B98089004
:1048A000FFE70F9820F0030043F60801C4F201016E
:1048B00040580C900F9800F0030080000F2101FA7F
:1048C00000F00C9921EA00000C9011980021C4F22C
:1048D0000201884203D1FFE7002007905EE01198B3
:1048E00040F20041C4F20201884203D1FFE70120F7
:1048F000069050E0119840F60001C4F2020188428F
:1049000003D1FFE70220059042E0119840F60041F4
:10491000C4F20201884203D1FFE70320049034E08F
:10492000119841F20001C4F20201884203D1FFE76D
:104930000420039026E0119841F20041C4F20201E4
:10494000884203D1FFE70520029018E0119841F654
:104950000001C4F20201884203D1FFE70620019062
:104960000AE0119841F60041C4F20201082288428F
:1049700008BF07220192FFE701980290FFE7029823
:104980000390FFE703980490FFE704980590FFE782
:1049900005980690FFE706980790FFE70798C0B2D2
:1049A0000F9901F00301890088400C9908430C908D
:1049B0000C980F9921F0030143F60802C4F201029A
:1049C000885043F60040C4F2010000680C900D9836
:1049D0000C9921EA00000C9010984068C003002850
:1049E00005D5FFE70D980C9908430C90FFE70C984C
:1049F00043F60041C4F20101086043F60440C4F2EA
:104A0000010000680C900D980C9921EA00000C90B0
:104A1000109840688003002805D5FFE70D980C9991
:104A200008430C90FFE70C9843F60441C4F20101DF
:104A3000086043F60840C4F2010000680C900D982D
:104A40000C9921EA00000C9010984068C0020028E0
:104A500005D5FFE70D980C9908430C90FFE70C98DB
:104A600043F60841C4F20101086043F60C40C4F269
:104A7000010000680C900D980C9921EA00000C9040
:104A8000109840688002002805D5FFE70D980C9922
:104A900008430C90FFE70C9843F60C41C4F2010167
:104AA0000860FFE7FFE7FFE70F9801300F9042E54E
:104AB00012B080BD80B584B00A4603460390ADF8BD
:104AC0000A10BDF80A0000280192009305D0FFE704
:104AD0000020002801D1FFE708E043F6FF40C0F6C0
:104AE00001004FF4BF710AF037FEFFE70398006939
:104AF000BDF80A10084204D0FFE701208DF8090034
:104B000003E000208DF80900FFE79DF8090004B0DC
:104B100080BD000080B584B00A4603460390ADF81E
:104B20000A10BDF80A0000280192009305D0FFE7A3
:104B30000020002801D1FFE708E043F6FF40C0F65F
:104B400001004FF4DB710AF007FEFFE703984069AC
:104B5000BDF80A100840884206D1FFE7BDF80A00F8
:104B600000040399886104E0BDF80A000399886194
:104B7000FFE704B080BD000080B586B013468C46C8
:104B800086460590ADF812108DF81120BDF8120080
:104B900000280393CDF808C0CDF804E005D0FFE766
:104BA0000020002801D1FFE708E043F6FF40C0F6EF
:104BB000010040F29F110AF0CFFDFFE79DF81100C0
:104BC000002805D0FFE79DF81100012801D1FFE77B
:104BD00008E043F6FF40C0F601004FF4D0710AF040
:104BE000BBFDFFE79DF81100002805D0FFE7BDF8E9
:104BF00012000599886105E0BDF8120000040599CE
:104C00008861FFE706B080BD42F20000CEF20400EA
:104C100000686FF31F30704740F20060C0F2071069
:104C20007047000042F20000CEF204000068000C61
:104C30007047000043F65860C2F2000000687047F9
:104C400040F23010C2F200000078704747F61020A2
:104C5000C1F6FF700068704747F61420C1F6FF7078
:104C60000068704747F61820C1F6FF70006870476B
:104C700080B590B001460E900E9800280B9104D19B
:104C8000FFE701208DF83F0008E20E98006845F22A
:104C90000041C4F20001884212D0FFE70E9800687C
:104CA00045F60001C4F20001884209D0FFE70E98E2
:104CB000006845F60041C4F20001884201D1FFE7D7
:104CC00008E043F6E630C0F6010040F2BB110AF0FE
:104CD00043FDFFE70E98406800280AD0FFE70E98D2
:104CE000406841F68021C0F20601884201D8FFE702
:104CF00008E043F6E630C0F601004FF4DE710AF03A
:104D00002BFDFFE70E988068002806D0FFE70E987D
:104D10008068B0F5804F01D1FFE708E043F6E63048
:104D2000C0F6010040F2BD110AF016FDFFE70E9833
:104D3000C068800A002801D1FFE708E043F6E630AA
:104D4000C0F601004FF4DF710AF006FDFFE70E9890
:104D50000069B0F5804F06D0FFE70E980069B0F506
:104D6000404F01D1FFE708E043F6E630C0F601000E
:104D700040F2BF110AF0F0FCFFE70E9840690028EE
:104D800005D0FFE70E984069012801D1FFE708E050
:104D900043F6E630C0F601004FF4E0710AF0DCFCA7
:104DA000FFE70E9880696FF0FE01084201D1FFE72E
:104DB00008E043F6E630C0F6010040F2C1110AF007
:104DC000CBFCFFE70E98C069002805D0FFE70E98DE
:104DD000C069402801D1FFE708E043F6E630C0F69D
:104DE00001004FF4E1710AF0B7FCFFE70E98006A8A
:104DF000002805D0FFE70E98006A802801D1FFE760
:104E000008E043F6E630C0F6010040F2C3110AF0B4
:104E1000A3FCFFE70E9890F83D00002808D1FFE7BB
:104E20000E98002180F83C100E9800F081FBFFE7FF
:104E30000E98242180F83D100E980068016821F03A
:104E40000101016002F0DCF80C900E98406848F215
:104E5000A061C0F2010188420BD8FFE70C9848F22C
:104E60008041C0F21E010022884238BF01220A920E
:104E70000AE00C9840F60011C0F23D010022884281
:104E800038BF01220A92FFE70A98012804D1FFE700
:104E900001208DF83F0001E10C984DF68361C4F2CA
:104EA0001B31A0FB0101890C0D910E99096849681D
:104EB00021F03F010D9A11430E9A126851600E992C
:104EC0000968096A21F03F010E9A526848F2A0630E
:104ED000C0F201039A420990089104D8FFE70D98A7
:104EE000013007900FE00D984FF49671484344F657
:104EF000D351C1F26201A0FB0101012202EB911129
:104F000006900791FFE70798089908430E9A1268E0
:104F100010620E980068C0694CF6FF7290430E9ABA
:104F2000526848F2A063C0F201039A4205901FD86C
:104F3000FFE70C9801380E9949684900B0FBF1F081
:104F400001306FF31F30032803D8FFE704200490DB
:104F50000BE00C9801380E9949684900B0FBF1F05C
:104F600001306FF31F300490FFE7049803904FE087
:104F70000E98806800280DD1FFE70C9801380E9933
:104F8000496801EB4101B0FBF1F001306FF31F30D4
:104F900002900DE00C9801380E994968192251438E
:104FA000B0FBF1F00130042161F31F300290FFE704
:104FB00002980005002803D1FFE70120019024E0BA
:104FC0000E98806800280DD1FFE70C9801380E99E3
:104FD000496801EB4101B0FBF1F001306FF31F3084
:104FE00000900DE00C9801380E9949681922514340
:104FF000B0FBF1F00130042161F31F300090FFE7B6
:10500000009840F400400190FFE701980390FFE70B
:105010000398059908430E9A1268D0610E980068AB
:10502000006820F0C0000E9A1368D2F81CC0126A03
:1050300042EA0C02104318600E980068806848F23B
:10504000FF3290430E9A1368D2F80CC0126942EAFC
:105050000C02104398600E980068C06820F0FF00B2
:105060000E9A1368D2F814C0926942EA0C021043F7
:10507000D8600E980068026842F0010202600E9843
:10508000002202640E98202380F83D300E980263BF
:105090000E9880F83E208DF83F20FFE79DF83F00F6
:1050A00010B080BD2DE9F04196B0DDF878C0DDF894
:1050B00074E01C9C1D4616460F4680461490ADF8C1
:1050C0004E10ADF84C20ADF84A30ADF848E0CDF8C0
:1050D00030C00B940A9509960897CDF81C80FFF70D
:1050E000A9FD1190BDF84A00012805D0FFE7BDF8E1
:1050F0004A00102801D1FFE708E043F6E630C0F689
:10510000010040F6E8110AF027FBFFE7149890F839
:105110003D00202840F00282FFE7149811996A466A
:1051200011600221C0F210010122192304F04EF88F
:10513000002804D0FFE702208DF85700F2E1FFE7D6
:10514000149890F83C00012804D1FFE702208DF864
:105150005700E7E11498012180F83C10FFE7FFE7D2
:10516000149800680068C007002807D1FFE714986A
:105170000068016841F001010160FFE714980068D0
:10518000016821F4006101601498222180F83D102B
:105190001498402180F83E101498002101641C9856
:1051A00014994862BDF84800149948851498408DB8
:1051B0001499088514980021CFF6FF71C1621498E4
:1051C000BDF84E10BDF84C20BDF84A30DDF878C06F
:1051D000DDF844E06C46C4F804E0C4F800C003F015
:1051E00007FF002804D0FFE701208DF8570099E160
:1051F0001498008D002815D1FFE7FFE700201090DC
:1052000014980068406910901498006880691090A4
:1052100010980690FFE714980068016841F4007147
:10522000016050E01498008D01281BD1FFE714980D
:105230000068016821F480610160FFE700200F90A1
:105240001498006840690F901498006880690F9066
:105250000F980590FFE714980068016841F4007109
:1052600001602FE01498008D02281BD1FFE71498ED
:105270000068016821F48061016014980068016889
:1052800041F400610160FFE700200E90149800686F
:1052900040690E901498006880690E900E980490F2
:1052A000FFE70EE0FFE700200D90149800684069CA
:1052B0000D901498006880690D900D980390FFE799
:1052C000FFE7FFE7FFE7FFE71498008D002800F0F5
:1052D0001381FFE71498008D032800F2D080FFE7C8
:1052E0001498008D01281FD1FFE714981E99119A78
:1052F00004F074F8002804D0FFE701208DF857006F
:1053000010E11498006800691499496A08701498AB
:10531000416A013141621498018D01390185149867
:10532000418D01394185A9E01498008D02283DD1B5
:10533000FFE714981E9B11996A4611600421C0F280
:105340000101002203F042FF002804D0FFE7012002
:105350008DF85700E6E014980068016841F4007188
:1053600001601498006800691499496A08701498DB
:10537000416A013141621498018D01390185149807
:10538000418D013941851498006800691499496A72
:1053900008701498416A013141621498018D0139F5
:1053A00001851498418D0139418566E014981E9B52
:1053B00011996A4611600421C0F20101002203F034
:1053C00005FF002804D0FFE701208DF85700A9E071
:1053D00014980068016821F48061016014980068E5
:1053E00000691499496A08701498416A0131416250
:1053F0001498018D013901851498418D0139418539
:1054000014981E9B11996A4611600421C0F2010193
:10541000002203F0DBFE002804D0FFE701208DF816
:1054200057007FE014980068016841F40071016042
:105430001498006800691499496A08701498416AC0
:10544000013141621498018D013901851498418D13
:10545000013941851498006800691499496A0870F7
:105460001498416A013141621498018D0139018516
:105470001498418D01394185FFE7FFE73BE014981F
:105480001E99119A03F0AAFF002804D0FFE701201B
:105490008DF8570046E01498006800691499496A2D
:1054A00008701498416A013141621498018D0139E4
:1054B00001851498418D013941851498006840692F
:1054C00000F004000121B1EB900F13D1FFE7149815
:1054D000006800691499496A08701498416A01319A
:1054E00041621498018D013901851498418D01396B
:1054F0004185FFE7FFE7E7E61498202180F83D109B
:105500001498002180F83E10FFE71498002180F8DD
:105510003C10FFE700208DF8570003E002208DF8D3
:105520005700FFE79DF8570016B0BDE8F081000076
:1055300080B58CB001460B9000200A90099008902D
:10554000079006900B98006845F20042C4F20002F2
:105550009042039137D1FFE7FFE70020059043F623
:105560003000C4F20200016841F0020101600068ED
:1055700000F00200059005980290FFE74FF440709C
:105580000690122007900120089003200990042023
:105590000A9040F20040C4F2020006A9FEF7EAFEBB
:1055A000FFE70020049043F64000C4F202000168C7
:1055B00041F400110160006800F4001004900498A8
:1055C0000190FFE7FFE70CB080BD000040F2301013
:1055D000C2F20000007843F65861C2F200010A6886
:1055E000104408607047000080B582B043F6004068
:1055F000C4F20200016841F400710160016841F4E5
:1056000080610160016841F480710160032000F055
:10561000CDF80020019000F007F8009000F040F86D
:10562000019802B080BD000080B584B001460290B0
:1056300040F22000C2F20000006840F23012C2F2D4
:10564000000212784FF47A73B3FBF2F2B0FBF2F07F
:10565000019102F0FDFE002804D0FFE701208DF843
:105660000F0018E002980F280DD8FFE702994FF0BD
:10567000FF30002200F05AF8029840F23411C2F2D2
:105680000001086003E001208DF80F0003E0002016
:105690008DF80F00FFE79DF80F0004B080BD0000FB
:1056A00080B584B0FFE70020039043F64400C4F2C5
:1056B0000200016841F480410160006800F480400C
:1056C000039003980190FFE7FFE70020029043F664
:1056D0004000C4F20200016841F08051016000689E
:1056E00000F08050029002980090FFE7052000F043
:1056F0005DF804B080BD000080B582B001468DF831
:1057000007009DF907000028009101DBFFE707E093
:1057100043F67050C0F60100BE210AF01DF8FFE705
:105720009DF9070009F09CFF02B080BD80B58AB0EA
:1057300013468C4686468DF8270008910792002074
:10574000069007980F280593CDF810C0CDF80CE00F
:1057500001D8FFE707E043F67050C0F60100AA2128
:1057600009F0FAFFFFE708980F2801D8FFE707E0E4
:1057700043F67050C0F60100AB2109F0EDFFFFE7E2
:1057800009F08AFF06909DF92700DDF818E00899D6
:10579000079A0290704604F091FC02990190084625
:1057A000019909F081FF0AB080BD000080B582B088
:1057B0000146019001980728009110D0FFE7019859
:1057C00006280CD0FFE70198052808D0FFE70198CC
:1057D000042804D0FFE70198032801D1FFE707E080
:1057E00043F67050C0F60100922109F0B5FFFFE7C3
:1057F000019809F07FFF02B080BD000084B00A4626
:10580000034603908DF80B100192009304B070478B
:1058100084B00A4603460390ADF80A10BDF80A00AA
:1058200003990968486200200192009304B0704710
:1058300080B587B013468C46864606908DF81710C3
:10584000ADF8142006980068406A03909DF8170090
:1058500000280293CDF804C0CDF800E009D1FFE79D
:10586000BDF81400039941EA00400699096888626E
:1058700033E006980068806A039901EB10400390BA
:1058800000208DF81300FFE79DF813009DF8171016
:105890000139884213D2FFE7069800689DF813107B
:1058A00000EB8100D0F80401039901EB1040039054
:1058B000FFE79DF8130001308DF81300E4E7BDF811
:1058C0001400039941EA0040069909689DF81720E1
:1058D00001EB8201C1F80001FFE7002007B080BDA5
:1058E00080B584B0014603900398D0F80404029177
:1058F00007F0BCFA019004B080BD000080B586B00E
:105900000A46034605908DF813100598D0F8041444
:105910009DF813C0CCEBCC0E00EB8E00806C039096
:1059200008466146DDF80CC002926246019307F01A
:1059300039F9009006B080BD80B586B00A460346AE
:1059400005908DF813100598D0F804149DF813C035
:10595000CCEBCC0E00EB8E00D0F80802039008468A
:105960006146DDF80CC002926246019307F0EAF945
:10597000009006B080BD000080B584B00146039061
:105980000398D0F80404029107F078FA019004B06B
:1059900080BD000080B588B00A46034606908DF8A9
:1059A00017109DF8170000060028039202930FD5E8
:1059B000FFE706989DF8171001F00F01C1EBC10138
:1059C00000EB81003C3004900498012141700FE00D
:1059D00006989DF8171001F00F01C1EBC10100EB13
:1059E000810000F5FE700490049800214170FFE7EB
:1059F0009DF8170000F00F0004990870FFE7069863
:105A000090F8BC03012804D1FFE702208DF81F00A5
:105A100015E00698012180F8BC13FFE7FFE7069820
:105A20000068049908F0A8FC0190FFE7069800219F
:105A300080F8BC13FFE700208DF81F00FFE79DF8FA
:105A40001F0008B080BD000080B588B00A4603463C
:105A500006908DF817109DF8170000F00F000699BA
:105A6000496888420392029304D9FFE701208DF828
:105A70001F004EE09DF81700000600280FD5FFE735
:105A800006989DF8171001F00F01C1EBC10100EB62
:105A900081003C3004900498012141700FE0069889
:105AA0009DF8171001F00F01C1EBC10100EB81005F
:105AB00000F5FE700490049800214170FFE70498FF
:105AC000002181709DF8170000F00F000499087004
:105AD000FFE7069890F8BC03012804D1FFE70220F5
