:020000040800F2
:10000000E861002029030008C5A20008F596000851
:10001000C1A20008D9330008A1F5000800000000C3
:1000200000000000000000000000000099B7000878
:1000300081350008000000005DA70008F9B700083E
:100040004303000843030008430300084303000878
:1000500043030008430300088535000843030008F4
:100060004303000843030008430300084303000858
:100070004303000843030008430300084303000848
:100080004303000843030008430300084303000838
:1000900043030008430300084303000891350008A8
:1000A0004303000843030008430300084303000818
:1000B0004303000843030008430300084303000808
:1000C00043030008430300084303000843030008F8
:1000D000430300081DC2000843030008430300084F
:1000E00043030008430300084303000843030008D8
:1000F00043030008430300084303000843030008C8
:1001000043030008430300084303000843030008B7
:1001100043030008430300084303000843030008A7
:10012000430300081D34000843030008430300088C
:100130004303000843030008430300084303000887
:1001400043030008430300084303000849A30008D1
:100150004303000843030008430300084303000867
:100160004303000843030008430300084303000857
:1001700043030008430300080D340008000000009A
:10018000430300084303000800F002F800F0BAF847
:100190000AA090E8000C82448344AAF10107DA45E2
:1001A00001D100F0AFF8AFF2090EBAE80F0013F07A
:1001B000010F18BFFB1A43F0010318475C10010040
:1001C0007C1001000A444FF0000C10F8013B13F0C2
:1001D000070408BF10F8014B1D1108BF10F8015BA0
:1001E000641E05D010F8016B641E01F8016BF9D193
:1001F00013F0080F1EBF10F8014BAD1C0C1B09D1EA
:100200006D1E58BF01F801CBFAD505E014F8016B5B
:1002100001F8016B6D1EF9D59142D6D370470000ED
:100220000023002400250026103A28BF78C1FBD8FF
:10023000520728BF30C148BF0B6070476E2900F0DD
:100240009982702900F0E783662910F0CA84652935
:1002500010F0C784672910F0C484612910F0C384AA
:1002600003681B0A28BF41F08001692900F046821B
:10027000642900F04382752900F040826F2900F064
:100280007583782900F0B383E92900F00F83E4290E
:1002900000F00C83F52900F00983EF2900F0728348
:1002A000F82900F0B2830368DB0928BF41F0800120
:1002B000632901F08B84732901F09084E32901F014
:1002C0009B84F32901F0A084002070471FB510F033
:1002D00073FC9DE8030000F079F901F0E9FF0400E8
:1002E0000020002110F0F4F8401C60600020002184
:1002F00010F0D8F8E06000F015F88DE80F001FBD91
:1003000010B510BD01F0A6FF1146FFF7DFFF0FF09B
:1003100007FA02F081FA03B4FFF7F2FF03BC0FF013
:10032000B1F9000000F07ABF09488047094800474A
:10033000FEE7FEE7FEE7FEE7FEE7FEE7FEE7FEE795
:10034000FEE7FEE704480549054A064B70470000F2
:10035000D5B8000889010008E8210020E8610020E4
:10036000E8410020E8410020704770B5064600F0E3
:1003700011F9056806F10B0020F00704B4429CBF98
:10038000002070BD2B466A68BAB11068A04210D335
:1003900004F1080188423CBF5068586007D3516897
:1003A000101941601168091B016058601460101D2C
:1003B00070BD13465268002AE7D12146284600F056
:1003C000F1F80028DED170BD70B50446051F00F0BD
:1003D000E1F80068002C14BF446870BD002C18BF01
:1003E000AC423CBF20466468F8D301680A18AA42B0
:1003F00018BF456003D12A6805461144016028688A
:100400004119A1421CBF6C6070BD616869602168C0
:100410000844286070BD53EA020C00F069802DE9A1
:10042000F04B4FF00006002B1FBFB3FA83F503FA21
:1004300005F424FA05F65E4012BF1643B2FA82F5BF
:1004400002FA05F4C5F120051EBF22FA05FC44EAB4
:100450000C04203556EA044C4FEA144418BF641CBF
:100460004FF000084FF00009904271EB030C39D3B4
:10047000002919BFB1FA81F701FA07F6B0FA80F73F
:1004800000FA07F6C7F120071EBF20FA07FC46EA6C
:100490000C062037B6FBF4FCA7EB0507103F07F06E
:1004A0001F0BCBF120062CFA06F60CFA0BFB44BF0F
:1004B000B3460026202FA4BF5E464FF0000B5BEA38
:1004C000060C08BF4FF0010B19EB0B0948EB0608AF
:1004D000ABFB027C06FB02CC0BFB03CCC01B71EB1D
:1004E0000C01C1E70B46024641464846BDE8F08B89
:1004F00013B54FF000004FF00001AFF30080BDE8EE
:100500001C4070470FB4044910B503AA029800F0CC
:100510005DF910BC5DF814FBFC1300200FB400B5AE
:1005200089B00BA86A46009003480A9900F004FDC0
:1005300009B05DF814FB0000A81300204FF0000282
:1005400000B5134694469646203922BFA0E80C50C9
:10055000A0E80C50B1F12001BFF4F7AF090728BFA4
:10056000A0E80C5048BF0CC05DF804EB890028BF20
:1005700040F8042B08BF704748BF20F8022B11F049
:10058000804F18BF00F8012B7047704770477047C5
:1005900070470000004870474001002070477047D6
:1005A0007047704738B504460A4600206946AFF3E5
:1005B0000080002808BF38BD02460099204600F0A0
:1005C000B7FE012038BD012001F03DBEF8B5AFF304
:1005D0000080054600200C46102000BF0646A819E2
:1005E000A0420DD9324669460020AFF300800700D3
:1005F00008BF01F028FE0098A04218BF0546C419A4
:10060000FFF7C8FF05600746F01D20F007004619F8
:10061000284600F00AF8B44208BFF8BDA21B3146D4
:100620003868BDE8F84000F083BE00210160C0E9F1
:10063000011070471020704770B504468569006846
:10064000C10601D5302600E02026C00707D070BDC6
:10065000D4E9012130469047206A401C20626D1E7B
:10066000F6D570BD70B5044685690078C00707D11E
:1006700070BDD4E9012120209047206A401C2062EF
:100680006D1EF6D570BD09684A0501D540B27047A8
:10069000C905FCD500B2704709684A0501D5C0B24A
:1006A0007047C905FCD580B2704770B50C46054649
:1006B000012A05D02878800600D5EA69002302E0E7
:1006C000012305E05B1C934202D2E05C0028F9D1D3
:1006D000A869E618C01AA861286A18442862284642
:1006E000FFF7AAFF04E0D5E9012114F8010B9047B8
:1006F000B442F8D32846FFF7B5FF70BD2DE9F041AD
:100700000646002410687529314616A510D0FFF75B
:10071000BAFF002802DA404213A507E031688A07D1
:1007200001D512A502E0490704D511A5012401E075
:10073000FFF7B2FF00210A2206F1240709E0B0FB0F
:10074000F2FCB0FBF2F302FB1C0030307854184688
:10075000491C0028F3D123462A463046BDE8F04123
:1007600000F045BE000000002D0000002B0000003E
:100770002000000011680268006A530501D5087066
:100780000AE0D30501D5088006E0130603D5C21799
:10079000C1E9000200E008600120704701694A1CBD
:1007A00002610878704700B58FB0CDE901310021B2
:1007B000059105497944CDE903101146684600F0DA
:1007C00035F90FB000BD0000E5FFFFFF074B70B526
:1007D0000D467B44FFF7E7FF0446284601F0EBFC9B
:1007E00010B14FF0FF3070BD204670BD07EF000024
:1007F0002DE9FF5F15468A460446DFF8AC80F844D1
:100800000027D8E900103E46CDE9001010E03AF884
:1008100016106A4602A801F0F2FC411C07D02178AC
:10082000890603D5E269391891420DD80744761C30
:100830002078800602D5E069B84205DDAE42E6DBED
:100840003AF816000028E2D1A069C01BA06120463A
:10085000FFF7F2FED8E90010CDE90010002017E004
:100860003AF818106A4602A801F0C9FCB0F1FF3F3F
:1008700081460BD000250DF1080B05E0D4E90121DC
:100880001BF8050090476D1C4D45F7D308F101009A
:10089000B0428046E4DB206A384420622046FFF7FD
:1008A000E1FEBDE8FF9F0000E60401002DE9F041F4
:1008B0008046D21D22F007020025D2E90002F52968
:1008C00015A614D0011E72F1000106DA0023D0EB48
:1008D000030063EB020211A608E0D8F800108B07B2
:1008E00001D50FA602E0490701D50EA60125114644
:1008F000002408F1240704E000F034FD30323A55BA
:10090000641C50EA0102F7D12B463246214640468C
:10091000BDE8F04100F06BBD000000002D000000BC
:100920002B0000002000000030B4002100F124045E
:1009300008E002F00705D208303542EA4372DB08CE
:100940006554491C52EA0305F3D10468002310A240
:10095000250708D504F020040C4304D0C469012302
:100960000CA2641EC46130BC00F041BD10B5044649
:1009700021461068FFF790FE02462046BDE8104071
:100980000023D1E7D21D22F00701D1E90023CBE7F4
:100990000000000030000000F0B40D460188090599
:1009A00002D5214C7C4402E01F4C7C440E340021D3
:1009B00000F1240608E002F00F071209E75D42EAA1
:1009C00003721B097754491C52EA0307F3D10278DA
:1009D0000023120704D5702D06D009B1022311346B
:1009E0002246F0BC00F003BD01231034F8E770B5D7
:1009F00004460D4621461068FFF74EFE0246294682
:100A00002046BDE870400023C6E7D21D22F0070350
:100A1000D3E90023C0E70368126843F020030360B2
:100A20000823C3610023B7E7480301002DE9F05F05
:100A3000894604464FF0000ADFF874B1FB44C0F861
:100A400020A02046E1688847002874D0252806D0D9
:100A5000D4E901219047206A401C2062F1E700267A
:100A60005F462046E16888472028054607DB312D90
:100A700005D2781910F8200C08B10643F1E7B00749
:100A800001D526F00406C4F81CA00027C4F818A05D
:100A90002A2D09D028460FF0B6FC38B304EB87089E
:100AA000303DC8F8185019E059F8041B204604EBF3
:100AB00087029161E1688847012F054618D1E069F6
:100AC000002820DA26F020061DE0D8F8180000EBF8
:100AD000800005EB40003038C8F818002046E16877
:100AE000884705460FF08FFC0028EED1012F0AD071
:100AF0002E2D08D12046E16888477F1C0546022F2D
:100B000046F02006C4DBA069002803DA404246F024
:100B10000106A061F00701D026F010066C2D0BD065
:100B2000682D09D04C2D39D06A2D35D0742D35D093
:100B30007A2D33D016E038E0E1682F46204688470A
:100B4000B842054609D16C2F26D04FF48060E16889
:100B5000064320468847054604E06C2F1AD04FF420
:100B6000807006430DB3A5F14100192802D8203545
:100B700046F400664A462946204626604E46FFF760
:100B80005DFB80B101280BD0F61D26F0070000F1B7
:100B9000080956E74020E4E78020D8E70020D6E7A0
:100BA00006F104094DE7284652E7206ABDE8F09FA8
:100BB000D80201002DE9FF4F1C4691464FF0FF354A
:100BC00081B000218A468846D4E90167A16902986C
:100BD0006D1C8847216A834688470028F6D1BBF1FF
:100BE000FF3F0CD0002F26F4C0661ADD700615D525
:100BF000BBF12B0F0AD0BBF12D0F0FD104E04FF04A
:100C0000FF3005B0BDE8F08F46F48066A169029818
:100C10006D1C88477F1E8346002F02DDBBF1300F1D
:100C200003D0B9F1000F2AD025E0A1696D1C02980C
:100C30007F1E46F400768847002F834605DDBBF112
:100C4000780F06D0BBF1580F03D0B9F1000F10D0C8
:100C500011E0B9F1000F02D0B9F1100F0BD1A16969
:100C60006D1C02987F1E26F400768847834610206C
:100C700000E0082081464FEAE970009017E00A2062
:100C8000F8E74346AAFB0928DDF800C07F1E03FBF6
:100C9000098046F4007605F101050AFB0C0112EB10
:100CA0000B0A029841EBEB78A16988478346002F35
:100CB00006DD4946584600F0ABFF5FEA000BE0D581
:100CC000E16902988847B00502D46FF0010098E707
:100CD000F00718D1700610D55146700505D50023D0
:100CE000D1EB030163EB080200E042462068031DDC
:100CF00023600068C0E9001205E02068011D216042
:100D00000068C0E900A828467BE72DE9FF5F1D4683
:100D10004FF0FF3B91464FF000085F46D5E9014692
:100D2000A96901987F1C8847296A8246884700285C
:100D3000F6D1BAF1FF3F0CD0002E24F4C06419DDC7
:100D4000600614D5BAF12B0F09D0BAF12D0F0ED1D0
:100D500003E0584604B0BDE8F09F44F48064A969FC
:100D600001987F1C8847761E8246002E02DDBAF16C
:100D7000300F03D0B9F1000F26D032E0A969761EFA
:100D800001987F1C44F400748847002E824605DDDC
:100D9000BAF1780F06D0BAF1580F03D0B9F1000FAD
:100DA00010D01EE0B9F1000F02D0B9F1100F18D128
:100DB000A969761E01987F1C24F400748847824636
:100DC000102002E0082000E00A20814609E0A9691D
:100DD00008FB0908761E01987F1C44F400748847BC
:100DE0008246002E05DD4946504600F011FF0028DE
:100DF000EDDAE96901988847A00502D46FF0010097
:100E0000A8E7E00725D1600613D5600502D5C8F133
:100E1000000000E0404629680A1D2A600968220592
:100E200001D5087015E0220701D5088011E008609F
:100E30000FE02868011D29600068210502D580F8AF
:100E4000008006E0210702D5A0F8008001E0C0F88C
:100E5000008038467EE72DE9FF5F4FF00008994695
:100E6000144646469169D2E901A7DDF838B00198E9
:100E70008847054659EA0B0005D009E0A1690198A9
:100E8000761C88470546216A284688470028F5D100
:100E9000681C03D05FEACA7005D015E04FF0FF3040
:100EA00004B0BDE8F09F2068011D2160D0F80080EB
:100EB0000AE05FEACA7001D108F8015BA169761CFB
:100EC00001987F1E88470546002F1ADD681C18D040
:100ED000B9F1000F0DD0E81705EBD060421120F0FA
:100EE0001F0059F822102A1A012090400142E0D137
:100EF00007E0BBF1000FDCD12846216A88470028B3
:100F0000D7D0E16901988847BBF1000F07D1002EC7
:100F100005DD5FEACA7002D1002188F80010A068E0
:100F2000B84203DDBBF1000F03D017B16FF0010031
:100F3000B6E73046B4E70000034B7B449361034BB4
:100F40007B44D36101F0F4B873E700002D12000078
:100F50002DE9FF4F4FF000089A461446C146464619
:100F600083B0D2E901B7CDF80080CDF80480916953
:100F700004988847109905465AEA010005D009E00F
:100F8000A1690498761C88470546216A2846884747
:100F90000028F5D1681C03D05FEACB7005D02AE0A9
:100FA0004FF0FF3007B0BDE8F08F2068011D2160D1
:100FB000D0F800801FE002A86A46E9B201F0FFF80D
:100FC000411C07D0801C09D04FF000095FEACB70AC
:100FD00007D00AE0E169049888473EE04FF0010934
:100FE00004E0BDF8081028F8021B7F1EA1690498D0
:100FF000761C88470546002F1ADD681C18D0BAF108
:10100000000F0DD0E81705EBD060421120F01F0053
:101010005AF822102A1A012090400142CBD107E051
:1010200010980028C7D12846216A88470028C2D0D6
:10103000E16904988847B9F1000F0ED1109830B9D2
:10104000002E04DD5FEACB7001D1A8F80000A06893
:10105000B84202DD109818B117B16FF00100A1E796
:1010600030469FE72DE9FF4F4FF000089B4614469E
:10107000454683B0D2E90196CDF80080CDF80480D2
:101080009169DDF848A00498884707465BEA0A00A2
:1010900005D009E0A16904986D1C88470746216ABC
:1010A000384688470028F5D1781C03D05FEAC9701C
:1010B00005D01BE04FF0FF3007B0BDE8F08F20688F
:1010C000011D2160D0F8008010E05FEAC97007D1EF
:1010D0006A464046B9B201F092F8411C31D08044D2
:1010E000A1696D1C0498761E88470746002E14DD02
:1010F000781C12D0BBF1000007D03B46DDE910128E
:1011000001F026F80028E0D107E0BAF1000FDCD1A9
:101110003846216A88470028D7D0E1690498884773
:10112000BAF1000F06D1002D04DD5FEAC97001D1CC
:1011300088F80000A068B04203DDBAF1000F03D0C8
:1011400016B16FF00100B7E72846B5E72DE9FF5F5C
:101150009B46144600273D469169D2E90196DDF889
:1011600040A00198884780465BEA0A0005D009E064
:10117000A16901986D1C88478046216A40468847CE
:101180000028F5D1B8F1FF3F03D05FEAC97005D060
:1011900014E04FF0FF3004B0BDE8F09F2068011D5F
:1011A000216007680AE05FEAC97001D127F8028B65
:1011B000A1696D1C0198761E88478046002E15DDBA
:1011C000B8F1FF3F12D0BBF1000007D04346DDE984
:1011D0000E1200F0BDFF0028E5D107E0BAF1000FC4
:1011E000E1D14046216A88470028DCD0E1690198B6
:1011F0008847BAF1000F05D1002D03DD5FEAC97001
:1012000000D13880A068B04203DDBAF1000F03D0EE
:1012100016B16FF00100BEE72846BCE72DE9FE4F8E
:1012200000274FF48074BA4620468DF80070FFF70F
:101230009CF85FEA000801D101F005F8214640461C
:101240000EF01AFA060009D04FF0010B4546C146D0
:1012500016F8014B8FB15C2C16D01CE008F1080089
:101260004146C8F800000020C8F80400D8F8004043
:101270002070012003B0BDE8F08F222C01D0272C74
:101280000FD12746BA462CE03078222807D05C28B8
:1012900005D0272803D0BC4203D1002721E0761CCB
:1012A00004464CB12FB9202C06D0A4F10900042823
:1012B00002D905F8014BCBE74D4502D1BAF1000F39
:1012C0000FD052464946002005F8010B6846AFF39F
:1012D00000809DF8000068B14D464FF0000A0BF108
:1012E000010B002CB4D14FEA8B00FFF73EF804004D
:1012F00002D004E0A946F0E7002000F0A4FF002699
:101300004046C4F8008005E010F8011B11B9761CB6
:1013100044F82600A842F7D32146002044F82600CE
:101320003046A7E7004870473801002070477047F3
:10133000034640688C46002818BF88423CBF0346DD
:101340004068F8D318681844884207D00CF10300AD
:1013500020F00700001D411A521A0146081D0A60BC
:10136000FFF732B830B5B0F10A0271F100034FEA6D
:10137000900E4EEA817EB0EB0E0061EB91014FEAD8
:10138000101E4EEA017E10EB0E0041EB11114FEAE8
:10139000102E4EEA016E10EB0E0041EB11214FEAC8
:1013A000104E4EEA014E10EB0E0041EB1141401879
:1013B00041F100014FEAD00040EA41704FEAD1010B
:1013C0004FEA810444EA907410EB800544EB010479
:1013D0006D1944EB0404521BA3414FF0000348BFB6
:1013E0000A3200D530BD401C41F1000130BD2DE96D
:1013F000F0470D4699469246044600F124080168DC
:10140000880604D5E06921F01001216000E0012088
:10141000A84201DD471B00E00027A1697A1902EB11
:101420000900081AA0612078C00602D42046FFF700
:1014300003F9002608E0D4E901211AF806009047D4
:10144000206A401C761C20624E45F4DB2078C006E2
:101450000AD52046FFF7F0F806E0D4E90121302054
:101460009047206A401C2062381EA7F10107F4DC77
:1014700007E0D4E9012118F805009047206A401CD4
:101480002062281EA5F10105F3DC2046FFF7EAF8EB
:101490002078000602D50220BDE8F0870120FBE796
:1014A0002DE9FF4F0C461E464FF0FF378BB0D2E9B7
:1014B0000001DDF860800A908A46C1F30A5505B93B
:1014C0003D46002108464FF00000BAF1000F00F43D
:1014D000400005DA00EB80004FF4400101EA5000C3
:1014E0004FEA9059B9F1010F00DDB9460A9850EA68
:1014F0004A000ED044F61050A5F2FF3545432F1494
:10150000B8F1000F1ED07542291E1EDDC9F1000280
:101510001CE0B8F1010F4FF0000001D0302103E0D2
:10152000F24305E02154401CB042FBDB3046002270
:10153000002121540B99C1F80880C1E900200FB0A7
:10154000BDE8F08FBD1B6D1CDEE74A4600DA69423C
:1015500006A801F0CBF806AB93E8070003AB83E8DD
:10156000070050460A990EF0EBF98DE80700A0F548
:1015700000501F3800900398002D0ADD42F21F0131
:101580004A460844002303A9039068460EF096FCDF
:1015900009E0A0F500504A461F38002303A9039034
:1015A00068460EF0B5FC8DE807000004000C03D07F
:1015B0004FF0FF30410800E01046B8F1000F03D0B3
:1015C0000022009215461EE0751E05D4FFF7CAFEE4
:1015D000303262556D1EF9D5B3460122084302D060
:1015E00000227F1C04E02078302801D100227F1ED9
:1015F000002A099784D01DE0112D07DAFFF7B2FE0B
:10160000303262556D1C50EA0102F5D1084302D018
:101610000098C8B10EE00021681E05E0235C625C02
:1016200063542254401E491C8142F7DBAB46A81B81
:10163000401E0990002004F80B000B98099AC0F88E
:101640000880C0E9002B7AE711264FF0000857E721
:101650002DE9F04F88460446D21D22F0070191B0D3
:10166000D1E90001CDE90A010EF09EFD02460B987A
:10167000C00F01D02D2007E02068810701D52B2065
:1016800002E0202101EAC000032A099001D0072AC4
:1016900005DB03464146204600F02EFE0BE1207894
:1016A000800601D5E06900E00620B8F1650F8146AB
:1016B00006D0B8F1660F18D0B8F1670F70D131E0DD
:1016C0000020B9F1110F009001DB112301E009F1B5
:1016D00001030AAA01A90CA8FFF7E2FEDDE90C70DC
:1016E000002609F10105834647E001204B460090A2
:1016F0004FF000470AAA01A90CA8FFF7D1FEDDE9C7
:101700000DB00C995D46002610B909F101000D18C5
:10171000B9EB050003D4C0F1FF3609F10105A5EBD3
:1017200009002BE0B9F1010F01DA4FF001090020A7
:10173000B9F1110F0090484601DD112300E0034686
:101740000AAA01A90CA8FFF7ABFEDDE90C704D4613
:1017500000268346207800070AD4AB4500DA5D46B0
:1017600001A8012D04DD411911F8011C302907D011
:101770004F4502DA17F1040F04DA012082460FE028
:101780006D1EEEE7002F02DCED1B3E4403E0781CEB
:10179000A84200DD7D1CB81B00F1010A4FF0004794
:1017A0002078000703D4AA4501DB4FF0FF3A00215F
:1017B000B7F1004F0DF143088DF8431024D00220FB
:1017C0002B23002F01DA7F422D230A21021EA0F1D4
:1017D000010000DC5FB197FBF1FC97FBF1F201FB2C
:1017E0001C7C17460CF1300C08F801CDEEE7A8F18F
:1017F000010003702188090501D5452100E065211C
:10180000A0F1010800F8011C09980FA9A1EB080735
:10181000FF1D00B10120411901EBEA70A1693844B4
:10182000081A401EA0612078C00602D42046FEF7A8
:1018300003FF099828B1D4E901219047206A401C90
:1018400020622078C00622D52046FEF7F5FE1EE075
:10185000002E04DBB34502DD01A8805D00E03020EE
:10186000D4E901219047206A401C2062761CAAF12D
:1018700001005FEA000A0AD100F01AFDC0680168A1
:10188000405CD4E901219047206A401C2062281E58
:10189000A5F10105DCDC07E0D4E9012118F8010B12
:1018A0009047206A401C2062381EA7F10107F3DC34
:1018B0002046FEF7D7FE032011B041E62DE9F04F98
:1018C00004460D46D21D22F0070089B0D0E90097EA
:1018D000484639460EF068FC0246F80F01D02D2329
:1018E00007E02068810701D52B2302E0202101EACF
:1018F000C0038DF820300BB1012000E00020032A46
:10190000824601D0072A04DB2946204600F0F4FC79
:101910003FE12078800601D40D2500E0E569C7F39A
:101920000A560D2D49DA00214FEA175B08464FF0A1
:101930000000002F00F4400007DA00EB80004FF4B5
:10194000400100EBD07001EA60008115012901DD42
:101950004FF0FF3100224FEA850CBCF1180F06D37F
:101960001346ACF118004FF08052C24003E04FF430
:10197000801323FA0CF30CF10C0CBCF1200F04D3F0
:10198000ACF1200C09FA0CF001E007FA0CF0002988
:101990004FF0004801DD18B90FE00ED140450CD3DF
:1019A00019EB02095F4121B9404502D19F4329EA61
:1019B0000209BBEB175F00D0761C2088000502D51A
:1019C0007B48784402E07A487844193808AA3023E2
:1019D00002F80A30037C0AF10101002E0AF1020A22
:1019E00053546A4602DC4FF0300101E04FF0310100
:1019F0004FF001088DF8001002D0A6F2FF3603E088
:101A000059EA470100D06B4E002D02DC217809070E
:101A100004D54FF002082E218DF80110C446002194
:101A20000BE0C7F303433F01C35C491C6D1E02F882
:101A30000830052908F1010801DA002DF1DC002148
:101A40000CE000EB1973491C1B786D1E082902F885
:101A500008304FEA091908F1010801DA002DF0DC1D
:101A600021688B0602D516E0A8F10108E04505DDE6
:101A700002EB080313F8013C302BF5D0B8F1000F4E
:101A800009DD02EB080313F8013C2E2B03D10907F3
:101A900001D4A8F10108002D05DD3E2102F808104F
:101AA0006D1E08F10108407C002E02F8080008F1C4
:101AB000010804DA2D20764202F8080002E02B200B
:101AC00002F808000A214FF47A70864208F10108F2
:101AD0000BDB96FBF0F3303302F8083096FBF0F3A3
:101AE00008F1010800FB136601E0642E0CDB6420A2
:101AF00096FBF0F3303302F8083096FBF0F308F170
:101B0000010800FB136601E00A2E06DB96FBF1F0EC
:101B1000303002F8080008F1010896FBF1F001FBF3
:101B20001060303002F80800A16908F1010808EBE4
:101B3000050202EB0A00081AA0612078C00602D450
:101B40002046FEF779FD216A08AE01EB0A0020620B
:101B500004E0D4E9012116F8010B9047BAF1010A1B
:101B6000F7D22078C00602D52046FEF765FD6E4606
:101B700009E016F8010B3E280FD0D4E90121904767
:101B8000206A401C2062B8F10108F2D22046FEF71C
:101B900069FD09B00320BDE8F08F206A2844206267
:101BA00003E0D4E90121302090476D1EEBD3F8E724
:101BB00076F3000002FCFFFF10B5436913B1AFF3E9
:101BC000008001E0FEF771FD012010BD127800F1E8
:101BD00024010A7000224A700122EDE711684FF0DB
:101BE000FF32E9E710B5436913B1AFF3008001E0BC
:101BF000FEF7FEFD012010BD128800F12401828451
:101C00000022C2840122EDE711684FF0FF32E9E7BC
:101C10003A2800D2303820F02002412A01D3A2F124
:101C20003700884201D34FF0FF3070472DE9FF4F56
:101C300006468BB00878FF2806D0491C2D2805D011
:101C400000244FF0000908E000200CE00124F8E730
:101C500009EB8903491C00EB43090878FF28F7D1F9
:101C600014B1C9F100008146107800252C46AA461F
:101C700029462D2801D02B2804D1521C2D2813D001
:101C8000002082468B461078FF280FD04FF0000CC2
:101C90000A21521CA5FB017804FB018105FB0C11F4
:101CA000C5194BEB0104EEE70120EAE700210846E5
:101CB0004FF00000BAF1000F02D000EB80004008A6
:101CC000C0F38157012F01DD4FF0FF370E9955EA20
:101CD000040009EB01080BD04FF0020918F5FA7F58
:101CE00016DA4FEACA70002F706008DD012007E0A5
:101CF0004FEACA70C6E900B00FB0BDE8F08F00200F
:101D0000306000F0D9FAC0F800901821084616E0BB
:101D1000B8F5FA7F18DD002F02DAF748784401E0C1
:101D2000F6487844D0E90010C6E9001040EACA70CD
:101D3000706000F0C1FAC0F80090142108460FB09E
:101D4000BDE8F04F0EF04ABF002108464FF00000FA
:101D5000B8F10001099002DAC7F1000200E03A464A
:101D600001DAC8F1000106A800F0C0FC06AB93E858
:101D7000070003AB83E8070044F23E005BEA04017E
:101D80000090584604D144F21E012C465D46009155
:101D9000210C0904014306D10099240444EA1544A6
:101DA0002D041039009104F07F41014306D10099C0
:101DB000240244EA15642D020839009104F07041B0
:101DC000014306D10099240144EA15742D01091F2D
:101DD000009104F04041014306D10099A40044EA77
:101DE0009574AD00891E009104F00041084304D1B0
:101DF00000986D196441401E00904FF001033A466F
:101E00006846B8F1000FCDE9014503A902DD0EF0E7
:101E100094F801E00EF067F8BAF1000F04460D46A1
:101E200001D084F00044002108464FF000000999D9
:101E300040F2FF77484010F00C0F07D124F000402B
:101E4000284303D0C4F30A50B84212D100F034FA48
:101E5000C0F80090C4F30A50B8420AD1A8487844A8
:101E6000D0E90010C6E9001004F00041084370609A
:101E700042E7C6E900543FE72DE9FF4F1F464FF008
:101E8000000A4FF0FF38454691B0D7E90146CDF83A
:101E90003CA000F00DFAC0680168405C1090B96980
:101EA00012986D1C8847396A814688470028F6D108
:101EB000B9F1FF3F0AD0002E24F4D06411DDB9F14E
:101EC0002B0F08D0B9F12D0F0BD102E0404615B011
:101ED00013E744F48064B96912986D1C8847761E34
:101EE0008146600504A901D52D2000E02B20002E9D
:101EF00001F1010B0DF130088DF810003FDDB9F153
:101F0000690F08D0B9F1490F05D0B9F16E0F02D0B1
:101F1000B9F14E0F1CD13B4601A8009580E8500254
:101F2000DDE912126FF002000EF0C3FEC11CCED12B
:101F30000EE0B96912986D1C884781461398761E89
:101F400044F4007405600F98401C002E0F9016DDBD
:101F5000B9F1300FEDD0B9F1780F02D0B9F1580FC7
:101F60000DD10F9801280AD13B46CDE90054DDE997
:101F70001212001F02960EF09AFEC11CA7D11099F2
:101F800089453ED144F0800406E01399681CAAF10B
:101F9000010A44F400740860B9696D1C1298761E39
:101FA000884730288146F0D02BE01099894505D12B
:101FB000200603D4761E44F0800418E048460EF054
:101FC00022FA08B3761E0DF123029345A9F13000E1
:101FD00044F4007406D20BF8010B200607D5AAF1D1
:101FE000010003E0200602D40AF101008246A005A8
:101FF00002D51399681C0860B96912986D1C88474E
:102000008146002ED1DC53E0002E51DDB9F1650F81
:1020100002D0B9F1450F4BD1A00549D5B9696D1C66
:102020001298761E24F440748847002E81460CDDF9
:102030002B2804D0B9F12D0F07D144F48074B9696D
:1020400012986D1C8847761E8146E00501D52D212A
:1020500000E02B2108F8011BCDF8008021E0761E5E
:102060000DF13901884544F400740CD2A9F1300017
:1020700010F0FF0088F8000002D10099884509D9C6
:1020800008F1010806E0E00501D51E4801E042F232
:102090000F708246B96912986D1C88478146139863
:1020A0000560002E04DD48460EF0ADF90028D6D1BB
:1020B000F96912988847FF2053468BF8000088F88A
:1020C000000000200A900B9004AA0CA90AA8FFF7B0
:1020D000ADFDA00502D46FF00100F8E614F0240F66
:1020E00012D0E0071CD13868DDE90A12031D3B60FD
:1020F0000068C0E9001213E020F5000012F50000AE
:10210000D6F30000F1D8FFFF0AA968460EF068F97F
:10211000E00705D13868009A011D39600068026047
:102120002846D4E6026811441378016018467047C7
:10213000D160054979445161044979441162002113
:102140001161114600F018B9EDFFFFFFA901000071
:1021500010B508E030F8024B9C4204D10AB10020CF
:1021600010BD012010BD491EF4D2104610BD7047AD
:1021700010B54FF0FF34C1688A020FD5036B426877
:102180009A420BD1014690F82520104600F020FB22
:10219000401C01D1204610BD002010BD11F0C00F21
:1021A000F8D1026941689142F4D90268491E521C73
:1021B000C0E90021F0E7007B00F080007047F8B52F
:1021C00016460C46054600F06BF8036893F80101CB
:1021D000012804D0185D78B101202C80F8BDD3F817
:1021E00003013246214603F20313C7186846002351
:1021F000B84700992980F8BD4FF0FF30F8BD2DE9B0
:10220000F04116460C46054600F04AF8036893F87C
:102210000101012807D0FF2C12D8185D80B10120E0
:102220002C70BDE8F081D3F807013246214603F255
:102230000713C7182846BC46BDE8F0410023604795
:102240004FF0FF30EDE710B500F0F4FABDE81040B4
:1022500000F0EBBA7546FFF765F8AE460500694633
:10226000534620F00700854618B020B5FEF76AF8FF
:10227000BDE820404FF000064FF000074FF0000887
:102280004FF0000BAC46ACE8C009ACE8C009ACE8C4
:10229000C009ACE8C00921F007018D467047000075
:1022A00010B500F005F8001D10BD00BF25E20000CC
:1022B000004870475801002000487047380100204E
:1022C000B2F120030AD5C2F1200301FA02F120FA8B
:1022D00003F341EA030100FA02F0704700FA03F148
:1022E0004FF00000704710B50446FFF7D9FF0068B3
:1022F000005D00F0010010BD2DE9F0411F460446CD
:1023000003260168072A01F4006004DB08B116A562
:1023100005E016A503E008B115A500E015A521F01C
:1023200010002060A069C01EA0610FB1401EA06116
:102330002046FEF781F94FB1D4E901213846904794
:10234000206A401C2062C01C206206E0206AFAE776
:10235000D4E9012115F8010B9047761EF8D22046EA
:10236000FEF780F9BDE8F0814E414E006E616E00CF
:10237000494E4600696E66002DE9F34F4FF0000AA2
:102380000C4656468DB001200C9001F10C000B90CC
:1023900062690B9801219047051E2DD0252D2CD068
:1023A000216A8847C0B162690B9801219047216A70
:1023B00088470028F7D16269411E0B98904700E0DA
:1023C000761CA1690D988847216A88470028F7D1B3
:1023D000E1690D988847DBE7A1690D988847A84215
:1023E000074601D1761CD3E7E1690D9888477F1C29
:1023F00002D1BAF1000F6FD06BE162690B98002730
:102400003D46394690472A2804D162690B9801213C
:1024100090470125DFF8D08262690B98012190472F
:10242000A0F130010A290AD24745E5DC07EB870114
:1024300000EB4107303FDFD445F01005ECE7E9063B
:1024400001D46FF000476C280AD04C2814D06828BB
:1024500015D06A280DD074281CD07A281AD01DE017
:1024600062690B98012190476C2802D045F0040561
:1024700014E045F002050DE045F020050AE0626930
:102480000B9801219047682802D045F0080505E027
:1024900045F4006562690B9801219047C4E9015732
:1024A00065283DD019DC58287AD00CDC452837D077
:1024B00004DC252826D041289ED131E046282FD0A3
:1024C000472899D12CE05B2877D0612828D0632851
:1024D0007CD0642823D15AE0F6E06F2848D008DC8D
:1024E00066281DD067281BD0692821D06E2816D1F8
:1024F00027E0702845D0732868D0752847D0782801
:102500000DD14DE0A1690D988847252805463FF477
:1025100069AFE1690D9888476D1C3FF46AAFD8E058
:102520000D9923466A466FF001000EF0BEFBC5E030
:1025300045F0400023464FF000026060A80736D403
:102540003EE0E8077FF447AF2068011D2160006886
:10255000290501D506701BE7290701D5068017E775
:10256000A90703D5F117C0E9006111E706600FE77D
:1025700045F0400023464FF008026060A80716D4DB
:102580001EE040F60E0125EA0100606016E045F00D
:10259000400023464FF00A026060A80707D40FE00E
:1025A00045F040006060A80708D5234610220D9929
:1025B0006FF00100FEF7FEFA80E007E010222346EC
:1025C0000D996FF00100FEF7A0FB77E04FF00009D6
:1025D00063284F46C8464B46CB4602D05B2806D000
:1025E00038E0E80601D40120A060012732E06269EA
:1025F000D4F80CB00B98012190475E2807D14FF01A
:10260000010949466269D4F80CB00B9890472169DA
:1026100039B900210A4603AB43F82120491C082997
:10262000FADBD8B3216949B308F1010862690B9854
:10263000012190475D28F4D1B9F1000F09D00020A5
:1026400003A951F82020D24341F82020401C08283B
:10265000F7DB03AB2069002820794FEA40701ED0D9
:102660005B462246CDF80080CDE901970D99002800
:102670006FF0010020DAFEF769FD1FE0C11703AA21
:1026800000EBD1614B1121F01F0102EB8302411AD3
:1026900013680120884003431360C7E719E00D99D0
:1026A000224600286FF00100009702DAFEF750FC86
:1026B00004E0FEF7D0FB01E0FEF7D4FC00280ADAC4
:1026C000401C06D10C9820B14FF0FF300FB0BDE890
:1026D000F08F5046FAE7E90701D10AF1010A0644F2
:1026E00000200C9054E60000CCCCCC0C2DE9F04737
:1026F000814616468AB0354878440DC88DE80D00ED
:1027000032487844801C03AC0DC884E80D0041F6C3
:102710009B300844372190FBF1F290FBF1F5A5F1D5
:10272000800501FB12041B3C02D56442012000E03D
:102730000020DFF898A080460027FA44AAF1BE0ADC
:102740000EE0E0070AD03246684607EB4701012356
:102750000AEB81010DF0DCFB8DE8070064107F1CA3
:10276000002CEED1194F7F44AE3F19E0E80715D099
:1027700007EB04100DF1180A90E80E008AE80E002D
:10278000C068F04201D1981908903246012306A989
:1027900003A80DF0BDFB03AB83E807006D10641CBC
:1027A000002DE3D14FF0010332466946B8F1000F26
:1027B00003A802D00DF082FB01E00DF0A9FBC9E9EE
:1027C0000001C9F808200AB0BDE8F087D0E6000093
:1027D000CA68431C0FD00D4B1A420CD1D3070AD044
:1027E00081F825004B680B6300238B6012F0C06FEB
:1027F0000B6003D004E04FF0FF30704742F00072EE
:10280000034B1A40034B1A43CA60704780200800EC
:10281000BFFFDFFF0010480010B50446AFF3008093
:102820002046BDE81040FDF776BD002801D00CF031
:1028300029BF704710B5012805D0002103A000F082
:1028400057FA012010BD09A1F8E70000534947528B
:10285000544D454D3A204F7574206F662068656170
:1028600070206D656D6F7279000000003A20486538
:102870006170206D656D6F727920636F7272757013
:102880007465640010B5FFF717FD006810BD10B542
:102890000446FFF711FD046010BD00002DE9FF4F55
:1028A0001F464FF03C0987B04FF00042DDE914109D
:1028B00001F10108DDF858A002EA40500390002021
:1028C00005908346054604460490B969461E08985B
:1028D0008847AAF1010A0290BAF1000F3BDD029885
:1028E0002E2815D01021FFF793F900282EDB4FF08A
:1028F000010B0599014317D0B9F1000F0BDB4A46D4
:10290000C117FFF7DDFC05430C43A9F1040905E0FD
:10291000012004900BE008B145F00105012005906D
:10292000049820B9361D02E0049800B1361FB96939
:10293000089808F101088847BBF1000FAAF1010AC5
:102940000290C9D00999C1F80080C5E702987028A3
:1029500008D0502806D0F96908988847BBF1000FC5
:1029600014D04FE0002002900120BBF1000F049032
:1029700009D0B969089808F101088847AAF1010946
:10298000B9F1000F07DCF969089888476FF001007A
:102990000BB0BDE8F08F2B2804D02D280CD14FF0C0
:1029A000FF300490B969089808F101088847A9F137
:1029B0000109B9F1000FE6DD411CE4D00A21FFF75F
:1029C00027F90028DFDB029908F1010801EB8101FA
:1029D00000EB41000290B969089888470A21FFF787
:1029E00017F9099AA9F10109B9F1000FC2F800809D
:1029F00001DD0028E7DAF969089888470499029808
:102A000000FB016655EA040004D004F040410900CF
:102A100002D006E0039898E0A40044EA9574AD0063
:102A2000B61E04F00041080002D16D196441761E03
:102A3000159810F0240F03D04FF00B095C4803E009
:102A40004FF028096FF07D008246564507DAAAEB61
:102A500006018944B9F1410F01DD4FF04109012020
:102A60000021A9F10102FFF72BFC024628400B468A
:102A70002140084301D0012100E00021501E0291B5
:102A800043F1FF3128402140084301D0012000E0FC
:102A900000200299834651EA0B014FD000210846DD
:102AA0004FF00000039900F4400039B100EB8000C2
:102AB0004FF4400100EBD07001EA6000801501285E
:102AC00002DD4FF0FF3000E013D0401C36D00298FA
:102AD00060B3BBF1000F0CD14A4601200021FFF783
:102AE000EFFB28402140084301D0012000E00020F6
:102AF000E0B101204A460021FFF7E2FB03464019FE
:102B00000A4661412D1A8C4111D3B9F1400F09DDFC
:102B1000159810F0240F02D0AAF1340603E0AAF1B0
:102B2000170600E0761C00254FF0004406E05B1E0F
:102B300042F1FF3220EA030521EA0204CAF1010052
:102B4000B04206DA1B490398084301900020009028
:102B50000EE0039AC4F3D321E80A0A43164940EA77
:102B600044500A433146CDE9000268460DF041FC6D
:102B7000159810F0240F0BD01598C00715D13868A0
:102B8000DDE90012031D3B600068C0E900120CE0A3
:102B900002A869460DF024FC1598C00705D13868D5
:102BA000029A011D3960006802604046F0E60000AC
:102BB00002FCFFFF0000F07F0000F03F2DE9FF4F17
:102BC00092461D4685B04FF00041DDE9124BDDE92C
:102BD00014727F1E01EA4B50414940F0FF4940EA20
:102BE0000108002122F020004928049102D04E283B
:102BF00028D04CE03BA0012607C88DE80700A96952
:102C00000698641C88477F1E014606D41DF80600FE
:102C100018B121F0200181420BD0E969069888475C
:102C2000032E34D0082E32D06FF0010009B0BDE879
:102C3000F08F761C032E01D0082EE0D1601CCAF85C
:102C40000000DCE7A9690698641C88477F1E2AD427
:102C500020F02000412826D1A9690698641C8847E5
:102C60007F1E20D420F020004E281CD1A969069890
:102C7000641C88477F1E48F4002849F48009CAF87C
:102C8000004001D4282806D0E969069888475FEA01
:102C9000CB7012D022E0A9690698641C88477F1E79
:102CA00001D4002803DAE96906988847BCE7292897
:102CB000F1D1641CCAF80040E9E71BF0240F07D0EB
:102CC00028680499031D2B600068C0E9001805E01E
:102CD0002868021D2A600068C0F800902046A5E719
:102CE0000000F07F494E46494E495459000000000B
:102CF00070B505460C460A2000E06D1C0CF0C8FCBF
:102D000035B128780028F8D102E0641C0CF0C0FC32
:102D100014B120780028F8D1BDE870400A200CF0EA
:102D2000B7BC00000000000030B44FF0013C50F888
:102D3000042B51F8043BCCFA52F4D51A20D1FCB93B
:102D400050F8042B51F8043BCCFA52F4D51A17D1A1
:102D5000B4B950F8042B51F8043BCCFA52F4D51A0C
:102D60000ED16CB950F8042B51F8043BCCFA52F454
:102D7000D51A05D1002CDAD030BC4FF000007047D6
:102D800029BAB1FA81F111F01801D1F12000844083
:102D9000F2D1CA40CB4012F0FF0213F0FF0330BC67
:102DA000D01A704780B582B042F29810C2F200008B
:102DB00041F65901C2F20001012206F05BFB0190CD
:102DC00002B080BD80B588B00020079006900590C5
:102DD000049040F66170C0F6010006A904AAFDF750
:102DE0009DFB9DED060B9DED041B694681ED001BCF
:102DF00053EC102B40F64671C0F6010103900846D3
:102E0000FDF780FB029008B080BD000080B586B061
:102E100013468C46864605900491039205980499C2
:102E20004FF47A7200FB02100293CDF804C0CDF883
:102E300000E000F007F8BDF80C0000F019F806B04B
:102E400080BD000080B582B0014601900091FFE78F
:102E50000198002809D0FFE74FF47A7000F008F8D5
:102E6000FFE7019801380190F2E702B080BD000051
:102E700080B586B00146ADF8160042F25810C2F295
:102E8000000002686FF001031361BDF81620C2F55F
:102E90007A7292B203685A62049105F01DFF0390A2
:102EA000FFE742F25810C2F2000000680069C00754
:102EB000002801D1FFE7F4E742F25810C2F2000007
:102EC000029005F0AFFFDDF808E0DEF800106FF0CB
:102ED00001020A61019006B080BD000080B586B095
:102EE000014605900598049000200290029A0191F5
:102EF000114600F019F8222000F03AF802980390E9
:102F0000FFE70398800A4A280BD8FFE70498039943
:102F100030F8110000F01EF8FFE70398013003902D
:102F2000EFE706B080BD000080B584B00A460346D6
:102F3000ADF80E00ADF80C10BDF80E102020029276
:102F4000019300F023F8BDF80C10212000F01EF8CA
:102F500004B080BD82B00146ADF80600BDF80600A1
:102F60008022C6F600421080009102B07047000037
:102F700082B00146ADF80600BDF806007E22C6F616
:102F800000421080009102B07047000080B584B00C
:102F90000A460346ADF80E00ADF80C10BDF80E0061
:102FA00002920193FFF7E4FFBDF80C00FFF7D2FF98
:102FB00004B080BD80B584B001468DF80F009DF847
:102FC0000F00024600280291019204D0FFE7019809
:102FD000012809D011E041F20040C4F202004FF490
:102FE000806102F0D1FA09E041F20040C4F202002F
:102FF0004FF4007102F0C8FA00E0FFE704B080BDB2
:1030000080B582B001468DF807009DF807000028C2
:1030100000910AD0FFE740F20040C4F202004FF4F2
:103020008041012202F0E2FA09E040F20040C4F2DD
:1030300002004FF48041002202F0D8FAFFE702B00C
:1030400080BD000080B586B0014605900598000B54
:103050000590059800030590049100F0ADF900F08B
:1030600021F80020FFF7CCFF202000F07DF99DF82B
:1030700016100390084600F077F99DF8151002909D
:10308000084600F071F99DF814100190084600F010
:103090006BF9012100900846FFF7B2FF00F002F83B
:1030A00006B080BD80B5FFE7012000F01DF9C00724
:1030B000002801D0FFE7F7E780BD000080B58CB0A5
:1030C00013468C4686460B900A9109920998B0F5F2
:1030D000807F0893CDF81CC0CDF818E001D9FFE738
:1030E00038E00B98000A0B900B9800020B9000F050
:1030F00063F90020FFF784FF022000F035F99DF806
:103100002EE00590704600F02FF99DF82DE0049018
:10311000704600F029F99DF82CE00390704600F00D
:1031200023F90290FFE7099800280DD0FFE70A98DD
:10313000007800F019F90190FFE70998013809902B
:103140000A9801300A90EEE70120FFF759FFFFF7D8
:10315000A9FFFFE70CB080BD80B58AB013468C464E
:1031600086460990089107920798B0F5805F04930E
:10317000CDF80CC0CDF808E001D9FFE754E009987C
:10318000000B0990099800030990099840F29811E2
:10319000C2F200014FF4805200F068F80998FFF77E
:1031A00051FF00200690FFE706980799884210D249
:1031B000FFE708980078069940F29812C2F20002E0
:1031C0005054FFE7069801300690089801300890A7
:1031D000EAE741F25040C2F2000040F29811C2F218
:1031E0000001016000200590FFE705980F281BD81B
:1031F000FFE7099841F25041C2F200010A684FF41A
:103200008073019111461A46FFF758FF0198016833
:1032100001F580710160099901F580710991FFE75D
:10322000059801300590E0E70AB080BD80B582B016
:10323000FF208DF8060068466FF07F41016042F282
:103240000800C2F200000DF106010DF10702012392
:1032500005F0C2F9002804D0FFE7FF208DF8070031
:10326000FFE79DF8070002B080BD000080B58AB07E
:1032700013468C46864609900891079200200693D3
:10328000CDF814C0CDF810E0FFF7BAFE032000F02F
:103290006BF89DF826100390084600F065F89DF83D
:1032A00025100290084600F05FF89DF82410019068
:1032B000084600F059F80090FFE7079800280ED064
:1032C000FFE7FFF7B3FFDDF820E08EF80000FFE72F
:1032D000079801380790089801300890EDE7012021
:1032E000FFF78EFE0AB080BD80B586B001468DF82E
:1032F000160000208DF815000491FFF781FE9DF85F
:10330000160001460128039108D0FFE70398022820
:1033100009D0FFE7039803280AD00EE0052000F04B
:1033200023F8029010E0352000F01EF801900BE029
:10333000152000F019F8009006E00120FFF760FE6C
:1033400000208DF817000BE0FFF770FF8DF81500D7
:103350000120FFF755FE9DF815008DF81700FFE7D7
:103360009DF8170006B080BD80B584B001468DF889
:103370000F009DF80F008DF80D0068466FF07F423A
:10338000026042F20800C2F200000DF10D020DF1E0
:103390000E034FF0010C029111461A46634605F0E8
:1033A0001BF9002804D0FFE7FF208DF80E00FFE78F
:1033B0009DF80E0004B080BD80B582B00020FFF7FC
:1033C0001FFE0620FFF7D0FF4FF0010E0190704660
:1033D000FFF716FE02B080BDFFE7FEE780B584B0C0
:1033E000014603900398806B02900298806B406DB9
:1033F0000228019105D0FFE70298012180F82510ED
:10340000FFE7029800F030FD04B080BD80B541F6C2
:103410000C30C2F2000000F03FFD80BD80B541F6E7
:103420004C30C2F2000000F0DBFF80BD84B00146EA
:1034300003900398007810384AF6AB22CAF6AA2205
:10344000A0FB020212090292029A40F6FC53C0F657
:1034500001039A5C039BDA65029A042A01910090A9
:1034600007D3FFE703980168042262F3090181652D
:1034700006E00398016840F2FF3291438165FFE75F
:103480000398806D04B0704787B001460690002015
:103490008DF817000698806A0490069880690028C5
:1034A000039122D1FFE70498032802901BD80299C8
:1034B000DFE801F0020D02180698C06AC00100287A
:1034C00004D5FFE701208DF81700FFE70CE0069810
:1034D000C06AB0F1C07F04D1FFE701208DF817006A
:1034E000FFE701E000E0FFE745E006988069B0F5FE
:1034F000005F25D1FFE70498032801901ED80199A9
:10350000DFE801F00206021101208DF8170016E035
:103510000698C06AC001002804D5FFE701208DF895
:103520001700FFE70BE00698C06AB0F1C07F04D136
:10353000FFE701208DF81700FFE700E0FFE719E043
:1035400004980328009004D3FFE70098032804D0D0
:103550000EE001208DF817000BE00698C06AC0014C
:10356000002804D5FFE701208DF81700FFE700E0F1
:10357000FFE7FFE7FFE79DF8170007B0704700007F
:103580007047000080B5012001F040FC80BD0000C4
:1035900080B54FF4807001F039FC80BD70470000A9
:1035A00080B584B00A4603460390029103980299BD
:1035B0004FF0000C01926246009300F003F804B053
:1035C00080BD000080B586B013468C4686460590C7
:1035D00004918DF80F2001208DF80E0000208DF849
:1035E0000D0041F65C00C2F20000407A0028029310
:1035F000CDF804C0CDF800E026DCFFE741F65C0022
:10360000C2F20000417A002242540599437A00EB4D
:10361000830359609DF80F10437A03441972417A6D
:103620004B1C43728DF80D109DF80D00303004993D
:10363000087004983A21417004982F2181700498F1
:10364000C2708DF80E20FFE79DF80E0006B080BD19
:10365000B0B58AB09C4696460C460546099008913E
:10366000079206930020059006980028CDF810C018
:10367000CDF80CE00294019505D0FFE70698B0F56F
:10368000804F01D1FFE708E041F21800C0F60100C9
:1036900040F24F110CF002F8FFE70698B0F5804FAA
:1036A00040F0B680FFE7099840F20411CAF2000129
:1036B000884201D1FFE708E041F21800C0F601009E
:1036C00040F255110BF0EAFFFFE7089800680F2859
:1036D00001D8FFE708E041F21800C0F601004FF4FE
:1036E000AB710BF0DBFFFFE708984068002806D0BD
:1036F000FFE7089840680F2801D8FFE708E041F28B
:103700001800C0F6010040F257110BF0C7FFFFE7A9
:1037100008988068002806D0FFE708988068FF288E
:1037200001D8FFE708E041F21800C0F601004FF4AD
:10373000AC710BF0B3FFFFE70898C0680F2801D801
:10374000FFE708E041F21800C0F6010040F259110D
:103750000BF0A4FFFFE708988069002812D0FFE76C
:1037600008988069B0F1805F0CD0FFE70898806905
:10377000B0F1005F06D0FFE708988069B0F1405FC4
:1037800001D1FFE708E041F21800C0F601004FF454
:10379000AD710BF083FFFFE7079800280CD0FFE71F
:1037A0000798022808D0FFE70798042804D0FFE70D
:1037B0000798062801D1FFE708E041F21800C0F69B
:1037C000010040F25B110BF069FFFFE709980799D0
:1037D00050F82100059005980021CCF6F0710840C2
:1037E00005900898016842688368D0F80CC041EAE7
:1037F000021141EA032141EA0C418069084305991D
:103800000843059005980999079A41F8220006E0B7
:10381000099807996FF0704240F82120FFE70020D7
:103820000AB0B0BD80B586B00A4603460590049143
:10383000002003900598B0F1204F0292019301D12E
:10384000FFE707E041F21800C0F6010086210BF007
:1038500025FFFFE70498006800280FD0FFE70498D1
:10386000006802280AD0FFE704980068042805D001
:10387000FFE704980068062801D1FFE707E041F25E
:103880001800C0F6010087210BF008FFFFE704983D
:103890004068002805D0FFE704984068022801D15D
:1038A000FFE707E041F21800C0F6010088210BF0A5
:1038B000F5FEFFE70498806800280AD0FFE7049827
:1038C0008068042805D0FFE704988068082801D1A3
:1038D000FFE707E041F21800C0F6010089210BF074
:1038E000DDFEFFE70498C06800280AD0FFE70498CF
:1038F000C068102805D0FFE70498C068202801D1CF
:10390000FFE707E041F21800C0F601008A210BF042
:10391000C5FEFFE704980069002806D0FFE7049879
:103920000069B0F5807F01D1FFE707E041F21800A0
:10393000C0F601008B210BF0B1FEFFE7049840694F
:10394000002806D0FFE704984069B0F5007F01D158
:10395000FFE707E041F21800C0F601008C210BF0F0
:103960009DFEFFE704988069002806D0FFE70498D1
:103970008069B0F5806F01D1FFE707E041F21800E0
:10398000C0F601008E210BF089FEFFE70498C069A4
:10399000002806D0FFE70498C069B0F5006F01D198
:1039A000FFE707E041F21800C0F6010090210BF09C
:1039B00075FEFFE70498006A002806D0FFE7049828
:1039C000006AB0F5805F01D1FFE707E041F218001F
:1039D000C0F6010091210BF061FEFFE70498406AF8
:1039E000002806D0FFE70498406AB0F5005F01D1D7
:1039F000FFE707E041F21800C0F6010092210BF04A
:103A00004DFEFFE70498806A002806D0FFE704987F
:103A1000806AB0F5804F01D1FFE707E041F218005E
:103A2000C0F6010093210BF039FEFFE70498C06A4D
:103A3000002806D0FFE70498C06AB0F5004F01D116
:103A4000FFE707E041F21800C0F6010094210BF0F7
:103A500025FEFFE70498006B002806D0FFE70498D6
:103A6000006BB0F5002F01D1FFE707E041F218002D
:103A7000C0F6010095210BF011FEFFE70498C06B22
:103A8000002818D0FFE70498C06BB0F5803F12D033
:103A9000FFE70498C06BB0F5003F0CD0FFE7049837
:103AA000C06BB0F5403F06D0FFE70498C06BB0F59F
:103AB000802F01D1FFE707E041F21800C0F60100B6
:103AC00096210BF0EBFDFFE705980499096850F883
:103AD0002100039003988021CFF6F07108400390F5
:103AE000049841688268C368D0F810C01143194334
:103AF00041EA0C014269114382691143C2691143D1
:103B0000026A1143426A1143826A1143C26A114335
:103B1000C26B1143006B0843039908430390049858
:103B20008068082805D1FFE7039840F04000039023
:103B3000FFE703980599049A126841F822000020D3
:103B400006B080BD80B588B013468C468646079087
:103B500006910592002004900798B0F1204F03933E
:103B6000CDF808C0CDF804E001D1FFE708E041F24C
:103B70001800C0F601004FF48C710BF08FFDFFE7C9
:103B8000069800680F2801D8FFE708E041F2180006
:103B9000C0F6010040F219110BF080FDFFE7069816
:103BA0004068002806D0FFE7069840680F2801D833
:103BB000FFE708E041F21800C0F601004FF48D71F4
:103BC0000BF06CFDFFE706988068002806D0FFE741
:103BD00006988068FF2801D8FFE708E041F2180046
:103BE000C0F6010040F21B110BF058FDFFE70698EC
:103BF000C0680F2801D8FFE708E041F21800C0F6BE
:103C000001004FF48E710BF049FDFFE70698006943
:103C1000022806D3FFE706980069102801D8FFE7BD
:103C200008E041F21800C0F6010040F21D110BF04F
:103C300035FDFFE706984069022806D3FFE706989E
:103C40004069112801D8FFE708E041F21800C0F6EA
:103C500001004FF48F710BF021FDFFE7069880699A
:103C6000002812D0FFE706988069B0F1805F0CD081
:103C7000FFE706988069B0F1005F06D0FFE706987D
:103C80008069B0F1405F01D1FFE708E041F2180020
:103C9000C0F6010040F21F110BF000FDFFE7059890
:103CA00000280CD0FFE70598022808D0FFE7059808
:103CB000042804D0FFE70598062801D1FFE708E0B3
:103CC00041F21800C0F601004FF490710BF0E6FCD1
:103CD000FFE70798059900EB81004068049004987D
:103CE00000F0404004900698016842688368D0F86C
:103CF0000CC041EA021141EA032141EA0C41026988
:103D00000023CFF6F07303EB025211434269FE32F7
:103D100041EA0261806908430499084304900498C9
:103D20000799059A01EB82014860002008B080BD28
:103D300081B042F2D810C2F2000001688DF8031081
:103D4000002101609DF8030001B0704780B584B088
:103D500047F61020C1F6FF700068039047F6142064
:103D6000C1F6FF700068029047F61820C1F6FF7098
:103D70000068019001980399084403900398002873
:103D800013D0FFE7039840F20011C2F200018A1C31
:103D90000823009111461A4605F0AEFC02980099DE
:103DA0001231042205F0A8FCFFE704B080BD00003A
:103DB00080B584B00146029002980028019104D198
:103DC000FFE701208DF80F0027E00298006843F21A
:103DD0000001C4F20201884201D1FFE707E040F68A
:103DE000A470C0F6010068210BF058FCFFE70298B0
:103DF0004079002807D1FFE702980021017102985D
:103E000000F010F8FFE702980221417102980121A9
:103E1000417100208DF80F00FFE79DF80F0004B0FE
:103E200080BD000084B0014603900398006843F20F
:103E30000002C4F202029042019113D1FFE7FFE7B2
:103E40000020029043F63000C4F20200016841F401
:103E500080510160006800F4805002900298009048
:103E6000FFE7FFE704B0704782B001460190009180
:103E700002B0704780B582B00146019041F29810BF
:103E8000C2F200000268013202604FF0D04000919F
:103E9000FFF724F802B080BD80B586B001460590DA
:103EA0000598006800690490049840070028039171
:103EB00019D5FFE705980068042141610598C26B98
:103EC00042F00202C263059880F825100598806BC5
:103ED00043F2DD31C0F6000101650598806B00F00A
:103EE0005BFA0290FFE70498800700281AD5FFE7E5
:103EF00005980068022141610598C16B41F00101FC
:103F0000C1630598042180F825100598806B43F261
:103F1000DD31C0F6000101650598806B00F03CFAC8
:103F20000190FFE70498C006002808D5FFE7059830
:103F3000006810214161059800F02EF9FFE7049810
:103F40000007002808D5FFE70598006808214161AF
:103F5000059800F01BFAFFE70498C007002818D066
:103F6000FFE70598006800688007002807D5FFE78D
:103F700005980068C16821F01E01C160FFE705983F
:103F80000068C16821F00101C1600598FFF772FF68
:103F9000FFE706B080BD000080B584B00146029006
:103FA00002980028019104D1FFE701208DF80F004D
:103FB000EEE0029800680021C5F20501884201D1B7
:103FC000FFE707E040F6DC70C0F6010059210BF076
:103FD00065FBFFE702988068002805D0FFE702989C
:103FE0008068202801D1FFE707E040F6DC70C0F6CA
:103FF00001005A210BF052FBFFE70298C06800282D
:1040000005D0FFE70298C068802801D1FFE707E0EC
:1040100040F6DC70C0F601005B210BF03FFBFFE7D0
:1040200002980069002805D0FFE70298006940283F
:1040300001D1FFE707E040F6DC70C0F601005C212B
:104040000BF02CFBFFE702984068002805D0FFE743
:1040500002984068102801D1FFE707E040F6DC70C5
:10406000C0F601005D210BF019FBFFE702984069E3
:1040700000280CD0FFE702984069B0F5807F06D099
:10408000FFE702984069B0F5007F01D1FFE707E044
:1040900040F6DC70C0F601005E210BF0FFFAFFE78E
:1040A00002988069002812D0FFE702988069B0F575
:1040B000806F0CD0FFE702988069B0F5006F06D0E2
:1040C000FFE702988069B0F5406F01D1FFE707E094
:1040D00040F6DC70C0F601005F210BF0DFFAFFE76D
:1040E0000298006A002805D0FFE70298006A0828B5
:1040F00001D1FFE707E040F6DC70C0F60100602167
:104100000BF0CCFAFFE7029890F82500002804D1C4
:10411000FFE7029800F046F8FFE70298022180F8D6
:10412000251002980068016840F6F872914301601A
:104130000298416902684368D0F808C0D0F80CE0E2
:10414000194341EA0E010369194341EA0C018369ED
:104150001943006A084311680843106002984068D8
:10416000102805D1FFE702980168C0698861FFE760
:1041700002980068C16841F01E01C16002980021E8
:10418000C1630298012280F825208DF80F10FFE707
:104190009DF80F0004B080BD82B0014601900091EF
:1041A00002B0704780B596B001461590002014907B
:1041B0001390129011901090159800680022C5F28B
:1041C000050290420A9140F0DE80FFE7FFE7002001
:1041D0000F9043F63400C4F20200016841F001017F
:1041E0000160006800F001000F900F980990FFE750
:1041F000FFE700200E9043F63000C4F20200016891
:1042000041F010010160006800F010000E900E985F
:104210000890FFE7FFE700200D9043F63000C4F25E
:104220000200016841F001010160006800F0010036
:104230000D900D980790FFE7FFE700200C9043F6E4
:104240003000C4F20200016841F00401016000681E
:1042500000F004000C900C980690FFE7FFE70020A8
:104260000B9043F63000C4F20200016841F00201F5
:104270000160006800F002000B900B980590FFE7CA
:1042800070201090022011900021129113910D22A4
:10429000149241F20003C4F202030DF1400C0490A9
:1042A0001846039161460292CDF804C000F0CCFD9F
:1042B0005020109004981190039912911391029A32
:1042C00014920020C4F20200019900F0BDFD4FF4E9
:1042D0007070109004981190039912911391029AA2
:1042E000149240F60000C4F20200019900F0ACFD07
:1042F000C020109004981190039912911391029A82
:10430000149240F20040C4F20200019900F09CFDBA
:1043100041F64C30C2F2000046F22841C4F20201DC
:1043200001604FF00071416003998160C1604FF4FA
:10433000806202614FF4805242614FF48042826198
:104340004FF48072C2614FF400320262416200F0A9
:10435000F3F9002803D0FFE7FFF720F9FFE7FFE7B5
:10436000159841F64C31C2F20001816315988863BB
:10437000FFE74E2001210022009001F0E5FC0098AB
:1043800001F0C8FCFFE716B080BD000082B0014616
:104390000190009102B0704783B0014601900198EE
:1043A00090F835000228009107D0FFE7019880219E
:1043B000416501208DF80B000EE00198052180F881
:1043C000351001980068016821F001010160FFE7E4
:1043D00000208DF80B00FFE79DF80B0003B070473D
:1043E00080B588B0014607900020059040F220007B
:1043F000C2F20000006848F2B512C1F64E32A0FBCE
:104400000202920A0492079A926D0392039A12682A
:104410000692069A079BDB6D4FF0080C0CFA03F32B
:104420001A42029101901BD0FFE7079800680068CC
:104430004007002813D5FFE707980068016821F0BE
:10444000040101600798C06D082101FA00F003998A
:1044500088600798416D41F001014165FFE7FFE782
:1044600006980799C96D012202FA01F1084215D098
:10447000FFE7079800684069000600280DD5FFE7B0
:104480000798C06D012101FA00F003998860079830
:10449000416D41F002014165FFE7FFE7069807998A
:1044A000C96D042202FA01F1084215D0FFE707980E
:1044B00000680068800700280DD5FFE70798C06DE9
:1044C000042101FA00F0039988600798416D41F0DA
:1044D00004014165FFE7FFE706980799C96D1022BF
:1044E00002FA01F108424BD0FFE707980068006824
:1044F0000007002843D5FFE70798C06D102101FA97
:1045000000F003998860079800680068400300285D
:104510001CD5FFE7079800680068000300280AD44C
:10452000FFE70798006C002804D0FFE70798016CAC
:104530008847FFE709E00798806C002804D0FFE770
:104540000798816C8847FFE7FFE717E00798006846
:104550000068C005002807D4FFE7079800680168D5
:1045600021F008010160FFE70798006C002804D0E3
:10457000FFE70798016C8847FFE7FFE7FFE7FFE7E2
:1045800006980799C96D202202FA01F1084200F04D
:104590009580FFE7079800680068C006002840F192
:1045A0008C80FFE70798C06D202101FA00F0039985
:1045B0008860079890F83500052838D1FFE70798FC
:1045C0000068016821F016010160079800684169E0
:1045D00021F0800141610798006C002805D1FFE7B8
:1045E0000798806C002807D0FFE7079800680168EB
:1045F00021F008010160FFE70798C06D3F2101FA33
:1046000000F003998860FFE70798002180F83410D4
:10461000FFE70798012180F835100798006D002802
:1046200004D0FFE70798016D8847FFE781E007980E
:1046300000680068400300281CD5FFE70798006861
:104640000068000300280AD4FFE70798406C0028A0
:1046500004D0FFE70798416C8847FFE709E0079817
:10466000C06B002804D0FFE70798C16B8847FFE7BD
:10467000FFE721E0079800680068C005002811D412
:10468000FFE707980068016821F010010160FFE76B
:104690000798002180F83410FFE70798012180F87F
:1046A0003510FFE70798C06B002804D0FFE7079894
:1046B000C16B8847FFE7FFE7FFE7FFE70798406D1B
:1046C000002836D0FFE70798406DC007002826D0A5
:1046D000FFE70798052180F8351007980068016802
:1046E00021F001010160FFE7059801300590049970
:1046F000884201D9FFE707E0FFE7079800680068F4
:10470000C0070028F0D1FFE7FFE70798002180F8F5
:104710003410FFE70798012180F83510FFE707986C
:10472000C06C002804D0FFE70798C16C8847FFE7FA
:10473000FFE708B080BD000080B586B00146049058
:1047400000200390009100F0AFFF02900498002831
:1047500004D1FFE701208DF8170099E20498006862
:1047600046F21001C4F20201884200F08880FFE79F
:104770000498006846F22801C4F2020188427ED003
:10478000FFE70498006846F24001C4F20201884243
:1047900075D0FFE70498006846F25801C4F20201A0
:1047A00088426CD0FFE70498006846F27001C4F2BA
:1047B0000201884263D0FFE70498006846F288014E
:1047C000C4F2020188425AD0FFE70498006846F21A
:1047D000A001C4F20201884251D0FFE704980068AA
:1047E00046F2B801C4F20201884248D0FFE70498BB
:1047F000006846F21041C4F2020188423FD0FFE750
:104800000498006846F22841C4F20201884236D07A
:10481000FFE70498006846F24041C4F20201884272
:104820002DD0FFE70498006846F25841C4F2020117
:10483000884224D0FFE70498006846F27041C4F231
:10484000020188421BD0FFE70498006846F28841C5
:10485000C4F20201884212D0FFE70498006846F2D1
:10486000A041C4F20201884209D0FFE70498006821
:1048700046F2B841C4F20201884201D1FFE707E0E5
:1048800041F2A210C0F60100B8210AF007FFFFE7CD
:104890000498406800282AD0FFE704984068B0F1E7
:1048A000007F24D0FFE704984068B0F1806F1ED0ED
:1048B000FFE704984068B0F1C06F18D0FFE7049894
:1048C0004068B0F1006F12D0FFE704984068B0F183
:1048D000206F0CD0FFE704984068B0F1406F06D01D
:1048E000FFE704984068B0F1606F01D1FFE707E08F
:1048F00041F2A210C0F60100B9210AF0CFFEFFE795
:104900000498806800280AD0FFE70498806840284F
:1049100005D0FFE704988068802801D1FFE707E011
:1049200041F2A210C0F60100BA210AF0B7FEFFE77B
:104930000498C068B0F5007F05D0FFE70498C06810
:10494000002801D1FFE707E041F2A210C0F6010004
:10495000BB210AF0A3FEFFE704980069B0F5806F61
:1049600005D0FFE704980069002801D1FFE707E0C0
:1049700041F2A210C0F60100BC210AF08FFEFFE751
:104980000498406900280CD0FFE704984069B0F50E
:10499000006F06D0FFE704984069B0F5805F01D151
:1049A000FFE707E041F2A210C0F60100BD210AF0C6
:1049B00075FEFFE70498806900280CD0FFE7049893
:1049C0008069B0F5005F06D0FFE704988069B0F514
:1049D000804F01D1FFE707E041F2A210C0F60100CD
:1049E000BE210AF05BFEFFE70498C06900280BD0E7
:1049F000FFE70498C069B0F5807F05D0FFE7049811
:104A0000C069202801D1FFE707E041F2A210C0F6FB
:104A10000100BF210AF042FEFFE70498006A002867
:104A200012D0FFE70498006AB0F5803F0CD0FFE792
:104A30000498006AB0F5003F06D0FFE70498006ACA
:104A4000B0F5403F01D1FFE707E041F2A210C0F608
:104A50000100C0210AF022FEFFE70498406A002806
:104A600005D0FFE70498406A042801D1FFE707E07A
:104A700041F2A210C0F60100C1210AF00FFEFFE7CB
:104A80000498406A00285ED0FFE70498806A0028F6
:104A90000FD0FFE70498806A01280AD0FFE7049846
:104AA000806A022805D0FFE70498806A032801D1B4
:104AB000FFE707E041F2A210C0F60100C6210AF0AC
:104AC000EDFDFFE70498C06A002812D0FFE70498C4
:104AD000C06AB0F5000F0CD0FFE70498C06AB0F1CF
:104AE000807F06D0FFE70498C06AB0F1C07F01D193
:104AF000FFE707E041F2A210C0F60100C7210AF06B
:104B0000CDFDFFE70498006B002812D0FFE7049862
:104B1000006BB0F5001F0CD0FFE70498006BB0F5F8
:104B2000800F06D0FFE70498006BB0F5C00F01D1ED
:104B3000FFE707E041F2A210C0F60100C8210AF029
:104B4000ADFDFFE7FFE7FFE70498002180F8341090
:104B5000FFE70498022180F8351004980068016886
:104B600021F001010160FFE7049800680068C007B8
:104B7000002814D0FFE700F097FDDDF808E0A0EB77
:104B80000E0006280AD3FFE7049820214165049807
:104B9000032180F835108DF8171079E0E4E70498C8
:104BA000006800680390039848F23F01CFF21001BB
:104BB00008400390049841688268C368D0F810C028
:104BC0001143194341EA0C014269114382691143BF
:104BD000C2691143006A084303990843039004988B
:104BE000406A042808D1FFE70498C16A006B0843B3
:104BF000039908430390FFE7039804990968086044
:104C00000498006840690390039820F0070003901F
:104C10000498406A0399084303900498406A042862
:104C20001CD1FFE70498806A039908430390049815
:104C3000C06A002811D0FFE70498FEF725FC002881
:104C40000AD0FFE70498402141650498012180F8CB
:104C500035108DF817101BE0FFE7FFE70398049964
:104C6000096848610498FEF7E1FB01900498C06D63
:104C70003F2101FA00F00199886004980021416504
:104C800004984FF0010E80F835E08DF81710FFE71B
:104C90009DF8170006B080BD80B584B00146039032
:104CA000009100F001FD02900398019001980130FD
:104CB000002809D0FFE740F23010C2F2000000786F
:104CC000019908440190FFE7FFE700F0EDFCDDF8F3
:104CD00008E0A0EB0E00DDF804E0704501D2FFE72C
:104CE000F3E704B080BD000080B58CB000200B90CD
:104CF0000A9009900890079041F29C10C2F20000BF
:104D00000068002801D0FFE769E041F29C10C2F280
:104D1000000001210160FFE70020069043F6380003
:104D2000C4F20200016841F001010160006800F076
:104D30000100069006980590FFE74FF23F000790AC
:104D4000022008900021099103220A920C230B9360
:104D500041F2004CC4F2020C0DF11C0E04906046AE
:104D60000391714602920193CDF800E000F06CF8D7
:104D700041F23F4007900498089003990991029AE4
:104D80000A92019B0B9341F60000C4F202000099C5
:104D900000F05AF84FF68370079004980890039932
:104DA0000991029A0A92019B0B9341F20000C4F20E
:104DB0000200009900F048F84FF6737007900498CD
:104DC000089003990991029A0A92019B0B9340F66D
:104DD0000040C4F20200009900F036F8FFE70CB082
:104DE00080BD000082B00146ADF80600BDF80600A7
:104DF0000128009107D1FFE742F2D810C2F200006B
:104E000003210160FFE702B07047000080B582B067
:104E10000146ADF8060043F61440C4F201000068F4
:104E2000BDF80620104200910CD0FFE7BDF8060047
:104E300043F61441C4F201010860BDF80600FFF713
:104E4000D1FFFFE702B080BD80B592B00A460346AD
:104E50001190109100200E900D900C90119800214F
:104E6000C4F2020188420A92099340D0FFE71198E8
:104E700040F20041C4F20201884238D0FFE71198A5
:104E800040F60001C4F20201884230D0FFE71198D9
:104E900040F60041C4F20201884228D0FFE7119891
:104EA00041F20001C4F20201884220D0FFE71198CC
:104EB00041F20041C4F20201884218D0FFE7119884
:104EC00041F60001C4F20201884210D0FFE71198B8
:104ED00041F60041C4F20201884208D0FFE7119870
:104EE00042F20001C4F20201884201D1FFE707E06B
:104EF00041F26910C0F60100B3210AF0CFFBFFE7D1
:104F000010980088002806D0FFE7109840880028F5
:104F100001D1FFE707E041F26910C0F60100B421BA
:104F20000AF0BCFBFFE710984068002849D0FFE773
:104F300010984068012844D0FFE710984068112875
:104F40003FD0FFE71098406802283AD0FFE710985A
:104F50004068122835D0FFE7109840680021C1F260
:104F6000110188422DD0FFE7109840680021C1F25E
:104F70002101884225D0FFE7109840680021C1F246
:104F8000310188421DD0FFE7109840680021C1F22E
:104F90001201884215D0FFE7109840680021C1F245
:104FA000220188420DD0FFE7109840680021C1F22D
:104FB0003201884205D0FFE710984068032801D1EC
:104FC000FFE707E041F26910C0F60100B5210AF0E1
:104FD00065FBFFE71098806800280AD0FFE710986B
:104FE0008068012805D0FFE710988068022801D169
:104FF000FFE707E041F26910C0F60100B6210AF0B0
:105000004DFBFFE700200F90FFE70F980F2800F2FD
:10501000B982FFE70F98012101FA00F00E90109875
:1050200000680E9908400D900D980E99884240F046
:10503000A482FFE710984068022806D0FFE7109886
:105040004068122840F0EE80FFE7109800690028C1
:1050500000F0B980FFE710980069092800F0B380DC
:10506000FFE710980069002800F0AD80FFE7109876
:105070000069002800F0A780FFE710980069002869
:1050800000F0A180FFE710980069002800F09B80E5
:10509000FFE710980069012800F09580FFE710985D
:1050A0000069012800F08F80FFE71098006902284E
:1050B00000F08980FFE710980069022800F08380E3
:1050C000FFE71098006902287DD0FFE7109800697B
:1050D000032878D0FFE710980069042873D0FFE711
:1050E0001098006904286ED0FFE710980069042822
:1050F00069D0FFE710980069052864D0FFE7109891
:10510000006905285FD0FFE71098006909285AD088
:10511000FFE710980069062855D0FFE7109800694E
:10512000092850D0FFE71098006907284BD0FFE707
:1051300010980069072846D0FFE7109800690728F3
:1051400041D0FFE71098006908283CD0FFE710988D
:105150000069082837D0FFE710980069082832D086
:10516000FFE71098006909282DD0FFE71098006923
:10517000092828D0FFE7109800690A2823D0FFE704
:10518000109800690A281ED0FFE7109800690B28C4
:1051900019D0FFE7109800690C2814D0FFE7109889
:1051A00000690C280FD0FFE7109800690D280AD07D
:1051B000FFE7109800690C2805D0FFE710980069F8
:1051C0000F2801D1FFE707E041F26910C0F60100A6
:1051D000C7210AF063FAFFE711980F996FF00302F5
:1051E00002EA51010844006A0C900F9800F0070091
:1051F00080000F2101FA00F00C9921EA00000C90C8
:10520000109800690F9901F00701890088400C99F6
:1052100008430C900C9811990F9B02EA5302114419
:105220000862FFE7119800680C900F984000032176
:1052300001FA00F00C9921EA00000C9010984068E7
:1052400000F003000F99490088400C9908430C9026
:105250000C98119908601098406801280FD0FFE75A
:105260001098406802280AD0FFE71098406811287B
:1052700005D0FFE71098406812284CD1FFE710983E
:10528000C06800280FD0FFE71098C06801280AD036
:10529000FFE71098C068022805D0FFE71098C068A3
:1052A000032801D1FFE707E041F26910C0F60100D1
:1052B000DA210AF0F3F9FFE7119880680C900F9853
:1052C0004000032101FA00F00C9921EA00000C9043
:1052D0001098C0680F99490088400C9908430C90B9
:1052E0000C9811998860119840680C900F980121D2
:1052F00001FA00F00C9921EA00000C901098406827
:10530000C0F300100F9988400C9908430C900C983A
:1053100011994860FFE71198C0680C900F98400001
:10532000032101FA00F00C9921EA00000C9010987A
:1053300080680F99490088400C9908430C900C989C
:105340001199C86010984068C000002840F114818D
:10535000FFE7FFE700200B9043F64400C4F2020091
:10536000016841F480410160006800F480400B90C6
:105370000B980890FFE70F9820F0030043F6080110
:10538000C4F2010140580C900F9800F00300800017
:105390000F2101FA00F00C9921EA00000C901198FD
:1053A0000021C4F20201884203D1FFE700200790E8
:1053B0005EE0119840F20041C4F20201884203D13C
:1053C000FFE70120069050E0119840F60001C4F27A
:1053D0000201884203D1FFE70220059042E01198C4
:1053E00040F60041C4F20201884203D1FFE70320E6
:1053F000049034E0119841F20001C4F202018842A5
:1054000003D1FFE70420039026E0119841F2004108
:10541000C4F20201884203D1FFE70520029018E0A0
:10542000119841F60001C4F20201884203D1FFE75E
:10543000062001900AE0119841F60041C4F20201F1
:105440000822884208BF07220192FFE701980290D4
:10545000FFE702980390FFE703980490FFE70498A2
:105460000590FFE705980690FFE706980790FFE78D
:105470000798C0B20F9901F00301890088400C9988
:1054800008430C900C980F9921F0030143F6080291
:10549000C4F20102885043F60040C4F201000068E3
:1054A0000C900D980C9921EA00000C90109840681F
:1054B000C003002805D5FFE70D980C9908430C9010
:1054C000FFE70C9843F60041C4F20101086043F67F
:1054D0000440C4F2010000680C900D980C9921EA78
:1054E00000000C90109840688003002805D5FFE765
:1054F0000D980C9908430C90FFE70C9843F6044173
:10550000C4F20101086043F60840C4F201000068DB
:105510000C900D980C9921EA00000C9010984068AE
:10552000C002002805D5FFE70D980C9908430C90A0
:10553000FFE70C9843F60841C4F20101086043F606
:105540000C40C4F2010000680C900D980C9921EAFF
:1055500000000C90109840688002002805D5FFE7F5
:105560000D980C9908430C90FFE70C9843F60C41FA
:10557000C4F201010860FFE7FFE7FFE70F98013081
:105580000F9042E512B080BD80B584B00A46034654
:105590000390ADF80A10BDF80A00002801920093AC
:1055A00005D0FFE70020002801D1FFE708E041F225
:1055B0006910C0F601004FF4DB710AF06FF8FFE7E5
:1055C00003984069BDF80A100840884206D1FFE7F9
:1055D000BDF80A0000040399886104E0BDF80A00E0
:1055E00003998861FFE704B080BD000080B586B0F4
:1055F00013468C4686460590ADF812108DF81120A2
:10560000BDF8120000280393CDF808C0CDF804E0DF
:1056100005D0FFE70020002801D1FFE708E041F2B4
:105620006910C0F6010040F29F110AF037F8FFE759
:105630009DF81100002805D0FFE79DF81100012812
:1056400001D1FFE708E041F26910C0F601004FF414
:10565000D0710AF023F8FFE79DF81100002805D06B
:10566000FFE7BDF812000599886105E0BDF812005A
:10567000000405998861FFE706B080BD42F2000092
:10568000CEF2040000686FF31F30704740F20060F4
:10569000C0F207107047000042F20000CEF2040092
:1056A0000068000C7047000042F2E010C2F20000F7
:1056B0000068704740F23010C2F200000078704776
:1056C00047F61020C1F6FF700068704747F61420B7
:1056D000C1F6FF700068704747F61820C1F6FF70EA
:1056E0000068704780B590B001460E900E98002873
:1056F0000B9104D1FFE701208DF83F0008E20E98DE
:10570000006845F20041C4F20001884212D0FFE770
:105710000E98006845F60001C4F20001884209D0E5
:10572000FFE70E98006845F60041C4F20001884288
:1057300001D1FFE708E041F25000C0F6010040F25D
:10574000BB1109F0ABFFFFE70E98406800280AD0B4
:10575000FFE70E98406841F68021C0F206018842BA
:1057600001D8FFE708E041F25000C0F601004FF415
:10577000DE7109F093FFFFE70E988068002806D0DD
:10578000FFE70E988068B0F5804F01D1FFE708E091
:1057900041F25000C0F6010040F2BD1109F07EFF59
:1057A000FFE70E98C068800A002801D1FFE708E0F3
:1057B00041F25000C0F601004FF4DF7109F06EFFB6
:1057C000FFE70E980069B0F5804F06D0FFE70E980E
:1057D0000069B0F5404F01D1FFE708E041F2500009
:1057E000C0F6010040F2BF1109F058FFFFE70E9824
:1057F0004069002805D0FFE70E984069012801D1D3
:10580000FFE708E041F25000C0F601004FF4E071FC
:1058100009F044FFFFE70E9880696FF0FE0108422F
:1058200001D1FFE708E041F25000C0F6010040F26C
:10583000C11109F033FFFFE70E98C069002805D0B9
:10584000FFE70E98C069402801D1FFE708E041F268
:105850005000C0F601004FF4E17109F01FFFFFE7AF
:105860000E98006A002805D0FFE70E98006A80288D
:1058700001D1FFE708E041F25000C0F6010040F21C
:10588000C31109F00BFFFFE70E9890F83D000028C8
:1058900008D1FFE70E98002180F83C100E9800F028
:1058A0003BF9FFE70E98242180F83D100E98006820
:1058B000016821F00101016001F0B0FE0C900E982A
:1058C000406848F2A061C0F2010188420BD8FFE7AE
:1058D0000C9848F28041C0F21E010022884238BF75
:1058E00001220A920AE00C9840F60011C0F23D0134
:1058F0000022884238BF01220A92FFE70A98012855
:1059000004D1FFE701208DF83F0001E10C984DF62E
:105910008361C4F21B31A0FB0101890C0D910E992A
:105920000968496821F03F010D9A11430E9A1268E7
:1059300051600E990968096A21F03F010E9A526878
:1059400048F2A063C0F201039A420990089104D87A
:10595000FFE70D98013007900FE00D984FF4967116
:10596000484344F6D351C1F26201A0FB0101012278
:1059700002EB911106900791FFE7079808990843F9
:105980000E9A126810620E980068C0694CF6FF7299
:1059900090430E9A526848F2A063C0F201039A4203
:1059A00005901FD8FFE70C9801380E994968490007
:1059B000B0FBF1F001306FF31F30032803D8FFE78D
:1059C000042004900BE00C9801380E9949684900B6
:1059D000B0FBF1F001306FF31F300490FFE7049843
:1059E00003904FE00E98806800280DD1FFE70C98D7
:1059F00001380E99496801EB4101B0FBF1F001302B
:105A00006FF31F3002900DE00C9801380E99496831
:105A100019225143B0FBF1F00130042161F31F3032
:105A20000290FFE702980005002803D1FFE701205C
:105A3000019024E00E98806800280DD1FFE70C98B3
:105A400001380E99496801EB4101B0FBF1F00130DA
:105A50006FF31F3000900DE00C9801380E994968E3
:105A600019225143B0FBF1F00130042161F31F30E2
:105A70000090FFE7009840F400400190FFE7019894
:105A80000390FFE70398059908430E9A1268D061C6
:105A90000E980068006820F0C0000E9A1368D2F8D3
:105AA0001CC0126A42EA0C02104318600E9800688B
:105AB000806848F2FF3290430E9A1368D2F80CC007
:105AC000126942EA0C02104398600E980068C068A0
:105AD00020F0FF000E9A1368D2F814C0926942EACF
