:020000040800F2
:10000000A07D0020B10200087351000827480008B5
:10001000715100083D1A0008D1730008000000006B
:10002000000000000000000000000000B7590008B8
:100030003F1A00080000000081510008B95900086B
:10004000CB020008CB020008CB020008CB0200085C
:10005000CB020008CB020008CB020008CB0200084C
:10006000CB020008CB020008CB020008CB0200083C
:10007000CB020008CB020008CB020008CB0200082C
:10008000CB020008CB020008CB020008CB0200081C
:10009000CB020008CB020008CB020008CB0200080C
:1000A000CB020008CB020008CB020008CB020008FC
:1000B000CB020008CB020008CB020008CB020008EC
:1000C000CB020008CB020008CB020008CB020008DC
:1000D000CB020008055E0008CB020008CB02000836
:1000E000CB020008CB020008CB020008CB020008BC
:1000F000CB020008CB020008CB020008CB020008AC
:10010000CB020008CB020008CB020008CB0200089B
:10011000CB020008CB020008CB020008CB0200088B
:10012000CB020008CB020008CB020008CB0200087B
:10013000CB020008CB020008CB020008CB0200086B
:10014000CB020008CB020008CB0200087551000862
:10015000CB020008CB020008CB020008CB0200084B
:10016000CB020008CB020008CB020008CB0200083B
:10017000CB020008CB020008CB0200080000000000
:10018000CB020008CB02000800F002F800F081F872
:100190000AA090E8000C82448344AAF10107DA45E2
:1001A00001D100F076F8AFF2090EBAE80F0013F0B3
:1001B000010F18BFFB1A43F00103184764990000B0
:1001C000849900000A444FF0000C10F8013B13F032
:1001D000070408BF10F8014B1D1108BF10F8015BA0
:1001E000641E05D010F8016B641E01F8016BF9D193
:1001F00013F0080F1EBF10F8014BAD1C0C1B09D1EA
:100200006D1E58BF01F801CBFAD505E014F8016B5B
:1002100001F8016B6D1EF9D59142D6D370470000ED
:100220000023002400250026103A28BF78C1FBD8FF
:10023000520728BF30C148BF0B607047662909F0DC
:10024000EA8103681B0A28BF41F08001642900F09D
:100250005381782900F0B481F82900F0BF81632927
:1002600000F0DF85732900F0E485002070471FB59A
:1002700009F0C4F99DE8030000F02CFB00F026FE15
:1002800004000020002108F039FFE0601FBD10B518
:1002900010BD00F054FF1146FFF7E9FF08F058F8D1
:1002A00000F072FF03B4FFF7F2FF03BC07F0A4F8FD
:1002B0000948804709480047FEE7FEE7FEE7FEE7FA
:1002C000FEE7FEE7FEE7FEE7FEE7FEE70448054936
:1002D000054A064B70470000595A0008890100087A
:1002E000A03D0020A07D0020A05D0020A05D00209A
:1002F000704770B5064600F0D1FA056806F10B00AC
:1003000020F00704B4429CBF002070BD2B466A68F1
:10031000BAB11068A04210D304F1080188423CBF72
:100320005068586007D35168101941601168091B63
:10033000016058601460101D70BD13465268002A99
:10034000E7D12146284600F0B1FA0028DED170BD81
:1003500070B50446051F00F0A1FA0068002C14BF18
:10036000446870BD002C18BFAC423CBF2046646896
:10037000F8D301680A18AA4218BF456003D12A6859
:1003800005461144016028684119A1421CBF6C60F8
:1003900070BD6168696021680844286070BD53EAD7
:1003A000020C00F069802DE9F04B4FF00006002BA5
:1003B0001FBFB3FA83F503FA05F424FA05F65E408D
:1003C00012BF1643B2FA82F502FA05F4C5F1200510
:1003D0001EBF22FA05FC44EA0C04203556EA044C00
:1003E0004FEA144418BF641C4FF000084FF0000996
:1003F000904271EB030C39D3002919BFB1FA81F790
:1004000001FA07F6B0FA80F700FA07F6C7F12007FD
:100410001EBF20FA07FC46EA0C062037B6FBF4FCA8
:10042000A7EB0507103F07F01F0BCBF120062CFAB6
:1004300006F60CFA0BFB44BFB3460026202FA4BFE0
:100440005E464FF0000B5BEA060C08BF4FF0010B55
:1004500019EB0B0948EB0608ABFB027C06FB02CC50
:100460000BFB03CCC01B71EB0C01C1E70B46024632
:1004700041464846BDE8F08B13B54FF000004FF001
:100480000001AFF30080BDE81C4070470FB4044981
:1004900010B503AA029800F0D1FC10BC5DF814FB63
:1004A0007434002070B50C460546012A05D0287822
:1004B000800600D5EA69002302E0012305E05B1C09
:1004C000934202D2E05C0028F9D1A869E618C01A6C
:1004D000A861286A184428622846AFF3008004E027
:1004E000D5E9012114F8010B9047B442F8D328460E
:1004F000AFF3008070BD00002DE9F04106460024F6
:1005000010687529314616A510D0AFF30080002879
:1005100002DA404213A507E031688A0701D512A527
:1005200002E0490704D511A5012401E0AFF30080E2
:1005300000210A2206F1240709E0B0FBF2FCB0FB1F
:10054000F2F302FB1C00303078541846491C002896
:10055000F3D123462A463046BDE8F04100F0F0B919
:10056000000000002D0000002B0000002000000013
:10057000F0B40D460188090502D51B4C7C4402E00D
:10058000194C7C440E34002100F1240608E002F0EE
:100590000F071209E75D42EA03721B097754491CF1
:1005A00052EA0307F3D1224604780023240704D536
:1005B000702D02D009B102231132F0BC00F0C0B995
:1005C00070B504460D4621461068AFF30080024620
:1005D00029462046BDE870400023C9E7D21D22F01D
:1005E0000703D3E90023C3E79A9000002DE9F04701
:1005F0004FF0000A89460446C0F820A02046E16872
:100600008847002876D0252806D0D4E901219047D4
:10061000206A401C2062F1E7E168204600268847F6
:10062000C4F81CA005460027C4F818A02A2D09D03C
:10063000284608F05CFD38B304EB8708303DC8F865
:10064000185019E059F8041B204604EB8702916109
:10065000E1688847012F054618D1E069002820DAB3
:1006600026F020061DE0D8F8180000EB800005EB0E
:1006700040003038C8F818002046E1688847054631
:1006800008F035FD0028EED1012F0AD02E2D08D11B
:100690002046E16888477F1C0546022F46F0200669
:1006A000C4DBA069002803DA404246F00106A061DD
:1006B000F00701D026F010066C2D0AD0682D08D066
:1006C0004C2D39D06A2D35D0742D35D07A2D33D0BC
:1006D00016E0E1682F4620468847B84205460AD111
:1006E0006C2F27D04FF48060E1680643204688478E
:1006F000054605E027E06C2F1AD04FF480700643C2
:100700000DB3A5F14100192802D8203546F4006642
:100710004A462946204626604E46FFF78FFD80B1A7
:1007200001280BD0F61D26F0070000F1080965E747
:100730004020E4E78020D7E70020D5E706F1040950
:100740005CE7284661E7206ABDE8F08710B50446FB
:1007500003E007F013FD401C09D014F8010B054914
:100760000028F6D1BDE810400A2007F007BD4FF081
:10077000FF3010BD74340020032A40F2308010F0A6
:10078000030C00F0158011F8013BBCF1020F62442C
:1007900098BF11F801CB00F8013B38BF11F8013BBD
:1007A000A2F1040298BF00F801CB38BF00F8013B6A
:1007B00011F0030300F05483083AC0F0088051F8A8
:1007C000043B083A51F804CBA0E80810F5E7121DE5
:1007D0005CBF51F8043B40F8043BAFF30080D20704
:1007E00024BF11F8013B11F801CB48BF11F8012BD0
:1007F00024BF00F8013B00F801CB48BF00F8012BF3
:1008000070474FF000020429C0F0128010F0030C72
:1008100000F01B80CCF1040CBCF1020F18BF00F8F3
:10082000012BA8BF20F8022BA1EB0C0100F00DB8A2
:100830005FEAC17C24BF00F8012B00F8012B48BF00
:1008400000F8012B70474FF0000200B513469446A4
:100850009646203922BFA0E80C50A0E80C50B1F118
:100860002001BFF4F7AF090728BFA0E80C5048BF2C
:100870000CC05DF804EB890028BF40F8042B08BFCA
:10088000704748BF20F8022B11F0804F18BF00F8C6
:10089000012B70477047704770477047004870479A
:1008A00040010020704770477047704738B50446D4
:1008B0000A4600206946AFF30080002808BF38BD13
:1008C00002460099204600F005FB012038BD0120BA
:1008D00000F02EBCF8B5AFF30080054600200C46B2
:1008E000102000BF0646A819A0420DD9324669461D
:1008F0000020AFF30080070008BF00F019FC00984B
:10090000A04218BF0546C419FFF7C8FF0560074697
:10091000F01D20F007004619284600F00AF8B442FE
:1009200008BFF8BDA21B31463868BDE8F84000F0AA
:10093000D1BA00210160C0E9011070471020704752
:100940002DE9F0470D4699469246044600F12408E9
:100950000168880604D5E06921F01001216000E0FB
:100960000120A84201DD471B00E00027A1697A1998
:1009700002EB0900081AA0612078C00602D42046C4
:10098000AFF30080002608E0D4E901211AF8060040
:100990009047206A401C761C20624E45F4DB20788C
:1009A000C0060AD52046AFF3008006E0D4E9012155
:1009B00030209047206A401C2062381EA7F10107B2
:1009C000F4DC07E0D4E9012118F805009047206A1B
:1009D000401C2062281EA5F10105F3DC2046AFF380
:1009E00000802078000602D50220BDE8F0870120B3
:1009F000FBE72DE9FF4F0C461E464FF0FF378BB04B
:100A0000D2E90001DDF860800A908A46C1F30A55F8
:100A100005B93D46002108464FF00000BAF1000F2D
:100A200000F4400005DA00EB80004FF4400101EAD9
:100A300050004FEA9059B9F1010F00DDB9460A980C
:100A400050EA4A000ED044F61050A5F2FF35454357
:100A50002F14B8F1000F1ED07542291E1EDDC9F1FA
:100A600000021CE0B8F1010F4FF0000001D030216E
:100A700003E0F24305E02154401CB042FBDB30466A
:100A80000022002121540B99C1F80880C1E90020FF
:100A90000FB0BDE8F08FBD1B6D1CDEE74A4600DAE3
:100AA000694206A800F0CEFA06AB93E8070003AB54
:100AB00083E8070050460A9907F039FF8DE80700E0
:100AC000A0F500501F3800900398002D0ADD42F277
:100AD0001F014A460844002303A90390684608F012
:100AE000A2F909E0A0F500504A461F38002303A9E7
:100AF0000390684608F0ACF98DE807000004000C8C
:100B000003D04FF0FF30410800E01046B8F1000F6D
:100B100003D00022009215461EE0751E05D400F099
:100B2000F3F9303262556D1EF9D5B3460122084300
:100B300002D000227F1C04E02078302801D100225E
:100B40007F1E002A099784D01DE0112D07DA00F0DE
:100B5000DBF9303262556D1C50EA0102F5D10843D1
:100B600002D00098C8B10EE00021681E05E0235CA9
:100B7000625C63542254401E491C8142F7DBAB4641
:100B8000A81B401E0990002004F80B000B98099A3E
:100B9000C0F80880C0E9002B7AE711264FF0000862
:100BA00057E72DE9F04F88460446D21D22F0070191
:100BB00091B0D1E90001CDE90A0108F080FA0246BE
:100BC0000B98C00F01D02D2007E02068810701D5C8
:100BD0002B2002E0202101EAC000032A099001D065
:100BE000072A05DB03464146204600F0EBF90BE1FE
:100BF0002078800601D5E06900E00620B8F1650F95
:100C0000814606D0B8F1660F18D0B8F1670F70D1E1
:100C100031E00020B9F1110F009001DB112301E058
:100C200009F101030AAA01A90CA8FFF7E2FEDDE918
:100C30000C70002609F10105834647E001204B4670
:100C400000904FF000470AAA01A90CA8FFF7D1FEB7
:100C5000DDE90DB00C995D46002610B909F10100DF
:100C60000D18B9EB050003D4C0F1FF3609F10105F9
:100C7000A5EB09002BE0B9F1010F01DA4FF00109F2
:100C80000020B9F1110F0090484601DD112300E06A
:100C900003460AAA01A90CA8FFF7ABFEDDE90C7018
:100CA0004D4600268346207800070AD4AB4500DA7B
:100CB0005D4601A8012D04DD411911F8011C302900
:100CC00007D04F4502DA17F1040F04DA01208246FB
:100CD0000FE06D1EEEE7002F02DCED1B3E4403E04B
:100CE000781CA84200DD7D1CB81B00F1010A4FF002
:100CF00000472078000703D4AA4501DB4FF0FF3AF4
:100D00000021B7F1004F0DF143088DF8431024D0B6
:100D100002202B23002F01DA7F422D230A21021EFD
:100D2000A0F1010000DC5FB197FBF1FC97FBF1F251
:100D300001FB1C7C17460CF1300C08F801CDEEE7E6
:100D4000A8F1010003702188090501D5452100E0C3
:100D50006521A0F1010800F8011C09980FA9A1EB79
:100D60000807FF1D00B10120411901EBEA70A169DC
:100D70003844081A401EA0612078C00602D42046DC
:100D8000AFF30080099828B1D4E901219047206A87
:100D9000401C20622078C00622D52046AFF3008098
:100DA0001EE0002E04DBB34502DD01A8805D00E0FB
:100DB0003020D4E901219047206A401C2062761C33
:100DC000AAF101005FEA000A0AD100F07FF8C068CA
:100DD0000168405CD4E901219047206A401C2062F0
:100DE000281EA5F10105DCDC07E0D4E9012118F893
:100DF000010B9047206A401C2062381EA7F10107B2
:100E0000F3DC2046AFF30080032011B041E610B5BB
:100E1000436913B1AFF3008001E0FFF743FB01200A
:100E200010BD127800F124010A7000224A700122DC
:100E3000EDE711684FF0FF32E9E70000074B70B5AE
:100E40000D467B4400F0ABF80446284600F06CF9F0
:100E500010B14FF0FF3070BD204670BD37730000F9
:100E600010B5203AC0F00B80B1E81850A0E8185037
:100E7000B1E81850A0E81850203ABFF4F5AF5FEA87
:100E8000027C24BFB1E81850A0E8185044BF18C92C
:100E900018C0BDE810405FEA827C24BF51F8043BD3
:100EA00040F8043B08BF7047D20728BF31F8023B27
:100EB00048BF11F8012B28BF20F8023B48BF00F8BB
:100EC000012B7047004870473801002000487047E8
:100ED00058010020034640688C46002818BF88420D
:100EE0003CBF03464068F8D318681844884207D0CE
:100EF0000CF1030020F00700001D411A521A0146B0
:100F0000081D0A60FFF724BA30B5B0F10A0271F18A
:100F100000034FEA900E4EEA817EB0EB0E0061EBCB
:100F200091014FEA101E4EEA017E10EB0E0041EBDC
:100F300011114FEA102E4EEA016E10EB0E0041EB3C
:100F400011214FEA104E4EEA014E10EB0E0041EB1C
:100F50001141401841F100014FEAD00040EA4170D0
:100F60004FEAD1014FEA810444EA907410EB800506
:100F700044EB01046D1944EB0404521BA3414FF0F0
:100F8000000348BF0A3200D530BD401C41F10001CA
:100F900030BD000001694A1C02610878704700B545
:100FA0008FB0CDE901310021059105497944CDE9A2
:100FB000031011466846FFF719FB0FB000BD000093
:100FC000E5FFFFFF2DE9F0411F46044603260168B7
:100FD000072A01F4006004DB08B116A505E016A598
:100FE00003E008B115A500E015A521F01000206070
:100FF000A069C01EA0610FB1401EA0612046AFF3E2
:1010000000804FB1D4E9012138469047206A401C46
:101010002062C01C206206E0206AFAE7D4E90121C0
:1010200015F8010B9047761EF8D22046AFF30080EA
:10103000BDE8F0814E414E006E616E00494E4600A3
:10104000696E66002DE9F047814616468AB035483C
:1010500078440DC88DE80D0032487844801C03ACFC
:101060000DC884E80D0041F69B300844372190FB01
:10107000F1F290FBF1F5A5F1800501FB12041B3C98
:1010800002D56442012000E00020DFF898A08046ED
:101090000027FA44AAF1BE0A0EE0E0070AD0324661
:1010A000684607EB470101230AEB810107F0D0FEF8
:1010B0008DE8070064107F1C002CEED1194F7F448F
:1010C000AE3F19E0E80715D007EB04100DF1180A40
:1010D00090E80E008AE80E00C068F04201D198192D
:1010E00008903246012306A903A807F0B1FE03AB1E
:1010F00083E807006D10641C002DE3D14FF001035D
:1011000032466946B8F1000F03A802D007F08BFE03
:1011100001E007F09DFEC9E90001C9F808200AB006
:10112000BDE8F0876C860000007B00F0800070470F
:1011300010B500F037F8BDE8104000F02EB8754645
:10114000FFF7C0FEAE4605006946534620F0070093
:10115000854618B020B5FFF7B9F8BDE820404FF03C
:1011600000064FF000074FF000084FF0000BAC46B0
:10117000ACE8C009ACE8C009ACE8C009ACE8C009FB
:1011800021F007018D46704710B50446AFF300808B
:101190002046BDE81040FFF785B8002801D006F0D2
:1011A0002BB9704710B5012805D0002103A000F02D
:1011B00061F8012010BD09A1F8E70000534947522A
:1011C000544D454D3A204F7574206F662068656117
:1011D00070206D656D6F7279000000003A204865DF
:1011E0006170206D656D6F727920636F72727570BA
:1011F000746564000000000030B44FF0013C50F80A
:10120000042B51F8043BCCFA52F4D51A20D1FCB986
:1012100050F8042B51F8043BCCFA52F4D51A17D1EC
:10122000B4B950F8042B51F8043BCCFA52F4D51A57
:101230000ED16CB950F8042B51F8043BCCFA52F49F
:10124000D51A05D1002CDAD030BC4FF00000704721
:1012500029BAB1FA81F111F01801D1F120008440CE
:10126000F2D1CA40CB4012F0FF0213F0FF0330BCB2
:10127000D01A704770B505460C460A2000E06D1C78
:1012800006F0BBF835B128780028F8D102E0641CDC
:1012900006F0B3F814B120780028F8D1BDE870400A
:1012A0000A2006F0AAB80000F8B5034690B2CDE9CE
:1012B000001004481A46A02101230290024801F0C0
:1012C000A3F98FBDFFFF0F000438002010B51446AE
:1012D0004FF47A7200FB021000F005F8A0B2BDE8EE
:1012E000104000F00BB810B5044604E04FF47A70DB
:1012F00000F004F8013C002CF8D110BD10B50C4CE6
:10130000C0F57A706FF0010280B221680A6148620C
:10131000204603F01BF820680169C907FCD020466D
:1013200003F058F820686FF00101016110BD00BFA3
:10133000583D00200146D64800294FF400410CBF1B
:101340000022012200F0F6BF8048202121220180E6
:101350000021418002802222418002804FF6FF72EC
:10136000EF2988BF7047002301E042800133B3F5C5
:10137000A07FFAD30131F3E72DE9F843734C002540
:101380007348744A25806188C0F8022049F22532EA
:101390009142018040F0D38072490A26C0F80A10B9
:1013A0007149C0F806100A2000F042FE4FF0010C0F
:1013B0004FF480704FF0030E4FF008090F224FF0EA
:1013C00010080723122741F29061A4F800C0608042
:1013D000022020804FF4A060608041F23000A4F829
:1013E00000E060800420208040F202206580A4F8A4
:1013F00000906080092020800C2065802680658018
:10140000112620800D206580208065802280132297
:101410006580A4F8008065802680638027806580D1
:101420002280658023806580A4F80080618040F27E
:101430002721268061809D21278061804FF4C8513B
:101440002280618029212180252161802B2121801A
:1014500060803020208031206380208040F2033083
:101460006080322020803520A4F802E0208040F205
:1014700006206080362020803720A4F8029020804B
:1014800040F206406080382020804FF44170608038
:10149000392020803C206380208040F20260608000
:1014A0003D2020805020A4F80290208051206580AB
:1014B0002080EF2060805220208053206580208093
:1014C00040F23F106080602020804FF42740608011
:1014D000612020806A20A4F802C0208080206580DE
:1014E000208081206580208082206580208083206C
:1014F0006580208084206580208085206580208014
:101500009020658020809220A4F8028020804FF4F3
:10151000C060608040F2331023806080A4F800E057
:101520006088A4F800E040F0980020F0200060807F
:10153000FFF70AFF0120BDE8F843FFF7FBBE0630C6
:1015400005A10922BDE8F843FFF716B97E00006C3B
:10155000C83400204001F0004E6F6E65547970650C
:101560000000000033323500494C4939012805D0CC
:1015700048B905484FF4806100F0CCBE02484FF4F2
:10158000007100F0C7BE70470014024070B5002023
:101590004FF4C0014FF0C06202F070F96420FFF711
:1015A000A2FE094D0A20A84704460B20A847074E73
:1015B00040EA042030601C20A84704461D20A847AC
:1015C00040EA0420706070BDD1150008D8340020B6
:1015D00010B5044603F080FE422003F043FE10B134
:1015E00014A0FFF7B3F86420FFF788FE204603F04D
:1015F00039FE10B115A0FFF7A9F86420FFF77EFEB1
:1016000003F080FE6420FFF779FE03F065FE4320BF
:1016100003F028FE10B113A0FFF798F86420FFF73D
:101620006DFE03F0C9FD044603F0ACFD03F06AFE55
:10163000204610BD6F765F726561645F72656731C9
:10164000206E6F2061636B0D000000006F765F728B
:101650006561645F72656732206E6F2061636B0D38
:10166000000000006F765F726561645F72656733CA
:10167000206E6F2061636B0D00000000014604487E
:1016800000294FF480410CBF0022012200F052BE1D
:101690000004024080B500F08BF80020FFF7EEFF59
:1016A000C72000F07BF90120FFF7E8FFBDE880408C
:1016B00000F07EB8B0B5044600F0B4F900F078F858
:1016C0000020FFF7DBFFD64D2020A847C4F30740DA
:1016D000A847F02000EA1420A8470020A8470120CE
:1016E000FFF7CCFFBDE8B04000F062B810B508B11C
:1016F000FFF7D0FF214C4FF480704FF480314FF44E
:1017000080524FF0807304F1100CACE80700C4E97C
:101710000721C4E9090300F05BF9C4E9020100F004
:101720006DF8206000F04CF81549606088420DD0DB
:10173000144988420CD0144988420BD0134988427E
:101740000ED117481349C4E90B1011E0104802E00C
:10175000114800E01148C4F82F000E48E06207E08D
:1017600010A110484A68C4E90B02087A84F83400D2
:10177000FF2000F013F9002010BD00BFE03400206E
:101780001530EF001540EF001740EF001840EF0054
:101790005131360057323551513332005136340011
:1017A000313238004E6F6E6554797065000000006C
:1017B00080B5012000F0D2F8C007FAD180BD00004A
:1017C00070B5FFF7F5FF0020FFF758FF944E9F20FC
:1017D000B047FF20B0470446FF20B0470546FF2032
:1017E000B04706460120FFF749FF280240EA0440BF
:1017F0008419FFF7DDFF204670BD00BFB0B50020A3
:10180000FFF73CFF864D9020A847FF20A847FF2008
:10181000A8470020A847FF20A8470446FF20A84764
:1018200005460120FFF72AFF45EA0420B0BD00BFAE
:10183000B2F5807F88BF7047F8B514460D4606465E
:1018400000F0F0F80020FFF719FF754F0220B847AD
:10185000C6F30740B847C6F30720B8470020B8478B
:1018600004E015F8010B00F099F8013C002CF8D1C8
:101870000120FFF703FFBDE8F840FFF799BF00BF65
:10188000F8B5B2F5805F00D9F8BD0E4640F6FF719D
:10189000144F15464FF4805220EA01042046394681
:1018A00000F03CF82046FFF705FF04E016F8010BB6
:1018B000013D07F8010B002DF8D10B4D0949002619
:1018C0002960B6F5805F08BFF8BDA0194FF480729B
:1018D000FFF7AEFF286806F5807600F58071296075
:1018E000EFE700BFEC010020183500201CB56FF0B9
:1018F0007F40FF240DF106010DF107020123009046
:1019000032488DF8064002F00BFB002814BF8DF81A
:1019100007409DF80740204602B010BDF8B50646C6
:10192000002014460D46FFF7A9FE3D4F0320B8479F
:10193000C6F30740B847C6F30720B847F0B2B84728
:1019400004E0FFF7D3FF05F8010B013C002CF8D1B0
:101950000120BDE8F840FFF791BE00BF10B5044676
:101960000020FFF78BFE032C05D0022C05D0012CA4
:101970000ED1052002E0152000E0352000F00EF821
:10198000FFF7B4FF04460120FFF778FE204610BDA4
:101990000120FFF773FE002010BD0000E0B58DF8B8
:1019A00006006FF07F400DF106010DF107020123E3
:1019B0000090064802F0B4FA00281ABFFF208DF804
:1019C00007009DF8070002B080BD00BF603C00200A
:1019D00070B5FFF7EDFE00200024FFF74FFE104D1D
:1019E0004B20A847FF20A847FF20A847FF20A84773
:1019F000FF20A8470826002508E0FFF777FF290207
:101A000040EA0420013E41EA14650446002EF4D168
:101A10000120FFF733FEFFF7CBFE2046294670BDBD
:101A20009D19000880B50020FFF728FE0620FFF76B
:101A3000B5FF0120BDE88040FFF720BEFEE77047FC
:101A400070470022AFF3008010B50F4C8446607AD7
:101A500008B1012010BD94F809E0002004F80E0040
:101A6000637A04EB8303C3F804C0637A23441A72D5
:101A7000627A531C3032637242F63A73C870A1F82E
:101A800001300A7010BD00BF1C350020F8B50546B6
:101A900043F480401F4614460E46B0F5804F04D0F4
:101AA000D74840F24F1105F0A9FCB7F5804F4FD150
:101AB0002B48854204D0D24840F2551105F09EFCD7
:101AC0003068102804D3CE484FF4AB7105F096FC73
:101AD000706801380F2804D3C94840F2571105F047
:101AE0008DFCB0680138FF2804D3C5484FF4AC71B1
:101AF00005F084FCF068102804D3C14840F2591165
:101B000005F07CFCB0694FEA3070042804D3BC486F
:101B10004FF4AD7105F072FC062C04D80120A040F2
:101B200010F0550F04D1B64840F25B1105F066FC89
:101B300055F824000B49084096E88E000843B16927
:101B400040EA021040EA032040EA0740084301E06F
:101B50006FF0704045F82400002001B0F0BD00BFD8
:101B6000040100A00000F0CF2DE9F0470D468046AB
:101B7000B0F1204F03D0A248862105F03FFC286831
:101B8000062805D8012101FA00F010F0550F03D105
:101B90009B48872105F032FC686840F0020002286B
:101BA00003D09748882105F029FCA868082806D8A2
:101BB000012101FA00F040F21111084203D19048CE
:101BC000892105F01BFCE86838B1102805D02028D1
:101BD00003D08B488A2105F011FC286940F48070FD
:101BE000B0F5807F03D086488B2105F007FC68693B
:101BF00040F40070B0F5007F03D081488C2105F0DF
:101C0000FDFBA86940F48060B0F5806F03D07C488C
:101C10008E2105F0F3FBE86940F40060B0F5006F39
:101C200003D07748902105F0E9FB286A40F4805002
:101C3000B0F5805F03D07248912105F0DFFB686A40
:101C400040F40050B0F5005F03D06D48922105F0DC
:101C5000D5FBA86A40F48040B0F5804F03D06848B7
:101C6000932105F0CBFBE86A40F40040B0F5004F4B
:101C700003D06348942105F0C1FB286B40F4002099
:101C8000B0F5002F03D05E48952105F0B7FBD5F8DD
:101C90003CE04FEA3E41052905D35948962105F01D
:101CA000ADFBD5F83CE0D5E900C205F1080A1849BA
:101CB0009AE8D804D5F81C9058F82C00082B00EAB4
:101CC000010040EA020040EA030040EA040040EA62
:101CD000060005F1200640EA070056CE2D6B40EACB
:101CE0000A0040EA090040EA010040EA020040EA36
:101CF000040040EA060040EA0E0040EA050008BF82
:101D000040F0400048F82C000020BDE8F08700BFFC
:101D10008000F0FFF8B515460C460646B0F1204F9E
:101D200004D037484FF48C7105F068FB2068102808
:101D300004D3334840F2191105F060FB60680138A4
:101D40000F2804D32E484FF48D7105F057FBA0687F
:101D50000138FF2804D32A4840F21B1105F04EFB3E
:101D6000E068102804D326484FF48E7105F046FB36
:101D7000206902380F2804D3214840F21D1105F0D4
:101D80003DFB60690238102804D31D484FF48F7161
:101D900005F034FBA0694FEA3070042804D31848DA
:101DA00040F21F1105F02AFB062D04D80120A8409F
:101DB00010F0550F04D112484FF4907105F01EFB3E
:101DC00006EB85000F4FD0F804C094E84C00D4E92E
:101DD0000351D4E905E407EB01510CF040473A43C5
:101DE00042EA031242EA062242EA054211430EF198
:101DF000FE02214341EA02614160002001B0F0BDD2
:101E00004C9900080000F0FF00287ED010B5044671
:101E100000687A49884203D03D48592105F0EEFA1E
:101E2000A06840F02000202803D039485A2105F04E
:101E3000E5FAE06840F08000802803D034485B2158
:101E400005F0DCFA206940F04000402803D030481B
:101E50005C2105F0D3FA606840F01000102803D030
:101E60002B485D2105F0CAFA606948B1B0F5807F62
:101E700006D0B0F5007F03D025485E2105F0BEFAFC
:101E8000A0694FEAB020042803D321485F2105F060
:101E9000B5FA206A40F00800082803D01C486021E9
:101EA00005F0ACFA94F8250010B9204600F032F89D
:101EB000022040F6F87284F82500206801689143FA
:101EC0000160D4E9011CD4E9033E62690A43102988
:101ED00042EA0302A36942EA0E0242EA0C0242EA23
:101EE0000302236A42EA0302036842EA0302026031
:101EF00004BFE1698161C16841F01E01C160002039
:101F00000121E06384F8251010BD0120704700BF57
:101F1000109900082DE9F04387B0044602A8142167
:101F2000FEF791FC20683549884263D10026344889
:101F3000344C4FF00D080227DFF8CC9002AD01962B
:101F4000416841F001014160416801F001010191E6
:101F500001990196016841F010010160016801F0EA
:101F60001001019101990196016841F001010160A0
:101F7000016801F00101019101990196016841F0A8
:101F800004010160016801F00401019101990196C9
:101F9000016841F0020101602946006800F002007A
:101FA00001900198CDF81880CDE904660397702060
:101FB000029004F58050C8475020CDE90568CDE96E
:101FC0000376294602902046C8474FF47070CDE949
:101FD0000568CDE903762946029004F50060C847FC
:101FE000C020CDE90568CDE903762946029004F5C5
:101FF0008060C84707B0BDE8F08300BF000005500F
:1020000030380240000002405120000890F835109E
:10201000022909D1052180F835100068016821F0F6
:102020000101016000207047802141650120704757
:10203000B0B5044600F0A6F90546D748611C007803
:1020400018BF044400F09EF9401BA042FAD3B0BD73
:102050002DE9FE4F05468A480C4628444FEAB02633
:10206000092E03D38748B32105F0C8F92068002161
:10207000B1EB104F01D180B218B98248B42105F0FC
:10208000BDF96068122800F2DD8001217E4A81409E
:10209000114200F0D780A068032803D37948B62105
:1020A00005F0ACF97F4808214FF0010C4FF0000813
:1020B0004FF000094FF0000A854208BF072104F1E4
:1020C0001000072E38BF314600910190BAF1100F71
:1020D00008BFBDE8FE8F20680CFA0AFB10EA0B0F60
:1020E00000F0A980606840F01001122926D1019803
:1020F0000068102806D281B24BF6FF7222FA01F175
:10210000C90707D15F48C72105F078F901984FF05A
:10211000010C02E067A101EB80006FF0030309F0FE
:102120001C010F22006803EA5A038A402B448840AE
:102130001E6A26EA020210431862606803222B68B6
:1021400000F00301122802FA08F201FA08F123EA6A
:1021500002036FEA020641EA030129601ED80CFA65
:1021600000F111F0061F19D0E168042907D3454892
:10217000DA2105F043F96068E1684FF0010CAA68C4
:1021800001FA08F132401143A960C0F300116A68F6
:1021900001FA0AF122EA0B0211436960E968A268B8
:1021A000C00001EA060102FA08F241EA0201E96010
:1021B00041D5002009F00C020F2302903C489340C7
:1021C0000146006840F4804008600868364900F421
:1021D00080400E4602902AF00300084402994549C7
:1021E0000F4641589943009B03FA02F21143C15133
:1021F0003068626840EA0B01D30358BF20EA0B0144
:1022000031609303706840EA0B0158BF20EA0B016C
:102210007160D302B06840EA0B0158BF20EA0B019D
:102220002248B16092020346006840EA0B0158BFA1
:1022300020EA0B01196008F1020809F104090AF10A
:10224000010A43E7114988423FF425AF104988420B
:102250003FF421AF0F4988423FF41DAF0E49884239
:102260003FF419AF0D4988423FF415AF0C4988423D
:102270003FF411AF0348B52105F0C0F80BE700BFEC
:102280000000FEBF9D9A00080F000600000011101C
:102290000000121000002110000022100000311078
:1022A00000003210001C0240003C01400C3C014088
:1022B000443802400000000001000000020000005D
:1022C00003000000040000000500000006000000FC
:1022D0000700000008000000090000000A000000DC
:1022E0000B0000000C0000000D00000000000000CA
:1022F0000F00000008FCFFFFB0B50C46054621B9F1
:1023000017484FF4BF7105F079F82869204018BFCD
:102310000120B0BDB0B50C46054621B910484FF4B8
:10232000DB7105F06BF868692040A04208BF240407
:10233000AC61B0BD70B516460C46054621B90848DB
:1023400040F29F1105F05AF83EB1012E06D0044824
:102350004FF4D07105F052F800E02404AC6170BD78
:102360009D9A0008064800686FF31F30704700BF51
:10237000004870470006070101480068000C7047DC
:10238000002004E001480068704700BF983D00202D
:1023900001480078704700BF000000200148006835
:1023A000704700BF107AFF1F01480068704700BFE8
:1023B000147AFF1F01480068704700BF187AFF1F9A
:1023C000B0B5002800F08380044600688449884244
:1023D0000AD08449884207D08349884204D0834880
:1023E00040F2BB1105F00AF8606881490138884263
:1023F00004D37E484FF4DE7105F000F8A06840F485
:102400008040B0F5804F04D0784840F2BD1104F010
:10241000F5FFE068B0F5806F04D3FB484FF4DF713F
:1024200004F0ECFF206940F40040B0F5404F04D0C8
:10243000F54840F2BF1104F0E1FF6069022804D3BF
:10244000F1484FF4E07104F0D9FFA0696FF0FE018C
:10245000084204D0EC4840F2C11104F0CFFFE0691B
:1024600040F04000402804D0E7484FF4E17104F008
:10247000C5FF206A40F08000802804D0E24840F286
:10248000C31104F0BBFF94F83D0028B9002084F884
:102490003C00204600F0C0F9242084F83D0020686C
:1024A000016821F00101016001F0A0F95149524B8E
:1024B0000022524D88424FF0000138BF012198425E
:1024C00038BF01226368AB4238BF0A460AB1012017
:1024D000B0BD4B49B0FBF1F221684D6825F03F05D6
:1024E00015434D600D6A25F03F0C464DAB4213D8A5
:1024F0000132013842EA0C020A625A004CF6FF73BC
:10250000B0FBF2F001306FF31F30042898BF0420B5
:10251000CA6922EA030C3AE04FF49675A0F1010E65
:102520006A434FF47A75B2FBF5F24CF6FF7501324F
:1025300042EA0C020A62CA6922EA050CA26842B1A8
:10254000192004255843BEFBF0F0013065F31F301D
:1025500006E003EB4300BEFBF0F001306FF31F30E9
:10256000000509D052B1192004225843BEFBF0F0F7
:10257000013062F31F3008E0012008E003EB430064
:10258000BEFBF0F001306FF31F3040F4004040EA32
:102590000C00C8610868D4E9072320F0C00010438C
:1025A00048F2FF321843086088689043D4E9032357
:1025B000184310438860C868D4E9052320F0FF0061
:1025C00010431843C860086840F00100086000200C
:1025D0002021206484F83D10206384F83E00B0BDC3
:1025E0000054004000580040005C004084990008FE
:1025F000801A060080841E0000093D00A1860100AB
:1026000040420F00A08601002DE9FE431F461646FA
:102610000D460446FFF7B6FE8146012F06D0102F67
:1026200004D0794840F6E81104F0E8FE94F83D0043
:1026300020280CD17549204601221923CDF800909D
:1026400002F084F918B994F83C00012803D1022063
:1026500003B0BDE8F0830DF12808012298E80301DA
:1026600084F83C2022681368DB0702BF136843F03C
:1026700001031360136823F40063136022223B46B6
:1026800084F83D20402284F83E20002222646185A7
:1026900060625F493246608DE162294620852046AE
:1026A000CDE9008902F0D8F808B10120D0E7208DEB
:1026B000022806D0012810D00021F8B90291216823
:1026C00012E021680A6822F480620A600A6842F413
:1026D00000620A600022029212E021680A6822F475
:1026E00080620A60002202924A6902928A6902921A
:1026F000029A0A6842F400720A6006E002912168B8
:102700004A690292896902910299424F70E085B24A
:10271000032D0DD8012D26D1204641464A4602F010
:102720009BF90028C1D120680069616A087056E0F1
:10273000204641464A4602F08FF90028B5D120686C
:102740000069616A0870606A2168421C6262208DBB
:1027500001382085638D013B63854B695B0747D555
:10276000086910703BE02046394600224346CDF808
:10277000009002F0EBF8022D1AD0002895D12068C5
:1027800000224346016821F4806101600069616AAA
:1027900008703946606A01306062208D01382085FA
:1027A000608D013860852046CDF8009002F0CEF8AB
:1027B00000287FF47AAF2068016841F4007101605D
:1027C0000069616A0870616A20684A1C6262228D31
:1027D000013A2285628D013A628500694870606A1B
:1027E00001306062208D01382085618D013961855D
:1027F00001048CD1202084F83D00002084F83C00A6
:1028000084F83E0024E700BF84990008020010000D
:102810000000FFFF04000100B0B586B0044601A827
:102820001421FEF710F821681548814225D10025B2
:10283000144C00F5D8300095216841F00201216068
:10284000216801F002010091009904210591032102
:10285000049101210391122102914FF440710191E1
:1028600001A9FFF7F5FB0095206940F400102061F5
:10287000206900F400100090009806B0B0BD00BFC1
:1028800000540040303802401F48034900780A686D
:1028900010440860704700BF983D002080B50B4889
:1028A000016841F400710160016841F480610160D8
:1028B000016841F480710160032000F089F8002074
:1028C00000F006F800F024F8002080BD003C024033
:1028D00070B50D4E04464FF47A713078B1FBF0F0CC
:1028E0000A490968B1FBF0F001F092FC01250F2CB8
:1028F00008D838B94FF0FF3021460022002500F0FB
:1029000039F87460284670BD0000002028000020BF
:1029100082B000200C4901904A6842F480424A602B
:102920004A6802F480420192019A0090086840F0DF
:1029300080500860086800F08050009000980520E2
:1029400002B000F045B800BF40380240B0F1FF3F90
:1029500009DD00F01F010122400902FA01F1044AD9
:1029600042F8201070472448BE2104F047BD00BF44
:1029700000E100E070B514460E460546102A03D368
:102980001D48AA2104F03AFD102E03D31A48AB21AA
:1029900004F034FD19484FF0FF320068C0F3022004
:1029A000C11E80F0070038BF0021042828BF042082
:1029B00002FA00F026EA0000884002FA01F124EA57
:1029C000010101432846BDE8704004F003BD00BF8B
:1029D00010B504460338052803D30748922104F0B4
:1029E0000DFD06484FF6FF0201681140044A64F3EA
:1029F0000A211143016010BDD69A00080CED00E0D9
:102A00000000FA0570470068416200207047D0F866
:102A100000C00029DCF824001BD080B5DCF8283089
:102A2000A1F1010E00EB1343002006E00CEB810145
:102A30000130D1F8041103EB1143C1B28E45F5D832
:102A40000CEB8E0043EA0241C0F80411BDE880405F
:102A500003E040EA0240CCF8280000207047D0F89C
:102A6000040403F094BBC1EBC10200EB8202D0F876
:102A70000404926C03F0EDBAC1EBC10200EB8202D8
:102A8000D0F80404D2F8082203F042BBD0F80404C2
:102A900003F07FBB10B5044601F00F00090609D40E
:102AA000C0EBC001002204EB810181F8FD2101F59A
:102AB000FE7107E0C0EBC001012204EB810181F847
:102AC0003D203C31087094F8BC03012804BF02206B
:102AD00010BD012084F8BC03206804F04BF80020EE
:102AE00084F8BC0310BDB0B5044601F00F00626865
:102AF000904201D9012524E0090609D4C0EBC001A8
:102B0000002204EB810181F8FD2101F5FE7107E04F
:102B1000C0EBC001012204EB810181F83D203C3172
:102B2000002508708D7094F8BC03012801D102259E
:102B300007E0012084F8BC03206804F0F1F984F870
:102B4000BC532846B0BD10B5044690F8BC0301281C
:102B500004BF022010BD01200A0684F8BC032068CF
:102B600002D404F0D1FA03E001F00F0104F0DCFA22
:102B7000002084F8BC0310BD01F00F01C1EBC101BE
:102B800000EB8100D0F81402704710B5044601F044
:102B90000F00090609D4C0EBC00104EB810C002131
:102BA0008CF8FD110CF5FE7108E0C0EBC00104EBE0
:102BB000810C01218CF83D100CF13C018A60CB7036
:102BC00008704A7802B1C880022B04BF0020087147
:102BD00094F8BC03012804BF022010BD012084F832
:102BE000BC03206803F00AFF002084F8BC0310BD7A
:102BF00080B501F00F0CCCEBCC0100EB810E002175
:102C0000CEE98431CEF808228EF8FD118EF8FCC191
:102C10000EF5FE710369012B08BFCEF80C22DAB263
:102C20000068BCF1000F02D004F0AEF901E004F03E
:102C3000D3F8002080BDB0B50446406801F00F0510
:102C4000854284BF0120B0BD080609D4C1EBC10094
:102C5000002104EB800080F8FD1100F5FE7108E012
:102C6000C5EBC500012104EB800080F83D1000F1A8
:102C70003C0101200D70887094F8BC23012A04BF28
:102C80000220B0BD84F8BC03206804F061F92DB9BE
:102C9000217C206804F5717204F016F9002084F894
:102CA000BC03B0BD10B501F00F0C0024CCEBCC017F
:102CB00000EB810E714601F83CCFC1E905340123D8
:102CC000CA604B700369012B08BFCEF84C20DAB202
:102CD0000068BCF1000F02D004F056F901E004F0E6
:102CE0007BF8002010BD00002DE9F04F87B0814631
:102CF0000068059004F03AFA10B107B0BDE8F08F13
:102D0000D9F8000004F05EFA0028F6D0D9F80000E7
:102D100004F058FA0146D9F80000890742BF41691A
:102D200001F00201416104F04DFA000340F1DD8041
:102D3000D9F8000004F025FAE24D064609F5717055
:102D400009F505714FF0000B4FF430680490C9E0AD
:102D5000F00700F0C180AA46D9F800005FFA8BF5B1
:102D60000691294604F026FA0746C00763D0059865
:102D7000012140448160D9F8000008EB0004016C97
:102D8000A068D9F81020012A2AD1020738D4820677
:102D90004FD410F0280F4ED152460AF10102914251
:102DA00002D310F4004041D1069B53E9040122698B
:102DB0006FF3DF42821A084429461A6043F80C0C6C
:102DC0004846FFF759FEB8F5306F34D1D9F81002F4
:102DD00088BBD9F80000049A012104F075F82AE0B4
:102DE00052460AF58072914205D101041ED4800634
:102DF00044BF2020A06048462946FFF73DFE1AE068
:102E000052460AF10102914205D310F400401CBF62
:102E10004FF40040A060484600F0B5FBD9F8000030
:102E2000049A012104F050F8082003E04FF4004018
:102E300000E02020A060380755462FD5D9F80010B3
:102E400008EB01000C6C8168D9F81020012A05D12B
:102E5000AC4207D8484600F096FB1BE005F58072AF
:102E6000944212D1090444BF4FF4004181604846A6
:102E700000F089FBD9F8100001280BD1D9F8000027
:102E8000049A012104F020F804E0484600F07BFB9E
:102E9000AC42EFD80598082140448160F80603D57C
:102EA0000598102140448160B8060DD5D9F810006E
:102EB000012805D1D9F80000049A012104F004F892
:102EC00005982021404481600699B80404D50598EE
:102ED0004FF40052404482601C3108F1200876080B
:102EE0000BF1010B002E7FF433AFD9F8000004F092
:102EF00069F9400340F1B880D9F8000004F03AF9CC
:102F0000044609F5717000270190059800F51066D8
:102F10000296A6E0E00700F0A280D9F80000F9B21E
:102F2000069104F035F90546C0072DD0059907F044
:102F30000F00012303FA00F00A46D1F8341821EA01
:102F40000000C2F8340806EB47108360D9F810007F
:102F5000012807D1C7EBC70009EB8000D0E91112A7
:102F60001144816406994846FFF77DFD67B9D9F899
:102F70001000012808D1D9F8500028B9D9F800006C
:102F8000019A012103F0A0FF280742BF06EB47107A
:102F900008218160E80642BF06EB471010218160DE
:102FA000680642BF06EB471040218160A80742BF78
:102FB00006EB471002218160280650D5C7EBC700F9
:102FC00009EB800AD3465BF8500FD84658F8042F17
:102FD000904244D35AF8441FD9F8005004943B4619
:102FE000841A4F468C4288BF0C4605EB43110AF108
:102FF0000406039301F5106917E03C7CDAF8003011
:1030000031680094841A28469C4288BF1C46069A60
:10301000A3B204F089F9306820443060D8F8000089
:103020000219C8F80020DBF80000D9F81830E11CBC
:103030009BB2B3EB910F28BF9042DED8B946049CF7
:10304000DDE9026790420AD807F00F00012101FA7A
:1030500000F0D5F8341821EA0000C5F834086408F7
:103060000137002C7FF456AFD9F8000004F0AAF81D
:10307000002802DBD9F800001CE005980146D0F8D2
:10308000040820F00100C1F8040899F8F4030128AD
:1030900007D10020002189F8F4034846FFF7B2FC6D
:1030A00002E0484600F053FAD9F80000416901F007
:1030B0000041416104F086F8000505D4D9F800000C
:1030C00010E000BF0A30544F0598D0F80808C00738
:1030D00002D0484600F07EFAD9F80000416901F4B8
:1030E0000061416104F06EF8C00402D4D9F8000018
:1030F00052E0059C1021D4F8040820F00100C4F827
:103100000408D9F8000004F00FF8D9F8042004F5F9
:10311000106104F500604FF67F330EE08B60013ADA
:103120000F6827F400170F60C1F80832D1F8007259
:1031300027F40017C1F800722031002AEED1C169CE
:1031400041F00111C161D9F8301041B1D0F88410BB
:1031500041F00B01C0F8841000F1440106E0416920
:1031600042F22B021143416100F110010A6842F062
:103170000B020A6009F57172016821F4FE610160B9
:1031800099F81010D9F8000003F09EFED9F800005D
:10319000416901F48051416104F014F80146D9F805
:1031A000000089041AD503F06FFCD9F8000003F081
:1031B000CFFFC9F80C00D9F8005000F013FB99F8C4
:1031C0000C200146284604F037F8484600F0AAF9DA
:1031D000D9F80000416901F40051416103F0F2FFA8
:1031E0000146D9F80000C9063FD5816921F01001D8
:1031F00081610598046AC4F3434004F00F05062872
:103200001CD002282BD147F6F070044027D0C5EB24
:10321000C500220909EB80050598D5F8081203F0CE
:10322000D5FFD5F80802D5F8141200EB1410C5F834
:10323000080201EB1410C5F8140210E0059809F516
:103240007171082203F0C2FFC5EBC50009EB8000D5
:10325000D0F81412C4F30A121144C0F81412D9F8A9
:103260000000816941F01001816103F0ABFF0007AC
:1032700002D4D9F8000008E0484600F06CF9D9F80B
:103280000000416901F00801416103F09BFFC002A9
:1032900002D4D9F8000009E04846002100F03AF8CD
:1032A000D9F80000416901F48011416103F08AFFFF
:1032B000800202D4D9F8000009E04846002100F05D
:1032C0002DF8D9F80000416901F40011416103F0C3
:1032D00079FF400002D4D9F8000008E04846FFF723
:1032E000BEFBD9F80000416901F08041416103F063
:1032F00069FF40077FF501ADD9F800004468610718
:1033000004D54846FFF7C2FBD9F8000041682143C5
:103310004160F2E4D0F8040402F096BFD0F804044F
:1033200002F094BF2DE9F04F8BB0002800F08B80A5
:10333000044605684B48854207D0B5F1A04F04D03C
:1033400049A0872104F05AF8256894F8BD0328B9EC
:10335000002084F8BC03204600F0A2F8032084F883
:10336000BD03E86BC0055CBF00202061206803F04E
:103370002DFD206804F1040E04F11C0A0A909EE859
:103380000E589AE8C007D4E90C50CDE9085003A8BC
:103390008DE8005880E8C0070A9803F091FB0028E8
:1033A0004ED120680021002503F01EFF6168012036
:1033B00000220FE0C3EBC30704EB8707A7F84230F6
:1033C00087F83C2087F83D003D65C7E9115587F82F
:1033D0003F500132D3B29942ECD8002000220EE0D7
:1033E000C3EBC30304EB8303C3F81002C3E98100FA
:1033F00083F8FF0183F8FC2183F8FD010132D3B289
:103400009942EDD8A06804F1140E04F1240A226850
:103410000A90D4E903379EE840589AE80007D4E9B7
:103420000C50CDE9085002A8CDE9007680E800589C
:1034300005A880E8000710460A9A03F0EFFB38B1B0
:10344000022084F8BD03012528460BB0BDE8F08FAB
:103450000025012084F8385084F8BD03206803F06B
:10346000D1FBF1E7000004402E2E2F4472697665EF
:1034700072732F53544D3332463478785F48414C41
:103480005F4472697665722F5372632F73746D3364
:1034900032663478785F68616C5F7063642E6300B5
:1034A000B0B586B0044601A81421FDF7CCF9206818
:1034B000B0F1A04F2FD10025184C01A9009520682C
:1034C00040F001002060206800F0010000900098AA
:1034D0000A2005900320CDE90350022002904FF40A
:1034E000C05001900E48FEF7B3FD60680021002235
:1034F00040F0800060600095606940F48040606149
:10350000606900F48040009000984320FFF732FA91
:103510004320FFF71BFA06B0B0BD00BF30380240B1
:103520000000024010B50446C06828B1022801D04E
:10353000FEF786FA012100E00021D4F8040402F02D
:10354000D9FED4F80404BDE8104002F096BED0F8CD
:10355000040402F0BBBED0F8040402F0BDBE10B5F6
:10356000044690F8BC03012804BF022010BD0120CE
:1035700084F8381084F8BC03206803F04CFE002067
:1035800084F8BC0310BDD0F8042400F57171104616
:1035900002F0BCBE10B5044690F8BC03012804BF7D
:1035A000022010BD0121206884F8BC13A16A012902
:1035B00006D1A16901291EBF816B41F4803181636D
:1035C00003F014FB206803F099FD002084F8BC038D
:1035D00010BD000010B50446D0F8040402F0D3FE7C
:1035E0002068D0F8001E41F00101C0F8001E206ADA
:1035F00020B10348016841F00601016010BD00BF21
:1036000010ED00E02DE9F041002800F0CB800446E9
:1036100000680D4601380F2804D3D1484FF41071CB
:1036200003F0ECFE082D04D3CD4840F2412103F015
:10363000E5FE6A4ED6F8000400F00F00A84208D25A
:1036400086F80054D6F8000400F00F00A84240F0BD
:10365000A9802068B04681071ED5410742BFB168E6
:1036600041F4E051B160010742BFB16841F46041EB
:10367000B160A1684FEA31120F2A00F2978001234E
:1036800003FA02F24FF601731A4200F08F80B2681B
:1036900022F0F0021143B160C00747D1D8F800040E
:1036A00000F00F00A84207D988F80054D8F80004A9
:1036B00000F00F00A84275D12068410711D5E168DC
:1036C0004FEAB122072A79D8012303FA02F212F055
:1036D000F10F73D0D8F8082022F4E0521143C8F853
:1036E0000810000712D520694FEAB02107296DD8CC
:1036F000012202FA01F111F0F10F67D0D8F8081099
:1037000021F4604141EAC000C8F8080000F086F8E2
:10371000D8F80810324A0026C1F30311515CC840A2
:103720003C4908600020FFF7D3F83CE06668B01E13
:10373000022810D396B3012E474607D0884840F29E
:103740006B2103F05BFE6668012E05D13868012607
:10375000800308D427E0474626F0010002281ED146
:10376000386880011ED5B86820F003003043B86087
:10377000FEF708FE064641F288374046D8F80800B2
:10378000616800F00C00B0EB810F3FF487AFFEF7EB
:10379000F9FD801BB842F0D9032604E0474638689B
:1037A0008007E0D401263046BDE8F0816C484FF434
:1037B000197103F023FE2068A16868E7684840F2A9
:1037C000A92103F01BFE2068E16883E764484FF4F9
:1037D0002C7103F013FE206990E700BF003802400F
:1037E000D89600080B480068704700BF09485E493A
:1037F000094A00680968C1F38221515CC8407047DA
:1038000004485949044A00680968C1F34231515CCF
:10381000C840704728000020E896000810B5144CF6
:10382000606800F00C011348082904D0042904BF83
:10383000114810BD10BD2168236801F03F022168C6
:103840005B02C1F3881105D4A1FB00010023FCF742
:10385000A6FD03E008484843B0FBF2F021680222CD
:10386000C1F3014102EB4101B0FBF1F010BD00BF1B
:10387000043802400024F40000127A00F0B585B04C
:1038800014460D460746022804D3354840F2F1217C
:1038900003F0B4FD4FEA346007285BD8012101FA38
:1038A00000F010F0F10F55D02E4A2F4E37B3A8007C
:1038B00006D02B4840F20E31174603F09FFD3A46E2
:1038C00000200090B16A41F00401B162B16A01F0D8
:1038D00004010091009903210391022101914FF409
:1038E000007100910490029002F500606946FEF7B5
:1038F000AFFB3068E40020F0784025E04FEA7550D7
:10390000042806D3164840F2F621174603F076FD48
:103910003A4600200090B16A41F00101B162B16AFB
:1039200001F001010091009903210391022101910D
:103930004FF4807100910490029069461046FEF7A2
:1039400087FB306820F0EC6044EA050108433060F2
:1039500005B0F0BDFA4840F2F22103F04FFDA3E7B5
:10396000659A000800000240083802402DE9FC4139
:10397000002800F04E8104460068102805D3DFF8C7
:10398000C003E82103F03AFD2068CF4EC0073CD0C9
:10399000606850B1B0F5803F07D0B0F5A02F04D0DB
:1039A000DFF89C03ED2103F029FDB06800F00C0066
:1039B000042823D0B06800F00C00082802D17068F9
:1039C00040021BD46768B7F5803F07D03068B7F571
:1039D000A02F40F07B8140F480203060306840F4BC
:1039E00080303060FEF7CEFC0546306880030CD492
:1039F000FEF7C8FC401B6428F7D9C4E03068800398
:103A000003D56068002800F00481207880073CD549
:103A1000E068022804D3CA4840F21F1103F0EEFC0C
:103A20002069202804D3C6484FF4907103F0E6FCC7
:103A3000B06810F00C0F07D0B06800F00C00082838
:103A400009D17068400206D43068800716D5E06856
:103A5000012813D0DDE0E168BA48002900F0958024
:103A600001210160FEF78EFC05463068800705D411
:103A7000FEF788FC401B0228F7D984E030682169F2
:103A800020F0F80040EAC10030602078000729D516
:103A90006069AC4DB8B1012806D0A9484FF4B071A7
:103AA00003F0ACFC606970B10120C5F8800EFEF730
:103AB00069FC0546706F800714D4FEF763FC401B59
:103AC0000228F7D95FE00020C5F8800EFEF75AFC07
:103AD0000546706F800705D5FEF754FC401B022891
:103AE000F7D950E0207840077ED5A068052805D892
:103AF000012101FA00F010F0230F04D190484FF497
:103B0000C67103F07BFC306C4FF00008C0000CD491
:103B1000CDF804804FF00108306C40F080503064E4
:103B2000306C00F0805001900198874F3868C005D4
:103B30000FD4386840F480703860FEF723FC0546E7
:103B40003868C00505D4FEF71DFC401B0228F7D9D4
:103B500019E0A768012F05D0306F052F25D140F05F
:103B600004003067306F40F001003067FEF70AFC58
:103B7000054641F28837306F80072ED4FEF702FCED
:103B8000401BB842F7D9032044E000210160FEF752
:103B9000F9FB0546306880077FF577AFFEF7F2FB4B
:103BA000411B03200229F5D934E020F001003067E1
:103BB000306F20F004003067FEF7E4FB0546002F6D
:103BC000D7D141F28837306F800706D5FEF7DAFB90
:103BD000411B0320B942F6D91CE0B8F1000F1EBF0B
:103BE000306C20F080503064A069411E02290BD354
:103BF000002800F0A280524840F2CF1103F0FEFBF3
:103C0000A069002800F09980B16801F00C01082932
:103C100003D1012002B0BDE8F081022843D1E06960
:103C200040F48000B0F5800F04D045484FF4EC71AB
:103C300003F0E4FB206A402804D3414840F2D91144
:103C400003F0DCFB606A3238B0F5BF7F04D93C4832
:103C50004FF4ED7103F0D2FBA06A082805D80121CA
:103C600001FA00F010F4AA7F04D1354840F2DB11CC
:103C700003F0C4FBE06A02380E2804D330484FF446
:103C8000EE7103F0BBFB2F4F00203866FEF77AFB86
:103C900005463068800131D5FEF774FB411B0320D7
:103CA0000229F6D9B6E7274800210166FEF76AFB2C
:103CB00004463068800140D5FEF764FB011B0320F9
:103CC0000329F6D3A6E700BF0038024020F4803075
:103CD0003060306820F480203060FEF753FB0546EA
:103CE000002F7FF482AE306880037FF58EAEFEF742
:103CF00049FB411B03206429F5D98BE704F11C051E
:103D00002FCD0843D90340EA82104FF6FF7291434A
:103D100040EA0560A1F580310843706001203866F3
:103D2000FEF730FB04463068800106D4FEF72AFB1C
:103D3000011B03200229F6D96CE700206AE700BFC7
:103D4000659A0008000047420070004070B50028E6
:103D500000F0A98004460068544988420AD05449BA
:103D6000884207D06C49884204D0E64840F23F11AF
:103D700003F044FB606838B1B0F5827F04D0E148BD
:103D80004FF4A07103F03AFBA06850B1B0F5806F1A
:103D900007D0B0F5004F04D0DA4840F2411103F0EB
:103DA0002DFBE06840F40060B0F5006F04D0D5480A
:103DB0004FF4A17103F022FBA06950B1B0F5007F70
:103DC00007D0B0F5802F04D0CE4840F2431103F065
:103DD00015FBE0694FEAF000082804D3C9484FF406
:103DE000A27103F00BFB206A40F08000802804D011
:103DF000C44840F2451103F001FB606A40B110284D
:103E000018D0C0484FF4A37103F0F8FA606A88B97B
:103E1000206940F00200022804D0BA4840F249115B
:103E200003F0ECFA6069022804D3B6484FF4A57198
:103E300003F0E4FA00264FF0000CA66294F851005B
:103E400030B9204684F8506000F034F8D4F828C027
:103E5000022184F8511021680A6822F040020A60A9
:103E6000D4E90123D4E903051A43104362692843C6
:103E70001043A26902F400731843E3691843236AEC
:103E8000184340EA0C000860042000EA1240626A0D
:103E900010434860C86920F40060C861012066656D
:103EA00084F8510000E00126304670BD0038004023
:103EB000003C004010B586B0044601A81421FCF770
:103EC000C2FC21681448814223D10021134A00F525
:103ED00054400091536943F480535361536903F490
:103EE00080530093009B0091136843F0020313601A
:103EF000126802F002020092009A05220592032243
:103F0000CDE90312022102913821019101A9FEF7A6
:103F10009FF806B010BD00BF0030014030380240AD
:103F20002DE9F843044680681E4615460F4620B129
:103F3000744840F2564103F061FA94F850000128A9
:103F400001D10220C4E0012084F85000FEF71AFAE3
:103F500094F85110814601296BD10120002F00F007
:103F6000B180002D00F0AE80002E00F0AB8094F800
:103F70005100DDF8208004281CBF052084F8510082
:103F800000206065E687A563A6872763C4E9100063
:103F9000A686E6862068016849065EBF016841F092
:103FA000400101606268711EE368B1FA81F1B2FA02
:103FB00082F24909B3F5006F4FEA521241EA020159
:103FC00045D131B137F8021BC1602763E08E01385B
:103FD000E086012608F10105E08E10B9E08F002887
:103FE00079D02068816889070CD5E18E012E09D12E
:103FF00041B1216B002631F8022BC2602163E18EB2
:104000000139E1868168C9070AD0E18F41B1C068F2
:10401000A16B012621F8020BA163E08F0138E08734
:10402000FEF7B0F9002DD7D0A0EB09004045D3D35F
:1040300047E06068B0F5827F07D10220042941D1B2
:10404000A16800293FF489AF3CE002203AE039B191
:1040500039780173206B01302063E08E0138E086EF
:10406000012608F10105E08E08B9E08F98B32068B9
:10407000816889070ED5E18E012E0BD151B1216BDC
:10408000002609780173216B206801312163E18EDC
:104090000139E1868168C9070BD0E18F49B1C06859
:1040A000A16B01260870A06B0130A063E08F01387E
:1040B000E087FEF767F9002DD5D0A0EB0900404559
:1040C000D1D30320002184F85010012184F851102D
:1040D00001B0BDE8F083204641464A4601F0D2FBDC
:1040E00018B1202060650120ECE7A16800200029BC
:1040F000E8D100902168CA6800928968009100990F
:10410000E0E700BFBC99000830B370B5044690F8F2
:10411000490015460E4628B9002084F8480020467C
:1041200000F01CF8206804F10801FDF71DFD20686F
:10413000A2683146FDF7EEFDD4E90102236B294662
:10414000FDF7A4FC2068A16850F8212042F001028C
:1041500040F82120002070BD012070472DE9F04774
:1041600086B001A81421FCF76EFB254801780029D0
:1041700043D101214FF0000A234C4FF00C084FF0BF
:1041800003090227214E01AD01701E48CDF800A0A1
:10419000016841F0010101602946006800F001005A
:1041A00000900098CDF81480CDE903A902974FF252
:1041B0003F00019004F50060B04741F23F40CDE977
:1041C0000498CDE9027A2946019004F54060B04791
:1041D0004FF68370CDE90498CDE9027A2946019023
:1041E00004F58060B0474FF67370CDE90498CDE9CF
:1041F000027A294601902046B04706B0BDE8F08714
:10420000EC11002038380240000C02405120000818
:10421000411E0020B0EB116F1CBF01207047044A03
:10422000F023516003490B700721906011607047C3
:1042300010E000E023ED00E0002869D0B0B50446AE
:104240000068B0F1804F2BD08749884228D0874939
:10425000884225D08649884222D0864988421FD08C
:10426000854988421CD08549884219D084498842B2
:1042700016D08449884213D08349884210D083499C
:1042800088420DD0824988420AD08249884207D0AC
:104290008149884204D081484FF4857103F0AEF81B
:1042A000A0684FEA3010062834D8012101FA00F046
:1042B00010F0570F2ED0206950B1B0F5807F07D095
:1042C000B0F5007F04D075484FF4867103F096F87E
:1042D000A069251D40F08000802804D06F4840F27E
:1042E0000D1103F08BF894F83D0028B9002084F8F4
:1042F0003C00204600F014F80220294684F83D00D6
:10430000206801F0CFFB012084F83D000020B0BD03
:1043100001207047614840F20B1103F06FF8CAE7C3
:1043200000685849884218BF704781B0002000904B
:104330000548016841F480710160006800F48070F4
:104340000090009801B070474038024010B5044614
:104350000068B0F1804F2CD04349884229D04349AE
:10436000884226D04249884223D04249884220D000
:10437000414988421DD0414988421AD0404988426B
:1043800017D04049884214D03F49884211D03F4954
:1043900088420ED03E4988420BD03E49884208D020
:1043A0003D49884205D03D4840F27D1103F026F892
:1043B0002068022184F83D10816801F00701062978
:1043C0001EBF016841F001010160012084F83D0039
:1043D000002010BD10B504460068B0F1804F2CD00D
:1043E0002149884229D02149884226D02049884243
:1043F00023D02049884220D01F4988421DD01F4920
:1044000088421AD01E49884217D01E49884214D0CB
:104410001D49884211D01D4988420ED01C4988424E
:104420000BD01C49884208D01B49884205D01B4844
:104430004FF4CC7102F0E2FF2068022141F2111228
:1044400084F83D10016A114208D1016A40F24442E9
:10445000114203D1016821F001010160012084F8BB
:104460003D00002010BD00BF0004004000080040D7
:10447000000C0040001000400014004000180040F4
:10448000001C0040002000400000014000040140EA
:10449000004001400044014000480140F4990008F8
:1044A0007047000010B5D0F800E00446DEF80010B8
:1044B000DEF80C20DEF814305FEA017C50D002F404
:1044C000907003F00103C01852D0C8071FBF12F448
:1044D0008070E06B40F00100E063480704D51BB139
:1044E000E06B40F00200E063880704D51BB1E06B8D
:1044F00040F00400E063BCF1000F04D51BB1E06B99
:1045000040F00800E063E06B00286ED002EA010092
:10451000800604D5204601F040FBD4F800E0DEF828
:104520001400E16B00F0400001F0080140184CD08D
:10453000204601F025FB20684169490640D54169C4
:1045400021F040014161606BD0B32F490165FDF757
:104550005DFD002849D0606B016DBDE81040084743
:1045600011408A0605D52046BDE8104001F015BB74
:10457000114008060FD4480637D5DEF80C0020F0AD
:104580004000CEF80C00202084F839002046BDE819
:10459000104000F047B994F83900212825D1A068CF
:1045A000216AB0F5805F16D108886FF35F20CEF8DE
:1045B00004002069002814BF481C881C20620FE0FA
:1045C0002046BDE81040FFF76BBF2046FFF768FFAD
:1045D0000020E06310BD481C20620878CEF804007B
:1045E000E08C0138E084000400D010BDDEF80C003F
:1045F00020F08000CEF80C00DEF80C0040F0400007
:10460000CEF80C0010BD00BF755B000800285FD01D
:1046100010B504460068A16900295BD0384A904271
:104620000ED0384A90420BD0594A904208D0364AB0
:10463000904205D0354840F2491102F0DFFEA169F1
:104640004FEA3120042804D330484FF4A57102F01A
:10465000D5FEA06840F48050B0F5805F04D02B48B0
:104660004FF4A87102F0CAFEE06940F40040B0F5D2
:10467000004F04D0254840F2511102F0BFFE94F8DB
:10468000390028B9002084F83800204600F044F8AA
:10469000242084F839002068C16821F40051C160E9
:1046A000204601F0B7FA2068016921F490410161C8
:1046B000416921F02A014161C16841F40051C160A2
:1046C00000202021E06384F8391084F83A1010BDEE
:1046D000012070470A498842BBD00A498842B8D0B5
:1046E0000B498842B5D00B498842B2D0284988424C
:1046F000AFD005498842ACD004484FF4A771A6E773
:104700000044004000480040001401402C9A00087A
:10471000004C00400050004010B586B0044601A88F
:104720001421FCF790F82168194881422DD100210D
:10473000184A00F570400091536943F0100353612B
:10474000536903F010030093009B0091116841F03E
:1047500001011160116801F0010100910099072128
:1047600005910321049101210391022102914FF44B
:10477000C061019101A9FDF76BFC252003210322F3
:10478000FEF7F8F82520FEF7E1F806B010BD00BFEF
:104790000010014030380240034690F83A002028CB
:1047A00006D10120E9B1E2B193F83800012801D126
:1047B000022070470020DA85D8639A859962222109
:1047C00083F8380083F83A101968CA6842F4807296
:1047D000CA604A6942F001024A61CA6842F0200296
:1047E000CA607047B0B5094C211D884218BFB0BDE2
:1047F000254607A015F8041BFBF748FE284621466E
:104800000122BDE8B040FFF7C7BF00BF98010020FC
:10481000756172743120726563656976653A202529
:10482000630D0A007047FEE70268516949054FF0C1
:1048300000010FD56FF4806353612022016380F87B
:104840003D2080F83E1080F83C10016C41F00401DE
:1048500001640121084670472DE9FC4704460068C1
:104860000E46DDF82890DDF82C801D461746002204
:1048700001684B4641F480610160016841F4807138
:10488000016020464FF00111CDF8008000F05EF885
:10489000B0BB06F0FE0A20682B4E4A464346C0F8DD
:1048A00010A02046314600F08CF848BB002042465C
:1048B0000190206841690191494680690190019801
:1048C000204600F0F8F898B9012D08D02068390A80
:1048D000424601612046494600F0EDF840B92068A3
:1048E000F9B2424601612046494600F0E4F858B169
:1048F000206C042804D12068016841F40071016033
:10490000012002B0BDE8F087206800224B46016814
:1049100041F48071016020464FF00111CDF8008014
:1049200000F014F80028EBD120684AF0010231466B
:104930004346026120464A4600F043F8002818BF6B
:10494000012002B0BDE8F087020001002DE9F04728
:10495000DDF820909A46164680468FB201F47F0417
:104960005D1C1820B4F5803F08BF1420D8F8001053
:1049700008583840C01BB0FA80F04009B0421CBF54
:104980000020BDE8F087002DEBD0FDF7FBFCBAF16D
:10499000000F03D0A0EB09005045E2D900202021F0
:1049A000C8F8300088F83D1088F83E0088F83C00D0
:1049B000D8F8400040F02000C8F840000120BDE8D1
:1049C000F0872DE9F8439846164681468FB201F4E8
:1049D0007F05541CD9F80000B5F5803F0CBF416934
:1049E00081693940B9421AD04169490519D4002C6E
:1049F000F0D0FDF7C7FC1EB1A0EB0800B042E9D92A
:104A000000202021C9F8300089F83D1089F83E00C7
:104A100089F83C00D9F8400040F0200016E0002062
:104A200017E0016841F4007101606FF48061416139
:104A300000202021C9F8300089F83D1089F83E0097
:104A400089F83C00D9F8400040F00400C9F8400063
:104A5000012001B0BDE8F08370B515460E4604464E
:104A600020684169490644BF002070BD4169C906FC
:104A700010D4FDF787FC16B1401BB042F0D90020DE
:104A80002021206384F83D1084F83E00206C40F023
:104A900020000AE06FF01001416100202021206316
:104AA00084F83D1084F83E00206C2064002084F8D7
:104AB0003C00012070BDF8B515460E4604464F1C5B
:104AC0002068406900061AD42046FFF7ADFEA0B961
:104AD000002FF5D0FDF756FC16B1401BB042EFD9C0
:104AE00000202021206384F83D1084F83E0084F8E3
:104AF0003C00206C40F020002064012000E00020F9
:104B000001B0F0BDB0B552004FF0000C4FF0370EC1
:104B100000239A4208BFB0BD0EEB1074050FB0F130
:104B2000204F4FEA001038BF05F13004CC5443F059
:104B30000104023301F804C0EBE7B0B5D0F890529D
:104B4000044641F21800285C88B12046812101F01A
:104B500008FC687A022818BFB0BD41F20C000121A0
:104B60001F232A182046BDE8B04001F07DBB41F26A
:104B7000140028580028E8D0687A0028E5D120469B
:104B8000012101F0EEFBE0E710B5D0F89042627A27
:104B9000022A05D1812101F0E4FB0020607210BDE2
:104BA00049B2B1F1FF3FFADC012A08BF10BD012173
:104BB000BDE8104000F0D8B810B50446D0F8900217
:104BC000017ACA1E022A05D220460021BDE8104003
:104BD00000F0CAB8022912D141F2190141F21B02B8
:104BE000415C0244204600F0B9FBB0F1FF3FC8BF72
:104BF00010BD20460121BDE8104000F0B5B810BD41
:104C0000B0B5D0F890520446287A012832D0E8BBDB
:104C100041F2100041F230012858685041F214006E
:104C200041F23401285868502046012101F0C5FAAC
:104C30001F2810D141F20C003149285888420AD16E
:104C400041F21900295C012905D841F21A00285CBB
:104C5000013810281BD341F2190005222023295CBA
:104C6000204600F0F5FD022068722046BDE8B04005
:104C7000FFF763BF41F21900295C41F21B002A18BB
:104C8000204600F06BFBB0F1FF3F2DDDB0BD41F2DF
:104C90001B002A18204600F061FB297AB0F1FF3F83
:104CA00020DD481E0328F1D3688918B3D4F8901288
:104CB00041F2380200238B5441F234028B581B1A04
:104CC0008B5004220A7241F21402895805F10C0239
:104CD000814238BF084683B281212046BDE8B040FA
:104CE00001F05ABB0529C0D120460121BDE8B040E2
:104CF00000F03AB820460021BDE8B04000F034B8DA
:104D000055534243D0F89002002101727047B0B56C
:104D1000D0F89052044641F25C00002129522981CA
:104D2000D4F894020168002088472046012101F050
:104D30003BFA2046812101F037FA41F20C000121B3
:104D40001F232A182046BDE8B04001F08DBAD0F8E4
:104D500090124FF480721F230A8141F20C020A4420
:104D6000012101F081BA0000B0B5D0F8905204469C
:104D700041F238000D2329540A4841F22C016A18E7
:104D80006850002081212872204601F005FB41F285
:104D90000C0001211F232A182046BDE8B04001F075
:104DA00063BA00BF5553425310B50B480B4C00215A
:104DB000402220230162C0E90041C0E90231C0E97C
:104DC00004218161FDF720F8002814BFBDE81040E0
:104DD00010BDFCF735BE00BFC437002000000550F1
:104DE00010B5034C0348611CFCF72BFE207010BD6E
:104DF000DC010020240100202DE9F04F8FB0324863
:104E0000324A4FF0204A0025042110244FF48048F4
:104E10004FF4805B11264FF008090F27C0E900A26C
:104E2000C0E902154FF40041C0E90454C0E9065539
:104E30004564C0E90855C0E90AB501AAC0E90C817A
:104E400001A90E9585630D96CDE90B54CDF82890F8
:104E5000CDE90857CDE90665CDE9045481E8A00203
:104E600008A9FFF751F908B1FCF7EAFD1848174AFD
:104E70000621C0F800A0C0E901213C21C0E903558A
:104E8000C0E905454564C0E90755C0E9095BC0E9CB
:104E90000B58C0E90D55CDE90D65CDE90B5401AABC
:104EA0000A910921CDE90877CDE90665CDE90454D9
:104EB000CDE90279019108A9FFF726F908B1FCF7BD
:104EC000BFFD0FB0BDE8F08FB83C0020040100A08A
:104ED000083D00202DE9F04F87B000244C484E4E8D
:104EE00001224FF4C0694FF0010806940194016853
:104EF00041F010010160016801F010010191019978
:104F00000194016841F020010160016801F0200175
:104F1000019101990194016841F0800101600168EB
:104F200001F08001019101990194016841F00101B2
:104F30000160016801F0010101910199019401688A
:104F400041F040010160016801F0400101910199C7
:104F50000194016841F002010160016801F0020161
:104F6000019101990194016841F008010160016813
:104F700001F00801019101990194016841F00401D7
:104F800001604FF4C061006800F0040001900198D6
:104F9000204800F5A05783463846B0470BF580659A
:104FA0004FF4984101222846B04728464FF400416B
:104FB0000022B0474FF0030A02AE3846CDE9044A5A
:104FC000CDE90298DFF854903146C8474FF40C40C1
:104FD000CDF814A0CDE90388314602902846C84791
:104FE0004FF48040CDF814A0CDE9038431460290FF
:104FF0002846C84702200694CDE904443146039070
:105000004FF4807002905846C84707B0BDE8F08F53
:1050100030380240000002403523000851200008CB
:1050200010B50C480C4B0D4C00224FF4804102622D
:10503000C0E90043C0E90222C0E90412C0E9062227
:10504000FDF7BEF9002814BFBDE8104010BDFCF705
:10505000F7BC00BF04380020A086010000540040C7
:1050600010B51048104C4FF482724FF4007C4FF092
:10507000010E02230021C0E900420A22C0E9021108
:10508000C0E9043EC0E906C1C0E90811C0E90A123E
:10509000FEF75CFE002814BFBDE8104010BDFCF711
:1050A000CFBC00BF603C00200030014010B50A4872
:1050B0000A4C00214FF47A7253238161C0E9004306
:1050C000C0E902120161FFF7B7F8002814BFBDE87C
:1050D000104010BDFCF7B4BC583D0020002000403B
:1050E00080B50C480C490C224FF4E13340F8041F02
:1050F0000021C0E90131C0E90311C0E90521C16106
:10510000FFF784FA002814BFBDE8804080BDFCF79B
:1051100097BC00BF980100200010014080B51048E6
:105120001049002200F06EFF08B1FCF789FC0C4822
:105130000D4901F048FA08B1FCF782FC08480B4918
:1051400001F0A1F908B1FCF77BFC054801F04FFA2A
:10515000002814BFBDE8804080BDFCF771BC00BFD3
:10516000283500200800002044000020E80000202E
:10517000FEE770470148FDF7B7BD00BF5838002073
:105180007047000010B5694C3220A047012000F0A4
:1051900051F8012000F036F83220A047002000F03E
:1051A00031F83220A047002000F044F83220214698
:1051B000BDE81040084700BFF8B500F02DF8454C99
:1051C000002618E03220FCF799F8012000F01AF8C8
:1051D00020464FF40061FDF78FF805463220FCF7BA
:1051E0008DF8002000F00EF8681E0136B0FA80F04D
:1051F000400940EA4707082EE4D300F025F8F8B24A
:1052000001B0F0BD0146334800294FF480610CBF66
:1052100000220122FDF78EB8FEB5012001A90390FE
:10522000002002904FF4006001902A48FCF710FF24
:1052300006B080BD0146274800294FF400610CBF2D
:1052400000220122FDF776B8FEB5012001A9CDE9C3
:1052500002004FF4006001901E48FCF7F9FE06B012
:1052600080BD00BFB0B50446002515E060B2B0F1C6
:10527000FF3FCCBF00200120FFF7DCFF3220FCF70E
:105280003DF80120FFF7BEFF3220FCF737F8002081
:10529000FFF7B8FF01356400082DE7D3FFF7BCFF27
:1052A0003220FCF72BF80120FFF7ACFF3220FCF78F
:1052B00025F808484FF40061FDF71EF80446002069
:1052C0000025FFF79FFF012C08BFFF25FFF7BCFF5C
:1052D0002846B0BD0004024080B50120FFF7AAFFB8
:1052E0000120FFF78FFF3220FCF708F80020FFF7BE
:1052F000A1FF3220FCF702F80020BDE88040FFF754
:1053000081BF000010B50020FFF794FF074C32204A
:10531000A0470120FFF776FF3220A0470120FFF7CA
:1053200089FF32202146BDE810400847FD120008E1
:10533000D0F890C24FF483511A445CF801108A42AD
:1053400009D980B500210522212300F081FAFF2030
:10535000BDE8804000E0002040B270472DE9FE4FDC
:10536000044610780D461646A0F11A0110290FD8F0
:10537000DFE801F03D09353509353535354E356BFA
:1053800035358035D100D4F890020025458154E2AE
:105390005A2800F00C81032800F01981122800F02F
:1053A00047812F2800F06181C8B9D4F8906241F29A
:1053B00014003058002840F03982D4F894028168F3
:1053C000284688470025002800F0628120460021F9
:1053D00002223A2300F03CFA052030722DE22046EA
:1053E00000210522202300F033FAFF2525E2D4F81E
:1053F00090020821DFF850244181072105E08BB29B
:1054000010FA81F70139D35C3B734B1CF7D168E18B
:10541000D4F890620021002206F10C0001E08154D2
:1054200001320C2AFBD1D4F8940201A90DF10A0231
:10543000436828469847002800F03F812046002115
:1054400002223A2300F004FA4BE1D4E9A46041F2CD
:105450005E0106EB0108436806F583572846394686
:1054600042469847002800F03E8120460021022253
:105470003A23DFE1D4F8908298F8080047460028E4
:1054800000F044814FF4805641F25E0041F2680B17
:1054900041F2640A07F10C09A8F80A60385A57F873
:1054A0000B104143B1F5805F38BF0E461FFA86F8F6
:1054B00057F80A204946B8FBF0F3D4F89402D0F824
:1054C00010C02846E047B0F1FF3F40F3718141F240
:1054D0005E0007EB0A0581214A464346BB4407EBC1
:1054E000000A204600F058FFBAF800002968B8FB0F
:1054F000F0F001442960DBF80010081ACBF8000036
:1055000041F234003958A1EB0601395040F0E980EE
:1055100003203872E5E0D4F8908241F25E0008EB97
:10552000000798F80800002800F028813888D7F88C
:105530000A10D7F8062008F10C0901FB00F64946CD
:10554000B6F5805F28BF4FF480561FFA86FABAFB83
:10555000F0F3D4F89402D0F814C02846E047B0F134
:10556000FF3F40F32A813888D7F80620D7F80A3061
:10557000BAFBF0F10A44591AC7F80620C7F80A1016
:1055800041F2340258F80230A3EB060348F8023027
:1055900000F01881484301214A46B0F5805F28BFDA
:1055A0004FF4805083B2204600F05EFE99E0D4F8BC
:1055B00090020821A34A4181072105E08BB210FA2D
:1055C00081F70139D35C3B734B1CF7D189E0D4F8E8
:1055D00090020C21002201E0425401311E29FBD12E
:1055E0000C2141F25C0241F25D03C1747021017330
:1055F000815CC35C994214D000EBC10341F23C07CB
:1056000001310244DF5D877341F24107DF5D0776B8
:105610004FF48257DB5D4376CBB2043B18BF0B4699
:105620001370122141813179122998BF418158E0CC
:105630007178D4F89002C9072CD1D4F8941205EBF4
:10564000C502C96901EB82010A79531D32799A4278
:1056500088BF1A46428105E0013A93B210FA82F7F8
:10566000CB5C3B73002AF7D13BE0707880071FD4F6
:10567000D4F8906241F268002946335841F2640040
:1056800032582046FFF754FE00250028C0F2D5808E
:105690007581D2E007216D4A4181062105E08BB278
:1056A00010FA81F70139D35C3B734B1CF7D118E03A
:1056B0002046002105222423BCE008200221F073AB
:1056C0000198B1820138010AF074B174010C000E26
:1056D000717430740C21BDF80A007181F075000AF4
:1056E000B0750025A9E03868002535820138010A27
:1056F000F073B173010C000E717330730821B8F8A8
:1057000000007181F074000AB07496E041F2180054
:1057100018F90000002880F28980D4F8940281688A
:105720002846884700287FF4A0AED6F8020002BAC7
:1057300041F2640048F80020F079317A41F26806BD
:1057400041EA00232046294648F80630FFF7F0FDDD
:105750000028C6DB022108EB060041F25E0288F851
:10576000081041F2140138F80220006858F80110BE
:10577000504381425AD1D4F8907283E641F2180026
:1057800018F90000B0F1FF3F50DDD4F894028168B1
:105790002846884700287FF468AED4F89402C16890
:1057A00028468847A0B1204600210222272341E055
:1057B00020460021042211233CE02046002104223F
:1057C000032337E0204600210025FFF7CDFA34E01F
:1057D000D6F8020002BA41F2640048F80020F079DD
:1057E000317A41EA002320462946C7F80A30FFF7FC
:1057F0009FFD0028FFF675AF41F21400D7F80A208C
:1058000058F8001041F25E0038F800005043814221
:105810000CD10121B0F5805F08F10C0288F8081066
:1058200028BF4FF4805083B20121BCE620460021FE
:1058300005222023002500F00BF868B203B0BDE874
:10584000F08F00BF709700087897000880970008D5
:1058500010B5D0F8900241F25D0C4FF4825E002446
:1058600010F80C3000EBC30101F80E4041F23C048B
:105870000A55591CCAB2043A18BF0A4600F80C204F
:1058800010BD00001CB50446124813460A461249D2
:105890000068B0FBF1F04FF47A7148430190606802
:1058A000B0F5827F0AD12046802100F017F870B150
:1058B000606D40F020006065032009E0019830B180
:1058C000019801380190206880680006F6D4002015
:1058D00002B010BD2800002000366E012DE9F04115
:1058E000984616460F460446551C20688068384086
:1058F000B8421CBF0020BDE8F081002DF5D0FCF7B8
:1059000041FDA0EB0800B042EFD32068416821F0D0
:10591000E00141606168B1F5827F0AD1A168B1F50B
:10592000004F02D0B1F5806F03D1016821F0400132
:105930000160A16AB1F5005F07D1016821F400514F
:105940000160016841F400510160002084F85000BA
:10595000012084F851000320BDE8F0814FF480302D
:1059600008604FF4007010800020704700207047DE
:1059700000207047002070470020704780B550021B
:105980005A02FBF7CBFF002080BDF8B514460D4648
:105990009F1856020AE0304629464FF40072FBF782
:1059A0006FFF06F50076013405F50075BC42F2D3B1
:1059B000002001B0F0BD7047FCF766BFB0B592B0F3
:1059C000002423480225CDE90A44CDE90844019486
:1059D000016841F080510160006800F08050019042
:1059E000019801941B48016841F4804101600068FE
:1059F00000F4804001900198072011904FF4A870A6
:105A000010950F9008200E904FF48000CDE90C50B7
:105A10004FF4803007900120069006A8FDF7A6FFFE
:105A20004FF48050052105904FF4A05004900F20B2
:105A3000CDE90254019001A8FDF7E4FD00204FF4E8
:105A4000C0014FF0C062FDF719FF12B0B0BD00BF3A
:105A5000403802400070004010B50E480F4CD0F89E
:105A6000801041F47001C0F880100B490A6842F0C0
:105A700001020A6000228A600B6823400B60084B19
:105A80004B600B6823F480230B60CA604FF0006109
:105A9000016010BD08ED00E000380240FFFFF6FE97
:105AA000103000240268B0F1804F0ED0264B98428F
:105AB0000BD0264B984208D0254B984205D0254B59
:105AC000984202D0244B984203D14B6822F07002D6
:105AD0001A43B0F1804F20D01B4B98421DD01B4B76
