:020000040800F2
:10000000F807002041020008153C000849380008A4
:10001000113C0008F1150008994700080000000095
:10002000000000000000000000000000DD3C0008AF
:10003000F515000800000000993C00083D3D00084F
:100040005B0200085B0200085B0200085B0200081C
:100050005B0200085B0200085B0200085B0200080C
:100060005B0200085B0200085B0200085B020008FC
:100070005B0200085B0200085B0200085B020008EC
:100080005B0200085B0200085B0200085B020008DC
:100090005B0200085B0200085B0200085B020008CC
:1000A0005B0200085B0200085B0200085B020008BC
:1000B000213E00085B020008313E00085B02000898
:1000C0005B0200085B0200085B0200085B0200089C
:1000D0005B0200085B0200085B0200085B0200088C
:1000E0005B0200085B0200085B02000800F002F8F7
:1000F00000F094F80AA090E8000C82448344AAF12E
:100100000107DA4501D100F089F8AFF2090EBAE82B
:100110000F0013F0010F18BFFB1A43F0010318473B
:10012000FC5400001C550000103A24BF78C878C168
:10013000FAD8520724BF30C830C144BF04680C60ED
:10014000704700000023002400250026103A28BF35
:1001500078C1FBD8520728BF30C148BF0B60704739
:100160006E2900F06581702900F09B82662905F0F8
:10017000A481652905F0A181672905F09E81612987
:1001800005F09D8103681B0A28BF41F080016929A1
:1001900000F01281642900F00F81752900F00C81B4
:1001A0006F2900F02982782900F06782E92900F0A0
:1001B000C381E42900F0C081F52900F0BD81EF2959
:1001C00000F02682F82900F066820368DB0928BF68
:1001D00041F08001632900F07F87732900F0848754
:1001E000E32900F08F87F32900F0948700207047FF
:1001F0001FB500F0E9FF04000020002104F088FF93
:10020000401C60600020002104F06CFFE0600FBC27
:1002100000F014F80FB41FBD10B510BD00F0A6FF1C
:100220001146FFF7E5FF04F051FB01F083F803B43A
:10023000FFF7F2FF03BC04F021FB000001F0D9B886
:100240000948804709480047FEE7FEE7FEE7FEE76A
:10025000FEE7FEE7FEE7FEE7FEE7FEE704480549A6
:10026000054A064B70470000C13D0008ED0000083C
:10027000F8010020F8070020F8030020F803002010
:10028000704700000FB4044910B503AA029800F0AB
:10029000E3F810BC5DF814FB700000204FF0000282
:1002A00000B5134694469646203922BFA0E80C506C
:1002B000A0E80C50B1F12001BFF4F7AF090728BF47
:1002C000A0E80C5048BF0CC05DF804EB890028BFC3
:1002D00040F8042B08BF704748BF20F8022B11F0EC
:1002E000804F18BF00F8012B704770477047704768
:1002F000704770B5044685690068C10601D530268F
:1003000000E02026C00707D070BDD4E901213046A7
:100310009047206A401C20626D1EF6D570BD70B5F6
:10032000044685690078C00707D170BDD4E9012172
:1003300020209047206A401C20626D1EF6D570BDBB
:1003400009684A0501D540B27047C905FCD500B21D
:10035000704709684A0501D5C0B27047C905FCD588
:1003600080B2704770B50C460546012A05D0287842
:10037000800600D5EA69002302E0012305E05B1C4A
:10038000934202D2E05C0028F9D1A869E618C01AAD
:10039000A861286A184428622846FFF7AAFF04E0EB
:1003A000D5E9012114F8010B9047B442F8D328464F
:1003B000FFF7B5FF70BD00002DE9F04106460024AF
:1003C00010687529314616A510D0FFF7B9FF00282F
:1003D00002DA404213A507E031688A0701D512A569
:1003E00002E0490704D511A5012401E0FFF7B1FFA0
:1003F00000210A2206F1240709E0B0FBF2FCB0FB61
:10040000F2F302FB1C00303078541846491C0028D7
:10041000F3D123462A463046BDE8F04100F055BAF4
:10042000000000002D0000002B0000002000000054
:1004300011680268006A530501D508700AE0D30507
:1004400001D5088006E0130603D5C217C1E90002F2
:1004500000E0086001207047074B70B50D467B44F3
:1004600000F01DFE0446284600F058FE10B14FF083
:10047000FF3070BD204670BD334400002DE9FF5FA2
:1004800015468A460446DFF8AC80F8440027D8E9D0
:1004900000103E46CDE9001010E03AF816106A460A
:1004A00002A800F03FFE411C07D02178890603D541
:1004B000E269391891420DD80744761C20788006ED
:1004C00002D5E069B84205DDAE42E6DB3AF8160037
:1004D0000028E2D1A069C01BA0612046FFF709FFF8
:1004E000D8E90010CDE90010002017E03AF8181004
:1004F0006A4602A800F016FEB0F1FF3F81460BD01D
:1005000000250DF1080B05E0D4E901211BF80500D9
:1005100090476D1C4D45F7D308F10100B04280466D
:10052000E4DB206A384420622046FFF7F8FEBDE88D
:10053000FF9F0000365000002DE9F0418046D21D9B
:1005400022F007020025D2E90002F52915A614D0F1
:10055000011E72F1000106DA0023D0EB030063EB09
:10056000020211A608E0D8F800108B0701D50FA6EB
:1005700002E0490701D50EA601251146002408F125
:10058000240704E000F05CF930323A55641C50EA6C
:100590000102F7D12B46324621464046BDE8F041E4
:1005A00000F093B9000000002D0000002B000000B7
:1005B0002000000030B4002100F1240408E002F023
:1005C0000705D208303542EA4372DB086554491CFE
:1005D00052EA0305F3D10468002310A2250708D5C9
:1005E00004F020040C4304D0C46901230CA2641E4F
:1005F000C46130BC00F069B910B5044621461068EA
:10060000FFF7A7FE02462046BDE810400023D1E7D1
:10061000D21D22F00701D1E90023CBE70000000042
:1006200030000000F0B40D460188090502D5214CC8
:100630007C4402E01F4C7C440E34002100F124066F
:1006400008E002F00F071209E75D42EA03721B0996
:100650007754491C52EA0307F3D1027800231207AA
:1006600004D5702D06D009B1022311342246F0BC06
:1006700000F02BB901231034F8E770B504460D469D
:1006800021461068FFF765FE024629462046BDE870
:1006900070400023C6E7D21D22F00703D3E90023F0
:1006A000C0E70368126843F0200303600823C361B6
:1006B0000023B7E7984E00002DE9F05F8946044615
:1006C0004FF0000ADFF874B1FB44C0F820A02046C8
:1006D000E1688847002874D0252806D0D4E9012194
:1006E0009047206A401C2062F1E700265F462046C2
:1006F000E16888472028054607DB312D05D27819A7
:1007000010F8200C08B10643F1E7B00701D526F038
:100710000406C4F81CA00027C4F818A02A2D09D08C
:10072000284604F0D8FC38B304EB8708303DC8F8FD
:10073000185019E059F8041B204604EB8702916118
:10074000E1688847012F054618D1E069002820DAC2
:1007500026F020061DE0D8F8180000EB800005EB1D
:1007600040003038C8F818002046E1688847054640
:1007700004F0B1FC0028EED1012F0AD02E2D08D1B3
:100780002046E16888477F1C0546022F46F0200678
:10079000C4DBA069002803DA404246F00106A061EC
:1007A000F00701D026F010066C2D0BD0682D09D073
:1007B0004C2D39D06A2D35D0742D35D07A2D33D0CB
:1007C00016E038E0E1682F4620468847B8420546E3
:1007D00009D16C2F26D04FF48060E1680643204693
:1007E0008847054604E06C2F1AD04FF4807006430A
:1007F0000DB3A5F14100192802D8203546F4006652
:100800004A462946204626604E46FFF7A9FC80B19D
:1008100001280BD0F61D26F0070000F1080956E765
:100820004020E4E78020D8E70020D6E706F104095D
:100830004DE7284652E7206ABDE8F09F284E0000A9
:1008400030B5B0F10A0271F100034FEA900E4EEAA2
:10085000817EB0EB0E0061EB91014FEA101E4EEA73
:10086000017E10EB0E0041EB11114FEA102E4EEA03
:10087000016E10EB0E0041EB11214FEA104E4EEAD3
:10088000014E10EB0E0041EB1141401841F1000107
:100890004FEAD00040EA41704FEAD1014FEA8104AB
:1008A00044EA907410EB800544EB01046D1944EBAD
:1008B0000404521BA3414FF0000348BF0A3200D585
:1008C00030BD401C41F1000130BD2DE9F0470D461F
:1008D00099469246044600F124080168880604D52A
:1008E000E06921F01001216000E00120A84201DD53
:1008F000471B00E00027A1697A1902EB0900081ADA
:10090000A0612078C00602D42046FFF7F2FC002642
:1009100008E0D4E901211AF806009047206A401C3B
:10092000761C20624E45F4DB2078C0060AD52046AE
:10093000FFF7DFFC06E0D4E9012130209047206A70
:10094000401C2062381EA7F10107F4DC07E0D4E95F
:10095000012118F805009047206A401C2062281EDB
:10096000A5F10105F3DC2046FFF7D9FC207800064D
:1009700002D50220BDE8F0870120FBE72DE9FF4FFB
:100980000C461E464FF0FF378BB0D2E90001DDF870
:1009900060800A908A46C1F30A5505B93D46002198
:1009A00008464FF00000BAF1000F00F4400005DAED
:1009B00000EB80004FF4400101EA50004FEA9059EB
:1009C000B9F1010F00DDB9460A9850EA4A000ED08D
:1009D00044F61050A5F2FF3545432F14B8F1000F2F
:1009E0001ED07542291E1EDDC9F100021CE0B8F1BF
:1009F000010F4FF0000001D0302103E0F24305E089
:100A00002154401CB042FBDB30460022002121541F
:100A10000B99C1F80880C1E900200FB0BDE8F08F44
:100A2000BD1B6D1CDEE74A4600DA694206A800F0ED
:100A30000FFC06AB93E8070003AB83E807005046C2
:100A40000A9903F06CFF8DE80700A0F500501F38ED
:100A500000900398002D0ADD42F21F014A46084427
:100A6000002303A90390684604F0D5F909E0A0F536
:100A700000504A461F38002303A90390684604F03B
:100A8000DFF98DE807000004000C03D04FF0FF30C1
:100A9000410800E01046B8F1000F03D00022009298
:100AA00015461EE0751E05D4FFF7CAFE30326255AA
:100AB0006D1EF9D5B3460122084302D000227F1CE7
:100AC00004E02078302801D100227F1E002A0997F7
:100AD00084D01DE0112D07DAFFF7B2FE30326255E7
:100AE0006D1C50EA0102F5D1084302D00098C8B14C
:100AF0000EE00021681E05E0235C625C6354225412
:100B0000401E491C8142F7DBAB46A81B401E0990E2
:100B1000002004F80B000B98099AC0F80880C0E97F
:100B2000002B7AE711264FF0000857E72DE9F04F28
:100B300088460446D21D22F0070191B0D1E9000198
:100B4000CDE90A0104F0B3FA02460B98C00F01D0B8
:100B50002D2007E02068810701D52B2002E020210D
:100B600001EAC000032A099001D0072A05DB0346E9
:100B70004146204600F02CFB0BE12078800601D591
:100B8000E06900E00620B8F1650F814606D0B8F1B3
:100B9000660F18D0B8F1670F70D131E00020B9F1BD
:100BA000110F009001DB112301E009F101030AAAF2
:100BB00001A90CA8FFF7E2FEDDE90C70002609F19F
:100BC0000105834647E001204B4600904FF0004767
:100BD0000AAA01A90CA8FFF7D1FEDDE90DB00C9916
:100BE0005D46002610B909F101000D18B9EB0500AA
:100BF00003D4C0F1FF3609F10105A5EB09002BE094
:100C0000B9F1010F01DA4FF001090020B9F1110F1C
:100C10000090484601DD112300E003460AAA01A91D
:100C20000CA8FFF7ABFEDDE90C704D4600268346AD
:100C3000207800070AD4AB4500DA5D4601A8012DF3
:100C400004DD411911F8011C302907D04F4502DAA3
:100C500017F1040F04DA012082460FE06D1EEEE763
:100C6000002F02DCED1B3E4403E0781CA84200DDAF
:100C70007D1CB81B00F1010A4FF0004720780007E7
:100C800003D4AA4501DB4FF0FF3A0021B7F1004F32
:100C90000DF143088DF8431024D002202B23002FA0
:100CA00001DA7F422D230A21021EA0F1010000DC9F
:100CB0005FB197FBF1FC97FBF1F201FB1C7C17463F
:100CC0000CF1300C08F801CDEEE7A8F1010003703B
:100CD0002188090501D5452100E06521A0F1010821
:100CE00000F8011C09980FA9A1EB0807FF1D00B12E
:100CF0000120411901EBEA70A1693844081A401E2D
:100D0000A0612078C00602D42046FFF7F2FA0998C5
:100D100028B1D4E901219047206A401C2062207844
:100D2000C00622D52046FFF7E4FA1EE0002E04DBC1
:100D3000B34502DD01A8805D00E03020D4E9012147
:100D40009047206A401C2062761CAAF101005FEAED
:100D5000000A0AD100F038FAC0680168405CD4E9A2
:100D600001219047206A401C2062281EA5F1010540
:100D7000DCDC07E0D4E9012118F8010B9047206A78
:100D8000401C2062381EA7F10107F3DC2046FFF764
:100D9000C6FA032011B041E62DE9F04F04460D4696
:100DA000D21D22F0070089B0D0E9009748463946A5
:100DB00004F07DF90246F80F01D02D2307E02068EA
:100DC000810701D52B2302E0202101EAC0038DF821
:100DD00020300BB1012000E00020032A824601D020
:100DE000072A04DB2946204600F0F2F93FE120788B
:100DF000800601D40D2500E0E569C7F30A560D2DE4
:100E000049DA00214FEA175B08464FF00000002F37
:100E100000F4400007DA00EB80004FF4400100EBE3
:100E2000D07001EA60008115012901DD4FF0FF312A
:100E300000224FEA850CBCF1180F06D31346ACF123
:100E400018004FF08052C24003E04FF4801323FAA1
:100E50000CF30CF10C0CBCF1200F04D3ACF1200C02
:100E600009FA0CF001E007FA0CF000294FF00048F5
:100E700001DD18B90FE00ED140450CD319EB020982
:100E80005F4121B9404502D19F4329EA0209BBEBEA
:100E9000175F00D0761C2088000502D57B48784477
:100EA00002E07A487844193808AA302302F80A3058
:100EB000037C0AF10101002E0AF1020A53546A462A
:100EC00002DC4FF0300101E04FF031014FF001083A
:100ED0008DF8001002D0A6F2FF3603E059EA470170
:100EE00000D06B4E002D02DC2178090704D54FF0AD
:100EF00002082E218DF80110C44600210BE0C7F333
:100F000003433F01C35C491C6D1E02F808300529EC
:100F100008F1010801DA002DF1DC00210CE000EB02
:100F20001973491C1B786D1E082902F808304FEA16
:100F3000091908F1010801DA002DF0DC21688B069F
:100F400002D516E0A8F10108E04505DD02EB080333
:100F500013F8013C302BF5D0B8F1000F09DD02EB9E
:100F6000080313F8013C2E2B03D1090701D4A8F183
:100F70000108002D05DD3E2102F808106D1E08F164
:100F80000108407C002E02F8080008F1010804DA8C
:100F90002D20764202F8080002E02B2002F808001B
:100FA0000A214FF47A70864208F101080BDB96FBA8
:100FB000F0F3303302F8083096FBF0F308F1010843
:100FC00000FB136601E0642E0CDB642096FBF0F35B
:100FD000303302F8083096FBF0F308F1010800FB0B
:100FE000136601E00A2E06DB96FBF1F0303002F8C2
:100FF000080008F1010896FBF1F001FB10603030A9
:1010000002F80800A16908F1010808EB050202EBEB
:101010000A00081AA0612078C00602D42046FFF713
:1010200068F9216A08AE01EB0A00206204E0D4E905
:10103000012116F8010B9047BAF1010AF7D2207886
:10104000C00602D52046FFF754F96E4609E016F8AF
:10105000010B3E280FD0D4E901219047206A401CA3
:101060002062B8F10108F2D22046FFF758F909B022
:101070000320BDE8F08F206A2844206203E0D4E911
:101080000121302090476D1EEBD3F8E77646000033
:1010900002FCFFFF01694A1C02610878704700B535
:1010A0008FB0CDE901310021059105497944CDE9A1
:1010B000031011466846FFF7FFFA0FB000BD0000AD
:1010C000E5FFFFFF10B5436913B1AFF3008001E006
:1010D000FFF748F9012010BD127800F124010A70D1
:1010E00000224A700122EDE711684FF0FF32E9E774
:1010F00010B5436913B1AFF3008001E0FFF7BEF90B
:10110000012010BD128800F1240182840022C284D3
:101110000122EDE711684FF0FF32E9E7007B00F0B4
:10112000800070472DE9F04116460C46054600F058
:1011300043F8036893F80101012807D0FF2C12D867
:10114000185D80B101202C70BDE8F081D3F8070153
:101150003246214603F20713C7182846BC46BDE8AD
:10116000F041002360474FF0FF30EDE7754600F097
:10117000EBF8AE4605006946534620F00700854669
:1011800018B020B5FFF76AF8BDE820404FF0000620
:101190004FF000074FF000084FF0000BAC46ACE8F2
:1011A000C009ACE8C009ACE8C009ACE8C00921F04E
:1011B00007018D467047000010B500F005F8001DCE
:1011C00010BD00BF4D3F00000048704730000020B8
:1011D0002DE9F0411F46044603260168072A01F461
:1011E000006004DB08B116A505E016A503E008B110
:1011F00015A500E015A521F010002060A069C01E13
:10120000A0610FB1401EA0612046FFF772F84FB1F8
:10121000D4E9012138469047206A401C2062C01C56
:10122000206206E0206AFAE7D4E9012115F8010BF3
:101230009047761EF8D22046FFF771F8BDE8F0819E
:101240004E414E006E616E00494E4600696E66006A
:101250002DE9F047814616468AB0354878440DC8D6
:101260008DE80D0032487844801C03AC0DC884E83A
:101270000D0041F69B300844372190FBF1F290FBC2
:10128000F1F5A5F1800501FB12041B3C02D5644277
:10129000012000E00020DFF898A080460027FA44F3
:1012A000AAF1BE0A0EE0E0070AD03246684607EB14
:1012B000470101230AEB810103F0C2FD8DE807001D
:1012C00064107F1C002CEED1194F7F44AE3F19E013
:1012D000E80715D007EB04100DF1180A90E80E008E
:1012E0008AE80E00C068F04201D198190890324691
:1012F000012306A903A803F0A3FD03AB83E80700BD
:101300006D10641C002DE3D14FF001033246694695
:10131000B8F1000F03A802D003F07DFD01E003F057
:101320008FFDC9E90001C9F808200AB0BDE8F087BF
:101330004843000010B50446AFF300802046BDE8E6
:101340001040FEF774BF00000048704710000020F6
:101350004FF0013C50F8042B51F8043B9A4221D144
:10136000A2EB0C03934313EACC1317D150F8042BD0
:1013700051F8043B9A4215D1A2EB0C03934313EAB4
:10138000CC130BD150F8042B51F8043B9A4209D1ED
:10139000A2EB0C03934313EACC13DBD04FF0000015
:1013A000704700BFD01A01BAB1FA81F101F01801FB
:1013B00022FA01F0CB40DBB2C0B2C01AC1F1200169
:1013C0002CFA01F3D11A914311EAC311E6D1704707
:1013D0000246C91C21F00301D2E900031B1A8B420B
:1013E00001D2002070470144C91D21F0070111609E
:1013F00070472DE9F34F83B000274FF48074BA464D
:1014000003A821468DF80070FFF7E2FF5FEA0008AD
:1014100001D100F076F82146404603F029FA060093
:1014200009D04FF0010B4546C14616F8014B8FB16C
:101430005C2C16D01CE008F108004146C8F80000FA
:101440000020C8F80400D8F800402070012005B042
:10145000BDE8F08F222C01D0272C0FD12746BA46A9
:101460002CE03078222807D05C2805D0272803D02C
:10147000BC4203D1002721E0761C04464CB12FB9B1
:10148000202C06D0A4F10900042802D905F8014B4C
:10149000CBE74D4502D1BAF1000F0FD05246494675
:1014A000002005F8010B6846AFF300809DF80000AE
:1014B00070B14D464FF0000A0BF1010B002CB4D176
:1014C0004FEA8B0103A8FFF783FF040002D004E07A
:1014D000A946EFE7002000F014F800204246C4F8C7
:1014E000008005E012F8011B11B9401C44F82020CF
:1014F000AA42F7D3002144F820102146A7E77047FD
:10150000704710B500F00AF8BDE81040AFF3008056
:10151000002801D003F0B2B97047000010B50128CF
:1015200005D0002103A000F021F8012010BD09A181
:10153000F8E7000053494752544D454D3A204F7546
:1015400074206F662068656170206D656D6F7279BB
:10155000000000003A2048656170206D656D6F7273
:101560007920636F727275707465640070B505469A
:101570000C460A2000E06D1C03F086F935B128788E
:101580000028F8D102E0641C03F07EF914B1207841
:101590000028F8D1BDE870400A2003F075B90000BA
:1015A00080B584B040F24410C2F2000000210390E4
:1015B00001F072FD0421DDF80CE00290704601F0AC
:1015C0006BFD019004B080BD80B584B001460390EE
:1015D000039840F2C402C2F2000202901046029A3E
:1015E0000191114602F014F8009004B080BD000093
:1015F000FFE7FEE7704700007047000080B584B049
:1016000001460390009100F0DFF9029003980190E9
:1016100001980130002809D0FFE740F20400C2F22F
:1016200000000078019908440190FFE7FFE700F00F
:10163000CBF9DDF808E0A0EB0E00DDF804E0704522
:1016400001D2FFE7F3E704B080BD000093B00A4683
:10165000034612901191002010900C90089207936D
:10166000FFE7119800681099C840002800F08881B1
:10167000FFE71098012101FA00F00F90119800681F
:101680000F9908400E900E980F99884240F074818F
:10169000FFE7119840680028069051D0FFE70698B0
:1016A00001283AD0FFE7069802283FD0FFE70698C6
:1016B000032860D0FFE70698112832D0FFE706988C
:1016C000122838D0FFE70020C1F2110006998142AC
:1016D00036D0FFE70020C1F21200069981422FD0D8
:1016E000FFE70020C1F221000699814228D0FFE7E0
:1016F0000020C1F222000699814221D0FFE700209C
:10170000C1F23100069981421AD0FFE70020C1F2F0
:1017100032000699814213D030E01198C0680C90D5
:101720002DE01198C06804300C9028E01198C06832
:1017300008300C9023E01198C0680C300C901EE02B
:1017400011988068002803D1FFE704200C9011E075
:1017500011988068012806D1FFE708200C900F98A7
:101760001299086105E008200C900F9812994861C1
:10177000FFE7FFE703E000200C9000E0FFE70E9892
:10178000FF2803D8FFE71298059003E01298043071
:101790000590FFE705980B900E98FF2804D8FFE707
:1017A00010988000049006E010986FF01F0101EB84
:1017B00080000490FFE704980A900B9800680A994B
:1017C0000F228A4090430C9A02FA01F108430B99C8
:1017D000086011984068C000002840F1CC80FFE705
:1017E000FFE741F21800C4F20200016841F0010174
:1017F0000160006800F00100099009980390FFE77C
:10180000109820F003000821C4F2010140580D9007
:10181000109800F0030080000F2101FA00F00D99EC
:1018200021EA00000D90129840F60001C4F2010177
:10183000884203D1FFE70020029026E0129840F68C
:101840000041C4F20101884203D1FFE70120019069
:1018500018E0129841F20001C4F20101884203D15C
:10186000FFE7022000900AE0129841F20041C4F222
:1018700001010422884208BF03220092FFE700987A
:101880000190FFE701980290FFE70298109901F09C
:101890000301890088400D9908430D900D98109917
:1018A00021F003010822C4F2010288501198406817
:1018B000C003002809D5FFE70E9840F20041C4F2AA
:1018C00001010A681043086009E00E9840F20041E7
:1018D000C4F201010A6822EA00000860FFE71198DB
:1018E00040688003002809D5FFE70E9840F20441C4
:1018F000C4F201010A681043086009E00E9840F242
:101900000441C4F201010A6822EA00000860FFE70E
:1019100011984068C002002809D5FFE70E9840F2F0
:101920000841C4F201010A681043086009E00E98FA
:1019300040F20841C4F201010A6822EA000008608E
:10194000FFE7119840688002002809D5FFE70E984C
:1019500040F20C41C4F201010A681043086009E03A
:101960000E9840F20C41C4F201010A6822EA00001C
:101970000860FFE7FFE7FFE710980130109070E67E
:1019800013B0704780B585B013468C4686460490E8
:10199000ADF80E108DF80D209DF80D000028029373
:1019A000CDF804C0CDF800E005D0FFE7BDF80E008B
:1019B0000499086105E0BDF80E000004049908616F
:1019C000FFE705B080BD000040F2F410C2F2000055
:1019D0000068704740F20400C2F20000007840F254
:1019E000F411C2F200010A68104408607047000058
:1019F00080B582B042F20000C4F20200016841F0FA
:101A000010010160032000F0ADF80020019000F00B
:101A100007F8009000F040F8019802B080BD000087
:101A200080B584B00146029040F20000C2F200008E
:101A3000006840F20402C2F2000212784FF47A7396
:101A4000B3FBF2F2B0FBF2F0019100F0CFFD002801
:101A500004D0FFE701208DF80F0018E002980F284E
:101A60000DD8FFE702994FF0FF30002200F054F844
:101A7000029840F20801C2F20001086003E0012070
:101A80008DF80F0003E000208DF80F00FFE79DF8B0
:101A90000F0004B080BD000085B0FFE741F21800E0
:101AA000C4F20200016841F001010160006800F029
:101AB0000100049004980190FFE7FFE741F21C0049
:101AC000C4F20200016841F080510160006800F03A
:101AD0008050039003980090FFE7FFE70420C4F2D2
:101AE000010001680291029921F0E06102910299DE
:101AF00041F00071029102990160FFE705B0704763
:101B000080B582B001468DF807009DF9070000916D
:101B100002F044FE02B080BD80B58AB013468C4608
:101B200086468DF8270008910792002006900593BD
:101B3000CDF810C0CDF80CE002F04CFE06909DF9F7
:101B400027000699089A079B0290084611461A46F4
:101B500002F062F8029901900846019902F042FEF3
:101B60000AB080BD80B582B0014601900198009115
:101B700002F05EFE02B080BD80B588B00A46034622
:101B800006900591069800280392029304D1FFE77E
:101B900001208DF81F0022E1059842F20001C4F2F5
:101BA0000201096801F00701884216D9FFE742F2F5
:101BB0000000C4F20200016821F00701059A1143F8
:101BC0000160006800F007000599884204D0FFE733
:101BD00001208DF81F0002E1FFE7069800688007EA
:101BE00000282AD5FFE7069800684007002809D595
:101BF000FFE741F20400C4F20200016841F4E06131
:101C00000160FFE7069800680007002809D5FFE794
:101C100041F20400C4F20200016841F46051016025
:101C2000FFE741F20400C4F20200016821F0F00174
:101C3000069A926811430160FFE706980068C007A2
:101C4000002862D0FFE70698406801280ED1FFE720
:101C500041F20000C4F2020000688003002804D4AE
:101C6000FFE701208DF81F00B9E021E006984068E9
:101C700002280ED1FFE741F20000C4F20200006822
:101C80008001002804D4FFE701208DF81F00A6E0A2
:101C90000DE041F20000C4F2020000688007002855
:101CA00004D4FFE701208DF81F0098E0FFE7FFE76D
:101CB00041F20400C4F20200016821F00301069A17
:101CC000526811430160FFF77FFE0490FFE741F285
:101CD0000400C4F20200006800F00C000699496894
:101CE000B0EB810F10D0FFE7FFF76EFEDDF810E0DC
:101CF000A0EB0E0041F2893E704504D3FFE70320BC
:101D00008DF81F006BE0E2E7FFE7059842F2000163
:101D1000C4F20201096801F00701884216D2FFE708
:101D200042F20000C4F20200016821F00701059AA6
:101D300011430160006800F007000599884204D053
:101D4000FFE701208DF81F0049E0FFE706980068D3
:101D5000400700280CD5FFE741F20400C4F202005E
:101D6000016821F4E061069AD26811430160FFE73F
:101D700006980068000700280DD5FFE741F204002F
:101D8000C4F20200016821F46051069A126941EA26
:101D9000C2010160FFE700F055F841F2040EC4F201
:101DA000020EDEF800E05FFA8EFE4FEA1E1E45F2DC
:101DB000C051C0F6000111F80E10C84040F20001F9
:101DC000C2F20001086040F20800C2F200000068A0
:101DD000FFF726FE00218DF81F100190FFE79DF808
:101DE0001F0008B080BD000040F20000C2F20000F9
:101DF0000068704780B5FFF7F7FF41F2040EC4F2A8
:101E0000020EDEF800E0CEF3022E45F2D051C0F60D
:101E1000000111F80E10C84080BD000080B5FFF72A
:101E2000E3FF41F2040EC4F2020EDEF800E0CEF34E
:101E3000C22E45F2D051C0F6000111F80E10C84074
:101E400080BD00008BB040F60E70C1F210000A9009
:101E500040F60A30C0F60C50099040F20670C0F609
:101E60000810089040F20230C0F20450079040F28F
:101E70000120ADF81A000020059004900390029014
:101E8000019041F20400C4F2020000680590059838
:101E900000F00C000146002800913DD0FFE70098BB
:101EA000042804D0FFE70098082806D035E041F266
:101EB0000020C0F27A00019035E00598C0F383401D
:101EC00007A9085C02909DF81600C007002818D0EA
:101ED000FFE741F20400C4F20200006800F40030A1
:101EE0000DF11A0141EA504000780490029841F245
:101EF0000021C0F27A0148430499B0FBF1F003904D
:101F000007E0029840F60011C0F23D0148430390FB
:101F1000FFE70398019006E0FFE741F20020C0F2DE
:101F20007A000190FFE701980BB0704780B588B048
:101F30000146069006980028019104D1FFE7012090
:101F40008DF81F004EE306980068C007002800F0D7
:101F5000B580FFE741F20400C4F20200006800F01F
:101F60000C00042813D0FFE741F20400C4F2020081
:101F7000006800F00C0008281CD1FFE741F20400C3
:101F8000C4F202000068C003002813D5FFE741F245
:101F90000000C4F2020000688003002809D5FFE7B2
:101FA00006984068002804D1FFE701208DF81F0043
:101FB00018E382E0FFE706984068B0F5803F09D15A
:101FC000FFE741F20000C4F20200016841F48031F1
:101FD000016033E00698406800280DD1FFE741F228
:101FE0000000C4F20200016821F480310160016840
:101FF00021F48021016020E006984068B0F5A02F10
:102000000DD1FFE741F20000C4F20200016841F483
:1020100080210160016841F4803101600CE041F2EF
:102020000000C4F20200016821F4803101600168FF
:1020300021F480210160FFE7FFE7FFE7FFE7069853
:10204000406800281CD0FFE7FFF7BEFC0590FFE7C3
:1020500041F20000C4F202000068800300280ED4A0
:10206000FFE7FFF7B1FCDDF814E0A0EB0E006528F8
:1020700004D3FFE703208DF81F00B3E2E8E71BE07D
:10208000FFF7A2FC0590FFE741F20000C4F2020056
:102090000068800300280ED5FFE7FFF795FCDDF808
:1020A00014E0A0EB0E00652804D3FFE703208DF8B1
:1020B0001F0097E2E8E7FFE7FFE7FFE70698006801
:1020C0008007002840F19280FFE741F20400C4F24B
:1020D0000200006810F00C0F13D0FFE741F204007B
:1020E000C4F20200006800F00C00082829D1FFE7C4
:1020F00041F20400C4F202000068C003002820D4AA
:10210000FFE741F20000C4F20200006880070028E7
:1021100009D5FFE706980069012804D0FFE70120F0
:102120008DF81F005EE241F20000C4F20200016877
:1021300021F0F801069A526941EAC2010160FFE705
:1021400053E00698006900282DD0FFE70020C4F274
:10215000422001210160FFF737FC0590FFE741F2C3
:102160000000C4F202000068800700280ED4FFE7D8
:10217000FFF72AFCDDF814E0A0EB0E00032804D3DF
:10218000FFE703208DF81F002CE2E8E741F2000092
:10219000C4F20200016821F0F801069A526941EA8E
:1021A000C201016020E00020C4F242200021016051
:1021B000FFF70AFC0590FFE741F20000C4F20200BD
:1021C0000068800700280ED5FFE7FFF7FDFBDDF86C
:1021D00014E0A0EB0E00032804D3FFE703208DF8E2
:1021E0001F00FFE1E8E7FFE7FFE7FFE70698006869
:1021F000000700284DD5FFE706988069002825D004
:10220000FFE740F28040C4F2422001210160FFF765
:10221000DBFB0590FFE741F22400C4F202000068F6
:10222000800700280ED4FFE7FFF7CEFBDDF814E0AF
:10223000A0EB0E00032804D3FFE703208DF81F0056
:10224000D0E1E8E7012001F029FD21E040F28040E3
:10225000C4F2422000210160FFF7B6FB0590FFE7C2
:1022600041F22400C4F202000068800700280ED565
:10227000FFE7FFF7A9FBDDF814E0A0EB0E00032851
:1022800004D3FFE703208DF81F00ABE1E8E7FFE789
:10229000FFE7069800684007002840F1E180FFE76B
:1022A00000208DF80F0041F21C00C4F2020000680B
:1022B000C000002814D4FFE7FFE741F21C00C4F27D
:1022C0000200016841F080510160006800F0805018
:1022D000029002980090FFE701208DF80F00FFE7C1
:1022E00047F20000C4F200000068C005002824D4B2
:1022F000FFE747F20000C4F20000016841F480717A
:102300000160FFF761FB0590FFE747F20000C4F2B0
:1023100000000068C00500280ED4FFE7FFF754FB5B
:10232000DDF814E0A0EB0E00652804D3FFE70320DE
:102330008DF81F0056E1E8E7FFE7FFE70698C06861
:10234000012809D1FFE741F22000C4F20200016830
:1023500041F00101016032E00698C06800280DD10B
:10236000FFE741F22000C4F20200016821F0010100
:102370000160016821F0040101601FE00698C06857
:1023800005280DD1FFE741F22000C4F202000168E8
:1023900041F004010160016841F0010101600CE0BD
:1023A00041F22000C4F20200016821F00101016045
:1023B000016821F004010160FFE7FFE7FFE7FFE7A5
:1023C0000698C06800281ED0FFE7FFF7FDFA0590C9
:1023D000FFE741F22000C4F20200006880070028F5
:1023E00010D4FFE7FFF7F0FADDF814E0A0EB0E00E1
:1023F00041F2893E704504D3FFE703208DF81F00AA
:10240000F0E0E6E71DE0FFF7DFFA0590FFE741F2B5
:102410002000C4F2020000688007002810D5FFE702
:10242000FFF7D2FADDF814E0A0EB0E0041F2893E8E
:10243000704504D3FFE703208DF81F00D2E0E6E7E4
:10244000FFE79DF80F00012809D1FFE741F21C00CA
:10245000C4F20200016821F080510160FFE7FFE74C
:102460000698C069002800F0B980FFE741F2040037
:10247000C4F20200006800F00C00082800F0888018
:10248000FFE70698C069022860D1FFE76020C4F228
:10249000422000210160FFF797FA0590FFE741F223
:1024A0000000C4F202000068800100280ED5FFE79A
:1024B000FFF78AFADDF814E0A0EB0E00032804D33E
:1024C000FFE703208DF81F008CE0E8E70698006A1C
:1024D000B0F5803F0CD1FFE741F20400C4F20200E6
:1024E000016821F40031069A926811430160FFE708
:1024F00041F20400C4F20200016821F47411069A4A
:10250000136A526A1A43114301606020C4F24220E8
:1025100001210160FFF758FA0590FFE741F2000042
:10252000C4F202000068800100280ED4FFE7FFF724
:102530004BFADDF814E0A0EB0E00032804D3FFE70C
:1025400003208DF81F004DE0E8E720E06020C4F292
:10255000422000210160FFF737FA0590FFE741F2C2
:102560000000C4F202000068800100280ED5FFE7D9
:10257000FFF72AFADDF814E0A0EB0E00032804D3DD
:10258000FFE703208DF81F002CE0E8E7FFE724E0D9
:102590000698C069012804D1FFE701208DF81F00CB
:1025A00020E041F20400C4F20200006804900498A4
:1025B00000F480300699096A884208D1FFE7049840
:1025C00000F470100699496A884204D0FFE70120A0
:1025D0008DF81F0006E0FFE7FFE7FFE700208DF81A
:1025E0001F00FFE79DF81F0008B080BD80B582B0D6
:1025F000014601900198009101F072FB02B080BD8C
:1026000082B001460190009102B0704782B001464D
:102610000190009102B0704786B00A4603460490CC
:1026200003910020029001920093FFE7049890F834
:102630003C00012804D1FFE702208DF8170044E098
:102640000498012180F83C10FFE7FFE7029820F092
:10265000FF000399C96808430290029820F4407073
:102660000399896808430290029820F480600399D6
:10267000496808430290029820F4006003990968B1
:1026800008430290029820F4805003990969084396
:102690000290029820F4005003994969084302907F
:1026A000029820F480400399C96908430290029877
:1026B000049909684864FFE70498002180F83C10F9
:1026C000FFE700208DF81700FFE79DF8170006B020
:1026D0007047000087B00A460346059004910192B6
:1026E0000093FFE7059890F83C00012804D1FFE72C
:1026F00002208DF81B0039E00598012180F83C107C
:10270000FFE7FFE70598022180F83D100598006873
:10271000406803900598006880680290039820F054
:10272000700003900498006803990843039002988E
:1027300020F08000029004984068029908430290BB
:1027400003980599096848600298059909688860A6
:102750000598012180F83D10FFE70598002180F8D9
:102760003C10FFE700208DF81B00FFE79DF81B00E1
:1027700007B0704780B584B00146029002980028E7
:10278000019104D1FFE701208DF80F0021E00298AC
:1027900090F83D00002808D1FFE70298002180F85A
:1027A0003C10029800F01AF8FFE70298022180F826
:1027B0003D10029850F8041B00900846009901F063
:1027C0003FFB0298012180F83D1000208DF80F009A
:1027D000FFE79DF80F0004B080BD000080B58EB00B
:1027E00001460D9000200C900B900A9009900D98D6
:1027F000006842F60042C4F201029042059111D1F4
:10280000FFE7FFE741F21800C4F20200016841F45B
:1028100000610160006800F400600890089804906E
:10282000FFE743E00D98006840F60001C4F20001A4
:1028300088423AD1FFE7FFE741F21C00C4F20200F0
:10284000016841F004010160006800F00400079095
:1028500007980390FFE7FFE741F21800C4F2020077
:10286000016841F008010160006800F0080006906E
:1028700006980290FFE7C020099000200A900221EC
:102880000B9140F60041C4F2010109AA01900846EB
:102890001146FEF7DBFE1E2001210090019AFFF792
:1028A0003BF90098FFF72CF9FFE7FFE70EB080BD7A
:1028B00080B58CB00A4603460A90099107920693A8
:1028C000FFE70A9890F83C00012804D1FFE70220B6
:1028D0008DF82F00B7E00A98012180F83C10FFE73F
:1028E000FFE70A98022180F83D100A980068806886
:1028F0000890089820F077000890089820F47F400E
:10290000089008980A990968886009980068002862
:10291000059000F08280FFE7059810287DD0FFE742
:102920000598202879D0FFE70598302875D0FFE773
:102930000598402861D0FFE7059850283DD0FFE773
:102940000598602849D0FFE7059870280BD0FFE76D
:102950000598B0F5805F05D0FFE70598B0F5005FFA
:1029600019D061E061E00A98006809994A688B68AB
:10297000C96804911946049B01F004FB0A98006899
:1029800080680890089840F07700089008980A99A5
:102990000968886049E00A98006809994A688B6864
:1029A000C96803911946039B01F0ECFA0A98006884
:1029B000816841F48041816037E00A980068099994
:1029C0004A68C96802911146029A01F0B7FC0A9858
:1029D0000068502101F0FCFA27E00A980068099984
:1029E0004A68C96801911146019A01F049FD0A98A7
:1029F0000068602101F0ECFA17E00A980068099974
:102A00004A68C96800911146009A01F097FC0A983B
:102A10000068402101F0DCFA07E00A980068099993
:102A2000096801F0D5FA00E0FFE70A98012180F873
:102A30003D10FFE70A98002180F83C10FFE70020D6
:102A40008DF82F00FFE79DF82F000CB080BD00002F
:102A500080B58AB00A460346089007910898002876
:102A60000392029304D1FFE701208DF8270079E05B
:102A7000089890F83D00002808D1FFE70898002149
:102A800080F83C10089800F071F8FFE708980221E0
:102A900080F83D1008980068816844F2070291436D
:102AA0008160089850F8041B01900846019901F0D4
:102AB000C7F90898006880680690089800688069DF
:102AC000059008980068006A0490079800680699C5
:102AD00008430690059840F2033188430590079813
:102AE0008168806941EA00200599084305900598AE
:102AF00040F60C418843059005984FF2F001884359
:102B000005900798C168C06941EA0020059908430B
:102B1000059007980169006A090141EA00300599AA
:102B200008430590049820F022000490079841681B
:102B3000406941EA001004990843049006980899F6
:102B40000968886005980899096888610498089957
:102B5000096808620898012180F83D1000208DF86E
:102B60002700FFE79DF827000AB080BD80B58CB034
:102B700001460B9000200A900990089007900B984E
:102B80000068B0F1804F049139D1FFE7FFE741F2CF
:102B90001C00C4F20200016841F0010101600068FC
:102BA00000F00100069006980390FFE7FFE741F26E
:102BB0001800C4F20200016841F0040101600068DD
:102BC00000F00400059005980290FFE703200790AD
:102BD00000200890099040F60001C4F2010107AA04
:102BE000019008461146FEF731FD1C200090019926
:102BF000019AFEF791FF0098FEF782FFFFE70CB005
:102C000080BD000080B58EB001460D900D9840F259
:102C10004412C2F2000290420C9140F05481FFE74E
:102C20000D98007F014601280B9100F0A880FFE776
:102C30000B98022840F04581FFE740F2E810C2F20D
:102C400000000068002810D1FFE70D98042100F073
:102C500021FD40F2EC11C2F20001086040F2E810E0
:102C6000C2F200000121016088E040F2E810C2F2E7
:102C700000000068012840F08080FFE70D980421E3
:102C800000F008FD40F2F011C2F20001086008688F
:102C900040F2EC11C2F200010968884211D9FFE745
:102CA00040F2F010C2F20000006840F2EC11C2F2F3
:102CB00000010968401A40F2DC11C2F2000108600C
:102CC00025E040F2F010C2F20000006840F2EC1182
:102CD000C2F200010968884215D2FFE740F2EC1009
:102CE000C2F20000006842F21071081A40F2F011BE
:102CF000C2F2000109680844013040F2DC11C2F25E
:102D00000001086002E0FEF777FCFFE7FFE740F212
:102D1000DC10C2F20000006802F068FB4FF0000E09
:102D200048F28042C4F22E120A9070460991114670
:102D30000A9A099BCDF820E002F000FA0023C4F2C1
:102D40005903089A02F0FAF940F2E012C2F20002C6
:102D50005160106040F2E810C2F200000899016072
:102D60001068536845F2E352C0F60002079010461F
:102D7000079AFDF787FA0690FFE7FFE7A2E040F227
:102D8000D010C2F200000068002810D1FFE70D98B3
:102D9000002100F07FFC40F2D411C2F20001086073
:102DA00040F2D010C2F200000121016088E040F240
:102DB000D010C2F200000068012840F08080FFE7D8
:102DC0000D98002100F066FC40F2D811C2F200011B
:102DD0000860086840F2D411C2F200010968884214
:102DE00011D9FFE740F2D810C2F20000006840F2AB
:102DF000D411C2F200010968401A40F2C411C2F2B3
:102E00000001086025E040F2D810C2F2000000681E
:102E100040F2D411C2F200010968884215D2FFE7DE
:102E200040F2D410C2F20000006842F21071081A99
:102E300040F2D811C2F2000109680844013040F2A2
:102E4000C411C2F20001086002E0FEF7D5FBFFE703
:102E5000FFE740F2C410C2F20000006802F0C6FAB8
:102E60004FF0000E48F28042C4F22E1205907046D8
:102E700004911146059A049BCDF80CE002F05EF92E
:102E80000023C4F25903039A02F058F940F2C81221
:102E9000C2F200025160106040F2D010C2F2000095
:102EA000039901601068536845F2D852C0F60002D9
:102EB00002901046029AFDF7E5F90190FFE7FFE75F
:102EC00000E0FFE7FFE70EB080BD000080B58CB0EA
:102ED00013468C4686460A90099108920793CDF8CE
:102EE00018C0CDF814E0FFE70A9890F83C000128DC
:102EF00004D1FFE702208DF82F008FE00A9801210E
:102F000080F83C10FFE7FFE70A98022180F83D10A7
:102F1000089800281AD1FFE70A98006809990A68FA
:102F20004B68C968049111461A46049B01F038FAAF
:102F30000A980068816921F00C0181610998806814
:102F40000A9909688A691043886159E00898042839
:102F50001BD1FFE70A98006809990A684B68C9689D
:102F6000039111461A46039B01F0BCFA0A980068C7
:102F7000816921F440618161099880680A99096832
:102F80008A6942EA0020886139E0089808281AD145
:102F9000FFE70A98006809990A684B68C9680291B6
:102FA00011461A46029B01F0DFFA0A980068C169CF
:102FB00021F00C01C161099880680A990968CA6901
:102FC0001043C8611AE00A98006809990A684B68BA
:102FD000C968019111461A46019B01F005FB0A9848
:102FE0000068C16921F44061C161099880680A994B
:102FF0000968CA6942EA0020C861FFE7FFE7FFE706
:103000000A98012180F83D10FFE70A98002180F816
:103010003C10FFE700208DF82F00FFE79DF82F0000
:103020000CB080BD80B584B00146029002980028A3
:10303000019104D1FFE701208DF80F0021E00298F3
:1030400090F83D00002808D1FFE70298002180F8A1
:103050003C10029800F01AF8FFE70298022180F86D
:103060003D10029850F8041B00900846009900F0AB
:10307000E7FE0298012180F83D1000208DF80F0036
:10308000FFE79DF80F0004B080BD000082B001464C
:103090000190009102B0704780B586B00A460346A1
:1030A0000590049104980C2802920193009025D871
:1030B0000099DFE801F0072323230E2323231523A0
:1030C00023231C0005980068C16841F00201C1601B
:1030D00015E005980068C16841F00401C1600EE088
:1030E00005980068C16841F00801C16007E00598D3
:1030F0000068C16841F01001C16000E0FFE7059879
:1031000000680499012200F017FF059800688068A4
:1031100000F0070003900398062807D0FFE7059802
:103120000068016841F001010160FFE7002006B07E
:1031300080BD000080B582B0014601900198006812
:10314000006900F002000022B2EB500F009129D07C
:10315000FFE701980068C06800F002000021B1EBB1
:10316000500F1ED0FFE7019800686FF00201016167
:103170000198012101770198006880698007002883
:1031800004D0FFE70198FFF73DFD06E0019800F04D
:1031900049F9019800F036FAFFE70198002101771C
:1031A000FFE7FFE701980068006900F004000021D4
:1031B000B1EB900F29D0FFE701980068C06800F0DC
:1031C00004000021B1EB900F1ED0FFE701980068CA
:1031D0006FF00401016101980221017701980068F4
:1031E000806910F4407F04D0FFE70198FFF70AFDE3
:1031F00006E0019800F016F9019800F003FAFFE7E5
:10320000019800210177FFE7FFE701980068006956
:1032100000F008000021B1EBD00F29D0FFE70198A2
:103220000068C06800F008000021B1EBD00F1ED08C
:10323000FFE7019800686FF008010161019804211F
:10324000017701980068C0698007002804D0FFE773
:103250000198FFF7D7FC06E0019800F0E3F8019829
:1032600000F0D0F9FFE7019800210177FFE7FFE7C1
:1032700001980068006900F010000021B1EB101FF8
:1032800029D0FFE701980068C06800F01000002115
:10329000B1EB101F1ED0FFE7019800686FF010011E
:1032A000016101980821017701980068C06910F454
:1032B000407F04D0FFE70198FFF7A4FC06E00198E7
:1032C00000F0B0F8019800F09DF9FFE701980021A7
:1032D0000177FFE7FFE7019800680069C007002851
:1032E00011D0FFE701980068C068C007002809D026
:1032F000FFE7019800686FF001010161019800F09B
:10330000BBF9FFE7FFE7019800680069C0B2002140
:10331000B1EBD01F13D0FFE701980068C068C0B2BE
:103320000021B1EBD01F09D0FFE7019800686FF0D2
:10333000800101610198FFF763F9FFE7FFE701985A
:103340000068006900F040000021B1EB901F14D02C
:10335000FFE701980068C06800F040000021B1EB71
:10336000901F09D0FFE7019800686FF040010161EC
:10337000019800F0BFF9FFE7FFE7019800680069D6
:1033800000F020000021B1EB501F14D0FFE701989E
:103390000068C06800F020000021B1EB501F09D088
:1033A000FFE7019800686FF0200101610198FFF7C5
:1033B0002DF9FFE7FFE702B080BD000080B588B0BF
:1033C000014607900020069005900490039007980E
:1033D000006842F60042C4F20102904201911FD1FE
:1033E000FFE7FFE741F21800C4F20200016841F074
:1033F00004010160006800F004000290029800904F
:10340000FFE74FF410600390022004900320069021
:1034100040F60000C4F2010003A9FEF717F9FFE728
:1034200008B080BD82B001460190009102B07047A3
:1034300080B588B013468C46864606900591049266
:103440000393CDF808C0CDF804E0FFE7069890F8A4
:103450003C00012804D1FFE702208DF81F0093E013
:103460000698012180F83C10FFE7FFE7069802214B
:1034700080F83D1004980C28009000F276800099A6
:10348000DFE801F007737373227373733D73737313
:10349000580006980068059900F0B4FD0698006889
:1034A000816941F00801816106980068816921F015
:1034B000040181610598006906990968D1F818E04E
:1034C00040EA0E00886151E006980068059900F016
:1034D00005FE06980068816941F4006181610698E3
:1034E0000068816921F4806181610598006906990D
:1034F0000968D1F818E04EEA0020886136E00698A5
:103500000068059900F05AFE06980068C16941F00C
:103510000801C16106980068C16921F00401C16118
:103520000598006906990968D1F81CE040EA0E0088
:10353000C8611BE006980068059900F0AFFE069888
:103540000068C16941F40061C16106980068C16901
:1035500021F48061C1610598006906990968D1F874
:103560001CE04EEA0020C86100E0FFE70698012158
:1035700080F83D10FFE70698002180F83C10FFE737
:1035800000208DF81F00FFE79DF81F0008B080BDE8
:1035900080B584B00146029002980028019104D1C0
:1035A000FFE701208DF80F0021E0029890F83D0020
:1035B000002808D1FFE70298002180F83C1002980B
:1035C00000F01AF8FFE70298022180F83D100298F7
:1035D00050F8041B00900846009900F031FC029856
:1035E000012180F83D1000208DF80F00FFE79DF8C5
:1035F0000F0004B080BD000082B001460190009130
:1036000002B0704782B001460190009102B070474D
:1036100080B586B00A460346059004910598006877
:1036200004994FF0010C02926246019300F084FC71
:103630000598006842F60041C4F20101884207D1B2
:10364000FFE705980068416C41F400414164FFE7E1
:1036500005980068806800F007000390039806282A
:1036600007D0FFE705980068016841F0010101609B
:10367000FFE7002006B080BD80B584B0014603900E
:1036800045F2EE50C0F600000291FCF7FBFD019000
:1036900004B080BD86B00A46034605900491002020
:1036A000039004980C280292019300901DD8009971
:1036B000DFE801F0071B1B1B0C1B1B1B111B1B1B3B
:1036C000160005980068406B03900FE005980068AD
:1036D000806B03900AE005980068C06B039005E0DA
:1036E00005980068006C039000E0FFE7039806B0BF
:1036F0007047000082B001460190009102B070470F
:1037000080B584B00146029002980028019104D14E
:10371000FFE701208DF80F0041E002988069002842
:1037200001D0FFE700E0FFE7029890F83900002899
:1037300008D1FFE70298002180F83810029800F0C5
:1037400033F8FFE70298242180F8391002980068C6
:10375000C16821F40051C160029800F087FF02980F
:103760000068016921F49041016102980068416993
:1037700021F02A01416102980068C16841F40051BA
:10378000C16002980021C16302984FF0200E80F8BA
:1037900039E0029880F83AE08DF80F10FFE79DF8C5
:1037A0000F0004B080BD000080B58CB001460B90C6
:1037B00000200A900990089007900B98006843F643
:1037C0000002C4F20102904204913BD1FFE7FFE7FF
:1037D00041F21800C4F20200016841F48041016026
:1037E000006800F48040069006980390FFE7FFE72A
:1037F00041F21800C4F20200016841F004010160C6
:10380000006800F00400059005980290FFE74FF46F
:10381000007007900220089003200A9040F60000F4
:10382000C4F2010007A901900091FDF70FFF4FF4CA
:103830008060079000200890099001980099FDF79A
:1038400005FFFFE70CB080BDFFE7FEE780B58EB057
:1038500000200D900C900B900A90FFE741F21800A9
:10386000C4F20200016841F020010160006800F02C
:103870002000099009980690FFE7FFE741F2180041
:10388000C4F20200016841F004010160006800F028
:103890000400089008980590FFE7FFE741F2180040
:1038A000C4F20200016841F008010160006800F004
:1038B0000800079007980490FFE740F60040C4F224
:1038C00001004FF480710122039002910192FEF7F2
:1038D00059F802980A9011210B9101990C9102223A
:1038E0000D920AA90398FDF7B1FE0EB080BD00004D
:1038F00080B596B0002015901490139012901190FE
:1039000010900F900E900D900C900B900A900990D3
:103910000890079006900590049003900290019003
:1039200040F2C401C2F2000142F60042C4F20102B8
:103930000A6041F61F424A6010228A6042F20F720A
:10394000CA6008614861802088610846FEF712FF5E
:10395000002803D0FFE7FDF74FFEFFE74FF480504C
:10396000129040F2C400C2F2000012A9FEF7A0FFBC
:10397000002803D0FFE7FDF73FFEFFE740F2C40059
:10398000C2F20000FFF704FE002803D0FFE7FDF7B6
:1039900033FEFFE700201090119040F2C400C2F205
:1039A000000010A9FEF796FE002803D0FFE7FDF700
:1039B00023FEFFE76020099041F288300A90002042
:1039C0000B900C9004210D910E900F9040F2C401C9
:1039D000C2F2000109AA009008461146009AFFF7BA
:1039E00027FD002803D0FFE7FDF706FEFFE740F2C2
:1039F000C400C2F2000009A90C22FFF719FD00283B
:103A000003D0FFE7FDF7F8FDFFE7002001900290EB
:103A10000390049005904FF400510691089040F2F5
:103A2000C400C2F2000001A9FEF7F6FD002803D091
:103A3000FFE7FDF7E1FDFFE740F2C400C2F200003E
:103A4000FFF7BCFC16B080BD80B58CB003A8242164
:103A50000090FCF723FC00200290019040F204113A
:103A6000C2F200014FF0804EC1F800E04FF0470E67
:103A7000C1F804E0886042F2107EC1F80CE00861F1
:103A800088614FF0030ECDF80CE004904FF0010E6A
:103A9000CDF814E006900F2207920890CDF824E0AC
:103AA0000A900B9208460099FEF7D2FF002803D037
:103AB000FFE7FDF7A1FDFFE700200190029040F233
:103AC0000410C2F2000001A9FEF704FE002803D092
:103AD000FFE7FDF791FDFFE70CB080BD80B58CB02E
:103AE00000200B900A90099008900790069005908E
:103AF00004900390029040F24411C2F2000140F69B
:103B00000002C4F200020A6047224A60886042F262
:103B10001072CA60086188610846FEF72BFE002813
:103B200003D0FFE7FDF768FDFFE74FF480500890F2
:103B300040F24410C2F2000008A9FEF7B9FE0028C6
:103B400003D0FFE7FDF758FDFFE740F24410C2F253
:103B50000000FFF767FA002803D0FFE7FDF74CFDF0
:103B6000FFE700200690079040F24410C2F20000E8
:103B700006A9FEF7AFFD002803D0FFE7FDF73CFDE7
:103B8000FFE7002002900121039108210491059094
:103B900040F24411C2F2000102AA01900846114607
:103BA000019AFFF793F9002803D0FFE7FDF724FD02
:103BB000FFE740F24410C2F2000002A90422FFF71E
:103BC00085F9002803D0FFE7FDF716FDFFE70CB0ED
:103BD00080BD000080B540F28410C2F2000043F6C0
:103BE0000001C4F2010101604FF4E13141600021A4
:103BF0008160C16001610C2242618161C161FFF796
:103C00007FFD002803D0FFE7FDF7F6FCFFE780BD4E
:103C1000FFE7FEE77047000080B58BB013468C4687
:103C200086460A90099108920A9800F007000790CA
:103C30000798C0F1070005280493CDF80CC0CDF813
:103C400008E003D3FFE70420019004E00798C0F1E7
:103C500007000190FFE701980690079804300628B6
:103C600003D8FFE70020009003E007980338009096
:103C7000FFE70098059009980699012202FA01F1E0
:103C80000139084005998840089B02FA01F1013981
:103C9000194008430BB080BD7047000084B0014656
:103CA0000390039840F20002C2F200021268D208A8
:103CB00044F6D353C1F26203A2FB03239B0958438A
:103CC000029001910092FFE700BFFFE70298411EBA
:103CD00002910028F8D1FFE704B070477047000058
:103CE00080B584B00146029002980138B0F1807F1F
:103CF000019103D3FFE7012003901BE002980138F4
:103D00004EF21401CEF2000108604FF0FF300F2197
:103D100000F068FD4EF21800CEF2000000210160B4
:103D20004EF21000CEF200004FF0070EC0F800E097
:103D30000391FFE7039804B080BD000080B5FDF754
:103D400049FE80BD80B592B008A828210290FCF7FA
:103D5000A5FA002007900690059004900390012199
:103D600008914FF4803ECDF824E00A900C91022097
:103D70000F90CDF840E04FF4E01011900298FEF75C
:103D8000D5F8002803D0FFE7FDF736FCFFE70F204A
:103D9000039002200490002105914FF48062069266
:103DA000079103A9019008460199FDF7E5FE002857
:103DB00003D0FFE7FDF720FCFFE712B080BD000055
:103DC00041F20000C4F20200016841F0010101600B
:103DD00041F20401C4F202010A680023CFF6FF0396
:103DE0001A400A6002684FF6FF73CFF6F6631A4076
:103DF0000260026822F480220260086820F4FE005B
:103E0000086041F20800C4F202004FF41F01016093
:103E10004EF60850CEF200004FF00061016070478E
:103E200080B540F20410C2F20000FFF783F980BDB4
:103E300080B540F24410C2F20000FFF77BF980BD6C
:103E400085B00A46034604900391049800680290E6
:103E5000049842F60041C4F20101884201920093A5
:103E600015D0FFE70498B0F1804F10D0FFE7049819
:103E700040F20041C4F20001884208D0FFE70498F4
:103E800040F60001C4F2000188420AD1FFE702981F
:103E900020F0700002900398406802990843029055
:103EA000FFE7049842F60041C4F20101884215D0B0
:103EB000FFE70498B0F1804F10D0FFE7049840F27C
:103EC0000041C4F20001884208D0FFE7049840F6A0
:103ED0000001C4F2000188420AD1FFE7029820F4F1
:103EE000407002900398C068029908430290FFE76F
:103EF000029820F0800003994969084302900298D3
:103F000004990860039880680499C862039800685F
:103F100004998862049842F60041C4F20101884283
:103F200005D1FFE70398006904990863FFE7049847
:103F30000121416105B0704780B587B013468C46BA
:103F40008646069005910492059800F01F00012115
:103F500001FA00F00390039806990A6A22EA000029
:103F600008620498059901F01F01884006990A6AC1
:103F7000104308620293CDF804C0CDF800E007B00A
:103F800080BD0000B0B589B09C4696460C460546FB
:103F90000890079106920593089880680490049809
:103FA00020F47F40049007980699059A41EA02217F
:103FB0000843049908430490049808998860CDF850
:103FC0000CC0CDF808E00194009509B0B0BD000028
:103FD00085B00A46034604900391049880680290D5
:103FE000029820F07000029003980299084340F074
:103FF000070002900298049988600192009305B02E
:104000007047000087B00A4603460690059106985F
:10401000016A21F0010101620698006A0390069886
:1040200040680290069880690490049820F070001F
:104030000490049820F00300049005980068049907
:1040400008430490039820F00200039005988068CC
:10405000039908430390069842F60041C4F2010117
:104060008842019200930ED1FFE7039820F00800E8
:1040700003900598C068039908430390039820F0C3
:1040800004000390FFE7069842F60041C4F20101E4
:10409000884213D1FFE7029820F4807002900298C2
:1040A00020F400700290059840690299084302903C
:1040B00005988069029908430290FFE702980699E3
:1040C0004860049806998861059840680699486395
:1040D00003980699086207B07047000087B00A4647
:1040E0000346069005910698016A21F010010162CD
:1040F0000698006A039006984068029006988069C6
:104100000490049820F4E0400490049820F4407057
:10411000049005980068049941EA002004900398EF
:1041200020F02000039005988068039941EA001070
:104130000390069842F60041C4F2010188420192C0
:1041400000930FD1FFE7039820F0800003900598BB
:10415000C068039941EA00100390039820F04000E2
:104160000390FFE7069842F60041C4F2010188423D
:1041700015D1FFE7029820F480600290029820F4A5
:104180000060029005984069029941EA800002901F
:1041900005988069029941EA80000290FFE7029841
:1041A00006994860049806998861059840680699C0
:1041B000886303980699086207B0704787B00A467B
:1041C0000346069005910698016A21F48071016208
:1041D0000698006A03900698406802900698C069A5
:1041E0000490049820F070000490049820F00300DC
:1041F000049005980068049908430490039820F4FB
:104200000070039005988068039941EA00200390AC
:10421000069842F60041C4F20101884201920093DF
:104220000FD1FFE7039820F4006003900598C06861
:10423000039941EA00200390039820F480600390E2
:10424000FFE7069842F60041C4F20101884215D109
:10425000FFE7029820F480500290029820F400506A
:10426000029005984069029941EA00100290059871
:104270008069029941EA00100290FFE702980699CE
:10428000486004980699C861059840680699C86313
:1042900003980699086207B07047000087B00A4685
:1042A0000346069005910698016A21F48051016247
:1042B0000698006A03900698406802900698C069C4
:1042C0000490049820F4E0400490049820F4407096
:1042D000049005980068049941EA0020049003982E
:1042E00020F40050039005988068039941EA00305B
:1042F0000390069842F60041C4F2010188420192FF
:1043000000930BD1FFE7029820F4804002900598BB
:104310004069029941EA80100290FFE702980699ED
:10432000486004980699C861059840680699086431
:1043300003980699086207B07047000080B588B0FE
:1043400013468C4686460790069105920798006AA8
:1043500003900798016A21F00101016207988069C2
:104360000490049820F0F00004900598049941EA24
:1043700000100490039820F00A0003900698039917
:104380000843039004980799886103980799086285
:104390000293CDF804C0CDF800E008B080BD000065
:1043A000B0B58BB09C4696460C4605460A900991DE
:1043B000089207930A98016A21F0010101620A98A4
:1043C000806906900A98006A05900A98012142F6D1
:1043D0000042C4F201029042CDF810C0CDF80CE0CA
:1043E0000294019500911CD0FFE70A980121B0F1D9
:1043F000804F009115D0FFE70A98012140F200425A
:10440000C4F20002904200910BD0FFE70A984FF6E9
:104410000001CBF6FF710844B0FA80F0400900902B
:10442000FFE70098C007002809D0FFE7069820F0B2
:1044300003000690089806990843069004E0069841
:1044400040F001000690FFE7069820F0F00006908B
:1044500007980001C0B2069908430690059820F01D
:104460000A000590099800F00A0005990843059094
:1044700006980A99886105980A9908620BB0B0BD40
:1044800080B588B013468C46864607900691059203
:104490000798016A21F01001016207988069049071
:1044A0000798006A0390049820F4704004900598DF
:1044B000049941EA00300490039820F0A000039092
:1044C0000698039941EA00100390049807998861BF
:1044D0000398079908620293CDF804C0CDF800E074
:1044E00008B080BDB0B58AB09C4696460C460546DD
:1044F00009900891079206930998016A21F010012A
:1045000001620998806905900998006A04900598ED
:1045100020F4407005900798059941EA0020059025
:10452000059820F4704005900698000380B2059924
:1045300008430590049820F0A0000490089800F02B
:104540000A00049941EA00100490059809998861CD
:10455000049809990862CDF80CC0CDF808E00194E0
:1045600000950AB0B0BD0000B0B58AB09C46964632
:104570000C46054609900891079206930998016A2E
:1045800021F4807101620998C06905900998006A58
:104590000490059820F003000590079805990843BA
:1045A0000590059820F0F000059006980001C0B233
:1045B000059908430590049820F400700490089829
:1045C00000F00200049941EA00200490059809993E
:1045D000C861049809990862CDF80CC0CDF808E0CC
:1045E000019400950AB0B0BDB0B58AB09C4696461D
:1045F0000C46054609900891079206930998016AAE
:1046000021F4805101620998C06905900998006AF7
:104610000490059820F4407005900798059941EAA8
:1046200000200590059820F470400590069800033E
:1046300080B2059908430590049820F40050049036
:10464000089800F00200049941EA003004900598AF
:104650000999C861049809990862CDF80CC0CDF891
:1046600008E0019400950AB0B0BD000080B588B0A4
:104670000146079007980068006920F44050079AA7
:104680001368D2681043186107988268036940690B
:104690001A431043069007980068C06841F20C6204
:1046A0009043069A1043079A1268D06007980068F2
:1046B000406920F44070079A13689269104358616A
:1046C0000798006843F60002C4F201029042049188
:1046D00030D1FFE7FDF7A2FB059005984FF0190ECA
:1046E00000FB0EF0DDF81CE0DEF80010DEF804E060
:1046F0004FEA8E0EB0FBFEF048F21F5EC5F2EB1ED5
:10470000A0FB0E235B094FF0640C03FB1C004FF071
:10471000320C0CEB0010A0FB0E0C4FF0F00E0EEA6A
:104720005C1E0EEB0313CCF3431C63448B600392BB
:1047300002902FE0FDF75EFB059005984FF0190EF3
:1047400000FB0EF0DDF81CE0DEF80010DEF804E0FF
:104750004FEA8E0EB0FBFEF048F21F5EC5F2EB1E74
:10476000A0FB0E235B094FF0640C03FB1C004FF011
:10477000320C0CEB0010A0FB0E0C4FF0F00E0EEA0A
:104780005C1E0EEB0313CCF3431C63448B6001925D
:104790000090FFE708B080BDFFE7FEE782B001466A
:1047A0008DF807009DF90700002800910FDBFFE757
:1047B0009DF9070000F01F01012202FA01F14009F2
:1047C0004EF20012CEF2000242F82010FFE702B0D3
:1047D000704700004EF60C50CEF200000068C0F3A7
:1047E0000220704784B00A4603468DF80F000291FC
:1047F0009DF90F000028019200930ADBFFE7029861
:1048000000019DF90F104EF20042CEF200028854D2
:104810000BE0029800019DF80F1001F00F014EF619
:104820001452CEF200028854FFE704B07047000033
:1048300084B001460390039800F0070001904EF603
:104840000C50CEF2000002680292029A4FF6FF036B
:104850001A400292029A019B42EA03220023C0F20C
:10486000FA531A430292029A0260009104B0704710
:1048700082B001460190009102B0704782B00146BB
:104880000190009102B0704782B001460190009102
:1048900002B0704784B00A46034603900291019229
:1048A0000093FFE743F60000C4F2010000684006F1
:1048B000002801D4FFE7F5E79DF80C0043F604015A
:1048C000C4F201010860039804B0704780B584B059
:1048D000002003900290FDF78BF80190FFF732FA69
:1048E000FEF7B4FFFFF704F8FFF774F9FFF7F6F8E7
:1048F000FFF7AAF8FCF754FE0298FCF765FE0C20BF
:10490000FCF762FE45F20E60C0F60000FBF7BAFC51
:104910000090FFE74FF4FA70FCF770FEFAE75FEAE9
:10492000400C08BF91F0000F4FEA8C234FEAC122E0
:1049300043EA51514FEA1C5018BF00F5F0404FEACE
:10494000300018BF41F000415FEA6C5C00F0298044
:10495000BCF1FF3F08BF40F080407047130C06BF1A
:1049600012044FF0100C4FF0000C130E04BF120293
:104970000CF1080C130F04BF12010CF1040C930F7F
:1049800004BF92000CF1020CD30F04BF52000CF1D3
:10499000010C11464FF00002A0F11F00A0EB0C002B
:1049A000704711F0004F08BF704731F000413FF4ED
:1049B000D5AF0B0C06BF09044FF0100C4FF0000CE4
:1049C0000B0E04BF09020CF1080C0B0F04BF090108
:1049D0000CF1040C8B0F04BF89000CF1020CCB0FFF
:1049E00004BF49000CF1010CCCF1200322FA03F3BF
:1049F00041EA030102FA0CF2A0EB0C0000F1010005
:104A0000704723F07F4720F07F4C80EA030000F0DE
:104A10000040ACEB070303F57C5303F1FF032DE9E2
:104A2000804909B44FEA144324EA03484FEA154B7E
:104A300025EA0B4E0FF2042606EB13273E7803FB04
:104A40000667C7F5000707FB06F64FEAD64606F1EC
:104A500002064FEA543707FB066CCCF1005C4FEAC4
:104A60001C472CEA074C0CFB06F507FB06F404EB8D
:104A700015464FEA961649085FEA320234BF002015
:104A80004FF000404FEAD13706FB07FC4FEA1C4CC1
:104A90000CFB0BF7D21B03FB0CF761EB07010CFBC4
:104AA0000EF7B0EB074072EB17420CFB08F734BF70
:104AB000A2EB0742B2EB074261EB17414FEA0C440D
:104AC0004FEA910706FB07FC4FEA1C4C0CFB0BF767
:104AD000B0EBC74072EB573203FB0CF734BFA2EBCD
:104AE000C742B2EBC74261EB57310CFB0EF7B0EB9C
:104AF000C70072EB57720CFB08F734BFA2EBC7027A
:104B0000B2EBC70261EB57714FEA816141EA921142
:104B10004FEA826242EA90124FEA806004EBCC04D2
:104B2000039F4FEAD13706FB07FC4FEA1C4C0CFBF6
:104B30000BF7D21B03FB0CF761EB07010CFB0EF725
:104B4000B0EB074072EB17420CFB08F734BFA2EB47
:104B50000742B2EB074261EB17414FEA8C5504EB79
:104B60009C244FEA910706FB07FC4FEA1C4C0CFB08
:104B70000BF7B0EBC74072EB573203FB0CF734BFB7
:104B8000A2EBC742B2EBC74261EB57310CFB0EF709
:104B9000B0EBC70072EB57720CFB08F734BFA2EB07
:104BA000C702B2EBC70261EB57714FEA816141EA7C
:104BB00092114FEA826242EA90124FEA806015EB4E
:104BC0004C2544F100044FEAD13706FB07FC4FEABD
:104BD0001C4C0CFB0BF7D21B03FB0CF761EB070122
:104BE0000CFB0EF7B0EB074072EB17420CFB08F71B
:104BF00034BFA2EB0742B2EB074261EB17414FEA29
:104C0000813141EA92414FEA823242EA90424FEAD0
:104C100080304FEA0C7615EB1C1544F1000448EA8D
:104C200003434EEA0B484FF0000EB2EB080C71EB59
:104C3000030724BF624639464EEB0E0E4FF0000BC1
:104C40000018524149414BEB0B0BB2EB080C71EBD6
:104C500003077BF1000B24BF624639464EEB0E0E74
:104C60004FF0000B0018524149414BEB0B0BB2EBDC
:104C7000080C71EB03077BF1000B24BF6246394639
:104C80004EEB0E0E51EA020718BF46F0010616EB76
:104C90000E7655F1000254F1000103D5BDE88901FB
:104CA000BDE80088BDE88901BDE80048B619524159
:104CB00041EB0101A3F10103704780807F7E7D7C81
:104CC0007B7A7978777676757473727171706F6E9E
:104CD0006E6D6C6C6B6A6A69686867666665646449
:104CE000636362616160605F5F5E5E5D5D5C5C5BD3
:104CF0005B5A5A5959585857575656555555545442
:104D0000535352525251515050504F4F4F4E4E4D9F
:104D10004D4D4C4C4C4B4B4B4A4A4A4949494848EB
:104D2000484747474746464645454544444444432B
:104D3000434343424242424141419C46002B30D4CE
:104D400077002BD04FEA37071CB503B44FF01000A3
:104D50004FF01001BAF1000F06D0BCF1000FDCBF1C
:104D600040F0080040F008014FF000000FBCBDE823
:104D700010400BF1010BBBF1010F08BF5FEA1707F1
:104D800022BF12F1010211F101014FF0004143F184
:104D9000000300F0004043EA00007047F9D35708D1
:104DA000D0E746EA06464FEA164613F1400F1FDDEC
:104DB00013F1200FDFBF16430A46002120335B4268
:104DC000BED0C3F1200746EA06464FEA164602FA6D
:104DD00007F746EA070622FA03F2C3F1200701FAB1
:104DE00007F742EA070221FA03F14FF00003A7E7B1
:104DF00046EA020646EA06464FEA164646EA010633
:104E0000BCBF46EA0646360C4FF000034FF00002E6
:104E10004FF0000194E72DE9804C70B49A46934618
:104E200091E8380007C831EA400C48BF34EA430C27
:104E300003D5FFF7E6FDFFF780FFF0BCBDE8008C6F
:104E40002DE9804C70B49A46934691E8380007C823
:104E500010F0804F08BF13F0804F03D100F005F829
:104E6000FFF76BFFF0BCBDE8008C20F07F4723F01C
:104E70007F4C80EA030000F0004007EB0C03A3F531
:104E80007C53A3F1FE0392F0000F00F0B38095F085
:104E9000000F00F077802DE901494FEA114021EA27
:104EA00000484FEA144624EA064700FB06FC08FBCC
:104EB00006F607FB08F818EB06484CEB164C00FB0F
:104EC00007F718EB07484CEB17404FEA124B22EA62
:104ED0000B4E4FEA154625EA06470BFB06FC0EFB78
:104EE00006F607FB0EFE1EEB064E4CEB164C0BFBBC
:104EF00007F71EEB074E4CEB174B18EB0B0840F176
:104F0000000018EB0E0B58EB000840F100008F1A60
:104F10004FF000014FF000063CBFC943661B14BFB1
:104F2000B5EB040C00213CBFC943F61B4FEA174404
:104F300027EA04454FEA1C472CEA074C04FB0762AA
:104F400005FB07F70CFB05F616EB074642EB17428D
:104F500004FB0CFC16EB0C4642EB1C421BEB06065A
:104F600058EB020241414EEA8E0E46EA9E0601D5FA
:104F7000BDE80189B619524141EB0101A3F10103DA
:104F8000BDE801894FEA144524EA05464FEA114776
:104F900021EA074C05FB07F406FB07F70CFB06F1BB
:104FA00011EB074144EB174405FB0CFC11EB0C41E2
:104FB00044EB1C444FEA124722EA074C05FB07F278
:104FC00006FB07F70CFB06F616EB074642EB17420B
:104FD00005FB0CFC16EB0C4642EB1C456A1854F121
:104FE000000148BF7047B619524141EB0101A3F1DE
:104FF0000103704795F0000F37D04FEA114221EAC4
:1050000002464FEA144724EA074C02FB07F106FB6D
:1050100007F70CFB06F414EB074441EB174102FBC6
:105020000CFC14EB0C4441EB1C414FEA154725EAFC
:10503000074C02FB07F506FB07F70CFB06F616EB21
:10504000074645EB174502FB0CFC16EB0C4645EBFF
:105050001C42121951F1000148BF7047B619524164
:1050600041EB0101A3F1010370474FEA144524EA23
:1050700005464FEA114721EA074C05FB07F106FBFD
:1050800007F70CFB06F212EB074241EB174105FB59
:105090000CFC12EB0C4251EB1C414FF0000648BFD8
:1050A0007047921841EB0101A3F1010370474900D9
:1050B00050EAC12018BF04204A0D18BF40F001007B
:1050C00040F2FF72B2EB515F08BF40F002000128CE
:1050D00008BF0520704730380A2801D201207047E8
:1050E0000020704710B500290AD00878002807D0A2
:1050F00005487844FCF72CF9002801D0002010BDA9
:105100000248784410BD00004A0500004205000036
:1051100010B500290AD00878002807D0054878443F
:10512000FCF716F9002801D0002010BD0248784491
:1051300010BD00003A050000320500002DE9C04115
:1051400030B4DFF8A0C23CEA111418BF3CEA1314D3
:1051500000F0EC801CEA111481EA030544EAD574DE
:1051600018BF1CEA131500F0C780A4EB050404F176
:105170007F7404F500344FF0004545EAC12145EA4B
:10518000C32341EA505143EA52534FEAC0204FEA49
:10519000C222994208BF904200F09C804FEA1365FA
:1051A0000FF24016765D4FEA134506FB05F7C7F18F
:1051B000807706FB07F74FEAD737A7FB03687642ED
:1051C000A7FB06CEC8F5803838BFA8F1010807FB59
:1051D00008E6A6FB028C4FF0000EE6FB03CEDCF1E6
:1051E000000CCEF1004E38BFAEF1010EA6FB0C58FC
:1051F0004FF00007E6FB0E87A1FB08C6A0FB07CE19
:1052000016EB0E064FF0000545F10005E1FB0765C2
:1052100015F1E04E7EBFA4F580345FEA46066D418D
:1052200016F1800745F100054FEA172747EA0567A1
:105230004FEA15254FEA0666A6F1DE46B6F1805F15
:105240001FD9384605EBC47124F0010C01EB0C1199
:10525000BCF1FE6F02D8F0BCBDE8008124425CBF07
:1052600001F5801E9EEAC47F02D4F0BCBDE8008137
:10527000244238D4A1F1C041F0BCBDE8004100F0A7
:1052800016B94FEAD02040EA41504FEAD1214FEA07
:10529000D22242EA43524FEAD323A7FB028607FBFE
:1052A000036605FB02661EEA0E0F58BFA6EB00560A
:1052B000B6EB00564FEA520E4EEAC37E18EB0E0EC6
:1052C00056EB530EBDD518EB02085E417F1C55F11D
:1052D0000005B6E74FF480154FF000074FF00006C9
:1052E0004FF00008ADE701F1C04101F000414FF07F
:1052F0000000F0BCBDE800810CEA131511EA0C1F98
:1053000000D00CE013EA0C1F00F025804FF00000E5
:1053100081EA030101F00041F0BCBDE80081F0BC6E
:10532000BDE8004181EA030100F0C1B8F0BCBDE86E
:10533000004170B500F06DF8097EFC3E00F007B842
:105340004FF0000081EA030101F00041704781EA5B
:10535000030100F0ACB8F0BCBDE8004122494FF0B9
:1053600000007047FFFDFBF9F7F5F4F2F0EEEDEB0E
:10537000E9E8E6E4E3E1E0DEDDDBDAD8D7D5D4D353
:10538000D1D0CFCDCCCBCAC8C7C6C5C4C2C1C0BF9F
:10539000BEBDBCBBBAB9B8B7B6B5B4B3B2B1B0AFA5
:1053A000AEADACABAAA9A8A8A7A6A5A4A3A3A2A189
:1053B000A09F9F9E9D9C9C9B9A9999989797969544
:1053C00095949393929191908F8F8E8E8D8C8C8BE0
:1053D0008B8A898988888787868585848483838268
:1053E000828181800000FF070000F87FB0FA80F31F
:1053F00010FA03F10AD0C3F11D0303F580634FEAED
:1054000003524FEA415002EBD12170474FF00000A8
:1054100070470EF1020E2EF0030E5EF8046B36425A
:1054200005D4012A43EB030515F5001F12D8012806
:1054300041EB010C1CF5001F0CD80ED14FEAD17CBA
:105440000CEB4C0C0CF1020C15F5001F08BF4CEBDB
:10545000D37C04E04FF0080C01E04FEAD37C0CEB66
:105460004C0526FA05F606F00706B6F1040C06D23E
:105470000EEB860CBDE870404CF0010C6047DFE895
:105480000CF0090B02024FF00041A1F500214FF092
:10549000000070BD19461046012851EB010418BFE9
:1054A000D4F5001484BF002001F0004170BD08084D
:1054B000A0F500114FEA31017047FBF737BBFBF74E
:1054C0006BBC0000000000000000000030313233EF
:1054D0003435363738394142434445464030580028
:1054E000303132333435363738396162636465665A
:1054F00040307800040000080000000000000002B6
:10550000000100001030313233343536373839611C
:105510006263646566787000303132333435363713
:10552000383941424344454658500000024000008B
:10553000000000A00000000005400000000000C8BE
:10554000000000000C4000000000409C0000000033
:10555000194000000020BCBE0000000034400000E4
:10556000BFC91B8E00000004B5400000504BCFD0D7
:105570006607E2CF010000006C4100003E8251AAA4
:10558000DFEEA73401000000D9420000DCB5A0E244
:105590003A301F97FFFFFFFFB4450000FD25A0C86C
:1055A000E9A3C14FFFFFFFFFFF3F000000000080A5
:1055B00000000000FF3F000000000080000000002D
:1055C00000000000000000000102030406070809B3
:1055D00000000000010203044943313A252E3366DE
:1055E0000D0A004943323A252E33660D0A00484120
:1055F0004C5F54494D5F506572696F64456C6170D2
:1056000073656443616C6C6261636B0D0A00707753
:105610006D20737461727421210D0A0068570008AF
:105620000000002010000000280100087857000842
:1056300010000020E8070000440100081C000000E2
:1056400043000000F8FFFFFF0C0000000E00000008
:105650000F0000002E0000001001000043000000B9
:10566000F8FFFFFF00404040404040404040414183
:105670004141414040404040404040404040404027
:1056800040404040400502020202020202020202C1
:1056900002020202022020202020202020202002BE
:1056A000020202020202909090909090101010104E
:1056B00010101010101010101010101010101010EA
:1056C000020202020202888888888888080808087E
:1056D000080808080808080808080808080808084A
:1056E0000202020240000000000000000000000072
:1056F00000000000000000000000000000000000AA
:105700000000000000000000000000000000000099
:105710000000000000000000000000000000000089
:105720000000000000000000000000000000000079
:105730000000000000000000000000000000000069
:105740000000000000000000000000000000000059
:105750000000000000000000000000000000000049
:1057600000000000000000000024F4000100000020
:08577000100000000000000021
:04000005080000ED02
:00000001FF
