:020000040800F2
:10000000A007002089010008AF140008BD120008F5
:10001000AD140008B50200088918000800000000AF
:10002000000000000000000000000000B314000801
:10003000B702000800000000B1140008B514000861
:10004000A3010008A3010008A3010008A301000800
:10005000A3010008A3010008A3010008A3010008F0
:10006000A3010008A3010008A3010008A3010008E0
:10007000A3010008A3010008A3010008A3010008D0
:10008000A3010008A3010008A3010008A3010008C0
:10009000A3010008A3010008A3010008A3010008B0
:1000A000A3010008A3010008A3010008A3010008A0
:1000B00051150008A3010008A3010008A3010008CE
:1000C000A3010008A3010008A3010008A301000880
:1000D000A3010008A3010008A3010008A301000870
:1000E000A3010008A3010008A301000800F002F822
:1000F00000F03AF80AA090E8000C82448344AAF188
:100100000107DA4501D100F02FF8AFF2090EBAE885
:100110000F0013F0010F18BFFB1A43F0010318473B
:100120001418000034180000103A24BF78C878C1B1
:10013000FAD8520724BF30C830C144BF04680C60ED
:10014000704700000023002400250026103A28BF35
:1001500078C1FBD8520728BF30C148BF0B60704739
:100160001FB51FBD10B510BD00F071F81146FFF7A7
:10017000F7FF01F0A9FB00F08FF803B4FFF7F2FFDF
:1001800003BC01F095FB000009488047094800477F
:10019000FEE7FEE7FEE7FEE7FEE7FEE7FEE7FEE737
:1001A000FEE7FEE704480549054A064B7047000094
:1001B00005150008ED000008A0010020A0070020A0
:1001C000A0030020A00300207047000010B50446E3
:1001D00003E001F06FFB401C09D014F8010B054946
:1001E0000028F6D1BDE810400A2001F063BB4FF0B3
:1001F000FF3010BDC40000204FF0000200B51346D0
:1002000094469646203922BFA0E80C50A0E80C5036
:10021000B1F12001BFF4F7AF090728BFA0E80C50E7
:1002200048BF0CC05DF804EB890028BF40F8042BE0
:1002300008BF704748BF20F8022B11F0804F18BF4D
:1002400000F8012B7047704770477047704775463C
:1002500000F02CF8AE4605006946534620F0070032
:10026000854618B020B5FFF79DFFBDE820404FF050
:1002700000064FF000074FF000084FF0000BAC46AF
:10028000ACE8C009ACE8C009ACE8C009ACE8C009FA
:1002900021F007018D46704710B50446AFF300808A
:1002A0002046BDE81040FFF768BF000000487047D7
:1002B00010000020FEE77047704700002DE9FC4F5A
:1002C000594A04234FF0000B4FF001084FF00F0E76
:1002D0004FF000090025904208BF032300930A68ED
:1002E00032FA05F308BFBDE8FC8F08FA05F73A4279
:1002F00000F096804A68032A16D9112A24D0122ABF
:1003000026D04C4B9A4213D04B4B9A4210D04B4BB9
:100310009A420DD04A4B9A420AD04A4B9A4207D091
:10032000494B9A4204D020E0DFE802F00216191D82
:100330008A6832B1012A14BF476107614FF008098A
:1003400013E04FF0040910E0CA6802F104090CE060
:10035000CA6802F10C0908E0D1F80C9005E0CA68FF
:1003600002F1080901E04FF000095A460446082D41
:1003700028BF203A28BF043426680EFA02F309FA8F
:1003800002F226EA03031A432260CA79D20647D54D
:100390005D4A0BF00C0C1346126842F001021A6021
:1003A0001A680EFA0CF302F0010201921F4A019C36
:1003B000AC08A2F57E7656F8242022EA030A234AE6
:1003C000904208D0224A904207D0224A009B904295
:1003D00008BF022302E0002300E0012303FA0CF22D
:1003E00042EA0A0246F82420104E4A68D3033368D2
:1003F00054BFBB433B4333609303736854BFBB4359
:100400003B437360D302B36854BFBB433B43920288
:10041000B360074A1346126854BFBA433A431A609E
:100420000BF1040B01355AE70014014000040140B0
:100430000C040140000011100000121000002110F7
:1004400000002210000031100000321000080140AE
:10045000000C01400010014005480068704700BFD3
:100460001A48034900780A6810440860704700BFC2
:100470009801002080B59048016841F010010160AA
:10048000032000F071F8002000F004F800F020F8DC
:10049000002080BD70B50D4E04464FF47A7130785F
:1004A000B1FBF0F091490968B1FBF0F000F0E0FA1F
:1004B00001250F2C08D838B94FF0FF302146002213
:1004C000002500F033F87460284670BD000000205D
:1004D00082B00D480222016841F00101016001680B
:1004E00001F0010101910199416841F080514160A1
:1004F000406800F08050009000980448016862F362
:100500001A61016002B070471810024004000140F7
:10051000002808DB00F01F010122400902FA01F166
:10052000014A42F82010704700E100E080B5144B0A
:100530001B68C3F3022CBCF1030E8CF007034FF0D1
:10054000FF3C38BF4FF0000E042B28BF04230CFAE9
:1005500003F399430CFA0EF301FA0EF19A43114397
:10056000BDE8804001F092B905494FF6FF030A68E3
:100570001A4060F30A22034810430860704700BF26
:100580000CED00E00000FA052DE9F843002800F02A
:100590008E80884648490446086800F007004045B8
:1005A0000AD2086820F0070040EA080008600868DE
:1005B00000F0070040457AD120685C4B89468107EE
:1005C00011D5410742BF196841F4E0611960010784
:1005D00042BF196841F4605119601968A26821F09E
:1005E000F00111431960C0072AD06068012804D1C6
:1005F00053F8041C890309D459E053F8041C022859
:1006000002D1890102D452E0890750D519681D46EC
:1006100021F0030108431860FFF71EFF064641F270
:100620008837286861682B4600F00C00B0EB810F1A
:1006300006D0FFF711FF801BB842F2D9032037E044
:10064000D9F8000000F0070040450DD9D9F80000A6
:1006500020F0070040EA0800C9F80000D9F80000BF
:1006600000F00700404522D12068410705D51968F0
:10067000E26821F4E06111431960000706D51868AB
:10068000216920F4605040EAC10018601C4600F067
:1006900031F82168094AC1F30311515CC840F2499D
:1006A000086007480068FFF7F5FE002000E0012021
:1006B00001B0BDE8F08300BF002002401C19000813
:1006C00004000020E8481949094A00680968C1F394
:1006D0000221515CC8407047E3481449044A00684D
:1006E0000968C1F3C221515CC8407047080000206E
:1006F0002C19000810B50D4C0D48226802F00C03AF
:10070000082B18BF10BDC2F383430AA1CB5CD103F1
:1007100002D40D48584310BD21680AA25843C1F3C2
:100720004041515CB0FBF1F010BD00BF041002402D
:1007300000127A0002030405060708090A0B0C0DD3
:100740000E0F10100102000000093D002DE9FC41D0
:10075000002800F0408104460078C14EC0074AD00E
:10076000706800F00C00042817D0706800F00C00CE
:10077000082802D17068C0030FD4606898B1B0F542
:10078000803F06D03168B0F5A02F21D141F4802000
:100790003060306840F4803020E0306880032AD533
:1007A000606840BB17E1306820F48030306030680A
:1007B00020F480203060FFF74FFE0546306880034C
:1007C00019D5FFF749FE411B03206429F6D903E13F
:1007D00021F480303060306820F480203060FFF7F2
:1007E0003BFE05463068800305D4FFF735FE401B0D
:1007F0006428F7D9D1E0207880072BD5706810F0F5
:100800000C0F07D0706800F00C00082809D1706840
:10081000C00306D43068800715D52069012812D09E
:10082000D9E021698F4800297CD001210160FFF7C0
:1008300013FE05463068800705D4FFF70DFE401B08
:100840000228F7D9A9E03068616920F0F80040EA91
:10085000C1003060207800072ED5A06978B18148AA
:100860000121C0F88014FFF7F7FD0546706A800784
:1008700015D4FFF7F1FD401B0228F7D98DE0794828
:100880000021C0F88014FFF7E7FD0546706A800775
:1008900012D5FFF7E1FD401B0228F7D97DE0724831
:1008A0004FF4FA510068B0FBF1F0019000BF0198DD
:1008B000411E00280191F9D12078400776D5F069D2
:1008C000C0000BD4F0694FF0010840F08050F06197
:1008D000F06900F080500090009801E04FF00008AF
:1008E000624F3868C0050FD4386840F480703860B3
:1008F000FFF7B2FD05463868C00505D4FFF7ACFD2B
:10090000401B6428F7D948E0E068D8B1012805D039
:10091000316A05282DD141F004003062306A40F080
:1009200001002CE000210160FFF796FD05463068CC
:1009300080077FF58FAFFFF78FFD411B0320022952
:10094000F5D949E0306A20F001003062306A20F0C9
:1009500004003062FFF780FD054641F28837306AB7
:1009600080071CD5FFF778FD411B0320B942F6D95B
:1009700032E021F001003062306A20F00400306281
:10098000FFF76AFD054641F28837306A800706D4D2
:10099000FFF762FD401BB842F7D903201CE0B8F115
:1009A000000F1EBFF06920F08050F061E769002F52
:1009B00053D0706800F00C00082810D1012F0AD025
:1009C0007068216A00F480328A4204D1616A00F4BE
:1009D0007010884241D0012002B0BDE8F081214969
:1009E000002088460866FFF737FD0546022F0AD12A
:1009F00047463068800110D5FFF72EFD411B0320CC
:100A00000229F6D9E8E73068800126D5FFF724FDF2
:100A1000411B03200229F6D9DEE7206AB0F5803FAA
:100A200005D17168A26821F40031114371607168C9
:100A3000626A104321F47411084370600120386623
:100A4000FFF70AFD04463068800106D4FFF704FD75
:100A5000011B03200229F6D9BEE70020BCE700BF36
:100A600000100240000042420800002000700040D8
:100A7000411E0020B0EB116F1CBF01207047044ADB
:100A8000F023516003490B7007219060116070479B
:100A900010E000E023ED00E07047704790F83C2044
:100AA000012A01D102211FE0B0B501F10805D1E909
:100AB00000CE3CCDC96923F47C5322F470521A4312
:100AC0002EF4F0431A432CF4E0431A4324F4C043B9
:100AD0001A432A4322F480421143026851640021E0
:100AE00080F83C10BDE8B0400846704790F83C30B4
:100AF0000222012B19D080B580F83D20026853688E
:100B0000D2F808C023F0700ED1E9003143EA0E0399
:100B100053602CF08003194391600022012180F87A
:100B20003C2080F83D10BDE8804010467047B0B1D1
:100B300010B5044690F83D0028B9002084F83C0028
:100B4000204600F00FF80220211D84F83D002068A7
:100B500000F002FD012084F83D00002010BD0120BE
:100B60007047000000680849884218BF704781B08C
:100B7000C348016841F400610160006800F400604E
:100B80000090009801B07047002C014010B590F81B
:100B90003C2004460220012A08BF10BD84F83D0015
:100BA00001204FF6777284F83C00206884465CF898
:100BB000083F23EA0202CCF800200B682BB1102B6F
:100BC00003D0202B18BF302B0FD1DCF8000020F011
:100BD0007000184340F00700CCF80000002001210D
:100BE00084F83C0084F83D1010BD402B1AD0502BE7
:100BF00026D0602B32D0B3F5005F3DD0702BEDD105
:100C0000D1E90102C968104340EA0120DCF8001074
:100C100021F47F410843CCF80000DCF8000040F0EC
:100C20007700D9E74B68CA68194600F07FFDD4F811
:100C300000C05CF8080F40F0470020F03000CBE720
:100C40004B68CA68194600F071FDD4F800C05CF822
:100C5000080F40F0570020F02000BDE74B68CA683D
:100C6000194600F0A3FDD4F800C05CF8080F40F06E
:100C7000670020F01000AFE7D1E90102C968104316
:100C800040EA0120DCF8001021F47F410843CCF851
:100C90000000DCF8000040F480409DE710B5174CE0
:100CA000014604F11400814227D194F83010022942
:100CB00023D12188012909D0002918BF10BD0421A2
:100CC00000F076FA60600120208010BD042100F061
:100CD0006FFAA0606168884202D804D200F58030C3
:100CE000401AE06001E0FFF7E7FAFFF7EBFC0021B4
:100CF0002180E168B0FBF1F0206110BD70000020A0
:100D0000B0B50D4690F83C1004460220012908BFFA
:100D1000B0BD84F83D000120042A84F83C000AD0CC
:100D20009AB9D5E90012EB68206800F011FD20683F
:100D300050F8181F24E0D5E90012EB68206800F095
:100D400046FD206850F8181F37E0D5E900C3216838
:100D5000D5F80CE0082A086A17D120F480706EF3E9
:100D600007130862084650F81C2F22F0F3021A43BA
:100D70000B6A0260CCF3560262F349230B620168EE
:100D800021F00C010160A9681CE020F480504FF2B2
:100D9000FF020862180220EA0202084650F81C3FCF
:100DA0006EF30F3223F473431A430B6A0260CCF3E1
:100DB000520262F34D330B62016821F4406101601D
:100DC000A96809020268114301600020012184F82A
:100DD0003C0084F83D10B0BDB0B110B5044690F8A9
:100DE0003D0028B9002084F83C00204600F00EF8B1
:100DF0000220211D84F83D00206800F0ADFB012099
:100E000084F83D00002010BD0120704770B586B009
:100E10000026CDE90466CDE902660068B0F1804F96
:100E20002CD19D489B4C02AD416841F001014160CD
:100E3000416801F0010101910199016841F004014B
:100E400001602946006800F0040001900198CDE996
:100E50000366012002902046FFF730FA022029465F
:100E60000490CDE902062046FFF728FA1C20002155
:100E70000022FFF75BFB1C20FFF74AFB06B070BDAA
:100E80001810024010B504464FEAB100032808D8F4
:100E9000DFE800F002090E132068C26842F0020287
:100EA0000FE020680EE02068C26842F0040208E00B
:100EB0002068C26842F0080203E02068C26842F07D
:100EC0001002C260012200F06FFB2068816801F00F
:100ED000070106291EBF016841F0010101600020E1
:100EE00010BD10B5044600680169890744BFC16898
:100EF0005FEA817138D40169490744BFC1685FEA7C
:100F000041713DD40169090744BFC1685FEA0171BD
:100F100043D40169C90644BFC1685FEAC16148D4CE
:100F20000169C9071CBFC1685FEAC1714ED101697F
:100F3000090644BFC1685FEA01614FD401694906EF
:100F400044BFC1685FEA416150D40169890646BF68
:100F5000C1685FEA816110BD6FF020010161204628
:100F6000BDE81040FFF799BD6FF00201016101215A
:100F700021778069800741D02046FFF78FFE43E04C
:100F80006FF00401016102212177806910F4407F34
:100F90003ED02046FFF782FE40E06FF0080101617D
:100FA00004212177C06980073CD02046FFF776FEF8
:100FB0003EE06FF01001016108212177C06910F453
:100FC000407F39D02046FFF769FE3BE06FF001011A
:100FD0000161204600F0EAF82068A8E76FF0800180
:100FE00001612046FFF758FD2068A7E76FF0400138
:100FF0000161204600F0F3F82068A6E7204600F0E3
:101000004DF8204600F0B6F800202077206872E7FF
:10101000204600F043F8204600F0ACF8002020778E
:1010200020686FE7204600F039F8204600F0A2F86B
:101030000020207720686CE7204600F02FF820463B
:1010400000F098F800202077206869E7FEB5014697
:101050000020CDE90400CDE902000E48096800F542
:101060001052914213D1A6490A6842F004020A6064
:10107000096801F004010191019903210591022100
:1010800003914FF44071029102A9FFF717F906B0DE
:1010900080BD00BF000801401810024070470000EA
:1010A00070B50D4690F83C1004460220012908BF97
:1010B00070BD84F83D004FEAB2000126032884F891
:1010C0003C6036D8DFE800F0020A12222068294688
:1010D00000F07AFA206850F8181F0EE020682946C0
:1010E00000F09EFA206850F8181F16E02068294684
:1010F00000F0C6FA206850F81C1F41F0080101609A
:10110000016821F00401016029690FE02068294687
:1011100000F0E8FA206850F81C1F41F400610160FB
:10112000016821F4806101602969090202681143A4
:101130000160002084F83C0084F83D6070BDB0B1CF
:1011400010B5044690F83D0028B9002084F83C0012
:10115000204600F00EF80220211D84F83D00206892
:1011600000F0FAF9012084F83D00002010BD0120B4
:10117000704770477047000010B5044600680122B0
:1011800000F012FA20689949884203D14A6C42F46F
:1011900000424A64816801F0070106291EBF016808
:1011A00041F001010160002010BD00BF7047000048
:1011B0004FEAB101032984BF00207047DFE801F046
:1011C000020B05080068343007E000683C3004E09A
:1011D0000068403001E000683830006870477047B0
:1011E00050B310B5044690F8390028B9002084F8AF
:1011F0003800204600F022F8242084F839002068C6
:10120000C16821F40051C160204600F0FDFA206859
:10121000016921F490410161416921F02A01416194
:10122000C16841F40051C16000202021E06384F8CE
:10123000391084F83A1010BD0120704770B586B09F
:1012400000261B4CCDE90466CDE90266006804F572
:10125000305188422AD12A4802AD016841F48041C8
:101260000160016801F4804101910199016841F038
:10127000080101602946006800F00800019001980B
:101280000320059002200390402002902046FFF7A3
:1012900015F88020CDE90366294602902046FFF725
:1012A0000DF80448044A01681143016006B070BD9E
:1012B000000C01400400014004000007FEE70000AC
:1012C00083B00F48016841F020010160016801F01E
:1012D000200102910299016841F004010160016856
:1012E00001F0040101910199016841F008010160D8
:1012F000006800F008000090009803B0704700BF3D
:1013000018100240B0B596B0002409A81C21CDE900
:101310001444CDE91244CDE91044FEF76DFF01A855
:101320002021FEF769FF3048ED4D41F61F414FF097
:10133000800C42F20F721023C0E90051C0E9023262
:10134000C0E90444C0F818C0FFF7F1FB08B1FEF78C
:10135000B3FF4FF4805012A912902348FFF716FCF8
:1013600008B1FEF7A9FF2048FFF7E9FE08B1FEF734
:10137000A3FF1D48002410A9CDE91044FFF7B6FBD8
:1013800008B1FEF799FF0420CDE90E4409A9002217
:101390000D9041F28830CDE90B440A90602009900D
:1013A0001148FFF77DFE08B1FEF786FF0E4809A938
:1013B0000422FFF775FE08B1FEF77EFF01AC142191
:1013C0002046FEF719FF0020214608904FF40050F8
:1013D00006900548FFF762FB08B1FEF76DFF024873
:1013E000FFF734FE16B0B0BD18010020002C0140FC
:1013F000B0B586B01E4D00244FF080414722CDE9A4
:101400000444284640F8141F4FF47A718461C0E9FF
:101410000124C0E90314CDE90244CDE90044FFF7FB
:10142000DBFC08B1FEF748FFCDE9044405F11404E4
:1014300004A92046FFF75AFB08B1FEF73DFF002044
:1014400001210022CDE90200CDE9000169462046D4
:10145000FFF756FC08B1FEF72FFF6946204604222D
:10146000FFF74EFC08B1FEF727FF06B0B0BD00BF86
:101470007000002010B50B480B4C4FF4E1330021F5
:101480000C22C0E90043C0E90211C0E90412C0E91E
:101490000611FFF7A5FE002814BFBDE8104010BDDF
:1014A000FEF70ABF5801002000380140FEE77047F0
:1014B00070477047FEF7D4BFB0B590B000244FF42A
:1014C000E01002250121CDE90B44CDE909440F903C
:1014D0004FF480300E900D950A910894CDE90610D6
:1014E00006A8FFF733F94FF48060059402210490B9
:1014F0000F20CDE90254019001A8FFF745F810B084
:10150000B0BD00000E480F4A016841F001010160C2
:10151000416811400C4A4160016811400160016856
:1015200021F480210160416821F4FE0141604FF403
:101530001F01816005484FF000610160704700BFE6
:10154000001002400000FFF8FFFFF6FE08ED00E08B
:10155000ED48FFF7C6BC00BFB0B50368914DB0F1D0
:10156000804F07D08E4CA04204D0A84202D08E4CAF
:10157000A04207D14C6823F45C73CA6824F4407419
:10158000234313434A6923F08003A84242EA03023B
:1015900002608A68C2620A68826204BF09692963BC
:1015A00001214161B0BD00BF01F01F01012303FA19
:1015B00001FC036A02FA01F123EA0C030362026AE6
:1015C000114301627047000070B5026A22F0010207
:1015D0000262026AD0F804E0D0F818C08C680B6888
:1015E00022F0020222432CF0730444EA030C6D4BF8
:1015F00098420CD1CE68D1E905452EF4407322F013
:101600000C02234343EA050E26F004031A43C0F8F4
:1016100004E0C0F818C049684163026270BD00BFB1
:1016200070B5026A22F010020262026AD0F804E089
:10163000D0F818C08C680B6822F0200242EA04122D
:101640002CF4E64444EA032C564B98420FD1CE6862
:10165000D1E905452EF4406322F0C00243EA840339
:1016600043EA850E6FF0400303EA06131A43C0F8FD
:1016700004E0C0F818C049688163026270BD00BF11
:1016800070B5026A22F480720262026AD0F804E045
:10169000D0F81CC08C680B6822F4007242EA042265
:1016A0002CF0730444EA030C3E4B98420FD1CE68F1
:1016B000D1E905452EF4405322F4406243EA041375
:1016C00040F2FF4443EA051E3302A3431A43C0F825
:1016D00004E0C0F81CC04968C163026270BD00BF6D
:1016E000002C0140B0B5026A22F480520262026A04
:1016F000D0F804E0C5698B680C6822F4005242EA15
:10170000033C284B25F4E64242EA0422984204D1E5
:101710004B692EF4804545EA831EC0F804E0C2619F
:1017200049680164C0F820C0B0BD00BFD0F820C037
:10173000036A23F001030362836923F0F00343EAA1
:10174000021282612CF00A0211430162704700000C
:1017500010B5D0F820C0B0F1804F2CF0010CC0F8CB
:1017600020C0D0F818E0D0F820C008D00C4CA0421F
:1017700005D00C4CA04202D00B4CA0420CD12EF054
:101780000304224363F3071201F00A0182612CF083
:101790000A021144016210BD4EF00102F2E700BFDF
:1017A00000040040002C014000080040036A23F0C0
:1017B00010030362836923F4704343EA0232036A2D
:1017C000826123F0A00242EA011101627047D0F861
:1017D00020C001F00A012CF0100CC0F820C04FEA24
:1017E000022C4FF2FF022CEA020263F30F328369EC
:1017F00023F473431A43036A826123F0A00242EA8E
:10180000011101627047000010B5044600680169CB
:10181000E26821F44051114341F20C620161D4F8B5
:1018200008C0D4E904E3C16891434EEA0C021A43AC
:101830001143C1604169A26921F4407111434161C2
:101840002049884202D0FEF73DFF01E0FEF744FF49
:1018500019214843D4E900126FF063049200B0FBF1
:10186000F2F06422B0FBF2F303FB0400322404EB39
:101870000010B0FBF2F000F0F00200F00F0002EBFD
:1018800003121044886010BDFEE7000010B5074C3D
:1018900000F00F03044AB0F1FF3F2344C8BF831890
:1018A0000801187010BD00BF00E400E014ED00E076
:1018B0007047000003490A685206FCD5C2B24A606C
:1018C000704700BF00380140FEF7D4FDFFF7F4FD7C
:1018D000FFF7F6FCFFF716FDFFF78AFDFFF7CAFDDD
:1018E000084C00212046FFF747FC20460421FFF763
:1018F00043FC05480421FFF7C5FA04A0FEF766FC87
:10190000FEE700BF180100208400002070776D20E2
:10191000737461727421210D00000000000000004A
:10192000000000000102030406070809000000008F
:1019300001020304581900080000002010000000F4
:101940002801000868190008100000209007000016
:101950004401000800000000010000001000000029
:081960000024F4000000000067
:04000005080000ED02
:00000001FF
