:020000040800F2
:10000000500D002041020008DD5A0008ED5600089E
:10001000D95A00089932000815660008000000004F
:10002000000000000000000000000000A55B0008C8
:100030009D32000800000000615B0008055C0008BC
:100040005B0200085B0200085B0200085B0200081C
:100050005B0200085B0200085B0200085B0200080C
:100060005B0200085B0200085B0200085B020008FC
:100070005B0200085B0200085B0200085B020008EC
:100080005B0200085B0200085B0200085B020008DC
:100090005B0200085B0200085B0200085B020008CC
:1000A0005B020008E95C00085B0200085B020008D4
:1000B0005B0200085B0200085B0200085B020008AC
:1000C0005B0200085B0200085B0200085B0200089C
:1000D0005B020008056600085B0200085B0200087E
:1000E0005B0200085B0200085B02000800F002F8F7
:1000F00000F094F80AA090E8000C82448344AAF12E
:100100000107DA4501D100F089F8AFF2090EBAE82B
:100110000F0013F0010F18BFFB1A43F0010318473B
:1001200094800000B4800000103A24BF78C878C1E1
:10013000FAD8520724BF30C830C144BF04680C60ED
:10014000704700000023002400250026103A28BF35
:1001500078C1FBD8520728BF30C148BF0B60704739
:100160006E2900F07581702900F0AB82662907F0D6
:100170009586652907F09286672907F08F866129A1
:1001800007F08E8603681B0A28BF41F080016929A9
:1001900000F02281642900F01F81752900F01C8184
:1001A0006F2900F03982782900F07782E92900F080
:1001B000D381E42900F0D081F52900F0CD81EF2929
:1001C00000F03682F82900F076820368DB0928BF48
:1001D00041F08001632901F0C382732901F0C882D4
:1001E000E32901F0D382F32901F0D882002070477F
:1001F0001FB501F01FFE04000020002107F07AF86F
:10020000401C60600020002107F05EF8E0600FBC39
:1002100000F014F80FB41FBD10B510BD01F0DDFDE6
:100220001146FFF7E5FF06F0A5FA02F0B7F803B4B0
:10023000FFF7F2FF03BC06F05FFA000002F043BBD9
:100240000948804709480047FEE7FEE7FEE7FEE76A
:10025000FEE7FEE7FEE7FEE7FEE7FEE704480549A6
:10026000054A064B70470000895C0008ED00000855
:1002700050070020500D0020500900205009002098
:10028000704700000FB4044910B503AA029800F0AB
:10029000F3F810BC5DF814FBC40000200FB400B5E7
:1002A00089B00BA86A46009003480A9900F09AFCAE
:1002B00009B05DF814FB0000700000204FF0000250
:1002C00000B5134694469646203922BFA0E80C504C
:1002D000A0E80C50B1F12001BFF4F7AF090728BF27
:1002E000A0E80C5048BF0CC05DF804EB890028BFA3
:1002F00040F8042B08BF704748BF20F8022B11F0CC
:10030000804F18BF00F8012B704770477047704747
:10031000704770B5044685690068C10601D530266E
:1003200000E02026C00707D070BDD4E90121304687
:100330009047206A401C20626D1EF6D570BD70B5D6
:10034000044685690078C00707D170BDD4E9012152
:1003500020209047206A401C20626D1EF6D570BD9B
:1003600009684A0501D540B27047C905FCD500B2FD
:10037000704709684A0501D5C0B27047C905FCD568
:1003800080B2704770B50C460546012A05D0287822
:10039000800600D5EA69002302E0012305E05B1C2A
:1003A000934202D2E05C0028F9D1A869E618C01A8D
:1003B000A861286A184428622846FFF7AAFF04E0CB
:1003C000D5E9012114F8010B9047B442F8D328462F
:1003D000FFF7B5FF70BD00002DE9F041064600248F
:1003E00010687529314616A510D0FFF7B9FF00280F
:1003F00002DA404213A507E031688A0701D512A549
:1004000002E0490704D511A5012401E0FFF7B1FF7F
:1004100000210A2206F1240709E0B0FBF2FCB0FB40
:10042000F2F302FB1C00303078541846491C0028B7
:10043000F3D123462A463046BDE8F04100F089BD9D
:10044000000000002D0000002B0000002000000034
:1004500011680268006A530501D508700AE0D305E7
:1004600001D5088006E0130603D5C217C1E90002D2
:1004700000E0086001207047074B70B50D467B44D3
:1004800001F051F90446284601F05FFC10B14FF02D
:10049000FF3070BD204670BDBB6200002DE9FF5FDC
:1004A00015468A460446DFF8AC80F8440027D8E9B0
:1004B00000103E46CDE9001010E03AF816106A46EA
:1004C00002A801F066FC411C07D02178890603D5FB
:1004D000E269391891420DD80744761C20788006CD
:1004E00002D5E069B84205DDAE42E6DB3AF8160017
:1004F0000028E2D1A069C01BA0612046FFF709FFD8
:10050000D8E90010CDE90010002017E03AF81810E3
:100510006A4602A801F03DFCB0F1FF3F81460BD0D6
:1005200000250DF1080B05E0D4E901211BF80500B9
:1005300090476D1C4D45F7D308F10100B04280464D
:10054000E4DB206A384420622046FFF7F8FEBDE86D
:10055000FF9F0000F27A00002DE9F0418046D21D95
:1005600022F007020025D2E90002F52915A614D0D1
:10057000011E72F1000106DA0023D0EB030063EBE9
:10058000020211A608E0D8F800108B0701D50FA6CB
:1005900002E0490701D50EA601251146002408F105
:1005A000240704E000F090FC30323A55641C50EA15
:1005B0000102F7D12B46324621464046BDE8F041C4
:1005C00000F0C7BC000000002D0000002B00000060
:1005D0002000000030B4002100F1240408E002F003
:1005E0000705D208303542EA4372DB086554491CDE
:1005F00052EA0305F3D10468002310A2250708D5A9
:1006000004F020040C4304D0C46901230CA2641E2E
:10061000C46130BC00F09DBC10B504462146106892
:10062000FFF7A7FE02462046BDE810400023D1E7B1
:10063000D21D22F00701D1E90023CBE70000000022
:1006400030000000F0B40D460188090502D5214CA8
:100650007C4402E01F4C7C440E34002100F124064F
:1006600008E002F00F071209E75D42EA03721B0976
:100670007754491C52EA0307F3D10278002312078A
:1006800004D5702D06D009B1022311342246F0BCE6
:1006900000F05FBC01231034F8E770B504460D4646
:1006A00021461068FFF765FE024629462046BDE850
:1006B00070400023C6E7D21D22F00703D3E90023D0
:1006C000C0E70368126843F0200303600823C36196
:1006D0000023B7E7547900002DE9F05F894604460E
:1006E0004FF0000ADFF874B1FB44C0F820A02046A8
:1006F000E1688847002874D0252806D0D4E9012174
:100700009047206A401C2062F1E700265F462046A1
:10071000E16888472028054607DB312D05D2781986
:1007200010F8200C08B10643F1E7B00701D526F018
:100730000406C4F81CA00027C4F818A02A2D09D06C
:10074000284606F054FD38B304EB8708303DC8F85E
:10075000185019E059F8041B204604EB87029161F8
:10076000E1688847012F054618D1E069002820DAA2
:1007700026F020061DE0D8F8180000EB800005EBFD
:1007800040003038C8F818002046E1688847054620
:1007900006F02DFD0028EED1012F0AD02E2D08D114
:1007A0002046E16888477F1C0546022F46F0200658
:1007B000C4DBA069002803DA404246F00106A061CC
:1007C000F00701D026F010066C2D0BD0682D09D053
:1007D0004C2D39D06A2D35D0742D35D07A2D33D0AB
:1007E00016E038E0E1682F4620468847B8420546C3
:1007F00009D16C2F26D04FF48060E1680643204673
:100800008847054604E06C2F1AD04FF480700643E9
:100810000DB3A5F14100192802D8203546F4006631
:100820004A462946204626604E46FFF799FC80B18D
:1008300001280BD0F61D26F0070000F1080956E745
:100840004020E4E78020D8E70020D6E706F104093D
:100850004DE7284652E7206ABDE8F09FE4780000A3
:100860002DE9FF4F1C4691464FF0FF3581B0002126
:100870008A468846D4E90167A16902986D1C8847B9
:10088000216A834688470028F6D1BBF1FF3F0CD090
:10089000002F26F4C0661ADD700615D5BBF12B0FAC
:1008A0000AD0BBF12D0F0FD104E04FF0FF3005B09F
:1008B000BDE8F08F46F48066A16902986D1C8847F8
:1008C0007F1E8346002F02DDBBF1300F03D0B9F14C
:1008D000000F2AD025E0A1696D1C02987F1E46F406
:1008E00000768847002F834605DDBBF1780F06D0E0
:1008F000BBF1580F03D0B9F1000F10D011E0B9F1DE
:10090000000F02D0B9F1100F0BD1A1696D1C029834
:100910007F1E26F4007688478346102000E00820DA
:1009200081464FEAE970009017E00A20F8E7434655
:10093000AAFB0928DDF800C07F1E03FB098046F4EE
:10094000007605F101050AFB0C0112EB0B0A029877
:1009500041EBEB78A16988478346002F06DD4946C5
:10096000584600F01FFF5FEA000BE0D5E1690298EE
:100970008847B00502D46FF0010098E7F00718D15E
:10098000700610D55146700505D50023D1EB030143
:1009900063EB080200E042462068031D2360006804
:1009A000C0E9001205E02068011D21600068C0E96F
:1009B00000A828467BE72DE9FF5F1D464FF0FF3B6F
:1009C00091464FF000085F46D5E90146A9690198B4
:1009D0007F1C8847296A824688470028F6D1BAF1E9
:1009E000FF3F0CD0002E24F4C06419DD600614D53E
:1009F000BAF12B0F09D0BAF12D0F0ED103E05846F2
:100A000004B0BDE8F09F44F48064A96901987F1C9C
:100A10008847761E8246002E02DDBAF1300F03D0E1
:100A2000B9F1000F26D032E0A969761E01987F1C2B
:100A300044F400748847002E824605DDBAF1780F31
:100A400006D0BAF1580F03D0B9F1000F10D01EE054
:100A5000B9F1000F02D0B9F1100F18D1A969761EB3
:100A600001987F1C24F4007488478246102002E01D
:100A7000082000E00A20814609E0A96908FB09086E
:100A8000761E01987F1C44F4007488478246002E2D
:100A900005DD4946504600F085FE0028EDDAE9699B
:100AA00001988847A00502D46FF00100A8E7E0078D
:100AB00025D1600613D5600502D5C8F1000000E01D
:100AC000404629680A1D2A600968220501D5087078
:100AD00015E0220701D5088011E008600FE02868C2
:100AE000011D29600068210502D580F8008006E01C
:100AF000210702D5A0F8008001E0C0F80080384648
:100B00007EE72DE9FF5F4FF0000899461446464600
:100B10009169D2E901A7DDF838B001988847054608
:100B200059EA0B0005D009E0A1690198761C8847B5
:100B30000546216A284688470028F5D1681C03D05D
:100B40005FEACA7005D015E04FF0FF3004B0BDE891
:100B5000F09F2068011D2160D0F800800AE05FEA64
:100B6000CA7001D108F8015BA169761C01987F1E4B
:100B700088470546002F1ADD681C18D0B9F1000F10
:100B80000DD0E81705EBD060421120F01F0059F896
:100B900022102A1A012090400142E0D107E0BBF167
:100BA000000FDCD12846216A88470028D7D0E169A8
:100BB00001988847BBF1000F07D1002E05DD5FEAE1
:100BC000CA7002D1002188F80010A068B84203DD85
:100BD000BBF1000F03D017B16FF00100B6E730464C
:100BE000B4E70000034B7B449361034B7B44D36128
:100BF00001F068B8275B0000151100002DE9FF4FD8
:100C00004FF000089A461446C146464683B0D2E9E2
:100C100001B7CDF80080CDF8048091690498884729
:100C2000109905465AEA010005D009E0A169049827
:100C3000761C88470546216A284688470028F5D152
:100C4000681C03D05FEACB7005D02AE04FF0FF307C
:100C500007B0BDE8F08F2068011D2160D0F800804A
:100C60001FE002A86A46E9B201F073F8411C07D000
:100C7000801C09D04FF000095FEACB7007D00AE072
:100C8000E169049888473EE04FF0010904E0BDF8AF
:100C9000081028F8021B7F1EA1690498761C88475B
:100CA0000546002F1ADD681C18D0BAF1000F0DD0D0
:100CB000E81705EBD060421120F01F005AF822100F
:100CC0002A1A012090400142CBD107E01098002859
:100CD000C7D12846216A88470028C2D0E169049814
:100CE0008847B9F1000F0ED1109830B9002E04DDFD
:100CF0005FEACB7001D1A8F80000A068B84202DD1D
:100D0000109818B117B16FF00100A1E730469FE7C6
:100D10002DE9FF4F4FF000089B461446454683B02F
:100D2000D2E90196CDF80080CDF804809169DDF814
:100D300048A00498884707465BEA0A0005D009E006
:100D4000A16904986D1C88470746216A3846884780
:100D50000028F5D1781C03D05FEAC97005D01BE0EC
:100D60004FF0FF3007B0BDE8F08F2068011D216013
:100D7000D0F8008010E05FEAC97007D16A464046AB
:100D8000B9B201F006F8411C31D08044A1696D1C54
:100D90000498761E88470746002E14DD781C12D072
:100DA000BBF1000007D03B46DDE9101200F09AFFCE
:100DB0000028E0D107E0BAF1000FDCD13846216A03
:100DC00088470028D7D0E16904988847BAF1000F16
:100DD00006D1002D04DD5FEAC97001D188F800005A
:100DE000A068B04203DDBAF1000F03D016B16FF076
:100DF0000100B7E72846B5E72DE9FF5F9B4614469B
:100E000000273D469169D2E90196DDF840A001989E
:100E1000884780465BEA0A0005D009E0A16901988D
:100E20006D1C88478046216A404688470028F5D1D6
:100E3000B8F1FF3F03D05FEAC97005D014E04FF06E
:100E4000FF3004B0BDE8F09F2068011D21600768F5
:100E50000AE05FEAC97001D127F8028BA1696D1C15
:100E60000198761E88478046002E15DDB8F1FF3FB9
:100E700012D0BBF1000007D04346DDE90E1200F0AE
:100E800031FF0028E5D107E0BAF1000FE1D140467B
:100E9000216A88470028DCD0E16901988847BAF1C7
:100EA000000F05D1002D03DD5FEAC97000D1388045
:100EB000A068B04203DDBAF1000F03D016B16FF0A5
:100EC0000100BEE72846BCE730B5B0F10A0271F177
:100ED00000034FEA900E4EEA817EB0EB0E0061EB0C
:100EE00091014FEA101E4EEA017E10EB0E0041EB1D
:100EF00011114FEA102E4EEA016E10EB0E0041EB7D
:100F000011214FEA104E4EEA014E10EB0E0041EB5C
:100F10001141401841F100014FEAD00040EA417010
:100F20004FEAD1014FEA810444EA907410EB800546
:100F300044EB01046D1944EB0404521BA3414FF030
:100F4000000348BF0A3200D530BD401C41F100010A
:100F500030BD2DE9F0470D4699469246044600F112
:100F600024080168880604D5E06921F01001216099
:100F700000E00120A84201DD471B00E00027A16935
:100F80007A1902EB0900081AA0612078C00602D481
:100F90002046FFF7BEF9002608E0D4E901211AF83F
:100FA00006009047206A401C761C20624E45F4DB08
:100FB0002078C0060AD52046FFF7ABF906E0D4E951
:100FC000012130209047206A401C2062381EA7F182
:100FD0000107F4DC07E0D4E9012118F80500904787
:100FE000206A401C2062281EA5F10105F3DC204682
:100FF000FFF7A5F92078000602D50220BDE8F087AA
:101000000120FBE72DE9FF4F0C461E464FF0FF374E
:101010008BB0D2E90001DDF860800A908A46C1F306
:101020000A5505B93D46002108464FF00000BAF1C7
:10103000000F00F4400005DA00EB80004FF440019F
:1010400001EA50004FEA9059B9F1010F00DDB946AD
:101050000A9850EA4A000ED044F61050A5F2FF3527
:1010600045432F14B8F1000F1ED07542291E1EDD16
:10107000C9F100021CE0B8F1010F4FF0000001D0EF
:10108000302103E0F24305E02154401CB042FBDB79
:1010900030460022002121540B99C1F80880C1E993
:1010A00000200FB0BDE8F08FBD1B6D1CDEE74A4687
:1010B00000DA694206A801F0DBF806AB93E8070006
:1010C00003AB83E8070050460A9905F0C7FB8DE89B
:1010D0000700A0F500501F3800900398002D0ADD8E
:1010E00042F21F014A460844002303A903906846C0
:1010F00005F072FE09E0A0F500504A461F380023B3
:1011000003A90390684605F091FE8DE807000004EE
:10111000000C03D04FF0FF30410800E01046B8F15A
:10112000000F03D00022009215461EE0751E05D464
:10113000FFF7CAFE303262556D1EF9D5B346012263
:10114000084302D000227F1C04E02078302801D11F
:1011500000227F1E002A099784D01DE0112D07DA96
:10116000FFF7B2FE303262556D1C50EA0102F5D134
:10117000084302D00098C8B10EE00021681E05E0C7
:10118000235C625C63542254401E491C8142F7DB9D
:10119000AB46A81B401E0990002004F80B000B98DA
:1011A000099AC0F80880C0E9002B7AE711264FF0B1
:1011B000000857E72DE9F04F88460446D21D22F07B
:1011C000070191B0D1E90001CDE90A0105F07AFFEC
:1011D00002460B98C00F01D02D2007E02068810740
:1011E00001D52B2002E0202101EAC000032A09904A
:1011F00001D0072A05DB03464146204600F03EFEAB
:101200000BE12078800601D5E06900E00620B8F106
:10121000650F814606D0B8F1660F18D0B8F1670F98
:1012200070D131E00020B9F1110F009001DB1123E2
:1012300001E009F101030AAA01A90CA8FFF7E2FEE7
:10124000DDE90C70002609F10105834647E0012025
:101250004B4600904FF000470AAA01A90CA8FFF7DF
:10126000D1FEDDE90DB00C995D46002610B909F1FB
:1012700001000D18B9EB050003D4C0F1FF3609F1E8
:101280000105A5EB09002BE0B9F1010F01DA4FF0E0
:1012900001090020B9F1110F0090484601DD11232A
:1012A00000E003460AAA01A90CA8FFF7ABFEDDE99E
:1012B0000C704D4600268346207800070AD4AB45C3
:1012C00000DA5D4601A8012D04DD411911F8011C69
:1012D000302907D04F4502DA17F1040F04DA012054
:1012E00082460FE06D1EEEE7002F02DCED1B3E4450
:1012F00003E0781CA84200DD7D1CB81B00F1010A48
:101300004FF000472078000703D4AA4501DB4FF0D7
:10131000FF3A0021B7F1004F0DF143088DF843105B
:1013200024D002202B23002F01DA7F422D230A2113
:10133000021EA0F1010000DC5FB197FBF1FC97FBFE
:10134000F1F201FB1C7C17460CF1300C08F801CDC2
:10135000EEE7A8F1010003702188090501D54521B8
:1013600000E06521A0F1010800F8011C09980FA90F
:10137000A1EB0807FF1D00B10120411901EBEA7044
:10138000A1693844081A401EA0612078C00602D422
:101390002046FEF7BEFF099828B1D4E90121904705
:1013A000206A401C20622078C00622D52046FEF725
:1013B000B0FF1EE0002E04DBB34502DD01A8805D16
:1013C00000E03020D4E901219047206A401C2062CF
:1013D000761CAAF101005FEA000A0AD100F02AFD9A
:1013E000C0680168405CD4E901219047206A401C34
:1013F0002062281EA5F10105DCDC07E0D4E901210B
:1014000018F8010B9047206A401C2062381EA7F193
:101410000107F3DC2046FEF792FF032011B041E6FE
:101420002DE9F04F04460D46D21D22F0070089B089
:10143000D0E900974846394605F044FE0246F80FC9
:1014400001D02D2307E02068810701D52B2302E07E
:10145000202101EAC0038DF820300BB1012000E00B
:101460000020032A824601D0072A04DB29462046B1
:1014700000F004FD3FE12078800601D40D2500E056
:10148000E569C7F30A560D2D49DA00214FEA175BCB
:1014900008464FF00000002F00F4400007DA00EB90
:1014A00080004FF4400100EBD07001EA600081152C
:1014B000012901DD4FF0FF3100224FEA850CBCF11C
:1014C000180F06D31346ACF118004FF08052C240FB
:1014D00003E04FF4801323FA0CF30CF10C0CBCF175
:1014E000200F04D3ACF1200C09FA0CF001E007FA4C
:1014F0000CF000294FF0004801DD18B90FE00ED1C3
:1015000040450CD319EB02095F4121B9404502D196
:101510009F4329EA0209BBEB175F00D0761C2088A5
:10152000000502D57B48784402E07A4878441938AF
:1015300008AA302302F80A30037C0AF10101002EC8
:101540000AF1020A53546A4602DC4FF0300101E00E
:101550004FF031014FF001088DF8001002D0A6F2D3
:10156000FF3603E059EA470100D06B4E002D02DC44
:101570002178090704D54FF002082E218DF80110BB
:10158000C44600210BE0C7F303433F01C35C491C81
:101590006D1E02F80830052908F1010801DA002D56
:1015A000F1DC00210CE000EB1973491C1B786D1E67
:1015B000082902F808304FEA091908F1010801DA90
:1015C000002DF0DC21688B0602D516E0A8F1010899
:1015D000E04505DD02EB080313F8013C302BF5D0A4
:1015E000B8F1000F09DD02EB080313F8013C2E2BC4
:1015F00003D1090701D4A8F10108002D05DD3E2122
:1016000002F808106D1E08F10108407C002E02F857
:10161000080008F1010804DA2D20764202F80800DB
:1016200002E02B2002F808000A214FF47A7086426B
:1016300008F101080BDB96FBF0F3303302F80830B9
:1016400096FBF0F308F1010800FB136601E0642E3D
:101650000CDB642096FBF0F3303302F8083096FB85
:10166000F0F308F1010800FB136601E00A2E06DB27
:1016700096FBF1F0303002F8080008F1010896FB03
:10168000F1F001FB1060303002F80800A16908F1A8
:10169000010808EB050202EB0A00081AA061207895
:1016A000C00602D42046FEF734FE216A08AE01EBE4
:1016B0000A00206204E0D4E9012116F8010B9047EA
:1016C000BAF1010AF7D22078C00602D52046FEF70B
:1016D00020FE6E4609E016F8010B3E280FD0D4E933
:1016E00001219047206A401C2062B8F10108F2D223
:1016F0002046FEF724FE09B00320BDE8F08F206AE3
:101700002844206203E0D4E90121302090476D1E77
:10171000EBD3F8E7CA6A000002FCFFFF01694A1C2C
:1017200002610878704700B58FB0CDE90131002122
:10173000059105497944CDE9031011466846FEF745
:10174000CBFF0FB000BD0000E5FFFFFF10B5436900
:1017500013B1AFF3008001E0FEF714FE012010BDCD
:10176000127800F124010A7000224A700122EDE78C
:1017700011684FF0FF32E9E710B5436913B1AFF3D9
:10178000008001E0FEF78AFE012010BD128800F102
:10179000240182840022C2840122EDE711684FF007
:1017A000FF32E9E73A2800D2303820F02002412AFF
:1017B00001D3A2F13700884201D34FF0FF307047C8
:1017C0002DE9FF4F06468BB00878FF2806D0491C4C
:1017D0002D2805D000244FF0000908E000200CE07F
:1017E0000124F8E709EB8903491C00EB4309087859
:1017F000FF28F7D114B1C9F1000081461078002507
:101800002C46AA4629462D2801D02B2804D1521C4B
:101810002D2813D0002082468B461078FF280FD049
:101820004FF0000C0A21521CA5FB017804FB01813A
:1018300005FB0C11C5194BEB0104EEE70120EAE7AB
:10184000002108464FF00000BAF1000F02D000EB73
:1018500080004008C0F38157012F01DD4FF0FF37B2
:101860000E9955EA040009EB01080BD04FF002096C
:1018700018F5FA7F16DA4FEACA70002F706008DD9B
:10188000012007E04FEACA70C6E900B00FB0BDE81A
:10189000F08F0020306000F0D1FAC0F800901821DD
:1018A000084616E0B8F5FA7F18DD002F02DAF7488F
:1018B000784401E0F6487844D0E90010C6E9001009
:1018C00040EACA70706000F0B9FAC0F800901421C4
:1018D00008460FB0BDE8F04F06F0DDBA002108461B
:1018E0004FF00000B8F10001099002DAC7F10002E0
:1018F00000E03A4601DAC8F1000106A800F0B8FCA1
:1019000006AB93E8070003AB83E8070044F23E0010
:101910005BEA04010090584604D144F21E012C46B3
:101920005D460091210C0904014306D1009924046D
:1019300044EA15442D041039009104F07F4101431D
:1019400006D10099240244EA15642D020839009159
:1019500004F07041014306D10099240144EA157452
:101960002D01091F009104F04041014306D1009967
:10197000A40044EA9574AD00891E009104F0004172
:10198000084304D100986D196441401E00904FF047
:1019900001033A466846B8F1000FCDE9014503A9B5
:1019A00002DD05F058FA01E005F02BFABAF1000F5C
:1019B00004460D4601D084F00044002108464FF053
:1019C0000000099940F2FF77484010F00C0F07D152
:1019D00024F00040284303D0C4F30A50B84212D187
:1019E00000F02CFAC0F80090C4F30A50B8420AD1B3
:1019F000A8487844D0E90010C6E9001004F000417E
:101A00000843706042E7C6E900543FE72DE9FF4F05
:101A10001F464FF0000A4FF0FF38454691B0D7E916
:101A20000146CDF83CA000F005FAC0680168405CB2
:101A30001090B96912986D1C8847396A81468847A9
:101A40000028F6D1B9F1FF3F0AD0002E24F4D0646B
:101A500011DDB9F12B0F08D0B9F12D0F0BD102E038
:101A6000404615B013E744F48064B96912986D1CC0
:101A70008847761E8146600504A901D52D2000E027
:101A80002B20002E01F1010B0DF130088DF8100014
:101A90003FDDB9F1690F08D0B9F1490F05D0B9F1AF
:101AA0006E0F02D0B9F14E0F1CD13B4601A8009534
:101AB00080E85002DDE912126FF0020006F056FADB
:101AC000C11CCED10EE0B96912986D1C88478146C1
:101AD0001398761E44F4007405600F98401C002E85
:101AE0000F9016DDB9F1300FEDD0B9F1780F02D0BB
:101AF000B9F1580F0DD10F9801280AD13B46CDE915
:101B00000054DDE91212001F029606F02DFAC11CE6
:101B1000A7D1109989453ED144F0800406E013997D
:101B2000681CAAF1010A44F400740860B9696D1CCC
:101B30001298761E884730288146F0D02BE0109905
:101B4000894505D1200603D4761E44F0800418E0B0
:101B5000484605F04CFB08B3761E0DF12302934571
:101B6000A9F1300044F4007406D20BF8010B2006F2
:101B700007D5AAF1010003E0200602D40AF1010012
:101B80008246A00502D51399681C0860B9691298AD
:101B90006D1C88478146002ED1DC53E0002E51DDBC
:101BA000B9F1650F02D0B9F1450F4BD1A00549D568
:101BB000B9696D1C1298761E24F440748847002E73
:101BC00081460CDD2B2804D0B9F12D0F07D144F448
:101BD0008074B96912986D1C8847761E8146E005AD
:101BE00001D52D2100E02B2108F8011BCDF8008044
:101BF00021E0761E0DF13901884544F400740CD2C1
:101C0000A9F1300010F0FF0088F8000002D100991F
:101C1000884509D908F1010806E0E00501D51E480C
:101C200001E042F20F708246B96912986D1C884734
:101C3000814613980560002E04DD484605F0D7FA6A
:101C40000028D6D1F96912988847FF2053468BF8AF
:101C5000000088F8000000200A900B9004AA0CA94C
:101C60000AA8FFF7ADFDA00502D46FF00100F8E669
:101C700014F0240F12D0E0071CD13868DDE90A12F5
:101C8000031D3B600068C0E9001213E028690000F2
:101C90001A690000DE670000F1D8FFFF0AA9684654
:101CA00005F034FAE00705D13868009A011D396063
:101CB000006802602846D4E6026811441378016087
:101CC00018467047D1600549794451610449794407
:101CD000116200211161114600F010B9EDFFFFFF04
:101CE0009901000010B508E030F8024B9C4204D185
:101CF0000AB1002010BD012010BD491EF4D21046CB
:101D000010BD704710B54FF0FF34C1688A020FD57F
:101D1000036B42689A420BD1014690F82520104689
:101D200000F018FB401C01D1204610BD002010BD62
:101D300011F0C00FF8D1026941689142F4D90268EC
:101D4000491E521CC0E90021F0E7007B00F0800032
:101D50007047F8B516460C46054600F063F8036870
:101D600093F80101012804D0185D78B101202C807E
:101D7000F8BDD3F803013246214603F20313C71816
:101D800068460023B84700992980F8BD4FF0FF301E
:101D9000F8BD2DE9F04116460C46054600F042F824
:101DA000036893F80101012807D0FF2C12D8185DB1
:101DB00080B101202C70BDE8F081D3F807013246D4
:101DC000214603F20713C7182846BC46BDE8F04178
:101DD000002360474FF0FF30EDE7754600F0E8FA6A
:101DE000AE4605006946534620F00700854618B008
:101DF00020B5FEF733FABDE820404FF000064FF063
:101E000000074FF000084FF0000BAC46ACE8C009EB
:101E1000ACE8C009ACE8C009ACE8C00921F0070192
:101E20008D46704710B500F005F8001D10BD00BFCD
:101E3000C55400000048704730000020004870473B
:101E400010000020B2F120030AD5C2F1200301FAEC
:101E500002F120FA03F341EA030100FA02F07047AD
:101E600000FA03F14FF00000704710B50446FFF789
:101E7000D9FF0068005D00F0010010BD2DE9F041C0
:101E80001F46044603260168072A01F4006004DBAC
:101E900008B116A505E016A503E008B115A500E0F8
:101EA00015A521F010002060A069C01EA0610FB12F
:101EB000401EA0612046FEF72CFA4FB1D4E9012163
:101EC00038469047206A401C2062C01C206206E011
:101ED000206AFAE7D4E9012115F8010B9047761E34
:101EE000F8D22046FEF72BFABDE8F0814E414E00B5
:101EF0006E616E00494E4600696E66002DE9F34F33
:101F00004FF0000A0C4656468DB001200C9001F1AE
:101F10000C000B9062690B9801219047051E2DD093
:101F2000252D2CD0216A8847C0B162690B98012108
:101F30009047216A88470028F7D16269411E0B98B3
:101F4000904700E0761CA1690D988847216A884770
:101F50000028F7D1E1690D988847DBE7A1690D9862
:101F60008847A842074601D1761CD3E7E1690D985E
:101F700088477F1C02D1BAF1000F6FD06BE1626914
:101F80000B9800273D46394690472A2804D16269BC
:101F90000B98012190470125DFF8D08262690B98E8
:101FA00001219047A0F130010A290AD24745E5DC1A
:101FB00007EB870100EB4107303FDFD445F0100508
:101FC000ECE7E90601D46FF000476C280AD04C28F2
:101FD00014D0682815D06A280DD074281CD07A280F
:101FE0001AD01DE062690B98012190476C2802D03D
:101FF00045F0040514E045F002050DE045F020052C
:102000000AE062690B9801219047682802D045F0E8
:10201000080505E045F4006562690B9801219047C9
:10202000C4E9015765283DD019DC58287AD00CDC6A
:10203000452837D004DC252826D041289ED131E020
:1020400046282FD0472899D12CE05B2877D06128EB
:1020500028D063287CD0642823D15AE0F6E06F288A
:1020600048D008DC66281DD067281BD0692821D0FD
:102070006E2816D127E0702845D0732868D07528BF
:1020800047D078280DD14DE0A1690D9888472528C3
:1020900005463FF469AFE1690D9888476D1C3FF430
:1020A0006AAFD8E00D9923466A466FF0010005F04B
:1020B00059FFC5E045F0400023464FF00002606044
:1020C000A80736D43EE0E8077FF447AF2068011D3B
:1020D00021600068290501D506701BE7290701D595
:1020E000068017E7A90703D5F117C0E9006111E7DA
:1020F00006600FE745F0400023464FF0080260609D
:10210000A80716D41EE040F60E0125EA0100606023
:1021100016E045F0400023464FF00A026060A80731
:1021200007D40FE045F040006060A80708D52346BB
:1021300010220D996FF00100FEF792FB80E007E09E
:10214000102223460D996FF00100FEF734FC77E072
:102150004FF0000963284F46C8464B46CB4602D095
:102160005B2806D038E0E80601D40120A0600127F2
:1021700032E06269D4F80CB00B98012190475E28D8
:1021800007D14FF0010949466269D4F80CB00B98A9
:102190009047216939B900210A4603AB43F8212051
:1021A000491C0829FADBD8B3216949B308F10108B1
:1021B00062690B98012190475D28F4D1B9F1000FB5
:1021C00009D0002003A951F82020D24341F8202053
:1021D000401C0828F7DB03AB2069002820794FEA70
:1021E00040701ED05B462246CDF80080CDE90197B5
:1021F0000D9900286FF0010020DAFEF7FDFD1FE0C9
:10220000C11703AA00EBD1614B1121F01F0102EBB2
:102210008302411A13680120884003431360C7E713
:1022200019E00D99224600286FF00100009702DAAC
:10223000FEF7E4FC04E0FEF764FC01E0FEF768FD55
:1022400000280ADA401C06D10C9820B14FF0FF306C
:102250000FB0BDE8F08F5046FAE7E90701D10AF167
:10226000010A064400200C9054E60000CCCCCC0CB3
:102270002DE9F047814616468AB0354878440DC8A6
:102280008DE80D0032487844801C03AC0DC884E80A
:102290000D0041F69B300844372190FBF1F290FB92
:1022A000F1F5A5F1800501FB12041B3C02D5644247
:1022B000012000E00020DFF898A080460027FA44C3
:1022C000AAF1BE0A0EE0E0070AD03246684607EBE4
:1022D000470101230AEB810104F0A8FD8DE8070006
:1022E00064107F1C002CEED1194F7F44AE3F19E0E3
:1022F000E80715D007EB04100DF1180A90E80E005E
:102300008AE80E00C068F04201D198190890324660
:10231000012306A903A804F089FD03AB83E80700A5
:102320006D10641C002DE3D14FF001033246694665
:10233000B8F1000F03A802D004F04EFD01E004F054
:1023400075FDC9E90001C9F808200AB0BDE8F087A9
:10235000045E0000CA68431C0FD00D4B1A420CD11A
:10236000D3070AD081F825004B680B6300238B60EC
:1023700012F0C06F0B6003D004E04FF0FF307047E5
:1023800042F00072034B1A40034B1A43CA60704775
:1023900080200800BFFFDFFF0010480010B5044692
:1023A000AFF300802046BDE81040FDF740BF0000BD
:1023B000004870471000002010B5FFF73FFD00688F
:1023C00010BD10B50446FFF739FD046010BD0000D4
:1023D0002DE9FF4F1F464FF03C0987B04FF00042F8
:1023E000DDE9141001F10108DDF858A002EA4050BF
:1023F0000390002005908346054604460490B96981
:10240000461E08988847AAF1010A0290BAF1000F07
:102410003BDD02982E2815D01021FFF7C3F90028C4
:102420002EDB4FF0010B0599014317D0B9F1000FD6
:102430000BDB4A46C117FFF705FD05430C43A9F125
:10244000040905E0012004900BE008B145F0010506
:1024500001200590049820B9361D02E0049800B1CF
:10246000361FB969089808F101088847BBF1000FC9
:10247000AAF1010A0290C9D00999C1F80080C5E704
:102480000298702808D0502806D0F9690898884723
:10249000BBF1000F14D04FE0002002900120BBF1EF
:1024A000000F049009D0B969089808F1010888471D
:1024B000AAF10109B9F1000F07DCF969089888470A
:1024C0006FF001000BB0BDE8F08F2B2804D02D2851
:1024D0000CD14FF0FF300490B969089808F1010859
:1024E0008847A9F10109B9F1000FE6DD411CE4D0EC
:1024F0000A21FFF757F90028DFDB029908F10108EC
:1025000001EB810100EB41000290B969089888470E
:102510000A21FFF747F9099AA9F10109B9F1000F5A
:10252000C2F8008001DD0028E7DAF96908988847D9
:102530000499029800FB016655EA040004D004F0F7
:102540004041090002D006E0039898E0A40044EA64
:102550009574AD00B61E04F00041080002D16D195B
:102560006441761E159810F0240F03D04FF00B092C
:102570005C4803E04FF028096FF07D008246564525
:1025800007DAAAEB06018944B9F1410F01DD4FF0EA
:10259000410901200021A9F10102FFF753FC024685
:1025A00028400B462140084301D0012100E00021D2
:1025B000501E029143F1FF3128402140084301D0D1
:1025C000012000E000200299834651EA0B014FD020
:1025D000002108464FF00000039900F4400039B193
:1025E00000EB80004FF4400100EBD07001EA600086
:1025F0008015012802DD4FF0FF3000E013D0401CB1
:1026000036D0029860B3BBF1000F0CD14A460120CE
:102610000021FFF717FC28402140084301D001208A
:1026200000E00020E0B101204A460021FFF70AFC4B
:10263000034640190A4661412D1A8C4111D3B9F164
:10264000400F09DD159810F0240F02D0AAF13406CE
:1026500003E0AAF1170600E0761C00254FF00044C5
:1026600006E05B1E42F1FF3220EA030521EA020484
:10267000CAF10100B04206DA1B49039808430190F1
:10268000002000900EE0039AC4F3D321E80A0A4325
:10269000164940EA44500A433146CDE900026846F3
:1026A00004F09AFD159810F0240F0BD01598C00770
:1026B00015D13868DDE90012031D3B600068C0E9F0
:1026C00000120CE002A8694604F020FD1598C0072E
:1026D00005D13868029A011D3960006802604046E1
:1026E000F0E6000002FCFFFF0000F07F0000F03F7A
:1026F0002DE9FF4F92461D4685B04FF00041DDE9C0
:10270000124BDDE914727F1E01EA4B50414940F043
:10271000FF4940EA0108002122F0200049280491E5
:1027200002D04E2828D04CE03BA0012607C88DE8F7
:102730000700A9690698641C88477F1E014606D4D5
:102740001DF8060018B121F0200181420BD0E96983
:1027500006988847032E34D0082E32D06FF001003F
:1027600009B0BDE8F08F761C032E01D0082EE0D111
:10277000601CCAF80000DCE7A9690698641C884759
:102780007F1E2AD420F02000412826D1A96906986E
:10279000641C88477F1E20D420F020004E281CD1C6
:1027A000A9690698641C88477F1E48F4002849F4EC
:1027B0008009CAF8004001D4282806D0E9690698A3
:1027C00088475FEACB7012D022E0A9690698641CA2
:1027D00088477F1E01D4002803DAE96906988847F4
:1027E000BCE72928F1D1641CCAF80040E9E71BF0D6
:1027F000240F07D028680499031D2B600068C0E9E6
:10280000001805E02868021D2A600068C0F80090E2
:102810002046A5E70000F07F494E46494E495459ED
:10282000000000004FF0013C50F8042B51F8043B2D
:102830009A4221D1A2EB0C03934313EACC1317D194
:1028400050F8042B51F8043B9A4215D1A2EB0C032B
:10285000934313EACC130BD150F8042B51F8043BEB
:102860009A4209D1A2EB0C03934313EACC13DBD0B9
:102870004FF00000704700BFD01A01BAB1FA81F1E1
:1028800001F0180122FA01F0CB40DBB2C0B2C01A4D
:10289000C1F120012CFA01F3D11A914311EAC311BD
:1028A000E6D170470246C91C21F00301D2E90003BA
:1028B0001B1A8B4201D2002070470144C91D21F030
:1028C0000701116070472DE9F34F83B000274FF4E3
:1028D0008074BA4603A821468DF80070FFF7E2FF26
:1028E0005FEA000801D100F076F82146404603F087
:1028F000FDFE060009D04FF0010B4546C14616F813
:10290000014B8FB15C2C16D01CE008F10800414649
:10291000C8F800000020C8F80400D8F80040207073
:10292000012005B0BDE8F08F222C01D0272C0FD15B
:102930002746BA462CE03078222807D05C2805D0FC
:10294000272803D0BC4203D1002721E0761C04468F
:102950004CB12FB9202C06D0A4F10900042802D9CB
:1029600005F8014BCBE74D4502D1BAF1000F0FD06E
:1029700052464946002005F8010B6846AFF3008037
:102980009DF8000070B14D464FF0000A0BF1010BAD
:10299000002CB4D14FEA8B0103A8FFF783FF04009A
:1029A00002D004E0A946EFE7002000F014F8002070
:1029B0004246C4F8008005E012F8011B11B9401C22
:1029C00044F82020AA42F7D3002144F820102146E1
:1029D000A7E77047704710B500F00AF8BDE810404F
:1029E000AFF30080002801D003F086BE70470000DE
:1029F00010B5012805D0002103A000F021F8012026
:102A000010BD09A1F8E7000053494752544D454D08
:102A10003A204F7574206F662068656170206D657F
:102A20006D6F7279000000003A2048656170206D7A
:102A3000656D6F727920636F727275707465640072
:102A400070B505460C460A2000E06D1C03F05AFEE6
:102A500035B128780028F8D102E0641C03F052FE5A
:102A600014B120780028F8D1BDE870400A2003F0A6
:102A700049BE000080B582B040F25060C2F2000052
:102A800040F21D51C2F20001012202F0EFFC019060
:102A900002B080BD80B58AB00020099008900790F0
:102AA000069048F28611C0F6000108AA06AB059010
:102AB000084611461A46FDF7F1FB089A099B06994C
:102AC000DDF81CE0EC46CCF804E0CCF8001048F24D
:102AD0006B11C0F6000104900846FDF7D3FB089A7D
:102AE000099B05990390084600F0EAF8069A079BAF
:102AF000012000F0E5F80AB080BD000080B588B084
:102B000001468DF81F000020059004909DF81F00DD
:102B100002460028039102922FD0FFE70298012875
:102B200055D1FFE740F23C50C2F2000000784FF070
:102B3000FF3101EB400040F23851C2F20001096858
:102B4000484304F0CCFE4FF0000E0023C3F6F073B0
:102B50007246CDF804E004F0D1FC0023C4F259031E
:102B6000019A04F04BFF46F20003C4F29803019A65
:102B700004F0C4FC059104902CE040F24C50C2F2E9
:102B8000000000780121A1EB400040F24851C2F260
:102B900000010968484304F0A2FE4FF0000E002334
:102BA000C3F6F0737246CDF800E004F0A7FC0023F2
:102BB000C4F25903009A04F021FF46F20003C4F264
:102BC0009803009A04F09AFC0591049002E000F04A
:102BD00067FBFFE70498059908B080BD80B584B015
:102BE00040F2D050C2F200003C21039101F0B8FE47
:102BF00040F21061C2F2000102900846039901F010
:102C0000AFFE40F25051C2F200010190084601F0BF
:102C1000AFFC009004B080BD80B586B00020059068
:102C2000FFF76CFF4FF0004E42F2FB12C4F20902B4
:102C300004927246049BCDF80CE004F0DFFE002203
:102C4000C4F21A02059B02921A46029B04F0D6FEB9
:102C500040F23072C2F20002516010600120019215
:102C6000FFF74CFF039A049B04F0C8FE059A029BF1
:102C700004F0C4FE019AD1609060106851689268B7
:102C8000019BDB6804F07EFB4FF08043059A04F063
:102C900035FC019A5161106112680198436880689F
:102CA0000199C96804F0DEFF0023C4F22803059AE5
:102CB00004F024FC019AD161906106B080BD00004F
:102CC00010B588B01946944686468DF81F000593C6
:102CD00004920498059A00230024C4F24E04039140
:102CE00011461A462346CDF808C0CDF804E005F099
:102CF000BFF8002807D1FFE70020C4F24E0005907E
:102D00000020049012E00498059900220023CCF2E0
:102D10004E0305F0A6F8002807D1FFE70020CCF20B
:102D20004E00059000200490FFE7FFE79DF81F008C
:102D3000002809D1FFE7049A059B40F29060C2F297
:102D4000000000F073F911E09DF81F00012809D17F
:102D5000FFE7049A059B40F2D860C2F2000000F041
:102D600065F902E000F09CFAFFE7FFE708B010BD4C
:102D70002DE9F04F93B0FFF74FFF40F2307EC2F2E3
:102D8000000EDEF80020DEF8043040F29060C2F25F
:102D900000001290CDF844E000F034F911988268F8
:102DA000C36840F2D86EC2F2000E7046CDF840E023
:102DB00000F028F9129800F04DF940F22052C2F2CA
:102DC00000025160106010980F9200F043F940F239
:102DD0002852C2F200025160106040F22070C2F22C
:102DE000000001680E9008460D9204F078FD0F9ADD
:102DF00012680F9B5B6804F0C5FA04F013FD0E998E
:102E0000086040F22470C2F2000002680C90104684
:102E100004F065FD0D9A12680D9B5B6804F0B2FA30
:102E200004F000FD0C9908600E9802680B68DDF84C
:102E300048E0DEF830C0DEF83440DEF83850DEF826
:102E40003C60109FD7F83080D7F83490D7F838A07E
:102E5000D7F83CB068460362C0F81CB0C0F818A0B0
:102E6000C0F81490C0F8108082604660056048F297
:102E70009110C0F6000062462346FDF703FA0E9952
:102E80000A68B2F1FF3F0B9025DCFFE740F22070AB
:102E9000C2F2000000684DF6EF01CFF6FF718842E4
:102EA0000ADCFFE740F22070C2F200004DF6F001AC
:102EB000CFF6FF710160FFE740F22070C2F2000020
:102EC0000068414200200A9000F05CF904200A9951
:102ED00000F058F91FE040F22070C2F200000068D4
:102EE00042F21171884208DBFFE740F22070C2F223
:102EF000000042F210710160FFE740F22070C2F260
:102F000000000168042000F03DF9002009900999B3
:102F100000F038F9FFE740F22470C2F200000068C8
:102F2000B0F1FF3F24DCFFE740F22470C2F2000062
:102F300000684DF6EF01CFF6FF7188420ADCFFE72B
:102F400040F22470C2F200004DF6F001CFF6FF719E
:102F50000160FFE740F22470C2F2000000684142C5
:102F6000082000F00FF90C20002100F00BF91EE002
:102F700040F22470C2F20000006842F211718842EF
:102F800008DBFFE740F22470C2F2000042F2107149
:102F90000160FFE740F22470C2F2000001680C20DB
:102FA00000F0F0F80820002100F0ECF8FFE713B083
:102FB000BDE8F08FF0B58BB01399DDF848C0DDF8AF
:102FC00044E0109C1D46164607460A900993089255
:102FD000CDF81CE006940591CDF810C00898099929
:102FE0000A9A51601060069807990A9AD160906019
:102FF000049805990A9A5161106103950296019708
:103000000BB0F0BD80B588B019469446864607904F
:10301000059304920498059A079B5A6318630391D9
:10302000CDF808C0CDF804E008B080BD80B588B008
:103030001946944686460790059304920498059A8B
:10304000079BDA6398630391CDF808C0CDF804E0DC
:1030500008B080BD10B59CB001461B901B98026A59
:10306000436AC36282621B988269C36943620262D7
:103070001B98026B436BD0F838C0D0F83CE013903B
:1030800060461291714604F0EDFD139AD161906192
:103090001B988169C369026A406A11900846194603
:1030A000119B04F0DFFD199118901B988169C2698A
:1030B000036AD0F824C0109018460F9161460E9212
:1030C0001A46634604F05EF90F9A0D9010460E9B67
:1030D0000C9119460D9A0C9B04F0C4FD109A926A4B
:1030E000109BDB6A04F04EF9179116901B98189A02
:1030F000199B0168D0F804C0D0F808E0C4680B90B0
:1031000008466146CDF828E0099404F077FC0B9A54
:1031100092690B9BDB69DDF828C008906046DDF8FA
:1031200024E00791714604F069FC089A0690104665
:10313000079B05911946069A059B04F023F90B9A03
:103140001369D2F814C0169ADDF85CE004901846B2
:1031500003916146734604F051FC049A02901046B4
:10316000039B01911946029A019B04F00BF91591FA
:103170001490149815991B9A516410641498159919
:103180001CB010BD80B58EB00A4603460D900C9160
:1031900000200B900A9009900890079006900590E7
:1031A0000C9842F2117188420492039304D3FFE712
:1031B00042F210700C90FFE70C9800097C2803D8AD
:1031C000FFE700200C90FFE7602005900C98069028
:1031D00000200790042009900D9A40F29050C2F20E
:1031E000000005A9029001F089FD0D99029A019055
:1031F000104601F073FE00900EB080BD80B590B017
:103200000A4603460F908DF83B1000200D900C905D
:103210000B900A900990089007909DF83B00652854
:103220000592049301DBFFE734E09DF83B0004F0D6
:1032300056FB4FF0000E48F60003C4F2C30372467B
:10324000CDF80CE004F0DAFB0023C4F25903039A32
:1032500004F054F904F016FBADF81A006020079052
:10326000BDF81A0008900398099004210B910F9A59
:1032700040F29051C2F2000107AB08460291194694
:1032800001F03CFD0F99029A0190104601F026FED4
:103290000090FFE710B080BDFFE7FEE77047000039
:1032A0007047000080B588B00146079000208DF877
:1032B0001B00079890F821000228059107D0FFE72E
:1032C00007980421816301208DF81B0077E007989F
:1032D0000068016821F00E0101600798006801682C
:1032E00021F001010160079800680821C4F2020181
:1032F000884203D1FFE70120049047E00798006867
:103300001C21C4F20201884203D1FFE71020039080
:1033100039E0079800683021C4F20201884204D1E4
:10332000FFE74FF4807002902AE00798006844217C
:10333000C4F20201884204D1FFE74FF480500190AB
:103340001BE0079800685821C4F20201884204D1AA
:10335000FFE74FF4803000900CE0079800686C2184
:10336000C4F202014FF08072884208BF4FF480120D
:103370000092FFE700980190FFE701980290FFE7B5
:1033800002980390FFE703980490FFE70498042154
:10339000C4F2020108600798012180F82110FFE7BC
:1033A0000798002180F82010FFE70798406B00285D
:1033B00004D0FFE70798416B8847FFE7FFE79DF8D8
:1033C0001B0008B080BD000080B584B001460390AA
:1033D000009100F0DFF9029003980190019801300C
:1033E000002809D0FFE740F20400C2F20000007894
:1033F000019908440190FFE7FFE700F0CBF9DDF801
:1034000008E0A0EB0E00DDF804E0704501D2FFE714
:10341000F3E704B080BD000093B00A460346129063
:103420001191002010900C9008920793FFE71198DB
:1034300000681099C840002800F08881FFE71098C4
:10344000012101FA00F00F90119800680F990840CF
:103450000E900E980F99884240F07481FFE7119802
:1034600040680028069051D0FFE7069801283AD01E
:10347000FFE7069802283FD0FFE70698032860D0B0
:10348000FFE70698112832D0FFE70698122838D0B7
:10349000FFE70020C1F211000699814236D0FFE714
:1034A0000020C1F21200069981422FD0FFE70020D0
:1034B000C1F221000699814228D0FFE70020C1F225
:1034C00022000699814221D0FFE70020C1F231009D
:1034D000069981421AD0FFE70020C1F23200069916
:1034E000814213D030E01198C0680C902DE0119803
:1034F000C06804300C9028E01198C06808300C9027
:1035000023E01198C0680C300C901EE01198806880
:10351000002803D1FFE704200C9011E01198806887
:10352000012806D1FFE708200C900F981299086136
:1035300005E008200C900F9812994861FFE7FFE71B
:1035400003E000200C9000E0FFE70E98FF2803D86E
:10355000FFE71298059003E0129804300590FFE70A
:1035600005980B900E98FF2804D8FFE7109880006C
:10357000049006E010986FF01F0101EB80000490AA
:10358000FFE704980A900B9800680A990F228A4076
:1035900090430C9A02FA01F108430B9908601198C4
:1035A0004068C000002840F1CC80FFE7FFE741F20F
:1035B0001800C4F20200016841F0010101600068D6
:1035C00000F00100099009980390FFE7109820F09F
:1035D00003000821C4F2010140580D90109800F03A
:1035E000030080000F2101FA00F00D9921EA00008C
:1035F0000D90129840F60001C4F20101884203D1F7
:10360000FFE70020029026E0129840F60041C4F245
:103610000101884203D1FFE70120019018E01298D0
:1036200041F20001C4F20101884203D1FFE7022008
:1036300000900AE0129841F20041C4F20101042214
:10364000884208BF03220092FFE700980190FFE73D
:1036500001980290FFE70298109901F00301890098
:1036600088400D9908430D900D98109921F00301A1
:103670000822C4F20102885011984068C003002853
:1036800009D5FFE70E9840F20041C4F201010A6833
:103690001043086009E00E9840F20041C4F20101B5
:1036A0000A6822EA00000860FFE71198406880037A
:1036B000002809D5FFE70E9840F20441C4F2010149
:1036C0000A681043086009E00E9840F20441C4F211
:1036D00001010A6822EA00000860FFE711984068CB
:1036E000C002002809D5FFE70E9840F20841C4F255
:1036F00001010A681043086009E00E9840F2084191
:10370000C4F201010A6822EA00000860FFE711988C
:1037100040688002002809D5FFE70E9840F20C416E
:10372000C4F201010A681043086009E00E9840F2F3
:103730000C41C4F201010A6822EA00000860FFE7B8
:10374000FFE7FFE710980130109070E613B0704764
:1037500080B585B013468C4686460490ADF80E10B1
:103760008DF80D209DF80D0000280293CDF804C0BF
:10377000CDF800E005D0FFE7BDF80E000499086120
:1037800005E0BDF80E00000404990861FFE705B0EC
:1037900080BD000040F22870C2F20000006870474F
:1037A00040F20400C2F20000007840F22871C2F238
:1037B00000010A68104408607047000080B582B0BC
:1037C00042F20000C4F20200016841F01001016001
:1037D000032000F0ADF80020019000F007F8009001
:1037E00000F040F8019802B080BD000080B584B0C0
:1037F0000146029040F20000C2F20000006840F270
:103800000402C2F2000212784FF47A73B3FBF2F2B0
:10381000B0FBF2F0019100F0CFFD002804D0FFE7EB
:1038200001208DF80F0018E002980F280DD8FFE74F
:1038300002994FF0FF30002200F054F8029840F255
:103840000801C2F20001086003E001208DF80F00BA
:1038500003E000208DF80F00FFE79DF80F0004B093
:1038600080BD000085B0FFE741F21800C4F20200FD
:10387000016841F001010160006800F0010004905E
:1038800004980190FFE7FFE741F21C00C4F2020038
:10389000016841F080510160006800F080500390A1
:1038A00003980090FFE7FFE70420C4F201000168DD
:1038B0000291029921F0E0610291029941F00071B8
:1038C000029102990160FFE705B0704780B582B0B0
:1038D00001468DF807009DF90700009102F09CFE5B
:1038E00002B080BD80B58AB013468C4686468DF8FE
:1038F000270008910792002006900593CDF810C08C
:10390000CDF80CE002F0A4FE06909DF92700069980
:10391000089A079B0290084611461A4602F0E0F802
:10392000029901900846019902F09AFE0AB080BD02
:1039300080B582B0014601900198009102F0B6FE78
:1039400002B080BD80B588B00A4603460690059156
:10395000069800280392029304D1FFE701208DF816
:103960001F0022E1059842F20001C4F20201096839
:1039700001F00701884216D9FFE742F20000C4F2C5
:103980000200016821F00701059A114301600068F7
:1039900000F007000599884204D0FFE701208DF868
:1039A0001F0002E1FFE706980068800700282AD57B
:1039B000FFE7069800684007002809D5FFE741F2B5
:1039C0000400C4F20200016841F4E0610160FFE715
:1039D000069800680007002809D5FFE741F20400B7
:1039E000C4F20200016841F460510160FFE741F256
:1039F0000400C4F20200016821F0F001069A926806
:103A000011430160FFE706980068C007002862D0F4
:103A1000FFE70698406801280ED1FFE741F2000059
:103A2000C4F2020000688003002804D4FFE70120EC
:103A30008DF81F00B9E021E00698406802280ED1F9
:103A4000FFE741F20000C4F2020000688001002894
:103A500004D4FFE701208DF81F00A6E00DE041F23D
:103A60000000C4F2020000688007002804D4FFE7C9
:103A700001208DF81F0098E0FFE7FFE741F2040006
:103A8000C4F20200016821F00301069A5268114352
:103A90000160FFF77FFE0490FFE741F20400C4F2EB
:103AA0000200006800F00C0006994968B0EB810F35
:103AB00010D0FFE7FFF76EFEDDF810E0A0EB0E0080
:103AC00041F2893E704504D3FFE703208DF81F00C3
:103AD0006BE0E2E7FFE7059842F20001C4F2020161
:103AE000096801F00701884216D2FFE742F20000A0
:103AF000C4F20200016821F00701059A1143016038
:103B0000006800F007000599884204D0FFE7012013
:103B10008DF81F0049E0FFE706980068400700287D
:103B20000CD5FFE741F20400C4F20200016821F461
:103B3000E061069AD26811430160FFE706980068C9
:103B4000000700280DD5FFE741F20400C4F202008F
:103B5000016821F46051069A126941EAC2010160CC
:103B6000FFE700F055F841F2040EC4F2020EDEF851
:103B700000E05FFA8EFE4FEA1E1E48F29C01C0F67E
:103B8000000111F80E10C84040F20001C2F200011D
:103B9000086040F20800C2F200000068FFF726FE4D
:103BA00000218DF81F100190FFE79DF81F0008B05D
:103BB00080BD000040F20000C2F2000000687047C3
:103BC00080B5FFF7F7FF41F2040EC4F2020EDEF8F3
:103BD00000E0CEF3022E48F2AC01C0F6000111F86D
:103BE0000E10C84080BD000080B5FFF7E3FF41F232
:103BF000040EC4F2020EDEF800E0CEF3C22E48F24C
:103C0000AC01C0F6000111F80E10C84080BD0000E4
:103C10008BB040F60E70C1F210000A9040F60A30E8
:103C2000C0F60C50099040F20670C0F608100890DB
:103C300040F20230C0F20450079040F20120ADF88B
:103C40001A0000200590049003900290019041F228
:103C50000400C4F2020000680590059800F00C0012
:103C60000146002800913DD0FFE70098042804D0C9
:103C7000FFE70098082806D035E041F20020C0F2A6
:103C80007A00019035E00598C0F3834007A9085CED
:103C900002909DF81600C007002818D0FFE741F2F7
:103CA0000400C4F20200006800F400300DF11A01B3
:103CB00041EA504000780490029841F20021C0F29D
:103CC0007A0148430499B0FBF1F0039007E00298B1
:103CD00040F60011C0F23D0148430390FFE703980E
:103CE000019006E0FFE741F20020C0F27A00019067
:103CF000FFE701980BB0704780B588B00146069089
:103D000006980028019104D1FFE701208DF81F00DB
:103D10004EE306980068C007002800F0B580FFE772
:103D200041F20400C4F20200006800F00C00042814
:103D300013D0FFE741F20400C4F20200006800F073
:103D40000C0008281CD1FFE741F20400C4F2020075
:103D50000068C003002813D5FFE741F20000C4F259
:103D6000020000688003002809D5FFE70698406834
:103D7000002804D1FFE701208DF81F0018E382E03E
:103D8000FFE706984068B0F5803F09D1FFE741F2B0
:103D90000000C4F20200016841F48031016033E0A8
:103DA0000698406800280DD1FFE741F20000C4F2F8
:103DB0000200016821F480310160016821F4802152
:103DC000016020E006984068B0F5A02F0DD1FFE714
:103DD00041F20000C4F20200016841F48021016058
:103DE000016841F4803101600CE041F20000C4F24E
:103DF0000200016821F480310160016821F4802112
:103E00000160FFE7FFE7FFE7FFE70698406800284B
:103E10001CD0FFE7FFF7BEFC0590FFE741F2000072
:103E2000C4F202000068800300280ED4FFE7FFF709
:103E3000B1FCDDF814E0A0EB0E00652804D3FFE729
:103E400003208DF81F00B3E2E8E71BE0FFF7A2FCB8
:103E50000590FFE741F20000C4F202000068800311
:103E600000280ED5FFE7FFF795FCDDF814E0A0EB86
:103E70000E00652804D3FFE703208DF81F0097E2AA
:103E8000E8E7FFE7FFE7FFE70698006880070028FC
:103E900040F19280FFE741F20400C4F202000068A2
:103EA00010F00C0F13D0FFE741F20400C4F202003F
:103EB000006800F00C00082829D1FFE741F2040057
:103EC000C4F202000068C003002820D4FFE741F2DA
:103ED0000000C4F2020000688007002809D5FFE74F
:103EE00006980069012804D0FFE701208DF81F0023
:103EF0005EE241F20000C4F20200016821F0F80124
:103F0000069A526941EAC2010160FFE753E0069850
:103F1000006900282DD0FFE70020C4F242200121D3
:103F20000160FFF737FC0590FFE741F20000C4F2A3
:103F300002000068800700280ED4FFE7FFF72AFC84
:103F4000DDF814E0A0EB0E00032804D3FFE7032004
:103F50008DF81F002CE2E8E741F20000C4F20200F5
:103F6000016821F0F801069A526941EAC201016034
:103F700020E00020C4F2422000210160FFF70AFC8B
:103F80000590FFE741F20000C4F2020000688007DC
:103F900000280ED5FFE7FFF7FDFBDDF814E0A0EBEE
:103FA0000E00032804D3FFE703208DF81F00FFE174
:103FB000E8E7FFE7FFE7FFE706980068000700284B
:103FC0004DD5FFE706988069002825D0FFE740F22D
:103FD0008040C4F2422001210160FFF7DBFB059025
:103FE000FFE741F22400C4F20200006880070028C5
:103FF0000ED4FFE7FFF7CEFBDDF814E0A0EB0E00D8
:10400000032804D3FFE703208DF81F00D0E1E8E781
:10401000012001F0A7FD21E040F28040C4F24220DF
:1040200000210160FFF7B6FB0590FFE741F2240095
:10403000C4F202000068800700280ED5FFE7FFF7F2
:10404000A9FBDDF814E0A0EB0E00032804D3FFE782
:1040500003208DF81F00ABE1E8E7FFE7FFE70698D4
:1040600000684007002840F1E180FFE700208DF85C
:104070000F0041F21C00C4F202000068C0000028DA
:1040800014D4FFE7FFE741F21C00C4F2020001680C
:1040900041F080510160006800F080500290029869
:1040A0000090FFE701208DF80F00FFE747F20000C6
:1040B000C4F200000068C005002824D4FFE747F2DE
:1040C0000000C4F20000016841F480710160FFF754
:1040D00061FB0590FFE747F20000C4F200000068B2
:1040E000C00500280ED4FFE7FFF754FBDDF814E00D
:1040F000A0EB0E00652804D3FFE703208DF81F0016
:1041000056E1E8E7FFE7FFE70698C068012809D114
:10411000FFE741F22000C4F20200016841F0010112
:10412000016032E00698C06800280DD1FFE741F237
:104130002000C4F20200016821F001010160016861
:1041400021F0040101601FE00698C06805280DD128
:10415000FFE741F22000C4F20200016841F00401CF
:104160000160016841F0010101600CE041F22000B2
:10417000C4F20200016821F001010160016821F030
:1041800004010160FFE7FFE7FFE7FFE70698C0686B
:1041900000281ED0FFE7FFF7FDFA0590FFE741F288
:1041A0002000C4F2020000688007002810D4FFE756
:1041B000FFF7F0FADDF814E0A0EB0E0041F2893EC3
:1041C000704504D3FFE703208DF81F00F0E0E6E719
:1041D0001DE0FFF7DFFA0590FFE741F22000C4F28F
:1041E000020000688007002810D5FFE7FFF7D2FA29
:1041F000DDF814E0A0EB0E0041F2893E704504D3D7
:10420000FFE703208DF81F00D2E0E6E7FFE79DF807
:104210000F00012809D1FFE741F21C00C4F202009F
:10422000016821F080510160FFE7FFE70698C0694F
:10423000002800F0B980FFE741F20400C4F2020058
:10424000006800F00C00082800F08880FFE706985E
:10425000C069022860D1FFE76020C4F2422000213B
:104260000160FFF797FA0590FFE741F20000C4F202
:1042700002000068800100280ED5FFE7FFF78AFAE8
:10428000DDF814E0A0EB0E00032804D3FFE70320C1
:104290008DF81F008CE0E8E70698006AB0F5803FD3
:1042A0000CD1FFE741F20400C4F20200016821F4DE
:1042B0000031069A926811430160FFE741F2040061
:1042C000C4F20200016821F47411069A136A526A5A
:1042D0001A43114301606020C4F2422001210160B1
:1042E000FFF758FA0590FFE741F20000C4F2020020
:1042F0000068800100280ED4FFE7FFF74BFADDF8D5
:1043000014E0A0EB0E00032804D3FFE703208DF890
:104310001F004DE0E8E720E06020C4F242200021C9
:104320000160FFF737FA0590FFE741F20000C4F2A1
:1043300002000068800100280ED5FFE7FFF72AFA87
:10434000DDF814E0A0EB0E00032804D3FFE7032000
:104350008DF81F002CE0E8E7FFE724E00698C0692D
:10436000012804D1FFE701208DF81F0020E041F271
:104370000400C4F2020000680490049800F4803045
:104380000699096A884208D1FFE7049800F4701082
:104390000699496A884204D0FFE701208DF81F0082
:1043A00006E0FFE7FFE7FFE700208DF81F00FFE7CB
:1043B0009DF81F0008B080BD80B582B00146019015
:1043C0000198009101F0F0FB02B080BD82B001467F
:1043D0000190009102B0704782B0014601900091B7
:1043E00002B0704787B00A460346059004910192D7
:1043F0000093FFE7059890F83C00012804D1FFE7FF
:1044000002208DF81B0039E00598012180F83C104E
:10441000FFE7FFE70598022180F83D100598006846
:10442000406803900598006880680290039820F027
:104430007000039004980068039908430390029861
:1044400020F080000290049840680299084302908E
:104450000398059909684860029805990968886079
:104460000598012180F83D10FFE70598002180F8AC
:104470003C10FFE700208DF81B00FFE79DF81B00B4
:1044800007B0704780B584B00146029002980028BA
:10449000019104D1FFE701208DF80F0021E002987F
:1044A00090F83D00002808D1FFE70298002180F82D
:1044B0003C10029800F01AF8FFE70298022180F8F9
:1044C0003D10029850F8041B00900846009901F036
:1044D00013FC0298012180F83D1000208DF80F0098
:1044E000FFE79DF80F0004B080BD000080B588B0E4
:1044F000014607900798006842F60042C4F20102A4
:10450000904204911AD1FFE7FFE741F21800C4F28C
:104510000200016841F400610160006800F400607D
:10452000069006980390FFE71920012100220290CF
:10453000FFF7D8F90298FFF7C9F917E00798006864
:10454000B0F1804F11D1FFE7FFE741F21C00C4F248
:104550000200016841F001010160006800F0010003
:10456000059005980190FFE7FFE7FFE708B080BDE1
:1045700083B00146029002980068C26842F00102CE
:10458000C26002980068806800F0070001900198FE
:104590000628009107D0FFE702980068016841F003
:1045A00001010160FFE7002003B0704780B58CB0C7
:1045B0000A4603460A90099107920693FFE70A9874
:1045C00090F83C00012804D1FFE702208DF82F006D
:1045D000B7E00A98012180F83C10FFE7FFE70A984E
:1045E000022180F83D100A980068806808900898B9
:1045F00020F077000890089820F47F4008900898F1
:104600000A9909688860099800680028059000F0F8
:104610008280FFE7059810287DD0FFE705982028C5
:1046200079D0FFE70598302875D0FFE70598402836
:1046300061D0FFE7059850283DD0FFE70598602836
:1046400049D0FFE7059870280BD0FFE70598B0F533
:10465000805F05D0FFE70598B0F5005F19D061E0F5
:1046600061E00A98006809994A688B68C9680491F2
:104670001946049B01F0E2FB0A98006880680890E4
:10468000089840F07700089008980A9909688860AF
:1046900049E00A98006809994A688B68C9680391DB
:1046A0001946039B01F0CAFB0A980068816841F42F
:1046B0008041816037E00A98006809994A68C968B2
:1046C00002911146029A01F095FD0A980068502166
:1046D00001F0DAFB27E00A98006809994A68C9687E
:1046E00001911146019A01F0B7FD0A980068602116
:1046F00001F0CAFB17E00A98006809994A68C9687E
:1047000000911146009A01F075FD0A980068402159
:1047100001F0BAFB07E00A9800680999096801F0FE
:10472000B3FB00E0FFE70A98012180F83D10FFE7A6
:104730000A98002180F83C10FFE700208DF82F0038
:10474000FFE79DF82F000CB080BD000080B58AB057
:104750000A4603460890079108980028039202939E
:1047600004D1FFE701208DF8270079E0089890F840
:104770003D00002808D1FFE70898002180F83C1090
:10478000089800F071F8FFE70898022180F83D10C2
:1047900008980068816844F2070291438160089894
:1047A00050F8041B01900846019901F0A5FA0898F9
:1047B00000688068069008980068806905900898ED
:1047C0000068006A049007980068069908430690FC
:1047D000059840F203318843059007988168806905
:1047E00041EA0020059908430590059840F60C41E0
:1047F0008843059005984FF2F0018843059007988B
:10480000C168C06941EA00200599084305900798EE
:104810000169006A090141EA0030059908430590E1
:10482000049820F02200049007984168406941EA0A
:104830000010049908430490069808990968886054
:1048400005980899096888610498089909680862B8
:104850000898012180F83D1000208DF82700FFE71F
:104860009DF827000AB080BD80B58EB001460D903E
:1048700000200C900B900A9009900D98006840F26F
:104880000042C4F20002904204912ED1FFE7FFE7FC
:1048900041F21C00C4F20200016841F00201016013
:1048A000006800F00200089008980390FFE7FFE717
:1048B00041F21800C4F20200016841F004010160F5
:1048C000006800F00400079007980290FFE7C020FE
:1048D000099000200A9001200B9040F60000C4F2DD
:1048E000010009A9FEF798FD37E00D98006840F631
:1048F0000001C4F2000188422ED1FFE7FFE741F238
:104900001C00C4F20200016841F00401016000686B
:1049100000F00400069006980190FFE7FFE741F2DF
:104920001800C4F20200016841F00801016000684B
:1049300000F00800059005980090FFE7C02009905E
:1049400000200A9001200B9040F60040C4F20100C4
:1049500009A9FEF761FDFFE7FFE70EB080BD00008B
:1049600080B586B00A460346059004910498002855
:1049700003920293019004D0FFE7019804280DD020
:1049800019E0059800680021012201F031FA05982C
:104990000068C16841F00201C16026E00598006826
:1049A0000421012201F024FA05980068C16841F051
:1049B0000401C16019E005980068002101220092FD
:1049C00001F016FA059800680421009A01F010FA27
:1049D00005980068C16841F00201C160059800684F
:1049E000C16841F00401C160FFE7059800680168F3
:1049F00041F001010160002006B080BD82B0014697
:104A00000190009102B0704780B582B001460190DC
:104A100001980068006900F002000022B2EB500F1C
:104A2000009129D0FFE701980068C06800F00200FB
:104A30000021B1EB500F1ED0FFE7019800686FF026
:104A400002010161019801210177019800688069E4
:104A50008007002804D0FFE70198FFF7CFFF06E0AA
:104A6000019800F045F9019800F032FAFFE701984B
:104A700000210177FFE7FFE701980068006900F077
:104A800004000021B1EB900F29D0FFE701980068E6
:104A9000C06800F004000021B1EB900F1ED0FFE7CA
:104AA000019800686FF0040101610198022101770B
:104AB00001980068806910F4407F04D0FFE70198F6
:104AC000FFF79CFF06E0019800F012F9019800F052
:104AD000FFF9FFE7019800210177FFE7FFE7019861
:104AE0000068006900F008000021B1EBD00F29D068
:104AF000FFE701980068C06800F008000021B1EBF2
:104B0000D00F1ED0FFE7019800686FF00801016127
:104B100001980421017701980068C0698007002886
:104B200004D0FFE70198FFF769FF06E0019800F065
:104B3000DFF8019800F0CCF9FFE701980021017738
:104B4000FFE7FFE701980068006900F0100000210E
:104B5000B1EB101F29D0FFE701980068C06800F092
:104B600010000021B1EB101F1ED0FFE70198006874
:104B70006FF0100101610198082101770198006828
:104B8000C06910F4407F04D0FFE70198FFF736FFBB
:104B900006E0019800F0ACF8019800F099F9FFE701
:104BA000019800210177FFE7FFE70198006800699D
:104BB000C007002811D0FFE701980068C068C0074F
:104BC000002809D0FFE7019800686FF0010101613A
:104BD000019800F0B7F9FFE7FFE701980068006966
:104BE000C0B20021B1EBD01F13D0FFE701980068DD
:104BF000C068C0B20021B1EBD01F09D0FFE7019817
:104C000000686FF0800101610198FFF7DFFBFFE7AB
:104C1000FFE701980068006900F040000021B1EB57
:104C2000901F14D0FFE701980068C06800F04000B2
:104C30000021B1EB901F09D0FFE7019800686FF0E9
:104C400040010161019800F045FAFFE7FFE7019894
:104C50000068006900F020000021B1EB501F14D063
:104C6000FFE701980068C06800F020000021B1EB68
:104C7000501F09D0FFE7019800686FF02001016123
:104C80000198FFF7A9FBFFE7FFE702B080BD000036
:104C900080B588B0014607900020069005900490EA
:104CA000039007980068B0F1804F01911ED1FFE793
:104CB000FFE741F21800C4F20200016841F004016C
:104CC0000160006800F00400029002980090FFE785
:104CD0000F200390022004900320069040F600006D
:104CE000C4F2010003A9FEF797FBFFE708B080BDFF
:104CF00082B001460190009102B0704780B588B043
:104D000013468C4686460690059104920393CDF88F
:104D100008C0CDF804E0FFE7069890F83C000128B1
:104D200004D1FFE702208DF81F0093E006980121CF
:104D300080F83C10FFE7FFE70698022180F83D105D
:104D400004980C28009000F276800099DFE801F0CA
:104D500007737373227373733D73737358000698EC
:104D60000068059901F0AAF806980068816941F089
:104D70000801816106980068816921F00401816160
:104D80000598006906990968D1F818E040EA0E0014
:104D9000886151E006980068059901F0FBF80698D3
:104DA0000068816941F40061816106980068816949
:104DB00021F4806181610598006906990968D1F83C
:104DC00018E04EEA0020886136E0069800680599F0
:104DD00001F050F906980068C16941F00801C1610D
:104DE00006980068C16921F00401C1610598006955
:104DF00006990968D1F81CE040EA0E00C8611BE082
:104E000006980068059901F0A5F906980068C1693F
:104E100041F40061C16106980068C16921F48061B4
:104E2000C1610598006906990968D1F81CE04EEA4D
:104E30000020C86100E0FFE70698012180F83D10DE
:104E4000FFE70698002180F83C10FFE700208DF86E
:104E50001F00FFE79DF81F0008B080BD80B584B03B
:104E60000146029002980028019104D1FFE7012039
:104E70008DF80F0021E0029890F83D00002808D13D
:104E8000FFE70298002180F83C10029800F01AF821
:104E9000FFE70298022180F83D10029850F8041BA9
:104EA00000900846009900F027FF0298012180F841
:104EB0003D1000208DF80F00FFE79DF80F0004B0B3
:104EC00080BD000082B001460190009102B07047A1
:104ED00082B001460190009102B0704780B586B063
:104EE0000A460346059004910598006804994FF01E
:104EF000010C02926246019300F07AFF0598006867
:104F000042F60041C4F20101884207D1FFE705984B
:104F10000068416C41F400414164FFE70598006876
:104F2000806800F0070003900398062807D0FFE789
:104F300005980068016841F001010160FFE7002069
:104F400006B080BD10B582B001460190019840F2D4
:104F50005052C2F200029042009140F0B980FFE747
:104F600040F2D050C2F2000001680968C1F300119C
:104F7000002200291146C8BF012140F23C53C2F271
:104F80000003197040F21061C2F20001D1F800C0B4
:104F9000DCF800C0CCF3001CBCF1000FC8BF01223C
:104FA00040F24C5CC2F2000C8CF8002040F234520B
:104FB000C2F20002D2F800C040F2305EC2F2000E2F
:104FC000CEF800C040F2445CC2F2000CDCF800E015
:104FD00040F24054C2F20004C4F800E00068406AA5
:104FE00010600868406ACCF800001878002819D0D2
:104FF000FFE740F23050C2F20000006840F2345146
:10500000C2F200010968421A00238842B8BF012396
:105010004FF4C36003FB002040F23851C2F200019C
:10502000086018E040F23450C2F20000006840F21C
:105030003051C2F200010968421A00238842B8BF09
:1050400001234FF4C36003FB002040F23851C2F249
:1050500000010860FFE740F24C50C2F20000007807
:10506000002819D0FFE740F24050C2F2000000686B
:1050700040F24451C2F200010968421A00238842FA
:10508000B8BF01234FF4C36003FB002040F2485136
:10509000C2F20001086018E040F24450C2F2000081
:1050A000006840F24051C2F200010968421A002330
:1050B0008842B8BF01234FF4C36003FB002040F2D5
:1050C0004851C2F200010860FFE7FDF751FEFFE71B
:1050D00002B010BD82B001460190009102B070474D
:1050E00082B001460190009102B0704780B58CB04B
:1050F00001460B900B98006800680A900B980068B6
:10510000C06809900B9800684069089000200790DB
:1051100006900A9800F00F00079007980028059164
:1051200012D1FFE79DF82800800600280BD5FFE785
:105130009DF824008006002805D5FFE70B9801F0B4
:10514000FBF80490E0E0FFE70798002800F0BA8041
:10515000FFE79DF82000C007002807D1FFE7BDF852
:10516000240010F4907F00F0AD80FFE79DF8280048
:10517000C00700280CD0FFE79DF82500C0070028D5
:1051800006D0FFE70B98C16B41F00101C163FFE757
:105190009DF82800400700280CD5FFE79DF8200067
:1051A000C007002806D0FFE70B98C16B41F0020151
:1051B000C163FFE79DF82800800700280CD5FFE7B2
:1051C0009DF82000C007002806D0FFE70B98C16BB0
:1051D00041F00401C163FFE79DF8280000070028A3
:1051E0000CD5FFE79DF82000C007002806D0FFE798
:1051F0000B98C16B41F00801C163FFE70B98C06BCE
:1052000000285ED0FFE79DF82800800600280BD517
:10521000FFE79DF824008006002805D5FFE70B98DE
:1052200001F08AF80390FFE70B9800684069C0F32B
:10523000801006900B98C06B0007002804D4FFE78D
:105240000698002833D0FFE70B9801F049F80B9837
:10525000006840694006002824D5FFE70B980068E5
:10526000416921F0400141610B98406B002814D046
:10527000FFE70B98406B46F2BD21C0F60001416389
:105280000B98406BFEF70EF8002805D0FFE70B984F
:10529000406B416B8847FFE703E00B98FFF720FF67
:1052A000FFE703E00B98FFF71BFFFFE708E00B9811
:1052B000FFF716FF0B984FF0000EC0F83CE0FFE739
:1052C000FFE721E09DF82800000600280BD5FFE746
:1052D0009DF824000006002805D5FFE70B9801F093
:1052E0003DF9029010E09DF82800400600280BD5FB
:1052F000FFE79DF824004006002805D5FFE70B983E
:1053000001F004F80190FFE70CB080BD80B584B0D7
:105310000146029002980028019104D1FFE7012084
:105320008DF80F0041E002988069002801D0FFE766
:1053300000E0FFE7029890F83900002808D1FFE765
:105340000298002180F83810029800F033F8FFE747
:105350000298242180F8391002980068C16821F46D
:105360000051C160029801F063F802980068016979
:1053700021F49041016102980068416921F02A01FD
:10538000416102980068C16841F40051C16002980F
:105390000021C16302984FF0200E80F839E0029896
:1053A00080F83AE08DF80F10FFE79DF80F0004B089
:1053B00080BD000080B58EB001460D9000200C909D
:1053C0000B900A9009900D98006843F60002C4F211
:1053D00001029042069146D1FFE7FFE741F2180033
:1053E000C4F20200016841F480410160006800F4E9
:1053F0008040089008980590FFE7FFE741F2180009
:10540000C4F20200016841F004010160006800F08C
:105410000400079007980490FFE74FF4007009908C
:1054200002200A9003200C9040F60000C4F2010014
:1054300009A903900291FDF7EFFF4FF480600990F6
:1054400000200A900B900399019008460299FDF7FD
:10545000E3FF252000900199019AFEF743FA009896
:10546000FEF734FAFFE70EB080BD000080B587B0CC
:1054700013468C46864605900491ADF80E2005989B
:1054800090F83A0020280293CDF804C0CDF800E04F
:105490004CD1FFE70498002805D0FFE7BDF80E00C7
:1054A000002804D1FFE701208DF81B0042E0FFE750
:1054B000059890F83800012804D1FFE702208DF804
:1054C0001B0037E00598012180F83810FFE7FFE75F
:1054D000049805998862BDF80E0005998885BDF885
:1054E0000E000599C88505980021C1630598222101
:1054F00080F83A10FFE70598002180F83810FFE7A0
:1055000005980068C16841F48071C1600598006821
:10551000416941F00101416105980068C16841F0AD
:105520002001C16000208DF81B0003E002208DF8EF
:105530001B00FFE79DF81B0007B080BD80B586B05B
:1055400001460590059840F25062C2F20002904276
:10555000049140F0C280FFE740F21C50C2F200000C
:10556000007801460028039127D0FFE7039801281F
:1055700000F08180FFE70398022840F0A080FFE759
:1055800040F21D50C2F2000000780D2808D0FFE75D
:1055900040F21D50C2F2000000780A2801D1FFE756
:1055A0008EE040F21C50C2F200000021017040F277
:1055B0001810C2F200000160FFE740F21D50C2F275
:1055C0000000007801460A28029104D0FFE7029803
:1055D0000D280CD012E040F21C50C2F20000002155
:1055E000017040F21810C2F20000016042E040F287
:1055F0001C50C2F2000001210170FFE740F21D5073
:10560000C2F2000000780D2807D0FFE740F21D50DD
:10561000C2F200000078019002E000200190FFE754
:10562000019840F21811C2F200010A6840F21C13FE
:10563000C2F200039854086801300860086840F21C
:10564000FF31884215D1FFE740F21810C2F2000086
:10565000016840F21C12C2F200020023535440F2CF
:105660001C51C2F2000102220A700360FDF712FA17
:10567000FFE7FFE724E040F21D50C2F2000000788F
:105680000A280FD1FFE740F21C50C2F200000221AD
:10569000017040F21810C2F2000000210160FDF715
:1056A000F9F90BE040F21C50C2F200000021017039
:1056B00040F21810C2F200000160FFE700E0FFE7CF
:1056C00040F25060C2F2000040F21D51C2F20001EF
:1056D0000122FFF7CBFE0090FFE706B080BD00007F
:1056E00082B001460190009102B07047FFE7FEE7EB
:1056F00080B58EB000200D900C900B900A90FFE7C3
:1057000041F21800C4F20200016841F0200101607A
:10571000006800F02000099009980690FFE7FFE775
:1057200041F21800C4F20200016841F00401016076
:10573000006800F00400089008980590FFE7FFE774
:1057400041F21800C4F20200016841F00801016052
:10575000006800F00800079007980490FFE740F603
:105760000040C4F201004FF48071012203900291C5
:105770000192FDF7EDFF02980A9011210B9101991A
:105780000C9102220D920AA90398FDF745FE0EB076
:1057900080BD000080B586B0002005900490039085
:1057A00002900190009040F25051C2F2000142F686
:1057B0000042C4F201020A6047224A6010228A6055
:1057C00042F20F72CA600861486180208861084611
:1057D000FEF758FE002803D0FFE7FDF761FDFFE765
:1057E0004FF48050029040F25050C2F2000002A9E3
:1057F000FEF7DCFE002803D0FFE7FDF751FDFFE7D1
:1058000000200090019040F25050C2F20000694622
:10581000FEF7E8FD002803D0FFE7FDF741FDFFE7B5
:1058200006B080BD80B58EB000200D900C900B901E
:105830000A900990089007900690059004900390B4
:105840000290019040F29051C2F200014FF080426C
:105850000A6047224A6010228A6042F20F72CA60D0
:105860000861802088610846FEF70CFE002803D0FE
:10587000FFE7FDF715FDFFE74FF480500A9040F277
:105880009050C2F200000AA9FEF790FE002803D053
:10589000FFE7FDF705FDFFE740F29050C2F2000080
:1058A000FFF7DCFA002803D0FFE7FDF7F9FCFFE77C
:1058B00000200890099040F29050C2F2000008A920
:1058C000FEF790FD002803D0FFE7FDF7E9FCFFE7B6
:1058D000602001900020029003900421059140F285
:1058E0009051C2F2000101AA009008461146009AA8
:1058F000FFF704FA002803D0FFE7FDF7D1FCFFE72C
:105900004FF4FA70029040F29050C2F2000001A9E8
:105910000422FFF7F3F9002803D0FFE7FDF7C0FCEE
:10592000FFE70020029040F29050C2F2000001A96F
:105930000822FFF7E3F9002803D0FFE7FDF7B0FCEA
:10594000FFE74FF4FA70029040F29050C2F200006C
:1059500001A90C22FFF7D2F9002803D0FFE7FDF7D9
:105960009FFCFFE740F29050C2F20000FFF790F971
:105970000EB080BD80B58CB003A824210090FAF74A
:105980009DFC00200290019040F2D051C2F2000133
:1059900040F2004EC4F2000EC1F800E0486088609A
:1059A00040F2176EC1F80CE0086188614FF0030EF9
:1059B000CDF80CE004904FF0010ECDF814E0069005
:1059C0000F2207920890CDF824E00A900B92084627
:1059D0000099FEF7BBFE002803D0FFE7FDF760FC4F
:1059E000FFE700200190029040F2D050C2F2000088
:1059F00001A9FEF7F7FC002803D0FFE7FDF750FCF4
:105A0000FFE70CB080BD000080B58CB003A8242156
:105A10000090FAF753FC00200290019040F21061D0
:105A2000C2F2000140F6000EC4F2000EC1F800E020
:105A30004860886040F2176EC1F80CE00861886128
:105A40004FF0030ECDF80CE004904FF0010ECDF8AE
:105A500014E006900F2207920890CDF824E00A90F7
:105A60000B9208460099FEF771FE002803D0FFE76D
:105A7000FDF716FCFFE700200190029040F2106055
:105A8000C2F2000001A9FEF7ADFC002803D0FFE739
:105A9000FDF706FCFFE70CB080BD000080B540F2CA
:105AA0005060C2F2000043F60001C4F2010101603F
:105AB0004FF4E131416000218160C16001610C223D
:105AC00042618161C161FFF721FC002803D0FFE73B
:105AD000FDF7E6FBFFE780BDFFE7FEE7704700004C
