:020000040800F2
:1000000050040020C9010008DB0E0008CD0D0008D7
:10001000D90E0008D5020008A9130008000000004E
:10002000000000000000000000000000DF0E0008DB
:10003000D702000800000000DD0E0008E10E0008F5
:10004000E3010008E3010008E3010008E301000800
:10005000E3010008E3010008E3010008E3010008F0
:10006000E3010008E3010008E3010008E3010008E0
:10007000E3010008E3010008E3010008E3010008D0
:10008000E3010008E3010008E3010008E3010008C0
:10009000E3010008E3010008E3010008E3010008B0
:1000A000E3010008E3010008E3010008E3010008A0
:1000B000E3010008E3010008E3010008E301000890
:1000C000E3010008E3010008E3010008E301000880
:1000D000E30100089D130008E3010008E3010008A4
:1000E000E3010008E3010008E3010008E301000860
:1000F000E3010008E3010008E3010008E301000850
:10010000E3010008E3010008E3010008E30100083F
:10011000E3010008E3010008E3010008E30100082F
:10012000E3010008E3010008E3010008E30100081F
:10013000E3010008E3010008E3010008E30100080F
:10014000E3010008E3010008E3010008E3010008FF
:10015000E3010008E3010008E3010008E3010008EF
:10016000E3010008E3010008E3010008E3010008DF
:10017000E3010008E3010008E301000800000000BB
:10018000E3010008E3010008E3010008E3010008BF
:10019000E3010008E3010008E3010008E3010008AF
:1001A000E3010008E3010008E3010008E30100089F
:1001B000E3010008DFF80CD000F07AF800480047AF
:1001C000E91300085004002006488047064800470D
:1001D000FEE7FEE7FEE7FEE7FEE7FEE7FEE7FEE7F7
:1001E000FEE7FEE7750F0008B50100082DE9F05F96
:1001F0000546002092469B46884606468146402496
:100200001BE0284641464746224600F041F8534647
:100210005A46C01A914110D311461846224600F0A2
:1002200028F82D1A67EB01084F46224601200021CD
:1002300000F01FF817EB00094E41201EA4F1010445
:10024000DFDC484631462A464346BDE8F09FD2B23D
:1002500001E000F8012B491EFBD270470022F6E7AF
:1002600010B513460A4604461946FFF7F0FF20462C
:1002700010BD202A04DB203A00FA02F1002070476A
:100280009140C2F1200320FA03F3194390407047D4
:10029000202A04DB203A21FA02F00021704721FADB
:1002A00002F3D040C2F12002914008431946704742
:1002B000064C074D06E0E06840F0010394E80700B3
:1002C00098471034AC42F6D3FFF778FF9414000837
:1002D000B4140008FEE77047704790F83510022903
:1002E00003D08021416501207047052180F8351039
:1002F0000068016821F001010160002070470000E2
:1003000070B5044600F000F90546601C02D00448B0
:100310000078044400F0F8F8401BA042FAD370BD06
:10032000000000202DE9F84FDFF890B100224FF0D7
:1003300001084FF0030A4FF00F090BF1040E00BF44
:100340000B6808FA02F42340A3426ED14D68022DD7
:1003500001D0122D0ED1D50800EB850CDCF8205011
:100360005607F70E09FA07F6B5430E69BE402E434D
:10037000CCF82060066855000F790AFA05FC07F0F2
:10038000030726EA0C06AF40374307604E68012E8C
:1003900005D0022E03D0112E01D0122E0ED1876867
:1003A000CE6827EA0C07AE403E4386604668A64307
:1003B0000C79C4F30014944034434460C4688E68DC
:1003C00024EA0C04AE402643C6604C68E4006FD5B6
:1003D0003B4C256845F480452560246822F00305E0
:1003E00004F480440094374C2E19D6F80848950739
:1003F0002F0F09FA07F5AC43334DA84201D1002570
:100400002EE0324DA84201D1012529E0304DA8420D
:1004100001D1022524E02F4DA84201D103251FE080
:100420002D4DA84202D104251AE041E02B4DA842EF
:1004300001D1052514E02A4DA84201D106250FE07F
:10044000284DA84201D107250AE0274DA84201D135
:10045000082505E0254DA84201D1092500E00A251F
:10046000BD402543C6F80858DBF800405D464E689D
:100470009C43F60300D51C432C60DEF80040754613
:100480004E689C43B60300D51C432C600B4D0835C9
:100490002C684E689C43F60200D51C432C60074D27
:1004A0000C352C684E689C43B60200D51C432C606A
:1004B000521C102AFFF444AFBDE8F88F003C014005
:1004C0004438024000300140000002400004024075
:1004D00000080240000C02400010024000140240DC
:1004E00000180240001C024000200240002402408C
:1004F000426931EA020200D10904816170470AB100
:10050000816170470904FBE701488068704700007B
:100510000000002002488168027811448160704721
:10052000000000200B4810B5016841F40071016023
:10053000016841F480610160016841F480710160EB
:10054000032000F071F8002000F006F800F024F815
:10055000002010BD003C024070B50D4D04464FF424
:100560007A712878B1FBF0F00A490968B1FBF0F024
:1005700000F01EFB48B9102C07D200222146501E65
:1005800000F032F800206C6070BD012070BD0000EA
:10059000000000200C0000200B4882B0016841F4EC
:1005A00080410160006800F4804000900648001F10
:1005B000016841F080510160006800F080500090B7
:1005C000052002B000F030B844380240002809DBB2
:1005D00000F01F02012191404009800000F1E0205D
:1005E000C0F8001170470000F0B40E4B1B680C46B9
:1005F000C3F30223C3F10705042D00D90425191DF7
:10060000072901D2002300E0DB1E012606FA05F1CE
:10061000491E214099409E40761E16403143F0BC51
:1006200000F0C3BE0CED00E0064900F007020868C8
:100630004FF6FF03184040EA0220034A10430860C7
:10064000704700000CED00E00000FA052DE9F843CA
:100650001748016841F0805101600068154F00F0B3
:100660008050012600903E64FFF74EFF05464FF490
:100670007A78114C05E000BFFFF746FF401B40456C
:100680000DD86068C003F7D57E64FFF73DFF0546CF
:10069000464607E0FFF738FF401BB04202D903206F
:1006A000BDE8F88360688003F4D50020F8E7000017
:1006B0004038024000000E42007000402DE9F04733
:1006C0000E46050065D0DFF81481D8F80000F7B2B7
:1006D00000F00F00B04207D288F80070D8F8000090
:1006E00000F00F00B04254D128683D4C810712D56C
:1006F000400703D5206840F4E050206028780007C8
:1007000003D5206840F4604020602068A96820F08C
:10071000F000084320602878C0072DD03049686871
:100720000839012812D0022813D0032811D00968F3
:10073000890700292DDA216821F003010143216096
:10074000FFF7E2FE814641F2883A0EE0096889032C
:10075000EFE709688901ECE7FFF7D6FEA0EB090196
:10076000514502D90320BDE8F0872068696800F090
:100770000C00B0EB810FEFD1D8F80010404601F02B
:100780000F01B14207D90770006800F00F00B042B6
:1007900001D00120E7E72878400705D52068E968FF
:1007A00020F4E050084320602878000706D5206830
:1007B000296920F4604040EAC100206000F036F86A
:1007C0002168084AC1F30311515CC840064908601A
:1007D0000020FFF7C1FE0020C5E70000003C0240FA
:1007E000083802407C1400080C0000200448054929
:1007F00000680968044AC1F38221515CC84070470F
:100800000C000020083802408C14000804480549F8
:1008100000680968044AC1F34231515CC84070471E
:100820000C000020083802408C140008154810B550
:10083000006810F00C02144813D04110042A0FD0A5
:10084000082A0ED10F4C241F2268236802F03F02B1
:100850005B0207D52068C0F38810A0FB010106E009
:10086000084610BD2168C1F38811A1FB00010023D7
:10087000FFF7BCFC2168C1F30141491C4900B0FBF2
:10088000F1F010BD083802400024F4002DE9F84FC3
:1008900005460078DFF800B3C04CC0074AD0DBF84B
:1008A00000105846C1F38101012908D00068C0F347
:1008B000810002280AD1201D0068400206D5206868
:1008C000800337D56868002872D033E06868B0F5D7
:1008D000803F10D0B0F5A02F206810D020F48030D9
:1008E0002060206820F4802020606868A8B1FFF7AD
:1008F0000BFE06460DE0206840F48030F4E740F43B
:1009000080202060F7E700BFFFF7FEFD801B642812
:100910006FD820688003F7D50CE0FFF7F5FD064699
:1009200005E000BFFFF7F0FD801B6428F0D82068C9
:100930008003F7D42878DFF8688280074FF0000939
:1009400040D5DBF80010584611F00C0F09D00068B4
:10095000C0F3810002280BD18F48001F00684002BD
:1009600006D42068800715D5E868012820D111E059
:10097000E868B8B10120C8F80000FFF7C5FD0646D9
:1009800005E000BFFFF7C0FD801B0228C0D820682B
:100990008007F7D52068296920F0F80040EAC100F7
:1009A00020600FE0C8F80090FFF7AEFD064606E0B5
:1009B000EFE000BFFFF7A8FD801B022819D82068D0
:1009C0008007F7D42878000722D5734E75486969E7
:1009D0006C3679B101210160FFF796FD074604E00E
:1009E000FFF792FDC01B022803D830688007F7D5B7
:1009F0000EE089E0C0F80090FFF786FD074604E0AE
:100A0000FFF782FDC01B02287ED830688007F7D42C
:100A10002878400768D5DFF880A100270AF1380A56
:100A2000DAF80000C0000BD4DAF8001041F0805171
:100A3000CAF80010DAF80000012700F0805000909A
:100A4000594E3068C00510D4306840F48070306072
:100A5000FFF75AFD009005E0FFF756FD0099401A98
:100A6000022851D83068C005F6D54B4EA8686836C4
:100A700001280FD00528306810D020F00100306028
:100A8000306820F004003060A868B8B1FFF73CFD82
:100A900000900FE0306840F00100F4E740F00400FF
:100AA0003060F7E7FFF730FD0099411A41F28830D6
:100AB000814266D830688007F4D50EE0FFF724FD48
:100AC000009007E0FFF720FD0099411A41F28830BD
:100AD000814256D830688007F4D42FB1DAF800107C
:100AE00021F08051CAF80010A869D0B3DBF80010DB
:100AF000C1F3810102294CD00228484607D0C8F82A
:100B00006000FFF701FD00E03BE005463CE04746A2
:100B1000C8F86000FFF7F8FC064604E0FFF7F4FCB5
:100B2000801B02282DD820688001F7D4F5E9070141
:100B30000843E9681D4A490802EB0141AA6841EAF5
:100B400082110843297C40EA0160297D40EA017155
:100B50001148001F016001203866FFF7D5FC0546EB
:100B600005E014E0FFF7D0FC401B022809D82068FC
:100B70008001F7D50BE000BFFFF7C6FC401B022841
:100B800002D90320BDE8F88F20688001F4D400204A
:100B9000F8E70120F6E7000008380240003802407C
:100BA00000004742800E4742007000400000FFFFF7
:100BB00010B5401EB0F1807F01D3012010BD4FF071
:100BC000E02460610F21601700F0EFFB0020A061BE
:100BD00007202061002010BD7047000070B502683A
:100BE00004461068D168536910F00F0F50D003F01D
:100BF000010501F4907635435DD0C20705D0CA05E2
:100C000003D5E26B42F00102E263420705D5DA0741
:100C100003D0E26B42F00202E263820705D5DA07F5
:100C200003D0E26B42F00402E263020705D5DA0763
:100C300003D0E26B42F00802E263E26B002A33D099
:100C4000800604D5880602D5204600F0D3F9206836
:100C50004069E16BC0F38010090700D428B3204637
:100C600000F0BAF92068416949061AD5416921F0B6
:100C700040014161606BA0B11B490165606BFFF7EA
:100C80002CFB002810D0606B016DBDE87040084758
:100C9000830610D58B060ED52046BDE8704000F0C7
:100CA000A9B92046FFF798FF70BD2046FFF794FFD3
:100CB0000020E06370BD030606D50B0604D5204670
:100CC000BDE8704000F038BB4006F3D54806F1D5CA
:100CD000D168204621F04001D160202184F83910EC
:100CE00000F073F870BD0000C90F000870B5040073
:100CF00004D094F83900002510B106E0012070BD41
:100D000084F83850204600F023F8242084F8390075
:100D10002068C16821F40051C160204600F0B6F996
:100D20002068016921F4904101612068416921F046
:100D30002A0141612068C16841F40051C160E56346
:100D4000202084F8390084F83A00002070BD0000AB
:100D500010B586B0044614216846FFF77FFA17499C
:100D60002068884228D11648016841F010010160CE
:100D7000006800F01000059011481438016841F037
:100D8000020101600068694600F002000590C02081
:100D90000090022001900120029003200390072080
:100DA00004900848FFF7BEFA002203212520FFF730
:100DB0001BFC2520FFF70AFC06B010BD0010014007
:100DC000443802400004024070477047FEE70000CC
:100DD0002DE9F04387B014216846FFF73FFA2C480D
:100DE000016841F002010160016801F00201059112
:100DF000016841F008010160016801F008010591F6
:100E0000016841F480610160016801F4806105912D
:100E1000016841F080010160016801F080010591E5
:100E2000016841F04001016000681A4F00F0400085
:100E30000590012230213846FFF761FBDFF858802A
:100E4000012208214046FFF75AFBDFF850900122AB
:100E500040214846FFF753FB30200124022503269A
:100E60008DE8710069463846FFF75CFA08208DE886
:100E7000710069464046FFF755FA40208DE8710041
:100E800069464846FFF74EFA07B0BDE8F083000018
:100E900030380240000C0240002802400018024096
:100EA0000C4810B50A4901604FF4E131416000215E
:100EB00081600C22C160C0E904128161C161FFF749
:100EC00015FF002803D0BDE81040FFF705BA10BD9C
:100ED0000010014010000020FEE770477047704787
:100EE000FFF718BB30B593B034216846FFF7B6F969
:100EF00014210DA8FFF7B2F91C480025016841F044
:100F000080510160006800F080501290184801681C
:100F100041F4404101600068022400F44040129016
:100F2000012000904FF4A02001906005CDE906401B
:100F3000082008904FF4B470CDE909040420CDE9ED
:100F40000B046846FFF7A2FCFFF780FB0DA90F20FA
:100F500081E831004FF4A0501090E002119005217B
:100F60000DA8FFF7ABFB13B030BD000040380240C6
:100F7000007000401048016841F4700101600F48A2
:100F8000016841F0010101600C4A00210832116042
:100F900002680B4B1A400260031D0A4A1A6002687D
:100FA00022F48022026005480C3001600249580694
:100FB000803908607047000088ED00E0003802408A
:100FC000FFFFF6FE1030002410B5806B0021C185B4
:100FD000C184FFF701FE10BD0168CA6822F4907257
:100FE000CA6001684A6922F001024A61202180F842
:100FF0003A10704710B590F83A10222901D002201B
:1010000010BD8168B1F5805F11D0016900290168C8
:101010001FD0496801F07F03816A4A1C82620B700D
:10102000C18D491E0904090CC18518D02BE0026945
:10103000816A002A0268526805D0D2B20A80816AA9
:10104000491C8162ECE7C2F308020A80816A891CAC
:10105000F7E74A68816A4B1C83620A70E0E701681F
:10106000CA6822F02002CA600168CA6822F480724D
:10107000CA6001684A6922F001024A61202180F8B1
:101080003A10FFF7A1FE002010BD00002DE9F0414D
:10109000044600680169E26821F44051114301618E
:1010A0002169A068E2690843616911432268084325
:1010B000D16849F20C6399430143D16020684169CA
:1010C000A26921F4407111434161E2696425B2F5DE
:1010D000004F9748974922684FF032083FD08A4224
:1010E00001D082427CD1FFF791FB00EBC00101EB04
:1010F000001061688900B0FBF1F6FFF787FB00EB99
:10110000C00101EB001061688900B0FBF1F0B0FB99
:10111000F5F06FF01801484306EB800108EB011071
:10112000B0FBF5F000F0F006FFF770FB00EBC0013C
:1011300001EB001061688900B0FBF1F0B0FBF5F045
:1011400006EB0016FFF762FB00EBC00101EB00109D
:1011500061688900B0FBF1F7FFF758FBD2E08A42E3
:1011600001D082423DD1FFF751FB00EBC00101EB02
:10117000001061684900B0FBF1F0B0FBF5F006012A
:10118000FFF744FB00EBC00101EB00106168490070
:10119000B0FBF1F7FFF73AFB00EBC00101EB0010E9
:1011A00061684900B0FBF1F0B0FBF5F06FF0180199
:1011B000484307EB800108EBC100B0FBF5F000F0FD
:1011C000F80006EB4006FFF721FB00EBC00101EB46
:1011D000001061684900B0FBF1F7FFF717FB3CE036
:1011E00055E0FFF703FB00EBC00101EB0010616865
:1011F0004900B0FBF1F0B0FBF5F00601FFF7F6FA9D
:1012000000EBC00101EB001061684900B0FBF1F791
:10121000FFF7ECFA00EBC00101EB00106168490038
:10122000B0FBF1F0B0FBF5F06FF01801484307EBAD
:10123000800108EBC100B0FBF5F000F0F80006EB10
:101240004006FFF7D3FA00EBC00101EB0010616824
:101250004900B0FBF1F7FFF7C9FA00EBC00101EB61
:10126000001061684900B0FBF1F0B0FBF5F06FF0E1
:101270001801484307EB800108EBC100B0FBF5F013
:1012800000F00700216830448860BDE8F081FFF776
:10129000ADFA00EBC00101EB001061688900B0FB02
:1012A000F1F6FFF7A3FA00EBC00101EB0010616853
:1012B0008900B0FBF1F0B0FBF5F06FF01801484386
:1012C00006EB800108EB0110B0FBF5F000F0F00632
:1012D000FFF78CFA00EBC00101EB00106168890098
:1012E000B0FBF1F0B0FBF5F006EB0016FFF77EFA6D
:1012F00000EBC00101EB001061688900B0FBF1F761
:10130000FFF774FA00EBC00101EB0010616889007F
:10131000B0FBF1F0B0FBF5F06FF01801484307EBBC
:10132000800108EB0110B0FBF5F000F00F00A9E719
:10133000001401400010014090F83910212901D01B
:10134000022070478168B1F5805F016A0BD04A1CAA
:101350000262026809785160C18C491E0904090CB7
:10136000C1840ED017E009880268C1F308015160FA
:1013700001690029016A02D0491C0162ECE7891C5D
:10138000FBE70168CA6822F08002CA600068C16891
:1013900041F04001C1600020704700000148FFF7A4
:1013A0001DBC000010000020FEE70907090E002800
:1013B00004DB00F1E02080F80014704700F00F001B
:1013C00000F1E02080F8141D704702E008C8121FE9
:1013D00008C1002AFAD170477047002001E001C11E
:1013E000121F002AFBD17047FFF79CF8FFF77AFD28
:1013F000FFF7EEFCFFF754FD1D4E1E4C1E4D402125
:101400003046FFF775F8FA20FEF77AFF10212046E4
:10141000FFF76EF8FA20FEF773FF20212046FFF752
:1014200067F8FA20FEF76CFF08212846FFF760F8FE
:10143000FA20FEF765FF08212846FFF759F8FA2041
:10144000FEF75EFF20212046FFF752F8FA20FEF754
:1014500057FF10212046FFF74BF8FA20FEF750FF08
:1014600040213046FFF744F8FA20FEF749FFC6E76F
:1014700000180240000C024000280240000000005A
:101480000000000001020304060708090000000034
:1014900001020304B4140008000000201000000042
:1014A000CA130008C4140008100000204004000003
:1014B000DA13000801000000100000000000000026
:0414C0000024F40010
:04000005080001B539
:00000001FF
